:020000021000EC
:10B00000007D002035BE010075BE0100A5B5010020
:10B010000000000000000000000000000000000030
:10B0200000000000000000000000000079BE0100E8
:10B0300000000000000000007BBE01007DBE01009A
:10B040007FBE01007FBE01007FBE01007FBE010008
:10B050007FBE0100000000007FBE01007FBE010036
:10B060007FBE01007FBE01007FBE01007FBE0100E8
:10B070007FBE01007FBE01007FBE01007FBE0100D8
:10B080007FBE01007FBE0100FDD201007FBE010036
:10B090007FBE01007FBE010005B601007FBE01003A
:10B0A0007FBE01007FBE0100000000000000000024
:10B0B0000000000000000000000000000000000090
:10B0C00010B5064C2378002B07D1054B002B02D07E
:10B0D000044800E000BF0123237010BD8823002036
:10B0E00000000000544A0200084B10B5002B03D0AA
:10B0F0000749084800E000BF07480368002B00D15B
:10B1000010BD064B002BFBD09847F9E7000000006C
:10B110008C230020544A02008423002000000000F9
:10B12000164B002B00D1144B9D46402292029A1AD6
:10B13000924600218B460F461348144A121A08F013
:10B1400079FD0F4B002B00D098470E4B002B00D001
:10B1500098470020002104000D000D48002802D06F
:10B160000C4800E000BF08F015FD2000290000F0A9
:10B17000ABF808F0F9FCC04600000800007D002094
:10B18000000000000000000088230020284F00205D
:10B190000000000000000000A0238021A122F0B5E3
:10B1A0000026404DDB058903D20099505E510D23E6
:10B1B0008268ADB0117DD3560691D17C0400059113
:10B1C000917C08AF0491517C0391117C0291D17B59
:10B1D000019101781020009152683349381808F025
:10B1E000EBFD324B3D601B685B043CD5304B1B686C
:10B1F000032B38D96B466A46BB60607843007B609E
:10B200000833DB08DB00D31A9D462A4B08AD1B68C8
:10B210002A009C463300834232D300237A68264CAE
:10B220002F21AB54200008F0F1FD2F21002807D179
:10B230005C21200008F0EAFD2100002804D05C21F8
:10B24000200008F0E3FD411C1C4A1D4B0420D3588C
:10B250001022BA1801921B4A02950092502202F065
:10B260001FFEBB689D46A02380223968DB05920340
:10B270005A50A1220021BD46D200995025B0F0BD00
:10B280006168C95C0133F9600E0961468E5D0F216A
:10B290001670FE680E4031006646715C51700232D5
:10B2A000B9E7C0460C050000744502000C230020DD
:10B2B00008230020102300205345020000B0004066
:10B2C00004050000BB450200A023032273B54349D7
:10B2D000DB055A5004315A50414980245A500431F8
:10B2E0005A50A1228021D200890399508021C9039C
:10B2F00099508021090499508021E4014904995012
:10B300002000384A042102F0AFFD374D2B6823425C
:10B3100020D0364B1B68032B1CD9354C2F21200025
:10B3200008F074FD2F21002807D15C21200008F0CF
:10B330006DFD2100002804D05C21200008F066FD8E
:10B34000411C2C4A2C4B0420D3582C4A00928B22AF
:10B3500002F0A6FD00F048FA294801F0C9F9294E8B
:10B360008023294A0021300004F044F912213000E2
:10B3700004F04EF8041E0AD024491130122208F0BD
:10B3800050FCFF2321002371300004F097F82B6854
:10B390005B0420D5154B1B68032B1CD9144C2F21A3
:10B3A000200008F033FD2F21002807D15C21200068
:10B3B00008F02CFD2100002804D05C21200008F0BA
:10B3C00025FD411C0B4A0C4B0420D358104A009217
:10B3D000952202F065FD01F0A1F8FCE7540700009A
:10B3E0005C07000041DE01000C2300200823002040
:10B3F0005345020000B00040040500000E45020065
:10B4000099B1010024240020A4230020FC44020060
:10B410003945020052DF704710DF704760DF704728
:10B4200061DF7047A023F022A121DB055204C9008F
:10B430005A5004495A50EFF3108372B60028FDD1D8
:10B440007047C0460C05000037B5134B05001B685C
:10B450005B041DD5114C2F21200008F0D7FC2F21B3
:10B46000002807D15C21200008F0D0FC2100002832
:10B4700004D05C21200008F0C9FC411C084A094B9B
:10B480000020D358084A019500924E2202F008FD90
:10B490002800FFF7C7FF37BD0C230020EE45020050
:10B4A00000B000400405000009460200F0B5184B4A
:10B4B00085B01B6806000D0017005B0423D5154BF3
:10B4C0001B68002B1FD0144C2F21200008F09EFC7D
:10B4D0002F21002807D15C21200008F097FC2100D3
:10B4E000002804D05C21200008F090FC411C0B4A8D
:10B4F0000B4B0120D3580B4A0397009202950196FB
:10B50000702202F0CDFC2800FFF78CFF05B0F0BDE3
:10B510000C23002008230020EE45020000B000406C
:10B5200004050000CE460200F0B5184B85B01B683C
:10B5300007000E0015005B0423D5154B1B68002B7C
:10B540001FD0144C2F21200008F060FC2F21002870
:10B5500007D15C21200008F059FC2100002804D00C
:10B560005C21200008F052FC411C0B4A0B4B0120CF
:10B57000D3580B4A0397009202960195482202F095
:10B580008FFC0120FFF74EFF05B0F0BD0C2300201B
:10B5900008230020EE45020000B000400405000032
:10B5A000D145020013B5124B1B685B041CD5114C2E
:10B5B0002F21200008F02AFC2F21002807D15C2130
:10B5C000200008F023FC2100002804D05C2120008A
:10B5D00008F01CFC411C084A084B0020D358084ABC
:10B5E0000092542202F05CFC0120FFF71BFF13BD08
:10B5F0000C230020EE45020000B0004004050000CE
:10B60000C345020073B501A8FFF704FF00280BD063
:10B610006B4647249D1C084E290030002C80FFF704
:10B62000FFFE002804D073BD019801F05BF8EAE743
:10B63000300001F055F8EEE7B82400207FB5414C0A
:10B64000050023685B0420D53F4B1B68032B1CD9E6
:10B650003E4E2F21300008F0D9FB2F21002807D1C2
:10B660005C21300008F0D2FB3100002804D05C21BE
:10B67000300008F0CBFB411C354A364B0420D35830
:10B68000354A00927A2202F00BFC344B0293029B63
:10B69000039323685B0422D52B4B1B68032B1ED915
:10B6A0002A4E2F21300008F0B1FB2F21002807D1AE
:10B6B0005C21300008F0AAFB3100002804D05C2196
:10B6C000300008F0A3FB411C214A224B0420D35830
:10B6D000029A0192224A0092832202F0E1FB2800A2
:10B6E00003A9FFF79BFE029B039A05009A4225D00F
:10B6F00023685B0422D5144B1B68012B1ED9134C05
:10B700002F21200008F082FB2F21002807D15C2187
:10B71000200008F07BFB2100002804D05C212000E1
:10B7200008F074FB411C0A4A0A4B0220D358039AC2
:10B7300001920C4A00928C2202F0B2FB280004B065
:10B7400070BDC0460C23002008230020EE450200F7
:10B7500000B000400405000069460200D822002025
:10B76000854602009546020000B589B0019019494E
:10B7700001A8FFF751FE002803D0174A9321FFF7D5
:10B78000D3FEC52315499B00CB585B0219D4124A3E
:10B7900094211348FFF7C8FE02E011680B431360C1
:10B7A0001422002103A808F045FA03A8FFF746FF7A
:10B7B000002803D0084A9A21FFF7B6FE002009B0FE
:10B7C00000BD8023074ADB0350680028E5D10B60E9
:10B7D000E6E7C046ADB40100EE45020000E100E03E
:10B7E00002200000A04E002030B54C4D87B02B68E1
:10B7F0005B0420D54A4B1B68032B1CD9494C2F21D5
:10B80000200008F003FB2F21002807D15C21200035
:10B8100008F0FCFA2100002804D05C21200008F088
:10B82000F5FA411C404A414B0420D358404A00924B
:10B83000B52202F035FB012202AB1A7000225A70C9
:10B840009A700732DA700298FFF78EFF2B685B045C
:10B8500020D5334B1B68032B1CD9324C2F212000E1
:10B8600008F0D4FA2F21002807D15C21200008F02D
:10B87000CDFA2100002804D05C21200008F0C6FA8F
:10B88000411C294A294B0420D3582A4A0092BF223E
:10B8900002F006FB03AC0C220021200008F0CAF9DC
:10B8A000012323700633E370234B2000636000F014
:10B8B000B3FD002803D01B4AC421FFF735FE2B68D7
:10B8C0005B0420D5164B1B68032B1CD9154C2F216C
:10B8D000200008F09BFA2F21002807D15C212000CE
:10B8E00008F094FA2100002804D05C21200008F020
:10B8F0008DFA411C0C4A0D4B0420D3580F4A00927C
:10B90000C62202F0CDFA00F0E3FD002803D0054A7C
:10B91000C721FFF709FE07B030BDC0460C23002049
:10B9200008230020EE45020000B00040040500009E
:10B93000224602003B46020049B401005446020080
:10B940001F234A0919401E3B8B4092001058184093
:10B95000431E9841C0B27047F8B5012307000D009F
:10B9600000245B420B8021000E48FFF7E9FF061E12
:10B9700009D12A880C4B9A4200D12C800134082C22
:10B98000F1D100260BE01423634308480433C018A8
:10B990001022390008F036F90028EFD12C80300051
:10B9A000F8BDC04608250020FFFF000090270020BA
:10B9B00010B5002809D178460B4B1B68002B02D02C
:10B9C00098470A480FE000DEFBE7094B1A001232E5
:10B9D0009042F6D32733FF339842F2D8801A5C2185
:10B9E00007F022FF80B210BDA84E0020FFFF00002C
:10B9F0002026002010B5002809D178460D4B1B6881
:10BA0000002B02D098470C480DE000DEFBE70B4B03
:10BA10001A1D904208D39E33984205D8801A1621E9
:10BA200007F002FF80B210BD054B04339842EAD103
:10BA30000820F8E7A84E0020FFFF00005025002056
:10BA400000260020F7B50E1E019005D17846164B52
:10BA50001B68002B10D098473068041E02D0FFF7F7
:10BA6000A7FF441C5C256543104F12357D19032C3C
:10BA700004D90023336012E000DEEDE721000C481A
:10BA8000FFF75EFF00280BD0019A2B7853407F22EE
:10BA9000134205D15C20444312343F193760F7BD8F
:10BAA00001345C35E3E7C046A84E00202026002084
:10BAB0001C260020F7B504000191161E05D178461A
:10BAC000204B1B68002B12D09847002C05D17846DC
:10BAD0001C4B1B68002B0CD098472000FFF768FF19
:10BAE000194B0700984206D100233360F7BD00DEF2
:10BAF000EBE700DEF1E73068051E02D0FFF77AFFC2
:10BB0000451C16246C43114B02341C19072DEBD82D
:10BB100029000F48FFF714FF00280FD02388BB42ED
:10BB20000CD1019AE37853403F22134206D11620EC
:10BB30004543064B04355D193560D7E701351634AA
:10BB4000E4E7C046A84E0020FFFF0000502500207B
:10BB50004C25002070B504000D1E05D17846084B19
:10BB60001B68002B0AD09847231E05D0054A0023E6
:10BB70001188A14200D1131D2B6070BD00DEF3E7D8
:10BB8000A84E002000260020F7B50F1E019005D119
:10BB90007846284B1B68002B1CD098473868264EE7
:10BBA000041E0ED033003C33984215D3320051327C
:10BBB000FF32904210D8C01A5C2107F035FE84B2E3
:10BBC00001345C25654354357519032C06D90023CF
:10BBD0003B601BE000DEE1E7184CF1E7210018486C
:10BBE000FFF7AEFE0090002818D0019B002B0ED16D
:10BBF000144B1B78002B14D15C206A464443127806
:10BC000033193C343C3336191A703E60F7BD0822B4
:10BC10002900019807F0F6FF0028E9D001345C35CF
:10BC2000D3E75C236343F35A5A425341DBB2009398
:10BC3000E2E7C046A84E002020260020FFFF0000BB
:10BC40001C26002016260020F7B505000C0000F089
:10BC5000D7FB0300022837D0032813D0012820D1B6
:10BC6000344A002012681A4262D0334A11888D4249
:10BC70005ED35288521895425ADA6060658023700C
:10BC8000180055E000262D4F2C4B9F420BD1310060
:10BC90002B48FFF755FE002805D1B7B20136102E0C
:10BCA000F2D1002044E0274AB3009A5AAA42F5D1C3
:10BCB000244AD318DB78002BF0D003232370002311
:10BCC00065806360012033E06B4660689E1D00283C
:10BCD00015D101235B42338032880027072A00D820
:10BCE000571C01235B423380082FDAD039001648F5
:10BCF000FFF726FE002808D137800137F4E731002E
:10BD0000FFF72AFE0028E4D0E6E714237B430F4A1E
:10BD10009A5AAA42F1D10D4A3780D218D278002A15
:10BD2000BFD002222270094A0433D31865806360B1
:10BD3000FEBDC0460425002018260020FFFF00009D
:10BD4000002500200C250020082500209027002039
:10BD50000620704710B52D4B1A78012A0FD12C4AB6
:10BD6000126812070BD12B4AE0241168F022080058
:10BD70001040214227D128490968114226D01A785B
:10BD8000012A0DD122490968090709D1F02021496A
:10BD900009680140402903D11F49096801422ED09A
:10BDA0001B68DBB2012B0DD1194B1B681B0709D196
:10BDB000184B1A68F0231A40A02A0FD1164A1268AD
:10BDC0001A420ED010BD3028D5D0D8E71349144AF6
:10BDD00011608021134A09021160D0E7D02AF1D105
:10BDE000ECE7114B1A68012A03D1C0220F4B1A60ED
:10BDF000E8E70F4A1A601A68012AFCD1F5E7C12169
:10BE00008020C900C0054250CAE7C046E00F00F0DC
:10BE1000E40F00F0E80F00F0EC0F00F0DFFF07C0C8
:10BE200004050040186C004000EC064014EC06408D
:10BE30007593000003210A4802680A43026009481A
:10BE400002680A4302600849084A094B9B1A03DD4D
:10BE5000043BC858D050FBDCFFF77CFFFFF760F9CC
:10BE60002405004054050040604A0200D82200200A
:10BE700088230020FEE7FEE7FEE7FEE7FEE7FEE799
:10BE800070B5051E05D17846084B1B68002B0AD0FB
:10BE90009847074B1C68002C07D0231F1B682800FD
:10BEA00098472468F7E700DEF3E770BDA84E00204E
:10BEB0003028002010B5041E05D17846044B1B68BD
:10BEC000002B02D09847A04710BD00DEFBE7C0461C
:10BED000A84E002010B508220221084802F0C2FB3B
:10BEE000002803D1064802F069FD10BD054B9A6891
:10BEF00042601B7B037202F0F9FBF6E73828002052
:10BF0000E82200207428002070B50F4D2B78002BFC
:10BF100012D10E4B5C6880239B01E41880235B04E4
:10BF20009C4209D804220121094802F09BFB002809
:10BF300003D1084802F042FD70BD446002F0D6FB18
:10BF400001232B70F8E7C0468828002074280020C1
:10BF500038280020D822002030B50D008DB0002AEE
:10BF600015D14B88012B0ED1174C2378002B05D10E
:10BF70007846164B1B68002B07D09847144B6A680D
:10BF80005A60002323700DB030BD00DEF6E7032AAF
:10BF900005D078460D4B1B68002B12D0984701AC9A
:10BFA0002C220021200007F045FE19232370094BA5
:10BFB0002000DA681B69A56022616361FFF760FFFA
:10BFC000E1E700DEEBE7C04688280020A84E00200D
:10BFD000742800203828002070B502F013FD0028D6
:10BFE0001DD001F02BFA002200261C4C110020006D
:10BFF00002F0FEFA3500002813D1194C002D01D0B3
:10C00000002E1CD100232360A3602373FFF762FF7F
:10C0100023686360FFF778FF01F034FA70BD20BF3A
:10C02000DBE74388012B08D0022B00D1051D02005D
:10C030000021200002F0DCFADDE7061DF7E72B689F
:10C04000A3602B792373B54204D92B79002B01D13E
:10C050002060DDE733682360DAE7C0463828002037
:10C060007428002010B502F00DFD014BC01810BD62
:10C0700000FCFFFF7FB500211822684607F0DAFDBB
:10C0800000230293FFF7EEFF01230193064B00907C
:10C0900069460648039302F069FB002802D0044871
:10C0A00002F08CFC07B000BD59BF01003828002009
:10C0B000F822002010B5142200210B4807F0BAFD29
:10C0C00000F062FD094B0A4A0A499A600A4A586020
:10C0D000DA60002218001A615A610A7000F06AFCE6
:10C0E000FFF7C8FF10BDC046742800205C28002060
:10C0F000F5C10100892800200087930330B58DB079
:10C1000001F09CF9134C0825237B002B1DD1A37B48
:10C11000002B1AD1104B228A9A4203D80F4B1B785E
:10C12000002B12D0012300252373A368258201333D
:10C13000A360FFF7CFFEA36801A8013B227B8360C9
:10C14000022302710370FFF79BFE01F09BF92800A8
:10C150000DB030BD74280020821600008928002010
:10C1600010B58CB001F06AF900221E4B597B914248
:10C1700009D0987B904206D11B4A188A904201D878
:10C180001A4A11780A0001241440002A11D0002212
:10C19000197B5A73914208D001290FD07846144B6D
:10C1A0001B68002B1BD0984703E0FFF7A7FF002870
:10C1B000F4D101F067F920000CB010BD1A605A608C
:10C1C0001A731A829B6801A88360022302710370AC
:10C1D000FFF756FEFFF77EFEFFF796FEE9E700DE6B
:10C1E000E7E7C04674280020821600008928002056
:10C1F000A84E002070B51A4C257B002D08D0012DCB
:10C2000016D07846174B1B68002B27D0984721E0A3
:10C21000154B228A9A4203D8144B1B78002B19D055
:10C22000FFF79EFF638A002B01D0013B638270BD44
:10C23000238A0D4A934203D80C4A1578002D09D061
:10C240000B4A934202D9012300256373FFF788FF4D
:10C25000002DE7D0238A01332382E3E700DEF9E7EC
:10C2600074280020A84E0020821600008928002093
:10C27000B021000070B5164C050023686268934237
:10C2800020D2227B012A0AD1124A9A4209D9636834
:10C290002268403B9A420AD3FFF736FE07E00E4A77
:10C2A000F3E701236373FFF75BFF0028EFD0EFF3A1
:10C2B000108072B623685A1C22602B60002805D1BA
:10C2C00062B670BDFFF720FE0F20FAE70020F8E706
:10C2D0007428002000E0FF00FFFF7F0010B50F4C26
:10C2E000002806D001220E4B9A7323689B18236006
:10C2F00010BD2368002B05D178460A4B1B68002B24
:10C300000AD098472368013B2360002BF0D1044AF0
:10C310009373FFF725FFEBE700DEF3E734280020F7
:10C3200074280020A84E002070B58CB005000E00C7
:10C3300001F084F8204C237B002B36D1638A002B3C
:10C3400028D1A368002E05D1AB4206D301F09AF89C
:10C350000CB070BD01339D421ED9A3682A339D42A3
:10C36000F4D8A37B002BF1D1144A236063602382AD
:10C37000628263732373A560FFF7ACFDFFF7C4FD12
:10C38000237B01A803710223A26803708260FFF778
:10C3900077FDDBE7002ED9D0A36801339D42D5D1CC
:10C3A00001236373FFF7DCFED0E7012BCED1002E13
:10C3B000CCD1A368F2E7C04674280020062D000007
:10C3C000014B98687047C04674280020034B1A7BC5
:10C3D0009868012A00D101387047C04674280020AF
:10C3E000034A03009068012243401340C01A70477B
:10C3F00074280020014B187B7047C0467428002029
:10C400000023984202D0024B800B1B5C180070473F
:10C41000EB46020012DF7047F7B5294E040033786F
:10C420000825002B45D10635002842D04268254B0F
:10C430001A6003F08FFF6B46DF1D3800FFF7EAFF3D
:10C44000051E36D13B78012B35D103F097FF00F064
:10C450009FFA00F0B5FF2378FA20012B02D1E07893
:10C4600000F04CF900F09CFE03F080F903F036FF79
:10C4700002F0B0FF06F0FCF802F086F802F08AFC49
:10C48000200004F049FE200001F0ACF90E4802F053
:10C49000FDFA200005F076FFFFF75AFC002801D0D6
:10C4A00006280AD100F0A0FC0022084B1A600123E4
:10C4B00033702800FEBD0225FBE70500F9E7C04602
:10C4C0008B280020A84E0020102700008C28002078
:10C4D00070B50F4B08241B78002B15D00D4D2B7811
:10C4E000002B11D100F082FE002805D078460A4BBF
:10C4F0001B68002B0AD0984703F04EF9041E03D1A5
:10C5000003F0EEFD01232B70200070BD00DEF3E789
:10C510008B2800208A280020A84E0020F0B58FB07C
:10C5200003F014FE00260400002C02D130000FB0EE
:10C53000F0BD002302AA1376220009AB23CA23C34D
:10C5400003CA03C323001D331D000393637D052B22
:10C5500000D993E0594A1268002A00D0A0E02000D8
:10C5600003F0D8FD03F0F2FD0400DDE72A2B36D0FE
:10C570002B2B00D090E00F22237D1340022B00D004
:10C580008AE00139C9B2A81C08AA02F0E9FA061E1D
:10C5900031D040224A4B1B6813427DD0494B1B6867
:10C5A000012B79D9484F2F21380007F02FFC2F217C
:10C5B000002807D15C21380007F028FC390000284A
:10C5C00004D05C21380007F021FC411C3F4A404B5D
:10C5D000D358404A019600920C22FF3231E00F22DC
:10C5E000237D1340022B57D10139A81C08AA01F062
:10C5F000E5F9061E01D100264EE04022304B1B68B3
:10C60000134249D02F4B1B68012B45D92E4F2F21A8
:10C61000380007F0FBFB2F21002807D15C213800F0
:10C6200007F0F4FB3900002804D05C21380007F043
:10C63000EDFB411C254A264BD358274A0196009210
:10C64000F822022001F02CFC26E00F22237D13406B
:10C65000022B21D10139C9B2A81C08AAFFF778FB27
:10C660001AE0EB78AA781B0213431C4A934213D1B9
:10C670000339281D08AAFFF76BFB0DE01A001732DB
:10C68000A218954200D365E76B782978292BDCD076
:10C6900000D96BE7162BE4D02B780133ED1855E762
:10C6A00005A808A98160217D063B43700907039B0B
:10C6B000090F01704360904751E7C0468C28002065
:10C6C0000C23002008230020EF46020000B00040A9
:10C6D00004050000344702000B470200E4FE00009E
:10C6E0000020704710B500F037FD002010BD00009D
:10C6F000014B18607047C0468C280020FA23072899
:10C7000002D8024B4000C35A18007047604702002D
:10C7100010B503780400002B08D00378062B05D051
:10C7200078460C4B1B68002B10D098476369002B90
:10C7300005D07846074B1B68002B09D0984701238A
:10C740002370054B5A685C60626110BD00DEEDE746
:10C7500000DEF4E7A84E002094280020F8B5164E1D
:10C7600035003468002C02D0AB68002B00D1F8BD36
:10C770002778FFB2FB1E012B1BD8636933600023AF
:10C780006361EB685A1EEA60002B05D178460B4BBB
:10C790001B68002B0BD09847AB68013BAB600023B4
:10C7A0002370032FDDD12000FFF7B2FFD9E700DEB1
:10C7B000F2E714342600D4E794280020A84E002085
:10C7C00010B5024B186800F0ABFE10BD9028002099
:10C7D00070B543690400002B05D07846164B1B68E2
:10C7E000002B18D09847154B1A68002A04D01A68F5
:10C7F00065685268AA1A10D51A681C606261DA6806
:10C800000132DA60002A05D178460B4B1B68002BF9
:10C810000FD0984770BD00DEE5E719684A69002A25
:10C8200002D05068401B02D462614C61E7E71100FE
:10C83000F4E700DEEEE7C046A84E00209428002072
:10C8400070B502250F4B5A68002A00D170BD5C6894
:10C8500062695A60002322786361052A01D123703E
:10C86000F0E72378012B05D07846074B1B68002B97
:10C8700005D0984725702000FFF7AAFFE2E700DE09
:10C88000F8E7C04694280020A84E0020F8B5FFF72E
:10C8900065FFFFF7D5FF00F077F902270600394D55
:10C8A0002B68002B04D02B685B689B1B642B1BD46C
:10C8B00000F06AF92B68002B15D064212B68324AEE
:10C8C0005B68C31ACB4200D456E00223296849684A
:10C8D000012000F011F9002805D078462B4B1B6889
:10C8E000002B4DD09847F8BD2C682378022B05D03B
:10C8F0007846264B1B68002B2DD0984763692B6028
:10C9000000236361EB685A1EEA60002B05D178466C
:10C910001E4B1B68002B20D09847A368002B05D125
:10C9200078461A4B1B68002B19D0984706232169BB
:10C9300030002370A368984700F026F90600FFF73F
:10C940000DFFFFF77DFF2378062BA8D1E268002AB0
:10C9500007D12270A3E700DED0E700DEDDE700DECE
:10C96000E4E763689B18991B6429FBD46360277014
:10C970002000FFF72DFF92E7010002236431A7E7B3
:10C9800000DEB0E794280020C1C70100A84E0020B7
:10C9900010B510220021044807F04CF9034800F0BC
:10C9A00095FD034B186010BD942800208DC8010030
:10C9B0009028002070B5041E05D17846104B1B68E6
:10C9C000002B19D09847A368002B05D178460C4B53
:10C9D0001B68002B12D09847EFF3108572B6002326
:10C9E00020006361FFF794FE002D00D162B6054B75
:10C9F000186800F095FD70BD00DEE4E700DEEBE7AF
:10CA0000A84E00209028002070B5041E05D178465D
:10CA1000144B1B68002B0CD09847EFF3108572B6AF
:10CA20002378062B07D100232370002D00D162B696
:10CA300070BD00DEF1E72378012B01D10433F3E769
:10CA40002378002BF1D02378033B012B03D9064A2E
:10CA500093680133936004232370044B186800F03B
:10CA60005FFDE2E7A84E00209428002090280020D7
:10CA700070B504000E00002805D17846174B1B68DE
:10CA8000002B15D09847EFF3108572B62378002B52
:10CA900002D02378062B0DD12000FFF739FE104B72
:10CAA0006660186800F03CFD002D00D162B670BDD4
:10CAB00000DEE8E72378012B02D02378052B02D192
:10CAC00001232370EBE72378033B012B03D9054AAD
:10CAD0009368013393600323F3E7C046A84E002018
:10CAE0009028002094280020024B1B68002B00D1C6
:10CAF00062B67047C828002070B5072502282ED8D6
:10CB0000032403351C409C4229D1EFF31083154DBB
:10CB10002B6072B6144D83005A51144A9950144A2E
:10CB200014540024134A9C50134A1278A24213D082
:10CB3000124A14680A1B00D5621A01211030814084
:10CB4000C1200F4C80002150A8211819C900425063
:10CB50000C4A9B1800225A64FFF7C6FF00252800E4
:10CB600070BDC046C8280020A8280020BC2800208E
:10CB7000A4280020D0280020B4280020B8280020B5
:10CB800000800040FC80004010B5EFF310830C4A99
:10CB9000136072B60B4B1B78002B0ED000210A4A93
:10CBA0000A4B11650122DA64094A9C58094B1B683B
:10CBB000E418FFF799FF200010BD074B1C68F8E749
:10CBC000C8280020B4280020FC80004000800040DD
:10CBD0004C050000B8280020CC280020F7B5002420
:10CBE0001E4BA500EB1801931D4BEB185B6C002B43
:10CBF0001ED01C4FEE59002E05D178461A4B1B68EB
:10CC0000002B19D0984700237B51230001221033B9
:10CC1000C2219A40114B89005A50FFF7B5FF134BC0
:10CC2000E35C9B070AD5B0470022019BFC335A64A2
:10CC30000134032CD4D1F7BD00DEE4E7010030005D
:10CC400000F0E2FB0028EFD07846074B1B68002B72
:10CC500001D09847E8E700DEE6E7C04600800040E4
:10CC6000FC800040A8280020A84E0020A428002016
:10CC7000F8B5002405002600A8200021324AB300A0
:10CC80009A18C0001150314A9A185164526C3049B8
:10CC9000304A0968A258501A844601D5881A844639
:10CCA000280078300700401A00D5C81B2A49604583
:10CCB00031D90B59002B12D000220A51274A2800E3
:10CCC000B25C92070AD42900180000F09DFB0028EE
:10CCD00005D07846224B1B68002B1AD09847214B71
:10CCE000E258002A03D0012111600022E2500136EF
:10CCF0000434032EC0D11C4B1B68002B03D18022AF
:10CD00001A4B52001A600122114B1D60184B1A7009
:10CD1000F8BD00DEE3E709590029E8D0511B00D532
:10CD2000A91A32000120103290408446C122674681
:10CD30000548920087501A18A820C0001150034AD5
:10CD40009B1800225A64D2E700800040FC8000401B
:10CD5000B8280020BC280020A8280020A4280020F3
:10CD6000A84E0020D0280020C828002000E100E0C4
:10CD7000B42800200023F0B51A0001250F49104EF9
:10CD80005C5C2C4204D00F4F9C005A54A251E251DB
:10CD90000133032BF4D100220B4B012118600B4B04
:10CDA00049421A70C2230A4A9B00D150094A0231F3
:10CDB000893BFF31FF3BD150F0BDC046A428002085
:10CDC000A8280020D0280020CC280020B42800204B
:10CDD0000080004000E100E0024A13680133136064
:10CDE0007047C046DC2800200023094A10B5094CD2
:10CDF0001360094A2361A260084AE260FFF7C4FE9B
:10CE0000064BC01860602000FFF7D4FD10BDC0467F
:10CE1000DC280020E0280020D9CD0100A0860100F8
:10CE200039DF70473ADF704730B5416803000522AB
:10CE30000800D0419C681A682500101A0F22D541BD
:10CE40002A004A40D9681A606418411880185C604A
:10CE50009960D86030BD0000F7B507000E000028CB
:10CE600005D178460E4B1B68002B04D09847002450
:10CE7000B44202D3F7BD00DEF9E76B46DD1D2800A2
:10CE8000FFF7CEFF2A78002AF7D0331B9A4200D949
:10CE90002B7038192978FFF7C5FF2B78E418E7E7DE
:10CEA000A84E0020002337B504001425042101A852
:10CEB0000193FFF7D1FF064B2360019B6360A360E2
:10CEC000E3602000013DFFF7AFFF002DF9D137BD32
:10CED000ED5EEAF14FDF704750DF704751DF70477A
:10CEE0000323064A06491375064B936112688A426A
:10CEF00002D9054A9A6070479960FCE7F82800203B
:10CF0000D80E000018290020B036000010B5064ADF
:10CF1000064918CA064A1C1910689B3C2830584319
:10CF200006F082FC201A10BDF828002040420F00B5
:10CF30001429002010B52A4B002806D01A699969D7
:10CF400001321A611A6852181A60DA68254C511CAD
:10CF500001221A759A69D96052089A6101290AD08A
:10CF6000022916D099691A688A18A2421ED81E4A48
:10CF700091421BD910BDFA2149008A4204D10028F0
:10CF800005D100229A61EDE718498A42EAD8174A8A
:10CF9000F8E71A69022A02D11A68A21AF2E7012AEE
:10CFA000E0D10028EDD0DDE700DEE3E70122002438
:10CFB00058685A721C75FFF75BFE02F0D5FCFFF74C
:10CFC000A5FF032301000A4A2000FFF795FDA042B8
:10CFD000D0D07846074B1B68002BE5D09847C9E7AF
:10CFE000F828002080969800D70E0000D80E000088
:10CFF000E1CE0100A84E0020F8B501234B4C4C4D6A
:10D0000023722B78002B04D04A4B1B78002B00D1C5
:10D010006EE000232375042861D806F0E7FB035B6C
:10D02000585652000027444A4449E36023618A5815
:10D03000434D1600A27A9446BA422DD02168A372BD
:10D040006368404A591861600121236892682E6024
:10D050006F6022602175002B00D13B4B3B48991A31
:10D0600081422AD99A4228D8A161237D023B012B13
:10D070000DD8637A002B07D002F09CFCFFF746FF27
:10D08000FFF778FE0023637200222A4B1A700023F8
:10D09000200023721430F8BD3200286869683B0014
:10D0A000121A8B411002000A294A0023614606F039
:10D0B00031FD4904C00B0143C2E7FA239B00A36181
:10D0C000D3E70120FFF736FFCFE70020FAE702F0B1
:10D0D000FDFBCAE7FFF782FD02F02EFCC5E77846AC
:10D0E0001C4B1B68002B01D09847BEE700DEBCE755
:10D0F000FFF74AFD6368C01A2B782060012B08D027
:10D10000022B0CD07846134B1B68002B0CD0984791
:10D1100002E00222A372227500232B70A5E70323ED
:10D120002375084BA361F7E700DEF5E7F828002038
:10D1300029290020282900200405000000B0004013
:10D14000302900201829002080969800E70300006D
:10D1500040420F00A84E0020043810B503280DD817
:10D1600006F044FB0D130602FFF7B6FE002805D0BB
:10D170007846084B1B68002B09D0984710BD06481D
:10D18000064B8360FFF7AAFEF0E70348FAE700DEEC
:10D19000F4E7C046A84E002018290020D80E000051
:10D1A0000023012110B50A4A0A4C137094600A4CFE
:10D1B00013715171D460094A1060094A1370094A09
:10D1C0001370094A1372537213609172536010BD49
:10D1D00018290020B0360000983A000014290020D9
:10D1E0002829002029290020F828002010B504480B
:10D1F000FFF770FE002802D10248FFF76FFE10BD56
:10D20000F9CF010018290020084B01201B7D032BBA
:10D2100008D000200122064B1B78013BDBB29A426A
:10D220004041C0B2012318407047C046F828002092
:10D2300029290020014B58687047C046F828002073
:10D2400010B5074B5A7A00239A4207D0FFF75EFECB
:10D250000400FFF799FC231A00D5031B180010BD2A
:10D26000F8280020014B187A7047C046F8280020A3
:10D27000EFF3108372B6064A527A002A03D0802157
:10D28000044A49005160002B00D162B67047C04685
:10D29000F8280020FCE100E0012210B5024B1A70D2
:10D2A000FFF7E6FF10BDC04629290020002310B576
:10D2B000074A1178994205D0984203D1054B1B7853
:10D2C000591E8B411070002B01D0FFF7D1FF10BD0C
:10D2D000282900202929002010B50100054804F064
:10D2E000F5FF002804D18022034BD2025A6010BD02
:10D2F0000420FCE738290020FCE100E07FB5002491
:10D300001F250126284B1B689C420CD3274D280063
:10D3100005F0ECFA002820D16946254805F004F80C
:10D3200000282CD07FBD6209224B92009B1822005E
:10D3300031002A4091401A680A420CD0EFF3108263
:10D3400072B6186888431860002A00D162B61A4B7A
:10D35000A200D35898470134D4E70468237C002BFB
:10D3600005D17846154B1B68002B06D09847A3685B
:10D37000E068984700232374C9E700DEF7E76B46AF
:10D380001B78012B0AD0002B08D0022BC4D1019BA3
:10D39000002BC1D0039902989847BDE7019B002B51
:10D3A000BAD002989847B7E7502A0020702A002088
:10D3B000382900206C2A0020542A0020A84E002082
:10D3C0000C480D4B10B5036010234360836004F0DC
:10D3D0004FFF0A4805F04EFAC420094B80001A5846
:10D3E00008491140C02212040A431A508022D20276
:10D3F0001A6010BD382900204C290020702A002016
:10D4000000E100E0FFFF00FF30B5040085B00D0033
:10D41000002805D17846084B1B68002B0AD0984796
:10D4200000236A466846137001940295FFF754FF83
:10D4300005B030BD00DEF3E7A84E002010B5EFF3D5
:10D44000108472B60C490A68531C0B60002A07D17D
:10D4500080220A4BD202DA67002C00D162B610BDDE
:10D46000002BF9D17846064B1B68002B01D098475A
:10D47000F2E700DEF0E7C0464C2A002004E100E0BD
:10D48000A84E002070B5EFF3108572B60C4C2368DF
:10D49000002B05D178460B4B1B68002B0DD098470D
:10D4A0002368013B2360002B03D18022064BD2026C
:10D4B0001A60002D00D162B670BD00DEF0E7C046F4
:10D4C0004C2A0020A84E002000E100E070B5051EA7
:10D4D00005D178460F4B1B68002B17D098470E4C90
:10D4E0002368052B05D978460A4B1B68002B0FD003
:10D4F0009847EFF3108372B62068421C2260074AF7
:10D5000081008D50002B00D162B670BD00DEE6E7D1
:10D5100000DEEEE7A84E0020502A0020542A00200A
:10D5200010B5114B04001B68834205D878460F4B99
:10D530001B68002B16D09847EFF3108272B60C4B85
:10D54000610989005B181F210C401E39A140186831
:10D55000014319608021074BC9025960002A00D19C
:10D5600062B610BD00DEE7E7502A0020A84E00207A
:10D570006C2A0020FCE100E070B504000D001600EC
:10D58000002805D178460E4B1B68002B14D0984715
:10D59000002D05D178460A4B1B68002B0ED098470A
:10D5A000EFF3108372B60022A560E6602274246057
:10D5B000934200D162B670BD00DEE9E700DEEFE71E
:10D5C000A84E002070B5041E05D17846144B1B6888
:10D5D000002B20D09847A368002B05D17846104B2C
:10D5E0001B68002B19D09847EFF3108672B6257C84
:10D5F0001120EDB2002D0AD101230A482374210025
:10D6000005F04AF980222800074BD2025A60002E0A
:10D6100000D162B670BD00DEDDE700DEE4E7C046A3
:10D62000A84E0020702A0020FCE100E010B5041E86
:10D6300005D17846044B1B68002B03D09847207C0B
:10D64000C0B210BD00DEFAE7A84E002070B505009C
:10D6500088B00C0016000021052204A806F0EAFAA2
:10D66000152219202B696A441BBA190A13705170CC
:10D67000190C1B0ED37091706844E11D072206F04F
:10D68000D0FA68696A46113004A905F05DF90623ED
:10D690006A46591EE05C525C4240F2540B1EF7D1C0
:10D6A00008B070BD73B5002306000193336880682D
:10D6B000DA7A0823002A00D1043B340009300C3404
:10D6C000C01801AA7368210001F090FB042500280E
:10D6D00017D0737B012B16D00120FEF7FFFD3568B4
:10D6E000FEF774FE286130680C30FEF7C3FD0500BC
:10D6F0000020FEF7F3FD002D05D00199200001F078
:10D7000003FC280076BD3568019C2889FEF778FE69
:10D71000012805D07846314B1B68002B53D0984721
:10D72000AB7A7F2B05D978462C4B1B68002B4CD04D
:10D7300098472B4BEA689A4205D97846274B1B68D5
:10D74000002B44D098472B78002B05D17846234BEB
:10D750001B68002B3DD098476B69002B05D178469C
:10D760001E4B1B68002B36D0984701232A6921786D
:10D7700013407F22DB0111400B43237069699343FF
:10D78000097811400B432370E97A6378C90113408B
:10D790000B43DBB26370A97A934311400B43637070
:10D7A000EB681A0CA2701A0AE27023712B891A0A0C
:10D7B0006271A3716B8800251A0A2372019BE271C2
:10D7C000093333619DE700DEAAE700DEB1E700DE42
:10D7D000B9E700DEC0E700DEC7E7C046A84E00207C
:10D7E000FFFFFF0010B5084B00280AD11860012286
:10D7F000064B1A70FEF75EFCFEF7EEFB01F038FCFC
:10D8000010BD82681A60F2E7782A00207C2A002086
:10D8100010B5041E05D17846124B1B68002B1BD097
:10D8200098472368002B05D178460E4B1B68002BC8
:10D8300014D0984723685B69002B05D17846094BC3
:10D840001B68002B0CD09847012323730023200072
:10D850006373FFF727FF10BD00DEE2E700DEE9E7B4
:10D8600000DEF1E7A84E0020F0B5050091B00028D9
:10D8700006D17846494B1B68002B00D186E09847BB
:10D880002B69002B06D17846444B1B68002B00D136
:10D890007EE098472B68002B06D178463F4B1B68EB
:10D8A000002B00D176E098472B685B69002B06D1EE
:10D8B00078463A4B1B68002B00D16DE09847002258
:10D8C00003AE11003300286805F04EF82B692A6872
:10D8D0001F00D07A093F0821002800D104391D20FB
:10D8E0006844C17752690896002601320792AA68F7
:10D8F00007AC023292B2023B09930D9320009B18B1
:10D900000E93A281A6820B9605F026F83A002868AD
:10D910003900FFF79BFE280029690C30093901F016
:10D92000B7FA052323702B7A2000A3702B69667049
:10D93000636002F0F7FC0500B04225D0184B1B686D
:10D940009B0621D5174B1B68012B1DD9164C2F2187
:10D95000200006F05BFA2F21B04207D15C212000A5
:10D9600006F054FA2100002804D05C21200006F0C3
:10D970004DFA411C0D4A0E4B0220D3580D4A019519
:10D9800000920D4A00F08CFA11B0F0BD00DE77E78E
:10D9900000DE7FE700DE87E700DE90E7A84E00208C
:10D9A0000C23002008230020B047020000B00040F4
:10D9B00004050000CB470200410200000E23F0B531
:10D9C000A9B004AF051E79617A603B6100D13EE1E8
:10D9D00001001820263338180122C01806F021F95A
:10D9E00018225423BA181821D3180C2279188A182F
:10D9F0005A601821EA1D9A603B2200247F2628786D
:10DA000079188A18C0099A619C821C61FEF7E8FCAB
:10DA10002B78182233403B613023BA187864D11830
:10DA20003869FC76BC64FEF70DF8FE6018221C23F2
:10DA3000BA18D6187369002B00D1F4E018223423E9
:10DA4000BA18D418220029003000FFF7FFFD6278D1
:10DA5000F96813008B435B42DB0F0A40F372B2722A
:10DA6000A378E2781B04120213432279A0791343AE
:10DA7000F36063791B0218433081FEF7C1FC012873
:10DA800046D17A69F17A093A0823002900D1043B8A
:10DA90009A423DD318221C23BA18D6183089F1684F
:10DAA00002F080FC00283BD003233B77DB187B7718
:10DAB0003B7D3C62BB771C23F81802F033FC061E4A
:10DAC00026D0B14B1B689B0622D5B04B1B68012B9F
:10DAD0001ED9AF4C2F21200006F098F92F210028E5
:10DAE00007D15C21200006F091F92100002804D024
:10DAF0005C21200006F08AF9411CA64AA64B0220B0
:10DB0000D358A64A019600929922520000F0C8F913
:10DB100018223023BA18D1183869FDF793FF85E72A
:10DB20001C233089F918FEF78FF80028F0D1F37A1A
:10DB30000822002B00D10422182154237918CC1874
:10DB4000182101337918CB18DA777B691826073B3F
:10DB50009B1AA2689BB2A381D318E36100220C2315
:10DB60001C20BE19CB183018110004F0FDFEBB6C50
:10DB70002000BB600133FB661B23F91804F0F0FEA4
:10DB8000FB7E002BC4D03423F218D379107A1B0209
:10DB90001843F886FEF734FC3423FB1818707A4BD0
:10DBA0001B689B073FD5794B1B68032B3BD96B4602
:10DBB0006A46BB60A389A4693B615B00FB600833D4
:10DBC000DB08DB00D31A9D46754B04AD1E682A00A6
:10DBD00023003869191B88423DD80023FA686C4C31
:10DBE0002F21AB54200006F011F92F21002807D176
:10DBF0005C21200006F00AF92100002804D05C21F5
:10DC0000200006F003F9411C624A634B0420D358FC
:10DC1000644A02950192644A00928222FF3200F027
:10DC20003FF9BB689D460022FB7E3A6193420ED0CD
:10DC30001C231832BA18D4182378002B07D05B4B5A
:10DC4000E2689A4203D8A37A7F2B00D8B2E0BD469F
:10DC5000386925B0F0BD197801330809305C1070BF
:10DC60000F200140715C51700232B2E700DEABE080
:10DC7000454B1B689B0700D481E0444B1B68012B7C
:10DC80007DD9434D2F21280006F0C0F82F21002810
:10DC900007D15C21280006F0B9F82900002804D03B
:10DCA0005C21280006F0B2F8411C3A4A3A4B0220A7
:10DCB000D3583F4A0092A622FF3200F0F1F85EE00E
:10DCC000A37A1822013BA3725423BA18D518002353
:10DCD00028006B600133FC66AE602B736B73FFF73B
:10DCE000E1FCF8600028C3D118213D2379183200E7
:10DCF000C918286905F095FF2800FFF7B5FD242213
:10DD00000423BA18137025223B7BBA1813702622FD
:10DD10003B7DBA18137018223D23BA18D318182265
:10DD2000BB620C23BA18D01802F0FCFA061E26D0EB
:10DD3000154B1B689B0622D5144B1B68012B1ED963
:10DD4000134D2F21280006F061F82F21002807D15C
:10DD50005C21280006F05AF82900002804D05C2134
:10DD6000280006F053F8411C0A4A0B4B0220D358F6
:10DD70000A4A01960092A222FF3200F091F8A37A9B
:10DD80000133A37251E0C0460C2300200823002079
:10DD9000B047020000B0004004050000CB4702007D
:10DDA0001023002070470200BB450200FFFFFF0068
:10DDB000834702006369002B06D178461D4B1B6820
:10DDC000002B00D152E79847E27A0823002A00D1BD
:10DDD000043B18253D207A697D19093AD31A7B61E5
:10DDE0003E7D7B6822003100281803F0CFF9124BEA
:10DDF00038611B78002B18D0A37A012B15D9237812
:10DE0000012B06D153336088E918FDF71DFF002868
:10DE10000BD10A4B1B68002B00D151E7A27A618815
:10DE200020899847002800D04AE72089E16802F05D
:10DE3000D9FA0CE7A84E00207C2A0020782A00207E
:10DE400037B5100006AC20CC1A0000900B00002063
:10DE5000044905F0BFFC29002200002005F08CFBDE
:10DE600037BDC046F9470200034B1860034B1960E9
:10DE7000034B1A607047C0460C2300200823002083
:10DE80001423002037B5054C2468002C04D0079DCE
:10DE90000195069D0095A04737BDC046142300207C
:10DEA00030B585B008AC20CC019400950394FFF701
:10DEB000E9FF05B030BD037942799B1A9B02C01877
:10DEC0007047000010B5421E074C92B20023A242D8
:10DED00008D80133002905D04B8858400B880340EF
:10DEE00058424341180010BDFE7E0000094B10B59A
:10DEF0000400984203D30533FF33984205D978468E
:10DF0000054B1B68002B02D09847201F10BD00DE78
:10DF1000FBE7C0468C2A0020A84E0020094B10B514
:10DF20000400984203D30533FF33984205D978465D
:10DF3000054B1B68002B03D0984720000C3810BD00
:10DF400000DEFAE78C2A0020A84E002070B50500FC
:10DF50000C00830705D078460F4B1B68002B0FD0B1
:10DF60009847A30705D078460B4B1B68002B09D0B8
:10DF70009847A408A4002C19A54205D1012070BD22
:10DF800000DEEEE700DEF4E704352B1F1B680133EB
:10DF9000F2D00020F3E7C046A84E002030B585B08F
:10DFA00004006D4601200391029269461A00287010
:10DFB000019404F0BFFB05B030BD000070B5010056
:10DFC0000E4803F0B9FD0E4E7568300004F08EFC6B
:10DFD000041E07D000230360A368C0689847A542C9
:10DFE000F3D170BD002DFCD07846064B1B68002B8A
:10DFF00001D09847E9E700DEE7E7C046802A002025
:10E00000942B0020A84E002013B5002482B201A951
:10E010000448019403F008FCA04201D1019B1C1D9F
:10E02000200016BD802A002010B5FFF75FFF010019
:10E030000288024803F086FC10BDC046802A0020FA
:10E0400010B5024B1868FFF76BFA10BD9C2B00202F
:10E0500010B503880400002B05D178460C4B1B68D3
:10E06000002B12D09847208880002018830504D008
:10E07000FE236288DB019A4206D18023A00ADB00DE
:10E080008002C0180378C01810BD00DEEBE7C04660
:10E09000A84E002070B50600002504682378E41817
:10E0A0003068FFF708FF844203D26288054B9A422A
:10E0B00001D1280070BD2000FFF7CAFF2500040031
:10E0C000EEE7C046FFFF0000F0B589B0A34BA44ABD
:10E0D0001B781078022B01D009B0F0BD0328FDD8C1
:10E0E00005F08EFB04002F00FAFFA601002304A90F
:10E0F0009C48049303F0ACFC041EEDD1049D9A4BA4
:10E100002A1D1A600123964A13702F7A9F42DDD888
:10E110006E68F068FFF7CFFE7369C01AB368C01A63
:10E12000002F01D12C8AA4008442CFDB7368002B1E
:10E13000CCD00323894A33706868137004F024F844
:10E14000C4E7894B04AD1C6809232B702379280090
:10E150006B700023AB706B6002F0E4F8071E25D0F3
:10E16000824B1B689B0621D5814B1B68012B1DD957
:10E17000804E2F21300005F049FE2F21002807D1C5
:10E180005C21300005F042FE3100002804D05C2103
:10E19000300005F03BFE411C774A784B0220D358F3
:10E1A000774A01970092774AFFF77AFE2079042890
:10E1B00000D9A3E0236805F02DFB05008600A90027
:10E1C000F3002801DD682800FFF775FE01002878BC
:10E1D000E289281800F076FD80222368D2009E682C
:10E1E0000290B70ABF02BF18BA1B0392A589AD00FF
:10E1F000AA4201D975190AE0D868FFF75CFE01232D
:10E2000087423CD0BB1BAB4242D13D78ED19210087
:10E21000A289002392000C313000FFF7BFFE0028D6
:10E2200005D07846584B1B68002B46D09847574F6F
:10E2300004223B0056492800FFF7B0FE002805D015
:10E240007846514B1B68002B39D09847029B002B16
:10E2500013D022681B8851689B00CB1853604D492E
:10E260003B0004220298FFF799FE002805D078466B
:10E27000454B1B68002B24D09847A6600023464AD4
:10E280001370002B00D0CFE00222354B1A701DE72F
:10E290000023042241493000FFF780FE002805D00A
:10E2A0007846394B1B68002B05D098473E78A589E6
:10E2B000F619AD009EE700DEF8E700DEB7E700DE06
:10E2C000C4E700DED9E7DD682800FFF7F4FD0100B0
:10E2D0002878E289281800F0F5FC02230028CED027
:10E2E000A0602268038851689B00CB185360042209
:10E2F000264B2849FFF752FE0028BFD07846224B14
:10E300001B68002B00D18DE09847B7E7657BDB6881
:10E31000AD025D1908212800FFF718FE230008331D
:10E320000293002804D0194B082202992800E1E743
:10E330002F00029E10343B7832789A4207D0FF2B90
:10E3400005D07846104B1B68002B05D09847013646
:10E350000137B442EFD1E6E700DEF8E7A02B00205A
:10E36000902B0020802A0020A42B00200C230020CA
:10E37000082300202C48020000B0004004050000E3
:10E38000CB4702008E020000A84E0020A22B0020E6
:10E390002848020020480200A82B00202448020040
:10E3A0000C331800FFF776FE051E05D17846654B45
:10E3B0001B68002B25D098476B88002B0DD0624B33
:10E3C000042262492800FFF7E9FD002805D07846BD
:10E3D0005C4B1B68002B16D0984728002668FFF777
:10E3E00037FEB0602468E068FFF765FDA3688342EC
:10E3F00000D343E72800FFF72BFE534B0422544978
:10E4000078E700DED8E700DEE7E70221DA681B697B
:10E4100001209B0229706A6029004B4AAB6004F01E
:10E4200089F969E700DE2AE703234A4A13704DE6BB
:10E43000494C2368002B05D17846424B1B68002BC2
:10E4400016D09847454B24681E78002E22D1237998
:10E45000A768012B17D0002B0CD0022B1DD02079E0
:10E460002568042838D805F0C1F9204048375B00FA
:10E4700000DEE7E721003800A2890C31920005F0A8
:10E48000C1FB030000E07B8858425841C0B200281D
:10E49000E5D1032627000C37E1E72268637BD068CB
:10E4A00008229B02C018A118E9E7002E0DD1A06830
:10E4B000FFF7CEFDA8602A4B42889A4205D07846E5
:10E4C000204B1B68002B0ED09847AB69002B03D064
:10E4D00032003900280098472000FFF707FDFFF7BA
:10E4E0006DFD0023A1E700DEEFE7EB69002BF3D021
:10E4F000E189320028009847EEE72B78012B05D000
:10E500007846104B1B68002B08D09847237B627B12
:10E51000013B9A42E0D102232B70DDE700DEF5E7F4
:10E52000002E05D07846074B1B68002B08D0984773
:10E5300000232B702B6A002BCED028009847CBE706
:10E5400000DEF5E7A84E0020A22B002020480200A4
:10E5500028480200902B0020A42B0020A82B00208C
:10E56000FF7F000010B5064B1B88934207D1054B77
:10E570001A78022A03D101321A70FFF7A5FD10BDE7
:10E58000A22B0020902B0020822210B552000F49B0
:10E590000F4803F0D9F80F49012004F0B3F80E48F2
:10E5A000FEF794FF0D4B0E4A1860002313700D4ABE
:10E5B0000D48138004F05EF903F08EFD0B4B03222F
:10E5C000002800D102221A7010BDC0468C2A0020FB
:10E5D000802A002065E50100C9E001009C2B002095
:10E5E000902B0020A22B0020942B0020A02B002099
:10E5F00070B505000E001400002805D17846184BB0
:10E600001B68002B06D098472B78022B04D00024DF
:10E61000200070BD00DEF7E7E868002C12D1047816
:10E620000419E868FFF747FC0500AC42EFD26088A8
:10E630003100FFF747FC0028EAD12000FFF708FD72
:10E640000400F2E70378C3189C42E0D3FFF733FCE1
:10E650008442DCD82000FFF7FBFC0400E1E7C04661
:10E66000A84E002070B505000E001400002805D14A
:10E6700078461B4B1B68002B1CD09847731E194A09
:10E680009BB2934209D9184BF318002B05D078465A
:10E69000134B1B68002B0FD09847802C05D9784668
:10E6A0000F4B1B68002B09D098472B78002B07D104
:10E6B000002070BD00DEE1E700DEEEE700DEF4E7FB
:10E6C00020001030FFF7A0FC0028F1D00023033415
:10E6D000A40801340371C681848105600C30E8E729
:10E6E000A84E0020FE7E00000180FFFF10B5FFF75E
:10E6F00015FCFFF799FCFFF7A3FC10BD70B50500F2
:10E700000C00002805D17846154B1B68002B22D041
:10E710009847631E134A9BB2934209D9124BE318E0
:10E72000002B05D078460E4B1B68002B15D0984760
:10E730001020FFF769FC042300280AD0033B037173
:10E74000023B8381C4810560FFF76EFCFFF778FC14
:10E750000023180070BD00DEDBE700DEE8E7C046FE
:10E76000A84E0020FE7E00000180FFFF0023F7B5C9
:10E7700003700B6804000D009B0505D078468C4B98
:10E780001B68002B1FD098476B68FE2B05D9784675
:10E79000874B1B68002B18D09847270000260C37A2
:10E7A00018222900380005F03CFAA660666023694B
:10E7B000E5689E420BD32800FFF77DFB2B78019084
:10E7C000ED1800262DE000DEDEE700DEE5E7B3020F
:10E7D000ED1800932B78083BDBB2F62B06D86B794B
:10E7E000FF2B03D02A79FF2A00D0C7E001230025A0
:10E7F0002370022788E000DEC9E000DED6E0002BAF
:10E8000002D12B889B00F6182800FFF721FC019B02
:10E810000500834205D87846654B1B68002B29D03C
:10E8200098476B88634A5904490C00919142E6D19C
:10E8300066603800FFF72EFCA06000281CD1E3685A
:10E840001A789B18A3600223E56823702B78ED18D3
:10E85000A3689D420CD22800FFF7FAFBA3680600CC
:10E8600098421CD16A885449531E9BB28B421BD9D3
:10E8700000200BE000DED4E74388009A9342E2D008
:10E880000820FFF7C1FB002801D10420FEBD0323AF
:10E8900004600371FFF7C8FBFFF7D2FBD3E730003A
:10E8A000FFF7D6FB3500D9E7E06829000378C018E8
:10E8B00000F008FA0028DBD08542D9D0418820003A
:10E8C000FFF71CFFE2E7FF21E368AE02981904306E
:10E8D0008900FFF73BFB00281FD01020FFF794FBB7
:10E8E0000028D2D008230372043B43720C33077113
:10E8F000C37283724573237C0460037301235B42FC
:10E90000C381FFF791FB013523699D42DBD3FFF7FC
:10E9100097FBE3680833A360AAE7E3689B191A78BA
:10E92000083AD2B2F62A05D85A79FF2A02D01B79C2
:10E93000FF2B07D178461E4B1B68002B01D100DE50
:10E9400000E09847E3689B195B799D4205D07846C3
:10E95000174B1B68002B0DD09847E36822699E195E
:10E9600033799342CFD07846114B1B68002B03D0EC
:10E970009847C8E700DEF0E700DEC4E79E4206D015
:10E9800078460B4B1B68002B00D134E79847E268B0
:10E99000B302944663441B792269934206D07846B9
:10E9A000034B1B68002B00D127E798470136FEE692
:10E9B000A84E0020FF7F0000FE7E000010B5041E60
:10E9C00005D178460D4B1B68002B12D09847A368E1
:10E9D000002B05D17846094B1B68002B0BD09847BC
:10E9E0002368002B04D124602100054803F054FF64
:10E9F00010BD00DEEBE700DEF2E7C046A84E0020C7
:10EA0000942B002010B5074803F054F800239842D7
:10EA100004D103F0B1FB01234340DBB201201840D5
:10EA200010BDC046802A002070B5041E16D0C568EF
:10EA30002800FFF740FA010028780E4A281800F055
:10EA400041F9A060002805D178460B4B1B68002BCC
:10EA50000ED0984702232370002363600222074BE5
:10EA6000074901201A7003F04DFEFFF7E9FA70BD67
:10EA700000DEEFE7FF7F0000A84E0020A02B002063
:10EA800065E5010010B503F0EDFB10BD02000E4B73
:10EA9000643A70B505009A4205D978460B4B1B685D
:10EAA000002B0FD098470A4C68230A4A2000002107
:10EAB00000F0A0FD2900200000F050FD200000F033
:10EAC00091FC70BD00DEEEE7FCE90000A84E0020DE
:10EAD000142C0020AC2B0020F7B50F0015001E00F1
:10EAE000041E1AD0141E18D0013B00241B2B14D86E
:10EAF000FF2912D0B31CDBB2591C019300F088FC33
:10EB0000041E0AD06B461B79C77443742B23320052
:10EB100083742900143005F084F82000FEBD000045
:10EB200070B50724002916D0551E1B2D13D8FF28B9
:10EB300011D0002B0FD0094D13000A00010028004E
:10EB4000FFF7CAFF033C011E05D0FF230371280015
:10EB500000F0B4FC0024200070BDC046142C00203E
:10EB6000F0B587B004AF040079601600002806D124
:10EB700078464A4B1B68002B00D181E098477B68A0
:10EB80000920002B00D182E02578591EC9B2002D42
:10EB900078D0012D00D17CE0414E3368DB0522D5D1
:10EBA000404B1B68012B1ED93F4D2F21280005F03B
:10EBB0002DF92F21002807D15C21280005F026F926
:10EBC0002900002804D05C21280005F01FF9411C11
:10EBD000364A374B0220D35822780192354A0092A8
:10EBE0009522FFF75DF933680B20DB054FD52D4BE0
:10EBF0001B68032B4BD96B466A463B607B685B0006
:10EC00009C460833DB08DB00D31A9D462A4B04AD33
:10EC100018682A002300597801330E09865D1670A2
:10EC20000F263140415C7E6851700232191B8E42C2
:10EC3000F1D8002362461C4C2F21AB54200005F074
:10EC4000E5F82F21002807D15C21200005F0DEF82F
:10EC50002100002804D05C21200005F0D7F8411CD9
:10EC6000124A134B0420D358144A02950192144AB5
:10EC700000929622FFF714F93B680B209D4606E0B0
:10EC800000DE7CE7601C3200FDF762F80020BD4624
:10EC9000FEBD601C320000F019FAF7E7A84E002014
:10ECA0000C230020082300204D48020000B0004043
:10ECB0000405000067480200102300208D48020070
:10ECC000BB450200F7B504000E000192884205D949
:10ECD00078461B4B1B68002B03D09847FE27FF018B
:10ECE0001CE000DEFAE723889B00E3189E4222D94D
:10ECF0002388002B05D17846114B1B68002B1DD0B3
:10ED0000984723889B00E3189A0502D06288BA428C
:10ED100001D12B785B191C009E420CD96388019AA3
:10ED2000934209D08022A50AAD02D200AD18AE42AE
:10ED3000DED8BB42D7D100242000FEBD00DEE0E7D4
:10ED4000A84E0020F7B50F4D04002B680F001600E9
:10ED5000002B14D0002805D178460B4B1B68002BE4
:10ED60000ED09847012301A80370084B3A00E41A1B
:10ED7000074BA4105C43310044702B689847F7BDE3
:10ED800000DEEFE7582F0020A84E0020B02C002016
:10ED9000AD1B4C91802370B501260C4C0C4D5B00D3
:10EDA0000C4A0D4920002E6000F024FC2000943411
:10EDB00000F018FB8023094A002120006E6000F05B
:10EDC00019FC200000F00EFB70BDC046B02C0020E6
:10EDD000A82C0020D82D002045ED0100D82E0020C1
:10EDE000014B18607047C046582F0020F8B5050049
:10EDF0000C0016001F00002905D17846214B1B6826
:10EE0000002B37D09847002E05D178461D4B1B6844
:10EE1000002B31D098472378012B05D07846194B29
:10EE20001B68002B2AD098476378012B05D97846B8
:10EE3000144B1B68002B23D0984700239420336089
:10EE40006378A91C43431048C01800F0E1FA031E80
:10EE50000BD0076063780D4A9B009B580135037106
:10EE60002A2383740300457413333360181E00D0C3
:10EE70002078F8BD00DEC6E700DECCE700DED3E791
:10EE800000DEDAE7A84E0020B02C0020A82C0020DD
:10EE900070B505000C00002805D17846184B1B689A
:10EEA000002B24D09847002C05D17846144B1B68C2
:10EEB000002B1ED098472B78012B05D07846104B9D
:10EEC0001B68002B17D098476B78012B05D9784623
:10EED0000B4B1B68002B10D09847942021006B78B7
:10EEE000133943430748C01800F0E8FA70BD00DE4C
:10EEF000D9E700DEDFE700DEE6E700DEEDE7C0464B
:10EF0000A84E0020B02C002070B505000C00002891
:10EF100005D17846184B1B68002B24D09847002C4D
:10EF200005D17846144B1B68002B1ED098472B78D0
:10EF3000012B05D07846104B1B68002B17D0984743
:10EF40006B78012B05D978460B4B1B68002B10D032
:10EF50009847942021006B78133943430748C01821
:10EF600000F0E6FA70BD00DED9E700DEDFE700DE84
:10EF7000E6E700DEEDE7C046A84E0020B02C0020FA
:10EF8000F0B500248FB005000394FDF719FA009046
:10EF9000FDF730FA013843425841C3B2019303A947
:10EFA0000020FCF7F1FD0399002901D10FB0F0BD5D
:10EFB0004A682D4B5088526843439B18AB4201D09E
:10EFC0005B1BECD5012008AC2378019A8343001821
:10EFD000520083431343032213402370173002ABC4
:10EFE0000E0005321831C01804F01BFE2122009BD0
:10EFF00002A91BBA5218190A137051700836190C5D
:10F000001B0E9170D370210004AB0D22300003F071
:10F010009FFC252002AB082204A9C01804F001FEC1
:10F020000123152221001800FFF77AFD0028B6D130
:10F03000039B5E6871883788002905D10B4B0A490C
:10F04000D86804F0F1FB01000A243800604304F0A2
:10F05000EBFB013044437480039B5A6855600022E7
:10F060005B681A809BE7C04640420F00702F00206B
:10F0700037B501220F4B104C1A70104B0421E3607E
:10F080000F4B01A8A36000232361FDF7E5FEFDF708
:10F090007BFDE1680500019804F04CFC2000491953
:10F0A0006160FDF787FC074A0421074803F0C8FCAC
:10F0B00037BDC0466C2F0020702F0020404B4C0005
:10F0C00081EF01005C2F00209E480200F0B5040093
:10F0D00089B0002805D17846314B1B68002B0ED033
:10F0E00098470023651C01A92800FF270193FCF71E
:10F0F0004BFD3F02019B002B03D109B0F0BD00DEA8
:10F10000EFE75B68002B05D17846254B1B68002B89
:10F1100044D09847019804AB08300D22210003F039
:10F1200017FC082204A902A804F07BFD2100082294
:10F130000D3102A804F066FD00282AD1019B5A680F
:10F140001388FE2B01D801331380019B1B78002B01
:10F150001FD0A27A637A12021A43E37A21781B0441
:10F160001A43237B1B061343180684466646180E73
:10F170000643B446FF2618023604304066461B0A92
:10F18000CA07304389073B40D20FC90F1843FDF728
:10F19000CBF801A92800FCF7F7FCABE700DEB9E7E4
:10F1A000A84E002010B503780400012B05D978463D
:10F1B000074B1B68002B08D098472378012B03D1FD
:10F1C000A279413B1343A37110BD00DEF5E7C046B1
:10F1D000A84E002010B5041E05D178460D4B1B68C3
:10F1E000002B13D09847636F002B05D17846094B4D
:10F1F0001B68002B0CD098472200210090328C31E4
:10F20000636F126809682000984710BD00DEEAE7C6
:10F2100000DEF1E7A84E002070B50500203D6A68C9
:10F2200004001379013BDBB2FD2B10D96B6F002B6F
:10F230000DD01368583043618161FEF7C3F900288F
:10F2400005D078460D4B1B68002B15D09847696890
:10F250000B79002B0FD16B60250034352800043961
:10F2600002F06AFC280002F025FC002803D12000EF
:10F270001C30FDF7C9FB70BD00DEE8E7A84E00209A
:10F2800070B50C0005000748FDF7CEFD210004F025
:10F2900051FB0C00FDF778FC21182800FDF7E8FB76
:10F2A00070BDC046882F002073B50B780C00002B72
:10F2B00000D187E00B0038331B78002B21D14B6F36
:10F2C000002B18D101266368002B2FD01B7900205A
:10F2D000FF2B03D12000543002F002FC63681B793D
:10F2E000002B23D03040051E20D126006C36337908
:10F2F000002B41D143E008007830FEF797F9002851
:10F30000E0D023003C331B78A56E062B05D0784651
:10F310002D4B1B68002B53D098472C48FDF784FDDC
:10F320002B4904F007FB4919A16473BD25006168EE
:10F330005435002905D00439280002F0FDFB0023D4
:10F34000636001A9280002F083FB0028EDD1019B36
:10F350001A1D0C3362602362B5E71C48FDF764FD9B
:10F36000F17804F0E7FACBB2AB4203D0735D725C84
:10F37000725573540135EDB2F378AB42EDD8656840
:10F380002B79002B11D02B79FF2B01D0013B2B7156
:10F390002000083000F0E0FB0028B2D078460A4B8D
:10F3A0001B68002B0AD09847ABE77846064B1B68D2
:10F3B000002B01D09847E6E700DEE4E700DEA0E797
:10F3C00000DEAAE78B64B0E7A84E0020882F00205B
:10F3D0001027000010B50248FDF764FD10BDC046BF
:10F3E000882F002010B503780400002B09D10133C9
:10F3F00003704368002B05D02000A16E3C30FFF75E
:10F400003FFF10BD543002F055FB0028F4D1F8E75F
:10F41000F0B5060085B00F00002805D17846264BD0
:10F420001B68002B35D098471F2F05D97846224BF3
:10F430001B68002B2FD098473A003000113292B24F
:10F4400003A9543002F0F0F90190002825D10F22D1
:10F45000039D40212B7B063793431A00022313435D
:10F460002B73330001226F7360331B7828001A401E
:10F470002B7B92018B43310013432B7361310F308F
:10F48000062204F0CEFB019B2C1D6B60200005B012
:10F49000F0BD00DEC8E700DECEE7019B0024042BB0
:10F4A000F4D07846044B1C68002C02D0A0470024FE
:10F4B000ECE700DEEAE7C046A84E002070B5050084
:10F4C0000C1E01D0002805D17846184B1B68002B74
:10F4D00027D098472379002B05D17846134B1B681A
:10F4E000002B20D098474F22237A28001340237204
:10F4F0000023211FA3720A88543002F023FA2B78CC
:10F50000002B0DD028003C300378002B05D0037869
:10F51000042B02D00378052B02D1A96EFFF7B0FEB1
:10F5200070BD00DED6E700DEDDE7C046A84E002055
:10F5300070B504000D1E01D0002805D17846064B99
:10F540001B68002B06D098472000291F543002F07A
:10F55000F3FA70BD00DEF7E7A84E002070B5040096
:10F560000D00002805D17846154B1B68002B09D0EB
:10F570009847132D08D87846114B1B68002B17D0DD
:10F58000984705E000DEF4E7A0239B019D42F2D8F6
:10F59000FA212000890069433C30A1660378002BE2
:10F5A00005D00378042B02D00378052B02D170BD5F
:10F5B00000DEEDE72378002BF9D0FFF761FEF6E7D8
:10F5C000A84E0020012210B5084B04001B68134010
:10F5D000934200D00023237006220549601C04F0EA
:10F5E00020FB2000FFF7DEFD10BDC046A00000108C
:10F5F000A4000010F8B504000E0017001D0000283C
:10F6000001D0002A05D17846214B1B68002B3BD046
:10F6100098470A2D05D878461D4B1B68002B35D01E
:10F620009847AAB22000250039006035543002F016
:10F630008BF82800FFF7C6FF164B0322A36626238C
:10F640006B730133AB732521002313482973EA73CD
:10F650002B74A062A01DC177E11DCA77611DCB7715
:10F660006731216338390A700C4A2362E2620C4A1E
:10F6700066676264E46423709E4204D072302200A4
:10F680000849FDF779FFF8BD00DEC2E700DEC8E7F4
:10F69000A84E0020204E0000D6BE898E19F201002F
:10F6A000A9F20100D5F10100F8B5FDF7ADFD002884
:10F6B0003ED1274E300003F037F90500041E00D07C
:10F6C0000468FDF7BDFD002C35D0A3686433984273
:10F6D00031D9204F3B78002B03D000F065FC00238C
:10F6E0003B70300003F002F9854205D078461A4B92
:10F6F0001B68002B1DD09847002301202361FDF7D4
:10F70000D5FD0121C223154D154A49429B002C60AD
:10F71000D150144A893B0331FF3BD150FDF734FAF5
:10F720002B6811499A6812180A601A68D9689047BC
:10F73000F8BD00DEE0E7FA235B009842F8D9054BFC
:10F740001A78002AF4D101321A7000F019FCEFE7A0
:10F75000982F0020A42F0020A84E0020A82F0020C2
:10F760000010004000E100E0A02F002010B5064886
:10F7700003F080F80023054A1360054A1370012244
:10F78000044B1A7010BDC046982F0020A82F0020EF
:10F79000A42F0020A52F002010B5054B08201A78B3
:10F7A000002A04D000241C70FDF762FD200010BD6B
:10F7B000A52F002070B5041E05D178461F4B1B688D
:10F7C000002B33D098472368002B05D178461B4B7C
:10F7D0001B68002B2CD09847A368002B05D17846D6
:10F7E000164B1B68002B25D09847154BA2689A42F0
:10F7F00005D97846114B1B68002B1DD0984723690B
:10F8000008259C4210D021000025246110310D48AC
:10F8100003F042F80C4B1B78AB4205D10B4B1B6835
:10F82000AB4201D1FDF724FD280070BD00DECAE720
:10F8300000DED1E700DED8E700DEE0E7A84E0020DA
:10F84000A0860100982F0020A52F0020A82F0020BF
:10F8500010B51A4C2368002B05D17846184B1B684D
:10F86000002B22D09847FDF7FDFC002805D17846F3
:10F87000134B1B68002B1AD09847FDF785F9114BE5
:10F880001B68C01A05D478460D4B1B68002B10D09E
:10F8900098470020FDF70AFD002323600A4B1B78E0
:10F8A000002B08D0FDF7F8FC10BD00DEDBE700DE22
:10F8B000E3E700DEEDE7FFF7F7FEF5E7A82F00200E
:10F8C000A84E0020A02F0020A52F002010B5FDF786
:10F8D000C9FC002805D17846144B1B68002B12D0B8
:10F8E0009847134C2368002B11D05B68002B05D17F
:10F8F00078460E4B1B68002B07D0984723685A6840
:10F90000D868904710BD00DEEBE700DEF6E7094B54
:10F910001B78002B05D17846044B1B68002B03D0C5
:10F92000984700F04BFBEDE700DEFAE7A84E002019
:10F93000A82F0020A42F002010B5FDF793FC00286D
:10F9400005D17846064B1B68002B07D09847054B1E
:10F950001B68002B01D1FFF7A7FE10BD00DEF6E704
:10F96000A84E0020A82F002010B5FDF77BFC002832
:10F9700005D178460C4B1B68002B10D098470B4BD9
:10F980001B68002B05D07846074B1B68002B08D05E
:10F9900098470222064B1A60FFF786FE10BD00DE74
:10F9A000EDE700DEF5E7C046A84E0020A82F0020B6
:10F9B00000E100E010B5FDF755FC002805D17846C0
:10F9C0000D4B1B68002B13D098470C4B1B68002B6A
:10F9D00005D07846084B1B68002B0BD09847084C85
:10F9E0002378002B03D000F0DFFA0023237010BD32
:10F9F00000DEEAE700DEF2E7A84E0020A82F002094
:10FA0000A42F002070B5294D04006B69002B05D18F
:10FA10007846274B1B68002B2CD098470023254A9B
:10FA20006B6113780133DBB2137022002C32127831
:10FA3000934223D9FDF7FEFBA9231F4ADB00D658CA
:10FA40008619FDF7A1F80500200031001830636A1F
:10FA50009847FDF799F8401B502805D47846144B79
:10FA60001B68002B08D09847FFF7F2FE00233034C4
:10FA7000237070BD00DED1E700DEF5E793420DD2C2
:10FA8000A26AD05C00F0CCF86B69002BF1D078460C
:10FA9000074B1B68002B07D09847EAE78023032118
:10FAA000064A9B00D150EFE700DEE2E7FC10004081
:10FAB000A84E0020AC2F0020008000400010004025
:10FAC000AC2270B50C001C4B1C49D20099501C494B
:10FAD0001C4A1D4D9950653AFF3A5A5100F07CF886
:10FAE00020001C3000F0BAF80021206A00F00EF966
:10FAF000A36A187800F094F80122A069134B144906
:10FB00000A705851002513484561C1201035800006
:10FB10001D501A6022002C32107880229200012899
:10FB200007D9072098500B78A26AD05C00F078F8CB
:10FB300070BD03219950FBE700F001400411004023
:10FB400048800040640500000405000000100040EB
:10FB5000AC2F0020FC10004070B5436A0400002B5D
:10FB600005D17846184B1B68002B28D098472100F8
:10FB700030310D781120002D20D1144B1448236012
:10FB8000144B6360A3695A78A37F0A32C35C2000D8
:10FB90005A4323002C331B7890325343BD33A36068
:10FBA0000123E4600B70FFF705FE002806D07846BD
:10FBB000054B1B68002B04D09847280070BD00DE61
:10FBC000D5E700DE1800F9E7A84E0020C1FA0100D1
:10FBD000A348020005FA010000210A4B0A4A995085
:10FBE00001319950A7220949D20099500421084AAD
:10FBF000FF3199500749084A99509621074A995070
:10FC00007047C04600100040FC0F00005B0600007B
:10FC100034050000555555003C0500004405000022
:10FC200010B50400272805D97846084B1B68002B1F
:10FC300009D09847A122064BD200195D054B995077
:10FC4000054A9C5010BD00DEF4E7C046A84E0020D7
:10FC5000A7480200001000405405000010B5041E23
:10FC600005D17846244B1B68002B3CD09847A378DD
:10FC7000032B05D97846204B1B68002B35D09847BD
:10FC80006378002B05D178461B4B1B68002B2ED0C8
:10FC9000984763780233FE2B05D97846164B1B68CC
:10FCA000002B26D09847154B2178154A9950A178FA
:10FCB000043299506178134A0A43A321C9005A506B
:10FCC0001A00082361781800252900D80238F0218D
:10FCD0001B1A09031B040B408021490001430B43FD
:10FCE0000949535010BD00DEC1E700DEC8E700DE61
:10FCF000CFE700DED7E7C046A84E00200010004046
:10FD00000C0500000000030214050000A32370B5D9
:10FD1000174DDB00EB5804005B030E005B0F032B59
:10FD200005D07846134B1B68002B0BD09847002E4C
:10FD30000AD0012E0FD078460E4B1B68002B14D032
:10FD4000984707E000DEF2E70B4B220EEA500B4B20
:10FD50002402EC5070BDFF22230C12021340064A0D
:10FD60002402AB50A423DB00F3E700DEF2E7C04639
:10FD700000100040A84E0020240500001C050000D3
:10FD8000EFF3108372B6054A5278002A02D002219E
:10FD9000034A5160002B00D162B67047B02F00209B
:10FDA000FCE100E0002210B5024B1A71FFF7E8FFFA
:10FDB00010BDC046B02F0020084A10B5110053797D
:10FDC00008310133DBB25371C97F994201D8002356
:10FDD000537102231371FFF7D3FF10BDB02F002022
:10FDE000F8B5FFF7F9FE184FA62638000024174D86
:10FDF0001830F600FFF732FFAC51A300FB18986AE9
:10FE0000002807D02100FFF781FF0123A340AA5952
:10FE10001343AB510134082CEFD1C12311229B00B5
:10FE2000EC50053BFF3BEA500022094B09499A6020
:10FE3000AC22094BD20099500849094A99508021B7
:10FE4000084AC9009950F8BDB02F002000100040AA
:10FE5000FC1000400411004000F0014048800040C8
:10FE6000640500000405000070B5114CA368002B68
:10FE700005D078460F4B1B68002B16D09847210001
:10FE800020003C220831783001F0CEFC03005842BB
:10FE90005841C0B2002B04D1A2680749074D18325F
:10FEA0006A505A1E9341A37070BD00DEE7E7C0465A
:10FEB000B02F0020A84E00200405000000100040D4
:10FEC000AA2370B5104CDB00E358002B05D0784610
:10FED0000E4B1B68002B15D098470D4D6B79EB1816
:10FEE0000533D87FFFF79CFEEB78002B03D0FFF79C
:10FEF00077FF0023EB70FFF7B7FF002801D0012345
:10FF0000636070BD00DEE8E700100040A84E0020EE
:10FF1000B02F0020012270B50025094E094C326136
:10FF2000094A1561A168A94204D02000783001F087
:10FF300003FEA560AA22D200B358002BFCD170BDED
:10FF400000100040B02F0020FC10004070B5FCF7FE
:10FF50001BFE0A4C05002000E169236A60308B42D9
:10FF600007D1FCF751FD200029004830FCF780FD47
:10FF700070BD6918FCF77CFDF5E7C046B02F002086
:10FF8000012310B5074C63700023E370FFF728FFCF
:10FF90002378022B04D12379002B01D0FFF790FFA7
:10FFA00010BDC046B02F0020002210B5024B5A7081
:10FFB000FFF7B0FF10BDC046B02F0020F8B5424B90
:10FFC000424E1A69424C002A00D171E000221A61A7
:10FFD0001B698023DB00F358A568934208D123698D
:10FFE0000133236120002900783001F0A5FD5DE098
:10FFF0006A7E637E9A422DD9636901336361F1E7BA
:020000022000DC
:10000000AA23DB00F058032857D803F0EFFB0D16A6
:1000100002162579012D0AD0002D16D0022D4CD1C3
:10002000FFF778FF01232371FFF74AFFF8BDFFF7C1
:100030001BFF0028FAD0B560F8E72379012BF5D033
:10004000002B02D0022B38D1EAE7FFF763FFEDE780
:1000500000DEEBE7A927FF00F3593F225B426B73F9
:100060008123DB00F3580A339B00E358AB60194B44
:10007000F35813402B73FDF7DDF8174B2900DB59BC
:100080001B31C0186860280006220F3003F0C9FD3C
:1000900020002B7E78305B06DB0FAB73E368A16832
:1000A0000133E3606A7E173201F04CFC0023A36049
:1000B0002378012BC9D0022BA2D07846074B1B68AE
:1000C000002BC5D09847B1E7FC100040001000405D
:1000D000B02F00205405000000800040A84E0020F2
:1000E00010B50A4C2378002B05D17846084B1B68C5
:1000F000002B08D098472378012B03D1FFF726FF68
:100100000223237010BD00DEF5E7C046B02F0020AB
:10011000A84E002010B5041E05D17846094B1B6877
:10012000002B0CD09847211F074C2000783001F09D
:1001300003FDA378002B01D0FFF722FE10BD00DEE7
:10014000F1E7C046A84E0020B02F002013B50B4C9D
:10015000783401A9200001F07BFC002801D00020A8
:100160000BE0019B181D02F063FF019B002803D0E8
:10017000181DFFF7CFFFECE7181D16BDB02F0020AC
:1001800070B504000D00884205D27846134B1B68F9
:10019000002B1DD09847124B9C4205D978460F4B37
:1001A0001B68002B16D098470E4B9D4205D8784609
:1001B0000A4B1B68002B0FD098470B4B1C62DD616C
:1001C000DC665C651B78022B01D1FFF7BFFE70BDBA
:1001D00000DEE0E700DEE7E700DEEEE7A84E002005
:1001E00000007102B70B0000B02F00204B1E70B54D
:1001F00006000D00022B05D97846144B1B68002B16
:100200000BD09847330071198B4212D01A78252AE7
:1002100001D0262A03D10133F6E700DEF2E7272AD0
:10022000F9D07846094B1B68002B01D100DE00E0B5
:100230009847074C2A0020003100243003F0F1FCDD
:10024000002363710834E57770BDC046A84E0020D6
:10025000B02F0020F8B54B1E07000C00072B05D966
:1002600078460B4B1B68002B10D09847094D202275
:100270002E0028363000002103F0DCFC390030006D
:10028000A20003F0CEFC0123EB70F8BD00DEEDE729
:10029000A84E0020B02F002013B503240B492200E4
:1002A000684603F0BEFC21006846FFF79FFF084B3D
:1002B00001A801210193FFF7CDFF01220548064B5C
:1002C00001009C76DA70FFF75BFF13BDCF48020098
:1002D000D6BE898E80841E00B02F0020A12210B5CA
:1002E0000D4C92000021200003F0A4FC210020000E
:1002F000802284317830920001F026FAFFF7CCFF9B
:100300000023237625336376044BA366044B2365D1
:1003100001232370237110BDB02F0020A5FD010023
:10032000B9FD010010B5084B01001B780620002B19
:1003300006D0064B1B68002B03D1054801F0C6FF11
:1003400010BD08009847FBE7483200204C320020DF
:100350003432002010B5064C08220649200003F074
:1003600060FC200008220449083003F05AFC10BD4C
:100370005032002060000010A4000010002310B5CF
:1003800080241A0005496400C818428042605A540B
:100390000833A342F8D1024B1A6010BD603200202E
:1003A00060330020F0B5060020240C4B0C4D1B6878
:1003B000002B10D0013BDA00505D00280AD0AA18AB
:1003C0005788B74202D152688A4203D0013C002CC0
:1003D000EED12000F0BD1F23EDE7C04660330020C2
:1003E0006032002070B5084A084C1368DD006619B9
:1003F000716001215B1870802955202B01D013609A
:1004000070BD0023FBE7C04660330020603200204F
:1004100010B503780400002B05D17846064B1B6805
:10042000002B06D098470120E3790133984001382A
:1004300010BD00DEF7E7C046A84E0020C204D20C73
:100440004318981A8A4202D201495B18981A7047D9
:1004500000E0FFFFF8B5037807000E00002B05D180
:1004600078460E4B1B68002B16D098470124FB6979
:10047000B988B8691C40FFF7E1FF094ABD8A1368D3
:10048000591C116007221A40064BD2009B181E709F
:100490005D805C705860F8BD00DEE7E7A84E002084
:1004A000B03300207033002070B5002423000D4DC0
:1004B0002A1D160040363678002E07D1002B00D1B9
:1004C000131F01346C32042CF3D108E0168A8642E3
:1004D000F7D116888E42F4D16C236343EB181800D1
:1004E00070BDC046CC33002070B58CB001AC0600A6
:1004F0000D002C220021200003F09CFB182320007B
:10050000237066602572FBF7BBFC0CB070BD000069
:1005100000B543788DB0002B08D1074B9A4205D027
:10052000012301A803704260FBF7AAFC034B186883
:10053000FCF7F6FF0DB000BD5EE6655E6833002097
:1005400070B51D0003780C000426002B00D1033E7B
:100550000300B2180C33A2602360836A200063603A
:10056000FDF756F9002802D123699B192B6070BD55
:10057000F0B591B007000E0001921D00002805D1D2
:1005800078462B4B1B68002B47D09847002E05D18F
:100590007846274B1B68002B41D09847002D05D18A
:1005A0007846234B1B68002B3BD098476B6A6A78D0
:1005B00002330793AB78083A5942594150425041AF
:1005C000C2B22800013103AB0C3002F0CDF907AC08
:1005D00003AB63606B469B88A661A3816B469B88D7
:1005E0006A78F618152302A95B18DA772B7BA760C7
:1005F000E661022B19D12B69002B05D178460C4BF3
:100600001B68002B0FD098472B6923611023200013
:10061000A38202F0A1F911B0F0BD00DEB6E700DE62
:10062000BCE700DEC2E700DEEEE70023EFE7C046EE
:10063000A84E002070B504000B4B806E1B689847D5
:10064000250000232000A3662C304435FCF7DCF99C
:100650002B78022B03D120004C30FCF7D5F9002079
:100660002870FBF73BFE70BD6C330020030010B513
:1006700044331B788CB00400012B05D07846094B1D
:100680001B68002B0CD09847012301A80370236D31
:100690004360FBF7F5FB2000FFF7CCFF0CB010BD6B
:1006A00000DEF1E7A84E0020F0B5040087B00F008F
:1006B000002805D17846384B1B68002B69D0984735
:1006C000082304A803700023477083704360FFF77A
:1006D00029FE324E0390002826D033689B0623D58E
:1006E0002F4B1B68012B1FD92E4D2F21280003F003
:1006F0008DFB2F21002807D15C21280003F086FB09
:100700002900002804D05C21280003F07FFB411C55
:10071000254A264B0220D358039A0192244A00927C
:10072000DC225200FDF7BCFB00212000FFF792FE07
:100730003900206DFFF7D8FE2000FFF77BFF3368FC
:100740005B0724D5164B1B68032B20D9154D2F2191
:10075000280003F05BFB2F21002807D15C21280033
:1007600003F054FB2900002804D05C21280003F08A
:100770004DFB411C0C4A0D4B4434D35822780420C5
:1007800001920C4A0092DF225200FDF789FB07B06C
:10079000F0BD00DE94E7C046A84E00200C230020E8
:1007A00008230020D248020000B0004004050000E9
:1007B000CB470200EF48020010B508000021FFF708
:1007C00073FF10BDF7B50193531E04000E00170010
:1007D000012B05D97846254B1B68002B39D098474B
:1007E000A36E002B05D07846204B1B68002B32D01F
:1007F00098471F4B01981B689847A066002827D090
:100800002C223100200003F00CFA6A462300002558
:1008100092880833A564DA87B188B069FFF70EFEC5
:10082000144AA061012F18D1134B197D23004D33B9
:1008300019705D70013B1D70B36AA26223650F4B96
:100840006363E4630120FBF749FD01204434277012
:10085000FEBD00DEC4E700DECBE723006433A26206
:100860001D70074BE4656365064BE9E7A84E002061
:10087000643300205EE6655EB4330020050D02009F
:10088000750E0200B907020030B50F25002385B0B0
:100890006D440A002B7098422DD002300860290068
:1008A000100002F05DF82B78002B24D0134B1B684E
:1008B0005B0720D5124B1B68032B1CD9114C2F2131
:1008C000200003F0A3FA2F21002807D15C2120008B
:1008D00003F09CFA2100002804D05C21200003F0E2
:1008E00095FA411C084A094B0420D358084A009243
:1008F000084AFDF7D5FA287805B030BD0C23002052
:1009000008230020D248020000B000400405000087
:100910000749020001030000F0B5F9B0079313780E
:100920000390049114009669002B04D09188300044
:10093000FFF784FDA06123000C3305936278A37850
:10094000083A594259415042504109ADC2B20131B1
:100950002B00059802F008F8039B0DAFBB606B46B7
:100960001B8A7D600693627803999B1A9BB2BB81B8
:10097000CB18FB611D2306A95B18DA770023A6615B
:1009800018AEBE61BB82237B022B01D11022BA823A
:10099000A278002A00D1D4E0237B022B01D1236965
:1009A00011930023250063622435206AE1782A0030
:1009B000FBF780F8606A002866D1237B022B05D103
:1009C000E0890599FBF740F90028E5D16C4E3368C2
:1009D0005B0720D56B4B1B68052B1CD96A4D2F215B
:1009E000280003F013FA2F21002807D15C212800EA
:1009F00003F00CFA2900002804D05C21280003F041
:100A000005FA411C614A624B0620D358614A0092A4
:100A1000614AFDF745FA03220DAB1A70A27838003F
:100A2000534253415B007B706B461B7CBB70039B46
:100A30007B60FFF777FC051E00D180E033689B06E2
:100A40007DD5504B1B68012B79D94F4C2F212000AD
:100A500003F0DCF92F21002807D15C21200003F0EE
:100A6000D5F92100002804D05C21200003F0CEF944
:100A7000411C464A464B0220D358484A01950092F1
:100A8000474AFDF70DFA5AE00DA9FFF7FDFE0028D1
:100A90008BD001233B7000237B706378049A38006D
:100AA000D31ABB70039B7B60FFF73CFC03900028CC
:100AB00026D0334B1B689B0622D5324B1B68012B7B
:100AC0001ED9314D2F21280003F0A0F92F21002835
