:020000022000DC
:10300000000001200941020031410200B9360200EE
:103010003541020037410200394102000000000042
:103020000000000000000000000000003B41020022
:103030003D410200000000003F410200414102000A
:103040004341020043410200434102004341020068
:103050004341020043410200434102004341020058
:103060004341020043410200434102004341020048
:103070004341020043410200434102004341020038
:103080004341020043410200055502004341020052
:10309000434102004341020019370200434102004C
:1030A0004341020043410200434102004341020008
:1030B0004341020043410200000000000000000004
:1030C00043410200434102004341020043410200E8
:1030D000434102004341020043410200000000005E
:1030E00000000000000000000000000000000000E0
:1030F00000000000000000000000000000000000D0
:1031000000000000000000000000000000000000BF
:1031100000000000000000000000000000000000AF
:10312000000000000000000000000000000000009F
:10313000000000000000000000000000000000008F
:10314000000000000000000000000000000000007F
:10315000000000000000000000000000000000006F
:10316000000000000000000000000000000000005F
:10317000000000000000000000000000000000004F
:10318000000000000000000000000000000000003F
:10319000000000000000000000000000000000002F
:1031A000000000000000000000000000000000001F
:1031B000000000000000000000000000000000000F
:1031C00000000000000000000000000000000000FF
:1031D00000000000000000000000000000000000EF
:1031E00000000000000000000000000000000000DF
:1031F00000000000000000000000000000000000CF
:1032000010B5054C237833B9044B13B10448AFF320
:1032100000800123237010BD6832002000000000F0
:1032200044C602000C4B43B10C480D4910B5AFF336
:1032300000800C48036823B910BD0A48036833B9FD
:103240007047094B002BF7D0BDE810401847064BDC
:10325000002BF5D0184700BF0000000044C6020054
:103260006C3200206032002000000000154B002B63
:1032700008BF134B9D46A3F5803A00218B460F46AD
:103280001348144A121A08F07FFA0F4B002B00D093
:1032900098470E4B002B00D09847002000210400D7
:1032A0000D000D48002802D00C48AFF3008008F054
:1032B0001DFA2000290000F0A3F808F003FA00BF6F
:1032C00000000800000001200000000000000000D5
:1032D00068320020145E00200000000000000000A2
:1032E0002DE9F0414FF0A043A8B04FF40032002484
:1032F000C3F80825C3F80C458268117D92F90D309A
:103300000691D17C0591917C0491517C0391117CB3
:103310000291D17B01910178009108AF0546526876
:103320003049384608F0F4FA2F4B1B685B0433D55C
:103330002E4B1B68032B2FD995F801E00FFA8EF066
:103340004300083323F007036E46ADEB030D284B13
:103350000DF12008D3F800C042462346734502F120
:10336000020226D3002308F810302F21214808F04C
:10337000FBFA68B32F211F4808F0F6FA411C1E4BD8
:103380001E4AD3F804350092CDF8088001975022E8
:10339000042002F04BFEB5464FF0A0434FF400323C
:1033A000C3F80C2580370022C3F80825BD46BDE8C8
:1033B000F0816968C95C0C0901F00F011CF8044038
:1033C00002F8024C1CF8011002F8011C0133C5E799
:1033D0005C21084808F0C8FA08B15C21CBE7054930
:1033E000CDE700BF64C10200E8310020E4310020D5
:1033F000EC31002043C1020000B00040ABC102002C
:103400004FF0A04337B50322C3F84427C3F8482739
:10341000C3F84C27C3F850274FF40032C3F80825EF
:103420004FF48022C3F808254FF40022C3F8082582
:10343000384D4FF48012C3F808250421364A4FF462
:10344000804002F0D9FD2A68520417D5334B1B681F
:10345000032B13D92F21324808F086FA002846D0D2
:103460002F212F4808F080FA411C2E4B2E4AD3F80A
:103470000435009204208B2202F0D8FD00F038FAC7
:103480002A4801F073FA8023294A2A48002104F0CF
:1034900043F91221274804F053F8044650B1264955
:1034A0001222113008F065F9FF23237121462148CB
:1034B00004F090F82B685B0416D5184B1B68032B9F
:1034C00012D92F21164808F04FFAC8B12F211448FD
:1034D00008F04AFA411C134B184AD3F804350092FD
:1034E0000420952202F0A2FD01F058F9FCE75C21CE
:1034F0000B4808F039FA08B15C21B2E70849B4E793
:103500005C21074808F030FA08B15C21DFE7044984
:10351000E1E700BFE8310020CD5F0200E431002088
:1035200043C1020000B00040FEC00200E1320200D0
:103530008432002004330020ECC0020029C10200C4
:1035400048DF704710DF704760DF704761DF70470A
:103550004FF0A0434FF4F012C3F80825C3F80C2530
:10356000EFF3108372B60028FDD1704713B5144BEA
:103570001B685B04044613D52F21124808F0F4F9A8
:10358000A0B12F210F4808F0EFF9411C0E4B0F4A54
:10359000D3F80435009201944E22002002F046FD3B
:1035A000204602B0BDE81040FFF7D2BF5C210548BD
:1035B00008F0DAF908B15C21E4E70249E6E700BF68
:1035C000E8310020DEC1020000B00040F9C1020075
:1035D0007FB5174B1B685B0405460C46164618D58D
:1035E000144B1B68ABB12F21134808F0BDF9B0B1E3
:1035F0002F21114808F0B8F9411C104B104AD3F89C
:10360000043500920396029401957022012002F085
:103610000DFD204604B0BDE87040FFF799BF5C2166
:10362000054808F0A1F908B15C21E2E70249E4E7A6
:10363000E8310020E4310020DEC1020000B000408B
:10364000BEC202007FB5174B1B685B0406460D46E1
:10365000144618D5144B1B68ABB12F21134808F042
:1036600083F9B0B12F21114808F07EF9411C104BAD
:10367000104AD3F80435009203960295019448222B
:10368000012002F0D3FC012004B0BDE87040FFF738
:103690005FBF5C21054808F067F908B15C21E2E7EB
:1036A0000249E4E7E8310020E4310020DEC10200F5
:1036B00000B00040C1C1020007B5134B1B685B049A
:1036C00012D52F21114808F04FF998B12F210F483A
:1036D00008F04AF9411C0E4B0E4AD3F8043500920B
:1036E0000020542202F0A2FC012003B05DF804EB9C
:1036F000FFF72EBF5C21054808F036F908B15C21C0
:10370000E5E70249E7E700BFE8310020DEC102003B
:1037100000B00040B3C1020073B501A8FFF710FF6D
:1037200060B102AD4F2325F8063D094E1C462946DF
:103730000748FFF70BFF28B102B070BD019801F0F8
:103740000FF9EAE7304601F009F9ADF80240EEE77B
:103750009833002030B5404C2368590485B017D504
:103760003E4B1B68032B13D92F213D4808F0FCF872
:10377000002855D02F213A4808F0F6F8411C394B63
:10378000394AD3F80435009204207A2202F04EFC24
:10379000364B0293029B039323685A0419D52F4B8F
:1037A0001B68032B15D92F212D4808F0DDF80028C0
:1037B0003FD02F212A4808F0D7F8411C294BD3F8D5
:1037C0000435029A01922A4A00920420832202F0D0
:1037D0002DFC03A8FFF7B8FE029B039A9A42054608
:1037E0001BD023685B0418D51C4B1B68012B14D914
:1037F0002F211B4808F0B8F820B32F21184808F0F3
:10380000B3F8411C174B039AD3F804350192194AB7
:10381000009202208C2202F009FC284605B030BD3F
:103820005C210F4808F0A0F808B15C21A3E70C491F
:10383000A5E75C210A4808F097F808B15C21B9E7D0
:103840000749BBE75C21064808F08EF808B15C2107
:10385000D4E70349D6E700BFE8310020E431002077
:10386000DEC1020000B0004059C20200B0310020A9
:1038700075C2020085C2020007B502AB184943F8C1
:10388000040D1846FFF75EFE18B1164A9321FFF7A4
:10389000D9FE154A92F816335B09012B01D9042B86
:1038A00015D1104A942142F20200FFF7CBFE03E04B
:1038B0001A6842F480021A60FFF74CFF18B1094AF7
:1038C0009721FFF7BFFE002003B05DF804FB074B14
:1038D00099680029ECD14FF480031360ECE700BF36
:1038E000D1350200DEC1020000E100E0885D002069
:1038F00010B54B4C2368590486B017D5494B1B684B
:10390000032B13D92F21484808F02EF800286CD03B
:103910002F21454808F028F8411C444B444AD3F86D
:10392000043500920420B52202F080FB01238DF8BB
:10393000083000238DF809308DF80A3007238DF800
:103940000B300298FFF798FF23685A0417D5354BC0
:103950001B68032B13D92F21334808F005F80028E2
:103960004CD02F21304807F0FFFF411C2F4B314A2C
:10397000D3F8043500920420BF2202F057FB002345
:103980000393059301238DF80C3007238DF80F3036
:1039900003A8294B049300F085FE18B1224AC421E4
:1039A000FFF750FE23685B0416D51E4B1B68032BE4
:1039B00012D92F211C4807F0D7FF40B32F211A48F6
:1039C00007F0D2FF411C194B1C4AD3F80435009272
:1039D0000420C62202F02AFB00F0BCFE18B1124AF5
:1039E000C721FFF72FFE06B010BD5C210E4807F07F
:1039F000BBFF08B15C218CE70B498EE75C210A48CC
:103A000007F0B2FF08B15C21ACE70749AEE75C21E3
:103A1000054807F0A9FF08B15C21D0E70249D2E7C9
:103A2000E8310020E4310020DEC1020000B0004097
:103A300012C202002BC202006D35020044C2020015
:103A40004A09012301F01F0103FA01F150F8223065
:103A5000194214BF01200020704700002DE9F047F3
:103A60004FF6FF73DFF84C80DFF84C900B80074671
:103A70000D4600244FF0140A21464046FFF7E0FFB0
:103A8000064650B92A884FF6FF739A4200D12C801F
:103A90000134082CF0D1002609E00AFB0490102222
:103AA0003946043007F056FE0028F1D12C8030460C
:103AB000BDE8F087F03300207836002008B548B91B
:103AC00078460B4B1B681BB198474FF6FF7008BD3B
:103AD00000DEFAE7074B9842F7D303F58A7290426B
:103AE000F3D8C01A5C23B0FBF3F080B208BD00BF6E
:103AF000945D00201A35002008B548B978460D4B72
:103B00001B681BB198474FF6FF7008BD00DEFAE74F
:103B1000094B984209D303F19A02904205D8C01A82
:103B20001623B0FBF3F080B208BD044B9842EAD1F3
:103B3000082008BD945D00203C340020EC340020B7
:103B40002DE9F84380460E4621B97846164B1B688E
:103B50008BB19847306880B1FFF7B0FF441C134F1A
:103B6000DFF84C905C2505FB0475032C07D9002376
:103B70003360BDE8F88300DEECE70446EFE721465A
:103B80004846FFF75DFF58B1AB7C88EA03035B064C
:103B900006D15C2000FB047412343460BDE8F88365
:103BA00001345C35E1E700BF945D0020083500205A
:103BB000043500202DE9F04704468846164622B910
:103BC0007846204B1B6893B1984724B978461D4B23
:103BD0001B6873B198472046FFF770FF4FF6FF73DD
:103BE0009842074607D100233360BDE8F08700DE26
:103BF000EBE700DEEFE73068F8B1FFF77DFF441C2C
:103C00001148DFF848A0162505FB04058146072C5E
:103C1000E9D821465046FFF713FF80B16B88BB42BD
:103C20000DD16B7988EA03039B0608D1162000FBAF
:103C3000049404343460BDE8F0870446E0E70134BE
:103C40001635E4E7945D0020383400203434002039
:103C500038B504460D4621B97846084B1B6853B168
:103C6000984734B1064B33F8042BA2420CBF1C46D4
:103C700000242C6038BD00DEF3E700BF945D002017
:103C8000E83400202DE9F04707460D4621B9784673
:103C9000274B1B68FBB198472C68264E6CB106F188
:103CA0003C039C4219D306F5A872944215D8E41A35
:103CB0005C23B4FBF3F4A4B201344FF05C0808FBBE
:103CC0000468DFF878A008F15408032C08D9002311
:103CD0002B60BDE8F08700DEDEE74FF6FF74EBE710
:103CE00021465046FFF7ACFE8146A0B167B9124BA2
:103CF0001B78A3B95C235C4333193C34344483F808
:103D00003C902C60BDE8F08708224146384607F019
:103D100021FD0028EBD0013408F15C08D5E75C23D5
:103D2000634336F80390B9FA89F94FEA5919E1E784
:103D3000945D002008350020FE340020043500206A
:103D40002DE9F34706460D4600F0A2FC022839D0C3
:103D5000032812D001280ED1394B1B6813F0010340
:103D600009D0384B1A88964205D35B8813449E428B
:103D70004FF000035FDB00205AE04FF6FF77DFF8DB
:103D8000CC80DFF8CCA00024B9464F4509D12146AC
:103D90005046FFF755FE20B9A7B20134102CF4D1DC
:103DA000E9E738F82420B2424FEA8403F5D14344CE
:103DB000DB78002BF1D003232B7000236E806B6027
:103DC000012035E06868E8B94FF6FF73ADF80630BA
:103DD000BDF80640DFF87C801B4F072C4FF6FF73C1
:103DE00094BF01340024ADF806304FF01409082CBC
:103DF000C1D021464046FFF723FE50B9ADF806403A
:103E00000134F4E70DF10601FFF728FE0028DBD0AE
:103E1000DEE709FB04F3DA5BB242F1D1FA18D2789B
:103E2000002AA8D0043302221F446E802A706F60DB
:103E300002B0BDE8F0876E8028706B60F8E700BFC5
:103E4000EC3300200035002078360020F4330020C9
:103E5000E8330020F033002006207047094B1B7820
:103E6000062B0CD1084B1B681A0708D1074B1868A2
:103E700000F0F000A0F13003584258417047002094
:103E8000704700BFE00F00F0E40F00F0E80F00F013
:103E90000C4B1B78062B10D10B4B1B681A070CD14F
:103EA0000A4B186800F0F003302B08D000F0E00057
:103EB000A0F140035842584170470020704701204C
:103EC000704700BFE00F00F0E40F00F0E80F00F0D3
:103ED00008B5FFF7DDFF28B1774B784A1B68C3F3BD
:103EE00004231360FFF7BAFF10B1754B754A1A60CF
:103EF000FFF7CEFF28B1744B744A1B68C3F34233FB
:103F00001360FFF7ABFF20B1714AD36823F08073D1
:103F1000D360FFF7BDFF40B14FF080430022C3F8EC
:103F20000C21C3F81021C3F83825FFF797FF10B113
:103F3000684B03221A60FFF791FF40B1664B0522E0
:103F40001A6001229A6700229A603F225A60634BEE
:103F50001B78062B09D1624B1B68190705D1614BF1
:103F60001B6803F0F003502B5ED0FFF791FF28B1E0
:103F70005D4B5E4A1B6803F04F031360FFF788FF39
:103F800048B14FF08043D3F80024D20744BF6FF00C
:103F90000102C3F80024564AD2F8883043F4700373
:103FA000C2F88830BFF34F8FBFF36F8F4FF01023ED
:103FB000D3F80022002A03DBD3F80432002B2FDAD7
:103FC0004C4B0122C3F80425D3F80024002AFBD06F
:103FD0004FF010221521C2F80012D3F80024002A55
:103FE000FBD04FF010231522C3F80422414B1A4690
:103FF000D3F800140029FBD00021C3F80415D2F82F
:104000000034002BFBD0BFF34F8F39493A4BCA68BD
:1040100002F4E0621343CB60BFF34F8F00BFFDE7B4
:10402000364B374A1A6008BD4FF08052354BD2F8F4
:104030000414C3F82015D2F80814C3F82415D2F8D4
:104040000C14C3F82815D2F81014C3F82C15D2F8A4
:104050001414C3F83015D2F81814C3F83415D2F874
:104060001C14C3F84015D2F82014C3F84415D2F834
:104070002414C3F84815D2F82814C3F84C15D2F804
:104080002C14C3F85015D2F83014C3F85415D2F8D4
:104090003414C3F86015D2F83814C3F86415D2F894
:1040A0003C14C3F86815D2F84014C3F86C15D2F864
:1040B0004424C3F8702558E724030010403501401C
:1040C00074C007400DF0ADBA440200103C0500403A
:1040D000F0ED00E0A005004010560040E00F00F0B9
:1040E000E40F00F0E80F00F058020010E40E00406A
:1040F00000ED00E000E001400400FA05B0310020CE
:104100000090D00300C000400649074A074B9B1AA5
:1041100003DD043BC858D050FBDCFFF7D9FEFFF7A6
:10412000A5F8000050C60200B0310020683200201F
:10413000FEE7FEE7FEE7FEE7FEE7FEE7FEE7FEE757
:10414000FEE7FEE738B5054620B97846074B1B6801
:104150004BB19847064B1C683CB154F8043C2846C8
:1041600098472468F8E700DEF4E738BD945D002046
:104170001837002010B5044620B97846044B1B6858
:1041800023B198472346BDE81040184700DEF9E701
:10419000945D002008B508220221094802F03EFB88
:1041A00020B90848BDE8084002F0D4BC064A91682E
:1041B0004160127B0272BDE8084002F06BBB00BF99
:1041C00020370020C43100205C37002038B50D4D69
:1041D0002B78B3B90C4B5C6804F50054B4F1807FC4
:1041E0000FD804220121094802F018FB20B9084821
:1041F000BDE8384002F0AEBC446002F04BFB012346
:104200002B7038BD703700205C370020203700202D
:10421000B431002030B50D468DB09AB94B88012BD2
:104220000CD1164C227822B97846154B1B683BB14D
:104230009847144B6A685A60002323700DB030BD54
:1042400000DEF6E7032A04D078460D4B1B6893B1D5
:1042500098472C22002101A807F096FA19238DF81F
:104260000430094B0395DA681B69059201A806938F
:10427000FFF768FFE2E700DEEBE700BF70370020E2
:10428000945D00205C3700202037002070B502F0DC
:1042900083FCD8B101F0CCF9002211461A481A4C1F
:1042A00002F086FA0026354690B9184C05B1EEB9F1
:1042B00000232360A3602373FFF76CFF2368636010
:1042C000FFF784FFBDE8704001F0D4B920BFDEE7FE
:1042D0004388012B08D0022B00D1051D0246002186
:1042E000204602F065FADFE7061DF7E72B68A360BA
:1042F0002B792373B54203D92B790BB92060DDE705
:1043000033682360DAE700BF203700205C370020E5
:1043100008B502F07FFCA0F5805008BD7FB50021F4
:104320001822684607F030FA00230293FFF7F0FFE7
:104330000123009001936946054B0648039302F060
:10434000E5FA10B1044802F005FC07B05DF804FB83
:104350001542020020370020D431002008B5142275
:1043600000210B4807F010FA00F03EFD094B0A4A05
:104370009A600A490A4A5860DA60184600221A61AF
:104380005A610A7000F04CFCBDE80840FFF7C6BF58
:104390005C3700204437002095440200713700202C
:1043A0000087930330B58DB001F042F9144B1A7BAE
:1043B0001D461ABB9A7B0ABB1A8A41F282639A4253
:1043C00002D8104B1B78CBB101232B73AB680024B0
:1043D0000133AB602C82FFF7DDFEAB682A7B8DF8E2
:1043E0000820013B0CA80393022300F82C3DFFF7A3
:1043F000A9FE01F03FF920460DB030BD0824F8E7D2
:104400005C3700207137002010B58CB001F010F936
:104410001D4B5A7B42B1997BA9B9188A41F282613E
:10442000884201D8194A127802F001048AB1197B36
:1044300000225A7349B1012910D07846144B1B68E9
:10444000FBB1984705E00022EEE7FFF7ABFF00283D
:10445000F3D101F00FF920460CB010BD1A605A607C
:104460001A731A820CA89B680393022300F82C3D50
:104470008DF80820FFF766FEFFF78CFEFFF7A6FE1B
:10448000E7E700DEE5E700BF5C370020713700207A
:10449000945D002038B5194C257B3DB1012D14D019
:1044A0007846174B1B683BB3984721E0228A41F2BC
:1044B00082639A4202D8134B1B78CBB1FFF7A4FF5B
:1044C000638A0BB1013B638238BD238A41F2826269
:1044D000934202D80B4A157855B142F2B01293427A
:1044E00082BF012300256373FFF78EFF002DE7D005
:1044F000238A01332382E3E700DEF9E75C370020FB
:10450000945D00207137002038B5164C94E80C00FB
:104510009A4205461FD2207B1349144B012808BF3D
:104520000B46934207D963682268403B9A4208D3FE
:10453000FFF74CFE05E001236373FFF765FF0028DA
:10454000F1D0EFF3108072B623685A1C22602B6002
:1045500028B962B638BDFFF739FE0F2038BD0020FC
:1045600038BD00BF5C37002000E0FF00FFFF7F0088
:1045700010B50E4C30B10E4B01229A7323681344D0
:10458000236010BD236823B978460A4B1B6853B1DA
:1045900098472368013B23603BB9054A9373BDE804
:1045A0001040FFF731BF00DEF3E710BD1C370020DD
:1045B0005C370020945D002070B5234C8CB005461C
:1045C0000E4601F035F8237B002B37D1638A53BBAD
:1045D000A3682EB9AB4206D301F04CF80CB070BD05
:1045E00001339D4221D9A3682A339D42F4D8A37B8D
:1045F000002BF1D142F6065223606360238262826F
:1046000063732373A560FFF7C5FDFFF7DFFD237B11
:104610008DF808300CA80223A26800F82C3D039204
:10462000FFF790FDD8E7002ED6D0A36801339D4256
:10463000D2D101236373FFF7E7FECDE7012BCBD186
:10464000002EC9D1A368F2E75C370020014B9868BF
:10465000704700BF5C370020034B1A7B9868012A23
:1046600008BF00F1FF3070475C370020044B9B68A7
:104670005840C20748BF03F1FF331846704700BFD8
:104680005C370020014B187B704700BF5C3700206F
:1046900010B1800B014B185C704700BFDBC20200F9
:1046A00012DF704773B5284E32780546002A43D191
:1046B000002843D0254B42681A6003F077FE0DF1C5
:1046C0000700FFF7EDFF044698BB9DF80730012B6C
:1046D00036D103F07FFE00F091FA00F075FFE87824
:1046E00000F04AF900F06CFE03F0D4F803F026FE67
:1046F00002F00AFF05F082FF02F026F802F00EFC3D
:10470000284604F011FD284601F05AF942F21070D3
:1047100002F082FA284605F005FEFFF79DFB08B17E
:1047200006280FD100F082FC094B00221A600123F9
:104730003370204602B070BD0824FAE70E24F8E773
:104740000224F6E70446F4E773370020945D002066
:104750007437002038B50E4B1B78B3B10D4D2A7855
:104760009AB900F051FE20B178460B4B1B6853B14B
:10477000984703F0A5F8044618B903F0E3FC0123B9
:104780002B70204638BD00DEF3E70824F9E700BFB0
:104790007337002072370020945D00202DE9F04728
:1047A0008CB003F003FDDFF8AC81DFF8AC91044678
:1047B00000271CB938460CB0BDE8F08700238DF8FF
:1047C000183026460FCE07AD0FC504F11D0A336819
:1047D0005B4E2B605546637D052B00F28F80594A56
:1047E0001168002940F09C80204603F0C3FC03F0D0
:1047F000DDFC0446DDE72A2B2CD02B2B40F08C80EF
:10480000237D03F00F03022B40F08680013906AAB6
:10481000C9B2A81C02F066FA074638B3D8F80030CF
:104820005B0679D5D9F80030012B75D92F21304698
:1048300007F09AF800284DD02F21304607F094F861
:10484000411C414B414AD3F804350092019740F294
:104850000B1226E0237D03F00F03022B5CD106AA86
:104860000139A81C01F08AF9074608B9002753E06E
:10487000D8F800305A064FD5D9F80030012B4BD963
:104880002F21304607F070F878B12F21304607F01D
:104890006BF8411C2C4B2E4AD3F80435009201973B
:1048A000F822022001F0C2FB36E05C21304607F01E
:1048B0005BF808B15C21E9E73146EBE7237D03F0C3
:1048C0000F03022B28D1013906AAC9B2A81CFFF791
:1048D000C3FA21E05C21304607F046F808B15C21BC
:1048E000ABE73146ADE76A884FF6E4639A4213D1ED
:1048F00006AA0339281DFFF7AFFA0DE003F11702EE
:1049000022449542BFF46BAF6B782978292BD5D020
:104910003FF671AF162BE6D02B7801331D445AE7D2
:1049200006AA0592227DCDF810A0C2F30302063B31
:104930008DF80C208DF80D3003A8884754E700BF90
:10494000DFC202007437002000B0004024C3020020
:10495000FBC20200E8310020E43100200020704753
:1049600008B500F00BFD002008BD0000014B1860E9
:10497000704700BF7437002007289ABF024B33F8F6
:104980001000FA20704700BF50C3020010B5037832
:1049900004463BB10378062B04D078460A4B1B68CB
:1049A00073B19847636923B17846074B1B684BB1D5
:1049B000984701232370054B5A6862615C6010BD03
:1049C00000DEEFE700DEF4E7945D00207C37002096
:1049D0002DE9F843174EDFF8609035464FF0000898
:1049E00034680CB1AB680BB9BDE8F8832778FFB227
:1049F000FB1E012B1AD863693360EB68C4F814807E
:104A00005A1EEA6023B97846D9F8003063B1984756
:104A1000AB68032F03F1FF33AB6084F80080DFD174
:104A20002046FFF7B3FFDBE700DEF1E704F11406F1
:104A3000D6E700BF7C370020945D0020014B18684A
:104A400000F060BE7837002070B54369054623B199
:104A50007846154B1B68BBB19847144B1A682AB1AE
:104A60001A686C685268A21A002A0FDA1A686A611A
:104A70001D60DA680132DA60AAB978460A4B1B6811
:104A800083B1BDE87040184700DEE6E719684A695F
:104A90001AB15068001B002802DB6A614D61E8E72B
:104AA0001146F4E700DE70BD945D00207C370020E5
:104AB000F8B50F4D0F4F00266B6803B9F8BD6C6851
:104AC00063696B6023786661052B01D12670F3E77B
:104AD0002378012B03D078463B6833B198470223F3
:104AE00023702046FFF7B0FFE6E700DEF7E700BFE0
:104AF0007C370020945D00202DE9F041FFF768FF2E
:104B0000FFF7D6FF00F070F9394FDFF8EC8006466A
:104B10003D463B6823B13B685B689B1B642B20D4FC
:104B200000F062F92B68002B5FD02B685B68C3F143
:104B30006403C34243BF29682E4A49682D4A56BFC1
:104B400000F1640102230223012000F003F9002890
:104B50004BD07846284B1B68002B45D0BDE8F04170
:104B600018473C682378022B04D07846D8F80030E8
:104B700043B3984763692B6000236361EB685A1E57
:104B8000EA6023B97846D8F80030EBB19847A368BB
:104B900023B97846D8F80030C3B198470623216975
:104BA00023703046A368984700F01EF90646FFF7C9
:104BB0000FFFFFF77DFF2378062BAAD1E2683AB9F1
:104BC0002270A6E700DED5E700DEE0E700DEE5E7DD
:104BD00063681344991B6429FBD463600223237028
:104BE0002046FFF731FF94E700DEBDE8F08100BF0B
:104BF0007C3700203D4A0200945D002008B5102259
:104C00000021044806F0C0FD034800F053FD034BAB
:104C1000186008BD7C370020F94A02007837002070
:104C200038B5044620B978460F4B1B68BBB198478E
:104C3000A36823B978460C4B1B6893B19847EFF3F0
:104C4000108572B6002363612046FFF79FFE05B909
:104C500062B6064B1868BDE8384000F053BD00DE70
:104C6000E6E700DEEBE700BF945D00207837002028
:104C700038B5044620B97846134B1B685BB198479A
:104C8000EFF3108572B62378062B06D1002323702C
:104C900005B962B638BD00DEF2E72378012B01D1F9
:104CA0000523F4E72378002BF2D02378033B012B74
:104CB00081BF064A93680133936004232370044B39
:104CC000186800F01FFDE3E7945D00207C370020AA
:104CD0007837002070B50D46044620B97846164B4B
:104CE0001B689BB19847EFF3108672B6237813B117
:104CF0002378062B0CD12046FFF748FE0F4B65604A
:104D0000186800F0FFFC06B962B670BD00DEEAE785
:104D10002378012B02D02378052B02D101232370A5
:104D2000ECE72378033B012B81BF054A93680133ED
:104D300093600323F3E700BF945D002078370020E1
:104D40007C370020024B1B6803B962B6704700BF76
:104D5000B0370020022838B531D803F003049C4254
:104D60002FD1EFF31083184D2B6072B6174B43F819
:104D70002020174B43F82010164B1C54164B0022D2
:104D800043F82020154B1B78ABB1154B1B68CA1A92
:104D900048BF5A1A00F11001012380008B4000F136
:104DA0008040104900F50040C1F804330023C0F8EA
:104DB0004025C0F84031FFF7C5FF002038BD07206F
:104DC00038BD0A2038BD00BFB03700209037002022
:104DD000A43700208C370020B83700209C370020F3
:104DE000A03700200080004008B5EFF310830B4A85
:104DF000136072B60A4B1B786BB10A4B0022C3F8E2
:104E00004C210122DA64D3F84C05074B1B68184487
:104E1000FFF798FF08BD054B1868F9E7B037002089
:104E20009C37002000800040A0370020B4370020CD
:104E30002DE9F8431E4FDFF8848000244FEA8409EF
:104E400009F1804505F50045D5F84031DBB157F84B
:104E5000246026B97846174B1B68CBB198470023CE
:104E600047F8093004F1100201239340C8F80833D1
:104E7000FFF7BAFF104BE35C9B0701460AD5B0472A
:104E80000023C5F840310134032CD7D1BDE8F883A5
:104E900000DEE4E7304600F0B3FB0028F0D07846AF
:104EA000044B1B680BB19847EAE700DEE8E700BF58
:104EB00090370020945D00208C3700200080004057
:104EC0002DE9F843334FDFF8F09005460026B84649
:104ED000B40004F1804303F500430022C3F84025E9
:104EE000C3F84021D3F840313A6859F8263005F12B
:104EF0007801981A48BFD01AB1EB020E48BFA2EB56
:104F0000010E8645244A2ED913593BB10021115177
:104F1000224AB25C920719D528469847204BE2589E
:104F20001AB1012111600022E2500136032ECFD1C7
:104F30001C4B1B681BB91C4B4FF480721A601B4B37
:104F4000C8F8005001221A70BDE8F88329461846B7
:104F500000F056FB0028E1D07846154B1B68002B6B
:104F6000DBD100DEDAE71259002ADED05A1B48BF37
:104F7000EA1A06F1100101238B4004F180440D4927
:104F800004F50044C1F804330023C4F84025C4F8F4
:104F90004031CAE7A0370020903700208C3700202E
:104FA000B8370020B037002000E100E09C37002037
:104FB000945D002000800040A437002070B50023DD
:104FC0000F49104C104D1A465E5CF60742BF5A540A
:104FD00044F8232045F823200133032BF4D10B4B55
:104FE00018600B4B00221A700A4B4FF0FF32C3F8C7
:104FF0000823094B4FF48072C3F8802170BD00BFB5
:105000008C37002090370020B8370020B4370020BC
:105010009C3700200080004000E100E0024A136855
:1050200001331360704700BFC43700200A4A10B52F
:1050300000230A4C13600A4AA2600A4AE260236114
:10504000FFF7D2FE00F5C330A03060602046BDE817
:105050001040FFF7E5BD00BFC4370020C83700206F
:105060001D500200A08601002FDF704730DF70471F
:1050700010B5034605C89C68D968A0EB721082EA97
:10508000F4320C44014410441A605C609960D860AA
:1050900010BD000037B50C46054620B97846104BC8
:1050A0001B682BB198470023A34203D303B030BD44
:1050B00000DEF8E70DF10700FFF7D6FF9DF80710B7
:1050C0000029F7D0E21A914288BF8DF80720E8182E
:1050D0009DF80710FFF7CAFF9DF807201344E3E788
:1050E000945D002037B5044602A8002340F8043D33
:1050F0000421FFF7CFFF074B2360019B6360A36090
:10510000E36014252046FFF7B3FF013DFAD103B059
:1051100030BD00BFED5EEAF145DF704746DF704706
:1051200047DF7047064A032313751168054B9361E7
:1051300040F6D862914288BF43F2B0629A607047ED
:10514000E037002000380020064A13685068064AFD
:1051500012681844283278385343044AB3FBF2F3F8
:10516000C01A7047E0370020FC37002040420F0093
:1051700010B52B4B30B11A69996901321A611A685E
:105180000A441A60D96801221A759A6901315208D5
:105190000129D9609A610CD0022918D099691A683E
:1051A00020480A44824227D840F6D762914223D948
:1051B00010BDB2F5FA7F03D130B900229A61EDE754
:1051C00040F6D8618A42E9D840F6D862F6E71A6913
:1051D000022A03D11968134A521AEFE7012ADDD1D6
:1051E0000028EAD0DAE778460F4B1B6813B1BDE818
:1051F0001040184700DE10BD012258685A72002482
:105200001C75FFF75DFE02F039FCFFF79DFF0323DD
:105210000146064A2046FFF79DFD0028E3D110BD58
:10522000E037002080969800945D00202551020010
:10523000F8B5484C484D012323722B781BB1474BDE
:105240001B78002B68D00023237504285CD8DFE886
:1052500000F0035653514D00414AE3602361D2F8F8
:105260000405A27A3F4D002162B3A37223686268ED
:10527000C5E90001134401213B4A6360217523689D
:105280003A4992682260002B08BF0B46991AB1F583
:105290007A7F27D39A4225D8A161237D023B012B37
:1052A0000CD8637A3BB102F00BFCFFF74DFFFFF720
:1052B00085FE00236372294B00221A70002323729B
:1052C0002B48F8BDD5E90023DFF8ACE0821A22F0C4
:1052D0007F420023A2FB0E670EFB0377F30B43EA2A
:1052E0004743C4E74FF47A73A361D6E70120FFF781
:1052F0003FFFD2E70020FAE702F076FBCDE7FFF7A9
:1053000097FD02F0A3FBC8E778461A4B1B680BB168
:105310009847C2E700DEC0E7FFF766FD6368C01A82
:105320002B782060012B07D0022B0BD07846114B35
:105330001B6863B1984702E002222275A372002322
:105340002B70AAE703232375074BA361F7E700DE61
:10535000F5E700BFE03700201138002010380020AA
:1053600000B00040183800200038002080969800D7
:10537000F4370020945D002040420F00043810B53F
:10538000032817D8DFE800F00C130502FFF7C6FE6C
:1053900080B17846084B1B685BB1BDE810401847E8
:1053A000064840F6D8638360FFF7BAFEF0E703488B
:1053B000FAE700DE10BD00BF945D00200038002039
:1053C0000C4A10B543F2B06400239460012143F607
:1053D0009824137013715171D460074A1060074A02
:1053E0001370074A1370074A137253721360917255
:1053F000536010BD00380020FC370020103800201A
:1054000011380020E037002008B50548FFF784FE7A
:1054100020B90448BDE80840FFF782BE08BD00BFC0
:105420003152020000380020064B1B7D032B07D0B1
:10543000054B1878013801288CBF002001207047E7
:1054400001207047E037002011380020014B5868D8
:10545000704700BFE037002010B5064B587A40B1C6
:10546000FFF772FE0446FFF7BFFC0346201A48BF51
:10547000181B10BDE0370020014B187A704700BFA1
:10548000E0370020EFF3108372B6054A527A22B15A
:10549000044A4FF48071C2F8001103B962B6704734
:1054A000E037002000E100E0024B01221A70FFF714
:1054B000E9BF00BF11380020074A13782BB140B96B
:1054C000064B1B78003318BF012310701BB1FFF788
:1054D000D9BF0023F9E770471038002011380020A9
:1054E00008B50146054804F0CBFE28B9044B4FF43B
:1054F0008022C3F8002108BD042008BD2038002008
:1055000000E100E0F0B52A4E2A4D2B4F85B0002473
:1055100033689C420ED32948294D284F05F090F955
:10552000002600BB274C6946204604F0D1FE58B344
:1055300005B0F0BD610904F01F020123934055F846
:10554000212013420DD0EFF3108272B655F82100DE
:1055500020EA030345F8213002B962B657F8243037
:1055600098470134D4E70468237C1BB978462B683C
:1055700043B19847E068A36898472674384605F019
:105580005FF9CEE700DEF5E79DF80030012B09D08A
:1055900008D3022BC7D1019B002BC4D003990298DA
:1055A0009847C0E7019B002BBDD002989847BAE707
:1055B00038390020543900203C3900205839002067
:1055C000945D002020380020094808B5094B03608D
:1055D00010234360836004F02BFE074805F0FCF8BD
:1055E000064BC02283F812234FF480221A6008BDB4
:1055F00020380020343800205839002000E100E035
:1056000030B50D4685B0044620B97846074B1B6877
:1056100053B19847002368468DF8003001940295F5
:10562000FFF75EFF05B030BD00DEF3E7945D0020BC
:1056300010B5EFF3108472B60B490A68531C0B6067
:105640003AB90A4B4FF48022C3F8802004B962B6FD
:1056500010BD002BFAD17846054B1B680BB198475B
:10566000F4E700DEF2E700BF3439002000E100E09B
:10567000945D002038B5EFF3108572B60A4C2368AC
:1056800023B97846094B1B685BB198472368013BF7
:1056900023601BB9064B4FF480221A6005B962B62D
:1056A00038BD00DEF2E700BF34390020945D0020F1
:1056B00000E100E038B5054620B978460E4B1B687E
:1056C000ABB198470D4C2368052B04D978460A4B9B
:1056D0001B6873B19847EFF3108372B62068421CC1
:1056E0002260074A42F8205003B962B638BD00DE96
:1056F000E8E700DEEFE700BF945D002038390020C6
:105700003C39002010B5114B1B688342044604D875
:1057100078460F4B1B68BBB19847EFF3108372B606
:105720000C496009012204F01F0402FA04F451F844
:105730002020224341F82020074A4FF48021C2F85C
:10574000001103B962B610BD00DEE6E7383900206B
:10575000945D00205439002000E100E070B50D4652
:105760001646044620B978460C4B1B688BB1984707
:1057700025B97846094B1B686BB19847EFF3108346
:1057800072B60022A560E6602274246003B962B696
:1057900070BD00DEECE700DEF0E700BF945D0020A6
:1057A00070B5044620B97846134B1B68EBB1984797
:1057B000A36823B97846104B1B68C3B19847EFF331
:1057C000108672B6237C03F0FF0593B9012323747E
:1057D0000A48214605F010F8094B4FF48022C3F81F
:1057E0000021284606B962B670BD00DEE0E700DEA3
:1057F000E5E71120F6E700BF945D0020583900204E
:1058000000E100E010B5044620B97846034B1B6860
:1058100013B19847207C10BD00DEFBE7945D0020AB
:1058200070B5064688B00D4614460021052204A82E
:1058300005F0AAFF336907221BBAA9180DF1190058
:10584000CDF8153005F095FF70696A46113004A94E
:1058500005F01EF8AB1D0DF10600E21D13F801194D
:1058600010F8014DAB4281EA040102F8011DF5D1A7
:1058700008B070BDF7B50546002755F80C1B8368C6
:10588000C97A0646B94202AA14BF0824042403F1C7
:10589000090042F8047D73682946204401F06AFB40
:1058A000002800F08880737B012B16D00120FEF7C2
:1058B0005FFE3468FEF7D0FE206130680C30FEF7E2
:1058C00023FE04463846FEF753FE34B101992846BC
:1058D00001F0D2FB204603B0F0BD3568019C288959
:1058E000FEF7D6FE012805D07846344B1B68002B06
:1058F00057D0984795F90A30002B05DA78462F4B98
:105900001B68002B4FD09847EB68B3F1807F05D31D
:1059100078462A4B1B68002B47D098472B782BB929
:105920007846264B1B68002B41D098476B692BB9F2
:105930007846224B1B68002B3BD098472B6903F01D
:105940000102237803F07F0343EAC21323706A69DC
:10595000127823F07F0302F07F02134323706378F1
:10596000EA7A03F07F0343EAC213DBB26370AA7AD8
:1059700023F07F0302F07F0213436370EB6823710F
:105980001A0CA2701A0AE2702B89A3711A0A6271AA
:105990006B8823721A0A019BE27109333361002478
:1059A00098E700DEA6E700DEAEE700DEB6E700DE41
:1059B000BCE700DEC2E704248CE700BF945D002052
:1059C00008B5084B58B91860074B01221A70FEF74A
:1059D000C5FCFEF75BFCBDE8084001F0F3BB826844
:1059E0001A60F1E7603900206439002010B50446E0
:1059F00020B97846104B1B68C3B19847236823B978
:105A000078460D4B1B689BB1984723685B6923B9A7
:105A10007846094B1B686BB1984701232373002319
:105A200063732046BDE81040FFF724BF00DEE5E7C2
:105A300000DEEAE700DEF0E7945D002070B5044682
:105A400090B028B97846474B1B68002B79D098470F
:105A500023692BB97846434B1B68002B73D09847BA
:105A600023682BB978463F4B1B68002B6DD09847B5
:105A700023685B692BB978463A4B1B68002B66D0CC
:105A8000984703AD00222B461146206804F008FF1A
:105A900022682369D17A002914BF082104218DF8D6
:105AA0003C105169089501310791A168023189B212
:105AB000A3F10906023B002509930D9307A80B44A7
:105AC0000E93ADF82810ADF830500B9504F0E4FEBD
:105AD000324620683146FFF7A3FE216904F10C002D
:105AE000093901F093FA05238DF81C30A3688DF86D
:105AF0001E3007A823698DF81D50089302F042FC60
:105B00000446E0B1184B1B689B0618D5174B1B6861
:105B1000012B14D92F21164805F026FFC8B12F21DB
:105B2000134805F021FF411C124B134AD3F80435EA
:105B30000092019440F24122022000F077FA10B066
:105B400070BD00DE84E700DE8AE700DE90E700DE5D
:105B500097E75C21064805F007FF08B15C21DFE705
:105B60000349E1E7945D0020E8310020E4310020A2
:105B7000A0C3020000B00040BBC302002DE9F04FFB
:105B8000A5B004AF0C463A600546002800F06581D8
:105B900007F13C0A01460122504605F0EAFD28784B
:105BA000EB1D00267B6607F1800807F1430307F130
:105BB0001409C009A7F87060FE667B67C7F860909B
:105BC000FEF754FD2B7848F8486D03F07F0B78639F
:105BD00041465846FE72FDF7B3FFA14EBB6B002B4A
:105BE00000F0DE805246294607F12400FFF718FE38
:105BF00097F83D3097F84200DA0903F07F0387F801
:105C00002E3097F83F3087F82F2097F83E201B0260
:105C100043EA024397F8402013433B6397F841302F
:105C200040EA0320B885FEF733FD01283AD197F802
:105C30002F20002AA4F1090314BF08220422934252
:105C400030D3396BB88D02F0D7FB002838D003234E
:105C50003B7307F10C0006237B73BC73C7F810A0DD
:105C600002F090FB7860E8B17E4B1B68980619D56E
:105C70007D4B1B68012B15D92F21304605F074FE92
:105C8000A8B12F21304605F06FFE411C774B7A6892
:105C9000D3F804350192764A009202204FF49972AB
:105CA00000F0C4F941465846FDF74AFF96E75C21EB
:105CB000304605F059FE08B15C21E3E73146E5E7DF
:105CC00007F10C01B88DFEF73BF802460028E9D138
:105CD00097F82F30002B14BF08210421E31F87F809
:105CE0007C105B1A796E9BB2A7F868300B44BB67D7
:105CF00001464B4607F1240004F0D2FDBB6B07F1CF
:105D00000B01013307F15C00FB6504F0C7FDFB7A72
:105D1000002BC7D097F8433097F8440040EA03209F
:105D2000F884FEF7B5FC4F4B87F824001B689907F1
:105D300036D54D4B1B68032B32D9B7F86810D7F80E
:105D400074E04B00083323F007036D46ADEB030D01
:105D5000484B04AED3F800C070463346A0EB0E02A9
:105D6000914203F102032FD8002306F811303C487A
:105D70002F2105F0F9FD002835D02F21384805F0F6
:105D8000F3FD411C394B3C4AD3F8043501923B4AA0
:105D90000092029640F28112042000F047F9AD46CD
:105DA000FD7A002D00F0FC8097F82450002D00F0C3
:105DB000F7803B6BB3F1807F04D297F92E30002B34
:105DC00080F2AF800025EBE010F8012B4FEA1218AB
:105DD00002F00F021CF8088003F8028C1CF8022065
:105DE00003F8012CBAE75C211D4805F0BDFD08B1A0
:105DF0005C21C3E71A49C5E700DE9BE05C21184837
:105E000005F0B2FD08B15C2176E0154978E0154B4C
:105E10001B689B077FD5144B1B68012B7BD92F2157
:105E20000F4805F0A1FD78B12F210D4805F09CFD2C
:105E3000411C0E4B124AD3F804350092022040F266
:105E4000A51200F0F3F866E05C21054805F08CFD32
:105E500008B15C21E9E70249EBE70E25A0E000BFAD
:105E6000A0C30200E8310020E431002000B000406F
:105E7000BBC30200EC31002060C30200ABC10200D2
:105E800073C3020097F82E30C7F85CA0013B87F877
:105E90002E3000233B6607F15C0001237E6687F805
:105EA000683087F86930FFF7E5FC82460028AED1FC
:105EB00032464146F86E05F05CFC07F15C00FFF7E6
:105EC000BDFD04234846BC753B7587F815A0C7F88F
:105ED000188002F057FA0446E8B1344B1B689A0662
:105EE00019D5334B1B68012B15D92F21314805F0EB
:105EF0003BFD002882D02F212E4805F035FD411CA6
:105F00002D4B2E4AD3F804350092019440F2A11291
:105F1000022000F08BF897F82E30013387F82E30EE
:105F20003AE0BB6B33B97846254B1B68002B3FF436
:105F300063AF984797F82F30002B14BF0823042332
:105F4000093CE41AE6B207F1240A07F145083B6868
:105F500052463146404603F023F91A4B1B7805465A
:105F6000D3B197F82E30012B16D997F82430012B96
:105F700005D107F15C01F88CFDF7E2FE60B9124B28
:105F80001B68002B3FF47EAF97F82E20F98CB88D5C
:105F9000984700287FF476AF396BB88D02F04AFA43
:105FA00028468437BD46BDE8F08F00BFE8310020A9
:105FB000E4310020A0C3020000B00040BBC30200D7
:105FC000945D0020643900206039002037B506ACAC
:105FD000184654F8045B00920B460246054900201F
:105FE00005F061FB22462946002005F039FA03B08E
:105FF00030BD00BFE9C30200034B1860034B1960BA
:10600000034B1A60704700BFE8310020E4310020E4
:10601000F031002070B4044C246814B1A44670BC64
:10602000604770BC704700BFF031002030B585B0CC
:1060300008AC54F8045B019400950394FFF7EAFF61
:1060400005B030BD037942799B1A00EB03307047ED
:10605000431E9BB247F6FE62934208D849B14B8873
:1060600058400B8818420CBF0120002070470020C8
:106070007047012070470000084B984210B5044655
:1060800003D303F58273984204D97846044B1B6806
:1060900013B19847201F10BD00DEFBE774390020C4
:1060A000945D0020094B984210B5044603D303F5D4
:1060B0008273984204D97846054B1B681BB19847F8
:1060C000A4F10C0010BD00DEFAE700BF7439002017
:1060D000945D0020820738B504460D4604D078460A
:1060E0000D4B1B6873B19847AB0704D078460A4B39
:1060F0001B684BB1984725F003052544AC4205D1F8
:10610000012038BD00DEEFE700DEF4E754F8043B81
:106110000133F3D0002038BD945D00201FB5012469
:1061200001900391029269461A4620468DF800407C
:1061300004F0BEFA04B010BD2DE9F041104D114F2E
:106140000146114803F0F4FC6E684FF00008284641
:1061500004F076FB044640B1C0F800808368C06854
:106160009847A642F3D1BDE8F08136B178463B6846
:106170000BB19847EBE700DEE9E7BDE8F08100BF2F
:106180007C3A0020945D00206839002013B502A9F4
:10619000002482B241F8044D044803F04DFB18B9C5
:1061A0000198043002B010BD2046FBE7683900209A
:1061B00008B5FFF761FFBDE80840014602880148C5
:1061C00003F0C8BB68390020014B1868FFF79ABA82
:1061D000843A002010B50388044623B978460B4B57
:1061E0001B688BB198472088094B04EB800030EA8C
:1061F000030203D06288B2F5FE4F04D11C4004F5BF
:1062000080542078204410BD00DEECE7945D00202F
:1062100000F0FFFF70B50468237805461C44002198
:106220004FF6FF762868FFF70DFF844202D263889D
:10623000B34201D1084670BD2046FFF7CBFF21468F
:106240000446EFE72DE9F04FA54EA64D89B0344640
:106250002A783378022A02D009B0BDE8F08F032BE8
:10626000FDD801A252F823F079620200DF62020039
:1062700059620200E765020008A9002341F8103DB9
:10628000994803F0E9FB01460028E5D1049F974BAC
:1062900097F808903A1D1A60012399452370D7D8C2
:1062A000D7F80480D8F80C00FFF7CCFED8F81430EB
:1062B000C01AD8F80830C01AB9F1000F01D1398AD4
:1062C00089008142C4DBD8F80430002BC0D00323FE
:1062D00088F8003078682B7003F038FFB8E7834BFC
:1062E0001F6809238DF810303B798DF8113004A810
:1062F00000238DF81230059302F044F88046E8B18F
:106300007B4B1B689B0619D57A4B1B68012B15D953
:106310002F21794805F028FBD8B12F21764805F0C8
:1063200023FB411C754B764AD3F804350092CDF817
:10633000048040F28E220220FFF778FE3B79042B86
:1063400000F2B680DFE813F00E009500BC000401F7
:1063500038015C21684805F007FB08B15C21DDE7E6
:106360006549DFE73B68D3F80C804046FFF76AFEDB
:1063700098F80030FA89014608EB030000F062FD4E
:106380003B68D3F8089029F47F6828F00F0808F5D7
:10639000805BB7F80C80ABEB09014FEA88084145F8
:1063A00082463ED9C8443946002331F80C2F48466E
:1063B0009200FFF7B3FE28B17846524B1B68002BC2
:1063C00051D09847504B514904224046FFF7A6FE52
:1063D00028B178464B4B1B68002B46D09847BAF142
:1063E000000F13D03A68BAF80010536803EB81032A
:1063F00053604749444B04225046FFF78FFE28B1B3
:106400007846404B1B68002B31D09847C7F808905E
:106410000023404A1370002B40F0E38002232370D6
:1064200016E7D868FFF70EFE834500F0D680414599
:1064300003D19BF80080D844B5E7002304223649F5
:106440004846FFF76BFE20B178462E4B1B6843B1E0
:1064500098479BF80090B7F80C80D94409EB88085E
:10646000A1E700DEF5E700DEACE700DEB7E700DE1F
:10647000CCE73B68D3F80C804046FFF7E3FD98F883
:106480000030FA89014608EB030000F0DBFC00282D
:1064900000F0A5803A68B8600188536803EB810377
:1064A00053601B49184B0422FFF738FE0028AFD079
:1064B0007846144B1B68002B00F08D809847A7E7A7
:1064C0003B6897F80D80DB6803EB083808214046ED
:1064D000FFF700FE10B308220B4BB9184046E3E764
:1064E000783A0020883A0020683900208C3A002051
:1064F000E8310020E43100201CC4020000B000405C
:10650000BBC30200945D00208A3A002018C4020038
:1065100010C40200903A002014C402007B4A08F123
:10652000FF3A07F1070907F10F0B1AF8013F19F8B5
:10653000011F994207D0FF2B05D0784613682BB175
:1065400003929847039ACB45EFD1C4E700DEFAE700
:1065500038680C30FFF75EFE804620B978466B4BFA
:106560001B682BB39847B8F802305BB1684B694998
:1065700004224046FFF7D2FD20B17846634B1B68EA
:10658000C3B198474046D7F80090FFF723FEC9F8FB
:1065900008003968C868FFF755FD8B688342BFF46F
:1065A00037AF4046FFF716FE594B5B4904227BE7A5
:1065B00000DED8E700DEE5E73B68DA681B69059294
:1065C00002211B038DF81010514A069304A90120E3
:1065D00004F06EF86AE700DE1BE7012319E70223E7
:1065E00017E703231BE74D4F3B6823B97846474B1A
:1065F0001B68CBB198474A4B3F6893F80080B8F1CD
:10660000000F24D13B79D7F80890012B16D00DD379
:10661000022B1FD03B79D7F800A0042B3BD8DFE832
:1066200003F021434C3A600000DEE4E73946484677
:1066300031F80C2F920005F08DF801E0B9F8020056
:10664000B0FA80F040090028E4D14FF0030807F1C8
:106650000C09DFE73B68787BDB680822B91803EB9D
:106660000030E8E7B8F1000F0ED1B868FFF7B2FDCF
:10667000CAF80800428847F6FF739A4204D0784669
:10668000224B1B6873B19847DAF818301BB14246A9
:106690004946504698473846FFF7EEFCFFF74CFD59
:1066A0000023BCE600DEEFE7DAF81C30002BF2D066
:1066B0004246F98950469847EDE79AF80030012B99
:1066C00004D07846114B1B684BB198473B7B7A7BD3
:1066D000013B9A42DFD102238AF80030DBE700DE7B
:1066E000F4E7B8F1000F04D07846084B1B6853B1AB
:1066F000984700238AF80030DAF82030002BCAD0FF
:1067000050469847C7E700DEF3E700BF945D0020DE
:106710008A3A002010C4020018C402008C3A0020FB
:10672000903A0020064B1B88934207D1054B1A78FC
:10673000022A03D103221A70FFF784BD704700BFFD
:106740008A3A0020783A002008B54FF482720F4947
:106750000F4803F001F80F49012003F093FF0E48A2
:10676000FEF7A8FF0D4B0E4A1860002313700D4A68
:106770000D48138004F030F803F096FC0B4B10B179
:1067800003221A7008BD0222FBE700BF7439002003
:10679000683900202567020045620200843A002023
:1067A000783A00208A3A00207C3A0020883A00207B
:1067B00070B50E461446054620B97846164B1B6840
:1067C00033B198472B78022B04D00024204670BDAB
:1067D00000DEF7E7E86894B904780444E868FFF756
:1067E00031FC0546AC42F0D231466088FFF730FC00
:1067F0000028EBD12046FFF7EDFC0446F2E70378D2
:1068000003449C42E1D3FFF71DFC8442DDD82046BF
:10681000FFF7E0FC0446E1E7945D002070B50E460A
:106820001446054620B97846194B1B68D3B19847E2
:10683000731E9BB247F6FE62934208D947F6FF7378
:106840009E4204D07846124B1B686BB19847802C4F
:1068500004D978460E4B1B6843B198472B783BB957
:10686000002070BD00DEE3E700DEF0E700DEF5E7C4
:1068700004F11000FFF78AFC0028F1D00334A408CB
:10688000002301340371C681848140F80C5B70BD24
:10689000945D002008B5FFF705FCFFF789FCBDE813
:1068A0000840FFF791BC000038B50C46054620B9FA
:1068B0007846154B1B6803B39847631E9BB247F697
:1068C000FE62934208D947F6FF739C4204D0784693
:1068D0000D4B1B689BB198471020FFF757FC80B108
:1068E000012202714FF6FF72C48182810560FFF7B9
:1068F0005FFCFFF769FC002038BD00DEDDE700DE4D
:10690000EAE7042038BD00BF945D00202DE9F04780
:10691000002303700B68C3F30B0304460D4623B139
:1069200078468B4B1B6823B398476B68FE2B04D9C2
:106930007846874B1B68F3B1984704F10C07002693
:10694000182229463846DFF8088204F012FFA660B4
:1069500066602369E5689E420FD32846FFF772FB05
:106960002B78DFF8ECA181461D44002647F6FF781E
:106970002EE000DED9E700DEDFE74FEA063905EB5F
:10698000090115F80930083BDBB2F62B06D84A7925
:10699000FF2A03D00B79FF2B40F0C1800123237025
:1069A00000256B4F4FF0100885E000DEC0E000DEF0
:1069B000CBE013B92B8806EB83062846FFF70AFCC9
:1069C0008145054604D87846DAF8003043B3984745
:1069D0006B88C3F30E024245EBD166603846FFF781
:1069E00019FCA060F0B9E3681A781344A36002238D
:1069F000E56823702B781D44A3689D420DD228467C
:106A0000FFF7E8FBA368984206461DD16A88531E2B
:106A10009BB247F6FE618B421BD90020BDE8F08790
:106A200000DED5E743884345E1D00820FFF7AEFB01
:106A300010B90420BDE8F087032202710460FFF75B
:106A4000B7FBFFF7C1FBD2E73046FFF7C3FB354684
:106A5000D8E7E36818782946184400F0F3F90028CD
:106A6000DBD08542D9D041882046BDE8F047FFF70A
:106A70001BBFE0682E03304440F6FC710430FFF782
:106A800029FB08B31020FFF781FB0028D1D0022298
:106A90000271082202720422427280F80B8080F890
:106AA0000A804573226902734FF6FF72C281046047
:106AB000FFF77EFB013523699D42DAD3FFF784FBA4
:106AC000E3680833A360A8E7E3689A199B5D083B75
:106AD000DBB2F62B05D85379FF2B02D01379FF2BAD
:106AE00005D178463B680BB900DE00E09847E368C3
:106AF00033445B799D4203D078463B685BB198474D
:106B0000E3681E44236932799A42D3D078463B68C1
:106B10001BB19847CEE700DEF2E700DECAE79642F7
:106B200006D07846D8F80030002B3FF43EAF9847A7
:106B3000E3684B441A7923699A4206D07846D8F81C
:106B40000030002B3FF433AF9847013601E700BF18
:106B5000945D002010B5044620B978460C4B1B68A4
:106B600083B19847A36823B97846094B1B685BB18A
:106B70009847236853B9246021460648BDE8104071
:106B800003F03ABE00DEEDE700DEF2E710BD00BF25
:106B9000945D00207C3A002008B5074802F088FF89
:106BA00038B903F0CBFA80F00100C0B200F0010068
:106BB00008BD0020FAE700BF6839002038B5044658
:106BC000A8B1C5682846FFF73DFA2B78014647F67D
:106BD000FF72E81800F036F9A06020B978460A4B39
:106BE0001B687BB198470223237000236360074B27
:106BF0000749022201201A7003F044FDBDE8384025
:106C0000FFF7E2BA00DEEEE7945D0020883A00204C
:106C10002567020003F006BBA0F164024EF6FC13E8
:106C20009A4210B5044604D978460A4B1B687BB1DA
:106C300098476823084A0948002100F06DFD214665
:106C4000064800F019FD0548BDE8104000F062BCA0
:106C500000DEEEE7945D0020943A0020FC3A00202C
:106C60002DE9F041884616461F460446B0B1C2B130
:106C7000013B1B2B15D8FF2913D0BD1CEDB2691C9D
:106C800000F05EFC044648B12B234574837480F801
:106C900013803A463146143004F06BFD2046BDE8BF
:106CA000F0810024FAE7000010B5A1B1541E1B2C9E
:106CB00011D8FF280FD073B113460A460146084881
:106CC000FFF7CEFF014640B1FF230371044800F0F7
:106CD00081FC002010BD072010BD042010BD00BFA6
:106CE000FC3A00202DE9F04184B00E4604AF9046F6
:106CF000054628B978464A4B1B68002B6DD098474B
:106D0000002E00F08B802C78711EC9B2002C66D04A
:106D1000012C6CD0434C2268D20519D5424B1B681C
:106D2000012B15D92F21414804F01EFE002863D005
:106D30002F213E4804F018FE411C3D4B2A78D3F821
:106D4000043501923B4A009202209522FFF76EF92A
:106D50002368DB053FD5344B1B68032B3BD930B28E
:106D60004300083323F007036C46ADEB030D324BB1
:106D7000D3F800E00DF110080DF111012A4612F8C8
:106D8000013F4FEA131C03F00F031EF80CC001F87B
:106D900001CC1EF8033001F8023B531B9E42EED893
:106DA000002308F810302F21204804F0DDFD60B3E7
:106DB0002F211E4804F0D8FD411C1D4B1F4AD3F85B
:106DC000043501921E4A0092CDF8088096220420D4
:106DD000FFF72CF9A5460B2006E000DE90E74246BF
:106DE000681CFDF739F80020BD46BDE8F081424639
:106DF000681C00F017FAF6E75C210C4804F0B4FDBB
:106E000008B15C2195E7094997E75C21074804F040
:106E1000ABFD08B15C21CCE70449CEE70920E3E7EC
:106E2000945D0020E8310020E43100203DC40200E0
:106E300000B0004057C40200EC3100207DC40200C5
:106E4000ABC1020088422DE9F84304460E461746BE
:106E500004D978461B4B1B682BB19847DFF8688034
:106E6000DFF860901CE000DEF8E7238804EB830382
:106E70009E4221D9238823B97846D9F80030FBB146
:106E80009847238804EB830333EA080203D062881F
:106E9000B2F5FE4F01D12B782B449E421C460BD9F4
:106EA0006388BB4209D004EA080505F58055AE4267
:106EB000E0D8B3F5FE4FD8D100242046BDE8F883D2
:106EC00000DEDEE7945D002000F0FFFFF7B50F4D18
:106ED00016462A6804460F46A2B120B978460C4BE4
:106EE0001B688BB1984701238DF80430094BE41AD5
:106EF000094BA4105C438DF805402B683A46314697
:106F000001A8984703B0F0BD00DEECE7403E00204A
:106F1000945D0020983B0020AD1B4C9170B50D4C4A
:106F20000D4D0E4A0E4901264FF4807320462E6007
:106F300000F0F2FB2046943400F0ECFA2046802367
:106F4000084A6E60002100F0E7FB2046BDE8704073
:106F500000F0E0BA983B0020903B0020C03C0020AD
:106F6000CD6E0200C03D0020014B1860704700BF8D
:106F7000403E0020F8B5054616461F460C4629B986
:106F800078461F4B1B68002B31D098472EB97846A6
:106F90001B4B1B68002B2CD098472378012B04D067
:106FA0007846174B1B6833B398476378012B04D995
:106FB0007846134B1B6803B398470023336062780D
:106FC000104B9420A91C00FB023000F0B9FA50B11C
:106FD000076062780C4B53F82230037101352A2385
:106FE000837445741330306000B12078F8BD00DE42
:106FF000CCE700DED1E700DED7E700DEDDE700BF4B
:10700000945D0020983B0020903B002038B50D4651
:10701000044620B97846164B1B680BB3984725B930
:107020007846134B1B68EBB198472378012B04D0AB
:1070300078460F4B1B68BBB198476378012B04D986
:1070400078460B4B1B688BB198476278094B9420AC
:10705000A5F1130100FB0230BDE8384000F0BABAD8
:1070600000DEDCE700DEE0E700DEE6E700DEECE77E
:10707000945D0020983B002038B50D46044620B9A9
:107080007846164B1B680BB3984725B97846134BC7
:107090001B68EBB198472378012B04D078460F4B3F
:1070A0001B68BBB198476378012B04D978460B4B1A
:1070B0001B688BB198476278094B9420A5F11301A6
:1070C00000FB0230BDE8384000F0C0BA00DEDCE76B
:1070D00000DEE0E700DEE6E700DEECE7945D00209E
:1070E000983B00202DE9F0478CB00CAC002644F80A
:1070F0002C6D0546FDF7AAFA0746FDF7C3FA431EB5
:10710000D3F100083046214648EB0308FCF7BAFDEE
:107110002A4EDFF8AC90019911B90CB0BDE8F087A8
:107120004A685388526806FB0323AB4202D05B1BBC
:10713000002B3EDA9DF8183003F0FE0368F341039C
:107140006FF3870301F1080A082218310DF11900C5
:107150008DF8183004F00DFB3BBACDF821300D222C
:1071600002AB06A9504603F095FB08220DEB020185
:107170000DF1250004F0FDFA0123152206A9184699
:10718000FFF792FDA8B9019B58684188028819B998
:10719000D9F80C10B1FBF6F10A235A43B2FBF1F215
:1071A00002FB03334380019B5A6855605B680022F1
:1071B0001A8021460020FCF765FDACE740420F0035
:1071C000583E002013B5114B114C01221A70114B7F
:1071D000E3600421104BA3600DEB01000023236149
:1071E000FDF758FFFDF700FE0199E268B1FBF2F3ED
:1071F00002FB1313184460602046FDF711FD074A97
:107200000748042103F0A8FB02B010BD543E002043
:10721000583E0020404B4C00E5700200443E0020E8
:107220008EC40200F0B5044689B020B978462A4BD6
:107230001B6873B1984708AD002345F81C3D661CD8
:1072400029463046FCF71EFD234F019B1BB909B0B0
:10725000F0BD00DEEFE75B6823B978463B68002BA2
:1072600038D09847019804AB0D222146083003F02E
:1072700011FB082204A90DEB020004F07AFA08229F
:1072800004F10D010DEB020004F064FAE8B9019B72
:107290005A681388FE2B9CBF01331380019B1B7817
:1072A0009BB1D4F809302178180E1A0240EA036025
:1072B00002F47F021B0A104303F47F4301F0010232
:1072C0001843C1F34001FDF777F929463046FCF732
:1072D000D9FCBAE700DEC5E7945D002010B503785D
:1072E00013F0FC0F044604D07846084B1B6853B1DA
:1072F0009847237803F0FE03022B02BFA37963F0C3
:107300003F03A37110BD00DEF3E700BF945D0020D2
:1073100010B5044620B978460B4B1B6883B19847DB
:10732000636F23B97846084B1B685BB19847636F5E
:10733000D4F89020D4F88C102046BDE810401847AF
:1073400000DEEDE700DEF2E7945D002038B550F88E
:107350001C2C1379013BDBB2FD2B04460DD9436D88
:107360005BB11368C36601675830FEF719FA20B1A4
:1073700078460E4B1B68B3B1984754F81C1C0B7928
:107380009BB904F13405284644F81C3C043902F04A
:10739000CFFB284602F08CFB38B904F11C00BDE895
:1073A0003840FDF765BC00DEE7E738BD945D00209E
:1073B00038B5054607480C46FDF75AFEB0FBF4F118
:1073C00001FB1404FDF710FD21182846BDE83840E4
:1073D000FDF780BC703E0020F7B50B780C46002B03
:1073E00000F08C8091F83830F3B94B6FB3B90026B8
:1073F00004F154056368002B2ED01B79FF2B3ED17E
:10740000284602F069FB63681B7928BB23B394F814
:107410007030002B51D00546394F49E001F178001A
:10742000FEF7F0F90028E2D094F83C30A56E062B68
:1074300005D07846334B1B68002B5DD09847304809
:10744000FDF716FE42F21073B0FBF3F202FB1300DD
:107450002844A06403B0F0BD616821B10439284616
:1074600002F066FB666001A9284602F0F5FA0028E2
:10747000F0D1019B1A1D0C3362602362BAE7002031
:10748000C1E73846FDF7F4FD94F86F30B0FBF3F236
:1074900002FB1303DAB2B24209D02644234496F821
:1074A0006C2093F86C1086F86C1083F86C20013512
:1074B00094F86F30EEB2B342E3D865682B798BB1A4
:1074C0002B79FF2B1CBF03F1FF332B7104F1080054
:1074D00000F0B8FB0028A7D078460A4B1B684BB1D8
:1074E0009847A1E77846074B1B680BB19847E7E739
:1074F00000DEE5E700DE97E700DEA0E78B64A9E7A2
:10750000703E0020945D00200148FDF7EBBD00BFF8
:10751000703E002010B5037804467BB90123037048
:10752000436833B1A16E04F13C00BDE81040FFF7A1
:107530003FBF543002F0BCFA0028F3D110BD000068
:107540002DE9F3410D46074620B97846204B1B68CC
:1075500073B398471F2D04D978461D4B1B684BB356
:10756000984705F1110292B201A907F1540002F007
:1075700063F9804600BB019E337B022262F3030362
:1075800006353373757397F86030327B5B0863F3AD
:107590008612327307F16101062206F10F0004F032
:1075A000E8F8341DC6F80480204602B0BDE8F0813A
:1075B00000DECFE700DED4E7042804D07846044B91
:1075C0001C6814B1A0470024EEE700DEECE700BF22
:1075D000945D002038B505460C4601B120B97846C7
:1075E000194B1B6853B39847237923B97846164B38
:1075F0001B682BB39847237A03F0CF036FF3C713AD
:10760000237221460023A37231F8042D05F15400A2
:1076100002F0A0F92B78ABB195F83C303BB195F86E
:107620003C30042B03D095F83C30052B0AD1A96ED1
:1076300005F13C00BDE83840FFF7BABE00DED3E7F5
:1076400000DED8E738BD00BF945D002038B50446A1
:107650000D4601B120B97846064B1B683BB19847EF
:10766000291F04F15400BDE8384002F061BA00DE81
:10767000F6E700BF945D002038B50D46044620B9FA
:107680007846164B1B6843B19847132D07D87846A8
:10769000124B1B68B3B1984704E000DEF5E7B5F57F
:1076A000205FF4D84FF47A7194F83C306943A166B6
:1076B0009BB194F83C30042B0FD094F83C30052B50
:1076C00008D138BD00DEEDE704F13C00BDE83840EC
:1076D000FFF76EBE2378002BF6D138BD945D0020F5
:1076E00010B54FF080530446D3F8A0200378094921
:1076F00012F0010214BF62F347036FF347030370F4
:107700000622013004F035F82046BDE81040FFF7AE
:10771000E5BD00BFA4000010F8B50D4616461F4693
:10772000044600B12AB97846254B1B68002B42D08D
:1077300098470A2F05D87846214B1B68002B3CD070
:107740009847BAB2314604F1540002F005F804F14A
:107750006000FFF7C5FF44F620630322A3662623DB
:10776000252184F86D3084F86F20272384F82620A3
:1077700084F83420134A84F86C1084F86E30124870
:1077800084F82510002304F16C01E2620F4A84F8AA
:107790007030A06284F824302163236265676264DC
:1077A000E46423705DB1224604F178000849BDE825
:1077B000F840FDF7D3BF00DEBBE700DEC1E7F8BD50
:1077C000945D00204D730200D6BE898ED9730200ED
:1077D0001173020070B5FDF727FE00284BD1264833
:1077E00003F048F80546002835D00468FDF734FE5C
:1077F000002C34D0A3686433984230D91F4E3378BC
:107800001BB100F005FC002333701B4803F018F88F
:10781000854204D078461A4B1B68F3B19847002381
:1078200023610120FDF748FE164D174B2C604FF0E9
:10783000FF32C3F80823154B0222C3F88021FDF75D
:10784000D3FA2B6812499A6802440A60BDE8704076
:107850001A68D96810470446C8E700DEDFE7B0F5CC
:10786000FA7F08D9054B1A782AB901221A70BDE8A7
:10787000704000F0B9BB70BD803E00208C3E0020FF
:10788000945D0020903E00200010004000E100E0E8
:10789000883E002008B5064802F09EFF054A0023F6
:1078A0001360054A1370054B01221A7008BD00BF12
:1078B000803E0020903E00208C3E00208D3E002027
:1078C00010B5054B1A782AB100241C70FDF7DAFDBB
:1078D000204610BD082010BD8D3E002010B5044686
:1078E00028B978461D4B1B68002B2DD0984723687C
:1078F0002BB97846194B1B68002B27D09847A368F3
:1079000023B97846154B1B6813B39847A268144BEC
:107910009A4204D97846114B1B68DBB1984723691A
:107920009C4219D00F48246104F1100102F064FF59
:107930000D4B1B7803F0FF0023B90C4B1C6814B9E6
:10794000FDF7A0FD002010BD00DED0E700DED6E789
:1079500000DEDBE700DEE2E7082010BD945D0020DA
:10796000A0860100803E00208D3E0020903E002039
:1079700010B5194C226822B97846184B1B6803B31E
:107980009847FDF779FD20B97846144B1B68D3B1B1
:107990009847FDF729FA124B1B68C01A002804DB30
:1079A00078460E4B1B6883B198470020FDF784FD95
:1079B000002323600B4B1B784BB1BDE81040FDF753
:1079C00073BD00DEDDE700DEE3E700DEEDE7BDE8E6
:1079D0001040FFF7FFBE00BF903E0020945D0020E6
:1079E000883E00208D3E002010B5FDF745FD20B9F2
:1079F0007846134B1B6883B19847124C226882B1BA
:107A0000536823B978460E4B1B6843B198472368E7
:107A1000BDE810405A68D868104700DEEDE700DE88
:107A2000F5E7094B1B7823B97846054B1B6823B152
:107A30009847BDE8104000F0F3BA00DEF9E700BF58
:107A4000945D0020903E00208C3E002008B5FDF79C
:107A500013FD20B97846074B1B683BB19847064B8E
:107A60001B682BB9BDE80840FFF7B4BE00DEF6E79F
:107A700008BD00BF945D0020903E002008B5FDF7D2
:107A8000FBFC20B978460B4B1B687BB198470A4B2F
:107A90001B6823B17846074B1B684BB19847074BCF
:107AA00002221A60BDE80840FFF794BE00DEEEE750
:107AB00000DEF4E7945D0020903E002000E100E04D
:107AC00010B5FDF7D9FC20B978460C4B1B6883B183
:107AD00098470B4B1B6823B17846084B1B6853B182
:107AE0009847084C23781BB100F092FA00232370CA
:107AF00010BD00DEEDE700DEF3E700BF945D00207F
:107B0000903E00208C3E002070B5274CD4F81031F8
:107B1000054623B97846254B1B6853B39847244A3A
:107B20000023C4F8103113780133DBB2137095F8D9
:107B30002C20934221D9FDF789FC1E4BD3F84865D0
:107B40000644FDF751F96B6A0446314605F1180009
:107B50009847FDF749F9001B502804D47846134B89
:107B60001B6843B19847FFF703FF002385F83030C7
:107B700070BD00DED3E700DEF5E70ED2AA6AD05C66
:107B800000F0BAF8084BD3F810315BB17846074BD8
:107B90001B6833B1BDE8704018470323C4F80032B6
:107BA000F0E700DE70BD00BF00100040945D0020D3
:107BB000943E0020008000401E4B1F4A10B5C3F8C1
:107BC000602502F5DE424432C3F864254FF480623A
:107BD0000C46C3F8042500F075F804F11C0000F011
:107BE000A5F80021206A00F0E1F8A36A187800F0F7
:107BF00083F8124B124AA06901211170C3F80405E1
:107C00000020C3F810011020C3F80403196094F891
:107C10002C10012909D90721C3F800121378A26A90
:107C2000BDE81040D05C00F067B80322C3F8002222
:107C300010BD00BF00F001400411004000100040E2
:107C4000943E002010B5436A044623B97846194B88
:107C50001B684BB3984794F83030002B28D1164B53
:107C60002360164B6360A369A17F587894F82C2099
:107C7000E460042900F10A0308BF00F10B03104877
:107C8000415C4B43923353439833A360012384F800
:107C900030302046FFF722FE58B17846054B1B686E
:107CA00023B19847002010BD00DED4E700DEF9E7DD
:107CB000112010BD945D0020B97B0200097B0200F9
:107CC00093C402000A4B0022C3F8FC2F0122C3F820
:107CD000FC2F40F25B62C3F8382540F20312C3F870
:107CE0003425044AC3F83C259622C3F8442570473E
:107CF0000010004055555500272810B5044604D9FA
:107D00007846074B1B6843B19847064B1A5D064BF4
:107D1000C3F80825C3F8544510BD00DEF5E700BFE1
:107D2000945D002099C402000010004010B5044684
:107D300028B978461B4B1B68002B2DD09847A37899
:107D4000052B04D97846174B1B683BB398476378DB
:107D500023B97846134B1B6813B39847124A23780C
:107D6000C2F80C35A378C2F81035637843F000737D
:107D700043F44033C2F818356378252B8CBF0821B3
:107D80000621C1F108031B0403F4702341F4807140
:107D90000B43C2F8143510BD00DED0E700DED6E795
:107DA00000DEDBE7945D00200010004070B5174B4B
:107DB000D3F81835C3F30243032B04460D4604D011
:107DC0007846134B1B6853B1984755B1012D10D01D
:107DD00078460F4B1B68B3B1BDE87040184700DE12
:107DE000F3E70A4B220E2402C3F82425C3F81C45EE
:107DF00070BD230C054A03F47F432402C2F82435E6
:107E0000C2F8204570BD00DE70BD00BF001000400C
:107E1000945D0020EFF3108372B6054A52781AB1D0
:107E2000044A0221C2F8001103B962B6704700BFCC
:107E3000983E002000E100E0024B00221A71FFF79B
:107E4000E9BF00BF983E0020074B5A7993F82710EE
:107E50000132D2B291425A719CBF00225A71022261
:107E60001A71FFF7D7BF00BF983E0020F8B5194D33
:107E7000194EFFF727FF00241848FFF757FF012787
:107E8000C5F8304556F8040F48B12146FFF78EFF7C
:107E9000D5F8302507FA04F31343C5F8303501341B
:107EA000082CEFD10B4B1122C3F80443C3F8002276
:107EB0000022C3F8042103F5F033094AC3F8602512
:107EC00002F5DE424432C3F864254FF48062C3F801
:107ED0000425F8BD00100040BC3E0020B03E00204C
:107EE0000411004010B50F4CA36823B178460E4B27
:107EF0001B68ABB198470D493C2201F1700001F0BD
:107F00009BFC031E01BFA26809491832C1F8042571
:107F10000CBF01200020003318BF0123A37010BD47
:107F200000DEE8E7983E0020945D0020A03E00209F
:107F30000010004010B50F4BD3F8503523B17846F0
:107F40000D4B1B68A3B198470C4C6379234493F8FD
:107F50002400FFF7D1FEE3781BB1FFF787FF002372
:107F6000E370FFF7BFFF10B1024B01225A6010BD52
:107F700000DEE9E700100040945D0020983E0020FC
:107F800070B5094C094D012200262261C4F80C612C
:107F9000A96821B105F1780001F0CAFDAE60D4F8FE
:107FA0005035002BFBD170BD00100040983E0020E2
:107FB00010B5FCF719FF04460948C169036A8B42F2
:107FC00008D16030FCF754FE21460648BDE8104059
:107FD000FCF780BE21446030FCF77CFEF4E700BF74
:107FE000983E0020E03E002010B5084C012363704D
:107FF0000023E370FFF73AFF2378022B05D12379A2
:108000001BB1BDE81040FFF795BF10BD983E0020A2
:10801000024B00225A70FFF7B3BF00BF983E00200A
:1080200070B5434B434CD3F80C21002A72D0002288
:10803000C3F80C21D3F80C21D3F80024A5683AB971
:1080400023690133236129463B4801F071FD5FE05C
:10805000697E627E91422DD9636901336361F2E7E3
:10806000334BD3F85035032B59D8DFE803F00C1706
:1080700002172579012D0AD016D3022D4FD1FFF713
:108080007FFF01232371BDE87040FFF753BFFFF767
:1080900029FF00284BD0264B9D6070BD2379012B12
:1080A00045D001D3022BE9E7BDE87040FFF768BF78
:1080B00000DE70BDD3F8482552426A73D3F8082415
:1080C0000A3254F82220AA60D3F8543503F03F0353
:1080D0002B73FDF7BBF9194BD3F84835184468608A
:1080E000062205F11B0105F10F0003F042FB2B7E78
:1080F000AA7BA168C3F3801363F34702AA73E36802
:108100006A7E0133173204F17800E36001F022FC4B
:108110000023A3602378012BC6D0022BA0D0784681
:10812000074B1B68002BC3D0BDE87040184770BDDB
:1081300000100040983E0020103F002000800040CA
:10814000945D002010B5094C237823B97846084B7C
:108150001B6843B198472378012B03D1FFF728FF11
:108160000223237010BD00DEF5E700BF983E00201B
:10817000945D002038B5054620B97846094B1B6848
:1081800063B19847084C291F04F1780001F0D0FC36
:10819000A3782BB1BDE83840FFF73CBE00DEF1E725
:1081A00038BD00BF945D0020983E002013B50A4CF6
:1081B00001A9204601F050FC08B100200AE0019816
:1081C000043002F0ADFE019B18B1181DFFF7D2FF7D
:1081D000EEE7181D02B010BD103F0020884238B5F0
:1081E00004460D4604D27846134B1B68EBB1984702
:1081F000124B9C4204D978460F4B1B68BBB1984781
:1082000040F6B7339D4204D878460B4B1B6883B1C8
:1082100098470B4B1C62DD61DC665C651B78022BAA
:1082200009D1BDE83840FFF7C3BE00DEE0E700DE5D
:10823000E6E700DEEDE738BD945D00200000710246
:10824000983E00204B1E022B70B506460C4604D902
:108250007846134B1B689BB1984733469A1BD2B2A2
:10826000944210D913F8012B252AF7D0262AF5D0ED
:10827000272AF3D078460A4B1B681BB900DE02E0C0
:1082800000DEEAE79847074D2246314605F1240013
:1082900003F06FFA00236B7185F8274070BD00BFB3
:1082A000945D0020983E00204B1E072B70B50646BB
:1082B0000D4604D978460B4B1B6883B198470A4C8E
:1082C0002022002104F1280003F05EFAAA003146C2
:1082D00004F1280003F04DFA0123E37070BD00DEC5
:1082E000EDE700BF945D0020983E002007B50F4BDE
:1082F00068461A889B78ADF8002003218DF802307B
:10830000FFF7A0FF02A80A4B40F8043D0121FFF748
:10831000CBFF084B084903229A7608460122DA70FF
:10832000FFF75CFF03B05DF804FB00BFC1C40200AF
:10833000D6BE898E983E002080841E0010B50E4C5B
:108340004FF421720021204603F01EFA4FF4007210
:1083500004F1840104F1780001F0FEF9FFF7C6FF93
:108360000023237625236376044BA366044B236501
:1083700001232370237110BD983E0020397E020036
:10838000497E0200064B1B78014633B1054B1B6842
:1083900013B9054801F074BF18470620704700BFA5
:1083A00030410020344100201C41002010B5064C13
:1083B00006490822204603F0DCF90822A0180449E7
:1083C000BDE8104003F0D5B938410020600000102E
:1083D000A4000010002306491A46C81842804260D3
:1083E0005A540833B3F5807FF7D1024B1A607047B7
:1083F0004841002048420020F0B50C4B0C4C1B6853
:10840000064620227BB1013B14F8330050B104EB47
:10841000C3056F88B74202D16D688D4202D0013A20
:10842000F0D11046F0BD1F23EEE700BF4842002008
:108430004841002030B5084A084C136804EBC305D6
:108440006960012104F833100B44202B08BF00237E
:108450006880136030BD00BF4842002048410020C2
:1084600010B50378044623B97846064B1B6833B130
:108470009847E079431C01209840013810BD00DE88
:10848000F7E700BF945D0020C0F30C038B42084463
:1084900038BFA0F50050C01A70470000F8B5037847
:1084A00004460E4623B978460E4B1B68BBB198476D
:1084B000E369A188A069A78A03F00105FFF7E4FF3B
:1084C000094A1368591C1160084903F0070301EBBE
:1084D000C30201F83360557057805060F8BD00DE6C
:1084E000E6E700BF945D002098420020584200203B
:1084F0000D4A70B500242346154692F8446046B9EB
:10850000002B08BF13460134042C02F16C02F4D195
:1085100008E0968A8642F6D196888E42F3D16C2383
:1085200003FB0453184670BDB442002030B58DB033
:1085300005460C462C22002101A803F025F918233A
:1085400001A88DF8043002958DF80C40FBF7FAFD78
:108550000DB030BD00B543788DB04BB9084B9A4291
:1085600006D0012301A88DF804300292FBF7EAFD42
:10857000044B1868FDF7C6F80DB05DF804FB00BFAA
:108580005EE6655E5042002070B50C4601461E4610
:1085900011F80C3B2160002B14BF042501252A444F
:1085A000A260836A63602046FDF720FA10B9226951
:1085B0002A44326070BD00002DE9F0410E468EB0B5
:1085C00015461C46074628B97846294B1B68002BE0
:1085D00043D098472EB97846254B1B68002B3ED0D8
:1085E00098472CB97846224B1B68002B39D0984706
:1085F000636A627802330593A378A2F10800002B26
:1086000014BF012102210DF10408424242414346B8
:1086100004F10C0002F044F963788DF83430237BC8
:10862000ADF82050022B16FA85F5CDF81880079783
:108630000B960C9519D1236923B978460C4B1B680E
:108640008BB1984723690993102305A8ADF828300A
:1086500002F022F90EB0BDE8F08100DEBAE700DEDC
:10866000BFE700DEC4E700DEECE70023EDE700BF74
:10867000945D002038B50D4B04461B68806E0025C4
:108680009847A56604F12C00FCF7F2FA94F8443000
:10869000022B03D104F14C00FCF7EAFA84F84450B1
:1086A0000020BDE83840FBF763BF00BF5442002004
:1086B00010B590F84430012B8CB0044604D07846B5
:1086C000094B1B686BB1984701238DF8043001A852
:1086D000236D0293FBF736FD2046FFF7CBFF0CB06E
:1086E00010BD00DEF0E700BF945D0020F0B50E463F
:1086F00085B0044628B97846374B1B68002B57D005
:10870000984708238DF8083002A800238DF80960E7
:108710008DF80A300393FFF735FE304D0746E0B180
:108720002B689A0619D52E4B1B68012B15D92F21C2
:108730002C4803F019F900283CD02F21294803F0D8
:1087400013F9411C284B294AD3F8043500920197AC
:108750004FF4DC720220FDF769FC00212046FFF790
:108760009DFE3146206DFFF7E1FE2046FFF782FFB8
:108770002B685B071AD51A4B1B68032B16D92F21C0
:10878000184803F0F1F8F0B12F21164803F0ECF887
:10879000411C154B94F84420D3F804350192144A37
:1087A000009204204FF4DF72FDF740FC05B0F0BDED
:1087B00000DEA6E75C210B4803F0D6F808B15C2187
:1087C000BCE70849BEE75C21064803F0CDF808B1D4
:1087D0005C21DAE70349DCE7945D0020E831002002
:1087E000E4310020C4C4020000B00040BBC302005A
:1087F000E1C4020008460021FFF778BFF8B51F4624
:10880000531E012B04460D46164605D97846224BC9
:108810001B68002B34D09847A36E2BB178461E4BB3
:108820001B68002B2ED098471C4B38461B68984776
:10883000A06620B32C222946204602F09AFF00228F
:10884000A264A4F84670A988A869FFF71DFE012E4E
:10885000A061134B18D1134984F84E20097D84F888
:108860004D1084F84C20AA6AA3620F4B22650120A8
:108870006363E463FBF77CFE84F844600120F8BD89
:1088800000DEC9E700DECFE7A362084B636584F82A
:108890006420E465064BEAE7945D00204C4200202A
:1088A0005EE6655E9C4200202D8D0200A98E0200CE
:1088B000F58702001FB500220B468DF80F2028B364
:1088C0000230086018460DF10F0101F0E7FF9DF836
:1088D0000F30DBB1144B1B685B0717D5134B1B68BC
:1088E000032B13D92F21124803F03EF898B12F2102
:1088F0000F4803F039F8411C0E4B0F4AD3F80435EA
:108900000092042040F20132FDF790FB9DF80F0029
:1089100005B05DF804FB5C21054803F025F808B1BB
:108920005C21E5E70249E7E7E8310020E431002077
:10893000C4C4020000B00040F9C402002DE9F04FA9
:108940009B461378D2F81880F3B005468946144642
:1089500023B191884046FFF797FD9061A378627834
:10896000002BA2F1080003AF14BF0121022104F182
:108970000C06424242413B46304601F091FF62788C
:108980008DF83C201FFA89FAAAEB02039BB2ADF8DE
:1089900028302B440E930023ADF83030237B08970A
:1089A000022B04BF1022ADF83020A278C4F8188042
:1089B00012AF09950D9704F12408002A00F0C08039
:1089C000237B022B04BF23690B9300236362206A7D
:1089D000E1784246FBF7EEF8606A002858D1237B25
:1089E000022B05D13146E089FBF7AAF90028E7D12F
:1089F0006F4E3268530719D56E4B1B68052B15D97E
:108A00002F216D4802F0B0FF002800F0BE802F211A
:108A1000694802F0A9FF411C684B694AD3F8043544
:108A20000092062040F2DD42FDF700FB03238DF8A3
:108A30001C30A3788DF81E90002B14BF0023022356
:108A400007A88DF81D300895FFF79CFC0446002808
:108A500073D033689A0670D5564B1B68012B6CD9BE
:108A60002F21554802F080FF002800F097802F2129
:108A7000514802F079FF411C504B524AD3F804355B
:108A80000092019440F2E3420220FDF7CFFA54E055
:108A900007A9FFF70FFF002899D001238DF81C309C
:108AA00000238DF81D3063780895A9EB030907A80A
:108AB0008DF81E90FFF766FC0546E8B13C4B1B683D
:108AC000990619D53B4B1B68012B15D92F213A4824
:108AD00002F04AFF00284FD02F21374802F044FF10
