:020000022000DC
:1040000002E0032005C102002DC102003D4802006C
:1040100031C1020033C1020035C1020000000000BE
:1040200000000000000000000000000037C1020096
:1040300039C10200000000003BC102003DC1020086
:104040003FC102003FC102005D6B02003FC10200A0
:104050003FC102003FC102003FC102003FC1020058
:104060003FC102003FC102003FC102003FC1020048
:104070003FC102003FC102003FC102003FC1020038
:104080003FC102003FC102007DE202003FC10200C9
:104090003FC102003FC102009D4802003FC1020033
:1040A0003FC102003FC102003FC102003FC1020008
:1040B0003FC102003FC102000000000000000000FC
:1040C0003FC102003FC102003FC102003FC10200E8
:1040D0003FC102003FC102003FC102003FC10200D8
:1040E0003FC102003FC102003FC1020000000000CA
:1040F000000000003FC10200000000003FC10200BC
:1041000000000000000000000000000000000000AF
:10411000000000000000000000000000000000009F
:10412000000000000000000000000000000000008F
:10413000000000000000000000000000000000007F
:10414000000000000000000000000000000000006F
:10415000000000000000000000000000000000005F
:10416000000000000000000000000000000000004F
:10417000000000000000000000000000000000003F
:10418000000000000000000000000000000000002F
:10419000000000000000000000000000000000001F
:1041A000000000000000000000000000000000000F
:1041B00000000000000000000000000000000000FF
:1041C00000000000000000000000000000000000EF
:1041D00000000000000000000000000000000000DF
:1041E00000000000000000000000000000000000CF
:1041F00000000000000000000000000000000000BF
:1042000010B5054C237833B9044B13B10448AFF310
:1042100000800123237010BDC03200200000000088
:10422000186203000C4B43B10C480D4910B5AFF3B5
:1042300000800C48036823B910BD0A48036833B9ED
:104240007047094B002BF7D0BDE810401847064BCC
:10425000002BF5D0184700BF0000000018620300D3
:10426000C4320020BC32002000000000154B002B9F
:1042700008BF134B9D46A3F5803A00218B460F469D
:104280001348144A121A10F047FE0F4B002B00D0AF
:1042900098470E4B002B00D09847002000210400C7
:1042A0000D000D48002802D00C48AFF3008010F03C
:1042B000E5FD2000290000F07FF810F0CBFD00BFE5
:1042C0000000080002E003200000000000000000E1
:1042D000C03200208C6B00200000000000000000B5
:1042E00010B50278123A0346042A5FD8DFE802F0DC
:1042F0004148510303000079022803F1050126D04B
:1043000004282DD1B3F81340B3F80920944225D1E5
:10431000D3F80F40D3F8052094421FD1D3F81520CD
:10432000D3F80B309A422CBF00230123C3B1204B9A
:104330001A6807F02DFD18B11E4A7B2100F044FADF
:104340004FF0A0434FF4F032C3F8082510BDDC7BDA
:104350005A79944202D11A7C9B79E3E70023E5E77E
:1043600007F062FD10B3134A8121BDE8104000F050
:104370002BBA4FF420424FF0A043C3F80C2510BDD8
:104380004FF0A0434FF4F032C3F808254FF4C04279
:10439000F3E74FF0A0424FF4F031C2F8081500796E
:1043A00007F0A4FD10B1034A8D21DEE710BD00BF68
:1043B000F46A0020DD5103004FF0A04303222DE9F1
:1043C000F341C3F83427C3F83827C3F83C27C3F8B0
:1043D00040274FF40052C3F808254FF48042C3F839
:1043E00008254FF40042C3F80825A44C4FF480324E
:1043F000C3F808250421A24A4CF287000AF078FF8E
:1044000023685A0418D59F4B1B68032B14D92F21FE
:104410009D4810F055FE002800F0F1802F219A48A9
:1044200010F04EFE411C994B994AD3F80435009286
:104430000420A2220AF076FF964E974D974F2B68E4
:1044400031685B1A3B602B68954923F47F6323F046
:104450000F0303F580530B60236813F4804FB046BD
:104460000E461BD0874B1B68052B17D92F2186487A
:1044700010F026FE002800F0CB802F21824810F09B
:104480001FFE411C814BD3F80435D8F8002001925F
:10449000844A00920620AB220AF044FF23685B04A2
:1044A0001AD5784B1B68052B16D92F21764810F0AA
:1044B00007FE002800F0B5802F21734810F000FEA1
:1044C000411C724BD3F804352A680192764A009257
:1044D0000620AC220AF026FF236858041AD5694B3F
:1044E0001B68052B16D92F21674810F0E9FD00281D
:1044F00000F0A0802F21644810F0E2FD411C634BC6
:104500003A68D3F804350192684A00920620AD2239
:104510000AF008FF236859041AD55A4B1B68052B6B
:1045200016D92F21584810F0CBFD002800F08B80C1
:104530002F21554810F0C4FD411C544B3268D3F86C
:10454000043501925A4A00920620AE220AF0EAFE91
:1045500000F08EFA002004F06FFA18B14A4AB32135
:1045600000F032F95348544B03600023436009F0D4
:10457000A4F823685A0417D5424B1B68032B13D9A0
:104580002F21414810F09CFD002865D02F213E4886
:1045900010F096FD411C3D4B484AD3F8043500927B
:1045A0000420BA220AF0BEFE04F061FA18B1364ABD
:1045B000BB2100F009F923685B0417D5314B1B6858
:1045C000032B13D92F21304810F07AFD00284CD04E
:1045D0002F212D4810F074FD411C2C4B384AD3F884
:1045E000043500920420BE220AF09CFE4FF0A04346
:1045F0004FF40052C3F80C2508F078FFFCE75C216B
:10460000214810F05DFD08B15C2108E71E490AE76A
:104610005C211D4810F054FD08B15C212EE71A49B9
:1046200030E75C21184810F04BFD08B15C2144E7ED
:10463000154946E75C21144810F042FD08B15C21A1
:1046400059E711495BE75C210F4810F039FD08B1CB
:104650005C216EE70C4970E75C210B4810F030FDDF
:1046600008B15C2193E7084995E75C21064810F002
:1046700027FD08B15C21ACE70349AEE740320020DA
:10468000C5F202003C320020DD51030000B00040C2
:1046900040510300B8310020BC310020F86A0020EE
:1046A000F46A00206851030077510300865103002B
:1046B00095510300DC320020E1420200A5510300C5
:1046C000C351030048DF704710DF704760DF704759
:1046D00061DF70474FF0A0434FF4F032C3F8082574
:1046E000C3F80C25EFF3108372B60028FDD1704794
:1046F00013B5144B1B685B04044613D52F211248D5
:1047000010F0DEFCA0B12F210F4810F0D9FC411CA5
:104710000E4B0F4AD3F80435009201944E2200202C
:104720000AF000FE204602B0BDE81040FFF7D2BFFD
:104730005C21054810F0C4FC08B15C21E4E70249A3
:10474000E6E700BF403200202352030000B00040E3
:104750003E5203007FB5174B1B685B0405460C46B1
:10476000164618D5144B1B68ABB12F21134810F017
:10477000A7FCB0B12F21114810F0A2FC411C104B36
:10478000104AD3F8043500920396029401957022E2
:1047900001200AF0C7FD204604B0BDE87040FFF7D5
:1047A00099BF5C21054810F08BFC08B15C21E2E761
:1047B0000249E4E7403200203C320020235203004B
:1047C00000B00040035303007FB5174B1B685B0428
:1047D00006460D46144618D5144B1B68ABB12F2165
:1047E000134810F06DFCB0B12F21114810F068FC97
:1047F000411C104B104AD3F80435009203960295E1
:104800000194482201200AF08DFD012004B0BDE88A
:104810007040FFF75FBF5C21054810F051FC08B104
:104820005C21E2E70249E4E7403200203C3200200C
:104830002352030000B000400652030007B5134B9B
:104840001B685B0412D52F21114810F039FC98B178
:104850002F210F4810F034FC411C0E4B0E4AD3F8A8
:1048600004350092002054220AF05CFD012003B0C0
:104870005DF804EBFFF72EBF5C21054810F020FC2B
:1048800008B15C21E5E70249E7E700BF40320020BC
:104890002352030000B00040F851030073B501A893
:1048A000FFF710FF60B102AD572325F8063D094E12
:1048B0001C4629460748FFF70BFF28B102B070BD20
:1048C000019808F0F5FEEAE7304608F0EFFEADF893
:1048D0000240EEE7E432002030B5404C2368590432
:1048E00085B017D53E4B1B68032B13D92F213D48AC
:1048F00010F0E6FB002855D02F213A4810F0E0FBDD
:10490000411C394B394AD3F80435009204207A22ED
:104910000AF008FD364B0293029B039323685A0466
:1049200019D52F4B1B68032B15D92F212D4810F0BB
:10493000C7FB00283FD02F212A4810F0C1FB411CA3
:10494000294BD3F80435029A01922A4A0092042096
:1049500083220AF0E7FC03A8FFF7B8FE029B039A44
:104960009A4205461BD023685B0418D51C4B1B6874
:10497000012B14D92F211B4810F0A2FB20B32F21AB
:10498000184810F09DFB411C174B039AD3F80435CF
:104990000192194A009202208C220AF0C3FC284698
:1049A00005B030BD5C210F4810F08AFB08B15C21D6
:1049B000A3E70C49A5E75C210A4810F081FB08B188
:1049C0005C21B9E70749BBE75C21064810F078FB9A
:1049D00008B15C21D4E70349D6E700BF403200208C
:1049E0003C3200202352030000B000409E520300DE
:1049F000B8310020BA520300CA52030007B502AB17
:104A0000174943F8040D1846FFF75EFE18B1154A22
:104A10009321FFF7D9FE144A92F81633C3F34113DA
:104A2000012B15D9114B996871B11A6842F48002B3
:104A30001A60FFF751FF18B10A4A9721FFF7C4FE29
:104A4000002003B05DF804FB4FF480031360F0E72F
:104A5000044A942142F20200FFF7B6FEE9E700BFE4
:104A6000554702002352030000E100E0FC6A0020E9
:104A700010B54B4C2368590486B017D5494B1B68B9
:104A8000032B13D92F21484810F01AFB00286CD0B3
:104A90002F21454810F014FB411C444B444AD3F8E5
:104AA000043500920420B5220AF03CFC01238DF865
:104AB000083000238DF809308DF80A3007238DF86F
:104AC0000B300298FFF79AFF23685A0417D5354B2D
:104AD0001B68032B13D92F21334810F0F1FA00285B
:104AE0004CD02F21304810F0EBFA411C2F4B314AAB
:104AF000D3F8043500920420BF220AF013FC0023EF
:104B00000393059301238DF80C3007238DF80F30A4
:104B100003A8294B049308F057FC18B1224AC4217A
:104B2000FFF752FE23685B0416D51E4B1B68032B50
:104B300012D92F211C4810F0C3FA40B32F211A4874
:104B400010F0BEFA411C194B1C4AD3F804350092F0
:104B50000420C6220AF0E6FB08F08EFC18B1124AC7
:104B6000C721FFF731FE06B010BD5C210E4810F0E2
:104B7000A7FA08B15C218CE70B498EE75C210A4853
:104B800010F09EFA08B15C21ACE70749AEE75C2162
:104B9000054810F095FA08B15C21D0E70249D2E748
:104BA000403200203C3200202352030000B000407D
:104BB0005752030070520300F1460200895203006D
:104BC00038B5837803F003020446032A22D8DFE8CD
:104BD00002F00214191D9B08174A18481268134462
:104BE0000268A36000210AB395685D1B002D1ADAE4
:104BF000F1B91146E160046038BD9B0803EB830303
:104C00005B00E9E79A0864235343E5E79A0841F219
:104C10007073F9E778460A4B1B6813B19847002375
:104C2000DAE700DED8E71146D268DCE70029E1D0F8
:104C3000CC60E26038BD00BF543300205C330020FC
:104C40000C6B002008B5032809D8DFE800F011023A
:104C50000406084808BD084808BD084808BD78464D
:104C6000074B1B6813B19847002008BD00DEFBE727
:104C7000044808BD40420F00809698000046C323B8
:104C80000C6B0020A08601002DE9F041574D2B78D8
:104C9000A3B1574B574E5C6808F062FF241A307876
:104CA000FFF7D0FF3278544B001B002A40D14CF262
:104CB000503290423CD91A6801321A60DFF84881BC
:104CC000D8F80020002A00F087804A4E9378307888
:104CD00003F003038342344664DD474B97681B6847
:104CE000FB1A464F5F43FFF7ADFFD8F80030B7FB24
:104CF000F0F09F78C7F30107FBB2022B1FD031D829
:104D0000012B47D10A22B0FBF2F302FB130000286B
:104D100040D108F025FF00F5742101F510713770BE
:104D20002B78002B50D03248BDE8F04108F08EBE01
:104D30001A683249B0FBF1F010441860BEE73378CE
:104D400063B96422B0FBF2F302FB130010BB08F05E
:104D500007FF2B49022301442370E1E7012B19D1FE
:104D60000A22EFE7337863B941F27072B0FBF2F3D5
:104D700002FB130070B908F0F3FE2249032301443B
:104D8000EAE7012B02D14FF41672EFE7022B01D1B3
:104D90003C22EBE708F0E4FE06462078FFF752FFDE
:104DA0003118BDE708F0DCFED8F8003004469878EA
:104DB00000F00300FFF746FFD8F800309B78C3F3FC
:104DC000010321183370ABE7094801232B704160C0
:104DD000BDE8F04108F0E0BD2B7823B10448BDE800
:104DE000F04108F001BEBDE8F08100BF583300205B
:104DF0003C3300205933002054330020A0860100AA
:104E0000809698000046C3235C330020F8B50F4617
:104E10001646044620B97846154B1B68FBB19847E7
:104E2000144D09F0D9FA2B6800220BB1A34218D116
:104E3000A17867F3010166F38701A170ABB1DB686C
:104E400092B92B602EB12046FFF7BAFE2B689C4228
:104E500001D1FFF719FFBDE8F84009F0DFBA00DE25
:104E6000DEE71A46DB68E0E7D360002EF3D0EAE71E
:104E70000C6B00205C33002070B50E4615460446CE
:104E800020B97846074B1B684BB19847A378C3F30A
:104E900001033370A378C3F385032B7070BD00DE6C
:104EA000F4E700BF0C6B00204A09012301F01F0149
:104EB00003FA01F150F82230194214BF01200020FA
:104EC0007047000001289FBF054B342202FB0030D1
:104ED00090F8300094BF00F001000020704700BF40
:104EE000903300200047000008B5064B0648012219
:104EF0001A700AF0D9FD20B10448BDE808400AF054
:104F0000B7BF08BD8C33002068330020C0310020BB
:104F10002DE9F04109F060FA484B1B78A3BB484CDF
:104F200023786BB90622012146480AF005FE58B3E2
:104F300002220125C580028182800AF039FE257097
:104F40000024414DDFF8FC802646A1B2E6B915F8F1
:104F5000343003F00303032B4FEAC40710D10422BB
:104F600041F4405140460AF0E7FD88B1EB195B6817
:104F7000DB4343600AF01CFE7B5D23F002037B559C
:104F80000134022CE1D12EB130480AF071FF50E01B
:104F90001126F5E72E4D6B799B070FD522464FF46E
:104FA000805128480AF0C8FD0028EDD02A88828068
:104FB0000AF0FEFD6B7923F002036B71254C94F827
:104FC000303003F00303032B16D114224FF40051A9
:104FD0001C480AF0B1FD05460028D5D01422214610
:104FE00004300FF08EFF28460AF0E2FD94F83030CE
:104FF00023F0020384F8303094F8643003F00303A4
:10500000032B16D1142242F201010E480AF094FD3E
:1050100005460028B8D014220F4904300FF071FF64
:1050200028460AF0C5FD94F8643023F0020384F8A2
:105030006430BDE8F04109F0F1B900BF8C330020C5
:105040008D33002068330020F8330020D031002059
:105050006033002090330020C433002010B50F4C83
:105060006822002120460FF057FF062200210C483D
:105070000FF052FF102200210A480FF04DFF4FF6AB
:10508000FF730222E380A380E281A38163872387E9
:10509000A4F84220A4F8403010BD00BF9033002097
:1050A00060330020F833002008B5FFF7D7FF00F089
:1050B000ABFABDE80840FFF717BF000010B5044683
:1050C000FFF700FF88B1172911D80A48342303FBE2
:1050D0000400C3888B4206D090F83030C18043F082
:1050E000020380F83030002010BD052010BD0720DD
:1050F00010BD00BF9033002010B5044651B1FFF73A
:10510000E1FE48B1054B342202FB04340020E38861
:105110000B8010BD0E2010BD052010BD9033002067
:10512000012870B52AD8184C342505FB004595F8A0
:105130003030DB0722D5AB6913B33F2A22D80329CD
:1051400020D86D7CB2EB950F03D105F003058D429D
:1051500012D034234343E5181433687C62F387008C
:1051600061F301006874E018FFF750FE95F83030E5
:1051700043F0020385F83030002070BD052070BD7B
:10518000062070BD072070BD9033002038B505465D
:10519000144681B17AB1FFF795FE70B10948342306
:1051A0006B43C218926952B1143318442246FFF778
:1051B00063FE002038BD0E2038BD052038BD062016
:1051C00038BD00BF90330020F8B504460F46FFF706
:1051D00079FEE0B1124B342202FB0434E689022E40
:1051E00017D0172917D80F4CF50004356019FFF7B1
:1051F0005BFE90B9012303FA07F163590B43635136
:1052000014F8363043F0020304F83630F8BD0520B8
:10521000F8BD0620F8BD0720F8BD0020F8BD00BF8E
:1052200090330020F8330020F8B504460F46FFF70E
:1052300049FEF0B1124B342202FB0434E689022EFF
:1052400019D0172919D80F4CF50004356019FFF74C
:105250002BFE98B1012303FA07F1635923EA0103F6
:10526000635114F8363043F0020304F8363000205E
:10527000F8BD0520F8BD0620F8BD0720F8BD00BF29
:1052800090330020F83300202DE9F84304461546FA
:105290000F4649B342B3FFF715FE40B31848342315
:1052A00003FB0400C389022B24D00024DFF85490B0
:1052B000B5F800802C800646F08901280ED809EB4D
:1052C000C00021460430FFF7EFFD38B12B88984528
:1052D00013D927F813402B8801332B800134182C65
:1052E000EAD10020BDE8F8830E20BDE8F883052050
:1052F000BDE8F8830620BDE8F8830920BDE8F883FF
:1053000090330020F8330020F8B506460F46FFF72B
:10531000D9FDC0B1082918D834250E4C754305F1C4
:105320000806A019FFF7C0FD88B9012303FA07F1A9
:10533000A3590B43A3512C4494F8303043F002039B
:1053400084F83030F8BD0520F8BD0720F8BD0020F6
:10535000F8BD00BF90330020F8B506460F46FFF7B2
:10536000B1FDD0B108291AD834250E4C754305F18A
:105370000806A019FFF798FD90B1012303FA07F181
:10538000A35923EA0103A3512C44002094F83030A0
:1053900043F0020384F83030F8BD0520F8BD072043
:1053A000F8BD00BF903300202DE9F04106461546B8
:1053B0000F46F9B1F2B1FFF785FDF0B1124BB5F828
:1053C00000803422002402FB06362C800836214659
:1053D0003046FFF769FD38B12B88984510D927F87A
:1053E00013402B8801332B800134082CEFD100208F
:1053F000BDE8F0810E20BDE8F0810520BDE8F08118
:105400000920BDE8F08100BF9033002010B50446AC
:10541000FFF758FD88B1082911D80A48342303FB47
:10542000040083888B4206D090F83030818043F0AE
:10543000020380F83030002010BD052010BD072089
:1054400010BD00BF9033002010B5044651B1FFF7E6
:1054500039FD48B1054B342202FB04340020A388F7
:105460000B8010BD0E2010BD052010BD9033002014
:1054700010B50446FFF726FD98B181F080037E2B1E
:1054800011D90A48342303FB0400037C8B4206D065
:1054900090F83030017443F0020380F8303000207F
:1054A00010BD052010BD072010BD00BF90330020A7
:1054B00010B5044651B1FFF705FD48B1054B342244
:1054C00002FB04340020237C0B7010BD0E2010BDA5
:1054D000052010BD9033002048B9064B1A888A4237
:1054E00006D05A79198042F002025A71704705209D
:1054F000704700BF6033002021B128B9034B1B88DF
:105500000B8070470E2070470520704760330020E5
:1055100021B128B9034B9B780B7070470E20704760
:10552000052070476033002021B128B9034BDB7898
:105530000B7070470E2070470520704760330020C5
:1055400010B5044661B1FFF7BDFC58B1342060438B
:10555000054B1A181B5A0B8053884B80002010BD36
:105560000E2010BD052010BD9033002073B50191B1
:1055700012B310B1052002B070BD4FF6FF730F4992
:1055800013808B89BDF80450BDF8064008462BB93E
:105590000E88AE4202D14988A1420AD0B0F840300C
:1055A000002BE7D1838EAB42E4D1C38EA342E1D17D
:1055B000012313800020DEE70E20DCE7903300207B
:1055C00070B5C9B1C2B1C8B90E4B15881080148826
:1055D000A54215D993F83060F60706D59E8926B9FD
:1055E00021F814001488013414800130022803F1DA
:1055F0003403ECD1002070BD0E2070BD052070BDBD
:10560000092070BD9033002008B508F0E5FE094878
:10561000B0F8683023B10023A0F8683008F0E4F94E
:105620005022002104480FF077FCBDE8084008F044
:10563000F5BE00BF08340020203400204A090123B1
:1056400001F01F0103FA01F150F82230194214BF92
:105650000120002070474A09012301F01F0103FACD
:1056600001F150F822300B4340F8223070474A09CC
:10567000012301F01F0103FA01F150F8223023EA5F
:10568000010340F822307047A0F1100189B20729C8
:1056900002D80248FFF7D2BF0020704784340020B0
:1056A0002DE9F0474FF6FF73DFF84480DFF84490B0
:1056B0000B8007460D4600241E464FF05C0A21462B
:1056C0004046FFF7BBFF40B10AFB04F333F8093053
:1056D000BB4206D12C80BDE8F0872B88B34208BFBF
:1056E0002C800134042CEAD10020BDE8F08700BFF3
:1056F000E0350020E835002038B54FF6FF73054649
:105700000C460B8006480021FFF798FF18B1054BA7
:105710001B88AB4202D10823238038BD002038BD4E
:10572000843500208C3500202DE9F0474FF6FF73BB
:10573000DFF84480DFF844900B8007460D460024D4
:105740001E464FF0160A21464046FFF777FF40B14C
:105750000AFB04F333F80930BB4206D12C80BDE8C4
:10576000F0872B88B34208BF2C800134082CEAD183
:105770000020BDE8F08700BFCC340020D4340020E6
:10578000024B33F820300B80704700BF8C34002070
:1057900010B5044620B97846044B1B6823B19847DE
:1057A0002346BDE81040184700DEF9E70C6B0020E7
:1057B0002DE9F041A3F1080516240E4E6C4307466F
:1057C000A01D88463044114610220FF09AFB331971
:1057D00000225A7101222946A3F8028006481A7154
:1057E0003753FFF738FF29460448BDE8F041FFF77B
:1057F00032BF00BF8C350020843500208835002062
:1058000010B40C4600F108030A1D208849885DF891
:10581000044B9BB2FFF7CCBF70B516244443074E30
:105820000D46A11D10223144281D0FF06AFB325B8A
:105830002A8033195B886B8070BD00BF8C350020D7
:1058400070B516244443074E0D46A11D1022314465
:10585000281D0FF056FB325B2A8033195B886B8062
:1058600070BD00BFD434002070B55C244443054EA5
:105870000D46A11C10223144A81C0FF042FB335BE3
:105880002B8070BDE8350020044A0B46142101FB33
:1058900000210431102218460FF033BB5837002086
:1058A000042201480FF02DBBDA35002008460422FF
:1058B00001490FF026BB00BFDA3500202DE9F8437F
:1058C00016255D43144C91468046A81D0F461022B4
:1058D000494620441E460FF014FB691D21444846EA
:1058E00009F086FC20B178460C4B1B6893B19847B1
:1058F00016237343E218002111715780314608487E
:1059000024F80380FFF7A7FE31460648BDE8F843B8
:10591000FFF7A1BE00DEEBE7D43400200C6B0020C3
:10592000CC340020D034002010B40C4683B20A1DC1
:10593000208849885DF8044BFFF7C0BF2DE9F0418E
:105940001E4D5C245443164604F134032A192B449B
:1059500088461364074610B9194B01221A7004F1E6
:1059600012012944404609F04CFC20B17846154B01
:105970001B68FBB1984704F144012944404609F0F3
:1059800051FC20B178460F4B1B68ABB19847A01C67
:105990004146102228440FF0B4FA5C237343314689
:1059A0000948EF52FFF757FE31460848BDE8F0417D
:1059B000FFF751BE00DEDEE700DEE8E7E835002055
:1059C000D83500200C6B0020E0350020E4350020A5
:1059D0000B4682B202311888FFF7B0BFF8B5A1F1CB
:1059E000100514246C430F4F0646201D314610222B
:1059F00038440FF086FA3919304609F03BFC20B1E3
:105A00007846094B1B6853B1984729460748FFF76A
:105A100022FE29460648BDE8F840FFF71CBE00DE1E
:105A2000F3E700BF583700200C6B002084340020BF
:105A3000883400200B4600F1100189B21846FFF7A8
:105A4000CDBF00002DE9F84304460F4608F0C4FC22
:105A5000052C04D97846174B1B68FBB19847164BA9
:105A6000164D1E786401DEB105EB04091448B9F83F
:105A70001210D9F81420394489B20AF05DF8804632
:105A800070B1011DD9F818303846984740460AF0E1
:105A90008FF808F0C3FC3046BDE8F88300DEDEE78F
:105AA0002C443946A068FFF7D6FD06480AF0E0F915
:105AB0000026EEE70C6B0020A235002020530300E7
:105AC000A4350020C8350020F8B504460F4608F07C
:105AD00083FC052C04D97846104B1B6893B198477A
:105AE0000F4B104D1E78640176B92C443946A068DE
:105AF000FFF7B1FD0C480AF0BBF9002608F08EFC58
:105B00003046F8BD00DEEBE72B190848598A3944C6
:105B100089B20AF057F80028F0D0E6E70C6B0020B5
:105B2000A235002020530300C8350020A4350020F2
:105B300008B5064B064800221A7009F0B5FF20B1DF
:105B40000448BDE808400AF093B908BDA23500201A
:105B5000A4350020E03100202DE9F0474FF6FF7317
:105B6000DFF84C80DFF84C900B8007460D46002490
:105B70004FF0140A21464046FFF760FD064650B933
:105B80002A884FF6FF739A4200D12C800134082CEA
:105B9000F0D1002609E00AFB0490102239460430B7
:105BA0000FF0A0F90028F1D12C803046BDE8F08735
:105BB00084340020583700202DE9F3414FF6FF7759
:105BC0000E461446ADF80670804640B339B30DF169
:105BD0000601FFF7C1FFBDF8063003F11005ADB2B5
:105BE00050B9BB421DD029464046FFF7F7FEBDF82D
:105BF00006100220FFF726FFBDF806300A4A35805E
:105C0000142101FB032334B9DA780132DA70002061
:105C100002B0BDE8F0819A7801329A70F7E70E2061
:105C2000F6E70420F4E700BF5837002008B548B96C
:105C300078460B4B1B681BB198474FF6FF7008BDA9
:105C400000DEFAE7074B9842F7D303F58A729042D9
:105C5000F3D8C01A5C23B0FBF3F080B208BD00BFDC
:105C60000C6B0020FA35002008B548B978460D4B7A
:105C70001B681BB198474FF6FF7008BD00DEFAE7BE
:105C8000094B984209D303F19A02904205D8C01AF1
:105C90001623B0FBF3F080B208BD044B9842EAD162
:105CA000082008BD0C6B0020D8340020903500205F
:105CB0002DE9F74F80460F46914607F07BFB0228FF
:105CC000064650D14FF6FF744D4B4E4A0025A24672
:105CD0004FF0140B54450ED1104629460193009203
:105CE000FFF7ACFC9DE80C0028B9ACB20135082DDB
:105CF000F0D1002306E00BFB05F1C95A4145F5D16F
:105D0000ACB20123B9F1000F52D0B9F1010F03D1A8
:105D100006F0FD06012E4BD1002B4ED14FF6FF723F
:105D200094426AD0384A394822F8248002EB84022F
:105D30002146D3709370FFF78EFC21463448FFF75D
:105D40008AFC21460120FFF77DFE3C80B9F1000F5F
:105D500034D12D4B03EB8404E3780133E37000204E
:105D600003B0BDE8F08F00F0FD03012B4FF6FF7488
:105D7000BFD1DFF894B0254B0025A24654450CD185
:105D8000184629460093FFF759FC009B28B9ACB28E
:105D90000135102DF2D1002305E03BF825204245C6
:105DA000F6D1ACB20123B9F1000FB5D1032E01D069
:105DB0001020D5E7EBB13C80CBE73C80124B03EBE6
:105DC0008404A3780133A370C9E70F4A0F4822F86F
:105DD000248002EB84022146D3709370FFF73BFCD2
:105DE00021460B48FFF737FC21460120FFF72AFE2A
:105DF000E1E74FF6FF729442E7D10420B0E700BF1D
:105E000058370020843400208C3400207434002063
:105E1000783400200F2810B5044608D801460648FB
:105E2000FFF70CFC18B1012000F0010010BD204666
:105E3000FFF72AFCF8E700BF743400200F28014662
:105E400002D80248FFF7FABB0020704774340020E4
:105E5000F8B50446FFF7F2FF064690B1164E06EB82
:105E60008403987858B9DD7815BB21461348FFF7AD
:105E7000FEFB26F8245021460120FFF725FE0020D6
:105E8000F8BD2046FFF700FC98B1103C0C4F1425DC
:105E900065437B19987850B9DE784EB92146094898
:105EA000FFF7E5FB7E5321460220FFF70DFE30464B
:105EB000F8BD0520F8BD00BF8C34002074340020EC
:105EC000583700208434002010B50A4B0A8884B269
:105ED000214623F8242003EB840300220648DA70CD
:105EE0009A70FFF7B8FB21460448BDE81040FFF761
:105EF000B2BB00BF8C340020743400207834002002
:105F0000F8B5174F0025EC591F347E196409A40019
:105F10002246002170680EF0FFFF20352246002146
:105F2000B0680EF0F9FFC02DEDD100230D481946E1
:105F3000C2180433402BD1709170F9D100220A4865
:105F4000134681181432A02ACB708B70F9D1074AFE
:105F500013805380064A1370BDE8F840FFF7E8BD90
:105F6000205303008C34002058370020DA350020FD
:105F7000D835002070B5054620B97846174B1B6808
:105F800063B19847164E346814F0010424D1288870
:105F90006B880344984203DB0B2070BD00DEF1E701
:105FA00007F008FA0128F7D128886B8818440138CF
:105FB00080B207F0FFF90128EED1042229460948F2
:105FC0000EF09FFF336843F0010333602146204603
:105FD000FFF738FD204670BD0F2070BD0C6B002010
:105FE0007C340020DA35002010B5044620B978460C
:105FF000064B1B683BB19847204604220449BDE884
:1060000010400EF07EBF00DEF6E700BF0C6B0020F4
:10601000DA35002011B10122FFF74ABE0E20704789
:106020000122FFF7C9BD000010B50446FFF706FFC7
:1060300050B10C4B03EB84039A78013A9A702046D6
:10604000BDE81040FFF704BF2046FFF71DFB30B14D
:10605000054AA4F11003142101FB0323ECE70520FA
:1060600010BD00BF8C3400205837002011B1002231
:10607000FFF71EBE0E2070470022FFF79DBD0000F7
:1060800010B50446FFF7C6FE70B10F2C89BF074B51
:10609000074B103C14228CBF02FB043403EB840436
:1060A000E078003018BF012010BD00BF5837002035
:1060B0008C34002070B506460D4601B3FFF7BEFED6
:1060C000044658B1104B33F826206A8033F8260076
:1060D00007F070F928700020686070BD3046FFF747
:1060E000D3FA70B1103E1420084B70431A5A6A80DC
:1060F00004301844022368602B70204670BD0E20C7
:1061000070BD052070BD00BF8C34002058370020C2
:1061100013B50446FFF77EFE08B369462046FFF735
:10612000C9FFC0B99DF80030032B0BD10D4B03EB19
:106130008403DA789AB1013ADA702046FFF788FED4
:1061400002B010BD022B08D1074AA4F1100314219C
:1061500001FB0323EDE70020F2E70F20F0E7052025
:10616000EEE700BF8C340020583700202DE9F041C5
:106170000E46074660B359B30025DFF85C802C4615
:1061800029464046FFF75AFA40B13368A34202D18C
:106190000920BDE8F08127F8145001340135102D95
:1061A000EED1DFF83880002529464046FFF746FA51
:1061B00038B13368A342EBD005F1100327F814304F
:1061C00001340135082DEFD134600020BDE8F081A5
:1061D0000E20BDE8F08100BF74340020843400201C
:1061E0002DE9F7430D46044600283CD000293AD05B
:1061F000408807F0DFF8022824D0032801D00128C6
:1062000033D14FF6FF73DFF86880DFF86890678856
:106210002B8000241E4621464046FFF70FFA40B16E
:1062200039F82430BB4208D12C80002003B0BDE8EF
:10623000F0832B88B34208BF2C800134102CEAD1A4
:106240000520F3E760684FF6FF73ADF8063050B1F4
:106250000DF10601FFF780FC0028F1D0BDF80630F3
:1062600010332B80E1E70E20E0E71020DEE700BFCF
:10627000743400208C34002008B1FFF7D7BC4FF6EF
:10628000FF70704708B1FFF7EFBC4FF6FF70704723
:10629000F7B5064615460F46F1B1EAB1B0F5805F95
:1062A0001CD20DF10601FFF7FBF90446C0B9BDF899
:1062B00006204FF6FF739A4214D039463046FFF756
:1062C0003DFBBDF806100320FFF7BCFBBDF8063010
:1062D0002B80204603B0F0BD0E20FBE70720F9E736
:1062E0000F20F7E70420F5E738B504460D46A1B1C5
:1062F000032814D801460B48FFF7A0F978B15C23B6
:10630000634309482246C05A2946FFF717FB214636
:106310000320FFF797FB002038BD0E2038BD052075
:1063200038BD00BFE0350020E83500202DE9F047FA
:106330000D46064600B3F9B10024DFF84880DFF8C7
:1063400048900F680C604FF05C0A21464046FFF70A
:1063500075F958B12B689F4211D00AFB04F232F84C
:10636000092026F813202B6801332B600134042CFC
:10637000EBD10020BDE8F0870E20BDE8F0870920B2
:10638000BDE8F087E0350020E83500202DE9F34135
:1063900007460D461E46904652B34BB307F00AF827
:1063A000012827D1032D27D829461648FFF746F99B
:1063B00010B30DF106013846FFF79EF90446E8B91F
:1063C000BDF806304FF6FF72934219D04246294677
:1063D0003846FFF7EDF9BDF8061005200839FFF73C
:1063E00031FBBDF806303380204602B0BDE8F081B5
:1063F0000E20FAE71020F8E70520F6E70F20F4E773
:106400000420F2E7E0350020082810B511D1002162
:106410000948FFF713F960B1084B074800241C80B6
:106420002146FFF724F921460520FFF74DFB2046C2
:1064300010BD052010BD00BF843500208C35002024
:106440002DE9F34105460F461E4690463AB333B355
:10645000032926D81748FFF7F1F810B3B5F5805F88
:1064600021D20DF106012846FFF75EF90446E0B996
:10647000BDF806304FF6FF72934218D042463946B7
:106480002846FFF71BFABDF806100420FFF7DAFADA
:10649000BDF806303380204602B0BDE8F0810E2002
:1064A000FAE70520F8E70720F6E70F20F4E70420D5
:1064B000F2E700BFE035002070B504460E46B1B1EA
:1064C000072816D801460C48FFF7B8F888B10B4DDD
:1064D00016206043291823463246285A4988FFF778
:1064E000EDF921460420FFF7ADFA002070BD0E2023
:1064F00070BD052070BD00BFCC340020D434002016
:10650000072810B504460ED801460848FFF796F84C
:1065100048B121460548FFF7AAF821460420FFF7B5
:10652000D3FA002010BD052010BD00BFCC340020E0
:1065300003282DE9F04105463FD801462048FFF7E2
:106540007DF8002839D01F4E1F4FDFF884800024CB
:1065500021463046FFF772F870B1162303FB04732F
:106560005B88AB4208D1A0B2FFF7CAFF20B17846E2
:10657000D8F80030EBB198470134082CE8D1134B20
:106580001A885AB15B88AB4208D12046FFF73CFF1E
:1065900020B178460E4B1B686BB1984729460848D6
:1065A000FFF765F829460320FFF78EFA0020BDE8C3
:1065B000F08100DEE0E700DEF0E70520BDE8F081D5
:1065C000E0350020CC340020D43400208C3500206D
:1065D0000C6B00202DE9F84F064615460F4669B3AF
:1065E00062B303282DD801461948FFF727F840B3B6
:1065F0000024DFF860A0DFF86080D5F800902C6000
:106600004FF0160B21465046FFF718F880B10BFBF0
:1066100004F208EB02035B88B34209D12B68994569
:1066200012D032F8082027F813202B6801332B6092
:106630000134082CE6D10020BDE8F88F0E20BDE81B
:10664000F88F0520BDE8F88F0920BDE8F88F00BF5E
:10665000E0350020CC340020D4340020082870B568
:1066600005460E465DD8002959D0082831D001468C
:106670002D48FEF7E3FF002853D02C4C162303FBD4
:1066800005435B88032B04D97846294B1B68E3B18B
:106690009847162303FB054326485988FEF7CEFF8B
:1066A00020B97846224B1B688BB1984716235D436F
:1066B0002B1D23442C44736063881F4A5C2101FB1B
:1066C000032312333360002070BD00DEE1E700DEFB
:1066D000ECE700211948FEF7B1FF10B3184C6388AE
:1066E000032B04D97846124B1B68A3B198476188E5
:1066F0001048FEF7A3FF20B978460D4B1B6863B125
:10670000984763880C4A5C2101FB032312333360F2
:106710000C4B7360D7E700DEE9E700DEF1E70E20FF
:1067200070BD052070BD00BFCC340020D4340020E3
:106730000C6B0020E0350020E83500208435002077
:106740008C350020903500202DE9F84380460E4618
:1067500021B97846164B1B688BB19847306880B1D9
:10676000FFF764FA441C134FDFF84C905C2505FBDF
:106770000475032C07D900233360BDE8F88300DEDD
:10678000ECE70446EFE721464846FEF757FF58B1CD
:10679000AB7C88EA03035B0606D15C2000FB047433
:1067A00012343460BDE8F88301345C35E1E700BFA2
:1067B0000C6B0020E8350020E03500202DE9F04783
:1067C00004468846164622B97846204B1B6893B18A
:1067D000984724B978461D4B1B6873B198472046EB
:1067E000FFF724FA4FF6FF739842074607D10023BC
:1067F0003360BDE8F08700DEEBE700DEEFE73068EE
:10680000F8B1FFF731FA441C1148DFF848A016250B
:1068100005FB04058146072CE9D821465046FEF7C2
:106820000DFF80B16B88BB420DD16B7988EA030301
:106830009B0608D1162000FB049404343460BDE8A4
:10684000F0870446E0E701341635E4E70C6B0020DE
:10685000D4340020CC34002038B504460D4621B98C
:106860007846084B1B6853B1984734B1064B33F850
:10687000042BA2420CBF1C4600242C6038BD00DE55
:10688000F3E700BF0C6B00208C3500202DE9F047AA
:1068900007460D4621B97846274B1B68FBB1984740
:1068A0002C68264E6CB106F13C039C4219D306F5C8
:1068B000A872944215D8E41A5C23B4FBF3F4A4B292
:1068C00001344FF05C0808FB0468DFF878A008F199
:1068D0005408032C08D900232B60BDE8F08700DEA4
:1068E000DEE74FF6FF74EBE721465046FEF7A6FEC3
:1068F0008146A0B167B9124B1B78A3B95C235C43F6
:1069000033193C34344483F83C902C60BDE8F08764
:106910000822414638460EF0E5FA0028EBD0013453
:1069200008F15C08D5E75C23634336F80390B9FAB5
:1069300089F94FEA5919E1E70C6B0020E83500208E
:10694000D8350020E03500202DE9F34706460D46F6
:1069500006F030FD022839D0032812D001280ED1CC
:10696000394B1B6813F0010309D0384B1A88964243
:1069700005D35B8813449E424FF000035FDB002089
:106980005AE04FF6FF77DFF8CC80DFF8CCA0002488
:10699000B9464F4509D121465046FEF74FFE20B972
:1069A000A7B20134102CF4D1E9E738F82420B24220
:1069B0004FEA8403F5D14344DB78002BF1D0032365
:1069C0002B7000236E806B60012035E06868E8B9A9
:1069D0004FF6FF73ADF80630BDF80640DFF87C8057
:1069E0001B4F072C4FF6FF7394BF01340024ADF802
:1069F00006304FF01409082CC1D021464046FEF75E
:106A00001DFE50B9ADF806400134F4E70DF1060162
:106A1000FFF7A2F80028DBD0DEE709FB04F3DA5B1E
:106A2000B242F1D1FA18D278002AA8D00433022257
:106A30001F446E802A706F6002B0BDE8F0876E80E0
:106A400028706B60F8E700BF7C340020DA35002046
:106A5000583700208C340020743400208434002007
:106A6000002840D000293ED0204B1860204B1960F0
:106A70004FF0A0434FF48072C3F81C258022C3F866
:106A80001C250C22C3F82027C3F81C274022C3F87A
:106A90000825C3F818252022C3F81825154B06220F
:106AA000C3F80C250822C3F814250722C3F81025C3
:106AB0000522C3F8082501210F4AC3F86C1584206C
:106AC000C3F824250422C3F80025C3F804030020DA
:106AD000C3F80801C3F81C011960084BC02183F8F2
:106AE00002131A6070470E20704700BFFC37002069
:106AF000003800200020004000E0D70100E100E065
:106B000070B5124D124E134C29783368002011B124
:106B1000D4F808216AB9D4F81C31ABB10023C4F809
:106B20001C31D4F81C310C4B1B686BB1BDE87040B4
:106B30001847C4F80801D4F80821002BE7D0D4F88E
:106B40001805C0B29847DFE770BD00BFF8370020D6
:106B5000FC3700200020004000380020FFF7D0BFA5
:106B6000014B1870704700BFF837002038B50B4C48
:106B700023788BB90A4D0B48294605F0B5FD58B965
:106B80002B68094A197901232370C2F81C0193600C
:106B9000C2F81C15054A138038BD00BFE838002034
:106BA000CC390020BC3900200020004004380020EF
:106BB00070B5194C237823B97846184B1B686BB114
:106BC0009847174D296859B9164B0122DA60217090
:106BD000154BBDE87040186807F068BC00DEF0E7B0
:106BE000124A08791388461CB3420BD1013310486E
:106BF000138005F0E5FD0B4A002301212B60D160D5
:106C00002370E5E7834206DC194401331380054B0A
:106C10000979C3F81C1570BDE83800200C6B002002
:106C2000CC39002000200040083800200438002023
:106C3000BC39002008B5D0221249134805F0A4FB46
:106C400012491348D02205F09FFB12491248FFF762
:106C500007FF20B17846114B1B6883B1984701208C
:106C6000FFF77EFF0E4A0F48002313700E4A138071
:106C70000E4A138007F0F2FB0D4B186008BD00DED2
:106C8000EDE700BFEC380020BC3900200C380020B4
:106C9000DC380020B16B0200A96D02000C6B0020F3
:106CA000E83800206D6B0200EA380020043800202C
:106CB0000838002037B5421C04460D4692B201A99F
:106CC000044805F001FC18B9019B1A1D2A601C71CB
:106CD00003B030BDBC390020F8B50B4C0B4F054656
:106CE0000E4631462846FFF7E5FF04280AD1C4F8CE
:106CF0008000FFF705FF3B780BB9FFF737FF042350
:106D00002360EEE7F8BD00BF00E100E0E8380020B6
:106D100038B5044620B97846164B1B681BB3984714
:106D2000251FAB78012B04D07846124B1B68E3B1CA
:106D30009847227834F8043C9A4204D978460D4B9F
:106D40001B68A3B1984707F047FB0B4B186807F087
:106D5000ADFB34F8042C0948294605F043FCBDE896
:106D6000384007F05BBB00DEDAE700DEE1E700DE7B
:106D7000E9E700BF0C6B002008380020BC39002078
:106D800013B5044601A90320FFF794FF48B9019AFF
:106D900084235370019A9470019AD3700198FFF77D
:106DA000B7FF02B010BD00002DE9F041234D2B8844
:106DB000074643BB224E348804B9441C012C04D836
:106DC0000020BDE8F041FFF7DBBF1E4805F0C2FA26
:106DD0008442F5D8DFF870801A482246414605F013
:106DE00073FB28B134800020BDE8F041FFF7B8BE46
:106DF000338843B12B88D8F8002030801A44013CF6
:106E0000013314712B80104C2B882168CA18013370
:106E100017710A799BB2013293422B800BD153B187
:106E20000A880848002605F0DDFB266000F0BEFB5E
:106E30002E80BDE8F081BDE8F08100BFD039002090
:106E4000EA380020DC380020C839002013B5044699
:106E500001A90B4805F048FC78B90199204631F8A2
:106E6000042B0EF04EF80199054805F0A9FC01200D
:106E7000FFF776FE012002B010BD0020FBE700BF47
:106E8000DC38002070B5044615461E46084649B950
:106E900000F0A4FB33462A4601462046BDE8704078
:106EA00000F0DABB00F09AFB00231A46F4E770B456
:106EB000002304469342607803D100231A468221BE
:106EC00011E011F83360864201EBC30512D16B78F3
:106ED0002278934204DAA97801330B449A4205DD03
:106EE00000231A46842170BC00F0B6BB6B682046B4
:106EF00070BC18470133DDE710B50446FEF708F80B
:106F0000002360781A461946BDE8104000F0A4BB83
:106F100030B599B018AC5C2324F8603D0546224694
:106F20000DF102014088FEF74BFB6D78034608B176
:106F300009280AD1184600F051FB5E23224601467B
:106F4000284600F089FB19B030BD00F047FB002354
:106F50001A46F4E713B5044601AA41684088FEF7D3
:106F600005FB0223014601AA6078FFF78BFF02B000
:106F700010BD13B5044601A94088FEF7E1FA0423C9
:106F800001460DEB03026078FFF77CFF02B010BDF5
:106F900013B5044601A94088FEF7C6FA012301464D
:106FA00001AA6078FFF76EFF02B010BD13B504466A
:106FB00001A94088FEF7ACFA0123014601AA6078D6
:106FC000FFF760FF02B010BD13B5044601A9408869
:106FD000FEF792FA0223014601AA6078FFF752FFFA
:106FE00002B010BD10B5044681884088FEF774FADF
:106FF000647800F0F3FA002301461A462046BDE803
:10700000104000F029BB13B5044601A94088FEF7E3
:107010004FFA0123014601AA6078FFF733FF02B05F
:1070200010BD10B5044601794088FEF721FA647856
:1070300000F0D4FA002301461A462046BDE810406D
:1070400000F00ABB13B5044601A94088FEF7FCF91D
:107050000223014601AA6078FFF714FF02B010BDB9
:1070600010B5044681884088FEF7D0F9647800F0B6
:10707000B5FA002301461A462046BDE8104000F04C
:10708000EBBA30B599B018AC2E2324F8603D054614
:1070900022460DF102014088FEF786F96D7803461D
:1070A00008B109280AD1184600F098FA5E23224652
:1070B0000146284600F0D0FA19B030BD00F08EFA33
:1070C00000231A46F4E710B5044681884088FEF78D
:1070D00043F9647800F082FA002301461A462046FC
:1070E000BDE8104000F0B8BA10B504468188408869
:1070F000FEF70AF9647800F071FA002301461A4697
:107100002046BDE8104000F0A7BA30B599B018ACE1
:107110005C2324F8603D054622460DF102014088BB
:10712000FEF7B2F86D78034608B109280AD118466F
:1071300000F054FA5E2322460146284600F08CFAFD
:1071400019B030BD00F04AFA00231A46F4E710B532
:10715000044681884088FEF767F8647800F03EFABC
:10716000002301461A462046BDE8104000F074BADC
:1071700010B5044681884088FEF726F8647800F050
:107180002DFA002301461A462046BDE8104000F0C3
:1071900063BA13B504460DF1050201A94088FDF755
:1071A000F5FF0223014601AA6078FFF76BFE02B0EB
:1071B00010BD10B50446427901794088FDF7B0FF53
:1071C000647800F00BFA002301461A462046BDE819
:1071D000104000F041BA13B5044601A94088FDF7FC
:1071E0008BFF0223014601AA6078FFF74BFE02B035
:1071F00010BD10B5044681884088FDF75FFF6478B4
:1072000000F0ECF9002301461A462046BDE8104084
:1072100000F022BA10B54378F52B044604D978461D
:10722000064B1B683BB19847204616220449BDE82F
:107230001040FFF73CBE00DEF6E700BF0C6B0020FD
:10724000E053030010B504464078452886B012D8B4
:10725000422820D240281ED0412823D040381F2861
:1072600005D97846234B1B68002B40D09847002354
:107270001A46822139E053282ED05428EED12378A3
:10728000012B12D104F0ACFF1022014602A80DF030
:1072900038FE10231EE000231A46822100F0DCF99C
:1072A00006B010BD2378012B03D000231A46842199
:1072B000F4E7684609F078FD9DF800300622C3F334
:1072C00046030DF101010DF109008DF808300DF0B4
:1072D00018FE072302AA07E02378112BE5D1A01C92
:1072E00004F062FF00231A4600216078D6E700DE32
:1072F000BDE700BF0C6B002010B50446407878282D
:1073000011D12046002210F8021B013904F0DCFCE8
:10731000647800F063F9002301461A462046BDE870
:10732000104000F099B900231A468221F7E70000C7
:1073300038B5054D2C782CB9FFF77CFC01232B7058
:10734000204638BD082038BDD3390020034B1B78B8
:10735000022B01D1FFF7C0BC08207047D3390020B1
:1073600010B5084B1B78022B044604D07846064B18
:107370001B682BB198472046BDE81040FFF7C8BCFA
:1073800000DEF8E7D33900200C6B00207FB5374DC5
:107390002B78012B25D0364B1B681A0416D5354B9C
:1073A0001B68012B12D92F2133480DF089FE78B1CB
:1073B0002F2131480DF084FE411C304B304AD3F868
:1073C000043500920220A62207F0ACFF08242DE02D
:1073D0005C2129480DF074FE08B15C21E9E72649DB
:1073E000EBE7022603A904202E70FFF7AFFF044647
:1073F00040B31F4B1B681B0416D51E4B1B689BB16B
:107400002F211D480DF05CFE98B12F211A480DF078
:1074100057FE411C194B1B4AD3F8043500920194C6
:10742000B022012007F07EFF01232B70204604B01C
:1074300070BD5C2110480DF043FE08B15C21E5E70A
:107440000D49E7E7039B81225A70039B9E704FF022
:107450008043039AD3F8003403F00803D3700398F1
:1074600063230371FFF77CFFE0E700BFD3390020FF
:10747000403200203C320020EF54030000B00040B6
:107480000B5503001C55030070B5404B404C414D5B
:1074900000229CB01A7003A8FFF7D8FC002873D014
:1074A0009DF80D10002314F8330088424FEAC30200
:1074B00007D822445078884203D3536803A89847DA
:1074C000E9E70133092BEED12B681B041AD5324BA7
:1074D0001B68012B16D92F2130480DF0F1FD002833
:1074E00032D02F212D480DF0EBFD411C2C4B9DF887
:1074F0000D20D3F8043501922A4A009202208122FD
:1075000007F010FF02A90320FFF720FF064668B32B
:107510002B681A04BFD5204B1B68002BBBD02F2132
:107520001E480DF0CDFDC0B12F211C480DF0C8FD47
:10753000411C1B4B1C4AD3F804350092019687224C
:10754000012007F0EFFEA6E75C2114480DF0B8FD1E
:1075500008B15C21C6E71149C8E75C210F480DF06E
:10756000AFFD08B15C21E0E70C49E2E7029B842211
:107570005A70029B9DF80D209A70029B8222DA704D
:107580000298FFF7EDFE86E71CB070BDD2390020EF
:1075900090540300403200203C320020EF5403009E
:1075A00000B00040D85403001C55030038B5084C07
:1075B00025785DB9074B1B78022B07D1012329469B
:1075C0000548237006F0D8FE00B1257038BD00BF15
:1075D000D2390020D33900208974020009282AD02A
:1075E00010D8042823D004D8022826D858B38320E2
:1075F000704706281BD01AD307281AD00828F6D0BF
:10760000802070470E2818D008D80B2817D0EED34A
:107610000C2810D00D28F3D19320704710280ED0DD
:1076200005D311280DD043F201039842E8D18E20F2
:1076300070478520704784207047812070478720DD
:10764000704786207047002070470000014B187873
:10765000704700BFD3390020F7B507460E461C46D9
:107660001546EAB1F3B1134B1B78022B16D1E01C7F
:1076700001A980B2FFF76AFE80B9019B84225A708B
:10768000019B9F70019BDE702DB101982246294617
:1076900004300DF036FC0198FFF762FE03B0F0BD38
:1076A000002BE0D07846044B1B680BB19847DAE713
:1076B00000DED8E7D33900200C6B0020064B98423F
:1076C00006D003F53F73984204D10120C0B2704741
:1076D0000020FBE7FF207047FC39002037B5037816
:1076E000033B04460A2B4DD8DFE813F00B003700AC
:1076F0005000F5000F01BC004C0067008C00D70063
:107700002E018F4B1B78002B3CD001A91A20FFF7CC
:107710001DFE20B178468B4B1B68E3B19847019B57
:10772000C0225A70019D1022211DA81C0DF0E9FBFA
:10773000E36993F90D30AB74237DEB74E3699B7BB4
:10774000C3F346032B75E16906220F3105F11500DD
:107750000DF0D7FB13E000DEE1E701A90220FFF7FF
:10776000F5FD20B17846774B1B686BB19847019BBC
:10777000C1225A706068019AFFF7A0FF90700198CB
:10778000FFF7EEFD03B030BD00DEF0E701A90320F6
:10779000FFF7DCFD20B178466A4B1B685BB1984768
:1077A000C222019B5A706068019AFFF787FF9070B0
:1077B000237AD370E3E700DEF2E701A90B20FFF79D
:1077C000C5FD20B178465F4B1B68CBB19847019B44
:1077D000C3225A706068019AFFF770FF9070237A95
:1077E000D370E37A1371237B5371637B9371E389C5
:1077F000A2F80730237C5372B4F811305381BEE7EE
:1078000000DEE4E701A92C20FFF7A0FD20B17846B7
:107810004C4B1B6823B39847019BC5225A70606884
:10782000019DFFF74BFFA8702369C5F80330E38A79
:10783000A5F80930A38AA5F80730237EC3F3000317
:10784000EB72237EC3F340032B731022E16805F132
:107850000D000DF056FB1022A16805F11D0077E721
:1078600000DED9E701A90520FFF770FD20B17846B9
:10787000344B1B687BB19847019BC6225A706068E5
:10788000019AFFF71BFF0123D3700023137190703F
:107890001023537173E700DEEEE701A96220FFF7C2
:1078A00055FD20B17846274B1B6893B19847019B43
:1078B000C7225A706068019DFFF700FFA870402240
:1078C000A168E81C0DF01DFB2022E16805F14300D2
:1078D0003EE700DEEBE701A91320FFF737FD20B1FB
:1078E0007846184B1B6873B19847019BC8225A70A1
:1078F0006068019DFFF7E2FEA870237AEB70627A60
:10790000E168281D24E700DEEFE701A90520FFF765
:107910001DFD20B178460B4B1B6873B19847019B46
:10792000C6225A706068019AFFF7C8FE0323907060
:10793000D370237A1371637AABE700DEEFE700BF01
:107940003F4000200C6B002001A90320FFF7FEFC44
:1079500020B17846034B1B6813B19847C92220E732
:1079600000DEFBE70C6B002013B5194B1B681B04F2
:1079700016D5184B1B68032B12D92F2116480DF072
:107980009FFBD8B12F2114480DF09AFB411C134BDB
:10799000134AD3F8043500920420D42207F0C2FC25
:1079A0001049114801F01EFE044620B90F48104B43
:1079B000036005F082FE204602B010BD5C2106483F
:1079C0000DF07EFB08B15C21DDE70349DFE700BF76
:1079D000403200203C3200205255030000B00040ED
:1079E0007B550300DC390020FF3F0020D439002004
:1079F000DD760200F0B54378613B89B00446092B7F
:107A000071D8DFE813F00A00190025007400700037
:107A100089009F00B800CD00DD00744A137833B1AF
:107A200000231A4683216120FFF716FE5BE0012147
:107A300011701A461946F6E76C4A13781BB91A46B4
:107A400083216220F0E70023137019461A46F8E7F5
:107A50008378012B49D81922002101A80DF05CFA86
:107A6000102204F1130101A80DF04BFA022204F1D7
:107A7000230105A80DF045FA042204F125010DF1BA
:107A800016000DF03EFA022204F129010DF11A0050
:107A90000DF037FA9DF81C3094F82B20544DA07847
:107AA000544962F3000394F82C204FF43F7662F3BC
:107AB00041038DF81C30504A504B06FB005001F03A
:107AC0007FFD38B9A778034601AAE11C06FB0750E1
:107AD00001F09CFDA3788DF804300146012301AA32
:107AE0006320FFF7CFF909B0F0BD0B20F2E7434B5D
:107AF000414A40493E4801F063FD28B90346024629
:107B000001463B4801F070FD6478FFF767FD0023F4
:107B100001461A46204687E78378012B10D8C178A2
:107B2000027933484FF43F7505FB030001F095FDE2
:107B3000014608AAA37802F81C3D66200123D0E77D
:107B40000B21F6E78378012B13D80146284811F85A
:107B5000032B4FF43F75023AD2B205FB030001F04C
:107B600083FD014608AAA37802F81C3D6720012383
:107B7000B7E70B21F6E78378012B0FD81C4AC11C0D
:107B80004FF43F7000FB032001F075FD014608AA89
:107B9000A37802F81C3D68200123A2E70B21F6E739
:107BA000811C202214480DF0ACF9402204F122017E
:107BB00010480DF0A6F900231A461946607833E7FD
:107BC0000E4A837813700023937001215170C1789D
:107BD000D17001791171017A1172B0F80910A2F80F
:107BE000091041795171C188D180E5E73F400020FB
:107BF000FC390020FF3F0020DC390020F43F00204A
:107C000013B50378103B0446062B31D8DFE813F098
:107C10004200640078009600B7000700340001A914
:107C20001620FFF793FB20B17846694B1B680BB316
:107C30009847A522019B5A70019B22799A7023468E
:107C4000019853F8052FC0F803205A68C0F80720A0
:107C50001B89A0F80B30019854F80F3FC0F80D3085
:107C60006368C0F811302389A0F81530FFF778FB5E
:107C700002B010BD00DEDCE701A91620FFF766FBAD
:107C800020B17846524B1B6813B19847A622D1E722
:107C900000DEFBE701A90D20FFF758FB20B1784675
:107CA0004B4B1B68B3B19847019BA0225A70019BB4
:107CB00022799A702346019853F8052FC0F80320C3
:107CC0005A68C0F807201B89A0F80B300198E37BA5
:107CD0004373CBE700DEE7E701A90220FFF736FB9D
:107CE00020B178463A4B1B6843B19847019BA122CB
:107CF0005A70019B22799A700198B7E700DEF5E788
:107D000001A90D20FFF722FB20B17846304B1B68FC
:107D100093B19847019BA2225A70019B22799A70D5
:107D2000019B6279DA70019854F8063F43606368FA
:107D300083602389838199E700DEEBE701A90E20A8
:107D4000FFF704FB20B17846214B1B68ABB1984785
:107D5000019BA3225A70019B22799A70019B627940
:107D6000DA702346019853F8062F42605A68826001
:107D70001B898381237C837378E700DEE8E701A910
:107D80001520FFF7E3FA20B17846114B1B68E3B1E9
:107D90009847019BA4225A70019B22799A7023462E
:107DA000019853F8052FC0F803205A68C0F807203F
:107DB0001B89A0F80B3001982369C0F80D30636966
:107DC000C0F81130237E437550E700DEE1E700BFC5
:107DD0000C6B00200248034B036005F06EBC00BF33
:107DE00040400020017C020010B504464078A0F11C
:107DF000D003062B8AB00BD8504A2178D25C91422E
:107E000006D000231A468421FFF726FC0AB010BDD5
:107E1000062B00F28280DFE803F0040D14191C40E9
:107E20004C0003F0EBFC6478FFF7D8FB00231A4604
:107E3000014630E0D4F80D20A078E11C03F0A8FF43
:107E4000F1E7E11CA07803F0EFFFECE704F020F885
:107E5000E9E76946A07804F031F864780146002823
:107E6000E2D19DF800308DF814300AAB53F8272D7D
:107E7000CDF815205A681B89ADF81D309DF80B30E0
:107E80008DF81F30039B0893049B09931423CDF8AE
:107E900019200DEB03022046B6E72378022B04D00D
:107EA00000231A468421D520AEE7A07804F01EF8FE
:107EB000B9E72378012B04D000231A468421D62069
:107EC000A2E700210A220DF102000DF025F8684614
:107ED00003F0B4FC647801460028A5D19DF8003079
:107EE0008DF814309DF801308DF81530DDF8023032
:107EF000CDF81630DDF80630CDF81A30BDF80A306E
:107F0000ADF81E309DF80C308DF820309DF80D3006
:107F10008DF8213005AA0E23BDE73030C0B20F28FE
:107F200004D97846064B1B682BB1984700231A46A4
:107F30008221607868E700DEF8E700BF9D55030006
:107F40000C6B0020F8B50378022B044661D001D8F1
:107F500033B1F8BD0E2B72D00F2B00F08180F8BD2D
:107F6000068947494E2E28BF4E2606F1140080B2DE
:107F7000FFF7ECF928B17846424B1B68002B35D04F
:107F800098473F4F22893D68A5F81320227D012A9A
:107F90002ED1D0236B70E38AAB80E3896B80206A9B
:107FA000FEF770F9E880E069FEF766F9288194F839
:107FB0002430AB72A36A9B7BC3F34603EB72A16AC6
:107FC00006220F3105F10C000CF09BFFA36A93F918
:107FD0000D30AB742EB13246616805F115000CF01E
:107FE00090FF3868BDE8F840FFF7BAB900DEC8E78F
:107FF000D1236B70291D04F11400FEF7F1F800285D
:10800000CBD078461F4B1B680BB19847C5E700DE05
:10801000C3E71B490520FFF799F920B17846194BB2
:108020001B6853B19847164B1A68D32151701A68D0
:10803000A168C2F802101868D4E700DEF3E710491F
:108040000120FFF783F920B178460E4B1B682BB156
:1080500098470B4B1A68D5215170ECE700DEF8E722
:1080600007490120FFF772F920B17846054B1B68DC
:1080700023B19847024BD6211A68EDE700DEF9E7F5
:10808000504000200C6B002010B50446FDF70CF8A2
:10809000FDF736FF04F0A4FC002360781A46194669
:1080A000BDE81040FFF7D8BA10B58AB0044602A95F
:1080B000C088FDF7FFFF002832D101A8FDF794FF2B
:1080C000A288BDF804108A4232D3BDF806300B44B2
:1080D0009A422DDA07A96088FEF7C0FA00BB6279E0
:1080E000237943EA0223ADF81030237A8DF8123059
:1080F000637A003318BF01238DF813302378092BDE
:1081000087BF04F10A02093B0590ADF818004FF053
:10811000000102A884BF0592ADF8183005F0E4F91B
:10812000002301461A466078FEF7ACFE0AB010BD87
:108130001020F5E707B502AA082322F8043D002124
:1081400002234078FEF79EFE03B05DF804FBFFF7C4
:10815000F1BF07B502AA102322F8043D0021022333
:108160004078FEF78FFE03B05DF804FB13B50446BC
:108170006846FDF739FFBDF80030ADF80430BDF8B2
:108180000230ADF8063004230DEB030200216078C5
:10819000FEF778FE02B010BD07B502AA012322F84F
:1081A000043D002102234078FEF76CFE03B05DF829
:1081B00004FB07B502AA042322F8043D0021022390
:1081C0004078FEF75FFE03B05DF804FB10B59AB08F
:1081D0001AA92F23044641F8643D02A8FDF7C6FF03
:1081E000019B5B0001469BB202AA6078FEF74AFE43
:1081F0001AB010BD30B589B0694604464088FDF715
:1082000059FF16220546002102A80CF085FEEDB9A3
:108210009DF8003060888DF80A30ADF80800FDF751
:108220002FFF0199BDF802308DF80B00ADF80C302E
:1082300071B110220DF10E000CF063FE162302AA9C
:1082400029466078FEF71EFE09B030BD0023F6E730
:108250000623F4E713B504464088FDF7E5FEE2780F
:10826000A37843EA022302AA014622F8043D60787B
:108270000223FEF707FE02B010BD13B504460DF150
:1082800006010230FDF7CCFE02AABDF8063022F846
:10829000043D014602236078FEF7F4FD02B010BDF4
:1082A00013B504460DF106014088FDF7B3FE02AA9E
:1082B000BDF8063022F8043D014602236078FEF73F
:1082C000E1FD02B010BD13B504464088FDF720FF64
:1082D000E278A37843EA022302AA014622F8043D89
:1082E00060780223FEF7CEFD02B010BD13B5044640
:1082F0000DF106010230FDF7BFFE02AABDF80630FF
:1083000022F8043D014602236078FEF7BBFD02B06F
:1083100010BD13B504460DF106014088FDF7A6FE19
:1083200002AABDF8063022F8043D01460223607817
:10833000FEF7A8FD02B010BD13B5C278837843EAFA
:108340000223ADF8043042790379044643EA02235C
:1083500001A8ADF80630FDF70DFE002301461A46D0
:108360006078FEF78FFD02B010BD13B5044640885B
:10837000FEF74AF8E278A37843EA022302AA01460C
:1083800022F8043D60780223FEF77CFD02B010BDA8
:1083900013B5821D044601AB81884088FDF7F6FFC6
:1083A0000223014601AA6078FEF76CFD02B010BD01
:1083B00010B59AB02E23019304460DF10A014088AE
:1083C000ADF8080001AAFEF705F9019B01466078A7
:1083D00023B91A46FEF756FD1AB010BD01335B00F3
:1083E0009BB202AAF6E713B504464088FEF788F868
:1083F000E278A37843EA022302AA014622F8043D68
:1084000060780223FEF73EFD02B010BD13B50446AE
:10841000011D4088FEF750F8E278A37843EA022372
:1084200002AA014622F8043D60780223FEF72AFDE5
:1084300002B010BD13B5821D04460DF106038188FC
:108440004088FDF7FDFF02AABDF8063022F8043D82
:10845000014602236078FEF715FD02B010BD10B58D
:108460009AB01AA92F2341F8643D044602A8FDF7EB
:108470005DFF019B0146607823B91A46FEF702FDB5
:108480001AB010BD5B009BB202AAF7E713B5044611
:108490004088FEF74DF8E278A37843EA022302AA67
:1084A000014622F8043D60780223FEF7EBFC02B09F
:1084B00010BD13B50446011D4088FDF715FFE27895
:1084C000A37843EA022302AA014622F8043D607819
:1084D0000223FEF7D7FC02B010BD13B504460DF120
:1084E0000602011D4088FDF7D3FE02AABDF8063042
:1084F00022F8043D014602236078FEF7C3FC02B077
:1085000010BD10B5447804F0DBFF002301461A4685
:108510002046BDE81040FEF7B5BC10B5447804F025
:10852000ABFF002301461A462046BDE81040FEF787
:10853000A9BC00000248034B036005F0BEB800BFB1
:1085400048400020457F020070B543787033DBB2AD
:108550001F2B054604D97846194B1B6853B1984721
:108560006878AC2808D900231A468221BDE87040FB
:10857000FFF772B800DEF3E7A0F19006114C14F893
:108580003620824204D078460D4B1B6883B1984751
:1085900004EBC60329785A788A4204DA98780132C3
:1085A0000244914206DD00231A4684216878DDE703
:1085B00000DEEDE728465B68BDE87040184700BF65
:1085C0000C6B0020A455030038B50D4C63680546BC
:1085D00033B1042221460CF085FC70B123690BB93C
:1085E000002038BD042204F10C0128460CF07AFC6E
:1085F0000028F5D104F10C0038BD204638BD00BF7D
:108600005440002070B59AB0054601A94088FCF797
:1086100097FF0446E0B901A8FFF7D6FFB8B11AAE3C
:10862000836806F8604DA81C314698479DF80830CD
:1086300004466BB16C78FEF7D1FF9DF80830014617
:10864000013332462046FFF707F81AB070BD052403
:1086500020466D78FEF7C2FF002301461A462846E1
:10866000F1E737B5851C04462846FFF7ADFF002328
:10867000ADF8043080B143680DF1060128469847F3
:10868000BDF80630ADF804300146022301AA607837
:10869000FEF7F8FB03B030BD0521F6E730B51D4D00
:1086A00099B004465E22002168460CF035FC6B68E8
:1086B00093B1BDF8000016282AD80DEB80000422E3
:1086C000294602300CF01DFCBDF800002B6901307A
:1086D00080B2ADF800005BB90021BDF800306078D1
:1086E0009B0002339BB26A46FEF7CCFB19B030BD4B
:1086F00016280DD80DEB8000042205F10C01023084
:108700000CF0FFFBBDF800300133ADF80030E3E7BB
:108710000C21E2E75440002010B54378FF2B0446BB
:1087200004D17846064B1B683BB19847204603228C
:108730000449BDE81040FEF7BABB00DEF6E700BF13
:108740000C6B00208C5603002DE9F7438478064615
:1087500044B100231A4685217078FEF77DFF03B0EF
:10876000BDE8F0831A4DDFF86C808DF800408DF87D
:108770000240A5F16F074FF0010997F873309C4252
:108780000ED34FF47A72FB6EB3FBF2F3CDF80330E5
:1087900097F828308DF801306A4607230021DBE77F
:1087A00015F8013F253B022B04D97846D8F8003054
:1087B0005BB198472B789DF80220253B09FA03F31B
:1087C00013438DF802300134D7E700DEF2E700BF33
:1087D000DB4000200C6B002000231A4682214078E9
:1087E000FEF73ABF07B502AA042322F8043D002190
:1087F00002234078FEF730FF03B05DF804FB000071
:1088000037B5847805466CBBD0F80510164808F0DB
:1088100087FA297900948DF804400023224641FA12
:1088200002F0C00708D502AC581C234402F125040D
:1088300003F8084CC3B201240132032AEFD10CB172
:108840008DF803300848694608F028FA00206C7853
:10885000FEF7C4FE002301461A462046FEF7FCFE42
:1088600003B030BD0720F2E77040002070B5847877
:108870000546BCB90D4E3378012B15D1301D08F0DB
:108880006CF9AA784FF49A7353432046F4546C78E9
:10889000FEF7A4FE002301461A462046BDE87040BC
:1088A000FEF7DABE0720F2E70820F0E76C40002070
:1088B0002DE9F041847805465CBB0678DFF85C80E2
:1088C000023E314608F1040008F04CF9074610B3A7
:1088D000FF2303713246E91C11300CF012FBA8781B
:1088E0004FF49A7606FB00800430394608F084F98C
:1088F000AB785E43012308F8063020466C78FEF71B
:108900006DFE002301461A462046BDE8F041FEF701
:10891000A3BE0720F2E70420F0E700BF6C40002070
:1089200010B50446012004F0CDFE002360781A46FD
:108930008E21BDE81040FEF78FBE000010B5044642
:10894000054803F0FDFB002360781A461946BDE890
:108950001040FEF781BE00BF5D89020013B50446DA
:10896000807801A90430FEF7F1FC20B17846104B65
:108970001B68DBB19847019B83225A70A378019A48
:1089800004331370019B22789A70019B6278DA702D
:108990000198A3780371A278616805300CF0B1FAF0
:1089A0000198FEF7DDFC002002B010BD00DEE2E71A
:1089B0000C6B002013B5044601A90078FEF7C6FC35
:1089C00020B178460A4B1B687BB19847019B8222F5
:1089D0005A70019810F8022BA11C013A0CF091FA80
:1089E0000198FEF7BDFC02B010BD00DEEEE700BF4F
:1089F0000C6B002003489C2300F1980200210430F6
:108A000008F0EEB96C40002010B543781F2B0446E7
:108A100004D97846064B1B683BB19847204609228B
:108A20000449BDE81040FEF742BA00DEF6E700BF99
:108A30000C6B0020A456030038B50546FEF706FE71
:108A400098B9FEF791FF044668B9FEF771FC044639
:108A500048B9FFF7CFFFFFF76DFDFFF7BBF915B181
:108A6000284600F007F8204638BD0824FBE7FEF74B
:108A70008DBC0000014B1860704700BFA041002072
:108A800010B5094B1B6804465BB110F8021B013995
:108A9000984700231A4619466078BDE81040FEF753
:108AA000DBBD1A468E21F7E7A04100201FB500F27A
:108AB0007D21044600F24D236A4600F0DBFF694643
:108AC000204600F08CFE10B9102384F8B33204B0B5
:108AD00010BD00B590F8B3328DB05BB1002380F8C3
:108AE000B3320290052301A88DF804308DF80C10E4
:108AF00003F07AFB0DB05DF804FB70B590F8B3524B
:108B0000022D8CB0044610D1042602900DEB060015
:108B10008DF8046003F068FB04F29D2200212046DA
:108B200000F00CFE18B984F8B3620CB070BD294691
:108B3000204600F0FFFDF8E710B590F8B332072BA0
:108B40008CB004460CD190F8B0325BB109238DF89B
:108B500004300A23029080F8B33201A803F044FBEA
:108B60000CB010BDD0F8B81100F01BFE18B90923E5
:108B700084F8B332F4E70221204600F0DBFDEFE792
:108B800030B590F8B4328DB00446032B3CD8DFE802
:108B900003F0312B1D0200F26D25294601F040F84B
:108BA00006238DF8043094F8AE328DF80D3094F829
:108BB000AF328DF80C3002940495112301A884F88B
:108BC000B33203F011FB00200DB030BD07238DF848
:108BD000043090F8AE328DF80D3090F8AF328DF849
:108BE0000C3002900C23E9E708238DF80430029042
:108BF0000D23E3E71022002100F26D200CF08CF928
:108C00002046FFF753FFDFE70320DDE7F0B50D4611
:108C1000A5B004461146284600F054FD08B90221CB
:108C20002BE12B78013B082BF9D801A252F823F055
:108C3000558C02001F8C0200C58C0200138D0200AF
:108C4000238D02004D8D02001F8C0200278E020032
:108C5000838E020094F8B332042B31D10B22691CAD
:108C600004F29E200CF04DF9052384F8B3320A2358
:108C70008DF864306B788DF86C301A946A88130A1A
:108C800043EA0223ADF86D302B798DF86F306B79A4
:108C90008DF87030AB798DF87130B5F80720130A74
:108CA00043EA0223ADF872306B7A8DF874306A892A
:108CB000130A43EA0223ADF8753019A803F094FAB9
:108CC00025B0F0BD94F8B332092BF9D104F5E07664
:108CD0004022691C30460CF014F900F0C5FE58B172
:108CE0000B2384F8B3320C238DF86430D4F8BC31F4
:108CF0001A941C931B96E0E704F50071204600F0DF
:108D000073FF00288BD12046FFF73AFF0028D7D009
:108D100085E794F8B332112BD2D12046FFF7C6FE77
:108D2000F4E794F8B322102ACAD1691C04F28D200A
:108D30000CF0E7F804F24D21204600F063FD002816
:108D40007FF46DAF122384F8B332B9E794F8B332ED
:108D5000122BB5D11022691C04F25D200CF0D1F861
:108D6000204600F0ABFF00283FF459AF01AD05AE3F
:108D700004F508732A463146204609AF00F0DCFEB0
:108D80000723102204F5307138468DF840300CF07E
:108D9000B8F8D4F8D23219961A0E190242EA0362D0
:108DA00001F47F011B0A0A4303F47F431343B4F821
:108DB000D622CDF83730130A43EA0223B4F8D02282
:108DC000ADF83B30130A43EA022394F8D822ADF8F9
:108DD00034309DF836301A95C2F3400161F3000338
:108DE00062F341036FF387038DF836301923ADF832
:108DF00070300DF141031F930DF15A0320930023AE
:108E00001D93ADF8783019A808231B978DF884308E
:108E100005F0DEFB10A9204600F01FFD00287FF4BE
:108E2000FEAE14238FE794F8B332142B7FF448AFCF
:108E30000B238DF8643004F508731C9304F530732C
:108E40001B93D4F8D2321D93B4F8D032ADF87830F9
:108E5000B4F8D63294F8D822ADF87A309DF87C3048
:108E60001A9462F30003C2F3400262F3410319A8AB
:108E70008DF87C3003F0B8F90021204600F05AFC50
:108E80001EE70D238DF8643019A86B781A948DF8BD
:108E90006C3003F0A9F9C2E670B51E4690F8B33203
:108EA00004461546ABB90C4B0C4A00F019FC88B9C6
:108EB00084F8B1023146192204F530700CF021F823
:108EC0002946204600F02CFC20B9022384F8B33256
:108ED00070BD082070BD00BF00879303EC560300EF
:108EE00013B590F8B332052B044634D1102A30D88C
:108EF00052BB71BB022394F8B8028DF800300023F6
:108F0000C01A18BF012001298DF8013018BF94F84C
:108F1000AF3284F8AE22012908BF002284F8B412CF
:108F20008DF802008DF803108DF80520694604F2D3
:108F30009D2220468DF8043000F023FC10B9072351
:108F400084F8B33202B010BD19B1102AD2D0012971
:108F5000D0D10920F6E70820F4E738B5044694F8A4
:108F6000B3320C3B012B16D8102A16D894F8AE5207
:108F7000954212D104F26D200BF0C3FF05F26D2073
:108F8000C5F11002204400210BF0C6FF2046BDE8C9
:108F90003840FFF78BBD082038BD092038BD10B51B
:108FA00090F8B3220B2A04460AD159B1202200F5C9
:108FB00000700BF0A6FF2046BDE81040FFF7E0BDB3
:108FC000082010BD0E2010BD00B58DB00B238DF80C
:108FD000043000F50873049300F530730290039396
:108FE000D0F8D2320593B0F8D032ADF81830B0F8DE
:108FF000D63290F8D822ADF81A309DF81C3062F3C2
:109000000003C2F3400262F3410301A88DF81C3053
:1090100003F0EAF80DB05DF804FB30B590F8B33218
:10902000132B8DB004460D4602D109B9FFF7CCFFD2
:10903000002384F8B33201A805238DF8043002948C
:109040008DF80C5003F0D0F80DB030BD00B50323FF
:109050008DB080F8B332042302900DEB03008DF83D
:10906000043003F0C1F80DB05DF804FB10B5044600
:109070008CB00D2284F8B2128DF8042002908DF885
:109080000C1000F0DDFB38B901A803F0ADF8162391
:1090900084F8B3320CB010BD0221204600F04AFB28
:1090A000F2E730B590F8B4328DB00446032B3CD8CB
:1090B000DFE803F0312B170207238DF8043090F816
:1090C000AE328DF80D3090F8AF328DF80C30029042
:1090D0000C2384F8B33201A803F086F800200DB009
:1090E00030BD00F26D25294600F09AFD06238DF86B
:1090F000043094F8AE328DF80D3094F8AF328DF81C
:109100000C30029404951023E3E708238DF8043013
:1091100002900D23DDE71022002100F26D200BF0FC
:10912000FBFE102384F8B332D8E70320D7E710B54D
:109130008CB0044600F098FC88B10C238DF8043004
:10914000D4F8BC31049304F5E07303930B2384F843
:10915000B33201A8029403F047F80CB010BD04F537
:109160000071204600F040FD48B92046FFF799FF06
:109170000028F2D005212046FFF778FFEDE7022115
:10918000F9E7000070B50D4696B004461146284632
:1091900000F098FA20B901212046FFF767FF86E02A
:1091A0002B78092B00F23581DFE813F00A00330138
:1091B0004A006B0033018300AE00CF00330127016A
:1091C00094F8B332032B72D104F29D230122A91823
:1091D00018461D460BF095FEB4F8B62201238DF813
:1091E0002C3094F8B5328DF82D30130A43EA02235F
:1091F000ADF82E3094F8B832B4F8BB228DF8303088
:1092000094F8B9328DF8313094F8BA328DF83230A2
:10921000130A43EA0223B4F8BE22ADF8333094F8BF
:10922000BD328DF83530130A43EA02230BA92A46D2
:109230002046ADF8363000F095FAC0B30521ABE713
:1092400094F8B332062B32D10522691C04F2A9200E
:109250000BF057FEAB7893B984F8B032EB7884F812
:10926000B432EB78012B14BF6B79102384F8AE3243
:109270002B7984F8AF32092384F8B33217E0012345
:10928000EAE794F8B332092B11D14022691C04F5A6
:10929000E0700BF036FE94F8B0322BB9D4F8B81168
:1092A000204600F07EFAC8E72046FFF740FF16B0E0
:1092B00070BD94F8B322102A1CD1691C04F28D20D1
:1092C0000BF01FFE04F27D21204604F24D230BAA71
:1092D00000F0D0FB0BA9204600F081FA0028E6D070
:1092E0000428ABD078464F4B1B680BB19847A5E7D5
:1092F00000DEA3E70D2ADAD11022691C04F28D20CA
:109300000BF0FFFD0E23B7E794F8B332122BCED14A
:109310001022691C04F25D200BF0F3FD204600F0E2
:10932000CDFC08B9042137E704F24D21204600F0B6
:1093300069FA002882D104F5087304F5107204F567
:109340000C71204600F0F8FBB1E794F8B332132B10
:10935000ADD104F50C730B9304F510730C936B1CD7
:109360000D9316A91923ADF838300023082201F80F
:10937000513D0DF109061A350BA80F93ADF8403099
:10938000119612958DF84C2005F024F99DF80730C0
:10939000002B44D01022314604F530700BF0B1FDA3
:1093A000079BBDF819209DF81B101BBAC4F8D232D8
:1093B000BDF82030180A40EA0320130A43EA0223CA
:1093C00094F8D822C1F340059BB265F3000280B245
:1093D00061F34102B3F5805FA4F8D602A4F8D0325D
:1093E00084F8D82201D30221D6E603F0E3FF012856
:1093F000F9D1204600F019FA1FE70D238DF82C3023
:109400000BA86B788DF834300C9402F0EDFE162327
:1094100032E794F8B332162B7FF4BDAE47E706214E
:10942000BAE600BF0C6B002013B590F8B332033BD3
:109430000446132B1FD8DFE803F00A1E1E0D1E1E64
:109440000F1E1E141E161E161E181A1E1E0D062393
:1094500084F8B33202B010BD02B0BDE81040FFF78F
:1094600066BE1023F4E71223F2E71323F0E7FFF7B9
:10947000ABFD1523ECE7144B1B681B07EAD5134B18
:109480001B68002BE6D02F2111480BF019FE90B17C
:109490002F210F480BF014FE411C0E4B94F8B32201
:1094A000D3F8043501920C4A0092012040F2E112F7
:1094B00005F038FFCEE75C2105480BF001FE08B14E
:1094C0005C21E6E70249E8E7403200203C32002018
:1094D0000C57030000B000403057030070B51E4623
:1094E00090F8B332044615468BB9022380F8B332A4
:1094F000012380F8B132074A074B00F0F1F838B980
:10950000324629462046BDE8704000F0FFB80820EA
:1095100070BD00BFFC560300008793037FB590F831
:10952000B3320C3B022B04460E4630D8102A30D8FA
:1095300090F8AE5295422CD105F26D20C5F1100283
:10954000002120440BF0E8FC2A46314604F26D204D
:109550000BF0D7FC94F8B3320C2B04D1204600F06A
:1095600033F904B070BD0E2B0CD104F27D212046DE
:1095700004F24D236A4600F07DFA6946204600F069
:109580002EF9EEE7102384F8B3320020E9E7082033
:10959000E7E70920E5E710B590F8B3220B2A044667
:1095A0000AD159B1202200F500700BF0AAFC204628
:1095B000BDE81040FFF775BD082010BD0E2010BD9E
:1095C00010B590F8B3425CB9C0F8B811C0F8BC212E
:1095D00019460B2200F2B5200BF093FC204610BD7B
:1095E000082010BD00F098BA70B5044615461E4616
:1095F00051B900F0EDFF014630B133462A4620460E
:10960000BDE87040FFF76ABF062070BD2DE9F0414C
:109610000F4614460546D0B1C9B1C2B1D3B900F066
:10962000D7FF0646B0B1238AB3F5805F02D30B2083
:10963000BDE8F081E08A03F0BDFE0128F7D12346A2
:109640003A4631462846BDE8F041FFF725BC0E20DA
:10965000BDE8F0810620BDE8F08190F8B1320BB989
:10966000FFF73EBC0820704790F8B1320BB9FFF706
:1096700074BCFFF753BF90F8B1320BB9FFF78FBC42
:10968000FFF789BF70B5044616460D4621B97846E6
:109690000B4B1B687BB1984724B97846084B1B6875
:1096A0005BB19847D4F8B0313246294620461B6852
:1096B000BDE87040184700DEEEE700DEF2E700BFCD
:1096C0000C6B002048B10378092B05D8034AD05C05
:1096D000431A584258417047002070475F570300B3
:1096E00010B560B159B152B1074CA34209D9C0F8C5
:1096F000B431C0F8AC21C0F8B011002010BD0E206C
:1097000010BD072010BD00BFFF86930310B4D0F832
:10971000B041D0F8B4316468A4465DF8044B6047AA
:1097200010B4D0F8B021D468D0F8B42123465DF845
:10973000044B1847D0F8B0311B69184713B5002304
:1097400004468DF8051010460DF1050101228DF833
:1097500004300BF0D6FB022201A92046FFF792FF4E
:1097600002B010BD38B505460C46501C01310B2225
:109770000BF0C7FB214628460C22BDE83840FFF716
:1097800081BF38B505460C4602F10C0001310522B7
:109790000BF0B7FB214628460622BDE83840FFF70C
:1097A00071BF30B593B012AC032304F8443D0546B5
:1097B00040220DF105000BF0A4FB41222146284672
:1097C000FFF760FF13B030BD07B502A9042301F80D
:1097D000043D0122FFF756FF03B05DF804FB30B5EE
:1097E00087B006AC052304F8143D054610220DEBA6
:1097F00003000BF086FB112221462846FFF742FFAB
:1098000007B030BD30B587B006AC062304F8143D70
:10981000054610220DF105000BF073FB11222146C5
:109820002846FFF72FFF07B030BD07B502A9082370
:1098300001F8043D0122FFF725FF03B05DF804FBAA
:1098400007B509238DF80510022201A98DF804300F
:10985000FFF718FF03B05DF804FB2222FFF712BFE9
:10986000D0F8AC319B681847D0F8AC31DB681847AA
:1098700073B5194B1B681B0704460D46164618D5D1
:10988000164B1B68032B14D92F2115480BF018FC1D
:10989000C8B12F2112480BF013FC411C114B2A7840
:1098A000D3F804350192104A00920420DF2205F01B
:1098B00039FDD4F8AC311B6832462946204602B047
:1098C000BDE8704018475C2105480BF0F9FB08B172
:1098D0005C21DFE70249E1E7403200203C32002012
:1098E0006957030000B0004089570300D0F8AC313D
:1098F0005B68184770B506468AB014460D4609B332
:1099000008460BF0D5FB6A4681B2284604F0C0FE3B
:10991000042269460DF122000BF0F3FA162564BA11
:10992000ADF8204002F05CFC102201460DEB020075
:109930000BF0E7FA2B4604AA0021304606F09EFC05
:109940000AB070BD1225EAE770B50E468CB0154618
:10995000044628B97846264B1B68002B39D0984717
:1099600006F0FB03122B05D07846214B1B68002B19
:1099700031D0984725B978461D4B1B686BB3984783
:109980001C4B1B781BB32C22002101A80BF0C4FA3E
:109990001022214602A808950BF0B3FA2B785A1E24
:1099A000534253418DF81830162E4FF003038DF8B3
:1099B000043014D10123042204F112010DF11A0024
:1099C0008DF819300BF09DFA01A802F00DFC0CB0D7
:1099D00070BD00DEC4E700DECCE700DED0E700218A
:1099E00004220DF11A008DF819100BF095FAEBE72F
:1099F0000C6B0020F031002073B505460A4E684616
:109A00000C4604F003FA00232421A34201D302B040
:109A100070BD1DF80300B0FBF1F201FB1202D2B2DF
:109A2000B25CEA540133F0E79D57030037B50D46A9
:109A3000042104460DEB010004F0E8F9094B0199FB
:109A400053F82520B1FBF2F302FB131304221BBAD7
:109A50000DEB020104F10C0001930BF052FA03B07C
:109A600030BD00BFC4570300014B1878704700BFDA
:109A7000A44100202DE9F0410446ACB00F469046C9
:109A800000F29D21112207A81E460BF03AFA94F825
:109A9000B13204F5E07540229BBBD4F8B8110DF14A
:109AA0002D000BF02EFA402229460DF16D000BF02F
:109AB00028FA3A4607A8912104F0EAFD03AD0423F1
:109AC0003A46009304F50070124B0195202104F0F2
:109AD000FBFD3046102104F099F93146102207A809
