:020000021000EC
:10F0000000F000208D1E0200B51E0200D1F70100A5
:10F01000B91E0200BB1E0200BD1E0200000000005F
:10F02000000000000000000000000000BF1E020001
:10F03000C11E020000000000C31E0200C51E020027
:10F04000C71E0200C71E0200C71E0200C71E020024
:10F05000C71E0200C71E0200C71E0200C71E020014
:10F06000C71E0200C71E0200C71E0200C71E020004
:10F07000C71E0200C71E0200C71E0200C71E0200F4
:10F08000C71E0200C71E020051380200C71E020040
:10F09000C71E0200C71E020031F80100C71E020091
:10F0A000C71E0200C71E0200C71E0200C71E0200C4
:10F0B000C71E0200C71E0200000000000000000082
:10F0C000C71E0200C71E0200C71E0200C71E0200A4
:10F0D000C71E0200C71E0200C71E0200000000007B
:10F0E0000000000000000000000000000000000020
:10F0F0000000000000000000000000000000000010
:10F1000000000000000000000000000000000000FF
:10F1100000000000000000000000000000000000EF
:10F1200000000000000000000000000000000000DF
:10F1300000000000000000000000000000000000CF
:10F1400000000000000000000000000000000000BF
:10F1500000000000000000000000000000000000AF
:10F16000000000000000000000000000000000009F
:10F17000000000000000000000000000000000008F
:10F18000000000000000000000000000000000007F
:10F19000000000000000000000000000000000006F
:10F1A000000000000000000000000000000000005F
:10F1B000000000000000000000000000000000004F
:10F1C000000000000000000000000000000000003F
:10F1D000000000000000000000000000000000002F
:10F1E000000000000000000000000000000000001F
:10F1F000000000000000000000000000000000000F
:10F2000010B5054C237833B9044B13B10448AFF360
:10F2100000800123237010BD801A00200000000030
:10F22000B4A302000C4B43B10C480D4910B5AFF329
:10F2300000800C48036823B910BD0A48036833B93D
:10F240007047094B002BF7D0BDE810401847064B1C
:10F25000002BF5D0184700BF00000000B4A3020047
:10F26000841A00207C1A002000000000154B002B9F
:10F2700008BF134B9D46A3F5803A00218B460F46ED
:10F280001348144A121A0AF01DFA0F4B002B00D033
:10F2900098470E4B002B00D0984700200021040017
:10F2A0000D000D48002802D00C48AFF300800AF092
:10F2B000BBF92000290000F07FF80AF0A1F900BF97
:10F2C0000000080000F00020000000000000000026
:10F2D000801A002008470020000000000000000005
:10F2E00010B50278123A0346042A5FD8DFE802F02C
:10F2F0004148510303000079022803F1050126D09B
:10F3000004282DD1B3F81340B3F80920944225D135
:10F31000D3F80F40D3F8052094421FD1D3F815201D
:10F32000D3F80B309A422CBF00230123C3B1204BEA
:10F330001A6802F0C1FB18B11E4A7B2100F00EFAD8
:10F340004FF0A0434FF4F012C3F8082510BDDC7B4A
:10F350005A79944202D11A7C9B79E3E70023E5E7CE
:10F3600002F0F6FB10B3134A8121BDE8104000F013
:10F37000F5B94FF420224FF0A043C3F80C2510BD7F
:10F380004FF0A0434FF4F012C3F808254FF4C02209
:10F39000F3E74FF0A0424FF4F011C2F808150079DE
:10F3A00002F00AFC10B1034A8D21DEE710BD00BF58
:10F3B000704600205B9902004FF0A04303222DE924
:10F3C000F341C3F84427C3F84827C3F84C27C3F8D0
:10F3D00050274FF40032C3F808254FF48022C3F8B9
:10F3E00008254FF40022C3F808258A4C4FF48012F8
:10F3F000C3F808250421884A4CF2870005F0ECF890
:10F4000023685D0418D5854B1B68032B14D92F2165
:10F4100083480AF023FA002800F0C5802F21804895
:10F420000AF01CFA411C7F4B7F4AD3F80435009246
:10F430000420A22205F0EAF87C4E7D4D7D4F2B681A
:10F4400031685B1A3B602B687B4923F47F6323F0B0
:10F450000F0303F580530B60236813F4804FB0460D
:10F460000E461BD06D4B1B68052B17D92F216C48FE
:10F470000AF0F4F9002800F09F802F2168480AF074
:10F48000EDF9411C674BD3F80435D8F80020019200
:10F490006A4A00920620AB2205F0B8F823685804A7
:10F4A0001AD55E4B1B68052B16D92F215C480AF034
:10F4B000D5F9002800F089802F2159480AF0CEF9AB
:10F4C000411C584BD3F804352A6801925C4A0092DB
:10F4D0000620AC2205F09AF82368590419D54F4B41
:10F4E0001B68052B15D92F214D480AF0B7F90028C4
:10F4F00074D02F214A480AF0B1F9411C494B3A68AF
:10F50000D3F8043501924F4A00920620AD2205F04F
:10F510007DF823685A0419D5404B1B68052B15D973
:10F520002F213F480AF09AF9002860D02F213C484B
:10F530000AF094F9411C3B4B3268D3F80435019230
:10F54000414A00920620AE2205F060F800F062FA0F
:10F550003E483F4B03600023436003F0B0FB236849
:10F560005B0417D52D4B1B68032B13D92F212C4877
:10F570000AF074F9002843D02F2129480AF06EF9C7
:10F58000411C284B334AD3F8043500920420BE2294
:10F5900005F03CF84FF0A0434FF40032C3F80C25BF
:10F5A00003F0A6FAFCE75C211D480AF057F908B100
:10F5B0005C2134E71A4936E75C2119480AF04EF914
:10F5C00008B15C215AE716495CE75C2114480AF04F
:10F5D00045F908B15C2170E7114972E75C211048D8
:10F5E0000AF03CF908B15C2184E70D4986E75C210B
:10F5F0000B480AF033F908B15C2198E708499AE70B
:10F600005C2107480AF02AF908B15C21B5E70449F2
:10F61000B7E700BF041A0020AD450200001A002021
:10F620005B99020000B00040DC980200C019002085
:10F63000C41900207446002070460020049902007E
:10F640001399020022990200319902009C1A0020AD
:10F65000E1F201004199020048DF704710DF704776
:10F6600060DF704761DF70474FF0A0434FF4F01246
:10F67000C3F80825C3F80C25EFF3108372B60028F1
:10F68000FDD1704713B5144B1B685B04044613D5BA
:10F690002F2112480AF0E2F8A0B12F210F480AF0FA
:10F6A000DDF8411C0E4B0F4AD3F80435009201944B
:10F6B0004E22002004F0AAFF204602B0BDE8104010
:10F6C000FFF7D2BF5C2105480AF0C8F808B15C21F9
:10F6D000E4E70249E6E700BF041A0020A19902000E
:10F6E00000B00040BC9902007FB5174B1B685B045B
:10F6F00005460C46164618D5144B1B68ABB12F2196
:10F7000013480AF0ABF8B0B12F2111480AF0A6F85F
:10F71000411C104B104AD3F8043500920396029412
:10F7200001957022012004F071FF204604B0BDE86D
:10F730007040FFF799BF5C2105480AF08FF808B1C7
:10F740005C21E2E70249E4E7041A0020001A0020E5
:10F75000A199020000B00040819A02007FB5174BCA
:10F760001B685B0406460D46144618D5144B1B68EF
:10F77000ABB12F2113480AF071F8B0B12F21114815
:10F780000AF06CF8411C104B104AD3F80435009273
:10F790000396029501944822012004F037FF0120CE
:10F7A00004B0BDE87040FFF75FBF5C2105480AF078
:10F7B00055F808B15C21E2E70249E4E7041A0020A9
:10F7C000001A0020A199020000B0004084990200B4
:10F7D00007B5134B1B685B0412D52F2111480AF0A3
:10F7E0003DF898B12F210F480AF038F8411C0E4B14
:10F7F0000E4AD3F8043500920020542204F006FF8C
:10F80000012003B05DF804EBFFF72EBF5C21054833
:10F810000AF024F808B15C21E5E70249E7E700BFF8
:10F82000041A0020A199020000B00040769902005D
:10F8300073B501A8FFF710FF60B102AD4F2325F8A3
:10F84000063D094E1C4629460748FFF70BFF28B125
:10F8500002B070BD019803F02DFAEAE7304603F0DC
:10F8600027FAADF80240EEE7A41A002030B5414C6B
:10F870002368590485B0054617D53F4B1B68032BF9
:10F8800013D92F213D4809F0E9FF002856D02F2138
:10F890003A4809F0E3FF411C394B3A4AD3F80435A2
:10F8A000009204207A2204F0B1FE374B0293029BAF
:10F8B000039323685A0419D52F4B1B68032B15D9C2
:10F8C0002F212E4809F0CAFF002840D02F212B48B5
:10F8D00009F0C4FF411C2A4BD3F80435029A019267
:10F8E0002A4A00920420832204F090FE284603A9AD
:10F8F000FFF7B6FE029B039A9A4205461BD0236887
:10F900005B0418D51C4B1B68012B14D92F211B48F5
:10F9100009F0A4FF20B32F21184809F09FFF411CD4
:10F92000174B039AD3F804350192194A009202202A
:10F930008C2204F06BFE284605B030BD5C210F48D8
:10F9400009F08CFF08B15C21A2E70C49A4E75C2117
:10F950000A4809F083FF08B15C21B8E70749BAE714
:10F960005C21064809F07AFF08B15C21D4E703491D
:10F97000D6E700BF041A0020001A0020A199020057
:10F9800000B000401C9A0200C0190020389A020002
:10F99000489A020000B58BB00AAB1A4943F8240D0F
:10F9A0001846FFF75BFE18B1174A9321FFF7D6FE02
:10F9B000164A92F81633C3F34113012B1BD9144B8B
:10F9C0009968A1B11A6842F480021A601C220021D1
:10F9D00003A809F077FE03A8FFF748FF18B10A4A09
:10F9E0009A21FFF7BBFE00200BB05DF804FB4FF43B
:10F9F00080031360EAE7044A942142F20200FFF711
:10FA0000ADFEE3E7E9F60100A199020000E100E0A4
:10FA10007846002010B54B4C2368590486B017D5A2
:10FA2000494B1B68032B13D92F21484809F016FFB7
:10FA300000286CD02F21454809F010FF411C444B91
:10FA4000444AD3F8043500920420B52204F0DEFDC8
:10FA500001238DF8083000238DF809308DF80A3025
:10FA600007238DF80B300298FFF794FF23685A04A0
:10FA700017D5354B1B68032B13D92F21334809F0B9
:10FA8000EDFE00284CD02F21304809F0E7FE411C44
:10FA90002F4B314AD3F8043500920420BF2204F0E2
:10FAA000B5FD00230393059301238DF80C30072344
:10FAB0008DF80F3003A8294B049302F097FF18B17B
:10FAC000224AC421FFF74AFE23685B0416D51E4B69
:10FAD0001B68032B12D92F211C4809F0BFFE40B32D
:10FAE0002F211A4809F0BAFE411C194B1C4AD3F8C1
:10FAF000043500920420C62204F088FD02F0D4FFF1
:10FB000018B1124AC721FFF729FE06B010BD5C21CB
:10FB10000E4809F0A3FE08B15C218CE70B498EE783
:10FB20005C210A4809F09AFE08B15C21ACE707495C
:10FB3000AEE75C21054809F091FE08B15C21D0E7F1
:10FB40000249D2E7041A0020001A0020A1990200FD
:10FB500000B00040D5990200EE99020085F6010040
:10FB6000079A02004A09012301F01F0103FA01F17B
:10FB700050F82230194214BF0120002070470000C5
:10FB80002DE9F0474FF6FF73DFF84C80DFF84C901B
:10FB90000B8007460D4600244FF0140A21464046CC
:10FBA000FFF7E0FF064650B92A884FF6FF739A42E6
:10FBB00000D12C800134082CF0D1002609E00AFB8A
:10FBC000049010223946043009F062FD0028F1D17A
:10FBD0002C803046BDE8F087FC1A0020841D0020F0
:10FBE00008B548B978460B4B1B681BB198474FF6D0
:10FBF000FF7008BD00DEFAE7074B9842F7D303F524
:10FC00008A729042F3D8C01A5C23B0FBF3F080B242
:10FC100008BD00BF88460020261C002008B548B952
:10FC200078460D4B1B681BB198474FF6FF7008BD17
:10FC300000DEFAE7094B984209D303F19A02904299
:10FC400005D8C01A1623B0FBF3F080B208BD044BF0
:10FC50009842EAD1082008BD88460020481B0020B1
:10FC6000F81B00202DE9F84380460E4621B978465E
:10FC7000164B1B688BB19847306880B1FFF7B0FF17
:10FC8000441C134FDFF84C905C2505FB0475032CD6
:10FC900007D900233360BDE8F88300DEECE70446B3
:10FCA000EFE721464846FFF75DFF58B1AB7C88EA95
:10FCB00003035B0606D15C2000FB0474123434603D
:10FCC000BDE8F88301345C35E1E700BF88460020D9
:10FCD000141C0020101C00202DE9F0470446884623
:10FCE000164622B97846204B1B6893B1984724B931
:10FCF00078461D4B1B6873B198472046FFF770FF8D
:10FD00004FF6FF739842074607D100233360BDE8E2
:10FD1000F08700DEEBE700DEEFE73068F8B1FFF7D1
:10FD20007DFF441C1148DFF848A0162505FB04059B
:10FD30008146072CE9D821465046FFF713FF80B1D2
:10FD40006B88BB420DD16B7988EA03039B0608D10F
:10FD5000162000FB049404343460BDE8F0870446A8
:10FD6000E0E701341635E4E788460020441B002014
:10FD7000401B002038B504460D4621B97846084B93
:10FD80001B6853B1984734B1064B33F8042BA24299
:10FD90000CBF1C4600242C6038BD00DEF3E700BF1A
:10FDA00088460020F41B00202DE9F04707460D4649
:10FDB00021B97846274B1B68FBB198472C68264E23
:10FDC0006CB106F13C039C4219D306F5A87294422B
:10FDD00015D8E41A5C23B4FBF3F4A4B201344FF059
:10FDE0005C0808FB0468DFF878A008F15408032CCD
:10FDF00008D900232B60BDE8F08700DEDEE74FF670
:10FE0000FF74EBE721465046FFF7ACFE8146A0B1F8
:10FE100067B9124B1B78A3B95C235C4333193C349C
:10FE2000344483F83C902C60BDE8F08708224146BA
:10FE3000384609F02DFC0028EBD0013408F15C08AD
:10FE4000D5E75C23634336F80390B9FA89F94FEAA2
:10FE50005919E1E788460020141C00200A1C0020E4
:10FE6000101C00202DE9F34706460D4602F0B4FDB4
:10FE7000022839D0032812D001280ED1394B1B6833
:10FE800013F0010309D0384B1A88964205D35B88DA
:10FE900013449E424FF000035FDB00205AE04FF610
:10FEA000FF77DFF8CC80DFF8CCA00024B9464F45BF
:10FEB00009D121465046FFF755FE20B9A7B20134BB
:10FEC000102CF4D1E9E738F82420B2424FEA840339
:10FED000F5D14344DB78002BF1D003232B700023B2
:10FEE0006E806B60012035E06868E8B94FF6FF73FB
:10FEF000ADF80630BDF80640DFF87C801B4F072CBC
:10FF00004FF6FF7394BF01340024ADF806304FF074
:10FF10001409082CC1D021464046FFF723FE50B9F2
:10FF2000ADF806400134F4E70DF10601FFF728FEB5
:10FF30000028DBD0DEE709FB04F3DA5BB242F1D143
:10FF4000FA18D278002AA8D0043302221F446E8007
:10FF50002A706F6002B0BDE8F0876E8028706B6019
:10FF6000F8E700BFF81A00200C1C0020841D0020B8
:10FF7000001B0020F41A0020FC1A0020D0F8AC313D
:10FF80009B681847D0F8AC31DB68184773B5194B3C
:10FF90001B681B0704460D46164618D5164B1B68F2
:10FFA000032B14D92F21154809F058FCC8B12F2173
:10FFB000124809F053FC411C114B2A78D3F8043540
:10FFC0000192104A00920420DF2204F01FFBD4F8B3
:10FFD000AC311B6832462946204602B0BDE870406D
:10FFE00018475C21054809F039FC08B15C21DFE7BE
:10FFF0000249E1E7041A0020001A00209E9A02003C
:020000022000DC
:1000000000B00040BE9A0200D0F8AC315B681847DF
:1000100070B50E468CB01546044628B97846264B76
:100020001B68002B39D0984706F0FB03122B05D034
:100030007846214B1B68002B31D0984725B978466C
:100040001D4B1B686BB398471C4B1B781BB32C22B2
:10005000002101A809F036FB1022214602A80895CC
:1000600009F025FB2B785A1E534253418DF8183066
:10007000162E4FF003038DF8043014D1012304220F
:1000800004F112010DF11A008DF8193009F00FFB7F
:1000900001A801F031FF0CB070BD00DEC4E700DE46
:1000A000CCE700DED0E7002104220DF11A008DF824
:1000B000191009F007FBEBE788460020C81900205B
:1000C000F8B5154D2B68064623B97846134B1B68C7
:1000D00083B19847EFF3108772B62C68B4420BD007
:1000E0000E4DD4F8A8319E420CD1D6F8A831C4F8F0
:1000F000A83104E000DEEDE7D6F8A8312B6007B99F
:1001000062B6F8BD1BB978462B681BB19847D4F886
:10011000A841E6E700DEFAE7241E0020884600201A
:1001200038B590F89930023B022B04460D4604D9AD
:100130007846144B1B6803B398472046FFF7C0FF6F
:1001400094F89830012B04D078460E4B1B68B3B15D
:100150009847204605F034FF002304F1B80084F8E6
:10016000983084F8D83084F8993002F027FF294677
:100170002046BDE83840FFF705BF00DEDDE700DEC2
:10018000E7E700BF884600202DE9F0418846911C32
:10019000064615461F4605F043FE044620B36B1C79
:1001A0004374292383742A464146133009F07FFAA9
:1001B0002771EFF3108772B6D6F8A05101356B1C8A
:1001C000C6F8A05104D17846094B1B6853B1984733
:1001D00007B962B630462560214605F06BFE002067
:1001E000BDE8F08100DEF3E70420BDE8F08100BF48
:1001F0008846002000B5D0F8943089B01BBA00932F
:1002000000238DF804309DF805308DF80610022289
:1002100043F0030362F387038DF8053007220423BC
:100220006946FFF7B1FF09B05DF804FB38B50D462C
:10023000044620B97846184B1B68FBB19847022D3D
:1002400004D97846144B1B68D3B1984794F8993079
:1002500013F0FB0F1ED0023B012B04D978460E4B46
:100260001B687BB1984729462046FFF7C3FF58B962
:10027000042384F8993084F89C5038BD00DEDEE712
:1002800000DEE3E700DEEEE729462046BDE8384021
:10029000FFF746BF38BD00BF8846002000B5D0F844
:1002A000943089B01BBA00938DF804100123062204
:1002B00069468DF80530FFF767FF09B05DF804FB6C
:1002C00000B589B0D0F894309DF805201BBA009392
:1002D00000238DF8043042F00302012363F3870208
:1002E0008DF8052069460622FFF74EFF09B05DF83C
:1002F00004FB10B5044602F01DFFD4F8D4100144ED
:1003000004F1B800BDE8104002F08ABE30B5074DD8
:100310000246FF23141AA14202DCD843C0B230BD0A
:1003200012F8014B6340EB5CF4E700BFD29A020085
:100330002DE9F0410B78012B92B005460C4616468C
:1003400004D07846164B1B682BB3984704F1040879
:1003500061784046FFF7DAFFA37883421DD195F814
:100360009A10284600270136FFF798FFE77085F8B6
:100370009A6066784146324601A809F098F9284605
:100380002770FFF7B6FF324601A92846FFF7FEFDAA
:1003900012B0BDE8F08100DED8E700232370F7E754
:1003A000884600202DE9FF4188461446054620B9BD
:1003B0007846A34B1B6833B3984724B97846A04BC3
:1003C0001B6813B398472B681A0E190242EA03629E
:1003D00001F47F011B0A0A4303F47F431343EFF345
:1003E000108172B6974E34688CB901B962B66879DB
:1003F00000F00303032B00F2F180DFE813F00F009D
:100400003501AA01350200DED7E700DEDBE7D4F8CC
:1004100094209342E9D0D4F8A841E5E7002C00F0FD
:10042000DD8094F89930032B40F0D88094F8D830D0
:10043000002B62D12A7994F89A309A4231D3EB8812
:100440001B0A84F8D93017220233B3FBF2F30133CD
:10045000DBB2072B06D90221204604B0BDE8F041EB
:10046000FFF7E4BE2B7A84F8DA30A8F109080123FB
:1004700084F8D83084F8DB30424605F1090104F1F4
:10048000DC0009F014F994F8D930984540F0A680C2
:100490002A7904F1D801204604B0BDE8F041FFF705
:1004A00047BF694B1B681A0717D5684B1B68042B9D
:1004B00013D92F21664809F0D1F9A8B12F2164483A
:1004C00009F0CCF9411C634B634AD3F80435009220
:1004D00040F2A322052004F099F82979204604B0BF
:1004E000BDE8F041FFF7DABE5C21594809F0B6F9E2
:1004F00008B15C21E3E75649E5E7022B524B79D17D
:10050000297994F89A201B68914220D21B07E4D5E0
:100510004E4B1B68042BE0D92F214D4809F09EF962
:1005200060B12F214A4809F099F9411C494B4A4AC8
:10053000D3F80435009240F2AF22CBE75C21444867
:1005400009F08CF908B15C21ECE74149EEE726D9C6
:100550001F0743D53D4B1B68012B3FD92F213C483A
:1005600009F07CF990B12F21394809F077F9411C45
:10057000384B94F89A20D3F8043502922A790192E4
:10058000364A00924FF42D72022025E05C2130485B
:1005900009F064F908B15C21E6E72D49E8E71E0798
:1005A0001CD52A4B1B68042B18D92F21284809F089
:1005B00055F9B0B12F21264809F050F9411C254BBF
:1005C00094F89A20D3F8043502922A790192244AA9
:1005D000009205204FF42E7204F018F804B0BDE824
:1005E000F0815C211A4809F039F908B15C21E2E791
:1005F0001749E4E71B681C07F0D5144B1B68012B57
:10060000ECD92F21124809F029F978B12F2110488F
:1006100009F024F9411C0F4B124AD3F8043500921B
:1006200040F2BD22022003F0F1FFD7E75C21084829
:1006300009F014F908B15C21E9E70549EBE700BFCF
:1006400088460020241E0020041A0020001A0020E2
:10065000409E020000B00040D29B0200229C02009B
:100660006C9C0200A59C0200002CB7D094F8993035
:10067000032BB3D194F8D830022BAE4B45D1297956
:1006800094F89B20914240D11B6818071AD5AA4BB9
:100690001B68032B16D92F21A84809F0DFF858B39F
:1006A0002F21A64809F0DAF8411CA54B94F8DC206C
:1006B000D3F804350192A34A009204204FF43E720D
:1006C00003F0A4FF002504F1A000C4F8AC5002F030
:1006D00075FC204605F074FC94F89B3084F8D850E3
:1006E0000133204684F89B30FFF703FE204604B018
:1006F000BDE8F041FFF788BC5C21904809F0AEF8F6
:1007000008B15C21CDE78D49CFE71B6819077FF55C
:1007100065AF894B1B68012B7FF660AF2F2187489F
:1007200009F09CF860B12F21844809F097F8411C2A
:10073000834B854AD3F80435009240F20A3271E7C0
:100740005C217E4809F08AF808B15C21ECE77B491E
:10075000EEE7002C3FF442AF94F89930032B7FF47E
:100760003DAF94F8D860297994F89A30012E4CD195
:10077000994225D194F8DB3080080341DA073FF530
:100780002DAF1727013807FB0040A8F10602A91D6D
:10079000F03008F08CFF6B7994F8DB209B0806FAA8
:1007A00003F3134394F8D9200232B2FBF7F7013771
:1007B000DBB2FFB284F8DB30BE400133B34265E602
:1007C0005C4B1B681B077FF509AF5B4B1B68012B5C
:1007D0007FF604AF2F21594809F040F860B12F216E
:1007E000564809F03BF8411C554B584AD3F804359C
:1007F000009240F2E22215E75C21504809F02EF801
:1008000008B15C21ECE74D49EEE79942FFF466AE92
:100810007FF6E4AE474B1B681F077FF5DFAE464B04
:100820001B68012B7FF6DAAE2F21444809F016F839
:1008300088B12F21414809F011F8411C404B94F830
:100840009A20D3F8043502922A790192404A009204
:1008500040F2EE2298E65C21384808F0FFFF08B12C
:100860005C21E7E73549E9E78008012874D023D304
:10087000022800F0D2802F4B1B681B077FF5AEAE1D
:100880002D4B1B68012B7FF6A9AE2F212B4808F0BA
:10089000E5FF002800F026812F21284808F0DEFF20
:1008A000411C6A79264B9208D3F804350192294AF3
:1008B00000924FF45B72A3E0B8F1160F7FF48EAE96
:1008C00001F016FB10220146A81D08F0E1FE0028E9
:1008D0007FF484AE002C40F01381EFF3108372B6E6
:1008E00034681CB9002B00F0078177E694F8992052
:1008F000012A00F00081D4F8A841F2E75C210F48FA
:1009000008F0ACFF08B15C2127E10C4929E1002384
:10091000C4F8943062E6032B7FF460AE94F8D830CC
:10092000002B7FF45BAE204604B0BDE8F041FFF73A
:10093000C7BC00BF041A0020001A0020409E02001D
:1009400000B00040D79C0200F29C0200129D020001
:10095000439D0200199E0200002C3FF43FAEB8F107
:10096000060F7FF43BAE94F89930894D022B2AD1C3
:10097000204605F025FB1421204605F0EDFA2B68F2
:100980001D0740F1F880834B1B68032B40F2F38076
:100990002F21814808F062FF60B12F217E4808F0C6
:1009A0005DFF411C7D4B7E4AD3F8043500924FF425
:1009B0005272DDE05C21784808F050FF08B15C21FC
:1009C000ECE77549EEE72B6818077FF507AE714B2A
:1009D0001B68012B7FF602AE2F216F4808F03EFF07
:1009E00090B12F216C4808F039FF411C6B4B94F8F3
:1009F0009920D3F8043501926A4A00924FF4547258
:100A0000022003F003FEE9E55C21634808F026FFBD
:100A100008B15C21E6E76049E8E7002C3FF4DEAD71
:100A2000B8F1070F7FF4DAAD94F89930584E023BD5
:100A3000012B30D894F8D830022B03D104F1A00058
:100A400002F0BCFAA9792046FFF76AFB3368190760
:100A50007FF5C4AD4F4B1B68032B7FF6BFAD2F2135
:100A60004D4808F0FBFE68B12F214B4808F0F6FE18
:100A7000411C4A4B4C4AD3F804350092042040F202
:100A80006232D0E55C21444808F0E8FE08B15C2100
:100A9000EBE74149EDE733681A077FF59FAD3D4B22
:100AA0001B68012B7FF69AAD2F213B4808F0D6FE3C
:100AB00078B12F21384808F0D1FE411C374B94F80B
:100AC0009920D3F804350192384A009240F26732F7
:100AD00096E75C21304808F0C1FE08B15C21E9E7E7
:100AE0002D49EBE75C212C4808F0B8FE08B15C21E9
:100AF000D3E62949D5E61BB962B6002C3FF46EADAA
:100B000094F89930012B7FF406AF2B681A0E190266
:100B100042EA036201F47F011B0A0A4303F47F43A4
:100B200013432046C4F89430142105F015FA2046EA
:100B3000FFF7C6FB00287FF4EAAE154B1B681E07C3
:100B400019D5144B1B68032B15D92F21124808F017
:100B500085FE00283FF4D2AE2F210F4808F07EFE1C
:100B6000411C0E4B0E4AD3F80435009240F22B3252
:100B7000042003F04BFD0323204684F89930FFF74F
:100B8000B8FB204604B0BDE8F041FFF7F7B900BF5D
:100B9000041A0020001A0020409E020000B000400D
:100BA000899D02009F9D0200D09D0200E69D0200EB
:100BB0007047000008B5064802F000FA054B002215
:100BC0001A70DA811A825A7001221A7308BD00BFA6
:100BD000941E0020AC1E002000B5104A8DB01323D7
:100BE0008DF8043053788DF8093013468DF81400D1
:100BF00053F8021FCDF80A1059681B89ADF812305E
:100C00001378CDF80E108DF80830FFF7D3FF01A848
:100C100001F072F90DB05DF804FB00BFAC1E0020BE
:100C20002DE9F0470378242B92B0054600F0FC81B3
:100C300000F28180202BB64A00F0048128D8012BD5
:100C400000F09783C0F0D380022B00F00582B04BF8
:100C50001B681B0640F1B881AE4B1B68012B40F2AC
:100C6000B3812F21AC4808F0F9FD002800F0B283D1
:100C70002F21A94808F0F2FD411CA84BA84AD3F83F
:100C800004350092022040F2592203F0BFFC9BE1A0
:100C9000222B00F0798100F1060640F2FD801368F6
:100CA0001F0619D59B4B1B68032B15D92F219A487A
:100CB00008F0D4FD002800F0AE812F21964808F0FE
:100CC000CDFD411C954B974AD3F804350092042082
:100CD0004FF4D77203F09AFC2979934B934819701B
:100CE00001290CBF052209221A7300243268C3F8B7
:100CF0000220DC81726833894260038112208DF802
:100D00001C0068798DF821003068CDF82200884DEC
:100D10008DF8201007A8CDF82620ADF82A3001F074
:100D2000EBF8844BAB6002F005FA83490144284696
:100D300002F076F95EE0602B00F0048228D8502B98
:100D400000F0C781512B00F0D581252B7FF47FAFB8
:100D50006F4B1B681C0619D56E4B1B68032B15D9EE
:100D60002F216D4808F07AFD002800F06C812F21BA
:100D7000694808F073FD411C684B704AD3F804358C
:100D8000009204204FF4E77203F040FC002077E06B
:100D9000622B00F09B825E4EC0F07182702B00F0DF
:100DA000AA82712B7FF453AF336819061BD5594BB8
:100DB0001B68032B17D92F21574808F04FFD002837
:100DC00000F0CE822F21544808F048FD411C534BBF
:100DD0006A68D3F804350192594A0092042040F21F
:100DE0004D2203F013FC524802F0E8F802E01368C9
:100DF000180603D4002012B0BDE8F087454B1B68ED
:100E0000032BF7D92F21444808F028FD88B12F2162
:100E1000414808F023FD411C404B4A4AD3F80435B1
:100E200000920435019540F27B12042003F0EEFBA2
:100E3000E0E75C21384808F011FD08B15C21E7E7E4
:100E40003549E9E71368190619D5324B1B68032B9E
:100E500015D92F21304808F001FDA0B12F212E48CF
:100E600008F0FCFC411C2D4B2A79D3F80435019283
:100E7000354A0092042040F27F1203F0C7FB287924
:100E8000FFF7AAFEB6E75C21234808F0E7FC08B1AB
:100E90005C21E4E72049E6E713681A0618D51D4BE4
:100EA0001B68032B14D92F211B4808F0D7FC0028FE
:100EB00050D02F21184808F0D1FC411C174B234A71
:100EC000D3F80435009204204FF4C37203F09EFB64
:100ED000162332688DF81C306B79CDF821207268AA
:100EE000CDF82520022B32898DF82030ADF829204D
:100EF00039D0042B3BD0012B7FF47CAF144B1B6803
:100F00001B88ADF82B3007A800F0F6FF72E700BF92
:100F1000041A0020001A0020909E020000B0004039
:100F2000FE9F0200139F0200AC1E0020AE1E002098
:100F3000941E0020F518020080F0FA021F9F0200A4
:100F4000D59F0200C49E0200CF9E0200EB9E0200CD
:100F5000F81F00205C21714808F080FC08B15C217A
:100F6000A8E76E49AAE76E4B1B685B88C9E76C4B24
:100F70001B6853F8042FCDF82B205A68CDF82F208A
:100F80001B89ADF83330BEE713681B0617D5654BD8
:100F90001B68032B13D92F21604808F05FFCA8B110
:100FA0002F215E4808F05AFC411C5F4B5F4AD3F882
:100FB0000435009204204FF4CB7203F027FB2B7909
:100FC000022B0CD0032B1FD0062014E75C215348C2
:100FD00008F044FC08B15C21E3E75049E5E7102341
:100FE0008DF81C30AB798DF820302B4653F8072F45
:100FF000CDF821205A681B89ADF829306B7CCDF8DB
:1010000025208DF82B307EE711238DF81C30AB792D
:101010008DF8203077E75C21404808F01FFC08B1CC
:101020005C214BE63D494DE6414B424CDA890132A9
:10103000DA81C2881A82404BA36002F07BF83F49F4
:101040000144204674E65C21344808F007FC08B1EE
:101050005C218DE631498FE61368180617D5314BB0
:101060001B68032B13D92F212C4808F0F7FB38B34A
:101070002F212A4808F0F2FB411C2B4B304AD3F8B1
:1010800004350092042040F2D51203F0BFFA142375
:101090008DF81C302B798DF820302B4653F8062F15
:1010A000CDF821205A681B89ADF82930EB690B93E4
:1010B0002B6A0C936B79CDF825208DF8343022E71C
:1010C0005C21164808F0CAFB08B15C21D1E713493E
:1010D000D3E74368C3F30B02002A40F0A781022143
:1010E000089383688DF81C1007A91046099301F036
:1010F00085FB80E64068810740F09881A9688A07EF
:1011000040F09481EB6813F0030240F091810124D8
:101110008DF81C4008900A91E6E700BF909E0200FF
:10112000F81F0020001A002000B00040FB9E0200C3
:10113000AC1E0020941E0020F51802008096980036
:101140002A9F0200A74F3B681B0628D5A64B1B68A9
:10115000032B24D92F21A54808F080FB00287CD040
:101160002F21A24808F07AFB411C95F80CE0A04E14
:10117000A04AA14BA87BD3F804356C7BBEF1000FCD
:1011800008BF32466E68368803929C4A01900092EE
:10119000049602944FF40472042003F037FAAC7BF7
:1011A000974E04EBC4084FEA880806EB080393F84F
:1011B00020300BB33B681F061ED58B4B1B68012BE1
:1011C0001AD92F21894808F049FB00284ED02F2139
:1011D000864808F043FB411C242202FB0462864B34
:1011E00092F82120D3F804350192864A0092022019
:1011F00040F2162203F00AFA4FF0240909FB04F921
:1012000006EB0907002487F8204001F093FF2B7BB1
:10121000BB71824687F8214087F82240BC807A481B
:1012200002F0CCF80AF57A7A1AFA80F046F809004A
:10123000AB68FB7708F107006968AA68304408F0DA
:1012400036FA72486B7B87F8203056F809104368ED
:10125000CB1AA342BFF6CEAD6AE55C21634808F025
:10126000FDFA08B15C217CE760497EE75C215F48BC
:1012700008F0F4FA08B15C21AAE75C49ACE73368EE
:101280001C067FF5B7AD584B1B68032B7FF6B2AD3C
:101290002F21564808F0E2FA78B12F21534808F080
:1012A000DDFA411C544B5A4AD3F80435009204200D
:1012B00040F2312203F0AAF99CE55C214B4808F08A
:1012C000CDFA08B15C21E9E74849EBE70379072B40
:1012D00000F2B0804A4903EBC30201EB820292F8AC
:1012E0002020002A00F0A880242202FB0313002003
:1012F00083F820007FE5474F474BBB6001F01AFFA2
:10130000AC6804442146384601F08AFE336818066A
:101310007FF570AD344B1B68032B7FF66BAD2F212F
:10132000324808F09BFA90B12F21304808F096FA25
:10133000411C314BD3F804350294AA680192374A14
:10134000009204204FF4127203F060F952E55C2120
:10135000264808F083FA08B15C21E6E72349E8E76C
:101360005C21224808F07AFA08B15C212BE51F497C
:101370002DE513681A061CD51B4B1B68CBB12F211A
:101380001A4808F06BFAD0B12F21184808F066FA15
:10139000411C194BEA68D3F804350392AA680292FB
:1013A0006A6801921E4A0092012040F2552203F021
:1013B0002DF978461B4B1B6853B198471AE55C2101
:1013C0000A4808F04BFA08B15C21DEE70749E0E77C
:1013D00000DE0FE55C21054808F040FA20B35C21EF
:1013E00047E400BF041A0020001A0020909E02006B
:1013F000AF9E0200BB9E020000B000403F9F020073
:10140000C01E0020779F0200841E0020E01F0020E5
:10141000AA9F0200941E002075190200B79F0200C7
:10142000E79F020088460020044926E41020E2E4F9
:101430000920E0E40720DEE40820DCE4909E0200BE
:1014400008B58379012B15D008D3022B1BD0784621
:10145000114B1B68F3B19847002008BD90F821207C
:10146000012393408288006810440C4A013B02FB30
:10147000030008BD0268838890F821001344074ADE
:1014800002FB003008BD0268838890F821001344F5
:10149000034AF5E700DEDFE788460020A08601006A
:1014A000809698002DE9F84F394CDFF8F88000F16C
:1014B0000045013D0027A8EB0008A4F1070A637E60
:1014C000A4F1070963B34846FFF7BAFF18EB000F12
:1014D00006461ED5E37E012B2DD9A37E627E9A425D
:1014E00006D901332B48A37601F068FF24F8030CDA
:1014F000242202FB07A20023E376118C4FF6FF7231
:1015000091423ED144F8076CA3764846FFF798FF16
:101510000646637E23B1731B35EA230528BF354693
:101520000137082F04F12404C9D129461A48BDE81F
:10153000F84F01F075BDDFF870B09BF83030002B2C
:10154000D6D1227E154802F10A034370D31C4372A0
:10155000162383726FF01B03C3726FF001030373D2
:1015600021460D3008F0A3F8584604F0EBFF0028A0
:10157000B3D078460A4B1B680BB19847ADE700DE45
:10158000ABE7627EA17E914228BF6376BDE700BFD4
:10159000C71E0020841E0020E01F0020281E0020FF
:1015A0008846002018FCFFFF501E002037B51D4D57
:1015B0002B6804462BBB1C4B1B681B0616D51B4B0C
:1015C0001B689BB12F211A4808F048F980B12F21E0
:1015D000174808F043F9411C164B174AD3F8043555
:1015E0000092012040F2853203F010F8062413E047
:1015F0005C210F4808F032F908B15C21E8E70C499A
:10160000EAE760B1012001F0A7F920462B6898476E
:101610000446002001F0A0F9204603B030BD0E249E
:10162000FAE700BF84460020041A0020001A0020B8
:10163000909E020000B0004050A00200F0B54FF0B4
:10164000805193B0D1F80C31434E03F500239B0237
:1016500053F8043C002B7AD04FF01020426901323D
:1016600075D04C690A6962439A4270D942699342C3
:101670006DD33A4A3A48136001F0DAFE394B3A4AE0
:101680009A600021D96019615961384B384A9A60D3
:1016900068461822D9601961596108F013F8354B72
:1016A00002930125082368468DF804508DF80C50EC
:1016B0008DF80D308DF80E50FFF778FF044618B105
:1016C0003573204613B0F0BD2B4F0CA804F088FCF6
:1016D00006220DF13101F81C07F0E9FF9DF83020DA
:1016E0003B78264926480894520862F38613022262
:1016F00062F303033B70234BADF81C2019620321F6
:1017000083F82C109977252159771F4998621C7707
:101710009F61596206A830238DF81830FFF746FF05
:10172000274604460028CBD1184B089A1A60014678
:1017300018220CA807F0C6FF0CA88DF83050FFF750
:1017400035FF13490446384601F042F8B8E7012353
:1017500033730624B5E700BFAC1E0020844600208A
:10176000841E0020941E002075190200E01F002036
:10177000A5140200210C0200281E0020D6BE898E6E
:101780004DA00200501E0020B10B0200F81F0020E7
:101790009517020010B50C4688B028B178464D4B1D
:1017A0001B68002B30D098472378022B37D0032BAF
:1017B0005FD0012B40F0868060238DF80830E3680D
:1017C0000393454B1B68190619D5444B1B68032B23
:1017D00015D92F21424808F041F8B8B12F214048CF
:1017E00008F03CF8411C3F4BE268D3F80435019205
:1017F0003D4A00924FF4A272042002F007FF02A8B3
:10180000FFF7D4FE08B010BD00DECDE75C21344800
:1018100008F024F808B15C21E1E73149E3E76123EE
:101820008DF80830636803932B4B1B681A06E6D5C6
:101830002A4B1B68032BE2D92F21294808F00EF808
:1018400070B12F21264808F009F8411C254B626829
:10185000D3F804350192254A009240F24912CBE7B1
:101860005C211F4807F0FAFF08B15C21EAE71C4938
:10187000ECE762238DF80830174B1B681B06BED5BA
:10188000164B1B68032BBAD92F21154807F0E6FF2A
:1018900078B12F21124807F0E1FF411C114B144A87
:1018A000D3F804350092042040F24D1202F0AEFE4F
:1018B000A5E75C210A4807F0D1FF08B15C21E9E700
:1018C0000749EBE77846034B1B680BB1984796E74F
:1018D00000DE94E788460020041A0020001A002049
:1018E000909E020000B0004012A0020029A0020059
:1018F00040A0020010B51A4B1B681B0688B00446B6
:1019000018D5184B1B68032B14D92F21164807F044
:10191000A5FFD8B12F21144807F0A0FF411C134B9D
:10192000134AD3F804350092019440F2291204209E
:1019300002F06CFE08A8232300F8183DFFF736FEDE
:1019400010B90620FFF748F908B010BD5C21064821
:1019500007F084FF08B15C21DDE70349DFE700BF42
:10196000041A0020001A0020909E020000B00040DF
:10197000779E020010B5194B1B681B0688B0044601
:1019800018D5174B1B68032B14D92F21154807F0C6
:1019900065FFD0B12F21134807F060FF411C124BA7
:1019A000124AD3F80435009201944FF49A7204203D
:1019B00002F02CFE03238DF8083002A800238DF8D6
:1019C0000C30FFF7F3FD08B010BD5C21054807F0AF
:1019D00045FF08B15C21DEE70249E0E7041A002078
:1019E000001A0020909E020000B000407D9E020080
:1019F0002DE9F0412E4B1B7B86B004460D46002B93
:101A00004DD000284DD002884FF6F8739A424AD93B
:101A100000F088FF002848D123884FF6FC729342DB
:101A200027D166882EB3234A4FF0240E174692F82A
:101A3000201071B30EFB0071B1F807C09C4528D18E
:101A4000B1F809C0B44524D1D1F80B80D4F804C052
:101A5000E0451ED192F822C0BCF1FF0F19D0EFF380
:101A6000108372B691F82220013281F8222003B946
:101A700062B618220021684607F024FE0223684659
:101A80008DF8003001940295FFF790FD06B0BDE897
:101A9000F0810130082802F12402C8D1E9E70820CA
:101AA000F4E70E20F2E71020F0E71120EEE700BF88
:101AB000AC1E0020C01E00202DE9F0411F4C94F800
:101AC0000C80B8F1010F86B007460E4632D199B3AB
:101AD00092B320238DF800300B68CDF805304B68A9
:101AE0008DF80400CDF8093068460B89ADF80D304B
:101AF0000492FFF75BFD0546C0B93368C4F80230B5
:101B00007368C4F8063033896381032323730C4B55
:101B10000C4A84F800806770E08120829A6001F0AE
:101B200009FB09490144094801F07AFA284606B040
:101B3000BDE8F0810825F9E70E25F7E7AC1E002087
:101B4000941E0020F518020080C3C901E01F002088
:101B500070B5184C237B86B006460D462BB331B3C7
:101B600021238DF800300B68CDF805304B68CDF897
:101B700009300B898DF80400ADF80D30684600235C
:101B80000493FFF713FD70B90223E21823702B684A
:101B9000C4F802306B6853602B8913810823667088
:101BA0002373E081208206B070BD0820FBE70E2081
:101BB000F9E700BFAC1E00207FB5084B1B7B53B17B
:101BC00024238DF8040068468DF80030FFF7EEFC02
:101BD00007B05DF804FB0820FAE700BFAC1E002048
:101BE000094B1B78062B0CD1084B1B681A0708D130
:101BF000074B186800F0F000A0F13003584258413C
:101C000070470020704700BFE00F00F0E40F00F0C5
:101C1000E80F00F00C4B1B78062B10D10B4B1B6808
:101C20001A070CD10A4B186800F0F003302B08D0CB
:101C300000F0E000A0F140035842584170470020F6
:101C400070470120704700BFE00F00F0E40F00F084
:101C5000E80F00F008B5FFF7DDFF28B1774B784AB1
:101C60001B68C3F304231360FFF7BAFF10B1754B71
:101C7000754A1A60FFF7CEFF28B1744B744A1B688F
:101C8000C3F342331360FFF7ABFF20B1714AD3684F
:101C900023F08073D360FFF7BDFF40B14FF0804366
:101CA0000022C3F80C21C3F81021C3F83825FFF730
:101CB00097FF10B1684B03221A60FFF791FF40B104
:101CC000664B05221A6001229A6700229A603F2221
:101CD0005A60634B1B78062B09D1624B1B681907AE
:101CE00005D1614B1B6803F0F003502B5ED0FFF76A
:101CF00091FF28B15D4B5E4A1B6803F04F031360F0
:101D0000FFF788FF48B14FF08043D3F80024D20793
:101D100044BF6FF00102C3F80024564AD2F888305D
:101D200043F47003C2F88830BFF34F8FBFF36F8F57
:101D30004FF01023D3F80022002A03DBD3F804323B
:101D4000002B2FDA4C4B0122C3F80425D3F80024D2
:101D5000002AFBD04FF010221521C2F80012D3F850
:101D60000024002AFBD04FF010231522C3F80422D0
:101D7000414B1A46D3F800140029FBD00021C3F8C8
:101D80000415D2F80034002BFBD0BFF34F8F394934
:101D90003A4BCA6802F4E0621343CB60BFF34F8F43
:101DA00000BFFDE7364B374A1A6008BD4FF080523E
:101DB000354BD2F80414C3F82015D2F80814C3F830
:101DC0002415D2F80C14C3F82815D2F81014C3F84F
:101DD0002C15D2F81414C3F83015D2F81814C3F81F
:101DE0003415D2F81C14C3F84015D2F82014C3F8E7
:101DF0004415D2F82414C3F84815D2F82814C3F8AF
:101E00004C15D2F82C14C3F85015D2F83014C3F87E
:101E10005415D2F83414C3F86015D2F83814C3F846
:101E20006415D2F83C14C3F86815D2F84014C3F80E
:101E30006C15D2F84424C3F8702558E72403001029
:101E40004035014074C007400DF0ADBA44020010A7
:101E50003C050040F0ED00E0A005004010560040B9
:101E6000E00F00F0E40F00F0E80F00F0580200105F
:101E7000E40E004000ED00E000E001400400FA053F
:101E8000CC1900200090D00300C000400649074A4A
:101E9000074B9B1A03DD043BC858D050FBDCFFF70F
:101EA000D9FEFDF7E3F90000C0A30200C01900202D
:101EB000801A0020FEE7FEE7FEE7FEE7FEE7FEE70A
:101EC000FEE7FEE7FEE7FEE710B5064C06490822EE
:101ED000204607F0ECFB0822A0180449BDE810409A
:101EE00007F0E5BBFC1F002060000010A4000010FC
:101EF00000487047FC1F002038B5054620B97846D9
:101F0000074B1B684BB19847064B1C683CB154F813
:101F1000043C284698472468F8E700DEF4E738BD1B
:101F2000884600200C200020F8B5064620B97846E7
:101F3000194B1B68ABB19847351D04D17846164B39
:101F40001B6883B19847154F3B689D4204D1784682
:101F5000114B1B684BB198473C684CB93D607460AD
:101F6000F8BD00DEE8E700DEEDE700DEF4E71C4642
:101F7000236813B1A542FAD1F8BD25B97846064BBE
:101F80001B6833B19847A5421EBF23687360256064
:101F9000F8BD00DEF7E700BF884600200C200020D7
:101FA00010B5044620B97846044B1B6823B1984706
:101FB0002346BDE81040184700DEF9E788460020B8
:101FC00008B508220221094802F018FF20B9084884
:101FD000BDE8084003F0AEB8064A91684160127B44
:101FE0000272BDE8084002F045BF00BF1420002087
:101FF000E01900205020002038B50D4D2B78B3B9E2
:102000000C4B5C6804F50054B4F1807F0FD80422B7
:102010000121094802F0F2FE20B90848BDE8384025
:1020200003F088B8446002F025FF01232B7038BD0F
:10203000642000205020002014200020D01900200F
:1020400030B50D468DB09AB94B88012B0CD1164C8A
:10205000227822B97846154B1B683BB19847144B40
:102060006A685A60002323700DB030BD00DEF6E7C9
:10207000032A04D078460D4B1B6893B198472C2255
:10208000002101A807F01EFB19238DF80430094B2D
:102090000395DA681B69059201A80693FFF72CFFE8
:1020A000E2E700DEEBE700BF642000208846002066
:1020B000502000201420002070B503F05DF8D8B146
:1020C00001F05CFC002211461A481A4C02F060FE36
:1020D0000026354690B9184C05B1EEB900232360AF
:1020E000A3602373FFF76CFF23686360FFF784FF2F
:1020F000BDE8704001F064BC20BFDEE74388012BDF
:1021000008D0022B00D1051D02460021204602F016
:102110003FFEDFE7061DF7E72B68A3602B792373EB
:10212000B54203D92B790BB92060DDE73368236012
:10213000DAE700BF142000205020002008B503F08B
:1021400059F8A0F5805008BD7FB5002118226846D7
:1021500007F0B8FA00230293FFF7F0FF0123009085
:1021600001936946054B0648039302F0BFFE10B188
:10217000044802F0DFFF07B05DF804FB41200200D5
:1021800014200020F019002008B5142200210B486B
:1021900007F098FA00F0CEFF094B0A4A9A600A4904
:1021A0000A4A5860DA60184600221A615A610A70B9
:1021B00000F0DCFEBDE80840FFF7C6BF502000205D
:1021C00038200020C12202006520002000879303F0
:1021D00030B58DB001F0D2FB144B1A7B1D461ABBF3
:1021E0009A7B0ABB1A8A41F282639A4202D8104B48
:1021F0001B78CBB101232B73AB6800240133AB6098
:102200002C82FFF7DDFEAB682A7B8DF80820013BAE
:102210000CA80393022300F82C3DFFF76DFE01F09C
:10222000CFFB20460DB030BD0824F8E75020002039
:102230006520002010B58CB001F0A0FB1D4B5A7B2F
:1022400042B1997BA9B9188A41F28261884201D8CA
:10225000194A127802F001048AB1197B00225A73DC
:1022600049B1012910D07846144B1B68FBB198473F
:1022700005E00022EEE7FFF7ABFF0028F3D101F005
:102280009FFB20460CB010BD1A605A601A731A8268
:102290000CA89B680393022300F82C3D8DF80820BE
:1022A000FFF72AFEFFF78CFEFFF7A6FEE7E700DE4A
:1022B000E5E700BF50200020652000208846002070
:1022C00038B5194C257B3DB1012D14D07846174BFC
:1022D0001B683BB3984721E0228A41F282639A420D
:1022E00002D8134B1B78CBB1FFF7A4FF638A0BB165
:1022F000013B638238BD238A41F28262934202D855
:102300000B4A157855B142F2B012934282BF0123B5
:1023100000256373FFF78EFF002DE7D0238A01337A
:102320002382E3E700DEF9E7502000208846002002
:102330006520002038B5164C94E80C009A420546FA
:102340001FD2207B1349144B012808BF0B46934230
:1023500007D963682268403B9A4208D3FFF74CFED6
:1023600005E001236373FFF765FF0028F1D0EFF369
:10237000108072B623685A1C22602B6028B962B69E
:1023800038BDFFF739FE0F2038BD002038BD00BF33
:102390005020002000E0FF00FFFF7F0010B50E4C32
:1023A00030B10E4B01229A7323681344236010BD91
:1023B000236823B978460A4B1B6853B198472368B2
:1023C000013B23603BB9054A9373BDE81040FFF71A
:1023D00031BF00DEF3E710BD1020002050200020A8
:1023E0008846002070B5234C8CB005460E4601F09F
:1023F000C5FA237B002B37D1638A53BBA3682EB960
:10240000AB4206D301F0DCFA0CB070BD01339D4243
:1024100021D9A3682A339D42F4D8A37B002BF1D1A4
:1024200042F60652236063602382628263732373E1
:10243000A560FFF7C5FDFFF7DFFD237B8DF80830B2
:102440000CA80223A26800F82C3D0392FFF754FD6C
:10245000D8E7002ED6D0A36801339D42D2D1012304
:102460006373FFF7E7FECDE7012BCBD1002EC9D177
:10247000A368F2E750200020014B9868704700BF26
:1024800050200020034B1A7B9868012A08BF00F1F6
:10249000FF30704750200020044B9B685840C20713
:1024A00048BF03F1FF331846704700BF502000209B
:1024B000014B187B704700BF502000202DE9F843E6
:1024C0001C4CDFF8749000260221204601F0B6FF74
:1024D0005FFA86F805460027A5B967B12946204668
:1024E00002F046F8082806D154F8043C1BB12A46ED
:1024F0004946404698470136032E04F1B804E3D11B
:10250000BDE8F88354F8043C23B134F80C2C294678
:102510004046984734F80C3C02210133204624F809
:102520000C3C01F0B1FF0221204601F087FF01378A
:102530000546D1E77C20002068A0020010B50121EB
:1025400004460C3001F07AFF00283BD01E4BC4F843
:102550009C300023C4F8A03003786268012B09D0B6
:10256000022B27D07846194B1B6843B398474FF48A
:10257000FA7307E083689B1A9A084FF4A9735343D0
:1025800003F5FA73124A934294BFC4F8A430C4F816
:10259000A4200123C4F8A84084F8B43004F19C00BE
:1025A00003F01CFE70B17846084B1B684BB1BDE8C8
:1025B0001040184783689B1A1A0B064BDFE700DEB2
:1025C000D5E700DE10BD00BFD925020088460020F7
:1025D000A0860100645E01002DE9F74F564B1B7881
:1025E00081460C463BB103F043FE002384F8B4302F
:1025F00003B0BDE8F08F01F10C0AD1F8A460504699
:10260000012101F01BFF054620B978464B4B1B68A2
:10261000A3B19847494FDFF82CB1A6F5FA78002608
:102620002B78012BA8EB06060AD0022B47D0784660
:102630003B68002B5FD09847002327E000DEE9E7E6
:102640004FF4A9726368B6FBF2F6AA68B600D21A14
:10265000964228BF164636B978463A68002A2CD0EA
:1026600001939047019BE968686823F003033246B1
:102670001944184406F03EFB20B178463B68002B15
:1026800037D0984763681E446660AB6862689A42B8
:1026900033D103F0EDFD5046012101F0F5FE00239A
:1026A000636084F8B430264B186801F0D1F92046F5
:1026B00003B0BDE8F04FFFF741BF00DED3E763682A
:1026C000AA68B6FBFBF6D21A3603964228BF164616
:1026D0002EB978463A6852B101939047019B6868D9
:1026E00023F003033146184406F0DCFAC4E700DEA9
:1026F000F5E700DEC6E700DEC8E700F01BFD2B783B
:10270000B0EB090648BFA9EB0006012B10D0022B45
:1027100006D15B463344984582D203F0A9FDC6E753
:1027200078463B6813B198470023F3E700DEF1E7F2
:102730004FF4A973EEE700BF6C200020884600200C
:1027400068200020645E0100F8B51E481E4C01F0B0
:1027500057F91E4B186004F11C03082710260325A7
:10276000636104F10C0004F118032361A77366731D
:10277000257301F0C1FE04F1D403C4F8CC3004F198
:10278000C40004F1D003C4F8C83084F8C67084F8DB
:10279000C56084F8C45001F0AFFE04F5C673C4F8F8
:1027A000843104F5C47384F87E7184F87D6184F803
:1027B0007C51C4F8803104F5BE70BDE8F84001F0EA
:1027C0009BBE00BFBD2402007020002068200020B6
:1027D000022838B504460D4604D97846054B1B68D7
:1027E00033B19847044BB82202FB0434A56038BDCE
:1027F00000DEF7E7884600207020002002282DE93F
:10280000F84F05460C46924605D97846424B1B6860
:10281000002B23D0984724B978463F4B1B68FBB167
:1028200098472378012B21D16368990704D0784613
:10283000394B1B68B3B19847E3689A0704D07846D0
:10284000354B1B6883B19847A3689B071FD0784618
:10285000314B1B68002B54D0984718E000DEDAE7B4
:1028600000DEDEE700DEE7E700DEEDE7022B10D159
:102870006368C3F30B032BB17846274B1B68002B0F
:102880003DD09847A368C3F30B03002BDFD1A368A7
:102890002BB97846204B1B68002B34D09847EFF3B8
:1028A000108872B6B8276F431C4E07F10C09B1446B
:1028B0000021484601F0C2FD834630B3002148465E
:1028C00001F0E2FD10222146584606F0F0FEBAF172
:1028D000000F03D0F3195B88AAF80030B82303FB7C
:1028E00005656B8895F8B40001336B8028B90C4BF3
:1028F0001C785CB9F019FFF721FE002006E000DE2D
:10290000C0E700DEC3E700DEC9E70420B8F1000F2E
:1029100000D162B6BDE8F88F884600207020002004
:102920006C20002070B50B4E0024EFF3108572B6BA
:1029300004F10C000021304401F01AFE05B962B622
:10294000082805D1B834B4F50A7FEED1002070BD57
:10295000012070BD7020002070B5EFF3108672B6B4
:10296000174C236838BB23B97846164B1B6803B352
:1029700098472368013B236093B9134D95F8B43011
:1029800013B92846FFF7DAFD95F86C3113B90F48F3
:10299000FFF7D4FD95F8243213B90D48FFF7CEFDAB
:1029A00023680C4A003318BF0123137036B962B68E
:1029B00070BD00DEDDE701332360F1E770BD00BFCD
:1029C0009822002088460020702000202821002026
:1029D000E02100206C20002010B1800B014B185C1E
:1029E000704700BF78A0020012DF704773B52B4E0E
:1029F00032780446002A48D1002848D0284B426843
:102A00001A60FFF761FA0DF10700FFF7EDFF0546C9
:102A1000B0BB9DF80730012B3BD104F063F900F007
:102A200093FA00F077FF2378012B2CD1E07800F0A7
:102A300049F900F06BFE03F0ADFB04F0FFF803F082
:102A4000D3F9FFF781FE02F06FF902F0D7FE2046BE
:102A500004F0F2FF204601F0D9F942F2107002F0C2
:102A60004BFD204606F06EF9FEF7E8FD08B106289A
:102A700011D100F081FC0B4B00221A60012333704E
:102A8000284602B070BDFA20D3E70825F8E70E25E6
:102A9000F6E70225F4E70546F2E700BF9D22002095
:102AA00088460020A022002038B50E4B1B78B3B119
:102AB0000D4D2A789AB900F04DFE20B178460B4BA7
:102AC0001B6853B1984703F07BFB044618B903F029
:102AD000B9FF01232B70204638BD00DEF3E7082440
:102AE000F9E700BF9D2200209C220020884600209C
:102AF0002DE9F0478CB003F0D9FFDFF8AC81DFF8A7
:102B0000AC91044600271CB938460CB0BDE8F087EC
:102B100000238DF8183026460FCE07AD0FC504F1FF
:102B20001D0A33685B4E2B605546637D052B00F212
:102B30008F80594A1168002940F09C80204603F09C
:102B400099FF03F0B3FF0446DDE72A2B2CD02B2B93
:102B500040F08C80237D03F00F03022B40F0868031
:102B6000013906AAC9B2A81C02F02CFD074638B3E9
:102B7000D8F800305B0679D5D9F80030012B75D92B
:102B80002F21304606F06AFE00284DD02F21304616
:102B900006F064FE411C414B414AD3F804350092D3
:102BA000019740F20B1226E0237D03F00F03022B66
:102BB0005CD106AA0139A81C01F006FA074608B93B
:102BC000002753E0D8F800305A064FD5D9F8003026
:102BD000012B4BD92F21304606F040FE78B12F2132
:102BE000304606F03BFE411C2C4B2E4AD3F80435F0
:102BF00000920197F822022001F008FD36E05C21E6
:102C0000304606F02BFE08B15C21E9E73146EBE7E0
:102C1000237D03F00F03022B28D1013906AAC9B284
:102C2000A81CFDF7BFFB21E05C21304606F016FE34
:102C300008B15C21ABE73146ADE76A884FF6E46343
:102C40009A4213D106AA0339281DFEF7D1FE0DE0E2
:102C500003F1170222449542BFF46BAF6B782978D9
:102C6000292BD5D03FF671AF162BE6D02B78013348
:102C70001D445AE706AA0592227DCDF810A0C2F3A2
:102C80000302063B8DF80C208DF80D3003A8884711
:102C900054E700BF7CA00200A022002000B000404A
:102CA000C1A0020098A00200041A0020001A00200F
:102CB0000020704708B500F007FD002008BDFFF7B1
:102CC00033B9000007289ABF024B33F81000FA20EE
:102CD000704700BFECA0020010B5037804463BB17A
:102CE0000378062B04D078460A4B1B6873B19847CB
:102CF000636923B17846074B1B684BB198470123A2
:102D00002370054B5A6862615C6010BD00DEEFE71E
:102D100000DEF4E788460020A82200202DE9F843D1
:102D2000174EDFF8609035464FF0000834680CB15C
:102D3000AB680BB9BDE8F8832778FFB2FB1E012B07
:102D40001AD863693360EB68C4F814805A1EEA60CD
:102D500023B97846D9F8003063B19847AB68032FA0
:102D600003F1FF33AB6084F80080DFD12046FFF72A
:102D7000B3FFDBE700DEF1E704F11406D6E700BF9E
:102D8000A822002088460020014B186800F060BE91
:102D9000A422002070B54369054623B17846154B3F
:102DA0001B68BBB19847144B1A682AB11A686C6843
:102DB0005268A21A002A0FDA1A686A611D60DA687E
:102DC0000132DA60AAB978460A4B1B6883B1BDE8C4
:102DD0007040184700DEE6E719684A691AB1506882
:102DE000001B002802DB6A614D61E8E71146F4E749
:102DF00000DE70BD88460020A8220020F8B50F4DE7
:102E00000F4F00266B6803B9F8BD6C6863696B608F
:102E100023786661052B01D12670F3E72378012B17
:102E200003D078463B6833B198470223237020468D
:102E3000FFF7B0FFE6E700DEF7E700BFA8220020BB
:102E4000884600202DE9F041FFF768FFFFF7D6FF25
:102E500000F070F9394FDFF8EC8006463D463B68DC
:102E600023B13B685B689B1B642B20D400F062F9A4
:102E70002B68002B5FD02B685B68C3F16403C342EF
:102E800043BF29682E4A49682D4A56BF00F16401A4
:102E900002230223012000F003F900284BD07846DA
:102EA000284B1B68002B45D0BDE8F04118473C6813
:102EB0002378022B04D07846D8F8003043B39847E3
:102EC00063692B6000236361EB685A1EEA6023B9D3
:102ED0007846D8F80030EBB19847A36823B9784614
:102EE000D8F80030C3B198470623216923703046D3
:102EF000A368984700F01EF90646FFF70FFFFFF79B
:102F00007DFF2378062BAAD1E2683AB92270A6E7A2
:102F100000DED5E700DEE0E700DEE5E763681344A6
:102F2000991B6429FBD46360022323702046FFF7BA
:102F300031FF94E700DEBDE8F08100BFA822002049
:102F4000892D02008846002008B51022002104487F
:102F500006F0B8FB034800F053FD034B186008BDB2
:102F6000A8220020452E0200A422002038B50446E5
:102F700020B978460F4B1B68BBB19847A36823B9AB
:102F800078460C4B1B6893B19847EFF3108572B6E7
:102F9000002363612046FFF79FFE05B962B6064B2A
:102FA0001868BDE8384000F053BD00DEE6E700DEFB
:102FB000EBE700BF88460020A422002038B5044675
:102FC00020B97846134B1B685BB19847EFF3108527
:102FD00072B62378062B06D10023237005B962B69A
:102FE00038BD00DEF2E72378012B01D10523F4E799
:102FF0002378002BF2D02378033B012B81BF064AB4
:1030000093680133936004232370044B186800F025
:103010001FFDE3E788460020A8220020A42200200C
:1030200070B50D46044620B97846164B1B689BB117
:103030009847EFF3108672B6237813B12378062BE6
:103040000CD12046FFF748FE0F4B6560186800F072
:10305000FFFC06B962B670BD00DEEAE72378012BFB
:1030600002D02378052B02D101232370ECE72378CB
:10307000033B012B81BF054A93680133936003230F
:10308000F3E700BF88460020A4220020A8220020E9
:10309000024B1B6803B962B6704700BFDC220020F8
:1030A000022838B531D803F003049C422FD1EFF346
:1030B0001083184D2B6072B6174B43F82020174B26
:1030C00043F82010164B1C54164B002243F82020C6
:1030D000154B1B78ABB1154B1B68CA1A48BF5A1A5F
:1030E00000F11001012380008B4000F18040104965
:1030F00000F50040C1F804330023C0F84025C0F8B3
:103100004031FFF7C5FF002038BD072038BD0A2039
:1031100038BD00BFDC220020BC220020D0220020CD
:10312000B8220020E4220020C8220020CC22002067
:103130000080004008B5EFF310830B4A136072B6AD
:103140000A4B1B786BB10A4B0022C3F84C210122B9
:10315000DA64D3F84C05074B1B681844FFF798FF57
:1031600008BD054B1868F9E7DC220020C8220020C2
:1031700000800040CC220020E02200202DE9F8430E
:103180001E4FDFF8848000244FEA840909F180454E
:1031900005F50045D5F84031DBB157F8246026B974
:1031A0007846174B1B68CBB19847002347F8093086
:1031B00004F1100201239340C8F80833FFF7BAFF67
:1031C000104BE35C9B0701460AD5B0470023C5F8C6
:1031D00040310134032CD7D1BDE8F88300DEE4E7A9
:1031E000304600F0B3FB0028F0D07846044B1B6853
:1031F0000BB19847EAE700DEE8E700BFBC220020F9
:1032000088460020B8220020008000402DE9F843C5
:10321000334FDFF8F09005460026B846B40004F1BD
:10322000804303F500430022C3F84025C3F8402142
:10323000D3F840313A6859F8263005F17801981AE8
:1032400048BFD01AB1EB020E48BFA2EB010E864573
:10325000244A2ED913593BB100211151224AB25CA4
:10326000920719D528469847204BE2581AB10121F8
:1032700011600022E2500136032ECFD11C4B1B6897
:103280001BB91C4B4FF480721A601B4BC8F80050DE
:1032900001221A70BDE8F8832946184600F056FB53
:1032A0000028E1D07846154B1B68002BDBD100DEEF
:1032B000DAE71259002ADED05A1B48BFEA1A06F193
:1032C000100101238B4004F180440D4904F50044B2
:1032D000C1F804330023C4F84025C4F84031CAE7DC
:1032E000CC220020BC220020B8220020E4220020B2
:1032F000DC22002000E100E0C822002088460020F7
:1033000000800040D022002070B500230F49104CEF
:10331000104D1A465E5CF60742BF5A5444F823200B
:1033200045F823200133032BF4D10B4B18600B4BD2
:1033300000221A700A4B4FF0FF32C3F80823094BE2
:103340004FF48072C3F8802170BD00BFB822002006
:10335000BC220020E4220020E0220020C82200201D
:103360000080004000E100E0024A1368013313606E
:10337000704700BFF02200200A4A10B500230A4C13
:1033800013600A4AA2600A4AE2602361FFF7D2FE94
:1033900000F5C330A03060602046BDE81040FFF764
:1033A000E5BD00BFF0220020F422002069330200B6
:1033B000A08601002FDF704730DF704710B503464D
:1033C00005C89C68D968A0EB721082EAF4320C44FC
:1033D000014410441A605C609960D86010BD000020
:1033E00037B50C46054620B97846104B1B682BB103
:1033F00098470023A34203D303B030BD00DEF8E7B3
:103400000DF10700FFF7D6FF9DF807100029F7D050
:10341000E21A914288BF8DF80720E8189DF807103E
:10342000FFF7CAFF9DF807201344E3E78846002012
:1034300037B5044602A8002340F8043D0421FFF7F5
:10344000CFFF074B2360019B6360A360E3601425FB
:103450002046FFF7B3FF013DFAD103B030BD00BFF6
:10346000ED5EEAF145DF704746DF704747DF7047A2
:10347000064A032313751168054B936140F6D86221
:10348000914288BF43F2B0629A6070470C230020DB
:103490002C230020064A13685068064A1268184414
:1034A000283278385343044AB3FBF2F3C01A70470A
:1034B0000C2300202823002040420F0010B52B4B86
:1034C00030B11A69996901321A611A680A441A609E
:1034D000D96801221A759A69013152080129D96007
:1034E0009A610CD0022918D099691A6820480A44B8
:1034F000824227D840F6D762914223D910BDB2F557
:10350000FA7F03D130B900229A61EDE740F6D86125
:103510008A42E9D840F6D862F6E71A69022A03D14E
:103520001968134A521AEFE7012ADDD10028EAD0C0
:10353000DAE778460F4B1B6813B1BDE81040184717
:1035400000DE10BD012258685A7200241C75FFF776
:103550005DFE02F013FFFFF79DFF03230146064ABD
:103560002046FFF79DFD0028E3D110BD0C2300206D
:10357000809698008846002071340200F8B5484CC7
:10358000484D012323722B781BB1474B1B78002B2E
:1035900068D00023237504285CD8DFE800F00356C8
:1035A00053514D00414AE3602361D2F80405A27AE9
:1035B0003F4D002162B3A37223686268C5E9000130
:1035C000134401213B4A6360217523683A4992689C
:1035D0002260002B08BF0B46991AB1F57A7F27D3DA
:1035E0009A4225D8A161237D023B012B0CD8637A36
:1035F0003BB102F0E5FEFFF74DFFFFF785FE00232C
:103600006372294B00221A70002323722B48F8BDE5
:10361000D5E90023DFF8ACE0821A22F07F420023D4
:10362000A2FB0E670EFB0377F30B43EA4743C4E7A5
:103630004FF47A73A361D6E70120FFF73FFFD2E78B
:103640000020FAE702F050FECDE7FFF797FD02F009
:103650007DFEC8E778461A4B1B680BB19847C2E756
:1036600000DEC0E7FFF766FD6368C01A2B782060B4
:10367000012B07D0022B0BD07846114B1B6863B18E
:10368000984702E002222275A37200232B70AAE75A
:1036900003232375074BA361F7E700DEF5E700BFBF
:1036A0000C2300203D2300203C23002000B00040DC
:1036B000402300202C230020809698002023002007
:1036C0008846002040420F00043810B5032817D860
:1036D000DFE800F00C130502FFF7C6FE80B1784664
:1036E000084B1B685BB1BDE810401847064840F620
:1036F000D8638360FFF7BAFEF0E70348FAE700DE1D
:1037000010BD00BF884600202C2300200C4A10B5B5
:1037100043F2B06400239460012143F698241370AF
:1037200013715171D460074A1060074A1370074A39
:103730001370074A1372537213609172536010BD75
:103740002C230020282300203C2300203D230020A0
:103750000C23002008B50548FFF784FE20B9044873
:10376000BDE80840FFF782BE08BD00BF7D350200FE
:103770002C230020064B1B7D032B07D0054B18780C
:10378000013801288CBF00200120704701207047BC
:103790000C2300203D230020014B5868704700BFD8
:1037A0000C23002010B5064B587A40B1FFF772FE8B
:1037B0000446FFF7BFFC0346201A48BF181B10BD84
:1037C0000C230020014B187A704700BF0C23002007
:1037D000EFF3108372B6054A527A22B1044A4FF4CD
:1037E0008071C2F8001103B962B670470C23002043
:1037F00000E100E0024B01221A70FFF7E9BF00BFB1
:103800003D230020074A13782BB140B9064B1B78A3
:10381000003318BF012310701BB1FFF7D9BF00237D
:10382000F9E770473C2300203D23002008B50146FE
:10383000054805F0DDF928B9044B4FF48022C3F8A0
:10384000002108BD042008BD4823002000E100E05D
:10385000F0B52A4E2A4D2B4F85B0002433689C4288
:103860000ED32948294D284F05F0C6FA002600BB83
:10387000274C6946204605F0E3F958B305B0F0BD82
:10388000610904F01F020123934055F821201342DF
:103890000DD0EFF3108272B655F8210020EA030331
:1038A00045F8213002B962B657F824309847013400
:1038B000D4E70468237C1BB978462B6843B198474A
:1038C000E068A36898472674384605F095FACEE775
:1038D00000DEF5E79DF80030012B09D008D3022B5C
:1038E000C7D1019B002BC4D0039902989847C0E729
:1038F000019B002BBDD002989847BAE760240020B6
:103900007C2400206424002080240020884600209D
:1039100048230020094808B5094B03601023436081
:10392000836005F03DF9074805F032FA064BC022E6
:1039300083F812234FF480221A6008BD4823002028
:103940005C2300208024002000E100E030B50D461B
:1039500085B0044620B97846074B1B6853B1984799
:10396000002368468DF8003001940295FFF75EFF52
:1039700005B030BD00DEF3E78846002010B5EFF358
:10398000108472B60B490A68531C0B603AB90A4B93
:103990004FF48022C3F8802004B962B610BD002B1A
:1039A000FAD17846054B1B680BB19847F4E700DE67
:1039B000F2E700BF5C24002000E100E08846002020
:1039C00038B5EFF3108572B60A4C236823B97846F0
:1039D000094B1B685BB198472368013B23601BB907
:1039E000064B4FF480221A6005B962B638BD00DE7E
:1039F000F2E700BF5C2400208846002000E100E0E0
:103A000038B5054620B978460E4B1B68ABB19847D0
:103A10000D4C2368052B04D978460A4B1B6873B1FB
:103A20009847EFF3108372B62068421C2260074A61
:103A300042F8205003B962B638BD00DEE8E700DE88
:103A4000EFE700BF884600206024002064240020A7
:103A500010B5114B1B688342044604D878460F4BBF
:103A60001B68BBB19847EFF3108372B60C4960092D
:103A7000012204F01F0402FA04F451F8202022432A
:103A800041F82020074A4FF48021C2F8001103B901
:103A900062B610BD00DEE6E7602400208846002004
:103AA0007C24002000E100E070B50D461646044677
:103AB00020B978460C4B1B688BB1984725B97846DE
:103AC000094B1B686BB19847EFF3108372B6002265
:103AD000A560E6602274246003B962B670BD00DEA2
:103AE000ECE700DEF0E700BF8846002070B5044632
:103AF00020B97846134B1B68EBB19847A36823B9EC
:103B00007846104B1B68C3B19847EFF3108672B626
:103B1000237C03F0FF0593B9012323740A4821464F
:103B200005F046F9094B4FF48022C3F800212846DE
:103B300006B962B670BD00DEE0E700DEE5E7112001
:103B4000F6E700BF884600208024002000E100E066
:103B500010B5044620B97846034B1B6813B198474B
:103B6000207C10BD00DEFBE78846002003F0A0B8F3
:103B700005F0C2B901F009BC01F03FBC30B429B373
:103B800002294CD81970597801F0800162F3C711ED
:103B90005970C1680C04C1F3074204F47F0401F4B6
:103BA0007F4122430A439A70C2F30721120C1A7113
:103BB000D97001890A0A42EA0122A3F80520418846
:103BC0000A0A42EA0122A3F8072022E01970847A47
:103BD0005A7864F306025A70C47AD2B264F3C712F8
:103BE0005A70C4682504C4F3074205F47F0504F441
:103BF0007F442A432243C2F307249A70120C1A719D
:103C0000DC700489D971220A42EA0422A3F8052053
:103C10001972026912BAC3F8092030BC704778469D
:103C2000034B1B680BB130BC184700DEF5E700BF43
:103C3000884600207FB50E461546044600B122B9DD
:103C40007846094B1B686BB19847102200216846E3
:103C500005F038FD2B4632462146684605F04CF902
:103C600004B070BD00DEF0E78846002070B506465F
:103C700088B00D4614460021052204A805F022FD57
:103C8000336907221BBAA9180DF11900CDF81530B8
:103C900005F00DFD70696A46113004A9FFF766FF53
:103CA000AB1D0DF10600E21D13F8011910F8014DCE
:103CB000AB4281EA040102F8011DF5D108B070BDE4
:103CC000F7B50546002755F80C1B8368C97A0646E8
:103CD000B94202AA14BF0824042403F1090042F8DF
:103CE000047D73682946204401F0B4FD002800F0EB
:103CF0008880737B012B16D00120FEF74FFB3468C0
:103D0000FEF7C0FB206130680C30FEF713FB044661
:103D10003846FEF743FB34B10199284601F01CFEFA
:103D2000204603B0F0BD3568019C2889FEF754FE9B
:103D3000012805D07846344B1B68002B57D0984794
:103D400095F90A30002B05DA78462F4B1B68002BBB
:103D50004FD09847EB68B3F1807F05D378462A4B64
:103D60001B68002B47D098472B782BB97846264BF9
:103D70001B68002B41D098476B692BB97846224BC2
:103D80001B68002B3BD098472B6903F00102237876
:103D900003F07F0343EAC21323706A69127823F0A9
:103DA0007F0302F07F02134323706378EA7A03F003
:103DB0007F0343EAC213DBB26370AA7A23F07F0366
:103DC00002F07F0213436370EB6823711A0CA27038
:103DD0001A0AE2702B89A3711A0A62716B88237226
:103DE0001A0A019BE27109333361002498E700DE6F
:103DF000A6E700DEAEE700DEB6E700DEBCE700DEE9
:103E0000C2E704248CE700BF8846002008B5084BB1
:103E100058B91860074B01221A70FEF7B5F9FEF782
:103E20004BF9BDE8084001F03DBE82681A60F1E739
:103E3000882400208C24002010B5044620B9784640
:103E4000104B1B68C3B19847236823B978460D4BC4
:103E50001B689BB1984723685B6923B97846094B77
:103E60001B686BB1984701232373002363732046BB
:103E7000BDE81040FFF724BF00DEE5E700DEEAE71B
:103E800000DEF0E78846002070B5044690B028B9FF
:103E90007846474B1B68002B79D0984723692BB98C
:103EA0007846434B1B68002B73D0984723682BB987
:103EB00078463F4B1B68002B6DD0984723685B69A1
:103EC0002BB978463A4B1B68002B66D0984703AD58
:103ED00000222B4611462068FFF750FE2268236916
:103EE000D17A002914BF082104218DF83C105169B2
:103EF000089501310791A168023189B2A3F1090641
:103F0000023B002509930D9307A80B440E93ADF8CF
:103F10002810ADF830500B95FFF72CFE3246206884
:103F20003146FFF7A3FE216904F10C00093901F0C5
:103F3000DDFC05238DF81C30A3688DF81E3007A822
:103F400023698DF81D50089302F09CFE0446E0B1F1
:103F5000184B1B689B0618D5174B1B68012B14D9EF
:103F60002F21164805F07AFCC8B12F21134805F01F
:103F700075FC411C124B134AD3F80435009201948E
:103F800040F24122022000F041FB10B070BD00DE83
:103F900084E700DE8AE700DE90E700DE97E75C2139
:103FA000064805F05BFC08B15C21DFE70349E1E767
:103FB00088460020041A0020001A002044A10200B4
:103FC00000B000405FA102002DE9F04FA5B004AFA2
:103FD0000C463A600546002800F0658107F13C0A6E
:103FE00001460122504605F062FB2878EB1D0026B1
:103FF0007B6607F1800807F1430307F11409C00944
:10400000A7F87060FE667B67C7F86090FEF744FA19
:104010002B7848F8486D03F07F0B7863414658468B
:10402000FE72FBF71FFEA14EBB6B002B00F0DE8083
:104030005246294607F12400FFF718FE97F83D3055
:1040400097F84200DA0903F07F0387F82E3097F8DB
:104050003F3087F82F2097F83E201B0243EA0243A7
:1040600097F8402013433B6397F8413040EA032020
:10407000B885FEF7B1FC01283AD197F82F20002A25
:10408000A4F1090314BF08220422934230D3396BF0
:10409000B88D02F039FE002838D003233B7307F1B6
:1040A0000C0006237B73BC73C7F810A002F0EAFD76
:1040B0007860E8B17E4B1B68980619D57D4B1B686C
:1040C000012B15D92F21304605F0C8FBA8B12F21AF
:1040D000304605F0C3FB411C774B7A68D3F80435B2
:1040E0000192764A009202204FF4997200F08EFA03
:1040F00041465846FBF7B6FD96E75C21304605F091
:10410000ADFB08B15C21E3E73146E5E707F10C01BF
:10411000B88DFBF7A7FE02460028E9D197F82F30AB
:10412000002B14BF08210421E31F87F87C105B1AC1
:10413000796E9BB2A7F868300B44BB6701464B46CB
:1041400007F12400FFF71AFDBB6B07F10B010133E8
:1041500007F15C00FB65FFF70FFDFB7A002BC7D072
:1041600097F8433097F8440040EA0320F884FEF7BC
:1041700033FC4F4B87F824001B68990736D54D4B0D
:104180001B68032B32D9B7F86810D7F874E04B00DE
:10419000083323F007036D46ADEB030D484B04AE27
:1041A000D3F800C070463346A0EB0E02914203F1F3
:1041B00002032FD8002306F811303C482F2105F0C8
:1041C0004DFB002835D02F21384805F047FB411C16
:1041D000394B3C4AD3F8043501923B4A009202968F
:1041E00040F28112042000F011FAAD46FD7A002D54
:1041F00000F0FC8097F82450002D00F0F7803B6B16
:10420000B3F1807F04D297F92E30002B80F2AF807B
:104210000025EBE010F8012B4FEA121802F00F0214
:104220001CF8088003F8028C1CF8022003F8012C0B
:10423000BAE75C211D4805F011FB08B15C21C3E71A
:104240001A49C5E700DE9BE05C21184805F006FB33
:1042500008B15C2176E0154978E0154B1B689B0797
:104260007FD5144B1B68012B7BD92F210F4805F0FC
:10427000F5FA78B12F210D4805F0F0FA411C0E4BEC
:10428000124AD3F804350092022040F2A51200F041
:10429000BDF966E05C21054805F0E0FA08B15C2153
:1042A000E9E70249EBE70E25A0E000BF44A10200C8
:1042B000041A0020001A002000B000405FA1020094
:1042C000081A0020FCA002000FA1020017A10200A2
:1042D00097F82E30C7F85CA0013B87F82E300023FA
:1042E0003B6607F15C0001237E6687F8683087F83B
:1042F0006930FFF7E5FC82460028AED132464146E0
:10430000F86E05F0D4F907F15C00FFF7BDFD04235A
:104310004846BC753B7587F815A0C7F8188002F0B1
:10432000B1FC0446E8B1344B1B689A0619D5334BEF
:104330001B68012B15D92F21314805F08FFA002871
:1043400082D02F212E4805F089FA411C2D4B2E4A90
:10435000D3F804350092019440F2A112022000F03B
:1043600055F997F82E30013387F82E303AE0BB6BC1
:1043700033B97846254B1B68002B3FF463AF984751
:1043800097F82F30002B14BF08230423093CE41AAC
:10439000E6B207F1240A07F145083B685246314668
:1043A000404603F085FB1A4B1B780546D3B197F8BE
:1043B0002E30012B16D997F82430012B05D107F1A7
:1043C0005C01F88CFBF74EFD60B9124B1B68002BAB
:1043D0003FF47EAF97F82E20F98CB88D98470028CF
:1043E0007FF476AF396BB88D02F0ACFC2846843789
:1043F000BD46BDE8F08F00BF041A0020001A00205F
:1044000044A1020000B000405FA1020088460020E5
:104410008C24002088240020436849B902788078E1
:104420001A441B78C31A12F8010C1844C0B2704722
:104430005A185B5C12F8010CC01AF7E738B50D4644
:10444000044620B978460F4B1B68BBB198472378C8
:10445000AB4204D878460B4B1B688BB19847294672
:104460002046FFF7D9FF40B163686278585DA378B2
:10447000013B1840A36802FB003038BD00DEE6E7D0
:1044800000DEECE78846002038B50C46054620B92A
:1044900078460D4B1B6893B198472B78A34204D8FC
:1044A0007846094B1B6863B1984721462846FFF7B9
:1044B000B3FF18B16A68135D0133135538BD00DED0
:1044C000EBE700DEF1E700BF8846002010B50446A8
:1044D00020B97846074B1B6833B19847002319462B
:1044E0002278934202D310BD00DEF7E76268D15410
:1044F0000133F5E78846002010B54378044623B918
:1045000078461A4B1B6803B398472378012B04D8CD
:104510007846164B1B68D3B19847A36823B97846F1
:10452000124B1B68ABB19847636823B978460F4BB1
:104530001B6883B19847A3788BB15A1E1A420ED1DB
:104540002046BDE81040FFF7C1BF00DEDDE700DE1A
:10455000E3E700DEE8E700DEEDE79847F0E77846BE
:10456000024B1B68002BF8D100DEE9E788460020EB
:1045700038B50D46044620B978460B4B1B6873B11D
:1045800098472378AB4204D87846074B1B6843B161
:10459000984729462046BDE83840FFF73DBF00DE7A
:1045A000EFE700DEF5E700BF8846002037B506AC30
:1045B000184654F8045B00920B4602460549002059
:1045C00005F00FF822462946002004F0E7FE03B06C
:1045D00030BD00BF8DA10200034B1860034B196072
:1045E000034B1A60704700BF041A0020001A002015
:1045F0000C1A002070B4044C246814B1A44670BC9A
:10460000604770BC704700BF0C1A002030B585B001
:1046100008AC54F8045B019400950394FFF7EAFF9B
:1046200005B030BD037942799B1A00EB0330704727
:10463000431E9BB247F6FE62934208D849B14B88AD
:1046400058400B8818420CBF012000207047002002
:104650007047012070470000084B984210B504468F
:1046600003D303F58273984204D97846044B1B6840
:1046700013B19847201F10BD00DEFBE79C240020EB
:1046800088460020094B984210B5044603D303F531
:104690008273984204D97846054B1B681BB1984732
:1046A000A4F10C0010BD00DEFAE700BF9C2400203E
:1046B00088460020820738B504460D4604D0784667
:1046C0000D4B1B6873B19847AB0704D078460A4B73
:1046D0001B684BB1984725F003052544AC4205D132
:1046E000012038BD00DEEFE700DEF4E754F8043BBC
:1046F0000133F3D0002038BD884600201FB50124C7
:1047000001900391029269461A4620468DF80040B6
:10471000FEF774F804B010BD2DE9F041104D114FB3
:104720000146114803F0BCFE6E684FF000082846B1
:1047300004F062FB044640B1C0F800808368C068A2
:104740009847A642F3D1BDE8F08136B178463B6880
:104750000BB19847EBE700DEE9E7BDE8F08100BF69
:10476000A4250020884600209024002013B502A92B
:10477000002482B241F8044D044803F015FD18B935
:104780000198043002B010BD2046FBE790240020C1
:1047900008B5FFF761FFBDE80840014602880148FF
:1047A00003F090BD90240020014B1868FFF750B92A
:1047B000AC25002010B50388044623B978460B4B7E
:1047C0001B688BB198472088094B04EB800030EAC6
:1047D000030203D06288B2F5FE4F04D11C4004F5F9
:1047E00080542078204410BD00DEECE7884600208D
:1047F00000F0FFFF70B50468237805461C440021D3
:104800004FF6FF762868FFF70DFF844202D26388D7
:10481000B34201D1084670BD2046FFF7CBFF2146C9
:104820000446EFE72DE9F04FA54EA64D89B034467A
:104830002A783378022A02D009B0BDE8F08F032B22
:10484000FDD801A252F823F059480200BF480200E7
:1048500039480200C74B020008A9002341F8103D67
:10486000994803F0B1FD01460028E5D1049F974B1C
:1048700097F808903A1D1A60012399452370D7D8FC
:10488000D7F80480D8F80C00FFF7CCFED8F8143025
:10489000C01AD8F80830C01AB9F1000F01D1398A0E
:1048A00089008142C4DBD8F80430002BC0D0032338
:1048B00088F8003078682B7004F000F9B8E7834B73
:1048C0001F6809238DF810303B798DF8113004A84A
:1048D00000238DF81230059302F0D4F98046E8B138
:1048E0007B4B1B689B0619D57A4B1B68012B15D98E
:1048F0002F21794804F0B2FFD8B12F21764804F077
:10490000ADFF411C754B764AD3F804350092CDF8C3
:10491000048040F28E220220FFF778FE3B79042BC0
:1049200000F2B680DFE813F00E009500BC00040131
:1049300038015C21684804F091FF08B15C21DDE793
:104940006549DFE73B68D3F80C804046FFF76AFE15
:1049500098F80030FA89014608EB030000F0E2FE07
:104960003B68D3F8089029F47F6828F00F0808F511
:10497000805BB7F80C80ABEB09014FEA8808414532
:1049800082463ED9C8443946002331F80C2F4846A8
:104990009200FFF7B3FE28B17846524B1B68002BFC
:1049A00051D09847504B514904224046FFF7A6FE8C
:1049B00028B178464B4B1B68002B46D09847BAF17C
:1049C000000F13D03A68BAF80010536803EB810364
:1049D00053604749444B04225046FFF78FFE28B1ED
:1049E0007846404B1B68002B31D09847C7F8089099
:1049F0000023404A1370002B40F0E3800223237011
:104A000016E7D868FFF70EFE834500F0D6804145D3
:104A100003D19BF80080D844B5E70023042236492F
:104A20004846FFF76BFE20B178462E4B1B6843B11A
:104A300098479BF80090B7F80C80D94409EB880898
:104A4000A1E700DEF5E700DEACE700DEB7E700DE59
:104A5000CCE73B68D3F80C804046FFF7E3FD98F8BD
:104A60000030FA89014608EB030000F05BFE0028E5
:104A700000F0A5803A68B8600188536803EB8103B1
:104A800053601B49184B0422FFF738FE0028AFD0B3
:104A90007846144B1B68002B00F08D809847A7E7E1
:104AA0003B6897F80D80DB6803EB08380821404627
:104AB000FFF700FE10B308220B4BB9184046E3E79E
:104AC000A0250020B025002090240020B42500203F
