:020000022000DC
:1040000002E00320C16D0200E96D0200D147020009
:10401000ED6D0200EF6D0200F16D02000000000086
:10402000000000000000000000000000F36D02002E
:10403000F56D020000000000F76D0200F96D02004E
:10404000FB6D0200FB6D0200FB6D0200FB6D0200C8
:10405000FB6D0200FB6D0200FB6D0200FB6D0200B8
:10406000FB6D0200FB6D0200FB6D0200FB6D0200A8
:10407000FB6D0200FB6D0200FB6D0200FB6D020098
:10408000FB6D0200FB6D020079870200FB6D0200F0
:10409000FB6D0200FB6D020031480200FB6D020067
:1040A000FB6D0200FB6D0200FB6D0200FB6D020068
:1040B000FB6D0200FB6D020000000000000000002C
:1040C000FB6D0200FB6D0200FB6D0200FB6D020048
:1040D000FB6D0200FB6D0200FB6D0200FB6D020038
:1040E000FB6D0200FB6D0200FB6D02000000000092
:1040F00000000000FB6D020000000000FB6D0200EC
:1041000000000000000000000000000000000000AF
:10411000000000000000000000000000000000009F
:10412000000000000000000000000000000000008F
:10413000000000000000000000000000000000007F
:10414000000000000000000000000000000000006F
:10415000000000000000000000000000000000005F
:10416000000000000000000000000000000000004F
:10417000000000000000000000000000000000003F
:10418000000000000000000000000000000000002F
:10419000000000000000000000000000000000001F
:1041A000000000000000000000000000000000000F
:1041B00000000000000000000000000000000000FF
:1041C00000000000000000000000000000000000EF
:1041D00000000000000000000000000000000000DF
:1041E00000000000000000000000000000000000CF
:1041F00000000000000000000000000000000000BF
:1042000010B5054C237833B9044B13B10448AFF310
:1042100000800123237010BD7832002000000000D0
:10422000DCF202000C4B43B10C480D4910B5AFF362
:1042300000800C48036823B910BD0A48036833B9ED
:104240007047094B002BF7D0BDE810401847064BCC
:10425000002BF5D0184700BF00000000DCF2020080
:104260007C3200207432002000000000154B002B2F
:1042700008BF134B9D46A3F5803A00218B460F469D
:104280001348144A121A0AF0B1F90F4B002B00D050
:1042900098470E4B002B00D09847002000210400C7
:1042A0000D000D48002802D00C48AFF300800AF042
:1042B0004FF92000290000F07FF80AF035F900BF1F
:1042C0000000080002E003200000000000000000E1
:1042D00078320020085F002000000000000000008D
:1042E00010B50278123A0346042A5FD8DFE802F0DC
:1042F0004148510303000079022803F1050126D04B
:1043000004282DD1B3F81340B3F80920944225D1E5
:10431000D3F80F40D3F8052094421FD1D3F81520CD
:10432000D3F80B309A422CBF00230123C3B1204B9A
:104330001A6802F0B9FB18B11E4A7B2100F00EFA90
:104340004FF0A0434FF4F032C3F8082510BDDC7BDA
:104350005A79944202D11A7C9B79E3E70023E5E77E
:1043600002F0EEFB10B3134A8121BDE8104000F0CB
:10437000F5B94FF420424FF0A043C3F80C2510BD0F
:104380004FF0A0434FF4F032C3F808254FF4C04279
:10439000F3E74FF0A0424FF4F031C2F8081500796E
:1043A00002F002FC10B1034A8D21DEE710BD00BF10
:1043B000705E002083E802004FF0A04303222DE945
:1043C000F341C3F83427C3F83827C3F83C27C3F8B0
:1043D00040274FF40052C3F808254FF48042C3F839
:1043E00008254FF40042C3F808258A4C4FF4803268
:1043F000C3F808250421884A4CF2870005F080F8AC
:1044000023685D0418D5854B1B68032B14D92F2115
:1044100083480AF0B7F9002800F0C5802F218048B2
:104420000AF0B0F9411C7F4B7F4AD3F80435009263
:104430000420A22205F07EF87C4E7D4D7D4F2B6836
:1044400031685B1A3B602B687B4923F47F6323F060
:104450000F0303F580530B60236813F4804FB046BD
:104460000E461BD06D4B1B68052B17D92F216C48AE
:104470000AF088F9002800F09F802F2168480AF090
:1044800081F9411C674BD3F80435D8F8002001921C
:104490006A4A00920620AB2205F04CF823685804C3
:1044A0001AD55E4B1B68052B16D92F215C480AF0E4
:1044B00069F9002800F089802F2159480AF062F933
:1044C000411C584BD3F804352A6801925C4A00928B
:1044D0000620AC2205F02EF82368590419D54F4B5D
:1044E0001B68052B15D92F214D480AF04BF90028E0
:1044F00074D02F214A480AF045F9411C494B3A68CB
:10450000D3F8043501924F4A00920620AD2205F0FF
:1045100011F823685A0419D5404B1B68052B15D98F
:104520002F213F480AF02EF9002860D02F213C4867
:104530000AF028F9411C3B4B3268D3F8043501924C
:10454000414A00920620AE2204F0F4FF00F05AFA2D
:104550003E483F4B03600023436003F044FB236865
:104560005B0417D52D4B1B68032B13D92F212C4827
:104570000AF008F9002843D02F2129480AF002F94F
:10458000411C284B334AD3F8043500920420BE2244
:1045900004F0D0FF4FF0A0434FF40052C3F80C25B5
:1045A00003F03AFAFCE75C211D480AF0EBF808B189
:1045B0005C2134E71A4936E75C2119480AF0E2F831
:1045C00008B15C215AE716495CE75C2114480AF0FF
:1045D000D9F808B15C2170E7114972E75C211048F5
:1045E0000AF0D0F808B15C2184E70D4986E75C2128
:1045F0000B480AF0C7F808B15C2198E708499AE728
:104600005C2107480AF0BEF808B15C21B5E704490F
:10461000B7E700BFFC310020D5940200F83100203C
:1046200083E8020000B0004004E80200B831002036
:10463000BC310020745E0020705E00202CE8020077
:104640003BE802004AE8020059E8020094320020E8
:10465000E142020069E8020048DF704710DF70475E
:1046600060DF704761DF70474FF0A0434FF4F032D6
:10467000C3F80825C3F80C25EFF3108372B60028A1
:10468000FDD1704713B5144B1B685B04044613D56A
:104690002F2112480AF076F8A0B12F210F480AF016
:1046A00071F8411C0E4B0F4AD3F804350092019467
:1046B0004E22002004F03EFF204602B0BDE810402C
:1046C000FFF7D2BF5C2105480AF05CF808B15C2115
:1046D000E4E70249E6E700BFFC310020C9E8020038
:1046E00000B00040E4E802007FB5174B1B685B0494
:1046F00005460C46164618D5144B1B68ABB12F2146
:1047000013480AF03FF8B0B12F2111480AF03AF8E7
:10471000411C104B104AD3F80435009203960294C2
:1047200001957022012004F005FF204604B0BDE889
:104730007040FFF799BF5C2105480AF023F808B1E3
:104740005C21E2E70249E4E7FC310020F831002077
:10475000C9E8020000B00040A9E902007FB5174B8C
:104760001B685B0406460D46144618D5144B1B689F
:10477000ABB12F2113480AF005F8B0B12F21114831
:104780000AF000F8411C104B104AD3F8043500928F
:104790000396029501944822012004F0CBFE0120EB
:1047A00004B0BDE87040FFF75FBF5C21054809F029
:1047B000E9FF08B15C21E2E70249E4E7FC310020AF
:1047C000F8310020C9E8020000B00040ACE8020067
:1047D00007B5134B1B685B0412D52F21114809F054
:1047E000D1FF98B12F210F4809F0CCFF411C0E4B8F
:1047F0000E4AD3F8043500920020542204F09AFEA9
:10480000012003B05DF804EBFFF72EBF5C210548E3
:1048100009F0B8FF08B15C21E5E70249E7E700BF0E
:10482000FC310020C9E8020000B000409EE8020010
:1048300073B501A8FFF710FF60B102AD572325F84B
:10484000063D094E1C4629460748FFF70BFF28B1D5
:1048500002B070BD019803F0C1F9EAE7304603F0F9
:10486000BBF9ADF80240EEE79C32002030B5404C79
:104870002368590485B017D53E4B1B68032B13D909
:104880002F213D4809F07EFF002855D02F213A48BE
:1048900009F078FF411C394B394AD3F804350092AE
:1048A00004207A2204F046FE364B0293029B0393C7
:1048B00023685A0419D52F4B1B68032B15D92F21B8
:1048C0002D4809F05FFF00283FD02F212A4809F02A
:1048D00059FF411C294BD3F80435029A01922A4A08
:1048E00000920420832204F025FE03A8FFF7B8FEFF
:1048F000029B039A9A4205461BD023685B0418D595
:104900001C4B1B68012B14D92F211B4809F03AFFBF
:1049100020B32F21184809F035FF411C174B039A8B
:10492000D3F804350192194A009202208C2204F037
:1049300001FE284605B030BD5C210F4809F022FF7A
:1049400008B15C21A3E70C49A5E75C210A4809F0FE
:1049500019FF08B15C21B9E70749BBE75C210648AC
:1049600009F010FF08B15C21D4E70349D6E700BF86
:10497000FC310020F8310020C9E8020000B00040FE
:1049800044E90200B831002060E9020070E9020049
:1049900007B502AB174943F8040D1846FFF75EFE52
:1049A00018B1154A9321FFF7D9FE144A92F816332D
:1049B000C3F34113012B15D9114B996871B11A68D2
:1049C00042F480021A60FFF751FF18B10A4A97219A
:1049D000FFF7C4FE002003B05DF804FB4FF4800332
:1049E0001360F0E7044A942142F20200FFF7B6FE9A
:1049F000E9E700BFE9460200C9E8020000E100E083
:104A0000785E002010B54B4C2368590486B017D54A
:104A1000494B1B68032B13D92F21484809F0B2FEDC
:104A200000286CD02F21454809F0ACFE411C444BB6
:104A3000444AD3F8043500920420B52204F07AFDEC
:104A400001238DF8083000238DF809308DF80A30E5
:104A500007238DF80B300298FFF79AFF23685A045A
:104A600017D5354B1B68032B13D92F21334809F079
:104A700089FE00284CD02F21304809F083FE411CCC
:104A80002F4B314AD3F8043500920420BF2204F0A2
:104A900051FD00230393059301238DF80C30072368
:104AA0008DF80F3003A8294B049302F039FF18B199
:104AB000224AC421FFF752FE23685B0416D51E4B21
:104AC0001B68032B12D92F211C4809F05BFE40B351
:104AD0002F211A4809F056FE411C194B1C4AD3F8E5
:104AE000043500920420C62204F024FD02F070FF79
:104AF00018B1124AC721FFF731FE06B010BD5C2184
:104B00000E4809F03FFE08B15C218CE70B498EE7A7
:104B10005C210A4809F036FE08B15C21ACE7074980
:104B2000AEE75C21054809F02DFE08B15C21D0E715
:104B30000249D2E7FC310020F8310020C9E8020028
:104B400000B00040FDE8020016E9020085460200C0
:104B50002FE902004A09012301F01F0103FA01F1C4
:104B600050F82230194214BF012000207047000085
:104B70002DE9F0474FF6FF73DFF84C80DFF84C90DB
:104B80000B8007460D4600244FF0140A214640468C
:104B9000FFF7E0FF064650B92A884FF6FF739A42A6
:104BA00000D12C800134082CF0D1002609E00AFB4A
:104BB000049010223946043009F0FEFC0028F1D19F
:104BC0002C803046BDE8F087FC3200208435002080
:104BD00008B548B978460B4B1B681BB198474FF690
:104BE000FF7008BD00DEFAE7074B9842F7D303F5E4
:104BF0008A729042F3D8C01A5C23B0FBF3F080B203
:104C000008BD00BF885E00202634002008B548B9E2
:104C100078460D4B1B681BB198474FF6FF7008BDD7
:104C200000DEFAE7094B984209D303F19A02904259
:104C300005D8C01A1623B0FBF3F080B208BD044BB0
:104C40009842EAD1082008BD885E00204833002041
:104C5000F83300202DE9F84380460E4621B9784606
:104C6000164B1B688BB19847306880B1FFF7B0FFD7
:104C7000441C134FDFF84C905C2505FB0475032C96
:104C800007D900233360BDE8F88300DEECE7044673
:104C9000EFE721464846FFF75DFF58B1AB7C88EA55
:104CA00003035B0606D15C2000FB047412343460FD
:104CB000BDE8F88301345C35E1E700BF885E002081
:104CC00014340020103400202DE9F04704468846B3
:104CD000164622B97846204B1B6893B1984724B9F1
:104CE00078461D4B1B6873B198472046FFF770FF4D
:104CF0004FF6FF739842074607D100233360BDE8A3
:104D0000F08700DEEBE700DEEFE73068F8B1FFF791
:104D10007DFF441C1148DFF848A0162505FB04055B
:104D20008146072CE9D821465046FFF713FF80B192
:104D30006B88BB420DD16B7988EA03039B0608D1CF
:104D4000162000FB049404343460BDE8F087044668
:104D5000E0E701341635E4E7885E002044330020A4
:104D60004033002038B504460D4621B97846084B3B
:104D70001B6853B1984734B1064B33F8042BA24259
:104D80000CBF1C4600242C6038BD00DEF3E700BFDA
:104D9000885E0020F43300202DE9F04707460D46D9
:104DA00021B97846274B1B68FBB198472C68264EE3
:104DB0006CB106F13C039C4219D306F5A8729442EB
:104DC00015D8E41A5C23B4FBF3F4A4B201344FF019
:104DD0005C0808FB0468DFF878A008F15408032C8D
:104DE00008D900232B60BDE8F08700DEDEE74FF630
:104DF000FF74EBE721465046FFF7ACFE8146A0B1B9
:104E000067B9124B1B78A3B95C235C4333193C345C
:104E1000344483F83C902C60BDE8F087082241467A
:104E2000384609F0C9FB0028EBD0013408F15C08D2
:104E3000D5E75C23634336F80390B9FA89F94FEA62
:104E40005919E1E7885E0020143400200A3400205C
:104E5000103400202DE9F34706460D4602F056FDBA
:104E6000022839D0032812D001280ED1394B1B68F3
:104E700013F0010309D0384B1A88964205D35B889A
:104E800013449E424FF000035FDB00205AE04FF6D0
:104E9000FF77DFF8CC80DFF8CCA00024B9464F457F
:104EA00009D121465046FFF755FE20B9A7B201347B
:104EB000102CF4D1E9E738F82420B2424FEA8403F9
:104EC000F5D14344DB78002BF1D003232B70002372
:104ED0006E806B60012035E06868E8B94FF6FF73BB
:104EE000ADF80630BDF80640DFF87C801B4F072C7C
:104EF0004FF6FF7394BF01340024ADF806304FF035
:104F00001409082CC1D021464046FFF723FE50B9B2
:104F1000ADF806400134F4E70DF10601FFF728FE75
:104F20000028DBD0DEE709FB04F3DA5BB242F1D103
:104F3000FA18D278002AA8D0043302221F446E80C7
:104F40002A706F6002B0BDE8F0876E8028706B60D9
:104F5000F8E700BFF83200200C3400208435002030
:104F600000330020F4320020FC320020D0F8AC31B5
:104F70009B681847D0F8AC31DB68184773B5194BFC
:104F80001B681B0704460D46164618D5164B1B68B2
:104F9000032B14D92F21154809F0F4FBC8B12F2198
:104FA000124809F0EFFB411C114B2A78D3F8043565
:104FB0000192104A00920420DF2204F0BBFAD4F8D8
:104FC000AC311B6832462946204602B0BDE870402D
:104FD00018475C21054809F0D5FB08B15C21DFE7E3
:104FE0000249E1E7FC310020F8310020C6E9020067
:104FF00000B00040E6E90200D0F8AC315B68184729
:1050000070B50E468CB01546044628B97846264B36
:105010001B68002B39D0984706F0FB03122B05D0F4
:105020007846214B1B68002B31D0984725B978462C
:105030001D4B1B686BB398471C4B1B781BB32C2272
:10504000002101A809F0D2FA1022214602A80895F1
:1050500009F0C1FA2B785A1E534253418DF818308B
:10506000162E4FF003038DF8043014D101230422CF
:1050700004F112010DF11A008DF8193009F0ABFAA4
:1050800001A801F0D3FE0CB070BD00DEC4E700DE65
:10509000CCE700DED0E7002104220DF11A008DF8E4
:1050A000191009F0A3FAEBE7885E0020C031002058
:1050B000F8B5154D2B68064623B97846134B1B6887
:1050C00083B19847EFF3108772B62C68B4420BD0C7
:1050D0000E4DD4F8A8319E420CD1D6F8A831C4F8B0
:1050E000A83104E000DEEDE7D6F8A8312B6007B95F
:1050F00062B6F8BD1BB978462B681BB19847D4F847
:10510000A841E6E700DEFAE724360020885E0020AA
:1051100038B590F89930023B022B04460D4604D96D
:105120007846144B1B6803B398472046FFF7C0FF2F
:1051300094F89830012B04D078460E4B1B68B3B11D
:105140009847204605F0D0FE002304F1B80084F80B
:10515000983084F8D83084F8993002F0C3FE29469C
:105160002046BDE83840FFF705BF00DEDDE700DE82
:10517000E7E700BF885E00202DE9F0418846911CDA
:10518000064615461F4605F0DFFD044620B36B1C9E
:105190004374292383742A464146133009F01BFACD
:1051A0002771EFF3108772B6D6F8A05101356B1C4A
:1051B000C6F8A05104D17846094B1B6853B19847F3
:1051C00007B962B630462560214605F007FE00208B
:1051D000BDE8F08100DEF3E70420BDE8F08100BF08
:1051E000885E002000B5D0F8943089B01BBA0093D7
:1051F00000238DF804309DF805308DF8061002224A
:1052000043F0030362F387038DF80530072204237C
:105210006946FFF7B1FF09B05DF804FB38B50D46EC
:10522000044620B97846184B1B68FBB19847022DFD
:1052300004D97846144B1B68D3B1984794F8993039
:1052400013F0FB0F1ED0023B012B04D978460E4B06
:105250001B687BB1984729462046FFF7C3FF58B922
:10526000042384F8993084F89C5038BD00DEDEE7D2
:1052700000DEE3E700DEEEE729462046BDE83840E1
:10528000FFF746BF38BD00BF885E002000B5D0F8EC
:10529000943089B01BBA00938DF8041001230622C4
:1052A00069468DF80530FFF767FF09B05DF804FB2C
:1052B00000B589B0D0F894309DF805201BBA009352
:1052C00000238DF8043042F00302012363F38702C8
:1052D0008DF8052069460622FFF74EFF09B05DF8FC
:1052E00004FB10B5044602F0B9FED4F8D410014412
:1052F00004F1B800BDE8104002F026BE30B5074DFD
:105300000246FF23141AA14202DCD843C0B230BDCA
:1053100012F8014B6340EB5CF4E700BFFAE90200CE
:105320002DE9F0410B78012B92B005460C4616464C
:1053300004D07846164B1B682BB3984704F1040839
:1053400061784046FFF7DAFFA37883421DD195F8D4
:105350009A10284600270136FFF798FFE77085F876
:105360009A6066784146324601A809F034F9284629
:105370002770FFF7B6FF324601A92846FFF7FEFD6A
:1053800012B0BDE8F08100DED8E700232370F7E714
:10539000885E00202DE9FF4188461446054620B965
:1053A0007846A34B1B6833B3984724B97846A04B83
:1053B0001B6813B398472B681A0E190242EA03625E
:1053C00001F47F011B0A0A4303F47F431343EFF305
:1053D000108172B6974E34688CB901B962B668799B
:1053E00000F00303032B00F2F180DFE813F00F005D
:1053F0003501AA01350200DED7E700DEDBE7D4F88D
:1054000094209342E9D0D4F8A841E5E7002C00F0BD
:10541000DD8094F89930032B40F0D88094F8D83090
:10542000002B62D12A7994F89A309A4231D3EB88D2
:105430001B0A84F8D93017220233B3FBF2F301338D
:10544000DBB2072B06D90221204604B0BDE8F041AB
:10545000FFF7E4BE2B7A84F8DA30A8F109080123BB
:1054600084F8D83084F8DB30424605F1090104F1B4
:10547000DC0009F0B0F894F8D930984540F0A680E7
:105480002A7904F1D801204604B0BDE8F041FFF7C5
:1054900047BF694B1B681A0717D5684B1B68042B5D
:1054A00013D92F21664809F06DF9A8B12F2164485E
:1054B00009F068F9411C634B634AD3F80435009244
:1054C00040F2A322052004F035F82979204604B0E3
:1054D000BDE8F041FFF7DABE5C21594809F052F906
:1054E00008B15C21E3E75649E5E7022B524B79D13D
:1054F000297994F89A201B68914220D21B07E4D5A1
:105500004E4B1B68042BE0D92F214D4809F03AF986
:1055100060B12F214A4809F035F9411C494B4A4AEC
:10552000D3F80435009240F2AF22CBE75C21444827
:1055300009F028F908B15C21ECE74149EEE726D9EA
:105540001F0743D53D4B1B68012B3FD92F213C48FA
:1055500009F018F990B12F21394809F013F9411CCD
:10556000384B94F89A20D3F8043502922A790192A4
:10557000364A00924FF42D72022025E05C2130481B
:1055800009F000F908B15C21E6E72D49E8E71E07BC
:105590001CD52A4B1B68042B18D92F21284809F049
:1055A000F1F8B0B12F21264809F0ECF8411C254B49
:1055B00094F89A20D3F8043502922A790192244A69
:1055C000009205204FF42E7203F0B4FF04B0BDE842
:1055D000F0815C211A4809F0D5F808B15C21E2E7B6
:1055E0001749E4E71B681C07F0D5144B1B68012B17
:1055F000ECD92F21124809F0C5F878B12F211048B5
:1056000009F0C0F8411C0F4B124AD3F80435009240
:1056100040F2BD22022003F08DFFD7E75C2108484D
:1056200009F0B0F808B15C21E9E70549EBE700BFF4
:10563000885E002024360020FC310020F831002054
:1056400068ED020000B00040FAEA02004AEB0200F6
:1056500094EB0200CDEB0200002CB7D094F8993007
:10566000032BB3D194F8D830022BAE4B45D1297916
:1056700094F89B20914240D11B6818071AD5AA4B79
:105680001B68032B16D92F21A84809F07BF858B3C3
:105690002F21A64809F076F8411CA54B94F8DC2090
:1056A000D3F804350192A34A009204204FF43E72CD
:1056B00003F040FF002504F1A000C4F8AC5002F054
:1056C00011FC204605F010FC94F89B3084F8D8506B
:1056D0000133204684F89B30FFF703FE204604B0D8
:1056E000BDE8F041FFF788BC5C21904809F04AF81A
:1056F00008B15C21CDE78D49CFE71B6819077FF51D
:1057000065AF894B1B68012B7FF660AF2F2187485F
:1057100009F038F860B12F21844809F033F8411CB2
:10572000834B854AD3F80435009240F20A3271E780
:105730005C217E4809F026F808B15C21ECE77B4942
:10574000EEE7002C3FF442AF94F89930032B7FF43E
:105750003DAF94F8D860297994F89A30012E4CD155
:10576000994225D194F8DB3080080341DA073FF5F0
:105770002DAF1727013807FB0040A8F10602A91D2D
:10578000F03008F028FF6B7994F8DB209B0806FACC
:1057900003F3134394F8D9200232B2FBF7F7013731
:1057A000DBB2FFB284F8DB30BE400133B34265E6C2
:1057B0005C4B1B681B077FF509AF5B4B1B68012B1C
:1057C0007FF604AF2F21594808F0DCFF60B12F218C
:1057D000564808F0D7FF411C554B584AD3F80435BA
:1057E000009240F2E22215E75C21504808F0CAFF1F
:1057F00008B15C21ECE74D49EEE79942FFF466AE53
:105800007FF6E4AE474B1B681F077FF5DFAE464BC4
:105810001B68012B7FF6DAAE2F21444808F0B2FF57
:1058200088B12F21414808F0ADFF411C404B94F84E
:105830009A20D3F8043502922A790192404A0092C4
:1058400040F2EE2298E65C21384808F09BFF08B150
:105850005C21E7E73549E9E78008012874D023D3C4
:10586000022800F0D2802F4B1B681B077FF5AEAEDD
:105870002D4B1B68012B7FF6A9AE2F212B4808F07A
:1058800081FF002800F026812F21284808F07AFFA8
:10589000411C6A79264B9208D3F804350192294AB3
:1058A00000924FF45B72A3E0B8F1160F7FF48EAE56
:1058B00001F0B8FA10220146A81D08F07DFE00286C
:1058C0007FF484AE002C40F01381EFF3108372B6A6
:1058D00034681CB9002B00F0078177E694F8992012
:1058E000012A00F00081D4F8A841F2E75C210F48BA
:1058F00008F048FF08B15C2127E10C4929E10023A9
:10590000C4F8943062E6032B7FF460AE94F8D8308C
:10591000002B7FF45BAE204604B0BDE8F041FFF7FA
:10592000C7BC00BFFC310020F831002068ED020048
:1059300000B00040FFEB02001AEC02003AEC02005B
:105940006BEC020041ED0200002C3FF43FAEB8F1D9
:10595000060F7FF43BAE94F89930894D022B2AD183
:10596000204605F0C1FA1421204605F089FA2B687B
:105970001D0740F1F880834B1B68032B40F2F38036
:105980002F21814808F0FEFE60B12F217E4808F0EB
:10599000F9FE411C7D4B7E4AD3F8043500924FF44A
:1059A0005272DDE05C21784808F0ECFE08B15C2121
:1059B000ECE77549EEE72B6818077FF507AE714BEA
:1059C0001B68012B7FF602AE2F216F4808F0DAFE2C
:1059D00090B12F216C4808F0D5FE411C6B4B94F818
:1059E0009920D3F8043501926A4A00924FF4547218
:1059F000022003F09FFDE9E55C21634808F0C2FE48
:105A000008B15C21E6E76049E8E7002C3FF4DEAD31
:105A1000B8F1070F7FF4DAAD94F89930584E023B95
:105A2000012B30D894F8D830022B03D104F1A00018
:105A300002F058FAA9792046FFF76AFB3368190784
:105A40007FF5C4AD4F4B1B68032B7FF6BFAD2F21F5
:105A50004D4808F097FE68B12F214B4808F092FEA0
:105A6000411C4A4B4C4AD3F804350092042040F2C2
:105A70006232D0E55C21444808F084FE08B15C2124
:105A8000EBE74149EDE733681A077FF59FAD3D4BE2
:105A90001B68012B7FF69AAD2F213B4808F072FE60
:105AA00078B12F21384808F06DFE411C374B94F82F
:105AB0009920D3F804350192384A009240F26732B7
:105AC00096E75C21304808F05DFE08B15C21E9E70B
:105AD0002D49EBE75C212C4808F054FE08B15C210D
:105AE000D3E62949D5E61BB962B6002C3FF46EAD6A
:105AF00094F89930012B7FF406AF2B681A0E190227
:105B000042EA036201F47F011B0A0A4303F47F4364
:105B100013432046C4F89430142105F0B1F920460F
:105B2000FFF7C6FB00287FF4EAAE154B1B681E0783
:105B300019D5144B1B68032B15D92F21124808F0D7
:105B400021FE00283FF4D2AE2F210F4808F01AFEA4
:105B5000411C0E4B0E4AD3F80435009240F22B3212
:105B6000042003F0E7FC0323204684F89930FFF774
:105B7000B8FB204604B0BDE8F041FFF7F7B900BF1D
:105B8000FC310020F831002068ED020000B0004038
:105B9000B1EC0200C7EC0200F8EC02000EED0200CE
:105BA0007047000008B5064802F09CF9054B00223A
:105BB0001A70DA811A825A7001221A7308BD00BF66
:105BC00094360020AC36002000B5104A8DB0132367
:105BD0008DF8043053788DF8093013468DF8140091
:105BE00053F8021FCDF80A1059681B89ADF812301E
:105BF0001378CDF80E108DF80830FFF7D3FF01A809
:105C000001F014F90DB05DF804FB00BFAC360020C4
:105C10002DE9F0470378242B92B0054600F0FC8173
:105C200000F28180202BB64A00F0048128D8012B95
:105C300000F09783C0F0D380022B00F00582B04BB8
:105C40001B681B0640F1B881AE4B1B68012B40F26C
:105C5000B3812F21AC4808F095FD002800F0B283F5
:105C60002F21A94808F08EFD411CA84BA84AD3F863
:105C700004350092022040F2592203F05BFC9BE1C4
:105C8000222B00F0798100F1060640F2FD801368B6
:105C90001F0619D59B4B1B68032B15D92F219A483A
:105CA00008F070FD002800F0AE812F21964808F022
:105CB00069FD411C954B974AD3F8043500920420A6
:105CC0004FF4D77203F036FC2979934B934819703F
:105CD00001290CBF052209221A7300243268C3F877
:105CE0000220DC81726833894260038112208DF8C2
:105CF0001C0068798DF821003068CDF82200884DAD
:105D00008DF8201007A8CDF82620ADF82A3001F034
:105D10008DF8844BAB6002F0A1F983490144284619
:105D200002F012F95EE0602B00F0048228D8502BBC
:105D300000F0C781512B00F0D581252B7FF47FAF78
:105D40006F4B1B681C0619D56E4B1B68032B15D9AE
:105D50002F216D4808F016FD002800F06C812F21DE
:105D6000694808F00FFD411C684B704AD3F80435B0
:105D7000009204204FF4E77203F0DCFB002077E090
:105D8000622B00F09B825E4EC0F07182702B00F09F
:105D9000AA82712B7FF453AF336819061BD5594B78
:105DA0001B68032B17D92F21574808F0EBFC00285C
:105DB00000F0CE822F21544808F0E4FC411C534BE4
:105DC0006A68D3F804350192594A0092042040F2DF
:105DD0004D2203F0AFFB524802F084F802E0136852
:105DE000180603D4002012B0BDE8F087454B1B68AD
:105DF000032BF7D92F21444808F0C4FC88B12F2188
:105E0000414808F0BFFC411C404B4A4AD3F80435D6
:105E100000920435019540F27B12042003F08AFBC6
:105E2000E0E75C21384808F0ADFC08B15C21E7E709
:105E30003549E9E71368190619D5324B1B68032B5E
:105E400015D92F21304808F09DFCA0B12F212E48F4
:105E500008F098FC411C2D4B2A79D3F804350192A7
:105E6000354A0092042040F27F1203F063FB287948
:105E7000FFF7AAFEB6E75C21234808F083FC08B1CF
:105E80005C21E4E72049E6E713681A0618D51D4BA4
:105E90001B68032B14D92F211B4808F073FC002822
:105EA00050D02F21184808F06DFC411C174B234A95
:105EB000D3F80435009204204FF4C37203F03AFB88
:105EC000162332688DF81C306B79CDF8212072686A
:105ED000CDF82520022B32898DF82030ADF829200D
:105EE00039D0042B3BD0012B7FF47CAF144B1B68C3
:105EF0001B88ADF82B3007A800F098FF72E700BFB1
:105F0000FC310020F8310020B8ED020000B0004064
:105F100026EF02003BEE0200AC360020AE36002039
:105F200094360020E568020080F0FA0247EE020095
:105F3000FDEE0200ECED0200F7ED020013EE0200B0
:105F4000F83700205C21714808F01CFC08B15C2186
:105F5000A8E76E49AAE76E4B1B685B88C9E76C4BE4
:105F60001B6853F8042FCDF82B205A68CDF82F204A
:105F70001B89ADF83330BEE713681B0617D5654B98
:105F80001B68032B13D92F21604808F0FBFBA8B135
:105F90002F215E4808F0F6FB411C5F4B5F4AD3F8A7
:105FA0000435009204204FF4CB7203F0C3FA2B792E
:105FB000022B0CD0032B1FD0062014E75C21534882
:105FC00008F0E0FB08B15C21E3E75049E5E7102366
:105FD0008DF81C30AB798DF820302B4653F8072F05
:105FE000CDF821205A681B89ADF829306B7CCDF89B
:105FF00025208DF82B307EE711238DF81C30AB79EE
:106000008DF8203077E75C21404808F0BBFB08B1F1
:106010005C214BE63D494DE6414B424CDA89013269
:10602000DA81C2881A82404BA36002F017F83F4918
:106030000144204674E65C21344808F0A3FB08B113
:106040005C218DE631498FE61368180617D5314B70
:106050001B68032B13D92F212C4808F093FB38B36E
:106060002F212A4808F08EFB411C2B4B304AD3F8D5
:1060700004350092042040F2D51203F05BFA142399
:106080008DF81C302B798DF820302B4653F8062FD5
:10609000CDF821205A681B89ADF82930EB690B93A4
:1060A0002B6A0C936B79CDF825208DF8343022E7DC
:1060B0005C21164808F066FB08B15C21D1E7134962
:1060C000D3E74368C3F30B02002A40F0A781022103
:1060D000089383688DF81C1007A91046099301F0F6
:1060E00027FB80E64068810740F09881A9688A070D
:1060F00040F09481EB6813F0030240F09181012499
:106100008DF81C4008900A91E6E700BFB8ED020048
:10611000F8370020F831002000B0004023EE0200E4
:10612000AC36002094360020E56802008096980086
:1061300052EE0200A74F3B681B0628D5A64B1B68F2
:10614000032B24D92F21A54808F01CFB00287CD064
:106150002F21A24808F016FB411C95F80CE0A04E38
:10616000A04AA14BA87BD3F804356C7BBEF1000F8D
:1061700008BF32466E68368803929C4A01900092AE
:10618000049602944FF40472042003F0D3F9AC7B1C
:10619000974E04EBC4084FEA880806EB080393F80F
:1061A00020300BB33B681F061ED58B4B1B68012BA1
:1061B0001AD92F21894808F0E5FA00284ED02F215E
:1061C000864808F0DFFA411C242202FB0462864B59
:1061D00092F82120D3F804350192864A00920220D9
:1061E00040F2162203F0A6F94FF0240909FB04F946
:1061F00006EB0907002487F8204001F02FFF2B7BD6
:10620000BB71824687F8214087F82240BC807A48DB
:1062100002F068F80AF57A7A1AFA80F046F809006E
:10622000AB68FB7708F107006968AA68304408F09A
:10623000D2F972486B7B87F8203056F80910436812
:10624000CB1AA342BFF6CEAD6AE55C21634808F0E5
:1062500099FA08B15C217CE760497EE75C215F48E0
:1062600008F090FA08B15C21AAE75C49ACE7336812
:106270001C067FF5B7AD584B1B68032B7FF6B2ADFC
:106280002F21564808F07EFA78B12F21534808F0A4
:1062900079FA411C544B5A4AD3F804350092042031
:1062A00040F2312203F046F99CE55C214B4808F0AE
:1062B00069FA08B15C21E9E74849EBE70379072B64
:1062C00000F2B0804A4903EBC30201EB820292F86C
:1062D0002020002A00F0A880242202FB03130020C3
:1062E00083F820007FE5474F474BBB6001F0B6FEC7
:1062F000AC6804442146384601F026FE336818068F
:106300007FF570AD344B1B68032B7FF66BAD2F21EF
:10631000324808F037FA90B12F21304808F032FAAD
:10632000411C314BD3F804350294AA680192374AD4
:10633000009204204FF4127203F0FCF852E55C2145
:10634000264808F01FFA08B15C21E6E72349E8E790
:106350005C21224808F016FA08B15C212BE51F49A0
:106360002DE513681A061CD51B4B1B68CBB12F21DA
:106370001A4808F007FAD0B12F21184808F002FA9D
:10638000411C194BEA68D3F804350392AA680292BB
:106390006A6801921E4A0092012040F2552203F0E1
:1063A000C9F878461B4B1B6853B198471AE55C2126
:1063B0000A4808F0E7F908B15C21DEE70749E0E7A1
:1063C00000DE0FE55C21054808F0DCF920B35C2114
:1063D00047E400BFFC310020F8310020B8ED020096
:1063E000D7ED0200E3ED020000B0004067EE0200CE
:1063F000C03600209FEE020084360020E0370020E7
:10640000D2EE02009436002065690200DFEE020041
:106410000FEF0200885E0020044926E41020E2E429
:106420000920E0E40720DEE40820DCE4B8ED020007
:1064300008B58379012B15D008D3022B1BD07846E1
:10644000114B1B68F3B19847002008BD90F821203C
:10645000012393408288006810440C4A013B02FBF0
:10646000030008BD0268838890F821001344074A9E
:1064700002FB003008BD0268838890F821001344B5
:10648000034AF5E700DEDFE7885E0020A086010012
:10649000809698002DE9F84F394CDFF8F88000F12C
:1064A0000045013D0027A8EB0008A4F1070A637E20
:1064B000A4F1070963B34846FFF7BAFF18EB000FD2
:1064C00006461ED5E37E012B2DD9A37E627E9A421D
:1064D00006D901332B48A37601F004FF24F8030CFE
:1064E000242202FB07A20023E376118C4FF6FF72F1
:1064F00091423ED144F8076CA3764846FFF798FFD7
:106500000646637E23B1731B35EA230528BF354653
:106510000137082F04F12404C9D129461A48BDE8DF
:10652000F84F01F011BDDFF870B09BF83030002B50
:10653000D6D1227E154802F10A034370D31C437260
:10654000162383726FF01B03C3726FF00103037392
:1065500021460D3008F03FF8584604F087FF002828
:10656000B3D078460A4B1B680BB19847ADE700DE05
:10657000ABE7627EA17E914228BF6376BDE700BF94
:10658000C736002084360020E0370020283600205F
:10659000885E002018FCFFFF5036002037B51D4DE7
:1065A0002B6804462BBB1C4B1B681B0616D51B4BCC
:1065B0001B689BB12F211A4808F0E4F880B12F2105
:1065C000174808F0DFF8411C164B174AD3F804357A
:1065D0000092012040F2853202F0ACFF062413E065
:1065E0005C210F4808F0CEF808B15C21E8E70C49BF
:1065F000EAE760B1012001F049F920462B6898478D
:106600000446002001F042F9204603B030BD0E24BC
:10661000FAE700BF845E0020FC310020F831002042
:10662000B8ED020000B0004078EF0200F0B54FF086
:10663000805193B0D1F80C31434E03F500239B02F7
:1066400053F8043C002B7AD04FF0102042690132FD
:1066500075D04C690A6962439A4270D94269934283
:106660006DD33A4A3A48136001F076FE394B3A4A04
:106670009A600021D96019615961384B384A9A6093
:1066800068461822D9601961596107F0AFFF354B90
:1066900002930125082368468DF804508DF80C50AC
:1066A0008DF80D308DF80E50FFF778FF044618B1C5
:1066B0003573204613B0F0BD2B4F0CA804F024FC1A
:1066C00006220DF13101F81C07F085FF9DF83020FE
:1066D0003B78264926480894520862F38613022222
:1066E00062F303033B70234BADF81C2019620321B6
:1066F00083F82C109977252159771F4998621C77C8
:106700009F61596206A830238DF81830FFF746FFC5
:10671000274604460028CBD1184B089A1A60014638
:1067200018220CA807F062FF0CA88DF83050FFF774
:1067300035FF13490446384600F0E4FFB8E701236B
:1067400033730624B5E700BFAC360020845E00201A
:10675000843600209436002065690200E03700206E
:1067600095640200115C020028360020D6BE898E96
:1067700075EF020050360020A15B0200F8370020C0
:106780008567020010B50C4688B028B178464D4B9D
:106790001B68002B30D098472378022B37D0032B6F
:1067A0005FD0012B40F0868060238DF80830E368CD
:1067B0000393454B1B68190619D5444B1B68032BE3
:1067C00015D92F21424807F0DDFFB8B12F214048ED
:1067D00007F0D8FF411C3F4BE268D3F80435019223
:1067E0003D4A00924FF4A272042002F0A3FE02A8D8
:1067F000FFF7D4FE08B010BD00DECDE75C213448C1
:1068000007F0C0FF08B15C21E1E73149E3E761230C
:106810008DF80830636803932B4B1B681A06E6D586
:106820002A4B1B68032BE2D92F21294807F0AAFF26
:1068300070B12F21264807F0A5FF411C254B626847
:10684000D3F804350192254A009240F24912CBE771
:106850005C211F4807F096FF08B15C21EAE71C495C
:10686000ECE762238DF80830174B1B681B06BED57A
:10687000164B1B68032BBAD92F21154807F082FF4E
:1068800078B12F21124807F07DFF411C114B144AAB
:10689000D3F804350092042040F24D1202F04AFE73
:1068A000A5E75C210A4807F06DFF08B15C21E9E724
:1068B0000749EBE77846034B1B680BB1984796E70F
:1068C00000DE94E7885E0020FC310020F8310020D3
:1068D000B8ED020000B000403AEF020051EF0200B4
:1068E00068EF020010B51A4B1B681B0688B00446FF
:1068F00018D5184B1B68032B14D92F21164807F005
:1069000041FFD8B12F21144807F03CFF411C134B25
:10691000134AD3F804350092019440F2291204205E
:1069200002F008FE08A8232300F8183DFFF736FE02
:1069300010B90620FFF748F908B010BD5C210648E1
:1069400007F020FF08B15C21DDE70349DFE700BF66
:10695000FC310020F8310020B8ED020000B000400A
:106960009FED020010B5194B1B681B0688B004464A
:1069700018D5174B1B68032B14D92F21154807F086
:1069800001FFD0B12F21134807F0FCFE411C124B30
:10699000124AD3F80435009201944FF49A720420FD
:1069A00002F0C8FD03238DF8083002A800238DF8FB
:1069B0000C30FFF7F3FD08B010BD5C21054807F06F
:1069C000E1FE08B15C21DEE70249E0E7FC3100208E
:1069D000F8310020B8ED020000B00040A5ED020043
:1069E0002DE9F0412E4B1B7B86B004460D46002B53
:1069F0004DD000284DD002884FF6F8739A424AD9FC
:106A000000F02AFF002848D123884FF6FC729342F9
:106A100027D166882EB3234A4FF0240E174692F8EA
:106A2000201071B30EFB0071B1F807C09C4528D14E
:106A3000B1F809C0B44524D1D1F80B80D4F804C012
:106A4000E0451ED192F822C0BCF1FF0F19D0EFF340
:106A5000108372B691F82220013281F8222003B906
:106A600062B618220021684607F0C0FD022368467E
:106A70008DF8003001940295FFF790FD06B0BDE857
:106A8000F0810130082802F12402C8D1E9E708208A
:106A9000F4E70E20F2E71020F0E71120EEE700BF48
:106AA000AC360020C03600202DE9F0411F4C94F890
:106AB0000C80B8F1010F86B007460E4632D199B36B
:106AC00092B320238DF800300B68CDF805304B6869
:106AD0008DF80400CDF8093068460B89ADF80D300B
:106AE0000492FFF75BFD0546C0B93368C4F8023075
:106AF0007368C4F8063033896381032323730C4B16
:106B00000C4A84F800806770E08120829A6001F06E
:106B1000A5FA09490144094801F016FA284606B0C9
:106B2000BDE8F0810825F9E70E25F7E7AC3600202F
:106B300094360020E568020080C3C901E0370020D8
:106B400070B5184C237B86B006460D462BB331B387
:106B500021238DF800300B68CDF805304B68CDF857
:106B600009300B898DF80400ADF80D30684600231C
:106B70000493FFF713FD70B90223E21823702B680A
:106B8000C4F802306B6853602B8913810823667048
:106B90002373E081208206B070BD0820FBE70E2041
:106BA000F9E700BFAC3600207FB5084B1B7B53B123
:106BB00024238DF8040068468DF80030FFF7EEFCC2
:106BC00007B05DF804FB0820FAE700BFAC360020F0
:106BD000054B1B68082B01BF044B1868B0FA80F006
:106BE000400918BF00207047300100103401001028
:106BF00008B5FFF7EDFF40B14FF080430022C3F826
:106C00000C21C3F81021C3F83825FFF7E1FF002855
:106C100046D04FF080525E4BD2F80414C3F82015D2
:106C2000D2F80814C3F82415D2F80C14C3F82815A8
:106C3000D2F81014C3F82C15D2F81414C3F8301578
:106C4000D2F81814C3F83415D2F81C14C3F8401540
:106C5000D2F82014C3F84415D2F82414C3F8481508
:106C6000D2F82814C3F84C15D2F82C14C3F85015D8
:106C7000D2F83014C3F85415D2F83414C3F86015A0
:106C8000D2F83814C3F86415D2F83C14C3F8681568
:106C9000D2F84014C3F86C15D2F84424C3F8702518
:106CA000FFF796FF10B13B4B3B4A1A60FFF790FF8E
:106CB00018B13A4BFB22C3F81825FFF789FF48B1FA
:106CC0003749384B0A681B6822F00F0203F00F03A4
:106CD00013430B60FFF77CFF18B1334B4FF4007286
:106CE0001A60FFF775FF48B14FF08043D3F80024D6
:106CF000D20744BF6FF00102C3F800242B4AD2F838
:106D0000883043F47003C2F88830BFF34F8FBFF36D
:106D10006F8F4FF01023D3F80022002A03DBD3F843
:106D20000432002B2FDA224B0122C3F80425D3F8BA
:106D30000024002AFBD04FF010221221C2F80012CA
:106D4000D3F80024002AFBD04FF010231222C3F8FE
:106D50000422174B1A46D3F800140029FBD0002157
:106D6000C3F80415D2F80034002BFBD0BFF34F8FCB
:106D70000E49104BCA6802F4E0621343CB60BFF3C4
:106D80004F8F00BFFDE70C4B0C4A1A6008BD00BFD7
:106D900000C000408C5600404881030000F00040D5
:106DA000E40E0040580200104096024000ED00E062
:106DB00000E001400400FA05C43100200090D00337
:106DC0000649074A074B9B1A03DD043BC858D050BD
:106DD000FBDCFFF70DFFFDF749FA0000E8F20200C7
:106DE000B831002078320020FEE7FEE7FEE7FEE73C
:106DF000FEE7FEE7FEE7FEE7FEE7FEE710B5064C1E
:106E000006490822204607F0E6FB0822A01804499C
:106E1000BDE8104007F0DFBBFC3700206000001029
:106E2000A400001000487047FC37002038B5054624
:106E300020B97846074B1B684BB19847064B1C6836
:106E40003CB154F8043C284698472468F8E700DE33
:106E5000F4E738BD885E00200C380020F8B50646FF
:106E600020B97846194B1B68ABB19847351D04D142
:106E70007846164B1B6883B19847154F3B689D4277
:106E800004D17846114B1B684BB198473C684CB90C
:106E90003D607460F8BD00DEE8E700DEEDE700DE8F
:106EA000F4E71C46236813B1A542FAD1F8BD25B911
:106EB0007846064B1B6833B19847A5421EBF23682E
:106EC00073602560F8BD00DEF7E700BF885E002034
:106ED0000C38002010B5044620B97846044B1B68D6
:106EE00023B198472346BDE81040184700DEF9E774
:106EF000885E002008B508220221094802F012FF2E
:106F000020B90848BDE8084003F0A8B8064A9168CF
:106F10004160127B0272BDE8084002F03FBF00BF33
:106F200014380020D83100205038002038B50D4DDD
:106F30002B78B3B90C4B5C6804F50054B4F1807F36
:106F40000FD804220121094802F0ECFE20B90848BC
:106F5000BDE8384003F082B8446002F01FFF01230F
:106F60002B7038BD643800205038002014380020C1
:106F7000C831002030B50D468DB09AB94B88012B31
:106F80000CD1164C227822B97846154B1B683BB1C0
:106F90009847144B6A685A60002323700DB030BDC7
:106FA00000DEF6E7032A04D078460D4B1B6893B148
:106FB00098472C22002101A807F018FB19238DF80F
:106FC0000430094B0395DA681B69059201A8069302
:106FD000FFF72CFFE2E700DEEBE700BF643800209C
:106FE000885E0020503800201438002070B503F06F
:106FF00057F8D8B101F056FC002211461A481A4C35
:1070000002F05AFE0026354690B9184C05B1EEB98B
:1070100000232360A3602373FFF76CFF2368636082
:10702000FFF784FFBDE8704001F05EBC20BFDEE7E3
:107030004388012B08D0022B00D1051D02460021F8
:10704000204602F039FEDFE7061DF7E72B68A36054
:107050002B792373B54203D92B790BB92060DDE777
:1070600033682360DAE700BF14380020503800206E
:1070700008B503F053F8A0F5805008BD7FB5002196
:107080001822684607F0B2FA00230293FFF7F0FFD8
:107090000123009001936946054B0648039302F0D3
:1070A000B9FE10B1044802F0D9FF07B05DF804FB47
:1070B000756F020014380020E831002008B5142252
:1070C00000210B4807F092FA00F0C8FF094B0A4A6A
:1070D0009A600A490A4A5860DA60184600221A6122
:1070E0005A610A7000F0D6FEBDE80840FFF7C6BF3F
:1070F0005038002038380020F57102006538002033
:107100000087930330B58DB001F0CCFB144B1A7B94
:107110001D461ABB9A7B0ABB1A8A41F282639A42C5
:1071200002D8104B1B78CBB101232B73AB68002422
:107130000133AB602C82FFF7DDFEAB682A7B8DF854
:107140000820013B0CA80393022300F82C3DFFF715
:107150006DFE01F0C9FB20460DB030BD0824F8E7F4
:10716000503800206538002010B58CB001F09AFB33
:107170001D4B5A7B42B1997BA9B9188A41F28261B1
:10718000884201D8194A127802F001048AB1197BA9
:1071900000225A7349B1012910D07846144B1B685C
:1071A000FBB1984705E00022EEE7FFF7ABFF0028B0
:1071B000F3D101F099FB20460CB010BD1A605A6063
:1071C0001A731A820CA89B680393022300F82C3DC3
:1071D0008DF80820FFF72AFEFFF78CFEFFF7A6FECA
:1071E000E7E700DEE5E700BF503800206538002003
:1071F000885E002038B5194C257B3DB1012D14D097
:107200007846174B1B683BB3984721E0228A41F22E
:1072100082639A4202D8134B1B78CBB1FFF7A4FFCD
:10722000638A0BB1013B638238BD238A41F28262DB
:10723000934202D80B4A157855B142F2B0129342EC
:1072400082BF012300256373FFF78EFF002DE7D077
:10725000238A01332382E3E700DEF9E75038002078
:10726000885E00206538002038B5164C94E80C0084
:107270009A4205461FD2207B1349144B012808BFB0
:107280000B46934207D963682268403B9A4208D371
:10729000FFF74CFE05E001236373FFF765FF00284D
:1072A000F1D0EFF3108072B623685A1C22602B6075
:1072B00028B962B638BDFFF739FE0F2038BD00206F
:1072C00038BD00BF5038002000E0FF00FFFF7F0006
:1072D00010B50E4C30B10E4B01229A732368134443
:1072E000236010BD236823B978460A4B1B6853B14D
:1072F00098472368013B23603BB9054A9373BDE877
:107300001040FFF731BF00DEF3E710BD103800205A
:1073100050380020885E002070B5234C8CB00546A4
:107320000E4601F0BFFA237B002B37D1638A53BB93
:10733000A3682EB9AB4206D301F0D6FA0CB070BDEB
:1073400001339D4221D9A3682A339D42F4D8A37BFF
:10735000002BF1D142F606522360636023826282E1
:1073600063732373A560FFF7C5FDFFF7DFFD237B84
:107370008DF808300CA80223A26800F82C3D039277
:10738000FFF754FDD8E7002ED6D0A36801339D4205
:10739000D2D101236373FFF7E7FECDE7012BCBD1F9
:1073A000002EC9D1A368F2E750380020014B98683D
:1073B000704700BF50380020034B1A7B9868012AA1
:1073C00008BF00F1FF30704750380020044B9B6825
:1073D0005840C20748BF03F1FF331846704700BF4B
:1073E00050380020014B187B704700BF50380020F8
:1073F0002DE9F8431C4CDFF874900026022120464A
:1074000001F0B0FF5FFA86F805460027A5B967B11D
:107410002946204602F040F8082806D154F8043CDA
:107420001BB12A464946404698470136032E04F1CF
:10743000B804E3D1BDE8F88354F8043C23B134F830
:107440000C2C29464046984734F80C3C0221013365
:10745000204624F80C3C01F0ABFF0221204601F04D
:1074600081FF01370546D1E77C38002090EF02000C
:1074700010B5012104460C3001F074FF00283BD008
:107480001E4BC4F89C300023C4F8A0300378626817
:10749000012B09D0022B27D07846194B1B6843B328
:1074A00098474FF4FA7307E083689B1A9A084FF4E1
:1074B000A973534303F5FA73124A934294BFC4F875
:1074C000A430C4F8A4200123C4F8A84084F8B43040
:1074D00004F19C0003F016FE70B17846084B1B685F
:1074E0004BB1BDE81040184783689B1A1A0B064B36
:1074F000DFE700DED5E700DE10BD00BF0D7502003E
:10750000885E0020A0860100645E01002DE9F74F2F
:10751000564B1B7881460C463BB103F03DFE0023E1
:1075200084F8B43003B0BDE8F08F01F10C0AD1F853
:10753000A4605046012101F015FF054620B97846A8
:107540004B4B1B68A3B19847494FDFF82CB1A6F508
:10755000FA7800262B78012BA8EB06060AD0022B1E
:1075600047D078463B68002B5FD09847002327E040
:1075700000DEE9E74FF4A9726368B6FBF2F6AA6889
:10758000B600D21A964228BF164636B978463A68EF
:10759000002A2CD001939047019BE968686823F08A
:1075A000030332461944184406F038FB20B17846EC
:1075B0003B68002B37D0984763681E446660AB6811
:1075C00062689A4233D103F0E7FD5046012101F091
:1075D000EFFE0023636084F8B430264B186801F096
:1075E000CBF9204603B0BDE8F04FFFF741BF00DE06
:1075F000D3E76368AA68B6FBFBF6D21A3603964255
:1076000028BF16462EB978463A6852B10193904782
:10761000019B686823F003033146184406F0D6FA4C
:10762000C4E700DEF5E700DEC6E700DEC8E700F0ED
:1076300015FD2B78B0EB090648BFA9EB0006012B1E
:1076400010D0022B06D15B463344984582D203F01A
:10765000A3FDC6E778463B6813B198470023F3E7DC
:1076600000DEF1E74FF4A973EEE700BF6C380020AD
:10767000885E002068380020645E0100F8B51E486E
:107680001E4C01F051F91E4B186004F11C03082731
:1076900010260325636104F10C0004F11803236133
:1076A000A7736673257301F0BBFE04F1D403C4F81D
:1076B000CC3004F1C40004F1D003C4F8C83084F81D
:1076C000C67084F8C56084F8C45001F0A9FE04F5C2
:1076D000C673C4F8843104F5C47384F87E7184F8E9
:1076E0007D6184F87C51C4F8803104F5BE70BDE83A
:1076F000F84001F095BE00BFF17302007038002021
:1077000068380020022838B504460D4604D978466A
:10771000054B1B6833B19847044BB82202FB043475
:10772000A56038BD00DEF7E7885E002070380020D5
:1077300002282DE9F84F05460C46924605D97846B1
:10774000424B1B68002B23D0984724B978463F4B07
:107750001B68FBB198472378012B21D163689907F7
:1077600004D07846394B1B68B3B19847E3689A0751
:1077700004D07846354B1B6883B19847A3689B07B4
:107780001FD07846314B1B68002B54D0984718E027
:1077900000DEDAE700DEDEE700DEE7E700DEEDE749
:1077A000022B10D16368C3F30B032BB17846274B30
:1077B0001B68002B3DD09847A368C3F30B03002B35
:1077C000DFD1A3682BB97846204B1B68002B34D03F
:1077D0009847EFF3108872B6B8276F431C4E07F135
:1077E0000C09B1440021484601F0BCFD834630B38A
:1077F0000021484601F0DCFD10222146584606F0E3
:10780000EAFEBAF1000F03D0F3195B88AAF8003042
:10781000B82303FB05656B8895F8B40001336B80D2
:1078200028B90C4B1C785CB9F019FFF721FE002039
:1078300006E000DEC0E700DEC3E700DEC9E70420A3
:10784000B8F1000F00D162B6BDE8F88F885E002065
:10785000703800206C38002070B50B4E0024EFF318
:10786000108572B604F10C000021304401F014FEC2
:1078700005B962B6082805D1B834B4F50A7FEED14F
:10788000002070BD012070BD7038002070B5EFF38E
:10789000108672B6174C236838BB23B97846164B4E
:1078A0001B6803B398472368013B236093B9134DCA
:1078B00095F8B43013B92846FFF7DAFD95F86C3126
:1078C00013B90F48FFF7D4FD95F8243213B90D48CA
:1078D000FFF7CEFD23680C4A003318BF0123137055
:1078E00036B962B670BD00DEDDE701332360F1E733
:1078F00070BD00BF983A0020885E002070380020DC
:1079000028390020E03900206C38002010B1800BAD
:10791000014B185C704700BFA0EF020012DF7047F8
:1079200073B5284E32780546002A43D1002843D04B
:10793000254B42681A60FFF761FA0DF10700FFF767
:10794000EDFF044698BB9DF80730012B36D104F0BB
:107950005DF900F08DFA00F071FFE87800F046F96B
:1079600000F068FE03F0AAFB04F0FCF803F0D0F985
:10797000FFF784FE02F06CF902F0D4FE284604F012
:10798000EFFF284601F0D6F942F2107002F048FDF0
:10799000284606F06BF9FEF749FE08B106280FD11C
:1079A00000F07EFC094B00221A6001233370204650
:1079B00002B070BD0824FAE70E24F8E70224F6E7C7
:1079C0000446F4E79D3A0020885E0020A03A00209B
:1079D00038B50E4B1B78B3B10D4D2A789AB900F02B
:1079E0004DFE20B178460B4B1B6853B1984703F00E
:1079F0007BFB044618B903F0B9FF01232B70204626
:107A000038BD00DEF3E70824F9E700BF9D3A002007
:107A10009C3A0020885E00202DE9F0478CB003F0EE
:107A2000D9FFDFF8AC81DFF8AC91044600271CB920
:107A300038460CB0BDE8F08700238DF81830264694
:107A40000FCE07AD0FC504F11D0A33685B4E2B60E6
:107A50005546637D052B00F28F80594A1168002935
:107A600040F09C80204603F099FF03F0B3FF0446EA
:107A7000DDE72A2B2CD02B2B40F08C80237D03F0CC
:107A80000F03022B40F08680013906AAC9B2A81C58
:107A900002F02CFD074638B3D8F800305B0679D5E4
:107AA000D9F80030012B75D92F21304606F06AFE37
:107AB00000284DD02F21304606F064FE411C414B7A
:107AC000414AD3F804350092019740F20B1226E0A8
:107AD000237D03F00F03022B5CD106AA0139A81CF9
:107AE00001F006FA074608B9002753E0D8F800303D
:107AF0005A064FD5D9F80030012B4BD92F213046EB
:107B000006F040FE78B12F21304606F03BFE411CC6
:107B10002C4B2E4AD3F8043500920197F82202200C
:107B200001F008FD36E05C21304606F02BFE08B17E
:107B30005C21E9E73146EBE7237D03F00F03022BDD
:107B400028D1013906AAC9B2A81CFDF723FC21E0FF
:107B50005C21304606F016FE08B15C21ABE73146E9
:107B6000ADE76A884FF6E4639A4213D106AA033957
:107B7000281DFEF735FF0DE003F117022244954260
:107B8000BFF46BAF6B782978292BD5D03FF671AF56
:107B9000162BE6D02B7801331D445AE706AA05922E
:107BA000227DCDF810A0C2F30302063B8DF80C2015
:107BB0008DF80D3003A8884754E700BFA4EF0200FA
:107BC000A03A002000B00040E9EF0200C0EF020040
:107BD000FC310020F83100200020704708B500F08B
:107BE00007FD002008BDFFF739B9000007289ABF3C
:107BF000024B33F81000FA20704700BF14F0020067
:107C000010B5037804463BB10378062B04D07846C0
:107C10000A4B1B6873B19847636923B17846074BD9
:107C20001B684BB1984701232370054B5A6862616A
:107C30005C6010BD00DEEFE700DEF4E7885E002048
:107C4000A83A00202DE9F843174EDFF8609035463A
:107C50004FF0000834680CB1AB680BB9BDE8F8838D
:107C60002778FFB2FB1E012B1AD863693360EB68DB
:107C7000C4F814805A1EEA6023B97846D9F8003057
:107C800063B19847AB68032F03F1FF33AB6084F80F
:107C90000080DFD12046FFF7B3FFDBE700DEF1E72E
:107CA00004F11406D6E700BFA83A0020885E002041
:107CB000014B186800F060BEA43A002070B543691B
:107CC000054623B17846154B1B68BBB19847144B4A
:107CD0001A682AB11A686C685268A21A002A0FDA68
:107CE0001A686A611D60DA680132DA60AAB97846FA
:107CF0000A4B1B6883B1BDE87040184700DEE6E719
:107D000019684A691AB15068001B002802DB6A61D1
:107D10004D61E8E71146F4E700DE70BD885E0020A3
:107D2000A83A0020F8B50F4D0F4F00266B6803B935
:107D3000F8BD6C6863696B6023786661052B01D1BF
:107D40002670F3E72378012B03D078463B6833B1E4
:107D50009847022323702046FFF7B0FFE6E700DED6
:107D6000F7E700BFA83A0020885E00202DE9F04127
:107D7000FFF768FFFFF7D6FF00F070F9394FDFF823
:107D8000EC8006463D463B6823B13B685B689B1B25
:107D9000642B20D400F062F92B68002B5FD02B6895
:107DA0005B68C3F16403C34243BF29682E4A496834
:107DB0002D4A56BF00F1640102230223012000F086
:107DC00003F900284BD07846284B1B68002B45D080
:107DD000BDE8F04118473C682378022B04D0784670
:107DE000D8F8003043B3984763692B600023636180
:107DF000EB685A1EEA6023B97846D8F80030EBB138
:107E00009847A36823B97846D8F80030C3B198479B
:107E10000623216923703046A368984700F01EF9B5
:107E20000646FFF70FFFFFF77DFF2378062BAAD149
:107E3000E2683AB92270A6E700DED5E700DEE0E7A7
:107E400000DEE5E763681344991B6429FBD4636093
:107E5000022323702046FFF731FF94E700DEBDE8E0
:107E6000F08100BFA83A0020B17C0200885E0020AB
:107E700008B510220021044806F0B8FB034800F0C2
:107E800053FD034B186008BDA83A00206D7D020029
:107E9000A43A002038B5044620B978460F4B1B6839
:107EA000BBB19847A36823B978460C4B1B6893B1C4
:107EB0009847EFF3108572B6002363612046FFF701
:107EC0009FFE05B962B6064B1868BDE8384000F061
:107ED00053BD00DEE6E700DEEBE700BF885E002072
:107EE000A43A002038B5044620B97846134B1B68E5
:107EF0005BB19847EFF3108572B62378062B06D155
:107F00000023237005B962B638BD00DEF2E723789E
:107F1000012B01D10523F4E72378002BF2D023783D
:107F2000033B012B81BF064A93680133936004230E
:107F30002370044B186800F01FFDE3E7885E002003
:107F4000A83A0020A43A002070B50D46044620B996
:107F50007846164B1B689BB19847EFF3108672B6B4
:107F6000237813B12378062B0CD12046FFF748FE67
:107F70000F4B6560186800F0FFFC06B962B670BD73
:107F800000DEEAE72378012B02D02378052B02D10B
:107F900001232370ECE72378033B012B81BF054AC3
:107FA0009368013393600323F3E700BF885E0020EA
:107FB000A43A0020A83A0020024B1B6803B962B61D
:107FC000704700BFDC3A0020022838B531D803F0F2
:107FD00003049C422FD1EFF31083184D2B6072B62F
:107FE000174B43F82020174B43F82010164B1C5416
:107FF000164B002243F82020154B1B78ABB1154BD4
:108000001B68CA1A48BF5A1A00F1100101238000E8
:108010008B4000F18040104900F50040C1F8043366
:108020000023C0F84025C0F84031FFF7C5FF00200D
:1080300038BD072038BD0A2038BD00BFDC3A00201B
:10804000BC3A0020D03A0020B83A0020E43A0020A0
:10805000C83A0020CC3A00200080004008B5EFF379
:1080600010830B4A136072B60A4B1B786BB10A4B34
:108070000022C3F84C210122DA64D3F84C05074BE7
:108080001B681844FFF798FF08BD054B1868F9E70F
:10809000DC3A0020C83A002000800040CC3A0020A2
:1080A000E03A00202DE9F8431E4FDFF884800024D9
:1080B0004FEA840909F1804505F50045D5F84031BE
:1080C000DBB157F8246026B97846174B1B68CBB153
:1080D0009847002347F8093004F110020123934028
:1080E000C8F80833FFF7BAFF104BE35C9B07014663
:1080F0000AD5B0470023C5F840310134032CD7D14D
:10810000BDE8F88300DEE4E7304600F0B3FB00286A
:10811000F0D07846044B1B680BB19847EAE700DEC5
:10812000E8E700BFBC3A0020885E0020B83A002093
:10813000008000402DE9F843334FDFF8F09005460A
:108140000026B846B40004F1804303F50043002242
:10815000C3F84025C3F84021D3F840313A6859F8B4
:10816000263005F17801981A48BFD01AB1EB020EFB
:1081700048BFA2EB010E8645244A2ED913593BB1C4
:1081800000211151224AB25C920719D5284698471E
:10819000204BE2581AB1012111600022E250013651
:1081A000032ECFD11C4B1B681BB91C4B4FF48072A4
:1081B0001A601B4BC8F8005001221A70BDE8F88302
:1081C0002946184600F056FB0028E1D07846154BAA
:1081D0001B68002BDBD100DEDAE71259002ADED063
:1081E0005A1B48BFEA1A06F1100101238B4004F123
:1081F00080440D4904F50044C1F804330023C4F859
:108200004025C4F84031CAE7CC3A0020BC3A0020EF
:10821000B83A0020E43A0020DC3A002000E100E017
:10822000C83A0020885E002000800040D03A00203C
:1082300070B500230F49104C104D1A465E5CF607CE
:1082400042BF5A5444F8232045F823200133032B1E
:10825000F4D10B4B18600B4B00221A700A4B4FF0F5
:10826000FF32C3F80823094B4FF48072C3F8802112
:1082700070BD00BFB83A0020BC3A0020E43A0020AC
:10828000E03A0020C83A00200080004000E100E011
:10829000024A136801331360704700BFF03A0020B0
:1082A0000A4A10B500230A4C13600A4AA2600A4A1F
:1082B000E2602361FFF7D2FE00F5C330A0306060BA
:1082C0002046BDE81040FFF7E5BD00BFF03A0020B2
:1082D000F43A002091820200A08601002FDF70474F
:1082E00030DF704710B5034605C89C68D968A0EB1D
:1082F000721082EAF4320C44014410441A605C604B
:108300009960D86010BD000037B50C46054620B90D
:108310007846104B1B682BB198470023A34203D328
:1083200003B030BD00DEF8E70DF10700FFF7D6FF20
:108330009DF807100029F7D0E21A914288BF8DF806
:108340000720E8189DF80710FFF7CAFF9DF80720DF
:108350001344E3E7885E002037B5044602A80023F3
:1083600040F8043D0421FFF7CFFF074B2360019B3A
:108370006360A360E36014252046FFF7B3FF013D6F
:10838000FAD103B030BD00BFED5EEAF145DF7047C2
:1083900046DF704747DF7047064A032313751168AD
:1083A000054B936140F6D862914288BF43F2B062B8
:1083B0009A6070470C3B00202C3B0020064A136853
:1083C0005068064A12681844283278385343044AE1
:1083D000B3FBF2F3C01A70470C3B0020283B00208F
:1083E00040420F0010B52B4B30B11A699969013228
:1083F0001A611A680A441A60D96801221A759A69C2
:10840000013152080129D9609A610CD0022918D093
:1084100099691A6820480A44824227D840F6D762F0
:10842000914223D910BDB2F5FA7F03D130B90022B1
:108430009A61EDE740F6D8618A42E9D840F6D86201
:10844000F6E71A69022A03D11968134A521AEFE7AC
:10845000012ADDD10028EAD0DAE778460F4B1B6805
:1084600013B1BDE81040184700DE10BD0122586866
:108470005A7200241C75FFF75DFE02F013FFFFF730
:108480009DFF03230146064A2046FFF79DFD002875
:10849000E3D110BD0C3B002080969800885E002040
:1084A00099830200F8B5484C484D012323722B787C
:1084B0001BB1474B1B78002B68D000232375042881
:1084C0005CD8DFE800F0035653514D00414AE360A9
:1084D0002361D2F80405A27A3F4D002162B3A37252
:1084E00023686268C5E90001134401213B4A6360C7
:1084F000217523683A4992682260002B08BF0B4619
:10850000991AB1F57A7F27D39A4225D8A161237DA4
:10851000023B012B0CD8637A3BB102F0E5FEFFF77A
:108520004DFFFFF785FE00236372294B00221A706E
:10853000002323722B48F8BDD5E90023DFF8ACE017
:10854000821A22F07F420023A2FB0E670EFB037704
:10855000F30B43EA4743C4E74FF47A73A361D6E7CA
:108560000120FFF73FFFD2E70020FAE702F050FEBC
:10857000CDE7FFF797FD02F07DFEC8E778461A4B7E
:108580001B680BB19847C2E700DEC0E7FFF766FD46
:108590006368C01A2B782060012B07D0022B0BD008
:1085A0007846114B1B6863B1984702E0022222759E
:1085B000A37200232B70AAE703232375074BA36143
:1085C000F7E700DEF5E700BF0C3B00203D3B002055
:1085D0003C3B002000B00040403B00202C3B0020F2
:1085E00080969800203B0020885E002040420F00CB
:1085F000043810B5032817D8DFE800F00C13050283
:10860000FFF7C6FE80B17846084B1B685BB1BDE83A
:1086100010401847064840F6D8638360FFF7BAFE5B
:10862000F0E70348FAE700DE10BD00BF885E0020D7
:108630002C3B00200C4A10B543F2B0640023946038
:10864000012143F69824137013715171D460074AC5
:108650001060074A1370074A1370074A1372537267
:1086600013609172536010BD2C3B0020283B00200A
:108670003C3B00203D3B00200C3B002008B505485A
:10868000FFF784FE20B90448BDE80840FFF782BE2A
:1086900008BD00BFA58402002C3B0020064B1B7DBB
:1086A000032B07D0054B1878013801288CBF002018
:1086B00001207047012070470C3B00203D3B00200B
:1086C000014B5868704700BF0C3B002010B5064BAB
:1086D000587A40B1FFF772FE0446FFF7BFFC03462D
:1086E000201A48BF181B10BD0C3B0020014B187A04
:1086F000704700BF0C3B0020EFF3108372B6054AB1
:10870000527A22B1044A4FF48071C2F8001103B9C1
:1087100062B670470C3B002000E100E0024B0122F2
:108720001A70FFF7E9BF00BF3D3B0020074A1378EE
:108730002BB140B9064B1B78003318BF01231070D2
:108740001BB1FFF7D9BF0023F9E770473C3B00207E
:108750003D3B002008B50146054805F0DDF928B984
:10876000044B4FF48022C3F8002108BD042008BD4B
:10877000483B002000E100E0F0B52A4E2A4D2B4F87
:1087800085B0002433689C420ED32948294D284FD8
:1087900005F0C6FA002600BB274C6946204605F0C6
:1087A000E3F958B305B0F0BD610904F01F020123DD
:1087B000934055F8212013420DD0EFF3108272B68A
:1087C00055F8210020EA030345F8213002B962B6CA
:1087D00057F8243098470134D4E70468237C1BB948
:1087E00078462B6843B19847E068A3689847267499
:1087F000384605F095FACEE700DEF5E79DF8003043
:10880000012B09D008D3022BC7D1019B002BC4D068
:10881000039902989847C0E7019B002BBDD00298AE
:108820009847BAE7603C00207C3C0020643C002074
:10883000803C0020885E0020483B0020094808B5A5
:10884000094B036010234360836005F03DF907483E
:1088500005F032FA064BC02283F812234FF480222F
:108860001A6008BD483B00205C3B0020803C002093
:1088700000E100E030B50D4685B0044620B97846E9
:10888000074B1B6853B19847002368468DF80030AA
:1088900001940295FFF75EFF05B030BD00DEF3E7FF
:1088A000885E002010B5EFF3108472B60B490A6899
:1088B000531C0B603AB90A4B4FF48022C3F8802056
:1088C00004B962B610BD002BFAD17846054B1B687F
:1088D0000BB19847F4E700DEF2E700BF5C3C0020F4
:1088E00000E100E0885E002038B5EFF3108572B635
:1088F0000A4C236823B97846094B1B685BB198473B
:108900002368013B23601BB9064B4FF480221A6099
:1089100005B962B638BD00DEF2E700BF5C3C00205E
:10892000885E002000E100E038B5054620B97846B1
:108930000E4B1B68ABB198470D4C2368052B04D92F
:1089400078460A4B1B6873B19847EFF3108372B6F1
:108950002068421C2260074A42F8205003B962B6E0
:1089600038BD00DEE8E700DEEFE700BF885E0020EC
:10897000603C0020643C002010B5114B1B68834212
:10898000044604D878460F4B1B68BBB19847EFF3F9
:10899000108372B60C496009012204F01F0402FA28
:1089A00004F451F82020224341F82020074A4FF4D4
:1089B0008021C2F8001103B962B610BD00DEE6E7FF
:1089C000603C0020885E00207C3C002000E100E04C
:1089D00070B50D461646044620B978460C4B1B6808
:1089E0008BB1984725B97846094B1B686BB19847FE
:1089F000EFF3108372B60022A560E6602274246053
:108A000003B962B670BD00DEECE700DEF0E700BF40
:108A1000885E002070B5044620B97846134B1B6869
:108A2000EBB19847A36823B97846104B1B68C3B1D4
:108A30009847EFF3108672B6237C03F0FF0593B9D5
:108A4000012323740A48214605F046F9094B4FF4E7
:108A50008022C3F80021284606B962B670BD00DE48
:108A6000E0E700DEE5E71120F6E700BF885E0020C2
:108A7000803C002000E100E010B5044620B97846B3
:108A8000034B1B6813B19847207C10BD00DEFBE749
:108A9000885E002003F0A0B805F0C2B901F009BC5F
:108AA00001F03FBC30B429B302294CD81970597871
:108AB00001F0800162F3C7115970C1680C04C1F361
:108AC000074204F47F0401F47F4122430A439A7071
:108AD000C2F30721120C1A71D97001890A0A42EAFD
:108AE0000122A3F8052041880A0A42EA0122A3F8DC
:108AF000072022E01970847A5A7864F306025A70CB
:108B0000C47AD2B264F3C7125A70C4682504C4F39D
:108B1000074205F47F0504F47F442A432243C2F34D
:108B200007249A70120C1A71DC700489D971220A18
:108B300042EA0422A3F805201972026912BAC3F8A6
:108B4000092030BC70477846034B1B680BB130BC22
:108B5000184700DEF5E700BF885E00207FB50E46AF
:108B60001546044600B122B97846094B1B686BB123
:108B7000984710220021684605F038FD2B46324602
:108B80002146684605F04CF904B070BD00DEF0E700
:108B9000885E002070B5064688B00D461446002158
:108BA000052204A805F022FD336907221BBAA91883
:108BB0000DF11900CDF8153005F00DFD70696A460C
:108BC000113004A9FFF766FFAB1D0DF10600E21D91
:108BD00013F8011910F8014DAB4281EA040102F8C3
:108BE000011DF5D108B070BDF7B50546002755F851
:108BF0000C1B8368C97A0646B94202AA14BF08242E
:108C0000042403F1090042F8047D736829462044D6
:108C100001F0B4FD002800F08880737B012B16D092
:108C20000120FEF755FB3468FEF7C6FB2061306873
:108C30000C30FEF719FB04463846FEF749FB34B109
:108C40000199284601F01CFE204603B0F0BD3568AE
:108C5000019C2889FEF75AFE012805D07846344B3E
:108C60001B68002B57D0984795F90A30002B05DA7E
:108C700078462F4B1B68002B4FD09847EB68B3F119
:108C8000807F05D378462A4B1B68002B47D0984736
:108C90002B782BB97846264B1B68002B41D0984780
:108CA0006B692BB97846224B1B68002B3BD0984749
:108CB0002B6903F00102237803F07F0343EAC21318
:108CC00023706A69127823F07F0302F07F02134356
:108CD00023706378EA7A03F07F0343EAC213DBB2BE
:108CE0006370AA7A23F07F0302F07F02134363705C
:108CF000EB6823711A0CA2701A0AE2702B89A37117
:108D00001A0A62716B8823721A0A019BE271093395
:108D10003361002498E700DEA6E700DEAEE700DE60
:108D2000B6E700DEBCE700DEC2E704248CE700BF44
:108D3000885E002008B5084B58B91860074B01221F
:108D40001A70FEF7BBF9FEF751F9BDE8084001F0D3
:108D50003DBE82681A60F1E7883C00208C3C002010
:108D600010B5044620B97846104B1B68C3B198472C
:108D7000236823B978460D4B1B689BB1984723683D
:108D80005B6923B97846094B1B686BB1984701238F
:108D90002373002363732046BDE81040FFF724BF10
:108DA00000DEE5E700DEEAE700DEF0E7885E0020AF
:108DB00070B5044690B028B97846474B1B68002B25
:108DC00079D0984723692BB97846434B1B68002B11
:108DD00073D0984723682BB978463F4B1B68002B0C
:108DE0006DD0984723685B692BB978463A4B1B686E
:108DF000002B66D0984703AD00222B461146206811
:108E0000FFF750FE22682369D17A002914BF082198
:108E100004218DF83C105169089501310791A16832
:108E2000023189B2A3F10906023B002509930D9393
:108E300007A80B440E93ADF82810ADF830500B95F1
:108E4000FFF72CFE324620683146FFF7A3FE21696A
:108E500004F10C00093901F0DDFC05238DF81C300C
:108E6000A3688DF81E3007A823698DF81D5008935C
:108E700002F09CFE0446E0B1184B1B689B0618D517
:108E8000174B1B68012B14D92F21164805F07AFCCB
:108E9000C8B12F21134805F075FC411C124B134A31
:108EA000D3F804350092019440F24122022000F0F0
:108EB00041FB10B070BD00DE84E700DE8AE700DE13
:108EC00090E700DE97E75C21064805F05BFC08B1FF
:108ED0005C21DFE70349E1E7885E0020FC310020E8
:108EE000F83100206CF0020000B0004087F0020072
:108EF0002DE9F04FA5B004AF0C463A6005460028B6
:108F000000F0658107F13C0A01460122504605F058
:108F100062FB2878EB1D00267B6607F1800807F1CD
:108F2000430307F11409C009A7F87060FE667B6768
:108F3000C7F86090FEF74AFA2B7848F8486D03F0BE
:108F40007F0B786341465846FE72FBF783FEA14EC5
:108F5000BB6B002B00F0DE805246294607F124004F
:108F6000FFF718FE97F83D3097F84200DA0903F052
:108F70007F0387F82E3097F83F3087F82F2097F837
:108F80003E201B0243EA024397F8402013433B6311
:108F900097F8413040EA0320B885FEF7B7FC012876
:108FA0003AD197F82F20002AA4F1090314BF082210
:108FB0000422934230D3396BB88D02F039FE002879
:108FC00038D003233B7307F10C0006237B73BC737B
:108FD000C7F810A002F0EAFD7860E8B17E4B1B688C
:108FE000980619D57D4B1B68012B15D92F213046CA
:108FF00005F0C8FBA8B12F21304605F0C3FB411C8A
:10900000774B7A68D3F804350192764A00920220B1
:109010004FF4997200F08EFA41465846FBF71AFE5B
:1090200096E75C21304605F0ADFB08B15C21E3E733
:109030003146E5E707F10C01B88DFBF70BFF02465F
:109040000028E9D197F82F30002B14BF0821042104
:10905000E31F87F87C105B1A796E9BB2A7F8683023
:109060000B44BB6701464B4607F12400FFF71AFD8E
:10907000BB6B07F10B01013307F15C00FB65FFF7E8
:109080000FFDFB7A002BC7D097F8433097F84400C8
:1090900040EA0320F884FEF739FC4F4B87F82400A0
:1090A0001B68990736D54D4B1B68032B32D9B7F88F
:1090B0006810D7F874E04B00083323F007036D46BF
:1090C000ADEB030D484B04AED3F800C070463346F9
:1090D000A0EB0E02914203F102032FD8002306F801
:1090E00011303C482F2105F04DFB002835D02F21B1
:1090F000384805F047FB411C394B3C4AD3F804354E
:1091000001923B4A0092029640F28112042000F044
:1091100011FAAD46FD7A002D00F0FC8097F824503E
:10912000002D00F0F7803B6BB3F1807F04D297F9FC
:109130002E30002B80F2AF800025EBE010F8012BE1
:109140004FEA121802F00F021CF8088003F8028C94
:109150001CF8022003F8012CBAE75C211D4805F039
:1091600011FB08B15C21C3E71A49C5E700DE9BE0AB
:109170005C21184805F006FB08B15C2176E0154932
:1091800078E0154B1B689B077FD5144B1B68012BA0
:109190007BD92F210F4805F0F5FA78B12F210D4822
:1091A00005F0F0FA411C0E4B124AD3F80435009238
:1091B000022040F2A51200F0BDF966E05C210548EE
:1091C00005F0E0FA08B15C21E9E70249EBE70E257A
:1091D000A0E000BF6CF00200FC310020F83100205C
:1091E00000B0004087F002000032002024F00200AE
:1091F00037F002003FF0020097F82E30C7F85CA06D
:10920000013B87F82E3000233B6607F15C00012309
:109210007E6687F8683087F86930FFF7E5FC82469C
:109220000028AED132464146F86E05F0D4F907F178
:109230005C00FFF7BDFD04234846BC753B7587F80D
:1092400015A0C7F8188002F0B1FC0446E8B1344B11
:109250001B689A0619D5334B1B68012B15D92F2192
:10926000314805F08FFA002882D02F212E4805F0D2
:1092700089FA411C2D4B2E4AD3F8043500920194F3
:1092800040F2A112022000F055F997F82E30013378
:1092900087F82E303AE0BB6B33B97846254B1B6814
:1092A000002B3FF463AF984797F82F30002B14BF83
:1092B00008230423093CE41AE6B207F1240A07F163
:1092C00045083B6852463146404603F085FB1A4B41
:1092D0001B780546D3B197F82E30012B16D997F895
:1092E0002430012B05D107F15C01F88CFBF7B2FDAE
:1092F00060B9124B1B68002B3FF47EAF97F82E200D
:10930000F98CB88D984700287FF476AF396BB88D0B
:1093100002F0ACFC28468437BD46BDE8F08F00BFA4
:10932000FC310020F83100206CF0020000B0004059
:1093300087F00200885E00208C3C0020883C0020E2
:10934000436849B9027880781A441B78C31A12F826
:10935000010C1844C0B270475A185B5C12F8010C3B
:10936000C01AF7E738B50D46044620B978460F4BCA
:109370001B68BBB198472378AB4204D878460B4BA7
:109380001B688BB1984729462046FFF7D9FF40B1AB
:1093900063686278585DA378013B1840A36802FBBC
:1093A000003038BD00DEE6E700DEECE7885E002036
:1093B00038B50C46054620B978460D4B1B6893B16D
:1093C00098472B78A34204D87846094B1B6863B1B1
:1093D000984721462846FFF7B3FF18B16A68135D26
:1093E0000133135538BD00DEEBE700DEF1E700BFC7
:1093F000885E002010B5044620B97846074B1B68EC
:1094000033B19847002319462278934202D310BD06
:1094100000DEF7E76268D1540133F5E7885E00208B
:1094200010B54378044623B978461A4B1B6803B33A
:1094300098472378012B04D87846164B1B68D3B184
:109440009847A36823B97846124B1B68ABB198477D
:10945000636823B978460F4B1B6883B19847A3789C
:109460008BB15A1E1A420ED12046BDE81040FFF7BC
:10947000C1BF00DEDDE700DEE3E700DEE8E700DE97
:10948000EDE79847F0E77846024B1B68002BF8D1D0
:1094900000DEE9E7885E002038B50D46044620B9B5
:1094A00078460B4B1B6873B198472378AB4204D8BE
:1094B0007846074B1B6843B1984729462046BDE8CC
:1094C0003840FFF73DBF00DEEFE700DEF5E700BF05
:1094D000885E002037B506AC184654F8045B00924D
:1094E0000B4602460549002005F00FF822462946A2
:1094F000002004F0E7FE03B030BD00BFB5F002006D
:10950000034B1860034B1960034B1A60704700BF90
:10951000FC310020F83100200432002070B4044CEB
:10952000246814B1A44670BC604770BC704700BF8B
:109530000432002030B585B008AC54F8045B0194C7
:1095400000950394FFF7EAFF05B030BD0379427937
:109550009B1A00EB03307047431E9BB247F6FE6236
:10956000934208D849B14B8858400B8818420CBF29
:109570000120002070470020704701207047000044
:10958000084B984210B5044603D303F58273984202
:1095900004D97846044B1B6813B19847201F10BDAF
:1095A00000DEFBE79C3C0020885E0020094B9842CF
:1095B00010B5044603D303F58273984204D9784664
:1095C000054B1B681BB19847A4F10C0010BD00DED1
:1095D000FAE700BF9C3C0020885E0020820738B577
:1095E00004460D4604D078460D4B1B6873B198476E
:1095F000AB0704D078460A4B1B684BB1984725F05F
:1096000003052544AC4205D1012038BD00DEEFE75B
:1096100000DEF4E754F8043B0133F3D0002038BDFA
:10962000885E00201FB501240190039102926946D3
:109630001A4620468DF80040FEF77AF804B010BDB7
:109640002DE9F041104D114F0146114803F0BCFEC9
:109650006E684FF00008284604F062FB044640B1F3
:10966000C0F800808368C0689847A642F3D1BDE87F
:10967000F08136B178463B680BB19847EBE700DEE6
:10968000E9E7BDE8F08100BFA43D0020885E00202E
:10969000903C002013B502A9002482B241F8044D89
:1096A000044803F015FD18B90198043002B010BD4C
:1096B0002046FBE7903C002008B5FFF761FFBDE8BE
:1096C000084001460288014803F090BD903C00200C
:1096D000014B1868FFF750B9AC3D002010B5038866
:1096E000044623B978460B4B1B688BB198472088FA
:1096F000094B04EB800030EA030203D06288B2F524
:10970000FE4F04D11C4004F580542078204410BD45
:1097100000DEECE7885E002000F0FFFF70B5046813
:10972000237805461C4400214FF6FF762868FFF792
:109730000DFF844202D26388B34201D1084670BD56
:109740002046FFF7CBFF21460446EFE72DE9F04F17
:10975000A54EA64D89B034462A783378022A02D025
:1097600009B0BDE8F08F032BFDD801A252F823F019
:1097700081970200E797020061970200EF9A0200CA
:1097800008A9002341F8103D994803F0B1FD0146B6
:109790000028E5D1049F974B97F808903A1D1A606E
:1097A000012399452370D7D8D7F80480D8F80C0046
:1097B000FFF7CCFED8F81430C01AD8F80830C01A19
:1097C000B9F1000F01D1398A89008142C4DBD8F890
:1097D0000430002BC0D0032388F8003078682B7049
:1097E00004F000F9B8E7834B1F6809238DF81030A7
:1097F0003B798DF8113004A800238DF812300593C1
:1098000002F0D4F98046E8B17B4B1B689B0619D562
:109810007A4B1B68012B15D92F21794804F0B2FF30
:10982000D8B12F21764804F0ADFF411C754B764A24
:10983000D3F804350092CDF8048040F28E22022045
:10984000FFF778FE3B79042B00F2B680DFE813F0D7
:109850000E009500BC00040138015C21684804F04A
:1098600091FF08B15C21DDE76549DFE73B68D3F88C
:109870000C804046FFF76AFE98F80030FA890146EE
:1098800008EB030000F0E2FE3B68D3F8089029F4EF
:109890007F6828F00F0808F5805BB7F80C80ABEB09
:1098A00009014FEA8808414582463ED9C8443946F5
:1098B000002331F80C2F48469200FFF7B3FE28B181
:1098C0007846524B1B68002B51D09847504B51495A
:1098D00004224046FFF7A6FE28B178464B4B1B6892
:1098E000002B46D09847BAF1000F13D03A68BAF867
:1098F0000010536803EB810353604749444B042233
:109900005046FFF78FFE28B17846404B1B68002B6E
:1099100031D09847C7F808900023404A1370002BB5
:1099200040F0E3800223237016E7D868FFF70EFEAD
:10993000834500F0D680414503D19BF80080D84490
:10994000B5E70023042236494846FFF76BFE20B1F5
:1099500078462E4B1B6843B198479BF80090B7F8A8
:109960000C80D94409EB8808A1E700DEF5E700DEAA
:10997000ACE700DEB7E700DECCE73B68D3F80C804D
:109980004046FFF7E3FD98F80030FA89014608EBFE
:10999000030000F05BFE002800F0A5803A68B86084
:1099A0000188536803EB810353601B49184B042261
:1099B000FFF738FE0028AFD07846144B1B68002B09
:1099C00000F08D809847A7E73B6897F80D80DB682B
:1099D00003EB083808214046FFF700FE10B30822C9
:1099E0000B4BB9184046E3E7A03D0020B03D0020F6
:1099F000903C0020B43D0020FC310020F8310020D4
:109A0000E8F0020000B0004087F00200885E00200D
:109A1000B23D0020E4F00200DCF00200B83D00207E
:109A2000E0F002007B4A08F1FF3A07F1070907F16D
:109A30000F0B1AF8013F19F8011F994207D0FF2BAD
:109A400005D0784613682BB103929847039ACB450B
:109A5000EFD1C4E700DEFAE738680C30FFF75EFEAE
:109A6000804620B978466B4B1B682BB39847B8F8F3
:109A700002305BB1684B694904224046FFF7D2FDD2
:109A800020B17846634B1B68C3B198474046D7F86E
:109A90000090FFF723FEC9F808003968C868FFF78F
:109AA00055FD8B688342BFF437AF4046FFF716FE83
:109AB000594B5B4904227BE700DED8E700DEE5E78F
:109AC0003B68DA681B69059202211B038DF81010B0
:109AD000514A069304A90120FDF72AFE6AE700DE39
