:020000021000EC
:10B00000007D0020991E0200D91E0200F1C6010039
:10B010000000000000000000000000000000000030
:10B02000000000000000000000000000DD1E020023
:10B030000000000000000000DF1E0200E11E020010
:10B04000E31E0200E31E0200E31E0200E31E0200F4
:10B05000E31E020000000000E31E0200E31E0200E7
:10B06000E31E0200E31E0200E31E0200E31E0200D4
:10B07000E31E0200E31E0200E31E0200E31E0200C4
:10B08000E31E0200E31E02005D360200E31E020022
:10B09000E31E0200E31E020051C70100E31E02008E
:10B0A000E31E0200E31E020000000000000000009A
:10B0B0000000000000000000000000000000000090
:10B0C00010B5064C2378002B07D1054B002B02D07E
:10B0D000044800E000BF0123237010BDF0230020CE
:10B0E0000000000064C70200084B10B5002B03D01D
:10B0F0000749084800E000BF07480368002B00D15B
:10B1000010BD064B002BFBD09847F9E7000000006C
:10B11000F423002064C70200E823002000000000A0
:10B12000164B002B00D1144B9D46402292029A1AD6
:10B13000924600218B460F461348144A121A10F00B
:10B14000F3F90F4B002B00D098470E4B002B00D08B
:10B1500098470020002104000D000D48002802D06F
:10B160000C4800E000BF10F08FF92000290000F02B
:10B1700019FB10F073F9C04600000800007D0020A4
:10B180000000000000000000F02300204C530020CD
:10B190000000000000000000214B70B5C01A0D0037
:10B1A0000C210FF0BBFF0400022805D978461D4B87
:10B1B0001B68002B0DD09847012D1CD0002D0AD004
:10B1C000022D1CD07846174B1B68002B1ED09847C9
:10B1D00006E000DEF0E720000121153001F064FCFC
:10B1E0001524114B1B8815339C4211D301211520C6
:10B1F00001F05AFC70BD200000211530EEE7E02080
:10B2000006226421000401F05DFCE9E700DEE7E7C7
:10B21000200001F03BFC011EE9D00134E1E7C0460B
:10B2200010240020CC5200204024002073B56B4D28
:10B2300004002B685B0422D5694B1B68032B1ED9C5
:10B24000684E2F21300010F040FA2F21002807D13E
:10B250005C21300010F039FA3100002804D05C2164
:10B26000300010F032FA411C5F4A604B0420D35882
:10B270005F4A019400929D22520009F0EFF95D4B64
:10B280001B88002B25D12B685B0421D5544B1B68F0
:10B29000012B1DD9534C2F21200010F016FA2F211D
:10B2A000002807D15C21200010F00FFA21000028AF
:10B2B00004D05C21200010F008FA411C4A4A4B4B94
:10B2C0000220D3584C4A00923E22FF3209F0C6F9C0
:10B2D00073BD9C4270D3032C73D02B685B04F7D5ED
:10B2E0003F4B1B68012BF3D93E4D2F21280010F056
:10B2F000ECF92F21002807D15C21280010F0E5F996
:10B300002900002804D05C21280010F0DEF9411C3F
:10B31000354A364B0220D358384A01940092A12274
:10B32000520009F09BF9D3E72000153001F0AEFB85
:10B33000012141400C2044433148C9B2001901F0B9
:10B340007FFC082803D0042801D011282BD12B68BA
:10B350005B0421D5224B1B68032B1DD9214C2F21C7
:10B36000200010F0B2F92F21002807D15C21200025
:10B3700010F0ABF92100002804D05C21200010F06F
:10B38000A4F9411C184A194B0420D3581D4A0092B5
:10B39000AF22520009F062F9E020042232210004B9
:10B3A00001F090FB94E7002800D191E764210D4A59
:10B3B000FF3101F05FF98BE7022CB5D9032C00D0E7
:10B3C00086E7182001F062FB012141400C48C9B218
:10B3D0000322243001F068FCB3E7C0466C23002050
:10B3E000682300204CB7020000B0004004050000B4
:10B3F00077B70200402400208AB70200A2B70200FB
:10B4000010240020C2B7020030B50B7885B00D00C3
:10B41000002B2DD1174B1B685B0429D5164B1B68DD
:10B42000032B25D9154C2F21200010F04EF92F2188
:10B43000002807D15C21200010F047F921000028E6
:10B4400004D05C21200010F040F9411C14200C4A6B
:10B450000C4BD3586A6810560390287B0290528890
:10B4600004200192084A00923222FF3209F0F6F8D5
:10B4700005B030BD6C230020682300204CB70200CB
:10B4800000B0004004050000E0B7020073B5404D75
:10B49000404C2B685B0423D53F4B1B68032B1FD903
:10B4A0003E4E2F21300010F010F92F21002807D137
:10B4B0005C21300010F009F93100002804D05C2133
:10B4C000300010F002F9411C354A364B0420D358A5
:10B4D00022880192344A00926E22FF3209F0BEF8AF
:10B4E0002288324B5100C95A0C235343304A985A90
:10B4F00003F00EF8002804D07221284AFF3101F031
:10B50000B9F802F0FBF920880021153001F0CCFADF
:10B51000238801339BB22380022B0CD8254B18883B
:10B520000130FF3080B200F0DFFE208801211530AD
:10B5300001F0BAFA73BD2B685B0421D5164B1B686A
:10B54000032B1DD9154C2F21200010F0BEF82F2100
:10B55000002807D15C21200010F0B7F82100002856
:10B5600004D05C21200010F0B0F8411C0C4A0D4BB7
:10B570000420D358104A0092BF22520009F06EF8FE
:10B58000E02004226421000401F09CFAD2E7C046C6
:10B590006C23002040240020682300204CB70200C8
:10B5A00000B0004004050000ABB802006024002099
:10B5B000102400205E240020D2B8020037B5254BAD
:10B5C000254D1B685B0423D5244B1B68032B1FD917
:10B5D000234C2F21200010F078F82F21002807D1CC
:10B5E0005C21200010F071F82100002804D05C21BB
:10B5F000200010F06AF8411C1A4A1B4B0420D35853
:10B600002A880192194A00928622FF3209F026F810
:10B610002B88174A5B00985A04F076F8002804D06B
:10B62000C4210F4A490001F025F82B88114A5B001C
:10B63000985A04F001FA002804D08A21084AFF3100
:10B6400001F018F80C4B18880130FF3080B200F080
:10B650004BFE37BD6C2300204024002068230020CF
:10B660004CB7020000B000400405000088B802009A
:10B6700060240020422400205E240020F7B53D4BCA
:10B6800005001B88022B06D978463B4B1B68002B14
:10B6900000D16CE09847394B1B685B0423D5384BCD
:10B6A0001B68032B1FD9374C2F21200010F00DF8F9
:10B6B0002F21002807D15C21200010F006F821007E
:10B6C000002804D05C2120000FF0FFFF411C2E4A0F
:10B6D0002E4B0420D3586A8A01922D4A0092C92227
:10B6E000520008F0BBFF2B4C2B4F2188688A490081
:10B6F000791803F0E3FF002804D09621214AFF3196
:10B7000000F0B8FF2388254A254E5B001188F31806
:10B71000688AAA6804F052F9002804D0CB21194A9B
:10B72000490000F0A7FF23885B00F05A01F0B6FC47
:10B73000002804D09A21134AFF3100F09BFF238890
:10B740005B00F95AF05A01F05DFC002804D09C21FE
:10B750000C4AFF3100F08EFF238801332380054B14
:10B7600018880130FF3080B200F0ACFDF7BD00DE7C
:10B7700091E7C04640240020CC5200206C230020DA
:10B78000682300204CB7020000B000400405000010
:10B79000EBB802005E240020602400205C2400201E
:10B7A00042240020C020F0B5BC4A8BB00421C00167
:10B7B00008F038FFBA4D2B685B0421D5B94B1B68E4
:10B7C000032B1DD9B84C2F2120000FF07EFF2F2115
:10B7D000002807D15C2120000FF077FF210000280E
:10B7E00004D05C2120000FF070FF411CAF4AB04B29
:10B7F0000420D358AF4A0092D322520008F02EFF03
:10B8000001F08CF9AC4801F0A3F9002804D0AA217A
:10B81000A54AFF3100F02EFF0121152001F044F967
:10B8200001F088F82B685B0420D59E4B1B68032B26
:10B830001CD99D4C2F2120000FF047FF2F210028FD
:10B8400007D15C2120000FF040FF2100002804D028
:10B850005C2120000FF039FF411C944A944B0420D6
:10B86000D358964A0092B72208F0F8FE03F0BEFEC5
:10B8700002F05AFD0123924A5B421380914A924E94
:10B8800013808F4A914D53808E4A914853808C4A41
:10B89000338093808B4A2B8093808E4A138001F0F3
:10B8A0007FFB002803D0804AC62100F0E3FE8A4ACD
:10B8B00000218A4801F0C4FD002803D07A4AC7213C
:10B8C00000F0D8FE0027864C0434864BB9B22360C2
:10B8D000201F01F097F9002803D0734ACC2100F013
:10B8E000C9FE01370C34042FEFD103F0B9FD002855
:10B8F00000D1A2E0012304A93000049304F03CF835
:10B90000002803D0684A762100F0B4FE0123308875
:10B9100004AA2900049304F005F9002803D0624A20
:10B92000782100F0A7FE042304A907A8049303F0DC
:10B930006FFF002803D05C4A7D2100F09BFE0024AD
:10B940002600049B9C4238D3674B1E8002F052FCB9
:10B95000634C002800D1D5E00026012307AF5B42ED
:10B960003B800C2373433900E05AB5B202F0EEFD80
:10B97000002808D13A885D4B9A4204D0013501363F
:10B98000ADB2032EE9D15A4B1D8000F0C5FD584BD6
:10B99000554A1B881088834200D302E1581CFF30AF
:10B9A00080B200F08FFC0EF093FA3038032801D8F3
:10B9B000FFF73CFC06F064FFF5E705AF630007AA5C
:10B9C000985A390003F0F6FE002803D0364A822147
:10B9D00000F050FE3B78012B21D173000393384BCC
:10B9E00072009918788804F049F8002817D1344B70
:10B9F00072009A5A3D4B9A4211D0324A73009446D3
:10BA000063441900380003F031FF002803D0264AB0
:10BA10008C2100F02FFE0136B6B2013491E705A863
:10BA20000378032BF9D12B4903F020FF0028F4D031
:10BA30001D4A912100F01EFEEFE73A002D4907A8AC
:10BA40000FF069FD07A803F0E9FD002803D0164AAE
:10BA5000D72100F00FFE1F49274803F02FFE0028D2
:10BA600003D0114AD82100F005FE320023490020FE
:10BA700003F052FF002803D00B4AD92100F0FAFD51
:10BA800031882B001E4A002004F010F8002800D155
:10BA90005CE7054ADA2100F0EDFD57E7FD450200BD
:10BAA0006C230020682300204CB7020000B0004047
:10BAB0000405000035B802002DB2010064B8020090
:10BAC00042240020602400205C2400200C2400205C
:10BAD000FDC201004824002009B401004C240020CC
:10BAE0001024002099B101005E240020FFFF000017
:10BAF0004024002048B70200FECA000025B802001A
:10BB000015B802002B4E2988308802F05DFD002810
:10BB100003D0294AE42100F0ADFD2988308802F0E5
:10BB20007BFD002803D0244AE52100F0A3FD002678
:10BB30002988A05B02F048FD002803D01E4AEA21B4
:10BB400000F098FD2988A05B02F066FD002803D074
:10BB5000194AEB2100F08EFD0C36242EE8D12988FD
:10BB6000A08C02F031FD002803D0134AEE2100F032
:10BB700081FD2988A08C02F04FFD002803D00E4AD9
:10BB8000EF2100F077FD0D4BA08C198802F0C0FC6E
:10BB9000002803D0084AF02100F06CFD01F0AEFE51
:10BBA000F3E6022800D9FEE60130FF3080B200F053
:10BBB0009BFBF8E64C2400204CB7020048240020F0
:10BBC00030B5B84A8BB010780338072800D9C0E1E7
:10BBD0008023B54DDB010FF097FA08000A0038000A
:10BBE0006B00A000D4001F018101042111702A689C
:10BBF0001A4220D0AD4B1B68032B1CD9AC4C2F2113
:10BC000020000FF062FD2F21002807D15C212000C9
:10BC10000FF05BFD2100002804D05C2120000FF014
:10BC200054FD411CA34AA44B0420D358A34A0092BC
:10BC3000722208F013FD01F049FA002803D07321A5
:10BC40009B4A00F017FD0BB030BD2A681A4220D085
:10BC5000964B1B68032B1CD9954C2F2120000FF00D
:10BC600034FD2F21002807D15C2120000FF02DFD8D
:10BC70002100002804D05C2120000FF026FD411C8B
:10BC80008C4A8D4B0420D3588D4A00927A2208F0BA
:10BC9000E5FC10228B4904A80FF03DFC002104AA0A
:10BCA000080001F03FFA0028CDD0814A7C21C8E786
:10BCB0002A681A4220D07D4B1B68032B1CD97C4C70
:10BCC0002F2120000FF001FD2F21002807D15C213A
:10BCD00020000FF0FAFC2100002804D05C21200095
:10BCE0000FF0F3FC411C734A734B0420D358764A7F
:10BCF0000092832208F0B2FC012204AB52425A8027
:10BD000003321A80714B049A1888002101F042FB1B
:10BD1000002898D0664A882193E72A681A4220D0E2
:10BD2000624B1B68032B1CD9614C2F2120000FF0A4
:10BD3000CCFC2F21002807D15C2120000FF0C5FC8E
:10BD40002100002804D05C2120000FF0BEFC411C23
:10BD5000584A594B0420D3585D4A00928F2208F06C
:10BD60007DFC5922002104AB19805A80574B049A5C
:10BD7000188801F00FFB002800D164E74C4A942199
:10BD80005FE704AC1822002120000FF0CDFB4F4BE1
:10BD900003221B88E2732380012392182371E3801E
:10BDA000637424336B442274073A1A705A70232345
:10BDB00003326B441A7000225A702B685B0422D540
:10BDC0003A4B1B68032B1ED9394D2F2128000FF049
:10BDD0007CFC2F21002807D15C2128000FF075FC86
:10BDE0002900002804D05C2128000FF06EFC411CC3
:10BDF000304A314B0420D358E2880192354A0092F0
:10BE0000A82208F02BFC200001F0DAF9002800D16C
:10BE100019E7274AAA2114E704AC182200212000C0
:10BE20000FF082FB294B01221B8822712380FF3BEC
:10BE3000E3800323E37322336B44627458321A7035
:10BE400000225A702B685B0422D5184B1B68032B09
:10BE50001ED9174D2F2128000FF037FC2F21002865
:10BE600007D15C2128000FF030FC2900002804D005
:10BE70005C2128000FF029FC411C0E4A0E4B0420C7
:10BE8000D358E2880192144A0092BE2208F0E6FBE1
:10BE9000200001F095F9002800D1D4E6044AC02121
:10BEA000CFE6C0468C2700206C23002068230020AA
:10BEB00053B9020000B000400405000085B902003B
:10BEC0009FB902001AB90200AEB90200CE270020C5
:10BED000D2B90200FDB902003ABA02002A681A4239
:10BEE00020D0204B1B68032B1CD91F4C2F21200076
:10BEF0000FF0EBFB2F21002807D15C2120000FF071
:10BF0000E4FB2100002804D05C2120000FF0DDFBC1
:10BF1000411C164A164B0420D358164A0092C722D9
:10BF200008F09CFB0321144B0022188804AB197005
:10BF3000124905925980592103AB59801A80039BFD
:10BF4000049901F001FA002800D17CE6064ACF21CD
:10BF500077E678460A4B1B68002B01D0984772E6BB
:10BF600000DE70E66823002053B9020000B00040F4
:10BF70000405000077BA0200CE270020FECAFFFFAA
:10BF8000CC520020F0B5040000788FB003380828A8
:10BF900062D80FF0B9F80900500163006100610038
:10BFA00015016100C000B900B54B1E78012E53D1B8
:10BFB0006E22231D03935F23002507ACA27001327C
:10BFC000E2700332227163210E3A627105322370EE
:10BFD0006370A271237263726273A373E37302AA24
:10BFE000393B9B1802221D805D80A64BE1711B88A6
:10BFF0001031E382237EA1720E3904AFE172B343A4
:10C0000008319343217309322900380025822376B1
:10C010000FF08AFA092302AA9B185D709A4D1E70D0
:10C020009A4A3B009A4928003E7104F041FA0028E0
:10C0300003D0984A622100F01DFB002322000399DF
:10C04000280004F053FA002803D0924A632100F03C
:10C0500011FB02238A4A13700FB0F0BD8E4D2B687E
:10C060005B0420D58D4B1B68032B1CD9894C2F21D9
:10C0700020000FF02AFB2F21002807D15C2120008F
:10C080000FF023FB2100002804D05C2120000FF0DA
:10C090001CFB411C824A834B0420D358824A0092E5
:10C0A000E62208F0DBFA764B1B78022B27D12B68AF
:10C0B0005B0420D5794B1B68032B1CD9754C2F21B1
:10C0C00020000FF002FB2F21002807D15C21200067
:10C0D0000FF0FBFA2100002804D05C2120000FF0B3
:10C0E000F4FA411C6E4A6F4B0420D3586F4A0092F9
:10C0F000E92208F0B3FA0122614B1A70ACE7032B76
:10C10000AAD1FFF75DFDA7E700225D4B201D1A7045
:10C11000FFF7B4FAA0E710220121606804F014FAD6
:10C1200080235D4A0500DB011268002824D01A42F2
:10C13000E1D05A4B1B68002BDDD0564C2F2120003C
:10C140000FF0C3FA2F21002807D15C2120000FF047
:10C15000BCFA2100002804D05C2120000FF0B5FAC1
:10C16000411C4F4A4F4B0120D358514A0195009230
:10C17000FF2208F073FABEE71A4200D16CE7474B82
:10C180001B68032B00D867E7424C2F2120000FF0DB
:10C190009CFA2F21002807D15C2120000FF095FA8E
:10C1A0002100002804D05C2120000FF08EFA411CF1
:10C1B0003B4A3C4BD3583F4A00928222520036E021
:10C1C00010223D4907A889180FF0A5F9102207A9E8
:10C1D000606804F0C7F9002804D086212D4A490080
:10C1E00000F048FA2C4B1B685B0400D434E72B4B5F
:10C1F0001B68032B00D82FE7264C2F2120000FF0BF
:10C2000064FA2F21002807D15C2120000FF05DFA8D
:10C210002100002804D05C2120000FF056FA411CB8
:10C220001F4A204BD358254A00920E22FF32042089
:10C2300008F014FA10E7184B1B685B0400D40BE7F6
:10C24000164B1B68032B00D806E7124C2F21200049
:10C250000FF03BFA2F21002807D15C2120000FF0BE
:10C2600034FA2100002804D05C2120000FF02DFAC0
:10C27000411C0B4A0B4BD358114A009289229DE76F
:10C280008C270020CE27002090240020702400203E
:10C290008D27002053B902006C2300206823002062
:10C2A00000B00040040500008CBA0200ACBA0200E5
:10C2B000CEBA02000FBB02001AB902002CBB02006A
:10C2C00051BB0200032210B5054B1880054B1978AD
:10C2D0001A70022900D110BDFFF772FCFBE7C046BF
:10C2E000CE2700208C2700200122024B1880024B11
:10C2F0001A707047CE2700208C270020F0B589B037
:10C3000004AF0C001600002804D1FFF757F9BD4612
:10C3100005B0F0BD002905D17846714B1B68002B94
:10C320004DD098472388022B5BD16E4B1B78042B92
:10C33000EDD16D4B1B685B043BD56C4B1B68032B2D
:10C3400037D96B466A467B6073003B600833DB0875
:10C35000DB00D31A9D46664B04AD1B682A00BB6008
:10C360000023B3422DD300233A68624C2F21AB54F3
:10C3700020000FF0AAF92F21002807D15C2120000E
:10C380000FF0A3F92100002804D05C2120000FF059
:10C390009CF9411C584A594B0420D358584A0295DD
:10C3A0000192584A00929E22520008F057F97B6889
:10C3B0009D4605224B4B1A70FFF702FCA7E700DEF3
:10C3C000B0E76168C95C0133F9600809B968085CC5
:10C3D000F96810700F200140B868415C517002325A
:10C3E000BFE7494A934215D13E4D2B78052B00D02B
:10C3F0008DE763681B78002B07D0062B05D07846A5
:10C40000374B1B68002B03D0984706232B70D3E7CC
:10C4100000DEFAE73D4A934222D1324D2B78062BBB
:10C420000DD163681B78002B05D078462C4B1B6818
:10C43000002B02D098470723E8E700DEFBE7072B35
:10C4400000D064E763681B78002B05D07846244B46
:10C450001B68002B02D098470823D7E700DEFBE7D4
:10C460002B4A934222D11F4D2B78082B0DD16368A4
:10C470001B78002B05D07846194B1B68002B02D087
:10C4800098470923C2E700DEFBE7092B00D03EE70F
:10C4900063681B78002B05D07846114B1B68002B76
:10C4A00002D098470A23B1E700DEFBE7194A93421E
:10C4B00000D02CE70B4D2B780A2B00D027E76368C0
:10C4C0001B78002B05D07846054B1B68002B05D048
:10C4D000984700232B70FEF7D9FF18E700DEF8E736
:10C4E000CC5200208C2700206C23002068230020E1
:10C4F0007023002053B9020000B000400405000082
:10C500003AB902004BB90200038000003E800000EF
:10C51000198000001F80000000220B4B10B50B4952
:10C520000B481A7003F0DEFF002804D0BA21094A34
:10C53000490000F09FF80848084B0360002343605F
:10C5400006F087FA10BDC0468C270020702400201A
:10C550008D27002053B902006824002085BF010008
:10C5600052DF704710DF704760DF704761DF704750
:10C57000A023E022A121DB051204C9005A5004497E
:10C580005A50EFF3108372B60028FDD17047C046B1
:10C590000C05000037B5134B05001B685B041DD567
:10C5A000114C2F2120000FF090F82F21002807D1E7
:10C5B0005C2120000FF089F82100002804D05C21C4
:10C5C00020000FF082F8411C084A094B0020D35884
:10C5D000084A019500924E2208F040F82800FFF723
:10C5E000C7FF37BD6C230020A1BB020000B0004094
:10C5F00004050000BCBB0200F0B5184B85B01B68F9
:10C6000006000D0017005B0423D5154B1B68002B9B
:10C610001FD0144C2F2120000FF057F82F21002895
:10C6200007D15C2120000FF050F82100002804D031
:10C630005C2120000FF049F8411C0B4A0B4B0120F4
:10C64000D3580B4A0397009202950196702208F086
:10C6500005F82800FFF78CFF05B0F0BD6C23002023
:10C6600068230020A1BB020000B0004004050000C8
:10C6700081BC0200F0B5184B85B01B6807000E00A6
:10C6800015005B0423D5154B1B68002B1FD0144CE1
:10C690002F2120000FF019F82F21002807D15C214D
:10C6A00020000FF012F82100002804D05C212000A7
:10C6B0000FF00BF8411C0B4A0B4B0120D3580B4ACF
:10C6C0000397009202960195482207F0C7FF0120C8
:10C6D000FFF74EFF05B0F0BD6C230020682300205B
:10C6E000A1BB020000B000400405000084BB0200B2
:10C6F00013B5124B1B685B041CD5114C2F21200075
:10C700000EF0E3FF2F21002807D15C2120000EF05E
:10C71000DCFF2100002804D05C2120000EF0D5FFB2
:10C72000411C084A084B0020D358084A0092542262
:10C7300007F094FF0120FFF71BFF13BD6C230020BF
:10C74000A1BB020000B000400405000076BB02005F
:10C7500073B501A8FFF704FF00280BD06B464724F0
:10C760009D1C084E290030002C80FFF7FFFE00289A
:10C7700004D073BD019806F067F9EAE7300006F0CF
:10C7800061F9EEE7D02700207FB5414C0500236812
:10C790005B0420D53F4B1B68032B1CD93E4E2F2139
:10C7A00030000EF092FF2F21002807D15C213000CD
:10C7B0000EF08BFF3100002804D05C2130000EF019
:10C7C00084FF411C354A364B0420D358354A009229
:10C7D0007A2207F043FF344B0293029B03932368B2
:10C7E0005B0422D52B4B1B68032B1ED92A4E2F210D
:10C7F00030000EF06AFF2F21002807D15C213000A5
:10C800000EF063FF3100002804D05C2130000EF0F0
:10C810005CFF411C214A224B0420D358029A01920A
:10C82000224A0092832207F019FF280003A9FFF78C
:10C830009BFE029B039A05009A4225D023685B0465
:10C8400022D5144B1B68012B1ED9134C2F2120001D
:10C850000EF03BFF2F21002807D15C2120000EF0B5
:10C8600034FF2100002804D05C2120000EF02DFFB1
:10C87000411C0A4A0A4B0220D358039A01920C4ADF
:10C8800000928C2207F0EAFE280004B070BDC0467A
:10C890006C23002068230020A1BB020000B00040F0
:10C8A000040500001CBC0200D822002038BC020095
:10C8B00048BC020000B589B00190194901A8FFF7F2
:10C8C00051FE002803D0174A9321FFF7D3FEC5235A
:10C8D00015499B00CB585B0219D4124A9421134886
:10C8E000FFF7C8FE02E011680B4313601422002119
:10C8F00003A80EF019FE03A8FFF746FF002803D097
:10C90000084A9A21FFF7B6FE002009B000BD802337
:10C91000074ADB0350680028E5D10B60E6E7C04614
:10C92000F9C50100A1BB020000E100E00220000007
:10C93000C452002030B54C4D87B02B685B0420D525
:10C940004A4B1B68032B1CD9494C2F2120000EF0A9
:10C95000BCFE2F21002807D15C2120000EF0B5FE7F
:10C960002100002804D05C2120000EF0AEFE411C06
:10C97000404A414B0420D358404A0092B52207F068
:10C980006DFE012202AB1A7000225A709A700732B3
:10C99000DA700298FFF78EFF2B685B0420D5334BCB
:10C9A0001B68032B1CD9324C2F2120000EF08DFE6A
:10C9B0002F21002807D15C2120000EF086FE2100E7
:10C9C000002804D05C2120000EF07FFE411C294A83
:10C9D000294B0420D3582A4A0092BF2207F03EFE7A
:10C9E00003AC0C22002120000EF09EFD01232370D9
:10C9F0000633E370234B2000636005F0BBFE002884
:10CA000003D01B4AC421FFF735FE2B685B0420D5F9
:10CA1000164B1B68032B1CD9154C2F2120000EF040
:10CA200054FE2F21002807D15C2120000EF04DFE7E
:10CA30002100002804D05C2120000EF046FE411C9D
:10CA40000C4A0D4B0420D3580F4A0092C62207F01F
:10CA500005FE05F0EBFE002803D0054AC721FFF7CD
:10CA600009FE07B030BDC0466C23002068230020BB
:10CA7000A1BB020000B0004004050000D5BB0200CD
:10CA8000EEBB020095C5010007BC020002000120B8
:10CA9000A0219040034BC905CB5818404342584150
:10CAA000C0B27047040500000123A0228340D205D4
:10CAB000002902D0024953507047A121C900FAE76A
:10CAC0000C050000FE231A40FA23F0B59B005943E1
:10CAD0000F4C104BA0251F68A44600230E4EED05F9
:10CAE000934200D1F0BDAC594440AC5100290DD067
:10CAF0000C00C046C046C046C046C046C046C04600
:10CB0000C046674500D0C046013CF2D10133E7E79B
:10CB10000024F4003423002004050000A023032196
:10CB2000094ADB0599508020A1228003D200985049
:10CB3000EB20C00019508020C003985003481950C2
:10CB40008021090499507047540700005C070000D9
:10CB5000062070470620704770B54B680C00150022
:10CB6000002B05D178460D4B1B68002B0BD0984746
:10CB700000222272954205D0012D06D16368022160
:10CB80002000984770BD00DEF2E77846034B1B6833
:10CB9000002B01D09847F5E700DEF3E7CC520020E8
:10CBA0007FB553680D001400002B05D17846134B58
:10CBB0001B68002B1FD098476B469E1D20883100B4
:10CBC00001F0C4FC002815D130880D4B984211D0DB
:10CBD00002AE310002F0EEFD00280BD17388EA8925
:10CBE0009A4207D16B6820001B785942594163680B
:10CBF000C9B298477FBD00DEDEE7C046CC520020B8
:10CC0000FFFF000010B5030086B00E20002B13D0EC
:10CC10005A68002A10D0012268466C4602805920CA
:10CC200003920022A18005496080029168461900A4
:10CC30000493059201F08CFB06B010BDA0BC02006D
:10CC400010B5040088B00E20002C25D06368002B9E
:10CC500022D0237A0638002B1ED1104A6172137835
:10CC600001A8591CA3722388117003802300093383
:10CC700083600223C4228381BF338380683BC380E7
:10CC80004382074B02824361064B836101F06EFED3
:10CC9000002801D10123237208B010BD17280020FD
:10CCA00080C3C90159CB0100F0B585B06B461600B1
:10CCB0000E4A1970137801AC591C11706A465370F2
:10CCC000C32323806A3B6380022307000025626040
:10CCD0002381AE4201D1002006E03888210001F016
:10CCE0000DFC01350028F4D005B0F0BD1728002058
:10CCF00070B50A4C15002068002803D005F052FAE0
:10CD000000232360064C012D04D10022636811002A
:10CD1000100098470123A37070BDC0462028002052
:10CD20001828002070B588B001AB998101210F4E01
:10CD30001A8234880E4A1C800E4C069225680E4AD0
:10CD40004942988018000395D9805982079201F0D2
:10CD50000DFE051E07D0206805F024FA002323608D
:10CD6000280008B070BD0223B370F9E7182800202E
:10CD700080C3C90120280020F1CC0100F0B51C4F70
:10CD800085B003920293130C01933B6805000C00DD
:10CD9000002B05D07846174B1B68002B25D09847F1
:10CDA000154B019A06269A4200D00236310038000F
:10CDB00005F032F9002816D103AA3B6811785278A1
:10CDC0001D705A716A4612792D0A9A71019A9C70E7
:10CDD000120A240A1971DA715D70DC70074A310099
:10CDE0000298FFF79FFF05B0F0BD00DED8E7C04610
:10CDF00020280020CC520020FFFF00001F800000F0
:10CE0000F0B51A4C85B00392029323680500019196
:10CE1000170C002B05D07846154B1B68002B23D030
:10CE20009847144B14269F4200D002363100200050
:10CE300005F0F2F8002815D12468102225702D0A7B
:10CE400001996570A01C0EF066FB03AB1A785B7845
:10CE5000A274E3743B0A27756375074A3100029890
:10CE6000FFF760FF05B0F0BD00DEDAE72028002004
:10CE7000CC520020FFFF00001F800000074B9A7873
:10CE8000002A04D108230360073B180070470023E1
:10CE9000022AFAD111330360103BF6E7182800206C
:10CEA000F0B587B00293130C01930023050005A889
:10CEB0000C0003920593FFF7E1FF002802D00598CC
:10CEC00007B0F0BD184F3B68002B05D07846174BD4
:10CED0001B68002B25D09847154B019A06269A42CD
:10CEE00000D002363100380005F096F80590002891
:10CEF000E6D103AA3B68117852781D705A716A46D0
:10CF000012792D0A9A71019A9C70120A240A1971D9
:10CF1000DA715D70DC70074A31000298FFF702FF9A
:10CF2000CEE700DED8E7C04620280020CC52002003
:10CF3000FFFF00003E80000030B500230C000A888F
:10CF40000621144D85B008005843405B90420BD039
:10CF500001330C2BF7D178460F4B1B68002B01D106
:10CF600000DE01E09847002306214B43EB1822899D
:10CF7000598891420CD89B88934209D3238802A9EF
:10CF80000B806368012001930393044B5B6898470F
:10CF900005B030BDA8BC0200CC52002018280020EB
:10CFA00030B5050087B00E20002D20D018220021BA
:10CFB00068460EF0B9FA01236A461380023B53809B
:10CFC0000D4B0E4C02930C230393A378002B05D03A
:10CFD00078460B4B1B68002B0BD098472100684606
:10CFE00001F0B6F9002802D101236560A37007B0F3
:10CFF00030BD00DEF2E7C046F0BC02001828002079
:10D00000CC5200200023F0B585B0019003A80F009A
:10D010000393FFF733FF002802D0039805B0F0BD5B
:10D020001B4D1020AF42F9D0019B0938AB42F5D01F
:10D03000184C2388AB4205D17846174B1B68002B50
:10D0400021D0984702AB9E1C012320885B4231000F
:10D05000338001F07BFA03900028DFD1208839006B
:10D0600001F056FA03900028D8D12088019901F0E8
:10D07000D3FA0390002808D03188A942CDD0208867
:10D0800001F046FAC9E700DEDCE700F037FCC4E750
:10D09000FFFF000018280020CC520020002313B509
:10D0A000040001A80193FFF7E9FE002809D1064B0F
:10D0B0002100188801F088FA0190002801D100F0C1
:10D0C0001DFC019816BDC04618280020002313B58A
:10D0D00001A80193FFF7D2FE002801D0019816BDE8
:10D0E0000D4C2368002B05D078460C4B1B68002B99
:10D0F0000FD098470121200004F08EFF01900028F6
:10D10000EDD123680222187001210548FFF70AFEBD
:10D11000E5E700DEEEE7C04620280020CC520020E4
:10D12000088000000023F0B585B0050003A80E00BC
:10D1300001920393FFF7A2FE039C002833D1019BC9
:10D14000002B05D178461B4B1B68002B2ED098472F
:10D15000194F3B68002B05D07846164B1B68002BF7
:10D1600026D098471321380004F056FF041E039080
:10D1700019D138680F2305702D0A29004578194008
:10D180009D430D4332011D4015433609457086709D
:10D190001022019903300EF0BEF92000074A132136
:10D1A000FFF7C0FD0400200005B0F0BD00DECFE7B2
:10D1B00000DED7E7CC5200202028002003800000AA
:10D1C0000023F7B5040001A80193FFF757FE0028DC
:10D1D00001D00198FEBD0E20002CFBD02379554DC7
:10D1E000554F022B53D12B68002B05D07846534B5B
:10D1F0001B68002B49D09847636919261B021B0C3A
:10D20000BB4200D002363100280004F005FF0028A0
:10D21000E0D12D68238810222B701B0A6B70A16847
:10D22000A81C0EF078F90F21237B4548AB74627B74
:10D23000EB7C0A408B4313430B40EB74E37B0839D0
:10D240002B75227C93071B0E920813436B75637C2E
:10D25000AA7D0B408A431A43AA75AB7DA27C0B4082
:10D260003100D2001343AB75237DE27C1B021343D4
:10D27000EB751B0A2B766369324A1B021B0C6B761B
:10D280001B0AAB76FFF74EFDA4E700DEB4E72B6880
:10D29000002B05D07846294B1B68002B47D09847B8
:10D2A00063690B261B021B0CBB4200D00236310007
:10D2B000280004F0B1FE002800D08BE72B682288FC
:10D2C0000F301A70120A5A70E2889A70120ADA70D5
:10D2D000227B1A71617B5A79014082430A430240E2
:10D2E0005A71E27B08389A71217C8A07120E8908EC
:10D2F0000A43DA71627C197A024081431143197240
:10D30000A17C1A7AC90002400A431A72227DE17C8C
:10D3100012020A435A72120A9A72626931001202A8
:10D32000120CDA72120A1A730438064AAAE700DEEF
:10D33000B6E7C04620280020FFFF0000CC520020A6
:10D340001A8000001980000030B587B002AC62601E
:10D3500001930023050005A802910593FFF78EFDB8
:10D36000002802D0059807B030BD2378022B06D1E3
:10D37000064B019A03992800FFF742FDF3E7618805
:10D38000034B019A2800FFF7F9FCECE7208000002E
:10D390001B80000013B5024B0192FFF781FD16BD03
:10D3A0003D80000030B50B8987B0022B1ED90C8858
:10D3B0004868042C1CD100246D462C706D460C313D
:10D3C00001910478033B2C728478457824022C4325
:10D3D0006D466C810024DBB22B73A34200D0C41CC9
:10D3E00005910494536869461000984707B030BD12
:10D3F0000124E1E710B50B8986B0012B0BD1022087
:10D400006C464B680C31207001911B786946237281
:10D4100010005368984706B010BD10B50B8986B050
:10D42000012B0BD103206C464B680C31207001910D
:10D430001B786946237210005368984706B010BDE8
:10D4400030B5040087B00D000E20002A1BD000214B
:10D4500062602172E160182268460EF065F86A4643
:10D4600003231380043B5380084B210002930423C1
:10D47000684695800393049400F06AFF002802D167
:10D48000208801F079F807B030BDC04650BD0200D9
:10D4900030B5837801009807800F9B080DF020FEBF
:10D4A000040216180A22534300200E4A0E4D126839
:10D4B000D3182A688B60002A0FD094681C1B09D5EA
:10D4C00000280CD11000C860296030BD6422EAE752
:10D4D000064AE8E71000D268EDE70028F3D0C16003
:10D4E000CA60F2E73C2800204428002070170000A2
:10D4F00010B5032809D80DF0F3FD120204060948FF
:10D5000010BD0948FCE70948FAE77846084B1B6854
:10D51000002B02D098470020F2E700DEFBE7054829
:10D52000EEE7C04640420F00809698000046C323B5
:10D53000CC520020A0860100F8B54F4E3378002B66
:10D5400013D04E4B5D6805F0CFFC4D4C2D1A207862
:10D55000FFF7CEFF2378401B4A4C002B38D14A4BB3
:10D56000984235D9236801332360484D2A68002A40
:10D5700000D17AE0424C937820789B079B0F83423E
:10D580005EDD404B97681B68FF1A414B5F43FFF716
:10D59000AFFF010038000DF0C1FD2B689D78AD078D
:10D5A000AD0FEBB2022B1AD02BD8012B40D10A21A0
:10D5B0000DF03AFE00293BD105F096FC354B257065
:10D5C000C11833782D48002B49D005F001FCF8BD77
:10D5D0002F490DF0A3FD256840192060C5E7237889
:10D5E0006421002B02D0012B22D10A210DF01CFE58
:10D5F00000291DD105F078FC274BC11802232370A8
:10D60000DFE72378002B0AD124490DF00DFE002915
:10D610000ED105F069FC224BC1180323EFE7012B63
:10D6200002D196218900F0E7022B01D13C21ECE7E1
:10D6300005F05AFC05002078FFF75AFF2918C0E7CB
:10D6400005F052FC2B68070098788007800FFFF7E1
:10D650004FFF2B6839189B789B079B0FCFE701235F
:10D660004160337005F056FBB1E73378002BAED044
:10D67000024805F079FBAAE7402800202428002072
:10D68000412800203C28002050C3000044280020EE
:10D69000A086010040420F0080969800701700009D
:10D6A0000046C32337B5244B1878032820D8234BD2
:10D6B0001A680DF015FD0216181A01321A600022C0
:10D6C0001F4B1A701F490C68002C07D01B4AA36817
:10D6D0001068834215D012689B1A12D4FFF72CFFF2
:10D6E00037BD0A32EAE76432E8E717495218E5E73E
:10D6F0007846164B1B68002B01D09847DFE700DE09
:10D70000DDE7E36825880B60002301A92800019369
:10D7100000F0B6FF002805D078460C4B1B68002BA4
:10D7200008D0984728000199636898472000FFF7C0
:10D73000AFFEC7E700DEF5E7412800203C280020C7
:10D74000402800204428002070170000CC52002000
:10D7500010B5084C1822002120000DF0E5FE064B04
:10D76000064AA36000231360054A1360054A13703C
:10D7700010BDC04624280020A5D601003C2800206A
:10D7800044280020402800201F234A0919401E3B3E
:10D790008B40920010581840431E9841C0B2704709
:10D7A000104A83B282B0000C904215D1FF221800BB
:10D7B000904306D0980B0C4B8003C018434258414D
:10D7C00007E07F221900914304D17F3B1800431EDC
:10D7D0009841C0B202B070473F229343C03B18004B
:10D7E000ECE7C046FFFF00000080FFFF0023052894
:10D7F00007D8343343430448C0183030037801203D
:10D80000034018007047C0469028002010B57846A5
:10D81000034B1B68002B01D0984710BD00DEFCE7CE
:10D82000CC52002010B5804710BD000010B54388D1
:10D8300004001B051B0D0020052B0AD801220549F9
:10D84000DB00585C10435854CB1861681000C94382
:10D85000596010BDC8290020438800221B051B0DFC
:10D86000032B05D8063253438188024A995201227C
:10D870001000704748280020F0B50024170025004C
:10D8800085B0114B03AE0191338070802A003100C6
:10D890000E4807F0C3FA051E09D0B847002803D088
:10D8A0000134F3E700DE0BE00124644208E0019B51
:10D8B0009C4205DD7846064B1B68002BF2D098474A
:10D8C000200005B0F0BDC04600F0FFFF6828002032
:10D8D000CC5200200122064B10B506481A7007F002
:10D8E00065FA002802D0044807F07EFC10BDC0464F
:10D8F0008C28002068280020E8220020F8B505F0D8
:10D900004DFF484B08241B78002B16D1464E1C00B7
:10D910003578002D11D106220121444807F0B8FACC
:10D920001134002809D00423C3800233038183808B
:10D9300007F0F2FA01232C003370C02700253C4E7B
:10D94000BF01002C1AD1032233781340934210D127
:10D95000390001322943354807F09AFA002819D0D6
:10D960007368DB43436007F0D7FA022233789343AE
:10D9700033700135ADB20836062DE2D100260227FC
:10D980002C4D0535002C07D02B4807F02DFC05F059
:10D9900029FFF8BD1124ECE72B783B4210D0802101
:10D9A00049013A003143214807F072FA002834D087
:10D9B0006B1F1B88838007F0AFFA2B78BB432B705B
:10D9C0000136B6B20635042EDCD100261B4D3035AB
:10D9D000002CD9D103222B781340934215D18021FA
:10D9E000890111323143114807F052FA071E16D04F
:10D9F00029001422303904300DF08DFD380007F075
:10DA00008BFA02222B7893432B700136B6B2343551
:10DA1000062EDDD1002CBAD0B6E71124D0E71124B0
:10DA2000F3E7C0468C2800208D28002068280020BD
:10DA3000C829002048280020F82200209028002033
:10DA40009C2210B50E4C5200002120000DF06CFD00
:10DA5000182200210B480DF067FD302200210A48F2
:10DA60000DF062FD01220621231D3D34FF34524298
:10DA70005A801A8059811A813433A342F8D110BDDB
:10DA80009028002048280020C829002010B50F4BFE
:10DA900086B003930E4B04930E4B0593042302931D
:10DAA00001F056FD0C4B0D4CC01801230090694647
:10DAB0000B480193237007F06FFA002804D009483F
:10DAC00007F092FB06B010BD2070FBE755DB0100AC
:10DAD0000DD80100E9DA010000FCFFFF8C280020CE
:10DAE00068280020D822002070B5002301200224DD
:10DAF00015495A5C024201D022435A540833302B54
:10DB0000F7D10220114A531D1D32591F09880029DF
:10DB100002D019780143197006339342F5D19C2045
:10DB20000023012502260A4C40001A003032A218B8
:10DB30001178294201D03143117034338342F4D13A
:10DB4000FFF7A4FF70BDC046C82900204828002068
:10DB50009028002070B505008CB00E00012A07D176
:10DB60007846104B1B68002B19D098470CB070BD3D
:10DB7000022AF5D0032AF9D101AC29320021200074
:10DB80000DF0D2FC19232370173B2371EB682000A2
:10DB900023612B69A660636104F0BCF9E6E700DE4F
:10DBA000E4E7C046CC5200201F23012230B5524288
:10DBB0004C0919408A40A5002B580520134008D075
:10DBC0005A421340034A64015343034ADB0ED05CBC
:10DBD000001930BD31B57C079FBD020070B5438888
:10DBE00004001B051B0D0020052B2DD8228A032ABB
:10DBF0002AD834225A43174DAA18D189628A052996
:10DC000006D88A4220D11449D600715CC9071BD5B9
:10DC1000052A05D804211048D200165C314311545E
:10DC200034205843211D142228180DF074FC0622BC
:10DC3000218A0A4B4A43E48809489B18844204D14C
:10DC40009A7801329A70012070BDDA780132DA7068
:10DC5000F9E7C04690280020C82900204828002065
:10DC6000FFFF0000F0B5077D87B0040005AE012F6F
:10DC70003BD1300001F00CFDE38A3288934225D37A
:10DC8000718889188B4221DA00269B1A4C4D9BB271
:10DC90000193083503972B0028331B78039A13420E
:10DCA00010D0AB88019A93420CD1618C2800FFF709
:10DCB0006BFD002806D02B8C20889C4600236188B1
:10DCC000634505D301363435062EE4D107B0F0BDE7
:10DCD000DA000292EA69DF00D2191788874202D17E
:10DCE00052888A4254D00133EAE7012331005B4273
:10DCF0001430338001F0BAFD002805D07846314B4E
:10DD00001B68002B35D09847308801F039FD00287A
:10DD100005D178462B4B1B68002B2CD0984700234D
:10DD2000274D019308352B00012228331B7813421D
:10DD300018D0EF88052F15D8618C2800FFF724FD37
:10DD400000280FD0FF00381D1F4F31883818FFF70B
:10DD50001BFD002806D02B8C00229C462088618861
:10DD600062450AD3019B343501330193062BDAD186
:10DD7000ACE700DEC8E700DED1E7EF69D300FB18AF
:10DD80001F88874202D15F888F4211D00132E7E7B6
:10DD9000B7B26A6A2100380000F098FDEA69029B78
:10DDA000944663445B686A6A21003800984789E7B3
:10DDB0006A465B68908821006A6A9847D2E7C04645
:10DDC00090280020CC520020C8290020F0B503780C
:10DDD0008DB00400002B00D07CE042683F33157802
:10DDE00029009943402910D004D800290DD00026DD
:10DDF00035000EE0802900D16EE0C029F7D15678B9
:10DE000093783602ADB21E4303E0ADB27F2D61D0F0
:10DE1000334E344B1B689B0422D5334B1B68042BB9
:10DE20001ED9324F2F2138000DF04FFC2F21002832
:10DE300007D15C2138000DF048FC3900002804D0DF
:10DE40005C2138000DF041FC411C294A294B05207A
:10DE5000D358294A019500922422FF3206F0FEFB96
:10DE6000206A1F4F01F04EFD03AB1D805E8061688C
:10DE70000322BE4204D1FC32AA42924152420132F4
:10DE80008A185A6021890322BE4204D1FC32AA4278
:10DE90009241524201328A1A1A81227B1A73E28914
:10DEA000DA8122691A61227D1A75E28ADA82A26910
:10DEB0009A61A26A05345168D9610D2151560D222B
:10DEC0006A44D1770E22E17F6A4458841800D177E2
:10DED000FFF7C8FE0DB0F0BD53782D021D4397E744
:10DEE000FFFF00006C2300206823002070BD0200AB
:10DEF00000B00040040500008CBD02007C23F0B59A
:10DF000095B002AFF86015000A89FF330E000924AE
:10DF10009A4200D93FE1FFF769FC043C002800D198
:10DF200039E13423FA685343A84AD3189A89032A5B
:10DF300000D930E1002D09D19988A54A02349142D7
:10DF400000D128E1DB88934200D124E13068FFF75B
:10DF500027FC0724002800D11DE110220823BA184D
:10DF6000D01801F095FB3423FA68798B5343974A14
:10DF70001024D3189A89914200D80CE1398B521899
:10DF800092B27A60002D00D1BAE06B8C1021BB6098
:10DF90000C222B0079188A180C3303CB03C22800FB
:10DFA00016230C30F91801F061FC002802D001237F
:10DFB0005B42FB823423FA685343844AD3181B7CA8
:10DFC000FB60FF2B02D1834B1B78FB603B7F012B57
:10DFD00000D0E4E0FA8B398B8A4200D3A6E06B468E
:10DFE00010223B601423BA18D518002120222800E3
:10DFF0000DF09AFA7388764831880322834204D15F
:10E00000FF238B429B415A4201323389B8689B18E7
:10E010006A460733DB08DB00D31A10229D4628230B
:10E02000BA18D11802AC01F0AFFD002806D078462E
:10E03000694B1B68002B00D1BBE0984710210C22D4
:10E040002B0079188A1803CA03C3BB88EC602B81A4
:10E050003B7B7088AB7233895D4A9C4631880323D1
:10E06000904204D1FC338B429B415B4201336344B9
:10E070002B82574B984200D19DE0030A21706370B8
:10E08000A070534A0323904204D1FF20884280416C
:10E0900043420133E018624671680DF03CFA0021FA
:10E0A000280004F0E9FB041E27D14C4B1B689B049D
:10E0B00023D54B4B1B68042B1FD94A4D2F21280019
:10E0C0000DF003FB2F21002807D15C2128000DF063
:10E0D000FCFA2900002804D05C2128000DF0F5FA94
:10E0E000411C414A414B0520D35832880192404A95
:10E0F0000092C622FF3206F0B1FA3B689D464AE024
:10E100009A88D888BA6010220C23BA18D118F882DD
:10E1100001F050FB002800D14CE778462E4B1B68DD
:10E12000002B01D0984745E700DE43E77B8B5B1867
:10E130009A4200DB53E710221423BA18D4180021A6
:10E14000242220000DF0F0F9336810227B627368FE
:10E15000BA18636033891021238101232373BB889C
:10E160007918E3812823D3180C228A1803CA03C321
:10E1700004F0BAFE10221623BA18D3183A7BE061D5
:10E18000DA773B8920006384FFF76CFD3B7F002436
:10E19000012B00D023E72000BD4613B0F0BDF88A64
:10E1A0000B4B984200D11AE701F0EAFA0028C2D1DD
:10E1B00015E700DE42E7FF230A009A4303D00B0A6B
:10E1C000237061705DE721705BE7C04690280020F6
:10E1D000FFFF000008230020CC5200206C23002009
:10E1E0006823002070BD020000B00040040500005C
:10E1F000BFBD0200F7B507F01BF8041E12D00026C1
:10E200003F4D01213F482E7006F0E2FDB04200D1A3
:10E2100073E0C388042B07D000242C70FFF75AFB4F
:10E220002000FEBD20BFE6E70389062BF4D18188DC
:10E230000629F1D1C020053B334A80012B70FFF73E
:10E240001BFB0028E8DB314B320018000226183097
:10E2500059799A70B143DA701A805971063398422D
:10E26000F6D180202A4A04214001FFF705FB00284F
:10E27000D2DB8020274A06218001FFF7FDFA002823
:10E28000CADD254B9E1D3F33FF330193F288234B9C
:10E290009A4204D1019B3436B342F7D1C0E73088AB
:10E2A000984209D001F014FA002805D078461C4B9A
:10E2B0001B68002B1DD098473789062FEAD0002114
:10E2C000FF00184B0437DF193800FFF76DFC05001D
:10E2D0000528DFD0A8B201F037FA002805D078462B
:10E2E0000F4B1B68002B06D09847691C0429EBD9FB
:10E2F000D0E700DEE0E700DEF7E7040090E7C04685
:10E300008D280020682800202DD8010048280020F2
:10E3100059D80100DDDB010090280020FFFF00003C
:10E32000CC520020C829002010B5FFF789FB064811
:10E33000064B036004F08DFB00F008FBFFF708FAC2
:10E34000FFF7A4FB10BDC04660280020CDDD010012
:10E35000F7B504000F000E20002C00D1ACE0A3683C
:10E36000002B00D1A8E0002900D1A5E001235B42E9
:10E370000B80E3680538002B00D19DE0A1880438AC
:10E38000032900D998E006234B43584AD3189A78BA
:10E39000DB78D318002B00D072E00025A368E66874
:10E3A0000193AE4200D08DE03A88514D514BAA42C4
:10E3B00042D1012000218446342066464843303053
:10E3C000185C304200D086E08AB23A800420AA422B
:10E3D00000D171E034214A4305389A18D0803A8838
:10E3E0004A439A1890803A88A0884A439A189081A4
:10E3F0003A8820884A4398523A8860884A439A1853
:10E4000050803A8851433C4A591812780A740622BF
:10E41000A18860884A4335498A18A84200D05FE045
:10E42000917801319170342239884A4302219A1837
:10E4300030321078014311703422398820695143F9
:10E440005918C8623988A0685143591848623988F8
:10E45000A089514359180885398860695143591872
:10E460008861110038884143591888823988002012
:10E470004A439B180122303319780A431A701BE073
:10E4800000222388019363889C461A4B9E8995B28B
:10E490008E4212D11E88019886420ED15E88664552
:10E4A0000BD134235A43134B3D80981830300378F6
:10E4B0000F20DB0700D470E7FEBD01323433062A9B
:10E4C000E4D16AE7019AEB009858FFF769F9002850
:10E4D0000AD0013565E70131062900D06CE774E701
:10E4E000D1780131D1709EE70720E5E74828002068
:10E4F000FFFF0000902800200823002010B50E2305
:10E50000002903D00022FFF7F9FC0300180010BD1A
:10E5100070B505000C00FFF769F90522002811D03D
:10E520000232042C0ED834235D43074B00225B19C2
:10E53000D988A14206D0DC803033197802320A43F0
:10E540001A700022100070BD9028002070B50E23B4
:10E5500005000C1E0BD0FFF749F90523002806D053
:10E560003420454303484019C38823800023180002
:10E5700070BDC04690280020F8B50400FFF736F9BA
:10E5800003000520002B15D0342363430C490020E1
:10E59000CB18DB89062B0DD103000122094DDE00CB
:10E5A000775D3800104006D13A43725534226243F9
:10E5B0008A18D381F8BD0133062BF0D10420F9E786
:10E5C00090280020C8290020F8B505000F00FFF7AB
:10E5D0000DF9052300281AD00233032F17D834264B
:10E5E0006E4335000B4C0835651939002800FFF7DC
:10E5F000CBF8002398420AD10122BA402968A41915
:10E600000A432A600222303421780A43227018001B
:10E61000F8BDC0469028002070B505000C00FFF73B
:10E62000E5F80522002811D00232032C0ED834233D
:10E630005D43074B00225B199988A14206D09C805C
:10E640003033197802320A431A700022100070BD6C
:10E650009028002070B50E2305000C1E0BD0FFF78C
:10E66000C5F80523002806D0342045430348401947
:10E67000037C23700023180070BDC0469028002042
:10E6800070B50E2305000C1E0BD0FFF7AFF8052365
:10E69000002806D03420454303484019C36A23604C
:10E6A0000023180070BDC04690280020F8B528232C
:10E6B00043432F4C0500E3183C331B78002B05D156
:10E6C00078462C4B1B68002B47D098472300FE331D
:10E6D0005B89002B05D17846264B1B68002B3ED06A
:10E6E000984728226A43A2181100002320003C31D9
:10E6F000FE300B704189013989B24181994232D093
:10E700008189A94228D1506B1B4A210080181B4ADD
:10E71000343116000D7A002D04D00D682F1A01D562
:10E720001A00280001339BB22831062BF2D12300B6
:10E73000FE339A81B24205D178460E4B1B68002BFE
:10E740000FD098472300FE339A8928235343E318B8
:10E75000596B200004F03CFBF8BD00DEB6E700DE9C
:10E76000BFE700DEEEE7200004F0FEFAF4E7C04663
:10E77000F8290020CC52002000879303FFFF0000FF
:10E78000F0B54E4D85B02B00FE335B890700002BA2
:10E7900005D178464A4B1B68002B32D09847FA23A4
:10E7A0009B00FB18019301222B002C000026FE3356
:10E7B00052429A811834220024321378002B1BD045
:10E7C000636901995B1A20D5002313702A00FE3279
:10E7D000538903A9013B53812088FFF751FF00288B
:10E7E00005D07846364B1B68002B0CD09847208804
:10E7F00001220399A369984701362834062EDAD1FD
:10E8000025E000DECBE700DEF1E7E269019BD31AE9
:10E8100041D5211D2088FFF771FE2B00FE339E811C
:10E8200000280BD1236AE269D2185B00E2612362FF
:10E830006269E369D31ADFD5E261DDE7042821D1FB
:10E8400028235E43AE19736B1E4A9B1873632A001C
:10E85000FE325389002B12D09389052B05D97846B7
:10E86000174B1B68002B27D098472B00FE339A8943
:10E8700028235343EB185A6BD31B00D5BB1AEB600C
:10E8800005B0F0BD78460E4B1B68002B01D09847B1
:10E89000CEE700DECCE72B00FE339B890A498B4292
:10E8A00006D028214B43EB185B6BD21A00D4A3E7A8
:10E8B0002B00FE339E819FE700DED6E7F82900207B
:10E8C000CC520020409C0000FFFF0000F8B505007E
:10E8D0000E001700052805D978461A4B1B68002B37
:10E8E00027D0984704F05AFF0020174B28244443B0
:10E8F0001C1921003C3109788C466246411C002AD3
:10E9000019D0228BAA4216D128224A43D15A8C46CA
:10E9100031888C4512D19B185A8873889A420DD140
:10E9200080B2FFF7C3FE236B00223900280098470E
:10E9300004E000DED6E708000629D7D104F052FF34
:10E94000F8BDC046CC520020F8290020862210B520
:10E95000044C5200002120000CF0E6FD024BA360A5
:10E9600010BDC046F829002081E70100F0B5050080
:10E9700085B00E24002800D1BFE08369002B00D1B0
:10E98000BBE00388093CA34200D9B6E0644A43696E
:10E9900002349B18634A934200D9AEE004F0FEFEB5
:10E9A000614B624EFE335B890096062B00D9AEE0C8
:10E9B00000232820033C02005A435B498A181100B7
:10E9C0003C310978002900D09AE0009AB24202D185
:10E9D0000C009AB200920133062BECD104F002FF36
:10E9E000002C00D089E0291D2888FFF787FD04232B
:10E9F00002009A43131E00D08FE0009A283353433D
:10EA0000494AD3183C331B78002B06D07846484B34
:10EA10001B68002B00D17CE0984704F065FA019058
:10EA20002820009B290058433F4B183018181C22FF
:10EA30000CF071FD02ABDF1D28883900FFF70AFEDC
:10EA4000002806D078463A4B1B68002B00D162E0C4
:10EA50009847EA88AB880320B24204D1FC30984240
:10EA6000804140420130AB89324E3D78C018754339
:10EA7000314B80B2ED180B2805D90B300C210CF06E
:10EA8000D7FB4643AD192827009E274B7E439E198E
:10EA9000009B254A01337B43D3185A680199B5631B
:10EAA00052184D195A60756304F078FE1E4B1E4DC6
:10EAB000FE335A89002A06D09B89726B5F43EF1997
:10EAC0007B6B9B1A0CD42823009A28005343EB1825
:10EAD000596B04F07DF96A462B001288FE339A8147
:10EAE0002823009A53430122EB183C33FE351A7059
:10EAF0006B899B186B8104F075FE200005B0F0BD9A
:10EB0000118B2A88914200D065E7082466E7042427
:10EB100064E700DE81E700DE9BE70400EDE7C04626
:10EB2000803C36FE80C3C901F8290020FFFF0000A9
:10EB3000CC520020204E0000400D03001F234A0944
:10EB400019401E3B8B40920010581840431E9841BC
:10EB5000C0B270474B099B00C0181F2319401E3BD1
:10EB60008B4002681343036070474B099B00C01839
:10EB70001F2319401E3B8B4002689A430260704776
:10EB80000A00F0B5002301271F325209551E934297
:10EB900001D10120F0BD01246442AB4205D13E0009
:10EBA0005C010C1BA6403400013C9E0086592642A5
:10EBB00001D10133EBE70020ECE7000010B50021A4
:10EBC000042803D10248FFF7B9FF0100080010BD77
:10EBD000142B002001235B4270B505000C000B8054
:10EBE00008480021FFF7AAFF002806D0064B1A8824
:10EBF0000023AA4203D1238070BD2080FCE71800C7
:10EC0000FAE7C046D42B0020DC2B0020F8B5012306
:10EC100006000D00012416275B420B80611E0C4884
:10EC2000FFF78CFF002808D03B006343094A163BDE
:10EC3000D35AB34206D12C80F8BD2B88064A9342A2
:10EC400000D12C800134042CE8D10020F4E7C04628
:10EC50004C2B0020542B0020FFFF000001235B42BF
:10EC600070B505000C000B8008480021FFF766FF17
:10EC7000002806D0064B1A880023AA4203D123801D
:10EC800070BD2080FCE71800FAE7C0462C2B00205E
:10EC9000342B0020024B8000C35A0B807047C046C3
:10ECA0001C2B002010B5041E05D17846044B1B68B0
:10ECB000002B02D09847A04710BD00DEFBE7C046FE
:10ECC000CC520020F7B516255C1E65430D4E019011
:10ECD000A81D0F003018110010220CF01CFC00229F
:10ECE00073195A7101321A715F806B469B8821003B
:10ECF000AB530548FFF72EFF21000448FFF72AFF1A
:10ED0000F7BDC046542B00204C2B0020502B002078
:10ED100010B54C88013083B20A1D08882100FFF726
:10ED2000D1FF10BD70B516250E004543064CA91D38
:10ED30006118301D10220CF0EEFB2B5B6419338040
:10ED40006388738070BDC046542B002070B51625B3
:10ED50000E004543064CA91D6118301D10220CF011
:10ED6000DAFB2B5B641933806388738070BDC04607
:10ED7000342B002070B55C240D004443044EA11CCC
:10ED80007118A81C10220CF0C6FBA35B2B8070BD71
:10ED9000DC2B002010B50C0014214143034B04313F
:10EDA0005918102220000CF0B6FB10BD382C0020A2
:10EDB00010B5042201480CF0AEFB10BDCE2B002094
:10EDC00010B50800042202490CF0A5FB10BDC04696
:10EDD000CE2B0020F7B5162417005C43164E00908A
:10EDE000A01D01913018390010221D000CF093FB7A
:10EDF000611D7118380005F093FB002805D0784696
:10EE00000E4B1B68002B14D09847162300216B4330
:10EE1000F2181171694609880948F1526B469B88BE
:10EE200029005380FFF796FE29000648FFF792FE5F
:10EE3000F7BD00DEE9E7C046342B0020CC520020AD
:10EE40002C2B0020302B002010B54C8883B20A1DDB
:10EE500008882100FFF7BEFF10BD0000F7B55C2455
:10EE600054432300204D34331600EB182A19019027
:10EE70000F001364002802D101221C4B1A702100DC
:10EE800012316918380005F056FB002805D0784685
:10EE9000174B1B68002B22D098472100443169187A
:10EEA000380005F059FB002805D07846104B1B6848
:10EEB000002B16D09847A01C3900281810220CF0FF
:10EEC0002AFB5C236A46734392883100EA52094860
:10EED000FFF740FE31000848FFF73CFEF7BD00DEBB
:10EEE000DBE700DEE7E7C046DC2B0020CC2B002070
:10EEF000CC520020D42B0020D82B00200B0010B5C2
:10EF000082B202311888FFF7A9FF10BDF8B51427A7
:10EF100006000C1F67430F4D381D310028181022C2
:10EF20000CF0F9FAE919300005F040FB002805D093
:10EF30007846094B1B68002B09D0984721000748E9
:10EF4000FFF708FE21000648FFF704FEF8BD00DECB
:10EF5000F4E7C046382C0020CC520020142B0020AF
:10EF6000182B0020030010B50800191D89B2FFF707
:10EF7000CDFF10BDF7B506000D0004F00FFC052E07
:10EF800005D97846184B1B68002B1DD09847174BA6
:10EF90001C7873010193002C18D0019A144B15486A
:10EFA0009F18798A7A69491989B205F071FF061E9E
:10EFB0000CD0011DBB6928009847300005F0ACFF5C
:10EFC00004F010FC2000FEBD00DEE0E7084A019BD3
:10EFD0009446634498682900FFF7BCFD064806F094
:10EFE00003F90024ECE7C046CC520020962B002009
:10EFF000D4BD0200982B0020BC2B0020F8B50400E3
:10F000000E0004F0CBFB052C05D97846114B1B688C
:10F01000002B13D09847104B104F1D786401002D22
:10F020000ED13C193100A068FFF794FD0C4806F0A2
:10F03000DBF8002504F0D6FB2800F8BD00DEEAE787
:10F040003B19598A0748891989B205F06DFF0028D4
:10F05000F0D0E6E7CC520020962B0020D4BD020071
:10F06000BC2B0020982B0020F7B50025EBB20093B5
:10F07000184B6A019F18BE68D358300019000193DD
:10F08000FFF77EFD002821D0052D21D1F7BD2100FD
:10F090003000FFF753FD00280FD021007868FFF7FC
:10F0A0004DFD210000280DD00098FFF763FF0028D8
:10F0B000ECD021003000FFF758FD0134019B9C4249
:10F0C000E5D1E1E70098FFF799FFF0E70400F5E7E5
:10F0D0000135CBE7D4BD02000022064B10B506482F
:10F0E0001A7005F063FE002802D0044806F07CF890
:10F0F00010BDC046962B0020982B00200C2300202A
:10F1000001235B4270B50B8006000D000A48002108
:10F11000FFF714FD041E02D12880200070BD0748AF
:10F120001022310004300CF0E7F9002801D12880CA
:10F13000F3E70024F1E7C046142B0020382C002010
:10F1400010B5002809D17846084B1B68002B02D067
:10F150009847074810BD00DEFBE7064B1233C01A84
:10F16000431E9841404280B2F4E7C046CC52002092
:10F17000FFFF0000DC2B002010B5031E09D17846EC
:10F180000D4B1B68002B02D098470C4813E000DEA3
:10F19000FBE70B4A0020043293420CD0094A101DB1
:10F1A0008342F2D330329342EFD8181A16210BF073
:10F1B000B5FF013080B210BDCC520020FFFF00002F
:10F1C000342B0020542B002030B505008DB00129D0
:10F1D00007D17846104B1B68002B1AD098470DB00A
:10F1E00030BD0229F5D00329F9D101AC2C22002130
:10F1F00020000CF099F919232370173B2371074B5A
:10F200002000DA681B69A5602261636102F082FE5A
:10F21000E5E700DEE3E7C046CC520020982B002053
:10F2200010B511000020FFF7CFFF10BD10B508008A
:10F230001100FFF7C9FF10BDF7B50600009101925C
:10F2400003F08CFA070002283ED100214248FFF764
:10F2500075FC00240300A04205D0404A1288B24247
:10F2600001D03F4C0023019A1020002A4ED0019A71
:10F27000012A04D1FC3217401020012F46D1002B67
:10F2800060D1374A0420944240D0364AA1008E52C1
:10F290005218D370937021003348FFF75BFC2100B4
:10F2A0003248FFF757FC21000120FFF763FE009B67
:10F2B0001C80019B002B47D12A4BA4001C19E3782A
:10F2C0000133E370002021E0FD23254C0340012B96
:10F2D000C8D10025224B9C420BD129002248FFF7C0
:10F2E0002DFC002805D1ACB20135042DF2D100234C
:10F2F00006E01C4AAB009B5AB342F5D10123ACB2E5
:10F30000019A002ABBD11020032F00D0FEBD002B94
:10F3100015D1134A04209442F8D0124AA1008E520B
:10F320005218D370937021000F48FFF713FC21008F
:10F330000E48FFF70FFC21000120FFF71BFE009B8A
:10F340001C80B9E7009B1C80064BA4001C19A37805
:10F350000133A370B6E7C046142B0020382C0020E0
:10F36000FFFF00001C2B0020042B0020082B002096
:10F3700010B50400032809D801000648FFF7DEFB9A
:10F38000002803D001200123184010BD2000FFF702
:10F3900015FCF8E7042B0020010010B5002003291C
:10F3A00002D80248FFF7CAFB10BDC046042B00205C
:10F3B000F8B50400FFF7F0FF071E14D00025174E24
:10F3C000A700F3199A78AA420BD1DB78AB4208D197
:10F3D00021001348FFF7C9FB21000120BD53FFF7AF
:10F3E0000DFE2800F8BD2000FFF7E8FB05250028EA
:10F3F000F7D01426043C66430A4B3D009B199A78CB
:10F40000002AEED1DB78002BEBD121000648FFF774
:10F41000ACFB044B2100F7520220E0E71C2B00203C
:10F42000042B0020382C0020142B002010B5094B91
:10F43000098884B2A200D1529B1800222100DA7000
:10F440009A700548FFF786FB21000448FFF782FB0E
:10F4500010BDC0461C2B0020042B0020082B0020D0
:10F46000F8B505F0E5FE00281DD0344B1B78002BC5
:10F4700017D00121324805F0ABFC051E11D043899D
:10F48000042B0CD18389012B09D1C388012B06D110
:10F490000389032B03D183880024012B05D0FFF7B8
:10F4A0001BFE0020F8BD20BFDBE72200002124481E
:10F4B00005F0B4FC041E3BD08542F6D08022438880
:10F4C00002261F0B3F039201974207D015D8002F49
:10F4D00021D08023013E5B019F421FD1194B760151
:10F4E0009E19738A6788211DFF1A3800F3699847AF
:10F4F00039007068FFF72EFBD7E780230426DB0175
:10F500009F42EBD0A0230136DB019F42E6D0C0230F
:10F51000023E9B01E0E73E00022BDFD078460A4B1B
:10F520001E68002E02D0B0470026D7E700DED5E7E0
:10F53000064B186801231840B4E7C046962B0020FC
:10F54000982B0020D4BD0200CC5200200C2B0020B0
:10F5500010B502F035FF014BC01810BD00FCFFFFD5
:10F5600030B51C4B87B003931B4B012404931B4BFA
:10F57000059300230293FFF7EBFF0194009004F042
:10F580000DF9174D6946280005F006FD002809D041
:10F59000002404F027F9002C18D00122114B1A7016
:10F5A00007B030BD2B78012BF3D10A2221002800AF
:10F5B00005F06EFC0028EBD004234381013B8481DD
:10F5C0008480C480038105F0A7FCE2E7064805F0CB
:10F5D0000BFEE5E72DF2010021F2010015F6010016
:10F5E000982B0020962B00201C230020054B064A58
:10F5F00010B59A60054ADA600022054B1A70FFF7D1
:10F60000AFFF10BDBC2B0020A5EC010069F001008C
:10F61000962B002010B5FFF7A3FF10BDF8B5051E0F
:10F6200005D17846174B1B68002B0DD09847012455
:10F63000154E0F2033681C4005D128886B881B1895
:10F64000984203DB0B20F8BD00DEF0E703F086F8FC
:10F650000128F7D128886B88C018013880B203F0E0
:10F660007DF807000128EDD10422290007480BF09E
:10F6700052FF336821001F4337602000FFF77AFCF8
:10F680002000E0E7CC5200200C2B0020CE2B0020E5
:10F6900010B5041E05D17846064B1B68002B06D01A
:10F6A00098470422044920000BF035FF10BD00DE0E
:10F6B000F7E7C046CC520020CE2B002010B50E2319
:10F6C000002903D00122FFF7B7FD0300180010BD89
:10F6D00010B50400FFF74CFE052300280AD0032CC8
:10F6E0000AD9043C0F336343054C1C19A37801333A
:10F6F000A3700023180010BDA400024BF5E7C0461C
:10F70000382C00201C2B002010B50400FFF744FE0D
:10F71000002809D00A4BA2009B189A782000013AD1
:10F720009A70FFF745FE10BD2000FFF747FA03006F
:10F730000520002BF7D01423221F5A43014BEBE77F
:10F740001C2B0020382C002010B50400FFF710FE01
:10F75000052300280AD0032C0AD9043C0F33634345
:10F76000054C1C19E3780133E3700023180010BD29
:10F77000A400024BF5E7C046382C00201C2B0020CB
:10F7800010B50400FFF7F4FD00280AD0032C09D9B6
:10F790001423043C6343054C1C19E078431E984134
:10F7A000C0B210BDA400024BF6E7C046382C0020C2
:10F7B0001C2B002070B504000D000E2000290ED077
:10F7C0002000FFF7E9FD061E0AD00F4BA400E25A05
:10F7D0006A80E05A02F0C2FF28700020686070BDA5
:10F7E0002000FFF7EBF903000520002BF7D0231FC3
:10F7F00014245C43054A3000A35A04346B8002236E
:10F8000014196C602B70EAE71C2B0020382C0020A8
:10F81000F8B507000E000E20002F0DD000290BD0E8
:10F8200000252C0029000F48FFF788F9002807D091
:10F830003368A34201D10920F8BD6300DD530134D0
:10F840000135042DEED100210748FFF777F9002894
:10F8500005D033689C42EED06300DD530134346040
:10F860000020E9E7042B0020142B0020F0B506004F
:10F8700085B00D000E24002829D0002927D040880B
:10F8800002F06CFF022825D0032802D010240128A2
:10F890001DD17388002401930123174E5B42174F3B
:10F8A0002B8021001648FFF749F9002807D0A30054
:10F8B000DB5B019A934206D12C80002407E02B8861
:10F8C000B34200D12C800134042CEAD10134200051
:10F8D00005B0F0BD02AB9F1D012370685B423B8009
:10F8E0000028F4D03900FFF70BFC05240028EED0E7
:10F8F0003B8804332B80E0E7FFFF00001C2B002037
:10F90000042B002010B5002802D0FFF735FC10BDF5
:10F910000048FCE7FFFF0000F0B5050085B00F00D0
:10F9200016000E20002920D0002A1ED0104B0738C8
:10F930009D421AD802AB9C1D21002800FFF74AF90E
:10F940000190019B0F20002B0FD12288094B0B380F
:10F950009A420AD039002800FFF780FA2188032054
:10F96000FFF708FB23880198338005B0F0BDC0463F
:10F97000FF0F0000FFFF0000F8B505000C000E2788
:10F98000002812D0002910D000270E6809480F6007
:10F990003900FFF7D3F8B84207D0BE4207D0064B74
:10F9A0001B882B802368013323603800F8BD0927AA
:10F9B000FBE7C046D42B0020DC2B0020F0B585B03F
:10F9C00007000D00009201930E24002A2CD0019B09
:10F9D000002B29D002F0C2FE0234012824D10B3CB6
:10F9E000002D21D129001248FFF7A8F800281BD0CC
:10F9F00002AB9D1D29003800FFF708F90A34061EE6
:10FA000012D12B880B4A0B3C93420DD03400009A44
:10FA100001003800FFF756F9298805200139FFF762
:10FA2000A9FA2B88019A1380200005B0F0BDC046CA
:10FA3000D42B0020FFFF00000138F8B584B2052563
:10FA4000022C14D80B4F21003800FFF777F800285C
:10FA50000DD0162300266343074A21009E5238002A
:10FA6000FFF783F828002100FFF7C8FA35002800C7
:10FA7000F8BDC0464C2B0020542B002073B50E233C
:10FA800006000C1E10D002F069FE102301280BD1D5
:10FA90006B469D1D29003000FFF7B8F805230028AC
:10FAA00002D02B8823800023180076BDF0B585B0E6
:10FAB0000700009201930E24002A29D0019B002BFD
:10FAC00026D0093C002923D11348FFF737F8002836
:10FAD0001ED0124B02349F421AD802AB9D1D290042
:10FAE0003800FFF7BBF80834061E11D12B880C4AEA
:10FAF0000B3C93420CD0009A01003800FFF76AF9E2
:10FB0000200034002988FFF735FA2B88019A1380EA
:10FB1000200005B0F0BDC046D42B0020FF0F000030
:10FB2000FFFF0000F7B506000F0015000E240029A6
:10FB300020D0002A1ED0093C00281BD101000F480C
:10FB4000FEF7FCFF002815D02B6831002E600C4812
:10FB50000193FEF7F3FF340000280BD0094B5A88BD
:10FB6000002A07D1019A002A06D01B883B802B6807
:10FB700001332B602000FEBD0924FBE7D42B0020BD
:10FB80002C2B0020342B002070B50E0005250328F7
:10FB90002AD8002900D162E000282BD10100314889
:10FBA000FEF7CCFF00281FD02F4C6388002B05D018
:10FBB00078462E4B1B68002B18D0984761882C483C
:10FBC000FEF7BCFF002805D17846284B1B68002BA8
:10FBD0000ED09847231D73605C2362885343254AE7
:10FBE0001233D31833600025280070BD00DEE5E72E
:10FBF00000DEEFE7441E21001F48FEF79FFF0028AC
:10FC0000F2D0162363431D4DEB185B88002B05D003
:10FC10007846164B1B68002B1DD09847162363436C
:10FC2000EB1859881248FEF789FF002805D178465D
:10FC30000E4B1B68002B10D09847162044432B19FD
:10FC40005A885C2353430B4A12330434D3182D19BA
:10FC500033607560C7E700DEE0E700DEEDE70E2504
:10FC6000C2E7C0462C2B0020342B0020CC520020B1
:10FC7000D42B0020DC2B00204C2B0020542B002008
:10FC800070B504000D1E05D178460F4B1B68002B84
:10FC900009D098472968002907D00800FFF750FAD3
:10FCA00000232B600FE000DEF4E7084E0848B37C29
:10FCB0005C407F231C40FEF741FF0028F0D0002C61
:10FCC000EED112362E6070BDCC520020DC2B00200D
:10FCD000D42B0020F7B505000C00161E05D1784680
:10FCE0001A4B1B68002B12D09847002D05D178467F
:10FCF000164B1B68002B0CD098472800FFF720FA02
:10FD0000134B0700984206D100233360F7BD00DE95
:10FD1000EBE700DEF1E73168002903D00800FFF7C8
:10FD20002BFAF1E70B4D0C486B8801936B795C4023
:10FD30003F231C40FEF702FF0028E5D0019B9F42B5
:10FD4000E2D1002CE0D104353560DFE7CC52002051
:10FD5000FFFF0000342B00202C2B002070B5050085
:10FD60000C1E05D178460F4B1B68002B14D098470A
:10FD70002B1E0FD00C4A1388AB420FD0D38AAB4254
:10FD80000ED0918D0023A94204D1022116234B43AA
:10FD90000433D318236070BD00DEE9E70021F5E7E6
:10FDA0000121F3E7CC520020542B0020F7B50E1EA2
:10FDB000019005D17846174B1B68002B06D0984759
:10FDC0003568002D0CD000233360F7BD00DEF7E767
:10FDD00039000822543101980BF08EFB00280CD01A
:10FDE000002DF0D129000C48FEF7A8FE0125041EC5
:10FDF000E9D0019B094F002BEAD1094B1B78002B5E
:10FE000003D13B003C331C70DEE73C8863425C411D
:10FE1000E4B2F6E7CC520020D42B0020DC2B0020EB
:10FE2000CC2B0020F7B505000C0002F097FC030076
:10FE3000022837D0032813D0012820D12D4A0020D2
:10FE400012681A424ED02C4A11888D424AD35288E9
:10FE50005218954246DA606065802370180041E0D0
:10FE60000026264F254B9F420BD131002448FEF738
:10FE700065FE002805D1B7B20136042EF2D100206C
:10FE800030E0204AB3009A5AAA42F5D11D4AD3184D
:10FE9000DB78002BF0D003232370002365806360A0
:10FEA00001201FE06B4660689E1D00281BD10123C6
:10FEB0005B4233800122524233883280124E3788AF
:10FEC000002BDCD000211148FEF738FE0028D6D0E8
:10FED000BD42D4D1F378002BD1D002230436658003
:10FEE00023706660FEBD3100FFF70AF90028DED0FE
:10FEF000E0E7C0460C2B0020CE2B0020FFFF0000C7
:10FF0000042B00201C2B0020382C0020142B002058
:10FF10001FB50400084A094B8118C3186A4600F04F
:10FF2000FDFC6946200000F0BDFB002802D1102234
:10FF3000034BE25404B010BD7D0200004D020000EE
:10FF4000B302000000B5084B8DB0C25C002A09D096
:10FF50000022C25401AB0532029018001A701972C7
:10FF600001F0D8FF0DB000BDB3020000F0B50E4E99
:10FF70008DB0855D0400022D0ED1042701A8077005
:10FF8000446001F0C7FF094B0021E218200000F097
:10FF900056FB002802D1A7550DB0F0BD2900200066
:10FFA00000F046FBF8E7C046B30200009D020000E7
:10FFB00030B5124D8DB0435D0400072B0CD1AC233E
:10FFC0009B00C35C002B09D0092301A803700133F7
:10FFD0006355446001F09EFF0DB030BDDC235B0033
:10FFE000C15800F04DFB002802D109236355F3E707
:10FFF0000221200000F01CFBEEE7C046B302000027
:020000022000DC
:10000000AD2330B59B000400C35C03208DB0834258
:100010001BD818000BF064F82D271B021A4B200088
:10002000E518290000F06AFD0623112201A80370DB
:10003000164B4460E35C4372154BE35CC56003728E
:10004000144BE25401F066FF00200DB030BD0723D1
:1000500001A803700D4B4460E35C0C2243720C4B0F
:10006000E35C0372ECE7082301A8037044600D22EF
:10007000E6E7054B1022E01800210BF055FA2000AE
:10008000FFF746FFE1E7C0466D020000AE02000048
:10009000AF020000B3020000F0B50D00A5B00400EF
:1000A0001100280000F090FA002801D102214EE151
:1000B000287801380828F9D80BF01CF80900F8FF57
:1000C000490074007C009000F8FF17014D01A64E16
:1000D000A35D042B39D1A54B0B22E018691C0BF052
:1000E0001AFA052319A8A355DB18037044606B782E
:1000F0000372EA78AB7812021A431302120A13430E
:100100006D229BB26A4413701B0A53702B79C37221
:100110006B790373AB7943732B7AEA791B02134330
:100120001A021B0A1343C3816B7A0374EA7AAB7A0F
:1001300012021A431302120A134375229BB26A4435
:1001400013701B0A537001F0E5FE25B0F0BD864F19
:10015000E35D092BF9D12600C136FF36691C402228
:1001600030000BF0D8F900F0D3FB00280BD00B23A4
:1001700019A8E35501330370B133FF33E3584460EA
:10018000C3608660DFE780239B00E118200000F059
:1001900095FC002800D089E72000FFF731FF0028F8
:1001A000D3D083E7704BE35C112BCED12000FFF757
:1001B000AFFEF4E76C4EA25D102AC6D16C4B691CF1
:1001C000E0180BF0A8F96B4B2000E11800F07CFA66
:1001D000002800D06AE71223A355B6E7624BE35C20
:1001E000122BB2D1644B691C1022E0180BF093F96A
:1001F000200000F0D1FC002800D157E788239B00A5
:10020000E31801AA05A9200000F0F8FB072310AFAE
:100210003B70B02309AD9B00E118102228000BF0C1
:100220007AF9B522FF20554B9200A25AE35A1204E4
:100230001A43110E13060B430004110201400B4335
:10024000FF21120A09020A40372113436944180AA0
:100250000B704870180C1B0ECB70494B8870E15A1C
:1002600001260B02090A0B433B219BB269440B7028
:100270001B0A4B70B4239B00E35A002219021B0A8D
:100280000B432B82B6239B00E15CAB7C4808C9077B
:10029000C90F3140B1403040B3430343B619B343B3
:1002A0000B4303210B40AB7405AB19A8199301ABA9
:1002B00043601923838128336B4483615A236B4441
:1002C000C3616523026182826B4408328560DA77FC
:1002D00003F074FB3900200000F008FA002800D079
:1002E000E4E61423204AA3542FE71F4BE35C142BAE
:1002F00000D02AE719A8093B037088239B00E31864
:10030000C360B0239B00E31883601C4B4460E25A37
:100310000233E35A01251B0413430361B4239B00FA
:10032000E35A8382164BE35AC382B6239B00E25CF6
:10033000037E1100EA402940AB430B432A400221CF
:10034000AA408B431343037601F0E4FD0021200013
:1003500000F06EF9F9E60D2319A8037044606B787C
:10036000037201F0D7FDA1E6B30200009E02000077
:100370008D0200004D0200005D020000D20200006C
:10038000D6020000F8B5104D1F00435D04001600B2
:100390000820002B16D10D4B0D4A200000F024F947
:1003A00000280FD10B4B3900E0540F331922E0180D
:1003B0000BF0B1F83100200000F030F9002801D135
:1003C00002236355F8BDC046B302000000879303C3
:1003D00094BE0200B102000073B51E4D0400435DDF
:1003E0000820052B34D10130102A31D8002A29D118
:1003F00000292DD1AD239B00E154174B6846E254F0
:100400000223037000234370AE208000205C461E50
:10041000B0416E46B070F170012901D00F4BE35C22
:1004200068460371012900D100226B465A710C4BBA
:100430006946E218200000F014F9002808D10723CB
:10044000635505E0002903D0102AD3D00129D1D16A
:1004500076BDC046B3020000AE020000AF0200004D
:100460009D02000070B50F4B0500C35C08200C3BDB
:10047000012B16D80130102A13D80B4BEC5C944298
:100480000FD10A4B2200E8180BF045F81022074B59
:10049000121BE018281800210BF046F82800FFF77F
:1004A00037FD70BDB3020000AE0200006D02000017
:1004B00070B50A4C055D0824002D0CD1B134FF3411
:1004C0000151DE2149004250054A190080180B22D3
:1004D0000BF021F82C00200070BDC046B3020000D4
:1004E000B502000010B500F079FA10BDF8B50500AE
:1004F0000F0014000E20002D14D0002912D0002A65
:1005000010D00620002B0DD100F0F8FF06000620C9
:10051000002E07D0637C217C0A4A1B020B439342C6
:1005200001D90B20F8BDE07DA37D0002184302F045
:1005300015F90128F5D123003A0031002800FFF712
:1005400021FFEFE7FF0F000010B5054BC45C082347
:10055000002C02D1FFF740FF0300180010BDC04679
:10056000B102000010B5054BC35C002B02D1FFF7B0
:1005700079FF10BDFCF7EEFAFBE7C046B1020000C0
:1005800070B504000D001600002905D178460D4B0A
:100590001B68002B11D09847002C05D17846094BD9
:1005A0001B68002B0BD09847D8235B00E358320020
:1005B00029001B682000984770BD00DEECE700DED4
:1005C000F2E7C046CC520020031E09D00278002377
:1005D000092A05D8034B9B5C5B1A59424B41DBB29D
:1005E00018007047A4BE020030B504000E20002C95
:1005F00010D000290ED0002A0CD0074D0738AB428E
:1006000008D9AE30FF302350D62300205B00E250E3
:100610000433E15030BDC046FF869303D823DA226D
:1006200010B55B00C3585200DB688258984710BD74
:10063000D82310B55B00C3581B69984710BD002331
:1006400037B501AC23706B46050061701000591D71
:1006500001220AF060FF280002222100FFF790FF2C
:100660003EBD70B505000C000C32013110000522B2
:100670000AF051FF280006222100FFF781FF70BD1C
:10068000032330B593B001AC23706B4605004022C4
:10069000581D0AF040FF412221002800FFF770FF9B
:1006A00013B030BD052330B587B001AC23706B4665
:1006B00005001022581D0AF02EFF112221002800EB
:1006C000FFF75EFF07B030BD062330B587B001AC41
:1006D00023706B4605001022581D0AF01CFF1122E2
:1006E00021002800FFF74CFF07B030BD10B52222D3
:1006F000FFF746FF10BDD62310B55B00C3589B68BB
:10070000984710BDD62310B55B00C358DB689847E7
:1007100010BD0000F7B5194B05001B680E0017004F
:100720001B0722D5164B1B68032B1ED9154C2F21F6
:1007300020000AF0CAFF2F21002807D15C212000E9
:100740000AF0C3FF2100002804D05C2120000AF039
:10075000BCFF411C0C4A0D4B0420D3583278019247
:100760000B4A0092DF2203F079FFD6235B00EB589F
:100770003A00310028001B689847F7BD6C23002021
:1007800068230020AEBE020000B000400405000057
:10079000CEBE0200D62310B55B00C3585B689847F5
:1007A00010BDF0B507008BB00C0015001226002913
:1007B0000ED008000AF082FF6A4681B2200003F0E2
:1007C00071F922200422694668440AF0A4FE043626
:1007D00004AC6DBA258201F099FB102201002000C3
:1007E0000AF099FE330022000021380004F000FFD7
:1007F0000BB0F0BDF0B505008DB00E00170000285D
:1008000005D17846274B1B68002B3BD09847042323
:1008100032009A43122A05D07846224B1B68002BDF
:1008200032D09847002F05D178461E4B1B68002B0D
:100830002CD098471C4B1B78002B21D001AC2C22CC
:10084000002120000AF070FE1022290002A8E761B2
:100850000AF061FE3B78013B5A4253412375032362
:100860002370162E14D12900023B637519336B4493
:100870001231042218000AF04EFE200001F04AFB5B
:100880000DB0F0BD00DEC2E700DECBE700DED1E751
:100890001A2300216B440422180061750AF044FEFB
:1008A000EBE7C046CC5200202C230020F7B5060011
:1008B0000D00684689B202F07FFC00242427AC4278
:1008C00000D3F7BD6B463900185D0AF0ADFC034B51
:1008D000C9B25B5C33550134F1E7C046E2BE0200A9
:1008E00037B50D000400042101A802F065FC074B98
:1008F000AD00E95801980AF097FC200009BA01916F
:10090000042201A90C300AF006FE37BD08BF020020
:10091000014B18787047C0464C2C0020F0B50400FD
:10092000DC251E00294BAFB003920F001122C11825
:1009300009A80AF0F0FD264B6D00E35C4022002B75
:1009400038D102A82D331B18615918000AF0E3FDB5
:1009500021004022C131FF316D2002ABC0180AF0E6
:10096000DAFD3A0009A8912103F09CF880239B004E
:10097000E018FD3B05ADFF3B3A0000930195154B98
:10098000202103F0ADF83000102102F015FC3100F9
:10099000102209A80AF0BFFD0F4B1022E1180DA884
:1009A0000AF0B9FD039B202209A9280003F002F8F0
:1009B0002FB0F0BD21002D2302A81B18C131FF313B
:1009C00018000AF0A8FD40226159C5E79D02000009
:1009D000B10200002CBF02006D02000070B50400DF
:1009E0000D000AF07BFA2900020020000AF07AFAD2
:1009F0000023012800D00333180070BDF0B50400B7
:100A000099B00393264B0F001600C11810220CA8B2
:100A10000AF081FD234B244AE35CA5181022002B29
:100A200035D1290010A80AF076FD10221F4BE118DD
:100A300014A80AF070FD04AA0CA8302103F032F8C3
:100A4000802304259B00E41804AA20000197009548
:100A5000174B202103F044F808AB019304AA2000AF
:100A60000095144B202103F03BF81B2102ABC91861
:100A70000D2230000AF04FFD039B0095019304AA5C
:100A80000D4B2021200003F02BF819B0F0BD074BCF
:100A900010A8E1180AF03FFD10222900C8E7C0465F
:100AA0007D020000B10200004D0200005D02000066
:100AB00031BF020036BF02003BBF020070B5040028
:100AC0000E0005000AF00AFAC134FF3401002000CC
