:020000022000DC
:1030000000000120A19F0200C99F02002D4802007C
:10301000CD9F0200CF9F0200D19F02000000000060
:10302000000000000000000000000000D39F02002C
:10303000D59F020000000000D79F0200D99F020028
:10304000DB9F0200DB9F0200DB9F0200DB9F020090
:10305000DB9F0200DB9F0200214D0200DB9F02008C
:10306000DB9F0200DB9F0200DB9F0200DB9F020070
:10307000DB9F0200DB9F0200DB9F0200DB9F020060
:10308000DB9F0200DB9F020095B60200DB9F02007F
:10309000DB9F0200DB9F02008D480200DB9F0200E5
:1030A000DB9F0200DB9F0200DB9F0200DB9F020030
:1030B000DB9F0200DB9F0200000000000000000018
:1030C000DB9F0200DB9F0200DB9F0200DB9F020010
:1030D000DB9F0200DB9F0200DB9F0200000000007C
:1030E00000000000000000000000000000000000E0
:1030F00000000000000000000000000000000000D0
:1031000000000000000000000000000000000000BF
:1031100000000000000000000000000000000000AF
:10312000000000000000000000000000000000009F
:10313000000000000000000000000000000000008F
:10314000000000000000000000000000000000007F
:10315000000000000000000000000000000000006F
:10316000000000000000000000000000000000005F
:10317000000000000000000000000000000000004F
:10318000000000000000000000000000000000003F
:10319000000000000000000000000000000000002F
:1031A000000000000000000000000000000000001F
:1031B000000000000000000000000000000000000F
:1031C00000000000000000000000000000000000FF
:1031D00000000000000000000000000000000000EF
:1031E00000000000000000000000000000000000DF
:1031F00000000000000000000000000000000000CF
:1032000010B5054C237833B9044B13B10448AFF320
:1032100000800123237010BDC83200200000000090
:10322000204003000C4B43B10C480D4910B5AFF3DF
:1032300000800C48036823B910BD0A48036833B9FD
:103240007047094B002BF7D0BDE810401847064BDC
:10325000002BF5D0184700BF0000000020400300FD
:10326000CC320020C032002000000000154B002BA3
:1032700008BF134B9D46A3F5803A00218B460F46AD
:103280001348144A121A0FF0A7FD0F4B002B00D061
:1032900098470E4B002B00D09847002000210400D7
:1032A0000D000D48002802D00C48AFF300800FF04D
:1032B00045FD2000290000F011FB0FF02BFD00BFA1
:1032C00000000800000001200000000000000000D5
:1032D000C83200203862002000000000000000001A
:1032E00038B51F4C041B0C20B4FBF0F4022C0D4627
:1032F00004D978461B4B1B685BB19847012D1BD046
:1033000009D3022D1AD07846164B1B68EBB19847AB
:1033100006E000DEF2E7012104F1110001F056FCA5
:10332000114D11242B8811339C4210D301211420FC
:10333000BDE8384001F04ABC0021EDE706226421D7
:103340004FF4F01001F04EFCEAE700DEE8E720461B
:1033500001F030FC01460028E9D00134E2E700BF6B
:10336000E8320020B86100201833002037B56B4DDB
:103370002B680446580419D5694B1B68032B15D9D3
:103380002F2168480FF0FCFD00282FD02F21654821
:103390000FF0F6FD411C644B644AD3F804350092EB
:1033A00001944FF49D72042009F0E6F8604B1B88ED
:1033B00073BB2B68590417D5594B1B68012B13D9C4
:1033C0002F2158480FF0DCFDC8B12F2155480FF0D0
:1033D000D7FD411C544B574AD3F8043500920220C4
:1033E00040F23D1209F0C8F803B030BD5C214D48F1
:1033F0000FF0C6FD08B15C21C9E74A49CBE75C2163
:1034000048480FF0BDFD08B15C21DFE74549E1E721
:103410009C4272D3032C75D02B685A04E4D5404BE0
:103420001B68012BE0D92F213E480FF0A9FD80B188
:103430002F213C480FF0A4FD411C3B4B3E4AD3F8E2
:103440000435009201944FF4A172022009F094F81F
:10345000CAE75C2133480FF093FD08B15C21E8E72F
:103460003049EAE704F1110001F0A4FB334B80F08E
:1034700001010C20C9B200FB043001F0F3FC082864
:1034800003D0042801D011282CD12B685B0417D558
:10349000234B1B68032B13D92F2122480FF070FDFB
:1034A000B8B12F211F480FF06BFD411C1E4B244A61
:1034B000D3F80435009204204FF4AF7209F05CF8A1
:1034C000042232214FF4F01003B0BDE8304001F087
:1034D00089BB5C2113480FF053FD08B15C21E1E783
:1034E0001049E3E700283FF47FAF0E4A40F2631132
:1034F00003B0BDE8304001F05FB9022CB2D9032C13
:103500007FF472AF142001F055FB80F0010103221B
:10351000C9B20C4801F0DEFCB1E700BF4432002024
:10352000403200200430030000B000402F30030080
:1035300018330020423003005A300300E8320020E4
:103540007A3003000C3300201FB50B780C461BBBF0
:10355000174B1B685B041FD5164B1B68032B1BD92D
:103560002F2115480FF00CFDC0B12F2112480FF08C
:1035700007FD411C6268114B92F91400D3F8043521
:103580000390207B0290528801920D4A0092042001
:1035900040F2311208F0F0FF04B010BD5C21064883
:1035A0000FF0EEFC08B15C21E0E70349E2E700BF61
:1035B00044320020403200200430030000B00040BC
:1035C0009830030037B5414D414C2B6813F4804FC0
:1035D0001AD0404B1B68032B16D92F213E480FF001
:1035E000CFFC00283CD02F213B480FF0C9FC411CE8
:1035F0003A4B2288D3F804350192394A00920420CC
:1036000040F26D1208F0B8FF228836490C2353436C
:1036100031F81210344AD05A03F06AF820B12E4A19
:1036200040F2711101F0C8F802F074FA208800210C
:10363000113001F0CBFA238801339BB2022B238097
:1036400017D82A4B188800F5807080B200F00CFF64
:1036500020880121113003B0BDE8304001F0B6BA36
:103660005C211D480FF08CFC08B15C21BCE71A49B5
:10367000BEE72B685B0417D5164B1B68032B13D9C9
:103680002F2115480FF07CFCB8B12F2112480FF004
:1036900077FC411C114B164AD3F8043500920420E4
:1036A0004FF4BF7208F068FF042264214FF4F01059
:1036B00003B0BDE8304001F095BA5C2106480FF038
:1036C0005FFC08B15C21E1E70349E3E744320020F5
:1036D00018330020403200200430030000B00040C6
:1036E0006331030038330020E832002036330020F5
:1036F0008A31030013B5264B264C1B6813F4804F08
:103700001AD0254B1B68032B16D92F2123480FF005
:1037100037FC002832D02F2120480FF031FC411C0B
:103720001F4B2288D3F8043501921E4A00920420D0
:1037300040F2851208F020FF22881B4B33F812005C
:1037400004F0AAF820B1154A4FF4C47101F034F81E
:103750002288164B33F8120004F02CFA20B10F4ADD
:1037600040F2891101F028F8114B188800F580709B
:1037700080B202B0BDE8104000F076BE5C21074880
:103780000FF0FEFB08B15C21C6E70449C8E700BFA3
:10379000443200201833002040320020043003005F
:1037A00000B0004040310300383300201A330020BD
:1037B000363300202DE9F3413D4E3388022B8046FD
:1037C00005D978463B4B1B68002B65D098473A4B90
:1037D0001B685B041BD5394B1B68032B17D92F21A2
:1037E00037480FF0CDFB002858D02F2134480FF078
:1037F000C7FB411C334BB8F81220D3F804350192B3
:10380000314A009204204FF4C97208F0B5FE2F4CE3
:103810002F4F2188B8F8120007EB410104F01AF885
:1038200020B1274A40F2951100F0C6FF294D2388A8
:103830002949D8F808200988B8F8120005EB430395
:1038400004F07CF920B11E4A4FF4CB7100F0B4FFB4
:10385000238835F8130001F019FD20B1184A40F211
:10386000991100F0A9FF238837F8131035F81300D9
:1038700001F0C2FC20B1124A40F29B1100F09CFF03
:103880003088238800F58070013380B2238002B035
:10389000BDE8F04100F0D8BD00DE98E75C210848A3
:1038A0000FF06EFB08B15C21A0E70549A2E700BF5D
:1038B00018330020B861002044320020403200203C
:1038C0000430030000B00040A33103003633002071
:1038D000383300201A330020343300202DE9F04F14
:1038E000AA4CAB4A8BB004214FF4C04008F02AFE2A
:1038F0002268520419D5A74B1B68032B15D92F2119
:10390000A5480FF03DFB002800F0F1802F21A248D0
:103910000FF036FB411CA14BA14AD3F804350092AD
:1039200004204FF4D37208F027FE01F0B5F99D484A
:1039300001F0CEF920B1984A40F2A91100F03CFF05
:103940000121112001F042F901F08CF823685B0499
:1039500018D5904B1B68032B14D92F218E480FF0DC
:103960000FFB002800F0CC802F218B480FF008FBC4
:10397000411C8A4B8C4AD3F8043500920420B722AC
:1039800008F0FAFD894F8A4EDFF84482894D8A4C4F
:1039900003F0FCFE02F0B4FD4FF6FF7387482B8066
:1039A000238033803B8073807B80B380BB80A8F80A
:1039B000003001F0F1FB0297CDF80C8018B1764A87
:1039C000C62100F0F9FE7E4A7E48002101F024FE67
:1039D00018B1714AC72100F0EFFEDFF8F881DFF877
:1039E000F891DFF8B4A14FF0000B4746C8F80490F7
:1039F0001FFA8BF1404601F017FA18B15246CC215C
:103A000000F0DAFE0BF1010BBBF1040F08F10C081A
:103A1000ECD103F0E5FD0DF11C09002800F0DE807B
:103A20000DF128084FF0010A48F818AD61484146E9
:103A300004F066F818B1584A762100F0BDFE4246FF
:103A40005D492888CDF810A004F026F918B1524A33
:103A5000782100F0B1FE042341464846049303F068
:103A60009FFF18B14C4A7D2100F0A6FE4FF00008E0
:103A7000DFF824A14546049B98454AD3524B1D804C
:103A800002F0A8FC002800F0D68000254FF6FF7653
:103A90004FF00C0808FB05F34946F85AADF81C60D6
:103AA000ACB202F043FE40B9BDF81C30B34204D0C2
:103AB00001350134032DA4B2ECD1444B1C8000F03D
:103AC000D5FD424B404A1B881088834280F0FC8021
:103AD00003F5807080B200F0B7FC0EF043F8303888
:103AE000032801D8FFF742FC06F024FFF5E75C212C
:103AF00029480FF045FA08B15C2108E726490AE792
:103B00005C2125480FF03CFA08B15C212DE72249E1
:103B10002FE705A939F8180003F014FF18B1524631
:103B2000822100F049FE9DF81430012B1ED14FEA8E
:103B3000450B06EB0B01BDF8160004F05BF8A8B9C5
:103B400036F815104FF6FF7291420FD0029B05A870
:103B500003EB0B0103F056FF18B152468C2100F025
:103B60002BFE0135ADB208F1010884E79DF8143051
:103B7000032BF8D1164905A803F044FF0028F2D022
:103B80005246912100F018FEEDE700BF44320020BC
:103B900019C50200403200200430030000B000408C
:103BA000ED3003006D3302001C3103003833002078
:103BB0001A33002034330020E43200207D44020018
:103BC000493502002433002036330020183300200A
:103BD00020330020E8320020E13202003F4B186819
:103BE0000790484603F0E6FD18B13D4AD72100F0A2
:103BF000E3FD3C494CF6FE2003F02CFE18B1384A98
:103C0000D82100F0D9FD384A3849002003F04CFF94
:103C100018B1334AD92100F0CFFD354B354A2988F8
:103C2000002004F001F800283FF42AAF2C4ADA21E2
:103C300000F0C2FD24E7304D2188288802F0B4FD51
:103C400018B1274AE42100F0B7FD2188288802F046
:103C5000D3FD18B1224AE52100F0AEFD204E00252B
:103C60002188785B02F0A0FD18B13246EA2100F00D
:103C7000A3FD2188785B02F0BFFD18B13246EB212D
:103C800000F09AFD0C35242DEAD12188B88C02F081
:103C90008BFD18B1124AEE2100F08EFD2188B88C00
:103CA00002F0AAFD18B10E4AEF2100F085FD039B3A
:103CB000B88C198802F01CFD18B1094AF02100F0F7
:103CC0007BFD01F027FFFAE602283FF606AF00F57C
:103CD000807080B200F0C8FBFFE600BF0030030038
:103CE000043003002033002034330020DD30030093
:103CF000E4320020CD3003002433002070B59C4B0B
:103D00001A78033A8AB0072A00F2D381DFE812F06A
:103D100008000A0037007100A700DC00480192018A
:103D200004221A70934B1B685E0416D5924B1B68D5
:103D3000032B12D92F2191480FF022F9B0B12F2176
:103D40008E480FF01DF9411C8D4B8E4AD3F8043577
:103D500000920420722208F00FFC01F0AFFA18B1B3
:103D6000864A732100F028FD0AB070BD5C218348AB
:103D70000FF006F908B15C21E2E78049E4E77D4BEA
:103D80001B685D0416D57C4B1B68032B12D92F21B1
:103D90007A480FF0F5F818B32F2178480FF0F0F8B3
:103DA000411C774B784AD3F80435009204207A22DC
:103DB00008F0E2FB754B04AC03F1100622461868CC
:103DC0005968254603C50833B3422C46F7D1002174
:103DD000084601F09DFA0028C6D0684A7C21C1E758
:103DE0005C2166480FF0CCF808B15C21D5E7634947
:103DF000D7E7604B1B685C0416D55F4B1B68032B31
:103E000012D92F215D480FF0BBF8F8B12F215B4884
:103E10000FF0B6F8411C5A4B5D4AD3F804350092B6
:103E20000420832208F0A8FB4FF6FF73ADF8123090
:103E30000223ADF81030574B049A1888002101F086
:103E400097FB002890D04D4A88218BE75C214B4896
:103E50000FF096F808B15C21D9E74849DBE7454BFC
:103E60001B68580416D5444B1B68032B12D92F210D
:103E700042480FF085F8F0B12F2140480FF080F84C
:103E8000411C3F4B444AD3F80435009204208F2252
:103E900008F072FB5923ADF8123000213D4BADF80C
:103EA0001010049A188801F063FB00283FF45CAFFF
:103EB000324A942156E75C2130480FF061F808B18E
:103EC0005C21DAE72D49DCE71822002104A80EF076
:103ED00083FF304B1B88ADF81030012399008DF81B
:103EE0001430ADF816308DF821304FF0FF338DF8D7
:103EF00025308DF8263000238DF824301D4B032209
:103F00008DF81F201B68022262F301018DF820103A
:103F100059048DF8232019D5174B1B68032B15D98D
:103F20002F2116480FF02CF8C8B12F2113480FF09D
:103F300027F8411C124BBDF81620D3F80435019226
:103F4000164A00920420A82208F016FB04A801F0EB
:103F500029FA00283FF408AF084AAA2102E75C21A9
:103F600006480FF00DF808B15C21DFE70349E1E7EF
:103F70006436002044320020403200200B3203001F
:103F800000B000403D32030057320300D23103003D
:103F900066320300A63600208A320300B5320300E1
:103FA0001822002104A80EF017FF464B1B88ADF81D
:103FB0001030FF3BADF8163003238DF81F30592326
:103FC0008DF8253000238DF826303F4B1B680122E9
:103FD0008DF814208DF821205A0419D53B4B1B680D
:103FE000032B15D92F213A480EF0CAFFC8B12F2153
:103FF00037480EF0C5FF411C364BBDF81620D3F8EC
:1040000004350192344A00920420BE2208F0B4FA2A
:1040100004A801F0C7F900283FF4A6AE2C4AC0213D
:10402000A0E65C212A480EF0ABFF08B15C21DFE777
:104030002749E1E7244B1B685B0416D5234B1B681B
:10404000032B12D92F2122480EF09AFF40B32F21C3
:104050001F480EF095FF411C1E4B204AD3F8043533
:1040600000920420C72208F087FA164B03228DF82D
:1040700010204CF6FE22ADF8122018885922002399
:104080000593ADF80E20ADF80C3004AA039B06CAC8
:1040900001F048FA00283FF467AE0D4ACF2161E6EF
:1040A0005C210B480EF06CFF08B15C21D0E7084999
:1040B000D2E778460A4B1B680BB1984754E600DEFE
:1040C00052E600BFA63600204432002040320020D5
:1040D0000B32030000B00040F23203002F33030024
:1040E000B8610020F0B50278033A8DB00346082A83
:1040F0006ED8DFE812F0090079016F006D006D00E5
:104100001D016D00CA00C300A84C217801295FD1B0
:104110006E228DF816206F228DF8172072228DF8EE
:10412000182064228DF8192069228DF81A208DF844
:1041300021209F4A1288ADF82A20051D9DF82C20C9
:1041400063205F238DF81B0073208DF814308DF8E9
:1041500015308DF81C308DF81D308DF81E008DF84F
:10416000223065208DF8233002F0FE02002363F335
:1041700041028DF81F006D20029303938DF82000FB
:10418000ADF82430ADF82630ADF828308DF82C206D
:10419000CDF80F308DF809108DF80A308DF80C101D
:1041A00002AB844A8449854804F0D9F918B1844A9D
:1041B000622100F001FB002305AA29467F4804F094
:1041C000E2F918B17E4A632100F0F6FA0223237067
:1041D0000DB0F0BD7B4C2268550416D57A4B1B6898
:1041E000032B12D92F2176480EF0CAFE78B32F2167
:1041F00073480EF0C5FE411C744B754AD3F8043564
:1042000000920420E62208F0B7F9684B1B78022BD5
:104210002FD123685C0416D56B4B1B68032B12D976
:104220002F2167480EF0ACFED0B12F2164480EF06C
:10423000A7FE411C654B674AD3F804350092042061
:10424000E92208F099F9594B01221A70C0E75C2164
:104250005B480EF095FE08B15C21C9E75849CBE7F1
:104260005C2157480EF08CFE08B15C21DEE7544912
:10427000E0E7032BACD1FFF741FDA9E74B4A002152
:1042800004301170FFF796FAA2E71022012140686E
:1042900004F0A0F94B4B04461B6818B35804D2D560
:1042A000494B1B68002BCED02F2145480EF068FEED
:1042B00078B12F2142480EF063FE411C434B464A21
:1042C000D3F8043500920194FF22012008F054F93C
:1042D000B9E75C213A480EF053FE08B15C21E9E7EA
:1042E0003749EBE759047FF573AF374B1B68032B56
:1042F0007FF66EAF2F2132480EF042FE78B12F21AB
:104300002F480EF03DFE411C304B344AD3F80435A3
:1043100000924FF48272042008F02EF958E75C21D5
:1043200027480EF02DFE08B15C21E9E72449EBE7B0
:104330002B4A05AC02F11007264610685168254645
:1043400003C50832BA422C46F7D1102231465868CC
:1043500004F047F920B11A4A4FF4867100F02CFAA4
:10436000184B1B685A047FF533AF174B1B68032BA0
:104370007FF62EAF2F2112480EF002FE60B12F21E2
:104380000F480EF0FDFD411C104B164AD3F80435C2
:10439000009240F20D12BEE75C2109480EF0F0FDDC
:1043A00008B15C21ECE70649EEE700BF6436002067
:1043B000A6360020483300206536002068330020F0
:1043C0000B320300443200204032002000B0004095
:1043D000443303006433030086330300C733030010
:1043E000E2310300E4330300124B1B685B047FF5EA
:1043F000EFAE114B1B68032B7FF6EAAE2F210F485F
:104400000EF0BEFD60B12F210C480EF0B9FD411C2D
:104410000B4B0C4AD3F8043500924FF489727AE7BB
:104420005C2106480EF0ACFD08B15C21ECE70349C5
:10443000EEE700BF44320020403200200B32030080
:1044400000B0004009340300054B1880054B1A7872
:10445000022A4FF003021A7000D17047FFF74EBCDA
:10446000A636002064360020024B1880024B012241
:104470001A707047A6360020643600202DE9F043FC
:1044800085B00C4604AF914628B9FFF733F90437DD
:10449000BD46BDE8F08329B978466B4B1B68002BFD
:1044A00042D098472388022B58D1684D2B78042B93
:1044B000EDD1674B1B685B0431D5664B1B68032B42
:1044C0002DD94FEA4903083323F007036E46ADEBBD
:1044D000030D614B0DF110081868414600234B4550
:1044E00001F1020122D3002308F819302F215B4883
:1044F0000EF046FD48B32F2158480EF041FD411CF7
:10450000574B584AD3F804350192574A0092CDF8D8
:1045100008804FF49E72042008F02EF8B54605235B
:104520002B70FFF7EBFBB2E700DEBBE76268D25C03
:104530004FEA121E02F00F0210F80EE001F802EC32
:10454000825C01F8012C0133C9E75C2143480EF07D
:1045500017FD08B15C21CFE74049D1E748F20302DB
:10456000934211D1394D2A78052A90D163681B787E
:1045700033B1062B04D07846334B1B6813B19847F0
:104580000623CDE700DEFBE748F23E0293421ED150
:104590002E4D2B78062B0BD163681B7823B1784600
:1045A000294B1B6813B198470723B9E700DEFBE7E7
:1045B000072B7FF46CAF63681B7823B17846224BDE
:1045C0001B6813B198470823AAE700DEFBE748F20F
:1045D000190293421ED11D4D2B78082B0BD1636815
:1045E0001B7823B17846184B1B6813B198470923F1
:1045F00096E700DEFBE7092B7FF449AF63681B7881
:1046000023B17846104B1B6813B198470A2387E7FC
:1046100000DEFBE748F21F0293427FF438AF0B4DF8
:104620002A780A2A7FF433AF63681B7823B178466F
:10463000054B1B682BB1984700232B70FEF7C2FF78
:1046400025E700DEF8E700BFB861002064360020EF
:104650004432002040320020483200200B32030058
:1046600000B00040F23103000332030008B50B4BE9
:104670000B490C4800221A7003F083FF20B10A4A4C
:104680004FF4BA7100F098F80848094B0360002312
:104690004360BDE8084006F034BA00BF643600202D
:1046A00048330020653600200B32030040330020E1
:1046B000E540020048DF704710DF704760DF704759
:1046C00061DF70474FF0A0434FF4F012C3F80825A4
:1046D000C3F80C25EFF3108372B60028FDD17047A4
:1046E00013B5144B1B685B04044613D52F211248E5
:1046F0000EF046FCA0B12F210F480EF041FC411CEA
:104700000E4B0F4AD3F80435009201944E2200203C
:1047100007F032FF204602B0BDE81040FFF7D2BFDD
:104720005C2105480EF02CFC08B15C21E4E702494D
:10473000E6E700BF443200205934030000B00040D7
:10474000743403007FB5174B1B685B0405460C46A9
:10475000164618D5144B1B68ABB12F2113480EF029
:104760000FFCB0B12F2111480EF00AFC411C104B78
:10477000104AD3F8043500920396029401957022F2
:10478000012007F0F9FE204604B0BDE87040FFF7B5
:1047900099BF5C2105480EF0F3FB08B15C21E2E70C
:1047A0000249E4E74432002040320020593403003B
:1047B00000B00040393503007FB5174B1B685B0420
:1047C00006460D46144618D5144B1B68ABB12F2175
:1047D00013480EF0D5FBB0B12F2111480EF0D0FBDD
:1047E000411C104B104AD3F80435009203960295F1
:1047F00001944822012007F0BFFE012004B0BDE86B
:104800007040FFF75FBF5C2105480EF0B9FB08B1AF
:104810005C21E2E70249E4E7443200204032002014
:104820005934030000B000403C34030007B5134B7B
:104830001B685B0412D52F2111480EF0A1FB98B123
:104840002F210F480EF09CFB411C0E4B0E4AD3F853
:10485000043500920020542207F08EFE012003B0A0
:104860005DF804EBFFF72EBF5C2105480EF088FBD6
:1048700008B15C21E5E70249E7E700BF44320020C8
:104880005934030000B000402E34030073B501A872
:10489000FFF710FF60B102AD4F2325F8063D094E2A
:1048A0001C4629460748FFF70BFF28B102B070BD30
:1048B000019806F021F9EAE7304606F01BF9ADF859
:1048C0000240EEE7A836002030B5404C236859047A
:1048D00085B017D53E4B1B68032B13D92F213D48BC
:1048E0000EF04EFB002855D02F213A480EF048FB21
:1048F000411C394B394AD3F80435009204207A22FE
:1049000007F03AFE364B0293029B039323685A0446
:1049100019D52F4B1B68032B15D92F212D480EF0CD
:104920002FFB00283FD02F212A480EF029FB411CE5
:10493000294BD3F80435029A01922A4A00920420A6
:10494000832207F019FE03A8FFF7B8FE029B039A23
:104950009A4205461BD023685B0418D51C4B1B6884
:10496000012B14D92F211B480EF00AFB20B32F2155
:1049700018480EF005FB411C174B039AD3F8043579
:104980000192194A009202208C2207F0F5FD284678
:1049900005B030BD5C210F480EF0F2FA08B15C2181
:1049A000A3E70C49A5E75C210A480EF0E9FA08B133
:1049B0005C21B9E70749BBE75C2106480EF0E0FA45
:1049C00008B15C21D4E70349D6E700BF4432002098
:1049D000403200205934030000B00040D4340300BA
:1049E000B0310020F03403000035030007B502ABFE
:1049F000184943F8040D1846FFF75EFE18B1164A31
:104A00009321FFF7D9FE154A92F816335B09012B63
:104A100001D9042B15D1104A942142F20200FFF76C
:104A2000CBFE03E01A6842F480021A60FFF74CFFE5
:104A300018B1094A9721FFF7BFFE002003B05DF8C7
:104A400004FB074B99680029ECD14FF480031360F5
:104A5000ECE700BF454702005934030000E100E0E5
:104A6000AC61002010B54B4C2368590486B017D5B3
:104A7000494B1B68032B13D92F2148480EF080FAAD
:104A800000286CD02F2145480EF07AFA411C444B87
:104A9000444AD3F8043500920420B52207F06CFD97
:104AA00001238DF8083000238DF809308DF80A3085
:104AB00007238DF80B300298FFF798FF23685A04FC
:104AC00017D5354B1B68032B13D92F2133480EF014
:104AD00057FA00284CD02F2130480EF051FA411CD3
:104AE0002F4B314AD3F8043500920420BF2207F03F
:104AF00043FD00230393059301238DF80C30072316
:104B00008DF80F3003A8294B049305F095FE18B1DA
:104B1000224AC421FFF750FE23685B0416D51E4BC2
:104B20001B68032B12D92F211C480EF029FA40B321
:104B30002F211A480EF024FA411C194B1C4AD3F8B5
:104B4000043500920420C62207F016FD05F0CCFEC5
:104B500018B1124AC721FFF72FFE06B010BD5C2125
:104B60000E480EF00DFA08B15C218CE70B498EE778
:104B70005C210A480EF004FA08B15C21ACE7074951
:104B8000AEE75C2105480EF0FBF908B15C21D0E7E7
:104B90000249D2E744320020403200205934030059
:104BA00000B000408D340300A6340300E14602004B
:104BB000BF3403004FF0A043D3F80425012303FAC8
:104BC00000F010420CBF18460020704701234FF040
:104BD000A042834011B1C2F80C357047C2F80835C5
:104BE00070470000F0B54FF47A735943284B294FB2
:104BF0001E6802F0FE0200234FF0A045934200D150
:104C0000F0BDD5F804454440C5F8044500293CD022
:104C10000C4600BF00BF00BF00BF00BF00BF00BF09
:104C200000BFBE422FD000BF00BF00BF00BF00BF0B
:104C300000BF00BF00BF00BF00BF00BF00BF00BF7C
:104C400000BF00BF00BF00BF00BF00BF00BF00BF6C
:104C500000BF00BF00BF00BF00BF00BF00BF00BF5C
:104C600000BF00BF00BF00BF00BF00BF00BF00BF4C
:104C700000BF00BF00BF00BF00BF00BF00BF00BF3C
:104C800000BF00BF00BF013CC3D10133B6E700BF86
:104C90000C3200200024F4004FF0A04303224FF414
:104CA0000031C3F84427C3F808154FF48021C3F836
:104CB0004827C3F808154FF40021C3F84C27C3F860
:104CC0000815C3F850274FF48012C3F80825704721
:104CD000D8B10F4B0F4A18604FF0A0430020C3F823
:104CE0003427C3F83827C3F83C27C3F840270A4BBA
:104CF0004FF00042C3F80423C3F87C01074BC022E5
:104D000083F8062340221A6070470E20704700BFC8
:104D1000F83600200C0003000060004000E100E0D5
:104D2000124B70B50024124E124DC3F87C414FF067
:104D3000A043A15DD3F8102501238B40934311D0EC
:104D40000D492B68D1F80425981A48BFD01A41F6AE
:104D50009A13984206D9D1F804352B60074B2046A8
:104D60001B6898470134042CE1D170BD00600040FD
:104D700056350300FC36002000B00040F836002015
:104D80000620704770B54B680C46154623B9784627
:104D90000D4B1B6863B198470022227295B1012D1B
:104DA00008D1656820462B460221BDE870401847AF
:104DB00000DEF1E77846044B1B6813B1BDE8704094
:104DC000184700DE70BD00BFB861002030B55368E1
:104DD00085B00D46144623B97846124B1B68FBB1CB
:104DE00098470DF10601208801F0A0FCB0B9BDF88C
:104DF00006004FF6FF73984210D002A902F0A2FD00
:104E000060B9BDF80A30EA899A4207D16B6819780F
:104E10006368B1FA81F149092046984705B030BD71
:104E200000DEDEE7B86100207FB5B0B14368A3B112
:104E300001235922ADF80030ADF80220ADF804107E
:104E4000074A0393049000230146684602920593A3
:104E500001F06AFB07B05DF804FB0E20FAE700BF23
:104E60005C35030010B5044688B048B343683BB3D3
:104E7000037A3BBB144A417213788372591C034670
:104E8000117033F8092B03930223ADF81030C123BE
:104E9000ADF808305923ADF80A30ADF816300B4B99
:104EA000ADF804200693C422094BADF8142001A8E4
:104EB000079301F045FE08B90123237208B010BD25
:104EC0000E20FBE70820F9E70037002080C3C90166
:104ED000854D02007FB58DF800101049CDF808D03F
:104EE0000B788DF8013015465A1CC323ADF80430F9
:104EF0005923ADF80630022306460A70ADF80C308F
:104F00000024A54201D1002006E001A9308801F06B
:104F1000E9FB01340028F4D004B070BD0037002054
:104F200038B5094C2068154618B105F0B7F90023CB
:104F30002360012D054C04D1002263681146104600
:104F400098470123A37038BD0C3700200437002098
:104F500070B5144E144C338888B0ADF80430236813
:104F600003934FF6FF73ADF80A30ADF816300F4BD0
:104F7000ADF80800069301A80D4BADF81010ADF880
:104F80001420079301F0DCFD054638B1206805F0D8
:104F900085F900232360284608B070BD0223B37052
:104FA000F9E700BF043700200C37002080C3C90197
:104FB000214F02002DE9F7431E46174B0192150CB5
:104FC0001A6880460F46994622B17846134B1B68F3
:104FD000EBB198474FF6FF74A5420CBF0624082496
:104FE00021460D4805F08CF898B9D9F80030BDF885
:104FF00004209A80214648F21F023046A3F8008020
:105000005F80DD8003B0BDE8F043FFF7A1BF00DEA5
:10501000E0E703B0BDE8F0830C370020B861002062
:105020002DE9F743184D0192160C2A6881468846EF
:105030001F4622B17846154B1B6803B398474FF6BD
:10504000FF74A6420CBF1424162421460E4805F016
:1050500057F8B0B92D682846414620F8029B102227
:105060000DF0AFFEBDF804306B8248F21F022146FE
:105070003846AE8203B0BDE8F043FFF769BF00DEFB
:10508000DDE703B0BDE8F0830C370020B8610020F5
:10509000064B9B781BB90823036001207047022B45
:1050A00001D11123F8E70020704700BF043700202A
:1050B0002DE9F04385B0804604A81E4600230192E6
:1050C00040F8043D0F46150CFFF7E2FF18B10398B6
:1050D00005B0BDE8F083144B1A68994622B17846B2
:1050E000124B1B68EBB198474FF6FF74A5420CBFFB
:1050F0000624082421460C4805F002F803900028F5
:10510000E6D1D9F80030BDF804209A80A3F80080D9
:105110005F80DD8048F23E0221463046FFF718FFEF
:10512000D6E700DEE0E700BF0C370020B8610020C2
:1051300073B5164A0C46098800230620154600FB65
:1051400003F6B65A8E420AD001330C2BF7D17846BB
:105150000F4B1B680BB900DE01E0984700230621C6
:1051600001FB03532289598891420CD89B889342B2
:1051700009D32388ADF8003063680193054B694675
:105180005B680120984702B070BD00BF6435030022
:10519000B86100200437002030B5054687B018B349
:1051A0001822002168460DF017FE0123ADF80030EB
:1051B0004FF6FF73ADF802300C4C0D4B02930C23ED
:1051C0000393A37823B178460A4B1B6853B19847E1
:1051D0000649684601F0A8F910B90123A37065607B
:1051E00007B030BD00DEF3E70E20F9E704370020FA
:1051F000AC350300B8610020F7B5064602A80023CD
:1052000040F8043D0F46FFF743FF10B1019803B08B
:10521000F0BD4FF6FF7399422FD09E422FD0194C0C
:1052200022889A4204D17846174B1B6803B39847EB
:1052300002A94FF6FF7521F8065D208801F076FA85
:1052400001900028E3D13946208801F051FA0190FD
:105250000028DCD13146208801F0CEFA019048B117
:10526000BDF80210A942D1D0208801F041FACDE763
:1052700000DEDDE700F04EFCC8E71020C7E707209E
:10528000C5E700BF04370020B861002007B501461C
:1052900002A8002340F8043DFFF7FAFE38B9064B98
:1052A000188801F081FA019008B900F033FC0198E8
:1052B00003B05DF804FB00BF0437002013B502A85B
:1052C000002340F8043DFFF7E3FE10B1019802B05F
:1052D00010BD0D4C226822B178460C4B1B6883B17F
:1052E00098470121084804F00BFF01900028EED1F7
:1052F000236802221870012148F20800FFF728FEF7
:10530000E5E700DEEDE700BF0C370020B8610020C4
:105310002DE9F341064602A8002340F8043D0D465E
:105320001746FFF7B5FE20B1019C204602B0BDE84C
:10533000F08122B97846194B1B6853B39847184B34
:105340001A68984622B17846144B1B681BB39847DD
:105350001321134804F0D4FE044601900028E4D140
:10536000D8F8000043780670360A66F3030365F345
:1053700007132D09437085701022394603300DF054
:1053800020FD204648F203021321FFF7E1FD044609
:10539000CBE700DED3E700DEDAE700BFB86100202C
:1053A0000C3700202DE9F341044602A8002340F801
:1053B000043DFFF76DFE20B1019D284602B0BDE817
:1053C000F081002C00F0A7802379DFF85481022BB4
:1053D000D8F8003053D12BB17846504B1B68002BC6
:1053E0004BD09847B4F815704D484FF6FF739F4265
:1053F0000CBF19271B27394604F082FE05460028FA
:10540000DBD1D8F8006023883046102220F8023B18
:10541000A1680DF0D6FC237BB374637B03F00F020D
:10542000F37C23F00F03134365F3041365F3471371
:10543000F374E37B3375237C03F00302C3F385032A
:1054400043EA82137375627CB37D62F30203B37522
:10545000A27C62F3C703B375B4F81330A6F8173013
:10546000B4F81530A6F8193048F21902394648F256
:105470001A00FFF76DFD05469FE700DEB2E72BB18E
:105480007846264B1B68002B43D09847B4F815602C
:1054900023484FF6FF739E420CBF0B260D26314664
:1054A00004F02EFE0546002887D1D8F80030228867
:1054B0001A80E2885A80227B1A71627B02F00F0107
:1054C0005A7922F00F020A4360F3041260F3471284
:1054D0005A71E27B9A71227C02F00301C2F38502C9
:1054E00042EA8112DA71617C1A7A61F302021A725D
:1054F000A17C61F3C7021A72B4F81320A3F8092043
:10550000B4F81520A3F80B20314648F21902032005
:10551000AFE700DEBAE70E254FE700BFB861002015
:105520000C37002010B586B0044602A880E80600BB
:1055300006A80193002340F8043DFFF7A9FD10B130
:10554000059806B010BD9DF80830022B07D148F22F
:105550002003019A03992046FFF762FDF1E748F224
:105560001B03019ABDF80A102046FFF723FDE8E768
:1055700082B048F23D03019202B0FFF799BD30B509
:105580000C89022C87B01CD90B884D68042B0CBFEA
:10559000002301230C3101918DF800302B788DF818
:1055A0000830B5F80130ADF80A30033CE3B28DF8AD
:1055B0000C3003B1EB1C0493059153686946104607
:1055C000984707B030BD7FB50B89012B0CD14B68D4
:1055D00002200C318DF8000001911B788DF8083005
:1055E000694653681046984707B05DF804FB7FB5DD
:1055F0000B89012B0CD14B6803200C318DF8000076
:1056000001911B788DF80830694653681046984719
:1056100007B05DF804FB000030B5044687B00D46C6
:10562000FAB1002142600172C160182268460DF093
:10563000D3FB0323ADF800304FF6FF73ADF8023013
:10564000094B0293214604236846ADF804500393A6
:10565000049400F069FF10B9208801F07BF807B0CE
:1056600030BD0E20FBE700BF0C36030038B5837851
:1056700003F003020446032A22D8DFE802F00214F2
:10568000191D9B08174A1848126813440268A36042
:1056900000210AB395685D1B002D1ADAF1B9114695
:1056A000E160046038BD9B0803EB83035B00E9E71E
:1056B0009A0864235343E5E79A0841F27073F9E7C7
:1056C00078460A4B1B6813B198470023DAE700DEDF
:1056D000D8E71146D268DCE70029E1D0CC60E2606F
:1056E00038BD00BF2837002030370020B8610020C7
:1056F00008B5032809D8DFE800F0110204060848BD
:1057000008BD084808BD084808BD7846074B1B6817
:1057100013B19847002008BD00DEFBE7044808BD30
:1057200040420F00809698000046C323B8610020D5
:10573000A08601002DE9F041574D2B78A3B1574BBE
:10574000574E5C6805F018FC241A3078FFF7D0FF3C
:105750003278544B001B002A40D14CF25032904218
:105760003CD91A6801321A60DFF84881D8F8002065
:10577000002A00F087804A4E9378307803F00303C4
:105780008342344664DD474B97681B68FB1A464FDB
:105790005F43FFF7ADFFD8F80030B7FBF0F09F781C
:1057A000C7F30107FBB2022B1FD031D8012B47D121
:1057B0000A22B0FBF2F302FB1300002840D105F0EF
:1057C000DBFB00F5742101F5107137702B78002B8D
:1057D00050D03248BDE8F04105F044BB1A68324968
:1057E000B0FBF1F010441860BEE7337863B964226F
:1057F000B0FBF2F302FB130010BB05F0BDFB2B491D
:10580000022301442370E1E7012B19D10A22EFE7BB
:10581000337863B941F27072B0FBF2F302FB13000C
:1058200070B905F0A9FB224903230144EAE7012BE3
:1058300002D14FF41672EFE7022B01D13C22EBE7C5
:1058400005F09AFB06462078FFF752FF3118BDE7B6
:1058500005F092FBD8F800300446987800F0030079
:10586000FFF746FFD8F800309B78C3F301032118F7
:105870003370ABE7094801232B704160BDE8F0416C
:1058800005F096BA2B7823B10448BDE8F04105F045
:10589000B7BABDE8F08100BF2C37002010370020D8
:1058A0002D37002028370020A08601008096980020
:1058B0000046C323303700202DE9F341284B1B78E5
:1058C000032B2AD8DFE803F0021B1F23254A1368A5
:1058D00001331360244B254E224D00221A70B0462E
:1058E00034683CB1A3682A6893421ED02A689B1A88
:1058F000002B1ADBFFF71EFF02B0BDE8F081194A4A
:1059000013680A33E5E7174A13686433E1E7154A79
:10591000136803F5BB531033DBE77846144B1B6861
:105920000BB19847D6E700DED4E72788E368C8F8CC
:10593000003002A9002341F8043D384600F08EFFF4
:1059400020B178460A4B1B6843B1984738466368D4
:10595000019998472046FFF789FEC1E700DEF5E789
:105960002D370020283700202C370020303700202A
:10597000B861002010B5084C1822002120460DF017
:105980002BFA064B064AA36000231360054A1360F6
:10599000054A137010BD00BF10370020B95802002F
:1059A00028370020303700202C3700204A090123F7
:1059B00001F01F0103FA01F150F82230194214BF1F
:1059C0000120002070474FF6FF72B2EB104F82B0FB
:1059D00083B215D113F47F4007D003F44043B3F5ED
:1059E000004F14BF0020012006E023F07F022AB9F7
:1059F0007F3B18BF0123184602B070470346FAE701
:105A000023F03F03C02BECE705289FBF054B342252
:105A100002FB003090F8300094BF00F0010000203D
:105A2000704700BF7C3700207846034B1B6803B1EA
:105A3000184700DE704700BFB86100200047000033
:105A40004388C3F30B03052B0DD8084A12F8331013
:105A500041F0010102F8331002EBC3034268D24364
:105A60005A60012070470020704700BFB438002002
:105A70004388C3F30B03032B9FBF06225343034A00
:105A800081889ABFD152012000207047343700200E
:105A90002DE9F3414FF470430024DFF84C80ADF85A
:105AA00004300E461746ADF8060025462A4601A9E1
:105AB000404607F059F9054640B1B84718B10134DE
:105AC000F4E700DE0AE04FF0FF3407E0B44205DD02
:105AD0007846044B1B68002BF3D09847204602B051
:105AE000BDE8F081B86100205437002008B5064BAE
:105AF000064801221A7007F001F920B10448BDE8F8
:105B0000084007F003BB08BD783700205437002059
:105B1000C03100202DE9F04105F052FE4A4B1B78C0
:105B2000002B40F08C80494C237883B90622012158
:105B3000474807F04FF9002800F083800422C28014
:105B400006220281828007F081F90123237000255B
:105B5000404EDFF8FC802C46A9B2DCB916F835308F
:105B600003F00303032B4FEAC50710D1042241F4CD
:105B70004051404607F02EF9C0B1F3195B68DB4392
:105B8000436007F063F9BB5D23F00203BB550135A9
:105B9000062DE1D1304D2E4F0026B1B244B12F4831
:105BA00007F0B4FABDE8F04105F02CBE1124EEE791
:105BB0006B799B070FD5022241F48051384607F0DC
:105BC00009F9002837D02A88828007F03FF96B79DD
:105BD00023F002036B710136042E05F10605DCD1BA
:105BE0001F4DDFF86C800026B1B2002CD7D195F89C
:105BF000303003F00303032B15D1142241F400517C
:105C0000404607F0E7F80746B8B1142229460430A9
:105C10000DF0D7F8384607F019F995F8303023F031
:105C2000020385F830300136062E05F13405DBD14C
:105C3000002CB7D0B3E71124CDE71124F3E70824F3
:105C4000A8E71124A6E700BF7837002079370020A5
:105C500054370020B438002034370020D0310020E1
:105C60007C37002008B54FF49C7200210D480DF0E0
:105C7000B3F8182200210C480DF0AEF830220021B4
:105C80000A480DF0A9F8074B4FF6FF7203F59C7117
:105C90000620DA809A80D8819A8134338B42F8D1F9
:105CA00008BD00BF7C37002034370020B438002006
:105CB00010B586B00E4B03930E4B04930E4B059319
:105CC0000423029301F016FD0C4CA0F58050012333
:105CD000009069460A480193237007F0F3F820B159
:105CE000084807F013FA06B010BD2070FBE700BFAC
:105CF0006D5D0200295A0200095D0200783700201C
:105D000054370020B03100201549002311F833200A
:105D1000D00744BF42F0020201F833200133062BC2
:105D2000F4D1104900235A5A22B1C818427942F0DE
:105D3000020242710633182BF5D10B480023C1181B
:105D4000343391F8302012F0010F1CBF42F00202F0
:105D500081F83020B3F59C7FF1D1FFF7A9BF00BFD8
:105D6000B4380020343700207C37002030B5012AB9
:105D70008DB004460D4606D17846104B1B68D3B152
:105D800098470DB030BD022AF6D0032AF9D12C2253
:105D9000002101A80DF020F819238DF8043002230A
:105DA0008DF80830E368059301A8236903950693ED
:105DB00004F02CF9E5E700DEE3E700BFB86100205E
:105DC0004A0901F01F034FF0FF31994050F822308B
:105DD000194009D04B420B4004495943C90E044BAA
:105DE000585C00EB421070470520704731B57C07C6
:105DF0005B36030070B54588C5F30B05052D0446D9
:105E000039D8038A032B36D81C4E428A342303FB2D
:105E10000563DB89052B07D89A422CD1184B13F860
:105E2000323013F0010027D0052A9CBF144911F825
:105E300032304FF034009CBF43F0040301F832309D
:105E400000FB0560211D14220CF0BBFFE188238AB2
:105E50004FF6FF7291420B4A4FF0060101FB0323FC
:105E60004FF001000BBF9A78DA78013201320CBF93
:105E70009A70DA7070BD002070BD00BF7C370020C2
:105E8000B4380020343700202DE9F743037D012B7F
:105E900004463CD101A801F0C7FCE38ABDF80460C8
:105EA000B34222D3BDF80620324493421DDA9B1B35
:105EB000484D9EB24FF0000895F82830DA070DD50E
:105EC000AB88B3420AD1618C2846FFF76FFD28B139
:105ED00027886088298C00238B4209D308F10108A8
:105EE000B8F1060F05F13405E6D103B0BDE8F08343
:105EF000EA694FEAC30902EB090E32F83320BA42CD
:105F000003D1BEF8022082424ED00133E4E74FF6BF
:105F1000FF7301A91430ADF8043001F073FD20B116
:105F200078462D4B1B687BB39847BDF8040001F001
:105F3000EFFC20B97846284B1B683BB39847254DAA
:105F4000DFF89880002695F82830DB0716D5EF8813
:105F5000052F13D8618C2846FFF728FD70B108EB98
:105F6000C700BDF804100430FFF720FD30B1B4F8CD
:105F700000E06788288C0023834209D30136062E6F
:105F800005F13405DFD1B0E700DECEE700DED6E76D
:105F9000E96901EBC30231F83310714502D1518830
:105FA000B94210D00133E7E71FFA88F76A6A214641
:105FB000384600F073FDEB696A6A4B4421465B6822
:105FC000384698478AE753686A6A2146B0B29847CC
:105FD000D4E700BF84370020B8610020B438002027
:105FE00070B503788CB00646002B75D143681C78D9
:105FF00004F0C002402A0ED003D862B100252C461E
:106000000EE0802A6AD0C02AF8D15A789D78A4B2CE
:1060100045EA022504E0A4B27F2C5DD04FF6FF755F
:10602000374B1B689B0419D5364B1B68042B15D9BD
:106030002F2135480CF0A4FF002853D02F213248DF
:106040000CF09EFF411C314B314AD3F804350092CD
:10605000019440F22312052006F08EFA306A01F016
:106060001DFD4FF6FF729542ADF80C40ADF80E5095
:10607000736840D1FF2C8CBF0222012213444FF6DB
:10608000FF7295420493338937D1FF2C8CBF0222D3
:1060900001229B1AADF81430337B8DF81830F38948
:1060A000ADF81A3033690793337D8DF82030F38AC9
:1060B000ADF82230B3690993B36A5A680A9293F92A
:1060C0000D308DF82C30ADF82E0096F824308DF878
:1060D0002D3003A8FFF7D8FE0CB070BD5B7843EA03
:1060E00004249BE75C2108480CF04AFF08B15C21BE
:1060F000A5E70549A7E70322C0E70322C9E700BFD8
:1061000044320020403200202C36030000B0004012
:10611000483603002DE9F04F93B00B89B3F5BE7FED
:1061200002AF83460C46904680F08480FFF76CFCFB
:10613000002800F081809F4A342303FB0B23914603
:106140009989032978D8B8F1000F07D199884FF6BB
:10615000FF72914207D0DB88934204D02068FFF79A
:1061600032FC00286CD1072539E0D888B3F804A0A8
:10617000F881314601F0E6FB002800F08580784682
:106180008D4B1B680BB198477EE000DE7CE07B8A7C
:106190000B449A4280F28D802422002140460CF06C
:1061A0001BFE2368FB6163683B6296E8030023895A
:1061B000BB84012387F8283007F1300383E803000C
:1061C0007D8504F0D9FEB863404687F83D90A7F876
:1061D0003EA0FFF759FE3B7D012B6AD100252846E2
:1061E0004437BD46BDE8F08FF8894FF6FF739842FB
:1061F0005FD001F08DFB0028CED15AE003226AE087
:1062000000DE7DE0032590E011F47F4F1DBF0D0AF5
:106210008BF800508BF801108BF8001093E00320EE
:106220009BE05C2165480CF0ABFE08B15C21AEE060
:106230006249B0E00925D2E70525D0E71025CEE771
:1062400007F1100001F0F0FA342303FB0B937A8A74
:106250009D89AA42F2D93A8A1544ADB207F11406D3
:10626000B8F1000F81D0B8F822A008F10C0898E826
:10627000030086E8030007F10E01404601F0C2FB6F
:1062800010B14FF6FF73FB81342303FB0B9907F129
:106290001C0899F81090B9F1FF0F04BF484B93F810
:1062A00000903B7D012B9FD1FA8A398A8A42BFF444
:1062B0006EAF202200214046C7F804D00CF08CFDC0
:1062C000618823884FF6FF72914297D1B3F5807FA2
:1062D00034BF0122022223891344073323F007032A
:1062E000ADEB030D07F1300150460DF1080B01F045
:1062F000FFFC28B17846304A1268002A80D09047C7
:1063000096E8030088E803006088BD844FF6FF75B7
:10631000A84287F82690C7F828B0228921887FF400
:1063200071AFFF298CBF022501251544BD854FF6AD
:10633000FF75A8423FF468AF050A8BF800108BF890
:1063400001508BF802004FF6FF75A8427FF467AF4B
:10635000B1F5807F34BF01200220616858440CF001
:1063600030FD0021404604F0E3FA0546F8B9154B2C
:106370001B689B041BD5144B1B68042B17D92F21BA
:106380000E480CF0FDFD00283FF44BAF2F210B48C9
:106390000CF0F6FD411C0D4B2288D3F80435019218
:1063A0000B4A0092052040F2C51206F0E5F8D7F836
:1063B00004D014E77C370020B86100202C3603009D
:1063C000E0310020443200204032002000B0004084
:1063D0007B3603002DE9F04706F0BAFE044690B183
:1063E0003E4E3F4800250121357006F099FC0028FB
:1063F00071D0C388042B08D000243470FFF776FBDB
:106400002046BDE8F08720BFE6E70389062BF3D1DD
:1064100081880629F0D10123324A33704FF440506D
:10642000FFF736FB0028E7DB2F4B2A4603F1180065
:1064300059799A7021F00201DA701A805971063385
:106440009842F5D1294A04214FF48050FFF720FBF0
:106450000028D1DB264A06214FF40050FFF718FB35
:106460000028C9DD234DDFF890A0DFF8908005F506
:106470009C79AA894FF6FF739A4203D13435A94516
:10648000F7D1BDE7E888984207D001F0E9F920B1DB
:106490007846D8F80030D3B19847EF89062FEDD071
:1064A0000AEBC707043700213846FFF789FC0528A7
:1064B0000646E3D0B0B201F00FFA20B17846D8F822
:1064C000003033B19847711C0429EDD9D6E700DEBE
:1064D000E3E700DEF7E7044692E700BF79370020E4
:1064E00054370020415A020034370020715A02000C
:1064F000F55D02007C370020B4380020B861002030
:1065000008B5FFF7AFFB0648064B036004F0F9FA45
:1065100000F006FBFFF72EFABDE80840FFF7C8BB06
:106520004C370020E15F02002DE9F04104460028CD
:1065300000F0C3808368002B00F0BF80002900F0CA
:10654000BC804FF6FF730B80C368002B00F0B8804F
:106550008588032D00F2B7805F4E062303FB056399
:106560009878DB78D84276D1D4F80880E76800259F
:10657000AF4240F0968008884FF6FF739842574B21
:1065800044D10022342505FB023797F83070FF070D
:1065900000F18E8090B24FF6FF77B842088000F08D
:1065A0009880342505FB0030C7800A8805FB02323D
:1065B00097800A88A08805FB023290810A8820888B
:1065C0006A4398520A88608805FB023250800A8824
:1065D00005FB0235424A12782A746088A288B842C4
:1065E0004FF0060000FB02620BBF9078D0780130BC
:1065F00001300CBF9070D0700A88342000FB02324A
:1066000092F8300040F0020082F8300008882569D6
:10661000342202FB0030C5620888A56802FB003006
:1066200045620888E56802FB0030058508886469D2
:1066300002FB00308461088802FB0034A0820988D4
:1066400002FB0133002093F8302042F0010283F86E
:106650003020BDE8F08121482788628800238646E3
:10666000B0F80C80A8451FFA83FC14D1B0F8008064
:10667000B84510D1B0F8028090450CD1342202FB0D
:1066800003E3A1F800C093F83030DB077FF56CAF6F
:106690000F20BDE8F0810133062B00F13400DFD17B
:1066A00062E758F83500FFF78EF978B101355FE7FA
:1066B0000132062A7FF467AF6DE70E20BDE8F08156
:1066C0000920BDE8F0810520BDE8F0810720BDE884
:1066D000F0810420BDE8F081343700207C370020B1
:1066E000E031002011B10022FFF714BD0E207047E9
:1066F00010B50446FFF788F988B1042911D80A4873
:10670000342303FB0400C3888B4206D090F830305A
:10671000C18043F0020380F83030002010BD052016
:1067200010BD072010BD00BF7C37002010B5044607
:1067300051B1FFF769F948B1054B342202FB04342B
:106740000020E3880B8010BD0E2010BD052010BD79
:106750007C37002038B50446FFF756F9D8B1104908
:10676000342303FB0413DB89062B16D10D4D0023C4
:1067700015F8332012F0010008D142F0010205F8AB
:106780003320342202FB0411CB8138BD0133062BA8
:10679000EED1042038BD052038BD002038BD00BF33
:1067A0007C370020B4380020F8B506460F46FFF7C6
:1067B0002BF9C0B1032918D834250E4C754305F1C7
:1067C0000806A019FFF7F2F888B9012303FA07F1C8
:1067D000A3590B43A3512C4494F8303043F00203E7
:1067E00084F83030F8BD0520F8BD0720F8BD002042
:1067F000F8BD00BF7C37002010B50446FFF704F950
:1068000088B1032911D80A48342303FB0400838884
:106810008B4206D090F83030818043F0020380F83C
:106820003030002010BD052010BD072010BD00BF76
:106830007C37002010B5044651B1FFF7E5F848B1A8
:10684000054B342202FB04340020237C0B7010BD66
:106850000E2010BD052010BD7C37002010B5044669
:1068600051B1FFF7D1F848B1054B342202FB043493
:106870000020E36A0B6010BD0E2010BD052010BD86
:106880007C370020F8B5304C282303FB0043054635
:1068900093F83C302BB978462C4B1B68002B46D024
:1068A0009847B4F808312BB97846284B1B68002B61
:1068B0003FD09847B4F80821282101FB0541013A4F
:1068C000002392B281F83C30A4F80821002A34D089
:1068D000B4F80A21AA4235D1496B1D4A1A480A4424
:1068E0004FF6FF7190F83C509EB22DB1456BAF1A38
:1068F000002FBCBF31462A460133062B00F1280089
:10690000F0D14FF6FF739942A4F80A1104D17846EA
:106910000E4B1B687BB19847B4F80A310A4828220D
:1069200002FB0344616BBDE8F84004F09BBA00DE53
:10693000B7E700DEBEE700DEEEE70348BDE8F8405B
:1069400004F05EBAF8BD00BFE4380020B861002052
:10695000008793032DE9F74F4D4BB3F80821064606
:106960009B4622B978464B4B1B689BB398474FF622
:10697000FF77494CDFF81C91ABF80A7106F57A787D
:1069800000254FF0280A94F82030EBB12369A3EBDF
:106990000803002B22DA002384F82030BBF80831EA
:1069A000013BABF8083101A934F8040CFFF756FF9E
:1069B00020B17846D9F8003073B1984763690199DE
:1069C00034F8040C012298470135062D04F12804FF
:1069D000D9D127E000DECAE700DEEFE7A369A3EB29
:1069E0000802002A41DA214634F8040CFFF77AFE47
:1069F000ABF80A5160B9E369A2691A445B00A2616D
:106A0000E3612269A369D31A002BDDDAA261DBE717
:106A1000042822D1282303FB05B56B6B03F51C4327
:106A200040336B63BBF80831002B2DD0BBF80A3123
:106A3000052B04D97846174B1B681BB39847BBF846
:106A40000A31282202FB03B35B6B9A1B48BFF21A80
:106A5000CBF80C2003B0BDE8F08F7846D9F80030B1
:106A60000BB19847CDE700DECBE7BBF80A21BA426D
:106A700005D00AFB02B2526B9B1A002BA4DAABF8CA
:106A80000A51A1E700DEDAE7CBF80C30E2E700BFFD
:106A9000E4380020B86100200039002005282DE9E5
:106AA000F84305468846174604D978461A4B1B68B2
:106AB00033B3984704F084FE184B00241E4693F825
:106AC0003C10621CF1B1198BA9421BD14FF028096F
:106AD00009FB02F2B318B15AB8F80020914216D15E
:106AE0005A88B8F802309A4211D1A0B209FB046466
:106AF000FFF7C8FE236B002239462846984706E078
:106B000000DED7E7062A144603F12803D7D1BDE8F3
:106B1000F84304F077BE00BFB8610020E4380020DD
:106B200010B5054C4FF48672002120460CF054F944
:106B3000024BA36010BD00BFE4380020556902007D
:106B40002DE9F7430646002800F0C3808369002B37
:106B500000F0BF800388052B00F2BD804269614BC5
:106B60001344614A934200F2B880604C04F028FE5E
:106B7000B4F80831062B00F2A2804FF6FF752246CA
:106B800004270023284692F83C10002940F08F800B
:106B9000854201D19DB20F460133062B02F1280236
:106BA000F1D104F02FFE002F7DD1311D3088FFF789
:106BB00099FD30F0040340F09280282303FB054345
:106BC00093F83C302BB17846494B1B68002B7AD0A8
:106BD000984704F0D1F98046282000FB0540314653
:106BE0001C2218300CF0EDF80DF107013088FFF78A
:106BF00021FE28B178463E4B1B68002B65D0984794
:106C0000F188B3884FF6FF72914260D1FF2B8CBFA1
:106C100002230123B28913449DF8072044F6206122
:106C20009BB24A430B2B02F5433288BF0B3302F56C
:106C3000A0724FF0280682BF0C2093FBF0F301FBFB
:106C4000032205FB0663234406FB05495968C9F87E
:106C50003820414442445960C9F8342004F0B0FD62
:106C6000B4F808314BB1B4F80A31D9F8342006FB36
:106C70000346736B9B1A002B08DB282303FB054399
:106C80001A48596B04F0EEF8A4F80A51282303FBC4
:106C90000545012385F83C30B4F808310133A4F8E8
:106CA000083104F0AFFD384603B0BDE8F083B2F818
:106CB00018E031888E457FF46FAF082771E74FF6F3
:106CC000FF7504276DE700DE83E700DE98E7032306
:106CD000A0E70E27E7E70527E5E70727E3E70746ED
:106CE000E1E700BF803C36FE80C3C901E4380020E4
:106CF000B86100204A09012301F01F0103FA01F1E4
:106D000050F82230194214BF0120002070474A0970
:106D1000012301F01F0103FA01F150F822300B4367
:106D200040F8223070474A09012301F01F0103FA9D
:106D300001F150F8223023EA010340F82230704775
:106D4000F0B501F11F046409651E00230126A3426A
:106D500001D10120F0BDAB4204BFA1EB431206FA02
:106D600002F250F823700CBF02F1FF324FF0FF32F5
:106D70003A4201D10133EAE70020F0BD042803D1F3
:106D800000210248FFF7B6BF00207047003A0020FC
:106D900038B54FF6FF7305460C460B8008480021B6
:106DA000FFF7A8FF38B1074B1B88AB424FF0000339
:106DB00003D1238038BD208038BD184638BD00BFC0
:106DC000C03A0020C83A00202DE9F0474FF6FF7383
:106DD000DFF84480DFF844900B8007460D4600241E
:106DE0001E464FF0160A21464046FFF783FF631CFC
:106DF00040B10AFB04F434F80920BA4206D12B80D2
:106E0000BDE8F0872A88B24208BF2B80032B1C46BE
:106E1000E9D10020BDE8F087383A0020403A002050
:106E200038B54FF6FF7305460C460B800848002125
:106E3000FFF760FF38B1074B1B88AB424FF00003F0
:106E400003D1238038BD208038BD184638BD00BF2F
:106E5000183A0020203A0020024B33F820300B80F3
:106E6000704700BF083A002010B5044620B97846A4
:106E7000044B1B6823B198472346BDE810401847D0
:106E800000DEF9E7B86100202DE9F0415D1E16240F
:106E90000D4E6C430746A01D884630441146102213
:106EA0000BF08FFF331900225A7101222946A3F8F3
:106EB000028006481A713753FFF729FF2946044814
:106EC000BDE8F041FFF723BF403A0020383A0020E8
:106ED0003C3A002010B40C46431C0A1D2088498807
:106EE0005DF8044B9BB2FFF7CFBF000070B51624CE
:106EF0004443074E0D46A11D10223144281D0BF0BE
:106F000060FF325B2A8033195B886B8070BD00BFE5
:106F1000403A002070B516244443074E0D46A11D8B
:106F200010223144281D0BF04CFF325B2A803319AC
:106F30005B886B8070BD00BF203A002070B55C2478
:106F40004443054E0D46A11C10223144A81C0BF0F1
:106F500038FF335B2B8070BDC83A0020044A0B46D3
:106F6000142101FB00210431102218460BF029BF27
:106F7000243B0020042201480BF023BFBA3A002032
:106F80000846042201490BF01CBF00BFBA3A00209A
:106F90002DE9F84316255D43144C91468046A81D03
:106FA0000F461022494620441E460BF00AFF691D79
:106FB0002144484605F046FA20B178460C4B1B6840
:106FC00093B1984716237343E2180021117157803B
:106FD0003146084824F80380FFF799FE31460648F9
:106FE000BDE8F843FFF793BE00DEEBE7203A002050
:106FF000B8610020183A00201C3A002010B40C465A
:1070000083B20A1D208849885DF8044BFFF7C0BF92
:107010002DE9F0411E4D5C245443164604F134031F
:107020002A192B4488461364074610B9194B0122CC
:107030001A7004F112012944404605F00CFA20B1FF
:107040007846154B1B68FBB1984704F1440129446D
:10705000404605F011FA20B178460F4B1B68ABB1E2
:107060009847A01C4146102228440BF0AAFE5C233E
:10707000734331460948EF52FFF749FE314608484D
:10708000BDE8F041FFF743BE00DEDEE700DEE8E7E3
:10709000C83A0020B83A0020B8610020C03A002069
:1070A000C43A00200B4682B202311888FFF7B0BF05
:1070B000F8B50D1F14246C430E4F0646201D3146B3
:1070C000102238440BF07DFE3919304605F0FCF9EA
:1070D00020B17846084B1B6853B1984729460748AA
:1070E000FFF715FE29460648BDE8F840FFF70FBE3A
:1070F00000DEF3E7243B0020B8610020003A0020C6
:10710000043A00200B46011D89B21846FFF7D0BF94
:107110002DE9F84304460F4604F052FB052C04D930
:107120007846174B1B68FBB19847164B164D1E78D7
:107130006401DEB105EB04091448B9F81210D9F85E
:107140001420394489B205F045FE804670B1011D16
:10715000D9F8183038469847404605F077FE04F0D5
:1071600051FB3046BDE8F88300DEDEE72C443946AB
:10717000A068FFF7CCFD064805F0C8FF0026EEE743
:10718000B8610020823A002090360300843A002043
:10719000A83A0020F8B504460F4604F011FB052C70
:1071A00004D97846104B1B6893B198470F4B104D8C
:1071B0001E78640176B92C443946A068FFF7A7FD14
:1071C0000C4805F0A3FF002604F01CFB3046F8BD78
:1071D00000DEEBE72B190848598A394489B205F0DB
:1071E0003FFE0028F0D0E6E7B8610020823A002098
:1071F00090360300A83A0020843A00202DE9F84395
:10720000184D0026AF68D5F80080384641465FFA31
:1072100086F9FFF795FD10B90446444503D1052EC4
:107220001AD1BDE8F88321463846FFF763FD68B1FF
:1072300021466868FFF75EFD214648B14846FFF7E2
:1072400067FF60B121463846FFF76DFD0134E4E782
:107250004846FFF79FFFF4E701362035D2E7BDE847
:10726000F88300BF9036030008B5064B064800229D
:107270001A7005F043FD20B10448BDE8084005F050
:1072800045BF08BD823A0020843A0020E431002046
:107290004FF6FF7370B50B8006460D460948002176
:1072A000FFF728FD044610B92880204670BD102243
:1072B000314605480BF076FD08B92880F5E7002433
:1072C000F3E700BF003A0020283B002008B548B98A
:1072D0007846084B1B681BB198474FF6FF7008BDF6
:1072E00000DEFAE7044BC01A18BF4FF0FF3080B23F
:1072F00008BD00BFB8610020DA3A002008B548B9DF
:1073000078460E4B1B681BB198474FF6FF7008BDBF
:1073100000DEFAE70A4B98420DD00A4B9842F4D3AC
:1073200003F12C029042F0D8C01A1623B0FBF3F000
:10733000013080B208BD002008BD00BFB861002048
:10734000243A0020443A002010B501298CB00446AC
:1073500006D17846104B1B68DBB198470CB010BDC6
:107360000229F6D00329F9D12C22002101A80BF023
:1073700033FD19238DF8043002238DF80830074BB4
:107380000394DA681B69059201A8069302F03EFE99
:10739000E4E700DEE2E700BFB8610020843A0020A5
:1073A00011460020FFF7D0BF08461146FFF7CCBFBB
:1073B0002DE9F74F80460F46914603F033FA022835
:1073C00006463ED100214648FFF794FC00285FD0D6
:1073D000444B1B8843454FF6FF7414BF0020002424
:1073E000B9F1000F52D0B9F1010F03D106F0FD063B
:1073F000012E4BD1002856D14FF6FF739C4250D03E
:10740000394B23F8248003EB84032146D87098700D
:107410003648FFF77CFC21463548FFF778FC2146CB
:107420000120FFF775FE3C80B9F1000F3CD12E4BD7
:1074300003EB8404E3780133E370002003B0BDE87C
:10744000F08F00F0FD03012B4FF6FF7422D1DFF81F
:1074500098B0264B0025A24654450CD11846294623
:107460000193FFF747FC019B28B9ACB20135042D0D
:10747000F2D1002005E03BF825204245F6D1ACB220
:107480000120B9F1000FB5D1032E05D01020D5E7AA
:107490000446A5E70020A3E700BB4FF6FF739C421C
:1074A00009D10420CAE73C800F4B03EB8404A37886
:1074B0000133A370C1E70C4B23F8248003EB840352
:1074C0002146D87098700948FFF721FC21460848EA
:1074D000FFF71DFC21460120FFF71AFE3C80A6E7BE
:1074E000003A0020243B0020083A0020F039002018
:1074F000F4390020032810B5044608D80146064890
:10750000FFF7F8FB18B1012000F0010010BD204684
:10751000FFF734FCF8E700BFF039002003280146EC
:1075200002D80248FFF7E6BB00207047F039002080
:10753000F8B50446FFF7F2FF064690B1164E06EB8B
:107540008403987858B9DD7815BB21461348FFF7B6
:10755000EAFB26F8245021460120FFF71BFE0020FD
:10756000F8BD2046FFF70AFC98B1043C0C4F1425E7
:1075700065437B19987850B9DE784EB921460948A1
:10758000FFF7D1FB7E5321460220FFF703FE304672
:10759000F8BD0520F8BD00BF083A0020F0390020F2
:1075A000243B0020003A002010B50A4B0A8884B220
:1075B000214623F8242003EB840300220648DA70D6
:1075C0009A70FFF7A4FB21460448BDE81040FFF77E
:1075D0009EBB00BF083A0020F0390020F43900209B
:1075E0002DE9F04705F0B4FD00283CD03B4B1B785B
:1075F000002B3CD001213A4805F092FB05460028BB
:1076000035D04389042B30D18389012B2DD1C388F8
:10761000012B2AD10389032B27D18388012B24D165
:107620002F4FDFF8CC802F4E4FF000094A46002143
:10763000384605F099FB8146002849D08542F5D0AF
:10764000438803EA0804B4F5005F3DD012D874B350
:10765000B4F5805F36D07846234B1B68002B35D0BD
:107660009847002312E020BFBCE7FFF7FDFD002094
:10767000BDE8F087B4F5804F07D0B4F5A04F1FD018
:10768000B4F5405FE7D1032300E0042306EB431485
:10769000B9F802A0638AAAEB030A09F10401504673
:1076A000E369984751466068FFF731FBBEE7022B5C
:1076B00004D078460C4B1B6843B198472346E5E756
:1076C0000523E3E70123E1E70223DFE700DEDDE74F
:1076D000064B186800F00100BDE8F087823A0020F0
:1076E000843A002090360300B8610020F839002069
:1076F00000F0FFFF08B502F0D5FEA0F5805008BDF0
:1077000070B586B01B4B03931B4B04931B4B059327
:1077100000230293FFF7EEFF194E0090012401941D
:1077200004F04EF86946304605F0CCFB40B1002429
:1077300004F068F8CCB1134B01221A7006B070BD8A
:107740003578012DF4D10A222946304605F042FB56
:107750000028ECD004224281032285818580C580E7
:10776000028105F073FB2C46E2E7074805F0CEFCEA
:10777000E4E700BFA9730200A1730200B177020021
:10778000843A0020823A0020F4310020044B054A5C
:107790009A60054ADA60054B00221A70FFF7B0BF05
:1077A000A83A0020696E0200FD710200823A0020B2
:1077B000FFF7A6BF70B5054620B97846174B1B6882
:1077C00063B19847164E346814F0010424D1288818
:1077D0006B880344984203DB0B2070BD00DEF1E7A9
:1077E00003F020F80128F7D128886B881844013865
:1077F00080B203F017F80128EED104222946094887
:107800000BF0DFFA336843F0010333602146204672
:10781000FFF77EFC204670BD0F2070BDB8610020D0
:10782000F8390020BA3A002010B5044620B978464D
:10783000064B1B683BB19847204604220449BDE82B
:1078400010400BF0BEBA00DEF6E700BFB8610020C2
:10785000BA3A002011B10122FFF7AABD0E207047ED
:1078600010B50446FFF746FE78B1032C89BF084BDC
:10787000084B043C14228CBF02FB043403EB840449
:107880000020A3780133A37010BD052010BD00BFF8
:10789000243B0020083A002010B50446FFF73EFEC6
:1078A00050B10B4B03EB84039A78013A9A7020464F
:1078B000BDE81040FFF73CBE2046FFF75FFA28B155
:1078C000044A231F142101FB0323EDE7052010BD0B
:1078D000083A0020243B002010B50446FFF70AFEBA
:1078E00078B1032C89BF084B084B043C14228CBF91
:1078F00002FB043403EB84040020E3780133E370DB
:1079000010BD052010BD00BF243B0020083A002018
:1079100010B50446FFF7EEFD70B1032C89BF074B8D
:10792000074B043C14228CBF02FB043403EB840499
:10793000E078003018BF012010BD00BF243B0020BC
:10794000083A002070B506460D4601B3FFF7E6FD84
:10795000044658B1104B33F826206A8033F82600CD
:1079600002F060FF28700020686070BD3046FFF7AD
:1079700005FA70B1043E1420084B70431A5A6A800D
:1079800004301844022368602B70204670BD0E201E
:1079900070BD052070BD00BF083A0020243B0020C8
:1079A0002DE9F0410E46074620B319B30025DFF854
:1079B00050802C4629464046FFF79CF940B1336879
:1079C000A34202D10920BDE8F08127F81450013408
:1079D0000135042DEED100210848FFF78BF928B1BD
:1079E00033689C42EED027F81450013434600020F4
:1079F000BDE8F0810E20BDE8F08100BF003A002014
:107A0000F03900202DE9F7430D46044600283CD00C
:107A100000293AD0408802F005FF022824D003282C
:107A200001D0012833D14FF6FF73DFF86880DFF80B
:107A3000689067882B8000241E4621464046FFF749
:107A400059F940B139F82430BB4208D12C800020CC
:107A500003B0BDE8F0832B88B34208BF2C8001340B
:107A6000042CEAD10520F3E760684FF6FF73ADF808
:107A7000063050B10DF10601FFF70AFC0028F1D0E5
:107A8000BDF8063004332B80E1E70E20E0E710203C
:107A9000DEE700BFF0390020083A002008B1FFF708
:107AA0002DBC4FF6FF707047F7B5064615460F46DA
:107AB000F1B1EAB1B0F5805F1CD20DF10601FFF71C
:107AC00067F90446C0B9BDF806204FF6FF739A4225
:107AD00014D039463046FFF79BFABDF80610032054
:107AE000FFF716FBBDF806302B80204603B0F0BD33
:107AF0000E20FBE70720F9E70F20F7E70420F5E762
:107B0000F8B50C46064688B181B100250F680948D2
:107B10000D602946FFF7EEF858B14FB1064B1B88B0
:107B200033802368013323602846F8BD0E20F8BD5A
:107B30000920F8BDC03A0020C83A0020F7B5064633
:107B40000C461D46174642B33BB302F06BFE0128BC
:107B500025D134BB21461648FFF7CCF808B30DF108
:107B600006013046FFF730F90446E0B9BDF80630AB
:107B70004FF6FF72934218D001463A463046FFF75F
:107B800083F9BDF8061005200139FFF7C1FABDF8E9
:107B900006302B80204603B0F0BD0E20FBE71020FE
:107BA000F9E70520F7E70F20F5E70420F3E700BF2A
:107BB000C03A0020013838B584B2022C13D82146CF
:107BC0000A48FFF797F870B116236343084A07483D
:107BD0000025D5522146FFF7A6F821460520FFF7DC
:107BE000D9FA284638BD052038BD00BF383A0020F4
:107BF000403A002037B505460C4689B102F012FE26
:107C000001280FD10DF106012846FFF7DDF828B154
:107C1000BDF806302380002003B030BD0520FBE70F
:107C20000E20F9E71020F7E7F7B505461E46174680
:107C30002AB323B329BB1748FFF75CF808B3B5F59F
:107C4000805F20D20DF106012846FFF7E9F80446CF
:107C5000D8B9BDF806304FF6FF72934217D00146EF
:107C60003A462846FFF794F9BDF806100420FFF7BE
:107C70004FFABDF806303380204603B0F0BD0E2029
:107C8000FBE70520F9E70720F7E70F20F5E70420D9
:107C9000F3E700BFC03A0020F8B5044615460E468B
:107CA000B9B1B2B1B8B901460E48FFF723F890B1A7
:107CB0002F680D482C602146FFF71CF880B10B4B54
:107CC000588850B95FB11B8833802B6801332B6013
:107CD000F8BD0E20F8BD0520F8BD2046F8BD0920EE
:107CE000F8BD00BFC03A0020183A0020203A00201A
:107CF000032870B50E465DD8002959D0002826D13A
:107D000001462D48FEF7F6FF002853D02B4C638820
:107D100023B178462A4B1B68ABB198476188294844
:107D2000FEF7E8FF20B97846254B1B686BB19847F2
:107D3000254B7360254A63885C2101FB03231233C2
:107D40003360002070BD00DEE8E700DEF0E7441E8F
:107D500021461F48FEF7CEFF00282BD01D4D1623CD
:107D600003FB04535B8823B17846154B1B68DBB1DA
:107D70009847162303FB045312485988FEF7BAFFAD
:107D800020B978460E4B1B6883B1984716204443B0
:107D90002B190E4A5B885C2101FB03230434123348
:107DA0002C4433607460CCE700DEE2E700DEEDE7F0
:107DB0000E2070BD052070BD183A0020203A00202A
:107DC000B8610020C03A0020243A0020C83A0020C0
:107DD000383A0020403A002070B504460D4621B9DB
:107DE00078460E4B1B6843B19847296839B108465D
:107DF000FFF76CFA00232B6070BD00DEF5E7084E3C
:107E00000848B37C5C4004F07F04FEF773FF002851
:107E1000F0D0002CEED112362E6070BDB86100207B
:107E2000C83A0020C03A00202DE9F04105460C4632
:107E3000164622B978461A4B1B6893B1984725B964
:107E40007846174B1B6873B198472846FFF73EFAF0
:107E50004FF6FF739842074607D100233360BDE811
:107E6000F08100DEEBE700DEEFE7316819B108468C
:107E7000FFF744FAF1E70B4D0B486B79B5F8028038
:107E80005C4004F03F04FEF735FF0028E5D047458D
:107E9000E3D1002CE1D104353560BDE8F08100BFAD
:107EA000B8610020203A0020183A002038B5044676
:107EB0000D4621B978460F4B1B6893B1984774B1B2
:107EC0000D4B1A88A2420ED0DA8AA2420DD09A8DAA
:107ED000A2420CD10224162202FB043404342C608A
:107EE00038BD00DEEBE70024F5E70124F3E70024CA
:107EF000F5E700BFB8610020403A002070B50646A3
:107F00000D4621B97846144B1B682BB19847296858
:107F100089B100232B6070BD00DEF8E708220F490D
:107F200030460AF03FFF0028F3D10CE01C88B4FA79
:107F300084F464090CE00A48FEF7DCFE04460028DD
:107F4000E7D0002EEAD1074B1A78074B002AEDD173
:107F500083F83C40054BDDE7B86100201C3B002066
:107F6000C03A0020B83A0020C83A0020043B002064
:107F70002DE9F34705460C4602F054FC022839D09F
:107F8000032812D001280ED1324B1B6813F00103D5
:107F900009D0314B1A88954205D35B8813449D4222
:107FA0004FF0000352DB002046E04FF6FF77DFF88A
:107FB000B480DFF8B4A00026B9464F4509D1314658
:107FC0005046FEF797FE20B9B7B20136042EF4D121
:107FD000E9E738F82620AA424FEA8603F5D1434460
:107FE000DB78002BF1D003232370002365806360CE
:107FF000012021E0606810BB4FF6FF73ADF806303A
:10800000BDF80610154EB1FA81F14FF6FF7349091C
:10801000ADF8063037880029C5D11148FEF76AFE51
:108020000028C0D0BD42BED1F378002BBBD00223C4
:10803000043665802370666002B0BDE8F0870DF1FC
:108040000601FFF725F90028D6D0D9E76580207012
:108050006360F1E7F8390020BA3A0020243B0020A1
:10806000003A0020083A0020F03900201FB500F245
:108070007D21044600F24D236A4600F075FC6946F6
:10808000204600F03EFB10B9102384F8B33204B050
:1080900010BD00B590F8B3328DB05BB1002380F80D
:1080A000B3320290052301A88DF804308DF80C102E
:1080B00001F0ACFF0DB05DF804FB70B590F8B35261
:1080C000022D8CB0044610D1042602900DEB060060
:1080D0008DF8046001F09AFF04F29D2200212046F1
:1080E00000F0D8FA18B984F8B3620CB070BD294614
:1080F000204600F0CBFAF8E710B590F8B332072B22
:108100008CB004460CD190F8B0325BB109238DF8E5
:1081100004300A23029080F8B33201A801F076FF00
:108120000CB010BDD0F8B81100F0D8FA18B9092376
:1081300084F8B332F4E70221204600F0A7FAEFE713
:1081400030B590F8B4328DB00446032B3CD8DFE84C
:1081500003F0312B1D0200F26D25294600F0DAFCF8
:1081600006238DF8043094F8AE328DF80D3094F873
:10817000AF328DF80C3002940495112301A884F8D5
:10818000B33201F043FF00200DB030BD07238DF85E
:10819000043090F8AE328DF80D3090F8AF328DF893
:1081A0000C3002900C23E9E708238DF8043002908C
:1081B0000D23E3E71022002100F26D200AF00CFEEF
:1081C0002046FFF753FFDFE70320DDE7F0B50D465C
:1081D000A5B004461146284600F02AFA08B9022143
:1081E0002BE12B78013B082BF9D801A252F823F0A0
:1081F00015820200DF81020085820200D382020024
:10820000E38202000D830200DF810200E7830200A7
:108210004384020094F8B332042B31D10B22691C41
:1082200004F29E200AF0CDFD052384F8B3320A2320
:108230008DF864306B788DF86C301A946A88130A64
:1082400043EA0223ADF86D302B798DF86F306B79EE
:108250008DF87030AB798DF87130B5F80720130ABE
:1082600043EA0223ADF872306B7A8DF874306A8974
:10827000130A43EA0223ADF8753019A801F0C6FECF
:1082800025B0F0BD94F8B332092BF9D104F5E076AE
:108290004022691C30460AF094FD00F05FFB58B1A3
:1082A0000B2384F8B3320C238DF86430D4F8BC313E
:1082B0001A941C931B96E0E704F50071204600F029
:1082C0000DFC00288BD12046FFF73AFF0028D7D0BD
:1082D00085E794F8B332112BD2D12046FFF7C6FEC2
:1082E000F4E794F8B322102ACAD1691C04F28D2055
:1082F0000AF067FD04F24D21204600F015FA00282F
:108300007FF46DAF122384F8B332B9E794F8B33237
:10831000122BB5D11022691C04F25D200AF051FD28
:10832000204600F045FC00283FF459AF01AD05AEF2
:1083300004F508732A463146204609AF00F076FB63
:108340000723102204F5307138468DF840300AF0CA
:1083500038FDD4F8D23219961A0E190242EA036295
:1083600001F47F011B0A0A4303F47F431343B4F86B
:10837000D622CDF83730130A43EA0223B4F8D022CC
:10838000ADF83B30130A43EA022394F8D822ADF843
:1083900034309DF836301A95C2F3400161F3000382
:1083A00062F341036FF387038DF836301923ADF87C
:1083B00070300DF141031F930DF15A0320930023F8
:1083C0001D93ADF8783019A808231B978DF88430D9
:1083D00003F0F2FA10A9204600F0B9F900287FF462
:1083E000FEAE14238FE794F8B332142B7FF448AF1A
:1083F0000B238DF8643004F508731C9304F5307377
:108400001B93D4F8D2321D93B4F8D032ADF8783043
:10841000B4F8D63294F8D822ADF87A309DF87C3092
:108420001A9462F30003C2F3400262F3410319A8F5
:108430008DF87C3001F0EAFD0021204600F026F99D
:108440001EE70D238DF8643019A86B781A948DF807
:108450006C3001F0DBFDC2E670B51E4690F8B33219
:1084600004461546ABB90C4B0C4A00F0EFF888B93E
:1084700084F8B1023146192204F530700AF0A1FCEB
:108480002946204600F0F8F820B9022384F8B332D8
:1084900070BD082070BD00BF0087930350370300F4
:1084A00013B590F8B332052B044634D1102A30D8D6
:1084B00052BB71BB022394F8B8028DF80030002340
:1084C000C01A18BF012001298DF8013018BF94F897
:1084D000AF3284F8AE22012908BF002284F8B4121A
:1084E0008DF802008DF803108DF80520694604F21E
:1084F0009D2220468DF8043000F0E0F810B90723E3
:1085000084F8B33202B010BD19B1102AD2D00129BB
:10851000D0D10920F6E70820F4E738B5044694F8EE
:10852000B3320C3B012B16D8102A16D894F8AE5251
:10853000954212D104F26D200AF043FC05F26D2041
:10854000C5F11002204400210AF046FC2046BDE897
:108550003840FFF78BBD082038BD092038BD10B565
:1085600090F8B3425CB9C0F8B811C0F8BC21194604
:108570000B2200F2B5200AF024FC204610BD082092
:1085800010BD00F043BA2DE9F0410F4614460546F0
:10859000D0B1C9B1C2B1D3B900F094FF0646B0B1B1
:1085A000238AB3F5805F02D30B20BDE8F081E08A17
:1085B00002F038F90128F7D123463A4631462846D9
:1085C000BDE8F041FFF748BF0E20BDE8F08106206E
:1085D000BDE8F08190F8B1320BB9FFF761BF082018
:1085E000704790F8B1320BB9FFF797BFFCF7C8BBE3
:1085F00070B5044616460D4621B978460B4B1B68EC
:108600007BB1984724B97846084B1B685BB1984703
:10861000D4F8B0313246294620461B68BDE8704088
:10862000184700DEEEE700DEF2E700BFB861002089
:1086300048B10378092B05D8034AD05C431A584245
:1086400058417047002070476037030010B560B193
:1086500059B152B1074CA34209D9C0F8B431C0F89E
:10866000AC21C0F8B011002010BD0E2010BD0720B5
:1086700010BD00BFFF86930310B4D0F8B021D468BA
:10868000D0F8B42123465DF8044B1847D0F8B03138
:108690001B69184713B5002304468DF805101046D2
:1086A0000DF1050101228DF804300AF08AFB022247
:1086B00001A92046FFF79CFF02B010BD38B5054662
:1086C0000C4602F10C00013105220AF07AFB21462A
:1086D00028460622BDE83840FFF78ABF30B593B080
:1086E00012AC032304F8443D054640220DF1050079
:1086F0000AF067FB412221462846FFF779FF13B0B5
:1087000030BD30B587B006AC052304F8143D0546EE
:1087100010220DEB03000AF054FB112221462846DB
:10872000FFF766FF07B030BD30B587B006AC062353
:1087300004F8143D054610220DF105000AF041FB36
:10874000112221462846FFF753FF07B030BD2222F1
:10875000FFF74EBFD0F8AC319B681847D0F8AC316A
:10876000DB68184773B5194B1B681B0704460D4699
:10877000164618D5164B1B68032B14D92F21154804
:108780000AF0FEFBC8B12F2112480AF0F9FB411C88
:10879000114B2A78D3F804350192104A0092042034
:1087A000DF2203F0E9FED4F8AC311B6832462946DB
:1087B000204602B0BDE8704018475C2105480AF029
:1087C000DFFB08B15C21DFE70249E1E7443200202A
:1087D000403200206A37030000B000408A370300AF
:1087E000D0F8AC315B68184770B506468AB01446BD
:1087F0000D4609B308460AF0BBFB6A4681B228461B
:1088000003F03AF9042269460DF122000AF0D9FA80
:10881000162564BAADF8204001F0F4FB10220146A1
:108820000DEB02000AF0CDFA2B4604AA00213046D7
:1088300004F072FE0AB070BD1225EAE770B50E466C
:108840008CB01546044628B97846264B1B68002B89
:1088500039D0984706F0FB03122B05D07846214B00
:108860001B68002B31D0984725B978461D4B1B68F3
:108870006BB398471C4B1B781BB32C22002101A81B
:108880000AF0AAFA1022214602A808950AF099FADD
:108890002B785A1E534253418DF81830162E4FF044
:1088A00003038DF8043014D10123042204F11201D2
:1088B0000DF11A008DF819300AF083FA01A801F0C1
:1088C000A5FB0CB070BD00DEC4E700DECCE700DE27
:1088D000D0E7002104220DF11A008DF819100AF0DA
:1088E0007BFAEBE7B86100200432002073B505463F
:1088F0000A4E68460C4602F095FC00232421A34250
:1089000001D302B070BD1DF80300B0FBF1F201FB12
:108910001202D2B2B25CEA540133F0E79E37030090
:1089200037B50D46042104460DEB010002F07AFC38
:10893000094B019953F82520B1FBF2F302FB131305
:1089400004221BBA0DEB020104F10C0001930AF0A2
:1089500038FA03B030BD00BFC4370300014B1878AC
:10896000704700BF383B00202DE9F0410446ACB011
:108970000F46904600F29D21112207A81E460AF0DC
:1089800020FA94F8B13204F5E07540229BBBD4F88C
:10899000B8110DF12D000AF014FA402229460DF10C
:1089A0006D000AF00EFA3A4607A8912103F064F828
:1089B00003AD04233A46009304F50070124B019571
:1089C000202103F075F83046102102F02BFC3146CF
:1089D000102207A80AF0F5F904F26D2110220BA865
:1089E0000AF0EFF94346202207A9284602F0E2FFE9
:1089F0002CB0BDE8F08129460DF12D000AF0E1F917
:108A00004022D4F8B811CAE7E837030038B5044665
:108A10000D460AF081F82946024620460AF080F801
:108A2000012814BF0320002038BD00002DE9F043C9
:108A3000044697B08946904600F27D2110220AA88C
:108A40001F460AF0BEF994F8B13204F24D2504F243
:108A50005D261022002B33D129460EA80AF0B1F969
:108A60001022314612A80AF0ACF904F5007404256E
:108A700002AA0AA8302102F0FFFF02AA2046CDF880
:108A800004900095124B202103F012F806AB0193DD
:108A900002AA104B00952046202103F009F80DF1A1
:108AA0001B010D2240460AF08CF98DE8A0000A4B0C
:108AB00002AA2021204602F0FBFF17B0BDE8F08398
:108AC00031460EA80AF07DF910222946CAE700BFF8
:108AD000ED370300F2370300F737030070B50E4699
