:020000021000EC
:10B00000007D0020992A0200D92A0200A9B401007B
:10B010000000000000000000000000000000000030
:10B02000000000000000000000000000DD2A020017
:10B030000000000000000000DF2A0200E12A0200F8
:10B04000E32A0200E32A0200E32A0200E32A0200C4
:10B05000E32A020000000000E32A0200E32A0200C3
:10B06000E32A0200E32A0200E32A0200E32A0200A4
:10B07000E32A0200E32A0200E32A0200E32A020094
:10B08000E32A0200E32A0200D9400200E32A020078
:10B09000E32A0200E32A020009B50100E32A0200C4
:10B0A000E32A0200E32A0200000000000000000082
:10B0B0000000000000000000000000000000000090
:10B0C00010B5064C2378002B07D1054B002B02D07E
:10B0D000044800E000BF0123237010BDF0230020CE
:10B0E00000000000B4D10200084B10B5002B03D0C3
:10B0F0000749084800E000BF07480368002B00D15B
:10B1000010BD064B002BFBD09847F9E7000000006C
:10B11000F4230020B4D10200EC2300200000000042
:10B12000164B002B00D1144B9D46402292029A1AD6
:10B13000924600218B460F461348144A121A11F00A
:10B1400057F80F4B002B00D098470E4B002B00D028
:10B1500098470020002104000D000D48002802D06F
:10B160000C4800E000BF10F0F3FF2000290000F0C1
:10B17000E7F810F0D7FFC04600000800007D00206F
:10B180000000000000000000F023002028520020F2
:10B19000000000000000000013B5214B1B685B0499
:10B1A00020D5204B1B68032B1CD91F4C2F212000BE
:10B1B00011F0EFF82F21002807D15C21200011F0B9
:10B1C000E8F82100002804D05C21200011F0E1F80B
:10B1D000411C164A164B0420D358164A0092552299
:10B1E00009F0C6FF144C154B00216360144B20007E
:10B1F000A36000F09FFA002803D00B4A582100F00A
:10B2000015F9208803F0DAFB002803D0064A5921FB
:10B2100000F00CF9E0200121000400F0ADF913BDAD
:10B22000702300206C2300202AC4020000B00040DC
:10B230000405000055C4020048240020B9B20100F2
:10B2400045B2010037B5164B0D001B685B0421D5D4
:10B25000144B1B68032B1DD9134C2F21200011F018
:10B2600098F82F21002807D15C21200011F091F8D7
:10B270002100002804D05C21200011F08AF8411C34
:10B280000A4A0B4B0420D3580A4A019500926F22B8
:10B2900009F06EFF2900152000F060F928003EBD7E
:10B2A000702300206C2300202AC4020000B000405C
:10B2B00004050000A4C4020010B5152000F040F9F8
:10B2C00010BD000013B5184B1B685B0420D5174B4D
:10B2D0001B68032B1CD9164C2F21200011F059F8A4
:10B2E0002F21002807D15C21200011F052F8210005
:10B2F000002804D05C21200011F04BF8411C0D4ABD
:10B300000D4B0420D3580D4A00925F2209F030FF04
:10B31000E0200021000400F02FF980200422C82141
:10B32000800300F035F913BD702300206C2300204A
:10B330002AC4020000B000400405000010C402004E
:10B3400013B5C020234A0421C00109F0F5FE224BA9
:10B350001B685B0420D5214B1B68032B1CD9204C98
:10B360002F21200011F015F82F21002807D15C2192
:10B37000200011F00EF82100002804D05C212000EC
:10B3800011F007F8411C174A174B0420D358174AED
:10B390000092772209F0ECFE00F026F90123144810
:10B3A000821DD377020029321370124AC38482634C
:10B3B000114A03744260114A06338260C37407F075
:10B3C00069FA002803D0064A8E2100F02FF807F012
:10B3D0005DFFFCE711510200702300206C23002068
:10B3E0002AC4020000B000400405000075C4020039
:10B3F0000C240020BBC40200C5B2010099B10100B9
:10B4000052DF704761DF7047A023E022A121DB05F6
:10B410001204C9005A5004495A50EFF3108372B60F
:10B420000028FDD17047C0460C050000F0B5184B50
:10B4300085B01B6807000E0015005B0423D5154B73
:10B440001B68002B1FD0144C2F21200010F0A1FFEF
:10B450002F21002807D15C21200010F09AFF210045
:10B46000002804D05C21200010F093FF411C0B4AFF
:10B470000B4B0120D3580B4A03970092029601957B
:10B48000482209F075FE0120FFF7BEFF05B0F0BDB0
:10B49000702300206C230020F6C4020000B000409E
:10B4A00004050000D9C4020013B5124B1B685B04ED
:10B4B0001CD5114C2F21200010F06BFF2F210028EC
:10B4C00007D15C21200010F064FF2100002804D087
:10B4D0005C21200010F05DFF411C084A084B002051
:10B4E000D358084A0092542209F042FE0120FFF787
:10B4F0008BFF13BD70230020F6C4020000B0004093
:10B5000004050000CBC4020073B501A8FFF778FF63
:10B5100000280BD06B4647249D1C084E29003000A4
:10B520002C80FFF76FFF002804D073BD019807F04F
:10B5300091FFEAE7300007F08BFFEEE7542400208C
:10B5400002000120A0219040034BC905CB581840B0
:10B5500043425841C0B27047040500000123A022B5
:10B560008340D205002902D0024953507047A121DF
:10B57000C900FAE70C050000A023DB05002902D072
:10B58000024A98507047A122D200FAE70C05000049
:10B59000FE231A40FA23F0B59B0059430F4C104B81
:10B5A000A0251F68A44600230E4EED05934200D14E
:10B5B000F0BDAC594440AC5100290DD00C00C04640
:10B5C000C046C046C046C046C046C046C0466745A5
:10B5D00000D0C046013CF2D10133E7E70024F4007B
:10B5E0003823002004050000A0230321094ADB05BD
:10B5F00099508020A1228003D2009850EB20C000F7
:10B6000019508020C0039850034819508021090424
:10B6100099507047540700005C07000006207047EF
:10B62000F0B5936885B00F001500002B05D1784662
:10B63000174B1B68002B29D098477B682800197886
:10B6400001AC4B1E9941AB68C9B298476B460600E6
:10B650001E70C4232380592363806B460293012309
:10B66000220039002888238103F004F96B461E70FC
:10B67000C4232380592363806B4663600123288899
:10B680002100238103F0ECF805B0F0BD00DED4E723
:10B69000A851002030B5536885B00D001400002B70
:10B6A00005D178460D4B1B68002B15D09847636871
:10B6B000200098476A46C421107001AA11806B3996
:10B6C00051806946516001212388118118002900A9
:10B6D00003F0D0F805B030BD00DEE8E7A851002047
:10B6E00030B5936885B00D001400002B05D1784665
:10B6F0000F4B1B68002B19D098476B6820001978F6
:10B700004B1E9941A368C9B298476A461070C4227B
:10B7100001A90A806B3A4A806A464A60012223885E
:10B720000A81180003F09CF805B030BD00DEE4E7A4
:10B73000A85100207FB503000E20002B16D05A68B8
:10B74000002A13D09A68002A10D06A4691800022FD
:10B75000694668460A80592141800549049302914F
:10B76000032103911900059202F0AAFF07B000BD62
:10B770002CC50200F0B506008BB00920192970D93C
:10B78000002402AB1C80592307A90B80393BCB80D6
:10B790000A221F3B30000B814C808C8010F01FFD73
:10B7A00002AB991D200003F0C5FAA04205D07846EF
:10B7B000544B1B68A34256D0984702ABD91D0020BA
:10B7C00003F0C6FA002805D078464E4B1B68002BC4
:10B7D0004BD09847002003ACA378E2789B188342B3
:10B7E0003FD002AB9D1C290003F096FA002805D03B
:10B7F0007846444B1B68002B39D098472B8802AA07
:10B800002380032305A90020138003F0EFFA00280A
:10B8100005D078463B4B1B68002B2AD09847300058
:10B82000042221000A3010F0DAFCA2780E23002A4C
:10B830000AD000252F0002AB1B880193019B9D427B
:10B8400019D33B000E339BB2E278002A08D00025C2
:10B850002C0002AA1288F6180192019B9D422AD35D
:10B8600000200BB0F0BD00DEA7E700DEB2E700DE8F
:10B87000C4E700DED3E76B0005AA985A04A903F0D9
:10B8800075FA002805D078461E4B1B68002B10D097
:10B89000984702AB5A891C4B9A4208D138000E30A7
:10B8A0003018022204A910F09AFC0237BFB2013509
:10B8B000C4E700DEEDE704AF6B0005AA985A390033
:10B8C00003F054FA002805D078460E4B1B68002B75
:10B8D00016D098477A880C4B9A420FD00A2102ABB7
:10B8E000C9183019022210F07AFCA01C80B230185E
:10B8F0000222390010F073FC0434A4B20135ACE725
:10B9000000DEE7E7A8510020FFFF00004B7810B5EC
:10B910000C781B0223430380002A03D001235B42DF
:10B92000438010BDCB788A781B021343F8E70000F0
:10B9300037B501AD0400280004F0D4F92888A042EE
:10B9400005D8001B431E9841404280B23EBD0148CD
:10B95000FCE7C046FFFF000030B585B008AC258885
:10B9600001AC228001225242628022000293258192
:10B9700002F080FF05B030BDF0B587B002AFBA600D
:10B980006A463D8D7B60EB1DDB08DB00D31A9D46CC
:10B990000E0002ACF8602A000021200010F028FC04
:10B9A0003B7A31002370009523007A68F868FFF72E
:10B9B000D3FFBD4605B0F0BDF0B58DB06B46022596
:10B9C00002AF3861FB600B890E00AB43042B28D11A
:10B9D000694A0B884C689B185A4253416078DBB225
:10B9E0007B61237800021843FFF7A2FFB86018209C
:10B9F0000C233818C01861197A69FFF787FF1822DD
:10BA00000823BA18D218796AB86803F0CBF900286D
:10BA10000CD0052300932A00584B31003869FFF7FA
:10BA2000ABFFFB689D46BD460BB0F0BD012318225D
:10BA30007B84BA180933D2181233388CF91803F002
:10BA4000C7F8002805D078464D4B1B68002B45D021
:10BA500098476A467B8C00255B000833DB08DB00D7
:10BA6000D31A9D4602AB7B61788C854238D33288ED
:10BA7000444B9A4249D16B467B6001F02DFC431D3B
:10BA8000BB606B460C30C008C0001B1A9D460023EB
:10BA900002AD2B70637822781B02134309226A449B
:10BAA00013701B0A537024220B23BA1812786B44AC
:10BAB0001A7025220D21BA18127869445A707869D3
:10BAC0007A8C01F011FC3B892C4A00932B00310049
:10BAD0003869FFF741FF7B689D46A2E700DEB8E7C3
:10BAE0007A696B00D1181C22BA18985A04F050FADF
:10BAF000002805D07846224B1B68002B03D09847BE
:10BB00000135ADB2B0E700DEFAE76B467B6001F0CD
:10BB1000E3FBC31DBB606B460E30C008C0001B1AA0
:10BB20009D46002302AD2B70637822781B021343DD
:10BB300009226A4413701B0A537024220B23BA187B
:10BB400012786B441A702522BA1812780F215A7095
:10BB500026220D23BA1812786B441A702722BA18BD
:10BB6000127869445A7078697A8C01F0BDFB3B8980
:10BB7000054A00932B00AAE7B57FFFFF4C80000029
:10BB8000A85100204B8000004E8000001FB50F23FD
:10BB90000A226B441A70093A0092024AFFF7DCFE4F
:10BBA00005B000BD4A800000F0B5092587B003ACA0
:10BBB00006000F002A000021200010F019FB0A23C4
:10BBC000044A23703900009523003000FFF7C4FEBB
:10BBD00007B0F0BD3C80000010B5FFF7E5FF10BDD9
:10BBE000F0B50A2506000F0087B003AC2A0000213B
:10BBF000200010F0FDFA2570230000950622390080
:10BC00003000FFF7A9FE07B0F0BD10B5FFF7E8FF61
:10BC100010BD0000F0B587B00E000DA90F7800210F
:10BC200003AC21700D3169440A70120A4A700F2268
:10BC3000050011206A4413701B0A53700CA90422DA
:10BC4000684410F0CCFA0723002F00D10233009390
:10BC5000034A230031002800FFF77EFE07B0F0BD45
:10BC60001F800000F0B587B06B4602AF78603B6084
:10BC70000B890D00002B22D10133FB600B33F91827
:10BC8000043BF81804F0EEF9B88901F025FB6A4688
:10BC9000C31DDB08DB00D31A9D460400082302AE57
:10BCA000F818BA893100A4B201F01EFB00943300E9
:10BCB000044A29007868FFF74FFE3B689D46BD4661
:10BCC00005B0F0BD43800000F0B50B8987B00600D9
:10BCD0000C00122B21D10A274D680A8868782B782E
:10BCE0000002184302A91B4B00057F18A91C000D78
:10BCF00003919A4213D13A0004F064F9002815D058
:10BD0000043811220B2801D8134B1A5C032321009D
:10BD100000933000114BFFF72FFE07B0F0BD04F089
:10BD200011F9A91C388004F07DF9E7E70D216A7844
:10BD30002B7812021A4305AB187002A809180A7072
:10BD4000120A4A700322210000923000034AFFF7D2
:10BD500003FEE2E74080000044C50200448000008A
:10BD6000F0B58DB004900B890E009A1F039311005B
:10BD7000022399438BB20593002B41D153425A4180
:10BD80007468D2B2271D390008A8FFF7BFFD6B46C3
:10BD90001B7D09AD2B70637822781B02134315229B
:10BDA00004A9521813701B0A5370E378A2781B027F
:10BDB000134317221920521839000E2713701B0A3B
:10BDC000537004AB0422C01810F009FA607823788D
:10BDD00000021843FFF7ACFD04ABFF183A000899C6
:10BDE00002F0E0FF00280DD0039A0723062A00D0B6
:10BDF0000233009302221B4B31000498FFF7BCFD75
:10BE00000DB0F0BDE078A378000218430005000DE6
:10BE100004F0A6F83288144B010038889A4218D1F1
:10BE200002F086FE052817D0072818D01123002815
:10BE300013D1287001F052FF039A0723062A00D07D
:10BE400002330093074A2B0031000498FFF784FD6A
:10BE5000D6E702F095FEE5E702232B70ECE703231B
:10BE6000FBE7C0463E8000003D80000070B5050045
:10BE7000C820002386B00E0003AC04A94000238034
:10BE800007F0FCFE002805D07846164B1B68002BF7
:10BE900022D09847059B002B20D1922004A9FF3087
:10BEA000237007F0EBFE002805D078460D4B1B6889
:10BEB000002B15D0984707216378059A8B430A40D9
:10BEC000134363700223084A0093310023002800C3
:10BED000FFF742FD06B070BD00DEDBE70123DCE7C3
:10BEE00000DEE8E7A85100202880000073B50B8928
:10BEF00005000C00022B2FD14E6808220021684655
:10BF000010F076F9042300933378002B02D0012B34
:10BF10000DD10193C8206946400007F095FE002826
:10BF200005D078460F4B1B68002B16D098479220FF
:10BF3000737869465B075B0FFF30019307F084FE5F
:10BF4000002805D07846074B1B68002B07D0984780
:10BF500021002800FFF78AFF73BD00DEE7E700DE5F
:10BF6000F6E7C046A85100200B8910B5002B01D17F
:10BF7000FFF77CFF10BD0000F0B58BB003900E8979
:10BF8000022332000C009A43142A26D13300143BBA
:10BF90005A4253414D68DBB204932B00123319000F
:10BFA000049A07A80593FFF7B1FC68782B78000284
:10BFB000184306AFFFF7BCFC3A00079902F0F2FE07
:10BFC00000280CD00723142E00D002330222009345
:10BFD000324B21000398FFF7CFFC0BB0F0BD0A23D2
:10BFE00004AA9B18A81C190003F0C7FE00280AD059
:10BFF0000522042800D00C320723142E00D002336F
:10C000000093264BE5E704AB5989388802F0F6FC2B
:10C0100004AB07005889002F1CD003F017FF00283D
:10C0200005D078461E4B1B68002B0AD09847072383
:10C03000062F08D1142E00D0023300930822174B8C
:10C04000C7E700DEF3E7142E00D00233009311227D
:10C05000124BBEE708AE310003F0CAFE002805D03F
:10C0600078460F4B1B68002B15D0984701F036FE21
:10C070006F782B783F0276881F43049B0599042232
:10C080006846019310F0ABF833003A0021000398A2
:10C09000FFF7C0FDA1E700DEE8E7C0461F80000013
:10C0A000A8510020F0B585B002AB9D1D012303AE61
:10C0B0002A0031002B80070002F0FCFC0823062830
:10C0C0000CD0002805D07846174B1B68002B08D0F1
:10C0D000984700242B88A34205D80023180005B0F8
:10C0E000F0BD00DEF5E76300F15A3800019302F07D
:10C0F000B3FC002805D078460B4B1B68002B0FD0F3
:10C1000098476300F05A03F0A1FE002805D0784656
:10C11000054B1B68002B05D098470134A4B2D9E722
:10C1200000DEEEE700DEF8E7A8510020F0B50E894A
:10C13000022332008BB005000C009A43142A29D147
:10C140004B6807A803933300143B5A425341DBB2B8
:10C150000493039B049A123319000593FFF7D6FB4F
:10C16000039A039B50781B780002184306AFFFF731
:10C17000DFFB3A00079902F015FE00280CD00723D8
:10C18000142E00D00233022200933C4B21002800E1
:10C19000FFF7F2FB0BB0F0BD3888FFF783FF0028F4
:10C1A00007D00723142E00D0023300931122334B03
:10C1B000ECE7039B04AA981C0A239B18190003F0C0
:10C1C000DCFD002810D00522042800D00C32072303
:10C1D000142E00D002330093284B21002800FFF7D3
:10C1E000CBFB01F07BFDD5E704AB5989388802F021
:10C1F00005FC04AB07005889002F1CD003F026FE75
:10C20000002805D078461E4B1B68002B0AD09847A3
:10C210000723062F08D1142E00D0023300930822E2
:10C22000164BDAE700DEF3E7142E00D0023300935A
:10C230001122124BD1E708AE310003F0D9FD0028DE
:10C2400005D078460E4B1B68002B15D09847039AF3
:10C25000039B57781B783F0276881F43049B059900
:10C260000422684601930FF0BAFF33003A00210020
:10C270002800FFF7CFFCB4E700DEE8E71F800000EE
:10C28000A8510020F0B589B002900E890223320037
:10C290009A430C000492042A26D1331F5A42534178
:10C2A0000A274D68DBB20393AB1C1900039A07A859
:10C2B0000593FFF72BFB68782B7800021843FFF7F4
:10C2C00037FB04ABFF183A00079902F06BFD00281A
:10C2D0000CD00723042E00D0023302220093144B0B
:10C2E00021000298FFF748FB09B0F0BD3888FFF73E
:10C2F000D9FE071E07D00723042E00D00233009377
:10C300003A000B4BECE701F0E9FC2B786D78049ACE
:10C310002D021D43039B0599684601930FF05FFFB3
:10C320003B002A0021000298FFF774FCDCE7C046BE
:10C330001F800000F0B502278BB003900B890C0022
:10C340000293BB43142B26D1029B4D68143B5A42E7
:10C350005341DBB204932B0012331900049A07A84F
:10C360000593FFF7D3FA68782B7800021843FFF79C
:10C37000DFFA06AA079902F015FD00280DD0029AEF
:10C380000723142A00D0DB1902220093344B21002A
:10C390000398FFF7F1FA0BB0F0BD122108AE04AB21
:10C3A0007080C918A81C3770706008F089FE0028DA
:10C3B00005D078462B4B1B68002B12D098470A27D4
:10C3C00004ABFF183900300003F070FD05280AD1D6
:10C3D000029A0723142A00D0023300930122204B33
:10C3E000D5E700DEEBE7002808D0029A0723142ADD
:10C3F00000D0023300931122194BC8E706AB3988ED
:10C40000188802F029FB002808D0029A0723142A72
:10C4100000D0023300930C22114BB8E7388803F0A8
:10C4200015FD002805D078460E4B1B68002B15D053
:10C43000984701F053FC6F782B783F0276881F43B2
:10C44000049B05990422684601930FF0C8FE33004F
:10C450003A0021000398FFF7DDFB9CE700DEE8E7E8
:10C460001F800000A8510020F0B58BB003900F8909
:10C470000223BE1F32009A4393B20C00002B31D12D
:10C480004D68E878AB780002184306F06DFE059021
:10C49000032807D00723062F00D002330093012280
:10C4A0003D4B1BE073425E41F3B21A00291D07A801
:10C4B0000493FFF72BFA68782B7800021843FFF7F4
:10C4C00037FA079906AA02F06DFC011E0CD007236B
:10C4D000062F00D00233022200932F4B2100039835
:10C4E000FFF74AFA0BB0F0BD08AE082230000FF09B
:10C4F0007FFE6B461B7D30003370EB78AA781B0201
:10C50000134373800A2304AA9B18190003F0CEFC7E
:10C510000528BFD0002807D00723062F00D00233FC
:10C52000009311221C4BD9E704AB5989188902F0FA
:10C5300093FA062807D10723062F00D00233009371
:10C540000822154BCAE70028E6D104AB588903F04E
:10C550007DFC002805D07846104B1B68002B18D0B6
:10C56000984701F0BBFBEF78AB786E783F021F4332
:10C570002B7836021E43049B291D04226846019332
:10C580000FF02DFE3B00320021000398FFF742FB25
:10C59000A8E700DEE5E7C0461F800000A8510020A4
:10C5A000F0B50B8989B09E1F0293320002239A4393
:10C5B00093B205000C00002B14D14F68F878BB78BB
:10C5C0000002184306F0D0FD03280DD0029A07237D
:10C5D000062A00D0023301220093454B2100280097
:10C5E000FFF7CAF909B0F0BD73425E41F3B203939D
:10C5F0003B1D1900039A07A80593FFF787F9787880
:10C600003B7800021843FFF793F906AA079902F056
:10C61000C9FB002808D0029A0723062A00D002335B
:10C6200000930222324BD9E704AB1889FFF73AFD99
:10C63000021E07D002990723062900D00233009377
:10C640002B4BCBE70A2604ABF878F618BB78000230
:10C650001843310003F087FB002807D00522042887
:10C66000E8D0043A1028E5D01032E3E704AB318873
:10C67000188902F0C3F90490002821D0308803F013
:10C68000E5FB002805D078461A4B1B68002B0CD020
:10C690009847049B062B0AD1029A0133062A00D040
:10C6A000023300930822124B98E700DEF1E7029A6A
:10C6B0000723062A00D00233009311220C4B8DE78A
:10C6C00001F00CFBFE78BB7836021E433B787F7886
:10C6D00005993F021F43039B0422684601930FF014
:10C6E0007EFD33003A0021002800FFF793FA79E736
:10C6F0001F800000A8510020F0B50B8989B09E1F53
:10C700000293320002239A4393B205000C00002BDF
:10C7100014D14F68F878BB780002184306F024FD66
:10C7200003280DD0029A0723062A00D002330122E3
:10C7300000933D4B21002800FFF71EF909B0F0BD22
:10C7400073425E41F3B203933B1D1900039A07A89D
:10C750000593FFF7DBF878783B7800021843FFF782
:10C76000E7F806AA079902F01DFB002808D0029AF4
:10C770000723062A00D00233009311222A4BD9E75F
:10C780000A2604ABF878F618BB780002184331008B
:10C7900003F0E9FA00280ED00522042803D0043A59
:10C7A000102800D0103202990723062900D0023346
:10C7B00000931D4BBEE704AB3188188902F01EF9C7
:10C7C0000490002818D0308803F040FB002805D0E2
:10C7D0007846164B1B68002B0CD09847049B062B01
:10C7E000C5D1029A0133062A00D0023300930822F1
:10C7F0000D4B9FE700DEF1E701F070FAFE78BB78A1
:10C8000036021E433B787F7805993F021F43039B06
:10C810000422684601930FF0E2FC33003A00210045
:10C820002800FFF7F7F989E71F800000A8510020D2
:10C83000F0B51D00002391B00CAC0591237004A944
:10C8400021335B181A70120A5A700F220490A379D0
:10C8500009AE134031002800A37102F087FA0028C6
:10C8600005D07846514B1B68002B36D0984773880B
:10C870002800039333880E2663816B469B89A3812E
:10C8800004ABF618310002F021F8002805D07846F4
:10C89000464B1B68002B22D098473088232604ABD8
:10C8A000F618434B98421CD12520002104AB0922E5
:10C8B000C018317071700FF09BFC039A0C231100AB
:10C8C0003B4A914200D0023300933A4A2300059933
:10C8D0000498FFF741F811B0F0BD00DEC7E700DEB5
:10C8E000DBE70AAF390003F083FA002805D0784669
:10C8F0002E4B1B68002B50D09847BB782800337014
:10C90000FB7808AF3900737002F0AAF9002805D04F
:10C910007846264B1B68002B41D09847122604AB63
:10C92000F6183888310003F033FB002805D078462C
:10C930001E4B1B68002B34D0984725220F2004ABD8
:10C94000D2183378717813705378014083430B43C6
:10C950002721537004ABC918280002F0C7F900283A
:10C9600005D07846114B1B68002B1CD098470D272B
:10C9700007AE0122002130000FF03AFC04ABFF1893
:10C980003A003100280001F0F7FF33783A789B0134
:10C9900013432372002363728FE700DEADE700DEEE
:10C9A000BCE700DEC9E700DEE1E7C046A851002091
:10C9B000FFFF000019800000F0B50E89022332004D
:10C9C00085B007000D009A43042A21D1321F53423B
:10C9D0005A414C68D2B2A11C03A8FEF797FF6078B9
:10C9E000237800021843FEF7A3FF0A236B441A00C2
:10C9F000039902F0D7F900280CD00C23042E00D0A4
:10CA0000023300930222094B29003800FEF7B4FFDD
:10CA100005B0F0BD6B466278217812020A435B894B
:10CA200029003800FFF704FFF2E7C0461980000034
:10CA30007FB50C00104A098806002389914213D162
:10CA4000012B10D16568287802F020F90F232A788D
:10CA50006B441A70012300930E336B44074A210084
:10CA60003000FEF779FF7FBD002BFCD102F016F9F4
:10CA70000F236B441870EDE70D8000000E8000005E
:10CA800030B585B004000D0009F0BCFE012203ABF7
:10CA900050401870290000922000024AFEF75CFF07
:10CAA00005B030BD0B8000000B8910B5002B01D103
:10CAB000FFF7E6FF10BD000070B50B898AB00600D5
:10CAC0000C00012B1AD14B681B78002B16D10D20BE
:10CAD00003AD1A2168442B70FEF74CFE002805D0E8
:10CAE0007846084B1B68002B0AD098471B2302226C
:10CAF000009321002B003000FEF72EFF0AB070BD1E
:10CB000000DEF3E7A8510020F0B589B06B4602AF14
:10CB1000F8607B600B890C00022B43D14D6868786C
:10CB20002B780002184301230005000D7B6103F000
:10CB300009FA1423FA18043BF91803F0D5FB060090
:10CB4000B88A00F0C9FBC31C3B606B460A30C008C2
:10CB5000C0001B1A9D4602ABBB60002E06D003230B
:10CB6000052E22D000931122144B21E0BB680B212B
:10CB70001E706B782A781B02134309226A441370D3
:10CB80001B0A53701023BA8AF818694400F0ACFBF2
:10CB90003B880A4A0093BB682100F868FEF7DCFE78
:10CBA0007B689D46BD4607B0F0BD04220093034B51
:10CBB0002100F868FEF7E0FEF2E7C04602800000C0
:10CBC000F0B58BB00A8804900C000B89032A34D18D
:10CBD0000B3B1900013A914389B200292BD15842ED
:10CBE00043416268DDB2537810781B02034305931A
:10CBF000131D0393D77893783F021F43069105983E
:10CC0000FEF796FE0600039B2A00591D09A8FEF7B1
:10CC10007DFE08AA0999300002F0C4F8002825D04A
:10CC20000E23002D00D0023B022200935F4B210017
:10CC30000498FEF7A1FE0BB0F0BD5D498A4204D115
:10CC40000222190091431929F5D1193B59424B4150
:10CC50006268DDB2537811781B020B430593130011
:10CC600012330393931C06930027C8E7039A039B90
:10CC700050780F221B7810400002184303F070F91F
:10CC80004C4B0790984207D10E23002D00D0023B59
:10CC900000930322454BCAE70A2606AA2388B61842
:10CCA0003100032B0ED1380003F032F8002814D0E5
:10CCB0000E2304280AD1002D00D0023B0093052248
:10CCC0003A4BB4E7069803F049F8EFE7002D00D09F
:10CCD000023B00931122354BA9E708AB3188188835
:10CCE00001F0D6FD002805D07846334B1B68002B99
:10CCF0001AD09847039BDE78B3090693B300DBB2E2
:10CD0000002B2AD0002208AF3888110001F0F4FD72
:10CD1000002814D0062809D10E23002D00D0023B94
:10CD200000930D22214B82E700DEE3E77846224B99
:10CD30001B68002B01D098477DE700DE7BE73F2290
:10CD400038883240069901F0D7FD002805D0784692
:10CD5000194B1B68002B23D0984708AE30880799E1
:10CD600001F060FF002805D07846134B1B68002BAC
:10CD700018D09847039B3088997801F095FF0028D8
:10CD800005D078460C4B1B68002B0DD0984700F05F
:10CD9000A5FF3388059A21000498FFF749FD4AE76B
:10CDA00000DEDAE700DEE5E700DEF0E719800000EC
:10CDB0001A800000FFFF0000A851002030B50B8949
:10CDC00085B0032B13D100224C6803AB1A70257871
:10CDD00062780D2412022A436C442270120A627097
:10CDE0000222DA7092180092024AFEF7B5FD05B0F1
:10CDF00030BDC046488000007FB50C89022C12D19E
:10CE000000224D6803AB1A702E786A780D25120245
:10CE100032436D442A70120A6A700422DC70009258
:10CE2000014AFEF799FD7FBD488000001FB50A89C1
:10CE3000012A06D1022403AB1C700092014AFEF7BE
:10CE40008BFD1FBD148000001FB50A89012A06D181
:10CE5000022403AB1C700092014AFEF77DFD1FBD4A
:10CE60001180000070B5050008890C0001280BD165
:10CE70004B681B78012B07D89843C0B209F0A6FC79
:10CE800021002800FFF7FCFD70BD0000F0B50D8902
:10CE900087B006000C00032D27D14B680393039A3B
:10CEA0009B7850781B010009184303F0B7F9071E5F
:10CEB00006D0042305281AD000931122104B19E044
:10CEC0002A00039904A80FF08AF90D2002AB2A006A
:10CED00004A9C0181F730FF082F90423084A0093B5
:10CEE000210005AB3000FEF737FD07B0F0BD2A008A
:10CEF0000093034B21003000FEF73EFDF5E7C046EE
:10CF000003800000F0B58BB06B4602AFFB600B896D
:10CF100006000D00062B1FD14C68607823780002B4
:10CF20001843FEF705FDE378A2781B021343BB828A
:10CF3000637922791B021343FB8210237969FA1863
:10CF400001F030FF00280CD00723022200932E4B63
:10CF500029003000FEF710FDFB689D46BD4609B074
:10CF6000F0BD042310217B820E33FA1879180A3B96
:10CF7000388AC91801F09EFD062808D8234B195C91
:10CF8000002906D005230A0000931F4BE0E711217A
:10CF9000F8E768467A8A520092B2D31D7B60073365
:10CFA000DB08DB00C31A9D4602AB1970BB606378D7
:10CFB00021781B020B43092169440B701B0A4B703B
:10CFC000E378A1781B020B430B2169440B701B0A09
:10CFD0004B70637921791B020B430D2169440B705F
:10CFE0001B0A4B70102108230F207918C9186844B8
:10CFF0000FF0F5F8BB88044A0093BB6829003000A5
:10D00000FEF7AAFCA8E7C0462C80000050C502002D
:10D01000F0B589B06B4602AF7B600B8906000D004E
:10D020003B60042B1DD14C686078237800021843C4
:10D03000FEF77EFCE378A2781B021343BB81012339
:10D040005B42FB810933FA18F96801F0ABFE002856
:10D050000CD0052302220093284B29003000FEF754
:10D060008BFC7B689D46BD4607B0F0BD3B88388988
:10D070007B810A23FA18023BF918C91801F01AFD3E
:10D08000062808D81E4B195C002906D005230A0083
:10D0900000931A4BE1E71121F8E77A8968465200BC
:10D0A00013000C33DB08DB00C31A9D4602AB19707A
:10D0B0003B60637821781B020B43092169440B70A4
:10D0C0001B0A4B70E378A1781B020B430B216944C8
:10D0D0000B701B0A4B7008230D20F918C9186844FF
:10D0E0000FF07DF87B89054A5B0005339BB2009306
:10D0F0003B6829003000FEF72FFCB2E72A800000D1
:10D1000050C502001FB50B89002B07D1022203ABCB
:10D110001A70013A0092024AFEF71EFC05B000BDEB
:10D12000118000001FB50B89002B07D1022203AB31
:10D130001A70013A0092024AFEF70EFC05B000BDDB
:10D1400014800000F0B50B8989B007000C00132B88
:10D1500034D14D68AE786878360103091E430B88D8
:10D16000EA1C0392002B1AD12B780007000D1843FC
:10D1700002F0E8FE0E2302AA01009B183000EA1C10
:10D1800002F0EEFF061E26D004380B281FD80EF042
:10D190000BFE17191E201E1E1E1E1E1E1E0D300009
:10D1A00002F0DEFEE91C03F017F8EBE70622042389
:10D1B000210000933800134BFEF7DEFB09B0F0BDF1
:10D1C0000522F4E7228853425A410332EFE7112245
:10D1D000EDE70322EBE72900032206A80EF0FFFF8C
:10D1E000152002AB07AD06A90322C0182E700EF061
:10D1F000F6FF0423034A009321002B003800FEF7BA
:10D20000ABFBDBE7038000007FB50B8906000C0059
:10D21000022B2AD14D6868782B780002184300054C
:10D22000000D02F08FFE03F013F800280BD003234B
:10D23000042200930D4B052800D01122210030005C
:10D24000FEF79AFB11E00D216A782B7812021A433F
:10D2500069440A70120A4A70032203AB1870210055
:10D2600000923000014AFEF777FB7FBD448000004A
:10D2700010B586B01822002168460EF0B9FF0123D0
:10D280006A465B4253800B4B0B4C02932A23228845
:10D2900003930A4B9A4205D07846094B1B68002B32
:10D2A00006D098472100684601F00AFA06B010BD82
:10D2B00000DEF7E758C50200D8220020FFFF00007B
:10D2C000A851002010B5034B0100188801F030FC74
:10D2D00010BDC046D8220020032342085343012238
:10D2E0001040904018187047F0B500240F25944264
:10D2F00000D3F0BD0388661C0B701B0A2B404B70DB
:10D30000B24205D9468837013B4336094B708E70CF
:10D31000023404300331EAE770B5036D04000E00F7
:10D32000002B3BD02500543506F076FF2B782E706D
:10D33000002B31D1002E2FD0236D012120009847E2
:10D3400006F06AFF236D002B05D17846164B1B684B
:10D35000002B24D098472B78002B05D17846124B10
:10D360001B68002B1DD09847104B19681C60A165E5
:10D3700000290FD10E4C182220000EF039FF06F0C4
:10D38000BDFA0C4BC018E3600B4B60602000A3603B
:10D3900006F0CAF906F064FF06F062FF70BD00DE19
:10D3A000D9E700DEE0E7C046A8510020B424002001
:10D3B0009C24002040420F00BDD3010070B5002620
:10D3C000164D2C68002C06D12B68002B02D1144876
:10D3D00006F0D4F970BD220054321378002B01D02E
:10D3E000013B13701378002B08D12B689C4208D1A5
:10D3F000A36D2B6000212000236D98472600A46DAB
:10D40000E0E7002E05D17846064B1B68002B03D0C1
:10D410009847A36DB365EDE700DEFAE7B42400207A
:10D420009C240020A85100201F224B091140203AC3
:10D430008A40110010B59C0022580A40002A09D0E9
:10D4400051420A4008495B014A430849D20E885CB0
:10D45000C01810BD0133072B02D89A008258EDE79F
:10D4600080204000F5E7C04631B57C0700C70200C8
:10D4700070B50021802506000024FFF7D5FF6D0060
:10D48000A84201D1200070BD411C01342800FF29B1
:10D49000F6D83000FFF7C8FFF2E7F0B5050089B015
:10D4A00000AF04000E00BA601035042900D1203509
:10D4B0002800FFF7DDFFC31C7B606B460A30C00805
:10D4C000C0001B1A9D466A46FB60637B00211370F7
:10D4D0006B46A27B28005A70E27B9A70FFF7A4FF8C
:10D4E000002380225200904213D101235B42FB8231
:10D4F000FB68BE82BB61BB882088BB83BB68002BF6
:10D5000017D01423B968FA1801F0B4F9BD4609B070
:10D51000F0BD5A1CD2B23A60FA68411CD318D870D8
:10D5200080204000FF2902D82800FFF77DFF3B68DC
:10D53000D7E71423F91801F093F9E7E710B50800CD
:10D5400000220421FFF7A9FF10BD0000F8B50B89E8
:10D550000D001400032B15D11388834205D07846A3
:10D56000164B1B68002B0ED098476E68B178737805
:10D5700009021943E3898B4204D10023277BDAB2E5
:10D58000974202D8F8BD00DEEFE7A268D800101875
:10D5900002780133944632786245F0D14368200026
:10D5A0009847337863732A88054B9A42EAD12A0058
:10D5B00005212000FFF771FFE4E7C046A8510020D5
:10D5C0003280000070B50B890D001400022B15D1BC
:10D5D0001388834205D078460A4B1B68002B0ED077
:10D5E00098476A6853781178E2891B020B439A4284
:10D5F00004D12A0005212000FFF74FFF70BD00DE97
:10D60000EFE7C046A851002070B50B890D0014004B
:10D61000022B1FD11388834205D078460F4B1B681D
:10D62000002B18D098476A6853781178E2891B025A
:10D630000B439A420ED120002022002110300EF020
:10D64000D7FD2A88064B9A4204D12A0005212000E2
:10D65000FFF723FF70BD00DEE5E7C046A8510020BC
:10D660002F8000001FB50B89002B10D11088543279
:10D6700013786A461370074B01AA138001235B429B
:10D6800053806B4653600123138101F0F3F805B01A
:10D6900000BDC0460780FFFF1FB50B89002B0FD1CF
:10D6A000937810886A461370064B01AA13800123F1
:10D6B0005B4253806B4653600123138101F0DAF81B
:10D6C00005B000BD3780FFFF7FB50E890D00140047
:10D6D000012E19D14B6810001978FFF71DFE2A881A
:10D6E0000A4B9A4210D16A46208854342378290084
:10D6F0001370074B01AA138001235B4253806B46D2
:10D700001681536001F0B6F87FBDC0460580000069
:10D710000780FFFF1FB50B89012B18D14B681B78C1
:10D720000E2B00D8937008880A4B98420FD193783B
:10D7300010886A461370084B01AA138001235B42CC
:10D7400053806B4653600123138101F093F805B0B9
:10D7500000BDC046358000003780FFFF70B5040073
:10D7600086B00E000AA901C9236523000025A06028
:10D770002000097854332173E281657329001D70FC
:10D780002022A570A56510300EF032FD2000290082
:10D79000202230300EF02CFD6A4602231380033B1A
:10D7A0005380074B210002930B230393054B6846DC
:10D7B00096800494059300F083FF06B070BDC046C8
:10D7C000A8C602003DD5010030B583780100980756
:10D7D000800F9B080EF0E8FA040216180A22534341
:10D7E00000200E4A0E4D1268D3182A688B60002A5A
:10D7F0000FD094681C1B09D500280CD11000C860FC
:10D80000296030BD6422EAE7064AE8E71000D268E2
:10D81000EDE70028F3D0C160CA60F2E7D024002011
:10D82000D82400207017000010B5032809D80EF086
:10D83000BBFA12020406094810BD0948FCE7094872
:10D84000FAE77846084B1B68002B02D09847002067
:10D85000F2E700DEFBE70548EEE7C04640420F0076
:10D86000809698000046C323A8510020A08601009E
:10D87000F8B54F4E3378002B13D04E4B5D6806F051
:10D880003DF84D4C2D1A2078FFF7CEFF2378401B32
:10D890004A4C002B38D14A4B984235D92368013382
:10D8A0002360484D2A68002A00D17AE0424C9378E0
:10D8B00020789B079B0F83425EDD404B97681B6877
:10D8C000FF1A414B5F43FFF7AFFF010038000EF036
:10D8D00089FA2B689D78AD07AD0FEBB2022B1AD0F9
:10D8E0002BD8012B40D10A210EF002FB00293BD19D
:10D8F00006F004F8354B2570C11833782D48002BFD
:10D9000049D005F06FFFF8BD2F490EF06BFA25687E
:10D9100040192060C5E723786421002B02D0012B39
:10D9200022D10A210EF0E4FA00291DD105F0E6FF0C
:10D93000274BC11802232370DFE72378002B0AD17D
:10D9400024490EF0D5FA00290ED105F0D7FF224B5D
:10D95000C1180323EFE7012B02D196218900F0E7DC
:10D96000022B01D13C21ECE705F0C8FF050020782F
:10D97000FFF75AFF2918C0E705F0C0FF2B68070022
:10D9800098788007800FFFF74FFF2B6839189B7836
:10D990009B079B0FCFE701234160337005F0C4FE66
:10D9A000B1E73378002BAED0024805F0E7FEAAE7D6
:10D9B000D4240020B8240020D5240020D024002026
:10D9C00050C30000D8240020A086010040420F0070
:10D9D00080969800701700000046C32337B5244B8B
:10D9E0001878032820D8234B1A680EF0DDF90216A8
:10D9F000181A01321A6000221F4B1A701F490C6856
:10DA0000002C07D01B4AA3681068834215D0126807
:10DA10009B1A12D4FFF72CFF37BD0A32EAE76432B3
:10DA2000E8E717495218E5E77846164B1B68002BC4
:10DA300001D09847DFE700DEDDE7E36825880B606B
:10DA4000002301A92800019301F000FA002805D065
:10DA500078460C4B1B68002B08D09847280001998A
:10DA6000636898472000FFF7AFFEC7E700DEF5E7E1
:10DA7000D5240020D0240020D4240020D824002045
:10DA800070170000A851002010B5084C1822002182
:10DA900020000EF0ADFB064B064AA3600023136086
:10DAA000054A1360054A137010BDC046B824002013
:10DAB000DDD90100D0240020D8240020D424002067
:10DAC000F8B504000F001500002805D178461B4B5F
:10DAD0001B68002B28D0984706F09EFB0022184EAA
:10DAE0003368002B01D0A34220D103218C4660462D
:10DAF0000F40A178814339436746A800394001436C
:10DB0000A170002B16D0DB68002A12D13360002DE3
:10DB100005D02000FFF758FE33689C4201D1FFF783
:10DB2000A7FE06F09DFBF8BD00DED5E71A00DB6816
:10DB3000D7E7D360002DF4D0EBE7C046A851002012
:10DB4000D824002070B504000E001500002805D16F
:10DB50007846074B1B68002B08D09847A3789B0793
:10DB60009B0F3370A3789B082B7070BD00DEF5E728
:10DB7000A85100201F234A0919401E3B8B409200E8
:10DB800010581840431E9841C0B27047104A83B2E3
:10DB900082B0000C904215D1FF221800904306D0AD
:10DBA000980B0C4B8003C0184342584107E07F227A
:10DBB0001900914304D17F3B1800431E9841C0B225
:10DBC00002B070473F229343C03B1800ECE7C046C9
:10DBD000FFFF00000080FFFF0023022807D8343336
:10DBE00043430448C0183030037801200340180034
:10DBF0007047C0461425002010B57846034B1B68BB
:10DC0000002B01D0984710BD00DEFCE7A851002092
:10DC100010B5804710BD000010B5040043880020F7
:10DC20001B05834207D1044A01301178014311706A
:10DC30006168C943516010BDB025002000224388AF
:10DC40001B05934203D18288024B1A8001221000E7
:10DC50007047C046DC240020F0B5002417002500E2
:10DC600085B0114B03AE0191338070802A003100E2
:10DC70000E4807F05DFE051E09D0B847002803D006
:10DC80000134F3E700DE0BE00124644208E0019B6D
:10DC90009C4205DD7846064B1B68002BF2D0984766
:10DCA000200005B0F0BDC04600F0FFFFEC240020CE
:10DCB000A85100200122064B10B506481A7007F043
:10DCC000FFFD002802D0044808F018F810BDC04637
:10DCD00010250020EC240020EC220020F8B506F0EE
:10DCE0009BFA3A4B1B78002B42D1394D2B78002BF5
:10DCF0000ED106220121374807F054FE002837D004
:10DD000001240323C4800381848007F08FFE2C70DC
:10DD1000314C2378DB439B0710D1C02104228901B9
:10DD20002C4807F03FFE00284DD06368DB4343607A
:10DD300007F07CFE02222378934323700226274DAE
:10DD40006C7934400FD0802132004901214807F01E
:10DD500029FE00280CD000242B88838007F066FE63
:10DD60006B79B3436B7100261D4D3035002C03D009
:10DD70001C4807F0C3FF21E003222B781340934295
:10DD800015D18021890111323143124807F00AFE72
:10DD9000071E16D029001422303904300EF01FFA65
:10DDA000380007F043FE02222B7893432B70013694
:10DDB000B6B23435032ED9D1002CD9D106F050FAA1
:10DDC000F8BD1124F3E71124CDE7C046102500204B
:10DDD00011250020EC240020B0250020DC240020A8
:10DDE00014250020FC22002010B50E4C9C2200219E
:10DDF00020000EF0FDF9062200210B480EF0F8F984
:10DE00000822002109480EF0F3F901220121231D07
:10DE10005242A0345A801A8059811A813433A34265
:10DE2000F8D110BD14250020DC240020B0250020EE
:10DE300010B50F4B86B003930E4B04930E4B059316
:10DE40000423029301F0AEFE0C4B0D4CC0180123CD
:10DE5000009069460B480193237007F027FE0028C5
:10DE600004D0094807F04AFF06B010BD2070FBE758
:10DE7000DDDE0100F9DB01008DDE010000FCFFFFAB
:10DE800010250020EC240020DC22002070B5104A70
:10DE90001178CB0702D502230B4313700D4B1A8860
:10DEA000002A03D0022259790A435A71002301241F
:10DEB000022509481A00303282181178214201D017
:10DEC0002943117034339C2BF4D1FFF7B1FF70BD9F
:10DED000B0250020DC2400201425002070B50500AA
:10DEE0008CB00E00012A07D17846104B1B68002B1E
:10DEF00019D098470CB070BD022AF5D0032AF9D189
:10DF000001AC2932002120000EF072F91923237090
:10DF1000173B2371EB68200023612B69A6606361C6
:10DF200004F0F8FDE6E700DEE4E7C046A851002073
:10DF30001F23012230B552424C0919408A40A500E6
:10DF40002B580420134008D05A421340034A64015E
:10DF50005343034ADB0ED05C001930BD31B57C075A
:10DF60004FC7020070B5438804001B051B0D00203D
:10DF7000022B10D8228A82420DD134225A43164DE8
:10DF8000AA18D189628A814206D1824203D1134AFA
:10DF90001278D20702D470BD002A04D104220F499E
:10DFA000087802430A7034205843211D142228188F
:10DFB0000EF015F90622218A094B4A43E4880948E4
:10DFC0009B18844204D19A7801329A700120E2E7CA
:10DFD000DA780132DA70F9E714250020B025002044
:10DFE000DC240020FFFF0000F0B5077D87B00400AF
:10DFF00005AE012F3BD1300001F074FEE38A328878
:10E00000934225D3718889188B4221DA00269B1A06
:10E010004A4D9BB20193083503972B0028331B7898
:10E02000039A134210D0AB88019A93420CD1618CB1
:10E030002800FFF79FFD002806D02B8C20889C46E7
:10E0400000236188634505D301363435032EE4D1BE
:10E0500007B0F0BDDA000292EA69DF00D219178832
:10E06000874202D152888A4251D00133EAE7012324
:10E0700031005B421430338001F018FF002805D0D6
:10E0800078462F4B1B68002B32D09847308801F020
:10E0900095FE002805D17846294B1B68002B29D016
:10E0A00098470023254D019308352B000122283382
:10E0B0001B78134215D0EF88002F12D1618C2800F5
:10E0C000FFF758FD00280CD01E4831880430FFF7B8
:10E0D00051FD002805D02B8C21889C46628867451D
:10E0E0000AD3019B343501330193032BDDD1AFE714
:10E0F00000DECBE700DED4E7E869FB00C318188830
:10E10000884202D15888904211D00137E7E7B7B270
:10E110006A6A2100380000F0C3FFEA69029B944656
:10E1200063445B686A6A2100380098478CE76A4656
:10E130005B68908821006A6A9847D2E7142500201E
:10E14000A8510020B0250020F0B503788DB0040060
:10E15000002B00D07CE042683F33157829009943BA
:10E16000402910D004D800290DD0002635000EE03B
:10E17000802900D16EE0C029F7D156789378360215
:10E18000ADB21E4303E0ADB27F2D61D0334E344BB0
:10E190001B689B0422D5334B1B68042B1ED9324FBE
:10E1A0002F2138000EF0F5F82F21002807D15C212F
:10E1B00038000EF0EEF83900002804D05C21380059
:10E1C0000EF0E7F8411C294A294B0520D358294A6B
:10E1D000019500922422FF3206F0CAFF206A1F4FE9
:10E1E00001F0CCFE03AB1D805E8061680322BE425D
:10E1F00004D1FC32AA429241524201328A185A603A
:10E2000021890322BE4204D1FC32AA4292415242E9
:10E2100001328A1A1A81227B1A73E289DA81226911
:10E220001A61227D1A75E28ADA82A2699A61A26A6B
:10E2300005345168D9610D2151560D226A44D177B8
:10E240000E22E17F6A4458841800D177FFF7CCFE94
:10E250000DB0F0BD53782D021D4397E7FFFF00007E
:10E26000702300206C23002020C7020000B0004073
:10E27000040500003CC702007C23F0B595B002AF56
:10E28000F86015000A89FF330E0009249A4200D96C
:10E290003FE1FFF7A1FC043C002800D139E1342321
:10E2A000FA685343A84AD3189A89002A00D030E16B
:10E2B000002D09D19988A54A0234914200D128E164
:10E2C000DB88934200D124E13068FFF75FFC07242C
:10E2D000002800D11DE110220823BA18D01801F03F
:10E2E00001FD3423FA68798B5343974A1024D318DD
:10E2F0009A89914200D80CE1398B521892B27A6017
:10E30000002D00D1BAE06B8C1021BB600C222B00D9
:10E3100079188A180C3303CB03C2280016230C305B
:10E32000F91801F0C3FD002802D001235B42FB82F3
:10E330003423FA685343844AD3181B7CFB60FF2BB9
:10E3400002D1834B1B78FB603B7F012B00D0E4E0C4
:10E35000FA8B398B8A4200D3A6E06B4610223B60D1
:10E360001423BA18D5180021202228000DF040FFF0
:10E370007388764831880322834204D1FF238B427D
:10E380009B415A4201323389B8689B186A46073369
:10E39000DB08DB00D31A10229D462823BA18D118B7
:10E3A00002AC01F0D3FF002806D07846694B1B6809
:10E3B000002B00D1BBE0984710210C222B007918CC
:10E3C0008A1803CA03C3BB88EC602B813B7B70882F
:10E3D000AB7233895D4A9C4631880323904204D155
:10E3E000FC338B429B415B42013363442B82574B8E
:10E3F000984200D19DE0030A21706370A070534AD7
:10E400000323904204D1FF208842804143420133DC
:10E41000E018624671680DF0E2FE0021280004F069
:10E4200031FF041E27D14C4B1B689B0423D54B4B5B
:10E430001B68042B1FD94A4D2F2128000DF0A9FF7E
:10E440002F21002807D15C2128000DF0A2FF290010
:10E45000002804D05C2128000DF09BFF411C414A9C
:10E46000414B0520D35832880192404A0092C6227F
:10E47000FF3206F07DFE3B689D464AE09A88D888C8
:10E48000BA6010220C23BA18D118F88201F0B0FC3F
:10E49000002800D14CE778462E4B1B68002B01D09A
:10E4A000984745E700DE43E77B8B5B189A4200DB29
:10E4B00053E710221423BA18D41800212422200074
:10E4C0000DF096FE336810227B627368BA186360A1
:10E4D00033891021238101232373BB887918E381B9
:10E4E0002823D3180C228A1803CA03C305F006FA9E
:10E4F00010221623BA18D3183A7BE061DA773B89E9
:10E5000020006384FFF770FD3B7F0024012B00D0C7
:10E5100023E72000BD4613B0F0BDF88A0B4B9842AC
:10E5200000D11AE701F04AFC0028C2D115E700DE4D
:10E5300042E7FF230A009A4303D00B0A237061705D
:10E540005DE721705BE7C04614250020FFFF000057
:10E550000C230020A8510020702300206C230020F1
:10E5600020C7020000B00040040500006FC7020091
:10E57000F7B507F0E7FB041E12D000263C4F01213F
:10E580003C483E7007F0AEF9B04200D16DE0C38860
:10E59000012B07D000243C70FFF78CFB2000FEBD50
:10E5A00020BFE6E703890193032BF3D18588012D72
:10E5B000F0D1C020304A290080013D70FFF74CFBAC
:10E5C0000028E7DB022180202C4B40015A799E7005
:10E5D0008A435A71DE701E80294A2900FFF73CFBEE
:10E5E0000028D7DB8020274A01998001FFF734FB00
:10E5F0000028CFDD244B9E1DA2330193F288234BCC
:10E600009A4204D1019B3436B342F7D1C6E7308831
:10E61000984209D001F086FB002805D078461C4BB3
:10E620001B68002B1DD098473789012FEAD00021A5
:10E63000FF00184B0437DF193800FFF779FC05009D
:10E640000428DFD0A8B201F09DFB002805D0784651
:10E650000F4B1B68002B06D09847691C0329EBD988
:10E66000D0E700DEE0E700DEF7E7040096E7C0460B
:10E6700011250020EC24002019DC0100DC240020FE
:10E680003DDC010065DF010014250020FFFF0000D4
:10E69000A8510020B025002010B5FFF7A5FB0648C3
:10E6A000064B036004F0DBFE00F03AFDFFF7ECF9E7
:10E6B000FFF7BEFB10BDC046E424002049E1010085
:10E6C000F7B504000F000E20002C00D1A6E0A368CF
:10E6D000002B00D1A2E0002900D19FE001235B4282
:10E6E0000B80E3680538002B00D197E0A38804383D
:10E6F000002B00D092E0564A55499278C9785218BA
:10E70000002A00D071E00025A368E6680193AE42BC
:10E7100000D089E03A884F4D4F4BAA4241D1342076
:10E72000002184460126604648433030185C304260
:10E7300000D082E08AB23A800420AA4200D16DE083
:10E7400034214A4305389A18D0803A884A439A18A7
:10E7500090803A88A0884A439A1890813A88208805
:10E760004A4398523A8860884A439A1850803A88B7
:10E7700051433A4A591812780A740622A1886088CF
:10E780004A4333498A18A8425CD19178013191708B
:10E79000342239884A4302219A18303210780143D2
:10E7A000117034223988206951435918C862398858
:10E7B000A0685143591848623988A08951435918B3
:10E7C0000885398860695143591888611100388873
:10E7D000414359188882398800204A439B180122F6
:10E7E000303319780A431A7018E0628821889446F9
:10E7F000194A100096899DB2002E10D116888E42BB
:10E800000DD1568866450AD134225343C0183030A2
:10E810003D8003780F20DB0700D474E7FEBD013391
:10E820003432032BE6D16EE7019AEB009858FFF7DC
:10E83000ADF900280AD0013569E70131032900D07C
:10E8400071E778E7D1780131D170A1E70720E5E7DA
:10E85000DC240020FFFF0000142500200C230020F2
:10E8600010B50E23002903D00022FFF705FD030099
:10E87000180010BD10B50E230C001100002C05D09F
:10E88000002A03D02200FFF7F7FC0300180010BD98
:10E8900070B505000C00FFF79FF90522002811D084
:10E8A0000232032C0ED834235D43074B00225B1940
:10E8B000D988A14206D0DC803033197802320A436D
:10E8C0001A700022100070BD1425002070B50E23B0
:10E8D00005000C1E0BD0FFF77FF90523002806D09A
:10E8E0003420454303484019C3882380002318007F
:10E8F00070BDC04614250020F7B504000520022C89
:10E9000036D8342363431B4DEB181F001E003037ED
:10E910003F781036FF072BD59B690130002B27D09D
:10E9200001303F2A24D8032922D8737898089042CE
:10E9300004D19B079B0F00208B4219D034206043E9
:10E940002C1801900320637C970003403B43070091
:10E95000DBB2834301980F403B43143063742818A3
:10E96000FFF7AEF8022300203034227813432370DF
:10E97000FEBDC0461425002070B5150006000C0031
:10E980000E22002915D0002D13D0FFF725F90522FE
:10E9900000280ED0342373430749CA189069062211
:10E9A000002806D01433C8182A002100FFF7CAF83F
:10E9B0000022100070BDC0461425002070B5040070
:10E9C000FFF70AF90522002811D0342044430948F2
:10E9D00000220019C389012B09D1074C0432257884
:10E9E0002900194003D10A002B432370C181100074
:10E9F00070BDC04614250020B0250020F8B50400E5
:10EA00000F00FFF7E9F8052300281ED03420444307
:10EA10000F4801330019C489012C16D00133032F8C
:10EA200013D80C4EE400251D751939002800FFF796
:10EA3000A1F80023984208D10122BA4029680A436C
:10EA40002A600222A15D0A43A2551800F8BDC04603
:10EA500014250020B0250020F8B504000F00FFF7B2
:10EA6000BBF8052300281ED0342044430F4801334F
:10EA70000019C489012C16D00133032F13D80C4E72
:10EA8000E400251D751939002800FFF773F80023ED
:10EA9000984208D00122BA40296891430222296095
:10EAA000A15D0A43A2551800F8BDC04614250020F8
:10EAB000B0250020F7B50E2304000F001500002933
:10EAC0002DD0002A2BD0FFF787F80523002826D069
:10EAD00034204443144801330019C289012A1ED04E
:10EAE00000242B88114E0E3000932C8001900436A8
:10EAF000019B1B88002B0ED121003000FFF73AF854
:10EB0000002808D02B88009A9A420AD95B00DC536F
:10EB10002B8801332B800134042CE9D10023180009
:10EB2000FEBD0923FBE7C04614250020B0250020C8
:10EB3000F8B505000F00FFF74FF8052300281AD09D
:10EB40000233012F17D834266E4335000B4C08359D
:10EB5000651939002800FFF70DF8002398420AD103
:10EB60000122BA402968A4190A432A6002223034DB
:10EB700021780A4322701800F8BDC04614250020F1
:10EB8000F8B505000F00FFF727F8052300281AD075
:10EB90000233012F17D834266E4335000B4C08354D
:10EBA000651939002800FEF7E5FF002398420AD0D6
:10EBB0000122BA402968A419914302222960303405
:10EBC00021780A4322701800F8BDC04614250020A1
:10EBD000F7B507000E0015000E2400291BD0002AEF
:10EBE00019D0FEF7F9FF093C002814D03420002486
:10EBF00078430B4F2B8808302C8038182100019364
:10EC0000FEF7B8FFA04206D0019BA34205D0348096
:10EC10002B8801332B802000FEBD0924FBE7C04672
:10EC20001425002070B505000C00FEF7D5FF052265
:10EC3000002811D00232012C0ED834235D43074B3B
:10EC400000225B199988A14206D09C803033197844
:10EC500002320A431A700022100070BD14250020F1
:10EC600070B50E2305000C1E0BD0FEF7B5FF052373
:10EC7000002806D034204543034840198388238068
:10EC80000023180070BDC046142500207F231840C3
:10EC9000014B18707047C0460C230020014B1878B8
:10ECA0007047C0460C23002070B505000C00FEF72D
:10ECB00093FF0522002814D02300803BDBB20232F0
:10ECC0007E2B0ED934235D43074B00225B19197C40
:10ECD000A14206D01C743033197802320A431A70EC
:10ECE0000022100070BDC0461425002070B50E2310
:10ECF00005000C1E0BD0FEF76FFF0523002806D081
:10ED00003420454303484019037C23700023180036
:10ED100070BDC046142500200E23002906D0093BF3
:10ED2000002803D1024B1B880B800300180070479A
:10ED3000DC2400200E23002906D0093B002803D143
:10ED4000024B9B780B70030018007047DC240020F6
:10ED50000E23002906D0093B002803D1024BDB78A3
:10ED60000B70030018007047DC24002070B50E23E0
:10ED700005000C1E11D0FEF72FFF052300280CD034
:10ED800034206843064BC25A1B182270120A627064
:10ED90005B88A3701B0AE3700023180070BDC04697
:10EDA0001425002073B50E2301AC0191002A02D076
:10EDB000002802D00523180076BD01235B42138092
:10EDC0002588094964888B89002B07D10E88AE42BB
:10EDD00004D14E88A64201D11080ECE7013080B208
:10EDE00034310328EFD1E5E714250020F7B50E23D1
:10EDF000002924D0002A22D0093B00281FD1342624
:10EE000001271388108001931388019C9C4218D914
:10EE1000340044430C4D2C193025AC46A4446546BF
:10EE20002D783D4207D0A489002C04D15B005852B4
:10EE300013880133138001300328E5D10023180023
:10EE4000FEBD0923FBE7C0461425002070B50E2344
:10EE500005000C1E0BD0FEF7BFFE0523002806D0D0
:10EE60003420454303484019C36A23600023180037
:10EE700070BDC04614250020F8B528234343304C0C
:10EE80000500E3183C331B78002B05D178462D4B49
:10EE90001B68002B49D09847230090331B88002B18
:10EEA00005D17846274B1B68002B40D09847282275
:10EEB0006A43A2181100002320003C3190300B70EF
:10EEC0000188013989B20180994234D02100923100
:10EED0000988A94228D1506B1B4A210080181B4A7F
:10EEE000343116000D7A002D04D00D682F1A01D58B
:10EEF0001A00280001339BB22831032BF2D12300E2
:10EF000092331A80B24205D178460E4B1B68002B13
:10EF10000FD09847230092331A8828235343E318CD
:10EF2000596B200004F05EFCF8BD00DEB4E700DEA3
:10EF3000BDE700DEEEE7200004F020FCF4E7C04669
:10EF4000B8250020A851002000879303FFFF000090
:10EF5000F0B54F4D85B02B0090331B880700002B78
:10EF600005D178464B4B1B68002B32D09847FA23CB
:10EF70009B00FB18019301222B002C0000269233EA
:10EF800052421A801834220024321378002B1BD0EE
:10EF9000636901995B1A20D5002313702A0090320F
:10EFA000138803A9013B13802088FFF74FFF002837
:10EFB00005D07846374B1B68002B0CD0984720882B
:10EFC00001220399A369984701362834032EDAD128
:10EFD00025E000DECBE700DEF1E7E269019BD31A12
:10EFE00043D5211D2088FFF73BFC2B0092331E8068
:10EFF00000280BD1236AE269D2185B00E261236228
:10F000006269E369D31ADFD5E261DDE7042823D121
:10F0100028235E43AE19736B1F4A9B1873632B0042
:10F0200090331B88002B14D02B0092331B88022BAB
:10F0300005D97846174B1B68002B27D098472B0023
:10F0400092331A8828235343EB185A6BD31B00D5ED
:10F05000BB1AEB6005B0F0BD78460E4B1B68002B69
:10F0600001D09847CCE700DECAE72B0092331B881B
:10F070000A498B4206D028214B43EB185B6BD21A0E
:10F0800000D4A1E72B0092331E809DE700DED6E777
:10F09000B8250020A8510020409C0000FFFF000080
:10F0A000F8B505000E001700022805D978461A4B5E
:10F0B0001B68002B27D0984705F0AEF80020174BAF
:10F0C000282444431C1921003C3109788C466246AF
:10F0D000411C002A19D0228BAA4216D128224A4369
:10F0E000D15A8C4631888C4512D19B185A88738826
:10F0F0009A420DD180B2FFF7BFFE236B0022390088
:10F100002800984704E000DED6E708000329D7D19D
:10F1100005F0A6F8F8BDC046A8510020B82500208B
:10F1200010B5044C9422002120000DF061F8024B30
:10F13000A36010BDB825002051EF01001F234A092C
:10F1400019401E3B8B40920010581840431E9841B6
:10F15000C0B270474B099B00C0181F2319401E3BCB
:10F160008B4002681343036070474B099B00C01833
:10F170001F2319401E3B8B4002689A430260704770
:10F180000A00F0B5002301271F325209551E934291
:10F1900001D10120F0BD01246442AB4205D13E0003
:10F1A0005C010C1BA6403400013C9E00865926429F
:10F1B00001D10133EBE70020ECE7000010B500219E
:10F1C000032803D10248FFF7B9FF0100080010BD72
:10F1D0005C26002001235B4270B505000C000B800B
:10F1E00008480021FFF7AAFF002806D0064B1A881E
:10F1F0000023AA4203D1238070BD2080FCE71800C1
:10F20000FAE7C046EC260020F426002001235B42EA
:10F2100070B505000C000B8007480021FFF78EFF3A
:10F22000002803D0054B1B88AB4202D10123238069
:10F2300070BD0020FCE7C0469026002098260020E4
:10F2400001235B4270B505000C000B8008480021CB
:10F25000FFF774FF002806D0064B1A880023AA4245
:10F2600003D1238070BD2080FCE71800FAE7C04678
:10F270007026002078260020024B8000C35A0B80A5
:10F280007047C0466426002010B5041E05D178469C
:10F29000044B1B68002B02D09847A04710BD00DE2E
:10F2A000FBE7C046A8510020F7B516255C1E654354
:10F2B0000D4E0190A81D0F003018110010220CF007
:10F2C0008EFF002273195A7101321A715F806B46EA
:10F2D0009B882100AB530548FFF73CFF2100044801
:10F2E000FFF738FFF7BDC046982600209026002083
:10F2F0009426002010B54C88013083B20A1D08887E
:10F300002100FFF7D1FF10BD70B516250E00454353
:10F31000064CA91D6118301D10220CF060FF2B5BFC
:10F32000641933806388738070BDC04698260020BE
:10F3300070B516250E004543064CA91D6118301DF9
:10F3400010220CF04CFF2B5B6419338063887380B0
:10F3500070BDC0467826002070B55C240D00444383
:10F36000044EA11C7118A81C10220CF038FFA35BDE
:10F370002B8070BDF426002010B50C0014214143F1
:10F38000034B04315918102220000CF028FF10BD47
:10F390005027002010B5042201480CF020FF10BDBA
:10F3A000E626002010B50800042202490CF017FFE1
:10F3B00010BDC046E6260020F7B5162417005C43B2
:10F3C000164E0090A01D01913018390010221D002A
:10F3D0000CF005FF611D7118380005F02BFE0028A8
:10F3E00005D078460E4B1B68002B14D09847162387
:10F3F00000216B43F2181171694609880948F152DE
:10F400006B469B8829005380FFF7A4FE290006481D
:10F41000FFF7A0FEF7BD00DEE9E7C0467826002032
:10F42000A8510020702600207426002010B54C88BA
:10F4300083B20A1D08882100FFF7BEFF10BD00003F
:10F44000F7B55C2454432300204D34331600EB18E9
:10F450002A1901900F001364002802D101221C4BCD
:10F460001A70210012316918380005F0EEFD0028ED
:10F4700005D07846174B1B68002B22D098472100F7
:10F4800044316918380005F0F1FD002805D07846B0
:10F49000104B1B68002B16D09847A01C3900281869
:10F4A00010220CF09CFE5C236A4673439288310064
:10F4B000EA520948FFF74EFE31000848FFF74AFEBE
:10F4C000F7BD00DEDBE700DEE7E7C046F4260020FC
:10F4D000E4260020A8510020EC260020F026002081
:10F4E0000B0010B582B202311888FFF7A9FF10BDDA
:10F4F000F8B514270600CC1E67430F4D381D3100A8
:10F50000281810220CF06BFEE919300005F0D8FD28
:10F51000002805D07846094B1B68002B09D0984776
:10F5200021000748FFF716FE21000648FFF712FEEC
:10F53000F8BD00DEF4E7C04650270020A8510020A7
:10F540005C260020602600200B0010B5033081B23D
:10F550001800FFF7CDFF10BDF7B506000D0004F051
:10F560005BFE052E05D97846184B1B68002B1DD075
:10F570009847174B1C7873010193002C18D0019AFF
:10F58000144B15489F18798A7A69491989B206F08F
:10F5900009FA061E0CD0011DBB69280098473000EF
:10F5A00006F044FA04F05CFE2000FEBD00DEE0E759
:10F5B000084A019B9446634498682900FFF7CAFDF6
:10F5C000064806F09BFB0024ECE7C046A85100204B
:10F5D000AE26002084C70200B0260020D4260020DA
:10F5E000F8B504000E0004F017FE052C05D9784686
:10F5F000114B1B68002B13D09847104B104F1D78F0
:10F600006401002D0ED13C193100A068FFF7A2FD66
:10F610000C4806F073FB002504F022FE2800F8BD1C
:10F6200000DEEAE73B19598A0748891989B206F0D2
:10F6300005FA0028F0D0E6E7A8510020AE26002009
:10F6400084C70200D4260020B0260020F7B500258C
:10F65000EBB20093184B6A019F18BE68D358300074
:10F6600019000193FFF78CFD002821D0052D21D131
:10F67000F7BD21003000FFF761FD00280FD0210009
:10F680007868FFF75BFD210000280DD00098FFF798
:10F6900063FF0028ECD021003000FFF766FD013445
:10F6A000019B9C42E5D1E1E70098FFF799FFF0E765
:10F6B0000400F5E70135CBE784C702000022064BC2
:10F6C00010B506481A7006F0FBF8002802D004486E
:10F6D00006F014FB10BDC046AE260020B026002068
:10F6E0001023002001235B4270B50B8006000D0043
:10F6F0000A480021FFF722FD041E02D128802000C5
:10F7000070BD07481022310004300CF059FD00286C
:10F7100001D12880F3E70024F1E7C0465C260020F1
:10F7200050270020F0B585B002AB9C1D01235B4241
:10F7300006000F00019223800E20002E23D0002906
:10F7400021D021003000FFF7CDFF2388DD1CADB2B2
:10F7500000280BD1104A0430934214D02900300005
:10F76000FFF7C6FE21880220FFF7F6FE01993D80D3
:10F770000A4B1422002908D121884A439B18DA78C1
:10F780000132DA70002005B0F0BD21884A439B1891
:10F790009A7801329A70F5E7FFFF000050270020A9
:10F7A00010B5002809D17846084B1B68002B02D001
:10F7B0009847074810BD00DEFBE7064B1233C01A1E
:10F7C000431E9841404280B2F4E7C046A851002051
:10F7D000FFFF0000F426002010B5002809D178466C
:10F7E0000A4B1B68002B02D09847094B0BE000DE48
:10F7F000FBE7084A00230432904204D0064B04334E
:10F800009842F2D10123180010BDC046A851002033
:10F81000FFFF0000782600209826002030B5050064
:10F820008DB0012907D17846104B1B68002B1AD0E8
:10F8300098470DB030BD0229F5D00329F9D101ACAC
:10F840002C22002120000CF0D3FC19232370173B3D
:10F850002371074B2000DA681B69A5602261636190
:10F8600003F058F9E5E700DEE3E7C046A8510020C1
:10F87000B026002010B511000020FFF7CFFF10BD0B
:10F8800010B508001100FFF7C9FF10BDF7B506005D
:10F890000091019203F068FC070002283ED100218C
:10F8A0004248FFF74BFC00240300A04205D0404A29
:10F8B0001288B24201D03F4C0023019A1020002A46
:10F8C0004ED0019A012A04D1FC3217401020012F9A
:10F8D00046D1002B60D1374A0420944240D0364AAA
:10F8E000A1008E525218D370937021003348FFF755
:10F8F00031FC21003248FFF72DFC21000120FFF7E9
:10F900002BFE009B1C80019B002B47D12A4BA4009F
:10F910001C19E3780133E370002021E0FD23254C1E
:10F920000340012BC8D10025224B9C420BD129005A
:10F930002248FFF703FC002805D1ACB20135032DA6
:10F94000F2D1002306E01C4AAB009B5AB342F5D12A
:10F950000123ACB2019A002ABBD11020032F00D0A2
:10F96000FEBD002B15D1134A04209442F8D0124A50
:10F97000A1008E525218D370937021000F48FFF7E8
:10F98000E9FB21000E48FFF7E5FB21000120FFF70E
:10F99000E3FD009B1C80B9E7009B1C80064BA40084
:10F9A0001C19A3780133A370B6E7C0465C2600207B
:10F9B00050270020FFFF0000642600204C26002076
:10F9C0005026002010B50400022809D8010006487E
:10F9D000FFF7B4FB002803D001200123184010BD1D
:10F9E0002000FFF7EBFBF8E74C260020010010B5E4
:10F9F0000020022902D80248FFF7A0FB10BDC04634
:10FA00004C260020F8B50400FFF7F0FF071E14D0C5
:10FA10000025174EA700F3199A78AA420BD1DB787C
:10FA2000AB4208D121001348FFF79FFB21000120C2
:10FA3000BD53FFF7D5FD2800F8BD2000FFF7BEFB42
:10FA400005250028F7D01426033C66430A4B3D00E9
:10FA50009B199A78002AEED1DB78002BEBD121009C
:10FA60000648FFF782FB044B2100F7520220E0E733
:10FA7000642600204C260020502700205C26002011
:10FA800010B5094B098884B2A200D1529B180022FC
:10FA90002100DA709A700548FFF75CFB21000448EA
:10FAA000FFF758FB10BDC046642600204C260020FE
:10FAB00050260020F8B506F045F900281DD0344B3B
:10FAC0001B78002B17D00121324805F00BFF051ED3
:10FAD00011D04389032B0CD18389012B09D1C38811
:10FAE000012B06D10389012B03D183880024012B2C
:10FAF00005D0FFF7E3FD0020F8BD20BFDBE72200C3
:10FB00000021244805F014FF041E3BD08542F6D0A6
:10FB10008022438802261F0B3F039201974207D0A1
:10FB200015D8002F21D08023013E5B019F421FD1B9
:10FB3000194B76019E19738A6788211DFF1A3800B8
:10FB4000F369984739007068FFF704FBD7E7802313
:10FB50000426DB019F42EBD0A0230136DB019F424C
:10FB6000E6D0C023023E9B01E0E73E00022BDFD03F
:10FB700078460A4B1E68002E02D0B0470026D7E711
:10FB800000DED5E7064B186801231840B4E7C046ED
:10FB9000AE260020B026002084C70200A851002015
:10FBA0005426002010B503F011F9014BC01810BD08
:10FBB00000FCFFFF30B51C4B87B003931B4B0124A7
:10FBC00004931B4B059300230293FFF7EBFF019473
:10FBD000009004F021FB174D6946280005F066FFF0
:10FBE000002809D0002404F03BFB002C17D0012290
:10FBF000114B1A7007B030BD2B78012BF3D10A22BC
:10FC00002100280005F0CEFE0028EBD003238481DC
:10FC100043818480C480048105F008FFE3E707483E
:10FC200006F06CF8E6E7C04681F8010075F80100BF
:10FC300069FC0100B0260020AE2600202023002011
:10FC4000054B064A10B59A60054ADA600022054B5A
:10FC50001A70FFF7AFFF10BDD426002089F2010013
:10FC60004DF60100AE26002010B5FFF7A3FF10BD32
:10FC7000F8B5051E05D17846174B1B68002B0DD033
:10FC800098470124154E0F2033681C4005D1288861
:10FC90006B881B18984203DB0B20F8BD00DEF0E7F1
:10FCA00003F062FA0128F7D128886B88C018013860
:10FCB00080B203F059FA07000128EDD1042229008F
:10FCC00007480CF08CFA336821001F43376020008E
:10FCD000FFF742FC2000E0E7A85100205426002056
:10FCE000E626002010B5041E05D17846064B1B6899
:10FCF000002B06D098470422044920000CF06FFA2C
:10FD000010BD00DEF7E7C046A8510020E62600201F
:10FD100010B50E23002903D00122FFF7B7FD030021
:10FD2000180010BD10B50400FFF74CFE0523002895
:10FD30000AD0022C0AD9033C0F336343054C1C192B
:10FD4000A3780133A3700023180010BDA400024B58
:10FD5000F5E7C046502700206426002010B5012298
:10FD6000FFF7E0FC10BD10B50E23002903D00022E0
:10FD7000FFF78CFD0300180010BD10B50022FFF73F
:10FD8000D1FC10BD10B50400FFF71CFE05230028B0
:10FD90000AD0022C0AD9033C0F336343054C1C19CB
:10FDA000E3780133E3700023180010BDA400024B78
:10FDB000F5E7C046502700206426002010B5040057
:10FDC000FFF700FE00280AD0022C09D91423033CB7
:10FDD0006343054C1C19E078431E9841C0B210BD26
:10FDE000A400024BF6E7C0465027002064260020FE
:10FDF00070B504000D000E2000290ED02000FFF782
:10FE0000F5FD061E0AD00F4BA400E25A6A80E05AA4
:10FE100003F0AAF928700020686070BD2000FFF789
:10FE2000CDF903000520002BF7D01423033C5C43DD
:10FE3000054A3000A35A04346B80022314196C6005
:10FE40002B70EAE7642600205027002013B5040039
:10FE5000FFF7B8FD03000520002B17D069462000EE
:10FE6000FFF7C6FF0300002083420FD16B461B78CB
:10FE7000032B0CD10B4BA2009B18DA780530002A1B
:10FE800004D0013ADA702000FFF7BCFD16BD0F2048
:10FE9000022BFBD11233E21E5A43034B0A389B1844
:10FEA000DA78ECE76426002050270020F0B5060041
:10FEB00085B00D000E24002829D0002927D04088C5
:10FEC00003F052F9022825D0032802D0102401287B
:10FED0001DD17388002401930123174E5B42174FF5
:10FEE0002B8021001648FFF729F9002807D0A3002E
:10FEF000DB5B019A934206D12C80002407E02B881B
:10FF0000B34200D12C800134032CEAD1023420000A
:10FF100005B0F0BD02AB9F1D012370685B423B80C2
:10FF20000028F4D03900FFF7DDFB05240028EED0CF
:10FF30003B8803332B80E0E7FFFF000064260020AE
:10FF40004C26002013B56B469C1D2100FFF742F99B
:10FF5000002801D0208816BD0048FCE7FFFF000004
:10FF600013B56B469C1D2100FFF76AF9002801D0EC
:10FF7000208816BD0048FCE7FFFF000010B50028F0
:10FF800002D0FFF729FC10BD0048FCE7FFFF00008E
:10FF900070B505000E000E2400290CD0093C002885
:10FFA00009D101000548FFF7C9F8002803D02C004B
:10FFB000034B1B883380200070BDC0467026002094
:10FFC00078260020F0B5050085B00F0016000E2041
:10FFD000002920D0002A1ED0104B07389D421AD885
:10FFE00002AB9C1D21002800FFF7F4F80190019B53
:10FFF0000F20002B0FD12288094B0B389A420AD0D0
:020000022000DC
:1000000039002800FFF71CFA21880320FFF7A4FA23
:1000100023880198338005B0F0BDC046FF0F000073
:10002000FFFF000070B504000E000E25002913D05C
:10003000093D002810D101000848FFF77FF800288B
:100040000AD0074B220018883100FFF7F9F9210088
:100050000320FFF781FA2500280070BDEC26002060
:10006000F4260020F8B505000C000E27002812D059
:10007000002910D000270E6809480F603900FFF7EB
:100080005DF8B84207D0BE4207D0064B1B882B80D4
:100090002368013323603800F8BD0927FBE7C04619
:1000A000EC260020F4260020F0B585B007000D00F6
:1000B000009201930E24002A2CD0019B002B29D002
:1000C00003F052F80234012824D10B3C002D21D139
:1000D00029001248FFF732F800281BD002AB9D1D03
:1000E00029003800FFF792F80A34061E12D12B8837
:1000F0000B4A0B3C93420DD03400009A01003800AB
:10010000FFF7D2F8298805200139FFF725FA2B8857
:10011000019A1380200005B0F0BDC046EC260020F7
:10012000FFFF000070B50525012812D10A4E0021FD
:100130003000FFF703F800280BD00024074B210004
:100140001C803000FFF711F828002100FFF748FA63
:100150002500280070BDC04690260020982600206B
:10016000F0B585B00700009201930E24002A29D033
:10017000019B002B26D0093C002923D11348FEF710
:10018000DDFF00281ED0124B02349F421AD802AB6A
:100190009D1D29003800FFF753F80834061E11D1C1
:1001A0002B880C4A0B3C93420CD0009A010038007B
:1001B000FFF702F9200034002988FFF7CDF92B88DA
:1001C000019A1380200005B0F0BDC046EC26002047
:1001D000FF0F0000FFFF000070B504000E000E25A9
:1001E000002914D0093D002811D101000948FEF76B
:1001F000A5FF00280BD0084B32005988188823002F
:10020000FFF7DAF821000420FFF7A6F925002800FF
:1002100070BDC046702600207826002070B504000E
:10022000052500280FD1094E01003000FEF786FF9A
:10023000002808D021003000FEF797FF210004209D
:10024000FFF7CEF92500280070BDC04670260020BB
:1002500070B504000525002835D11E4E0100300080
:10026000FEF76CFF00282ED021001B48FEF766FF2A
:1002700000280DD0194B5888002809D1FFF7CEFF70
:10028000002805D07846164B1B68002B1DD09847D8
:10029000144B1A88002A0DD05B88002B0AD101204C
:1002A000FFF740FF002805D078460D4B1B68002B58
:1002B0000DD0984700213000FEF757FF00210320A2
:1002C000FFF78EF90025280070BD00DEE0E700DEB4
:1002D000F0E7C046EC26002070260020782600209B
:1002E000A851002098260020F7B506000F00150041
:1002F0000E24002920D0002A1ED0093C00281BD142
:1003000001000F48FEF71AFF002815D02B683100B6
:100310002E600C480193FEF711FF340000280BD02B
:10032000094B5A88002A07D1019A002A06D01B8857
:100330003B802B6801332B602000FEBD0924FBE7C6
:10034000EC260020702600207826002070B50D00D5
:10035000052401282AD8002900D157E000282BD1F4
:1003600001002B48FEF7EAFE00281FD0294C6388C5
:10037000002B05D07846284B1B68002B18D09847D7
:1003800061882648FEF7DAFE002805D17846224B20
:100390001B68002B0ED09847231D6B605C2362887E
:1003A00053431F4A1233D3182B600024200070BD22
:1003B00000DEE5E700DEEFE700211A48FEF7BEFEAB
:1003C0000028F3D0184C6388002B05D07846124BD8
:1003D0001B68002B16D0984761881048FEF7AEFEC8
:1003E000002805D178460C4B1B68002B0CD0984791
:1003F0005C23628804345343094A1233D3182B60B8
:100400006C60D2E700DEE7E700DEF1E70E24CDE71F
:100410007026002078260020A8510020EC2600201D
:10042000F4260020902600209826002070B50400B5
:100430000D1E05D178460F4B1B68002B09D098473D
:100440002968002907D00800FFF7AAF900232B60CC
:100450000FE000DEF4E7084E0848B37C5C407F23E1
:100460001C40FEF76BFE0028F0D0002CEED11236B7
:100470002E6070BDA8510020F4260020EC2600203C
:10048000F7B505000C00161E05D178461A4B1B68FF
:10049000002B12D09847002D05D17846164B1B68CB
:1004A000002B0CD098472800FFF77AF9134B070070
:1004B000984206D100233360F7BD00DEEBE700DE93
:1004C000F1E73168002903D00800FFF785F9F1E76B
:1004D0000B4D0C486B8801936B795C403F231C40AB
:1004E000FEF72CFE0028E5D0019B9F42E2D1002CB4
:1004F000E0D104353560DFE7A8510020FFFF0000A0
:10050000782600207026002070B504000D1E05D14D
:100510007846084B1B68002B0AD09847231E05D04D
:10052000054A00231188A14200D1131D2B6070BD24
:1005300000DEF3E7A851002098260020F7B50E1E34
:10054000019005D17846174B1B68002B06D09847C1
:100550003568002D0CD000233360F7BD00DEF7E7CF
:1005600039000822543101980BF02AFE00280CD0E3
:10057000002DF0D129000C48FEF7E0FD0125041EF6
:10058000E9D0019B094F002BEAD1094B1B78002BC6
:1005900003D13B003C331C70DEE73C8863425C4186
:1005A000E4B2F6E7A8510020EC260020F426002053
:1005B000E4260020F7B505000C0002F0D5FD03008D
:1005C000022837D0032813D0012820D12D4A00203B
:1005D00012681A424ED02C4A11888D424AD3528852
:1005E0005218954246DA606065802370180041E039
:1005F0000026264F254B9F420BD131002448FEF7A1
:100600009DFD002805D1B7B20136032EF2D100209E
:1006100030E0204AB3009A5AAA42F5D11D4AD318B5
:10062000DB78002BF0D00323237000236580636008
:1006300001201FE06B4660689E1D00281BD101232E
:100640005B4233800122524233883280124E378817
:10065000002BDCD000211148FEF770FD0028D6D019
:10066000BD42D4D1F378002BD1D00223043665806B
:1006700023706660FEBD3100FFF734F80028DED03D
:10068000E0E7C04654260020E6260020FFFF0000D9
:100690004C26002064260020502700205C260020E5
:1006A0000B2210B58CB001AB1A7088229200821810
:1006B0000492B022920082180392124A0290815A48
:1006C0000232825A12040A430592B4229200825ADC
:1006D0009A820D4A825ADA82B6229200815C012007
:1006E0000C00C140014081401A7E044082432243F5
:1006F000001882430A4318001A7602F00BFA0CB075
:1007000010BDC046D2020000D602000070B50B4EEC
:100710008CB0825D04000D00132A03D1002901D1A1
:10072000FFF7BEFF002301A8A35505330370446003
:10073000057202F0EFF90CB070BDC046B3020000C4
:10074000032200B5054B8DB0C25401AB01320290BB
:1007500018001A7002F0DEF90DB000BDB3020000FF
:100760000D4B70B5C1540D238CB001AD04002B703E
:100770006860297200F0CFFB084E002806D12800DF
:1007800002F0C8F91623A3550CB070BD0221200059
:1007900000F066FBF3E7C046B2020000B3020000BF
:1007A000AD2370B59B000400C05C03238CB098425D
:1007B00013D81C4D0BF0F8FA2D271402072301A8BB
:1007C0000370194B4460E35C4372184BE35C0372A3
:1007D0000C23635502F09EF9002318000CB070BD85
:1007E000134B2000E618310000F0C0FD062301A8DD
:1007F00003700D4B4460E35C43720C4BE35CC660DA
:1008000003721023E5E7082301A803704460053351
:10081000DFE7074B1022E01800210BF0E9FC102362
:100820006355D9E7B3020000AE020000AF0200003A
:100830006D02000010B58CB0040000F0A1FC00288F
:1008400012D00C2301A80370B133FF33E3580B22FD
:10085000C3602300C133FF3383600D4B4460E25417
:1008600002F058F90CB010BD80239B00E118200065
:1008700000F05CFD002809D12000FFF791FF052161
:100880000028EFD02000FFF76BFFEBE70221F9E72C
:10089000B3020000F0B50D0097B00400110028006D
:1008A00000F0AAFA002804D101212000FFF758FF28
:1008B0008CE02878A84E092800D948E10BF088FA86
:1008C0000A0047014B006D0047018800B300D800C3
:1008D00047013D01A35D032B78D1A04B691CE518AE
:1008E000012228000BF07BFC01230BA90B709C4B11
:1008F0002000E35C4B709B4BE35A1A021B0A134324
:100900004B80AE23AF229B00E35C92000B71964BB1
:10091000E35C4B71954BE35C8B71954BA25CE35CA4
:1009200012021A431302120A134333229BB26A447F
:1009300013701B0A53708F4BE35C4B728E4BE35A60
:100940001A021B0A13432A004B8100F090FA002878
:100950003CD00521A9E7A35D062B37D1874B0522A3
:10096000E018691C0BF03BFCAC23AA789B00002A22
:1009700011D1E254AD23EA789B00E254EA781023C7
:10098000012A00D06B797E4AA3542A797D4BE25428
:100990000923A3551AE00122EBE7A35D092B15D12A
:1009A0002000C130691C4022FF300BF018FCAC2342
:1009B0009B00E35C002B06D1B933FF33E1582000E4
:1009C00000F063FAC3E72000FFF734FF17B0F0BD73
:1009D000A25D102A1DD16C4B691CE0180BF0FFFBC7
:1009E0006A4B6B4920006118E3180BAA00F0CEFB9C
:1009F0000BA9200000F063FA0028E7D00428A8D053
:100A00007846644B1B68002B01D09847A1E700DEB5
:100A10009FE70D2ADAD15C4B691CE01803320BF01A
:100A2000DEFB0E23B5E7A35D122BCFD15A4B691C19
:100A30001022E0180BF0D3FB200000F0E5FC0421AD
:100A4000002800D131E7514B2000E11800F049FAAD
:100A5000002800D07DE7882390228C219B00920003
:100A60008900E318A2186118200000F0FFFBADE731
:100A7000A35D132BAAD18C239B00E3180B93902327
:100A80002D229B000BA8E318082143606B1C836098
:100A900019236A44D1776A460927838100231A35CE
:100AA000C561D51D29006F4403618382D3718761BD
:100AB00003F0C6FC2B7802AE0621002B00D1F4E631
:100AC000B0239B0039001022E0180BF088FB079B35
