:020000021000EC
:10B00000007D00206D170200AD1702001DBA01007F
:10B010000000000000000000000000000000000030
:10B02000000000000000000000000000B117020056
:10B030000000000000000000B3170200B517020076
:10B04000B7170200B7170200B7170200B7170200C0
:10B05000B717020000000000B7170200B717020080
:10B06000B7170200B7170200B7170200B7170200A0
:10B07000B7170200B7170200B7170200B717020090
:10B08000B7170200B7170200092E0200B717020017
:10B09000B7170200B71702007DBA0100B717020008
:10B0A000B7170200B7170200000000000000000000
:10B0B0000000000000000000000000000000000090
:10B0C00010B5064C2378002B07D1054B002B02D07E
:10B0D000044800E000BF0123237010BDB823002006
:10B0E0000000000070BD0200084B10B5002B03D01B
:10B0F0000749084800E000BF07480368002B00D15B
:10B1000010BD064B002BFBD09847F9E7000000006C
:10B11000BC23002070BD0200B4230020000000000A
:10B12000164B002B00D1144B9D46402292029A1AD6
:10B13000924600218B460F461348144A121A0FF00C
:10B14000C3FC0F4B002B00D098470E4B002B00D0B8
:10B1500098470020002104000D000D48002802D06F
:10B160000C4800E000BF0FF05FFC2000290000F059
:10B17000A7FA0FF043FCC04600000800007D002045
:10B180000000000000000000B823002090540020C0
:10B190000000000000000000F0B5040000788DB051
:10B1A00004AF0B2800D940E20FF07EFA5D005D008D
:10B1B0003F025D000C0032003F023F020A023F02E4
:10B1C0003F023001814B1B685B044CD5804B1B68F0
:10B1D000032B48D97F4C2F2120000FF046FD2F2153
:10B1E000002807D15C2120000FF03FFD210000283E
:10B1F00004D05C2120000FF038FD411C764A774BCB
:10B20000D358774A00928522042008F0FDFD2AE0F9
:10B210006E4D2B685B0420D56D4B1B68032B1CD92E
:10B220006C4C2F2120000FF020FD2F21002807D18A
:10B230005C2120000FF019FD2100002804D05C21C2
:10B2400020000FF012FD411C634A644B0420D358C8
:10B25000644A00928E2208F0D7FD634B1C78002CC4
:10B2600004D0012C33D0BD4609B0F0BD102321001D
:10B27000F8180B220FF028FC01235C4E5C4D3100C6
:10B2800028007B74BC743B7501F0FAF8002803D0E9
:10B29000504A962100F084FB1023564CFB183200D4
:10B2A0002900200001F0D2F8002803D0494A992152
:10B2B00000F076FB002320001A00190001F0E4F8EA
:10B2C0000028D0D09A21434A00F06AFBCBE72B68D4
:10B2D0005B0420D53E4B1B68032B1CD93D4C2F2112
:10B2E00020000FF0C2FC2F21002807D15C21200094
:10B2F0000FF0BBFC2100002804D05C2120000FF0DF
:10B30000B4FC411C344A354B0420D3583A4A0092CD
:10B31000622208F079FD394C0021200003F0D0FFB3
:10B32000002803D02B4A632100F03AFB10220021B1
:10B33000B8180FF0C9FB1022314B324D1988BA18DA
:10B340002B00002005F0BCFF002803D0214A672114
:10B3500000F026FB2C4E0120310005F09BFE00285A
:10B3600003D01C4A682100F01BFB2988208804F0C8
:10B37000A3FE002803D0174A692100F011FB318891
:10B38000208804F065FE002803D0124A6A2100F0EC
:10B3900007FB2988208804F0B7FE002803D00D4A57
:10B3A0006B2100F0FDFA2088062104F0CBFE002876
:10B3B00003D0084A6C2100F0F3FA200003F0E4FF08
:10B3C000002800D14FE7034A6D217DE73823002094
:10B3D0003423002098AD020000B0004004050000B6
:10B3E000C0AD0200E0AD0200D6230020C42800203A
:10B3F000E4280020E8230020FBAD0200E82600201E
:10B40000E4230020D4230020E4260020E38A3B82AA
:10B4100001237B820F33F81805F0ECFD002803D0E0
:10B42000974AAA2100F0BCFA964DA08A2A00A1688A
:10B4300005F0D8FE002803D0914AAD2100F0B0FA03
:10B440002988E08A904BE26805F0FCFE002803D0D2
:10B450008B4AB22100F0A4FA8C4E33685B0422D5EB
:10B460008B4B1B68032B1ED9854D2F2128000FF015
:10B47000FCFB2F21002807D15C2128000FF0F5FBF1
:10B480002900002804D05C2128000FF0EEFB411CAD
:10B49000804A814B0420D358E28A01927F4A00926D
:10B4A000B52208F0B1FC33685B0444D5784B1B68C7
:10B4B000032B40D96B468AB00CAA7A600F229446BF
:10B4C000BB6004ABFB60764BA1681868FB680A7828
:10B4D00001311509455D1D7065462A40825C5A7030
:10B4E0007A6802339A42F2D10022FB68644D01333C
:10B4F0002F21DA7728000FF0B8FB2F21002807D181
:10B500005C2128000FF0B1FB2900002804D05C2149
:10B5100028000FF0AAFB411C5E4A5F4B0420D35861
:10B52000FA6802925F4A01925F4A0092B62208F0DE
:10B530006BFCBB689D4633685B043DD5544B1B6870
:10B54000032B39D96B468AB0FB60554B04AD1868A4
:10B550002B00E1680CAC0A7801311609865D1E707B
:10B560000F263240825C5A7002339C42F3D1002293
:10B57000434C6B1C2F21DA7720000FF076FB2F2134
:10B58000002807D15C2120000FF06FFB210000286C
:10B5900004D05C2120000FF068FB411C3D4A3E4B6B
:10B5A0000420D358414A029501923F4A0092B722A3
:10B5B00008F02AFCFB689D4601223D4B1A7052E6BA
:10B5C00010223C49B8180FF076FA10226068B918BA
:10B5D00000F06EFF002803D0294ABF2100F0E0F9F7
:10B5E0002A4B1B685B0400D43DE6294B1B68032BE8
:10B5F00000D838E6224C2F2120000FF036FB2F21F7
:10B60000002807D15C2120000FF02FFB210000282B
:10B6100004D05C2120000FF028FB411C1D4A1E4B6A
:10B62000D358254A0092C022EEE5184B1B685B04F4
:10B6300000D418E6164B1B68032B00D813E6104DF8
:10B640002F2128000FF011FB2F21002807D15C21AA
:10B6500028000FF00AFB2900002804D05C212800F4
:10B660000FF003FB411C0B4A0B4B0420D3582278EC
:10B670000192124A0092CE2208F0C6FBF3E5C046C2
:10B6800098AD0200E4230020D823002038230020B6
:10B690003423002000B000400405000033AE020057
:10B6A0003C2300205AAE02006CAE020074AE0200D1
:10B6B000D6230020E8AC020086AE0200ACAE020049
:10B6C000F0B5E021A02400230120032587B0090460
:10B6D000E4050A001A41024204D01A00C132FF32C6
:10B6E000920015510133202BF3D1C020594A042177
:10B6F000C00108F06DFB584D2B685B0420D5574BFB
:10B700001B68032B1CD9564C2F2120000FF0ADFADB
:10B710002F21002807D15C2120000FF0A6FA21007C
:10B72000002804D05C2120000FF09FFA411C4D4AF4
:10B730004D4B0420D3584D4A0092D82208F064FBA8
:10B7400000F08EFA4A484B4B03600023436006F03A
:10B7500056FD05F037FC04F079FB2B685B0420D51F
:10B760003E4B1B68032B1CD93D4C2F2120000FF0B2
:10B770007CFA2F21002807D15C2120000FF075FAF8
:10B780002100002804D05C2120000FF06EFA411C3B
:10B79000344A354B0420D358374A0092722208F0BD
:10B7A00033FB03AC0B22002120000FF08DF90D229A
:10B7B00000210123314F6A44517031483900237010
:10B7C0001370237100F05CFE002803D0244A792115
:10B7D00000F0E6F82B4E23003A002949300000F033
:10B7E00035FE002803D01E4A7A2100F0D9F82B68D4
:10B7F0005B0420D5194B1B68032B1CD9184C2F2137
:10B8000020000FF032FA2F21002807D15C21200000
:10B810000FF02BFA2100002804D05C2120000FF04B
:10B8200024FA411C0F4A104B0420D358164A0092A8
:10B83000E52208F0E9FA002330001A00190000F0B0
:10B8400023FE002803D0064AE62100F0A9F806F0FE
:10B85000EDFBFCE7A93D0200382300203423002043
:10B8600098AD020000B0004004050000F8AC0200F2
:10B87000DC23002099B101003CAD0200C428002067
:10B88000E4280020E823002061AD020052DF704769
:10B8900010DF704760DF704761DF7047A023E02250
:10B8A000A121DB051204C9005A5004495A50EFF394
:10B8B000108372B60028FDD17047C0460C05000009
:10B8C00037B5134B05001B685B041DD5114C2F21A8
:10B8D00020000FF0CAF92F21002807D15C21200099
:10B8E0000FF0C3F92100002804D05C2120000FF0E4
:10B8F000BCF9411C084A094B0020D358084A01955D
:10B9000000924E2208F080FA2800FFF7C7FF37BDEB
:10B9100038230020EEAE020000B000400405000015
:10B9200009AF0200F0B5184B85B01B6806000D008A
:10B9300017005B0423D5154B1B68002B1FD0144C3C
:10B940002F2120000FF091F92F21002807D15C2131
:10B9500020000FF08AF92100002804D05C2120008B
:10B960000FF083F9411C0B4A0B4B0120D3580B4AB3
:10B970000397009202950196702208F045FA28007C
:10B98000FFF78CFF05B0F0BD3823002034230020E2
:10B99000EEAE020000B0004004050000CEAF020091
:10B9A000F0B5184B85B01B6807000E0015005B044E
:10B9B00023D5154B1B68002B1FD0144C2F212000C2
:10B9C0000FF053F92F21002807D15C2120000FF040
:10B9D0004CF92100002804D05C2120000FF045F92B
:10B9E000411C0B4A0B4B0120D3580B4A0397009282
:10B9F00002960195482208F007FA0120FFF74EFF52
:10BA000005B0F0BD3823002034230020EEAE020044
:10BA100000B0004004050000D1AE020013B5124B87
:10BA20001B685B041CD5114C2F2120000FF01DF961
:10BA30002F21002807D15C2120000FF016F92100EA
:10BA4000002804D05C2120000FF00FF9411C084AA7
:10BA5000084B0020D358084A0092542208F0D4F929
:10BA60000120FFF71BFF13BD38230020EEAE0200BC
:10BA700000B0004004050000C3AE020073B501A889
:10BA8000FFF704FF00280BD06B4647249D1C084E8F
:10BA9000290030002C80FFF7FFFE002804D073BD82
:10BAA000019806F0A7FBEAE7300006F0A1FBEEE7FD
:10BAB000242900207FB5414C050023685B0420D574
:10BAC0003F4B1B68032B1CD93E4E2F2130000FF03B
:10BAD000CCF82F21002807D15C2130000FF0C5F8E9
:10BAE0003100002804D05C2130000FF0BEF8411C6A
:10BAF000354A364B0420D358354A00927A2208F052
:10BB000083F9344B0293029B039323685B0422D591
:10BB10002B4B1B68032B1ED92A4E2F2130000FF010
:10BB2000A4F82F21002807D15C2130000FF09DF8E8
:10BB30003100002804D05C2130000FF096F8411C41
:10BB4000214A224B0420D358029A0192224A0092A1
:10BB5000832208F059F9280003A9FFF79BFE029BF6
:10BB6000039A05009A4225D023685B0422D5144B22
:10BB70001B68012B1ED9134C2F2120000FF075F8E4
:10BB80002F21002807D15C2120000FF06EF8210042
:10BB9000002804D05C2120000FF067F8411C0A4AFD
:10BBA0000A4B0220D358039A01920C4A00928C222D
:10BBB00008F02AF9280004B070BDC04638230020E0
:10BBC00034230020EEAE020000B000400405000067
:10BBD00069AF0200D822002085AF020095AF0200B5
:10BBE00000B589B00190194901A8FFF751FE00285E
:10BBF00003D0174A9321FFF7D3FEC52315499B00B5
:10BC0000CB585B0219D4124A94211348FFF7C8FE9F
:10BC100002E011680B4313601422002103A80EF008
:10BC200053FF03A8FFF746FF002803D0084A9A21D4
:10BC3000FFF7B6FE002009B000BD8023074ADB03F2
:10BC400050680028E5D10B60E6E7C04625B9010041
:10BC5000EEAE020000E100E00220000008540020E7
:10BC600030B54C4D87B02B685B0420D54A4B1B6820
:10BC7000032B1CD9494C2F2120000EF0F6FF2F2159
:10BC8000002807D15C2120000EF0EFFF21000028E2
:10BC900004D05C2120000EF0E8FF411C404A414BDB
:10BCA0000420D358404A0092B52208F0ADF8012292
:10BCB00002AB1A7000225A709A700732DA7002983A
:10BCC000FFF78EFF2B685B0420D5334B1B68032BDB
:10BCD0001CD9324C2F2120000EF0C7FF2F21002845
:10BCE00007D15C2120000EF0C0FF2100002804D005
:10BCF0005C2120000EF0B9FF411C294A294B042089
:10BD0000D3582A4A0092BF2208F07EF803AC0C22D6
:10BD1000002120000EF0D8FE012323700633E370CB
:10BD2000234B2000636006F0FBF8002803D01B4A79
:10BD3000C421FFF735FE2B685B0420D5164B1B682A
:10BD4000032B1CD9154C2F2120000EF08EFF2F2124
:10BD5000002807D15C2120000EF087FF2100002879
:10BD600004D05C2120000EF080FF411C0C4A0D4BDA
:10BD70000420D3580F4A0092C62208F045F806F076
:10BD80002BF9002803D0054AC721FFF709FE07B0A9
:10BD900030BDC0463823002034230020EEAE020020
:10BDA00000B000400405000022AF02003BAF0200DB
:10BDB000C1B8010054AF0200062070470B2210B535
:10BDC0008CB001AB1A708822920082180492B022C3
:10BDD000920082180392124A0290815A0232825AC9
:10BDE00012040A430592B4229200825A9A820D4AA2
:10BDF000825ADA82B6229200815C01200C00C14096
:10BE0000014081401A7E044082432243001882434D
:10BE10000A4318001A7605F0E7FC0CB010BDC046C6
:10BE2000D2020000D602000070B50B4E8CB0825DCD
:10BE300004000D00132A03D1002901D1FFF7BEFF32
:10BE4000002301A8A355053303704460057205F073
:10BE5000CBFC0CB070BDC046B3020000032200B59D
:10BE6000054B8DB0C25401AB0132029018001A701C
:10BE700005F0BAFC0DB000BDB30200000D4B70B56B
:10BE8000C1540D238CB001AD04002B706860297281
:10BE900000F0D9FB084E002806D1280005F0A4FCCC
:10BEA0001623A3550CB070BD0221200000F070FBDA
:10BEB000F3E7C046B2020000B3020000AD2370B544
:10BEC0009B000400C05C03238CB0984213D81C4D27
:10BED0000EF0D6FB2D271402072301A80370194B7F
:10BEE0004460E35C4372184BE35C03720C236355BC
:10BEF00005F07AFC002318000CB070BD134B200035
:10BF0000E618310000F0B0FD062301A803700D4BC8
:10BF10004460E35C43720C4BE35CC6600372102325
:10BF2000E5E7082301A8037044600533DFE7074B0A
:10BF30001022E01800210EF0C7FD10236355D9E749
:10BF4000B3020000AE020000AF0200006D0200006C
:10BF500010B58CB0040000F091FC002812D00C2326
:10BF600001A80370B133FF33E3580B22C3602300F1
:10BF7000C133FF3383600D4B4460E25405F034FC61
:10BF80000CB010BD80239B00E118200000F04CFD98
:10BF9000002809D12000FFF791FF05210028EFD0EC
:10BFA0002000FFF76BFFEBE70221F9E7B302000087
:10BFB000F0B50D0097B004001100280000F0AAFAB7
:10BFC000002804D101212000FFF758FF8CE02878D9
:10BFD000A84E092800D948E10EF066FB0A00470187
:10BFE0004B006D0047018800B300D80047013D01B8
:10BFF000A35D032B78D1A04B691CE5180122280012
:10C000000EF059FD01230BA90B709C4B2000E35C43
:10C010004B709B4BE35A1A021B0A13434B80AE230F
:10C02000AF229B00E35C92000B71964BE35C4B717B
:10C03000954BE35C8B71954BA25CE35C12021A4357
:10C040001302120A134333229BB26A4413701B0A71
:10C0500053708F4BE35C4B728E4BE35A1A021B0AF0
:10C0600013432A004B8100F09AFA00283CD00521A6
:10C07000A9E7A35D062B37D1874B0522E018691C81
:10C080000EF019FDAC23AA789B00002A11D1E254CE
:10C09000AD23EA789B00E254EA781023012A00D00D
:10C0A0006B797E4AA3542A797D4BE2540923A35528
:10C0B0001AE00122EBE7A35D092B15D12000C13066
:10C0C000691C4022FF300EF0F6FCAC239B00E35CC1
:10C0D000002B06D1B933FF33E158200000F06DFA90
:10C0E000C3E72000FFF734FF17B0F0BDA25D102AB0
:10C0F0001DD16C4B691CE0180EF0DDFC6A4B6B49DE
:10C1000020006118E3180BAA00F0BEFB0BA9200069
:10C1100000F06DFA0028E7D00428A8D07846644BD8
:10C120001B68002B01D09847A1E700DE9FE70D2A8E
:10C13000DAD15C4B691CE01803320EF0BCFC0E2314
:10C14000B5E7A35D122BCFD15A4B691C1022E01822
:10C150000EF0B1FC200000F0D5FC0421002800D135
:10C1600031E7514B2000E11800F053FA002800D0CD
:10C170007DE7882390228C219B0092008900E318A0
:10C18000A2186118200000F0EFFBADE7A35D132BB0
:10C19000AAD18C239B00E3180B9390232D229B00A4
:10C1A0000BA8E318082143606B1C836019236A44C1
:10C1B000D1776A460927838100231A35C561D51DC9
:10C1C00029006F4403618382D371876106F0D0FF39
:10C1D0002B7802AE0621002B00D1F4E6B0239B00A1
:10C1E00039001022E0180EF066FC079B324A1BBA99
:10C1F000A3521B0CA2185380338B012718021B0A71
:10C2000018432E4B80B2E05233691B021B0C1902FB
:10C210001B0A1943B42389B29B00E152F37CB62672
:10C22000B600A25D5D08DB073D40BA43DB0F2A4341
:10C230003B400225BB40AA431343A355204B9942E0
:10C2400001D90221BFE605F05FFE0128F9D12000E7
:10C2500000F0F1F909E70D230BA8037044606B7837
:10C26000037205F0C1FA162321E7A35D162B00D057
:10C27000A8E639E7B30200009D020000B502000005
:10C28000B6020000B9020000BA020000BB020000C2
:10C29000BD020000BE020000A9020000AE020000C4
:10C2A000AF0200008D0200004D0200007D02000080
:10C2B000105400205D020000D2020000D6020000EF
:10C2C000FF0F000073B5264C0500005D03381328EE
:10C2D0001DD80EF0D5F90A1C1C101C1C0D1C1C11BD
:10C2E0001C131C131C15171C1C1006232B5502E0D5
:10C2F0002800FFF72DFE73BD1023F7E71223F5E7A3
:10C300001323F3E72800FFF759FD1523EEE7154B3C
:10C310001B681B07EFD5144B1B68002BEBD0134E8B
:10C320002F2130000EF0A1FC2F21002807D15C2125
:10C3300030000EF09AFC3100002804D05C2130005F
:10C340000EF093FC411C0A4A0A4B0120D3582A5D87
:10C350000192094A0092E222FF3207F055FDCAE736
:10C36000B30200003823002034230020FCAF020079
:10C3700000B000400405000020B0020070B51E00AF
:10C380000C4B1500C25C04000820002A10D10232B8
:10C39000E254094B013AE2542000084B084A00F0ED
:10C3A000C9F8002804D132002900200000F0DCF890
:10C3B00070BDC046B3020000B102000000879303C5
:10C3C000ECAF0200F0B51C4E87B00191835D040014
:10C3D0000C3B0820022B1AD80130102A17D8174B13
:10C3E000E55C954213D11027154B7A1BE818002104
:10C3F00020180EF069FB124B2A00E01801990EF08C
:10C400005AFBA35D0C2B04D1200000F0E8F807B024
:10C41000F0BD0E2B0CD10B4A0B4BA1182000E318DA
:10C4200002AA00F031FA02A9200000F0E0F8EEE7DD
:10C43000A7550020EBE7C046B3020000AE020000A3
:10C440006D0200007D0200004D02000070B50A4C34
:10C45000055D0824002D0CD1B134FF340151DE21DB
:10C4600049004250054A190080180B220EF023FBA8
:10C470002C00200070BDC046B3020000B5020000D1
:10C4800010B500F061FA10BD70B5040015001E0073
:10C49000062000290AD100F0E7FF0100062000294C
:10C4A00004D033002A002000FFF768FF70BD0000B1
:10C4B00010B5054BC35C002B02D1FFF77DFC10BD0E
:10C4C000FFF780FFFBE7C046B102000070B5040033
:10C4D0000D001600002905D178460D4B1B68002B76
:10C4E00011D09847002C05D17846094B1B68002BCA
:10C4F0000BD09847D8235B00E358320029001B6813
:10C500002000984770BD00DEECE700DEF2E7C04691
:10C5100010540020031E09D002780023092A05D8F0
:10C52000034B9B5C5B1A59424B41DBB218007047CE
:10C530004FB0020030B504000E20002C10D00029AE
:10C540000ED0002A0CD0074D0738AB4208D9AE30C8
:10C55000FF302350D62300205B00E2500433E1502B
:10C5600030BDC046FF869303D82310B55B00C35887
:10C570005C68DA235B00C358A04710BDD823DA22D9
:10C5800010B55B00C3585200DB688258984710BD55
:10C59000D82310B55B00C3581B69984710BD70B510
:10C5A00005000C00501C01310B220EF084FA28000B
:10C5B0000C222100FFF78AFF70BD032330B593B032
:10C5C00001AC23706B4605004022581D0EF073FA33
:10C5D000412221002800FFF779FF13B030BD04236A
:10C5E00007B5012201A90B70FFF770FF0EBD0523EF
:10C5F00030B587B001AC23706B4605001022581D82
:10C600000EF059FA112221002800FFF75FFF07B052
:10C6100030BD062330B587B001AC23706B460500F2
:10C620001022581D0EF047FA112221002800FFF7B2
:10C630004DFF07B030BD082307B5012201A90B70DB
:10C64000FFF744FF0EBD07B5092201AB1A70597000
:10C65000073A1900FFF73AFF0EBD10B5FFF736FF96
:10C6600010BDD62310B55B00C3589B68984710BD1A
:10C67000D62310B55B00C358DB68984710BD000097
:10C68000F7B5194B05001B680E0017001B0722D5D4
:10C69000164B1B68032B1ED9154C2F2120000EF0C2
:10C6A000E4FA2F21002807D15C2120000EF0DDFAEA
:10C6B0002100002804D05C2120000EF0D6FA411C95
:10C6C0000C4A0D4B0420D358327801920B4A009249
:10C6D000DF2207F099FBD6235B00EB583A003100CC
:10C6E00028001B689847F7BD38230020342300201A
:10C6F00059B0020000B000400405000079B002000B
:10C70000D62310B55B00C3585B68984710BDF0B5E1
:10C7100007008BB00C001500122600290ED008006F
:10C720000EF09CFA6A4681B2200006F091FD2220AC
:10C730000422694668440EF0BEF9043604AC6DBAB2
:10C74000258205F04DF81022010020000EF0B3F90B
:10C75000330022000021380008F0E8FA0BB0F0BDE9
:10C76000F0B505008DB00E001700002805D1784601
:10C77000274B1B68002B3BD09847042332009A4379
:10C78000122A05D07846224B1B68002B32D09847DE
:10C79000002F05D178461E4B1B68002B2CD09847E4
:10C7A0001C4B1B78002B21D001AC2C220021200037
:10C7B0000EF08AF91022290002A8E7610EF07BF939
:10C7C0003B78013B5A425341237503232370162EB5
:10C7D00014D12900023B637519336B4412310422D2
:10C7E00018000EF068F9200004F0FEFF0DB0F0BD57
:10C7F00000DEC2E700DECBE700DED1E71A2300212E
:10C800006B440422180061750EF05EF9EBE7C04638
:10C8100010540020D8220020F7B506000D0068460D
:10C8200089B206F09FF800242427AC4200D3F7BD5C
:10C830006B463900185D0DF0C7FF034BC9B25B5C56
:10C8400033550134F1E7C0468DB0020037B50D0015
:10C850000400042101A806F085F8074BAD00E95853
:10C8600001980DF0B1FF200009BA0191042201A93D
:10C870000C300EF020F937BDB4B00200014B18782F
:10C880007047C0466B290020F0B50400DC251E006F
:10C89000294BAFB003920F001122C11809A80EF066
:10C8A0000AF9264B6D00E35C4022002B38D102A828
:10C8B0002D331B18615918000EF0FDF8210040229D
:10C8C000C131FF316D2002ABC0180EF0F4F83A0010
:10C8D00009A8912106F0BCFC80239B00E018FD3BD9
:10C8E00005ADFF3B3A0000930195154B202106F062
:10C8F000CDFC3000102106F035F83100102209A8D7
:10C900000EF0D9F80F4B1022E1180DA80EF0D3F855
:10C91000039B202209A9280006F022FC2FB0F0BDBD
:10C9200021002D2302A81B18C131FF3118000EF081
:10C93000C2F840226159C5E79D020000B102000023
:10C94000D8B002006D02000070B504000D000DF0BB
:10C9500095FD2900020020000DF094FD0023012820
:10C9600000D00333180070BDF0B5040099B00393F4
:10C97000264B0F001600C11810220CA80EF09BF8D1
:10C98000234B244AE35CA5181022002B35D1290043
:10C9900010A80EF090F810221F4BE11814A80EF00A
:10C9A0008AF804AA0CA8302106F052FC8023042542
:10C9B0009B00E41804AA200001970095174B202142
:10C9C00006F064FC08AB019304AA20000095144B08
:10C9D000202106F05BFC1B2102ABC9180D223000A0
:10C9E0000EF069F8039B0095019304AA0D4B2021DA
:10C9F000200006F04BFC19B0F0BD074B10A8E11861
:10CA00000EF059F810222900C8E7C0467D02000048
:10CA1000B10200004D0200005D020000DDB0020026
:10CA2000E2B00200E7B0020070B504000E0005009D
:10CA30000DF024FDC134FF34010020000DF007FE8D
:10CA4000002801D1032070BDDE235B00ED580DF0FE
:10CA500015FD32000300290020000DF055FD0028CF
:10CA6000F0D00020EFE7000073B5234D0400435DD4
:10CA70000E00013B072B05D97846204B1B68002B85
:10CA80000DD098471022002130000EF01DF8AD2384
:10CA90009B00E35C022B04D0032B0CD073BD00DEA3
:10CAA000F0E7174BE05C01380428F7D80DF0E8FDFB
:10CAB0000C0C0C191E00124BE05C01380328EDD859
:10CAC0000DF0DEFD02020F146B46645DDD1D0121D9
:10CAD000280005F047FF2878611C0DF05FFFF17317
:10CAE000DCE7615D3000FFF7B1FED7E7615D300044
:10CAF000FFF792FED2E7C046AE02000010540020BD
:10CB0000AF02000030B50400154B93B0C2187D3B56
:10CB1000C018FD3B02ADFF3B00930195114B202156
:10CB200006F0B4FB104B1022E1180AA80DF0C3FF69
:10CB30000E4B1022E1180EA80DF0BDFF06AB0AA99E
:10CB40002800202206F00CFB094B1022E11806A851
:10CB50000DF0A2FF43425841C0B213B030BDC046F1
:10CB60007D020000D8B002005D0200006D020000EE
:10CB70008D020000F8B5174D06002B68002B05D17B
:10CB80007846154B1B68002B0ED09847EFF31087A3
:10CB900072B62C68B44209D0D4256D0063599E4208
:10CBA0000CD17359635105E000DEEFE7D4235B003D
:10CBB000F3582B60002F00D162B6F8BD002B05D1D1
:10CBC0007846054B1B68002B02D098476459E5E76F
:10CBD00000DEFBE76C2900201054002070B5041E15
:10CBE00005D178460A4B1B68002B0FD098472500CB
:10CBF00099352B780820012B07D12000FFF7BAFFC9
:10CC0000200008F009FE0020287070BD00DEEEE76D
:10CC100010540020F8B5050099352B780400023B2C
:10CC20000F00022B05D97846144B1B68002B20D02F
:10CC30009847260020009836FFF79CFF3378012B99
:10CC400005D078460D4B1B68002B14D09847200068
:10CC500008F0E2FD220000232000D8323370B83003
:10CC600013702B7005F056FC39002000FFF700FD13
:10CC7000F8BD00DEDDE700DEE9E7C0461054002025
:10CC8000F7B50F00911C05001600019308F0EAFCAF
:10CC900004000420002C25D0731C63742000292379
:10CCA0003200A374390013300DF005FF6B461B7979
:10CCB0002371EFF3108772B6D0235B00EA58561C3D
:10CCC000EE50731C05D17846084B1B68002B0AD028
:10CCD0009847002F00D162B628002660210008F096
:10CCE00017FD0020FEBD00DEF3E7C0461054002013
:10CCF000F0B50500D8352B788DB00400022B05D097
:10CD00007846544B1B68002B64D098472700DB37CC
:10CD10003B78002B4ED1230099331B78032B05D091
:10CD200078464C4B1B68002B56D098472B78022B2B
:10CD300005D07846474B1B68002B4FD098472300FF
:10CD4000D9331D782A1C142D00D91422D3B2019393
:10CD5000230094331B6803261BBA0493230004AA00
:10CD600050799B331B78B043137102901721A81C94
:10CD70000DF0A4FC029B80001E40064304AB5E71D4
:10CD80002300DA331B7804AA137221001300092050
:10CD90002D02D580DC31019AC0180DF08CFE019A6D
:10CDA0000123093204A92000FFF76AFF00280FD1F0
:10CDB00001233B703F263F783E402300D9331D7846
:10CDC0001721A81C0DF07AFC0130C0B2874207D3AE
:10CDD0000DB0F0BD00DE99E700DEA7E700DEAEE7AC
:10CDE00017217B1E5943143189B26D1A2A1CADB22A
:10CDF000172D00D91722230094331B6895B21BBA54
:10CE0000049323009B331B7804AA137103235079E6
:10CE1000B2009843013B034303200340134304AA99
:10CE20005371DC3104AB61182A00981D0DF043FEEC
:10CE30000123AA1D04A92000FFF722FF3F2301368A
:10CE40001E400028C4D12200DB32137801370133A1
:10CE50001370B2E710540020030000B594331B6830
:10CE600089B01BBA6A460093002313710B335371C8
:10CE70009171042307226946FFF702FF09B000BD44
:10CE800070B504000D00002805D17846194B1B68C9
:10CE9000002B23D09847022D05D97846154B1B68E7
:10CEA000002B1DD0984726009936337804221900AC
:10CEB000914312D0023B012B05D978460D4B1B68DC
:10CEC000002B0FD0984729002000FFF7C5FF00284E
:10CED0000AD104239C343370257070BD00DEDAE77C
:10CEE00000DEE0E700DEEEE729002000FFF792FE1B
:10CEF000F3E7C04610540020030000B594331B68CC
:10CF000089B01BBA00936B466A46197101236946C2
:10CF100053710622FFF7B4FE09B000BD030000B54F
:10CF200094331B6889B01BBA6A46009300231371BF
:10CF3000073353716946063B0622FFF7A1FE09B08D
:10CF400000BD10B508000121FFF722FB10BD10B590
:10CF5000040005F09FFB2300D4331968411820001A
:10CF6000B83005F00BFB10BDD02310B55B00C358E3
:10CF70008B4207D1D22301225B00C254024B1868B6
:10CF800006F054F810BDC046DC220020F7B50F00B3
:10CF900099373B7806000C00032B4DD10B00D8339A
:10CFA0001B78022B48D10D00D0352B681B1A12D5E7
:10CFB00001212000FFF750FF2300AC33002806D1E9
:10CFC00004229C343A70033A22701860F7BD1C4A60
:10CFD0001A602E60FAE71B4B1B681B0724D51A4BFF
:10CFE0001B68042B20D9194D2F2128000DF03DFE80
:10CFF0002F21002807D15C2128000DF036FE2900E2
:10D00000002804D05C2128000DF02FFE411C104A9E
:10D01000104B0520D3582200DC32127801920E4AC0
:10D0200000920E4A06F0F0FE23000022DB331A7055
:10D030002000FFF75DFEC9E70023AC342360C5E79D
:10D0400040420F0038230020342300209AB402000D
:10D0500000B0004004050000BDB4020095030000CC
:10D0600037B50500EFF3108372B6D421174A490093
:10D07000106815606850002B00D162B6144B1B6815
:10D080001B0722D5134B1B68032B1ED9124C2F21D3
:10D0900020000DF0EAFD2F21002807D15C2120009F
:10D0A0000DF0E3FD2100002804D05C2120000DF0EC
:10D0B000DCFD411C094A0A4B0420D358094A01955A
:10D0C0000092B522520006F09FFE37BD6C29002069
:10D0D00038230020342300209AB4020000B000401E
:10D0E00004050000ECB00200F0B58DB0040003911F
:10D0F0001600002805D17846334B1B68002B61D001
:10D100009847230098331B78012B05D123009933CE
:10D110001B780825002B52D1230000250122D8338B
:10D120001D703D3B1D700193013B1D700293023B3E
:10D130001A702700D02399375B003D70E55023001B
:10D14000224AA8331A60224ADE629C6018331A60B1
:10D15000220026009C60213204331D60FF328023B0
:10D160001C492000943608F081FB0421300005F0B2
:10D17000F9FB019B029A1D7080231370336804AA87
:10D180001BBA049304AB1D710323537104AB10222B
:10D190000399981D0DF08FFC0423162204A920008A
:10D1A000FFF76EFD051E0AD12000FFF7D0FE20001C
:10D1B00008F042FA2000FFF753FF02233B702800DB
:10D1C0000DB0F0BD00DE9CE7105400208DCF0100B3
:10D1D00043CF010069CF010070B5D225D426134B8F
:10D1E0006D001C687600002C00D170BD635D002BC3
:10D1F00014D000236355230099331A783F331B78EA
:10D20000042A0DD1022B03D12000A03005F082F9B1
:10D2100023009C3319782000FFF7FCFCA459E2E7B7
:10D22000022BFBD12000FFF763FDF7E76C290020FC
:10D23000F0B585B0041E01910292039305D17846A2
:10D24000344B1B68002B60D09847230098331B7821
:10D25000012B05D1230099331B780820002B52D1D4
:10D260002300002527000122D8331D703D3B1D708F
:10D2700000939A37033B3D7026001A70D0239936ED
:10D280005B003570E5502300234AA8331A60039AE7
:10D290009C60DA62214A18331A6022009C602132B5
:10D2A00004331D60FF3280231D49200008F0DEFAA0
:10D2B000230094331D608023009A0199137020008D
:10D2C0003D70029AFFF723FA051E05D17846114BEF
:10D2D0001B68002B1BD09847FF23FA212B71013BC1
:10D2E000FF3B2B60C900200008F062FA29002000F3
:10D2F00008F00EFA200008F09FF92000FFF7B0FEBA
:10D3000001230020337005B0F0BD00DE9DE700DE94
:10D31000E2E7C046105400208DCF010043CF01004A
:10D3200069CF01000200FF2330B5064D141AA14257
:10D3300002DCD843C0B230BD147801326340EB5CEC
:10D34000F4E7C04618B102000300F7B59933009125
:10D350001B78040015000820032B44D10130412A1A
:10D3600041D82300D83301931F780830002F3AD1D9
:10D370002000FFF7ECFD05F08DF917210600A81C31
:10D380000DF09CF9A36E0130C1B25943164B200039
:10D39000C9182300154AAC331960043B1A60711890
:10D3A000A03005F0EBF82300114AD033B6181E6008
:10D3B000203B1C602B331F700223019A290013703D
:10D3C0002300D9331D700098FFF7ACFF2300DA3338
:10D3D000187020002A000099DC300DF06CFB200052
:10D3E000FFF786FC3800FEBD80841E008DCF010053
:10D3F00080C3C901F0B50B7895B005000C0001920F
:10D40000012B05D07846174B1B68002B25D0984779
:10D41000271D61783800FFF785FFA37883421ED16E
:10D420002E009A3631782800FFF766FD0023E3705E
:10D43000019B390001333370667803A832000DF088
:10D440003AFB002328002370FFF781FDB2B203A945
:10D450002800FFF715F915B0F0BD00DED8E700236E
:10D460002370F8E71054002010B5054C23680133F1
:10D4700003D1044805F0B0FD2060034810BDC0464C
:10D48000DC220020D9D1010018B20200F0B505005D
:10D4900087B00E001400002805D17846AB4B1B68FE
:10D4A000002B34D09847002C05D17846A74B1B6839
:10D4B000002B2ED09847FF206A782B7812021A434F
:10D4C000AB7800041B041A43EB781B061343190EB8
:10D4D0001A060A43190201400A43FF211B0A0902E6
:10D4E0000B401343EFF3108272B6D421984F4900DA
:10D4F0003C68002C0FD1002A00D162B66B799807E6
:10D50000800F0DF0D1F80F003F01B7014D0200DE92
:10D51000C9E700DECFE72000943000688342EAD0FC
:10D520006458E6E7002C20D0230099331B78032BA6
:10D530001BD12700D8373A78002A5DD123009A33CF
:10D540002A791B789A422DD32300E879D9331870B1
:10D550001721023004930DF0B1F80130C0B2072852
:10D5600005D902212000FFF78BFC07B0F0BD230096
:10D570002A7ADA331A702200012329002000DB32D4
:10D58000093E3B7009311370DC3032000DF093FA24
:10D59000049B1B789E42E8D139002A792000FFF7CE
:10D5A00029FFE2E76B4B1B681B0720D56A4B1B6802
:10D5B000042B1CD9694E2F2130000DF056FB2F2172
:10D5C000002807D15C2130000DF04FFB310000280E
:10D5D00004D05C2130000DF048FB411C604A614BD7
:10D5E000D358614A0092614A052006F00DFC297962
:10D5F0002000FFF781FCB8E7564B022A7ED12600B7
:10D600009A362879317806321B68884220D2134234
:10D61000EDD0514B1B68042BE9D9504E2F2130001F
:10D620000DF023FB2F21002807D15C2130000DF0E5
:10D630001CFB3100002804D05C2130000DF015FBEC
:10D64000411C474A474BD358474A0092484ACBE7C8
:10D65000884228D9134200D187E73F4B1B68012B32
:10D6600000D882E73D4C2F2120000DF0FEFA2F213B
:10D67000002807D15C2120000DF0F7FA21000028D6
:10D6800004D05C2120000DF0F0FA411C344A354BE7
:10D69000D358327802922A790192364A0092AD220A
:10D6A0009200022027E0134200D15EE72A4B1B685C
:10D6B000042B00D859E7294C2F2120000DF0D5FA72
:10D6C0002F21002807D15C2120000DF0CEFA210087
:10D6D000002804D05C2120000DF0C7FA411C204A2C
:10D6E000204B0520D358327802922A790192224A9F
:10D6F0000092AE22920006F087FB36E71B681B07FC
:10D7000000D432E7144B1B68012B00D82DE7134CD3
:10D710002F2120000DF0A9FA2F21002807D15C212C
:10D7200020000DF0A2FA2100002804D05C21200086
:10D730000DF09BFA411C0A4A0A4BD3580F4A00923B
:10D740000F4A022006F060FB0FE7C046105400208D
:10D750006C29002038230020342300209AB40200D2
:10D7600000B00040040500002CB20200A30200003B
:10D77000AF0200007CB20200C6B20200FFB202009B
:10D78000BD020000002C00D1EFE6230099331B7886
:10D79000032B00D0E9E62700D8373A78D04B022A8D
:10D7A00044D126009B362979327891423ED11B68BC
:10D7B0001B0725D5CB4B1B68032B21D9CA4D2F2125
:10D7C00028000DF052FA2F21002807D15C212800F3
:10D7D0000DF04BFA2900002804D05C2128000DF040
:10D7E00044FA411CC14AC24B0420D3582200DC3207
:10D7F00012780192BF4A0092BE22920006F004FB0A
:10D80000230000252000AC331D60A03004F082FE10
:10D81000200008F001F833782000013333703D70A8
:10D82000FFF795FB2000FEF76BFF9EE61B681B07CA
:10D8300000D49AE6AB4B1B68012B00D895E6AA4CA6
:10D840002F2120000DF011FA2F21002807D15C2193
:10D8500020000DF00AFA2100002804D05C212000ED
:10D860000DF003FA411CA14AA14BD358A24A0092E1
:10D87000A24A66E7002C00D177E62200993212789E
:10D88000032A00D071E622002700D83205921278D0
:10D890009A3704922979012A53D13A7891422BD1AF
:10D8A00041373A789B081A4104990A4200D05CE655
:10D8B000B21F1726013B7343F033A91DE0180DF08A
:10D8C000FAF86B79049A9B089A4013003A78310071
:10D8D0001343DBB23B705F1C2300D933187802304E
:10D8E0000CF0ECFE049B0130C0B283409F4200D09C
:10D8F0003BE62A79059951E6794B1B681B0700D452
:10D9000033E6784B1B68012B00D82EE6764C2F218E
:10D9100020000DF0AAF92F21002807D15C2120005A
:10D920000DF0A3F92100002804D05C2120000DF0A7
:10D930009CF9411C6D4A6E4BD358714A0092714A52
:10D94000FFE63B78994200D252E600D80DE6644BE0
:10D950001B681B0700D408E6624B1B68012B00D82C
:10D9600003E6614C2F2120000DF07FF92F210028C4
:10D9700007D15C2120000DF078F92100002804D0A7
:10D980005C2120000DF071F9411C584A584BD358C6
:10D990003A7802922A7901925B4A00925B4A80E6C9
:10D9A0009B08012B61D0002B2AD0022B00D1DAE09A
:10D9B0004B4B1B681B0700D4D7E54A4B1B68012B58
:10D9C00000D8D2E5484C2F2120000DF04EF92F2130
:10D9D000002807D15C2120000DF047F92100002824
:10D9E00004D05C2120000DF040F9411C3F4A404B1F
:10D9F000D3586A7992080192454A0092DB22B0E03E
:10DA0000162E00D0B1E503F0EBFEAB1D0100102295
:10DA100018000DF041F8002800D0A6E5002C00D039
:10DA20000FE1EFF3108372B6D4223C685200002C51
:10DA300003D1002B00D100E197E52100993109784D
:10DA4000012900D1F7E0A458F1E700232B608CE511
:10DA5000032B00D089E52300D8331B78002B00D09E
:10DA600083E52000FFF75AFA7FE5002C00D17CE522
:10DA7000062E00D079E5250099352B78184E022B1B
:10DA80004AD1200007F0C8FE1421200007F090FEC4
:10DA900033681B0721D5134B1B68032B1DD9124E6E
:10DAA0002F2130000DF0E1F82F21002807D15C2153
:10DAB00030000DF0DAF83100002804D05C2130008D
:10DAC0000DF0D3F8411C094A094B0420D358114AE0
:10DAD0000092D222920006F097F903232B7001E105
:10DAE00038230020342300209AB4020000B0004004
:10DAF0000405000031B302004CB302000A03000029
:10DB00006CB30200E20200009DB30200EE020000CE
:10DB100073B40200E3B3020033681B0700D424E5AA
:10DB2000744B1B68012B00D81FE5734C2F2120007C
:10DB30000DF09BF82F21002807D15C2120000DF06B
:10DB400094F82100002804D05C2120000DF08DF80D
:10DB5000411C6A4A6A4BD3582A780192694A00925A
:10DB6000D422920063E0002C00D1FEE4072E00D006
:10DB7000FBE4260099363378634F023B012B31D802
:10DB80002300D8331B78022B03D12000A03004F0EF
:10DB9000C1FCA9792000FFF73DF83B681B0700D4C2
:10DBA000E3E4544B1B68032B00D8DEE4524C2F21D6
:10DBB00020000DF05AF82F21002807D15C21200009
:10DBC0000DF053F82100002804D05C2120000DF056
:10DBD0004CF8411C494A4A4B0420D3584B4A009206
:10DBE0004B4AAFE53B681B0700D4BEE4414B1B68C2
:10DBF000012B00D8B9E4404C2F2120000DF035F85E
:10DC00002F21002807D15C2120000DF02EF82100E3
:10DC1000002804D05C2120000DF027F8411C374A71
:10DC2000374BD358327801923A4A00923A4A02204E
:10DC300006F0EAF899E4002B03D162B6002C00D17B
:10DC400093E4260099363378012B00D000E7FF20BB
:10DC50006A782B7812021A43AB7800041B041A432B
:10DC6000EB7825001B061343190E1A060A43190206
:10DC700001400A43FF211B0A09020B40134394355C
:10DC800020002B60142107F093FD2000FFF746F9D8
:10DC9000002800D0D9E61C4B1B681B0720D5154B6C
:10DCA0001B68032B1CD9144D2F2128000CF0DDFF1D
:10DCB0002F21002807D15C2128000CF0D6FF290075
:10DCC000002804D05C2128000CF0CFFF411C0B4A37
:10DCD0000B4B0420D358114A0092114A06F094F8D5
:10DCE000032333702000FFF732F92000FEF7B9FC60
:10DCF0003BE4C046342300209AB4020000B0004048
:10DD000004050000F9B30200382300202AB4020001
:10DD10006203000040B4020067030000E3B30200A6
:10DD20002B0300007FB504004B6880785D680828ED
:10DD30003DD1E6235B00E25A334B9A420BD128785F
:10DD400003280AD80CF09CFC5D02025D201D022114
:10DD5000FEF71EFC022004B070BD2C4B1B689B0418
:10DD600023D52B4B1B68042B1FD92A4E2F213000A3
:10DD70000CF07BFF2F21002807D15C2130000CF034
:10DD800074FF3100002804D05C2130000CF06DFFDE
:10DD9000411C214A214B0520D3582A780192204A60
:10DDA0000092EB22920006F02FF8A078D3E7174BF1
:10DDB0001B689B04F9D5164B1B68032BF5D9154E30
:10DDC0002F2130000CF051FF2F21002807D15C21BA
:10DDD00030000CF04AFF3100002804D05C213000F4
:10DDE0000CF043FF411C0C4A0C4B0420D358A27882
:10DDF00002922A7801920B4A00920B4A06F004F82C
:10DE0000D3E70620A7E7C046608000003823002043
:10DE10003423002063B7020000B000400405000076
:10DE20008EB70200A7B70200B603000073B5040066
:10DE30004B6880785D68052858D0082800D0ADE090
:10DE4000E6235B00E25A6A4B9A422CD18023694A4E
:10DE500029789B011268052926D106381A4222D05A
:10DE6000654B1B68042B1ED9644C2A3120000CF032
:10DE7000FCFE2F21002807D15C2120000CF0F5FECC
:10DE80002100002804D05C2120000CF0EEFE411C93
:10DE90005B4A5C4BD3585C4A0092B1229200052049
:10DEA00005F0B2FF022076BD02201A42FBD0524B91
:10DEB0001B68042BF7D9514C2F2120000CF0D5FE04
:10DEC0002F21002807D15C2120000CF0CEFE21007C
:10DED000002804D05C2120000CF0C7FE411C484AF9
:10DEE000484BD358494A0092494AD8E78023414ACF
:10DEF00029789B011268052926D106201A42D2D022
:10DF00003D4B1B68042BCED93C4C2A3120000CF031
:10DF1000ACFE2F21002807D15C2120000CF0A5FECB
:10DF20002100002804D05C2120000CF09EFE411C42
:10DF3000334A344B0520D358364A0092B52292001A
:10DF400005F062FF0620AEE71A4222D02A4B1B687A
:10DF5000042B1ED9294E2F2130000CF086FE2F21D4
:10DF6000002807D15C2130000CF07FFE3100002832
:10DF700004D05C2130000CF078FE411C204A214B7B
:10DF80000520D3582A780192234A0092234A05F0AB
:10DF90003BFF201D0221FEF7FBFAD3E7154B1B6860
:10DFA0009B0423D5144B1B68012B1FD9134D2F2124
:10DFB00028000CF05AFE2F21002807D15C212800F0
:10DFC0000CF053FE2900002804D05C2128000CF03E
:10DFD0004CFE411C0A4A0B4B0220D358A2780192F6
:10DFE0000F4A0092B822920005F00EFFA0785AE77F
:10DFF00063800000382300203423002063B7020030
:10E0000000B00040040500003DB6020055B6020015
:10E01000C902000071B6020088B60200D9020000F1
:10E02000A6B602007FB5040080780E00082808D14B
:10E03000E6235B00E25A194B9A4200D1E07804B023
:10E0400070BD174B1B689B0425D5164B1B68032B13
:10E0500021D9154D2F2128000CF007FE2F21002873
:10E0600007D15C2128000CF000FE2900002804D014
:10E070005C2128000CF0F9FD411C0C4A0C4B0420DB
:10E08000D358A2780292327801920A4A0092E4228E
:10E09000FF3205F0B9FEA078D1E7C0466D800000E0
:10E0A000382300203423002063B7020000B0004072
:10E0B0000405000037B7020030B5837885B004004E
:10E0C0008B422BD0C370164B81701B689B0425D5E7
:10E0D000144B1B68042B21D9134D2F2128000CF061
:10E0E000C4FD2F21002807D15C2128000CF0BDFDC4
:10E0F0002900002804D05C2128000CF0B6FD411C4A
:10E100000A4A0B4B0520D358A2780292E27801927A
:10E11000084A00920822FF3205F076FE05B030BDB5
:10E12000382300203423002063B7020000B00040F1
:10E130000405000002B50200F0B5714B97B01B78E2
:10E140000500002B00D0A0E06E4F6D4A013338006F
:10E15000137003F02EFC039004AC21006A4803F016
:10E16000F7FB2378002800D191E0092B4AD0039BCC
:10E17000002B47D0380003F01CFC039B834241D1A5
:10E180002100380003F0E4FB002806D078465F4BFE
:10E190001B68002B00D1B1E098472378092B26D0CB
:10E1A0005B4B1B689B0422D55A4B1B68042B1ED962
:10E1B000594E2F2130000CF058FD2F21002807D197
:10E1C0005C2130000CF051FD3100002804D05C21AE
:10E1D00030000CF04AFD411C504A514B0520D358E9
:10E1E000227801924F4A00924F4A05F00DFE2378A3
:10E1F0004E4A9B0021009B582800984701002800A8
:10E20000FFF75AFFEC235B00EB5C002B3AD023783E
:10E21000092B37D00E2B35D0AB78022B32D100230F
:10E2200023703B4B1B689B0423D53A4B1B68042B84
:10E230001FD9394E2F2130000CF017FD2F21002857
:10E2400007D15C2130000CF010FD3100002804D013
:10E250005C2130000CF009FD411C304A304B052098
:10E26000D358227801922F4A0092F922920005F0A9
:10E27000CBFD002133222E480CF026FC0321280080
:10E28000FFF71AFF00231E4A137017B0F0BD092BC9
:10E2900028D080221E4B92011B68134222D01D4BB6
:10E2A0001B68042B1ED91C4E2F2130000CF0DDFC06
:10E2B0002F21002807D15C2130000CF0D6FC310062
:10E2C000002804D05C2130000CF0CFFC411C134A24
:10E2D000134B0520D35822780192124A0092154A16
:10E2E00005F092FD2378114A9B0021009B582800DD
:10E2F000984701002800FFF7DFFE2DE700DE4CE71E
:10E3000078290020BC290020602A00201054002019
:10E31000382300203423002063B7020000B00040FF
:10E3200004050000E5B70200D703000068B502004D
:10E33000042B0020CB03000030B50D0095B0140075
:10E34000002905D17846424B1B68002B0CD098471A
:10E35000002C0BD0012C35D078463D4B1B68002B90
:10E3600000D173E098472BE000DEF1E7394B1B68E2
:10E370009B0425D5384B1B68042B21D9374C2F2102
:10E3800020000CF072FC2F21002807D15C21200016
:10E390000CF06BFC2100002804D05C2120000CF064
:10E3A00064FC411C2E4A2F4B0520D358E02252001A
:10E3B000AA5A01922C4A00923822FF3205F024FD1D
:10E3C00015B030BD234B1B689B0425D5224B1B6821
:10E3D000012B21D9214C2F2120000CF046FC2F21AC
:10E3E000002807D15C2120000CF03FFC2100002810
:10E3F00004D05C2120000CF038FC411C184A194B59
:10E400000220D358E0225200AA5A0192174A0092E1
:10E410009E22520005F0F8FC02AC002148222000A8
:10E420000CF052FB0E2321001148237003F062FA16
:10E43000002805D07846064B1B68002B04D098476F
:10E440002800FFF779FEBBE700DEF9E700DEB7E75B
:10E4500010540020382300203423002063B702002A
:10E4600000B0004004050000F1B702000BB8020044
:10E47000602A002030B5114C93B023680D0004339E
:10E48000984217D14822002168460CF01DFB6A46CD
:10E49000072369460A481370157103F02BFA002808
:10E4A00005D07846074B1B68002B05D0984720689D
:10E4B000FFF742FE13B030BD00DEF8E7382B002036
:10E4C000602A00201054002010B5104C92B0236830
:10E4D0000433984216D14822002168460CF0F4FA21
:10E4E00005236A4669460A48137003F003FA0028B8
:10E4F00005D07846074B1B68002B05D0984720684D
:10E50000FFF71AFE12B010BD00DEF8E7382B00202E
:10E51000602A00201054002010B5104C92B02368DF
:10E520000433984216D14822002168460CF0CCFAF8
:10E530000B236A4669460A48137003F0DBF900288A
:10E5400005D07846074B1B68002B05D098472068FC
:10E55000FFF7F2FD12B010BD00DEF8E7382B002007
:10E56000602A00201054002010B58378052B01D0BC
:10E57000082B08D104300221FEF70AF8064803F000
:10E5800015FA022010BD7846044B1B68002B01D001
:10E590009847F6E700DEF4E7BC290020105400207D
:10E5A00030B5144C1500236893B01A1D90421DD14C
:10E5B000FD229B78063B134218D10C236A46137048
:10E5C0006B462A00981D0CF076FA6B4669460A489D
:10E5D0009D8003F08FF9002805D07846074B1B6813
:10E5E000002B05D098472068FFF7A6FD13B030BD7B
:10E5F00000DEF8E7382B0020602A002010540020AD
:10E6000000B5037893B0032B17D16A460633011D7A
:10E61000137001A81C220CF04EFA6946094803F059
:10E6200069F9002805D07846074B1B68002B06D0F7
:10E630009847064B1868FFF77FFD13B000BD00DE5A
:10E64000F7E7C046602A002010540020382B002035
:10E6500010B57846034B1B68002B01D0984710BDBE
:10E6600000DEFCE71054002070B5E0246400015384
:10E670000121023449420A4D015302340551043448
:10E680000353E6235B00C2520233C152BD30FF3058
:10E6900001F038FF002801D0FFF7DAFF70BDC04657
:10E6A00079290020F7B5444F06003B680C009B0415
:10E6B00023D5424B1B68042B1FD9414D2F21280025
:10E6C0000CF0D3FA2F21002807D15C2128000CF090
:10E6D000CCFA2900002804D05C2128000CF0C5FAEF
:10E6E000411C384A384B0520D358A2790192374A49
:10E6F0000092DD22920005F087FBB378062B38D01C
:10E70000082B4ED13B689B0423D52C4B1B68042B54
:10E710001FD92B4D2F2128000CF0A7FA2F210028FC
:10E7200007D15C2128000CF0A0FA2900002804D0B1
:10E730005C2128000CF099FA411C224A224B05204A
:10E74000D35822780192224A0092DE22920005F0EC
:10E750005BFB21001F4803F0CDF8002805D0784668
:10E760001D4B1B68002B02D09847B078FEBD00DE21
:10E77000FBE7A388412B05D97846174B1B68002B74
:10E780000DD09847A288A11D14480CF094F93000D0
:10E79000A388134A1221FFF767FF0820E6E700DE8F
:10E7A000F0E778460C4B1B68002B02D098470220FC
:10E7B000DCE700DEFBE7C0463823002034230020DE
:10E7C00063B7020000B0004004050000E0B602009C
:10E7D000F7B60200BC29002010540020792900203F
:10E7E0006080000037B583780500072B09D100222F
:10E7F000184B11211A700123174AFFF735FF082023
:10E800003EBD164B1B689B0422D5154B1B68012B84
:10E810001ED9144C2F2120000CF027FA2F2100289C
:10E8200007D15C2120000CF020FA2100002804D040
:10E830005C2120000CF019FA411C0B4A0B4B022002
:10E84000D358AA7801920A4A00920A4A05F0DCFAE3
:10E85000A878D5E7792900206080000038230020BF
:10E860003423002063B7020000B00040040500001C
:10E87000CAB602006D03000037B584780500052C88
:10E880000BD10022194B1A491A70FF325A70022319
:10E89000184AFFF7E9FE20003EBD174B1B689B049A
:10E8A00022D5164B1B68042B1ED9154C2F21200096
:10E8B0000CF0DBF92F21002807D15C2120000CF09F
:10E8C000D4F92100002804D05C2120000CF0CDF9FF
:10E8D000411C0C4A0C4B0520D358AA7801920B4AD4
:10E8E00000920B4A05F090FAA878D5E77929002024
:10E8F0006C80000063800000382300203423002057
:10E9000063B7020000B0004004050000D1B502006A
:10E910005502000073B5060080780D00053802240A
:10E92000042855D80BF0ACFE0358581F5800308807
:10E9300001F0C0FD002807D0052805D078462B4BF4
:10E940001B68002B0DD098470122294B1A702A7999
:10E950005A7028490223284A3000FFF785FE082410
:10E9600036E000DEF0E7254B1B689B0423D5244BE3
:10E970001B68042B1FD9234C2F2120000CF075F9A4
:10E980002F21002807D15C2120000CF06EF9210016
:10E99000002804D05C2120000CF067F9411C1A4AC1
:10E9A0001A4B0520D3582A780192194A0092A722BF
:10E9B000920005F029FA2900164802F09BFF08246E
:10E9C000002805D07846094B1B68002B02D09847D9
:10E9D000200076BD00DEFBE70122054B1A700A79A4
:10E9E0000221002A00D003211970B1E71054002041
:10E9F000792900206C80000063800000382300200B
:10EA00003423002063B7020000B00040040500007A
:10EA1000F7B60200BC29002010B5008801F00AFBFF
:10EA20000423984301D0FFF713FE10BDF0B50F008B
:10EA3000496887B04B6803AD1E78364B04002B80C5
:10EA400001235B426B8002AB6B6002232B818378D6
:10EA5000062B32D3072B1BD9082B2ED1C533FF33FE
:10EA6000C25A2D4B9A4208D16A46032313722A00D8
:10EA70002000FFF7D1FFA0781BE0008801F01AFD0D
:10EA8000002805D07846254B1B68002B13D09847EB
:10EA9000311C022E00D90221C9B2201DFDF778FDDC
:10EAA00005236A462000137279682A00FFF7B4FF35
:10EAB000092007B0F0BD00DEEAE7194B1B689B0494
:10EAC00022D5184B1B68012B1ED9174E2F21300061
:10EAD0000CF0CBF82F21002807D15C2130000CF07E
:10EAE000C4F83100002804D05C2130000CF0BDF8DF
:10EAF000411C0E4A0E4B0220D358A27801920D4AB7
:10EB000000920D4A05F080F96A4603237968137272
:10EB10002A00ADE76380FFFF6D80000010540020E5
:10EB2000382300203423002063B7020000B00040E7
:10EB300004050000B4B502007F020000F0B50F002C
:10EB4000496889B04B6805AE03935E4B04AD3380D2
:10EB500001235B4273800333756033810400807846
:10EB60000238062800D986E00BF08AFD19191980B1
:10EB70000A0A040023009D331B78023B012B03D8B3
:10EB800001232B70002373E0208801F093FC002800
:10EB900005D078464C4B1B68002B15D09847039B3B
:10EBA0001A78022A05D811235A434849525C002A90
:10EBB0000CD104232B700023320079686B70200085
:10EBC000FFF72AFFA07842E000DEE8E7DA22FF2024
:10EBD000FF32A054039A201D127853430133C91801
:10EBE000FDF7CCFC0390002833D0394B1B689B0405
:10EBF00023D5384B1B68012B1FD9374D2F212800F7
:10EC00000CF033F82F21002807D15C2128000CF0EC
:10EC10002CF82900002804D05C2128000CF025F8ED
:10EC2000411C2E4A2E4B0220D358039A01922D4AA2
:10EC300000928822920005F0E7F802232A4A200079
:10EC40001370537029492A4AFFF70EFD082009B0B6
:10EC5000F0BD6B461B7B20002B706B461B7B32008C
:10EC600079686B70FFF7D8FE0520F0E700232B7062
:10EC70006B703200A3E7164B1B689B04A2D5154BA3
:10EC80001B68032B9ED9144D2F2128000BF0EDFF9C
:10EC90002F21002807D15C2128000BF0E6FF290076
:10ECA000002804D05C2128000BF0DFFF411C0B4A38
:10ECB0000B4B0420D3580F4A00920F4A05F0A4F8DA
:10ECC00080E7C0466380FFFF10540020042B002023
:10ECD000382300203423002063B7020000B0004036
:10ECE0000405000000B60200792900206C800000B5
:10ECF0006380000027B602003F020000F0B5837871
:10ED00008DB0023B04AF05000E00022B68D83E4BCD
:10ED10004A681B680432BA609B0445D53B4B1B68AC
:10ED2000042B41D96B468AB011000CAA7A600F22DD
:10ED300094463B6004ABFB60354B1868FB680A786F
:10ED400001311409045D1C7064462240825C5A70D3
:10ED50007A6802339A42F2D10022FB682D4C0133CB
:10ED60002F21DA7720000BF080FF2F21002807D118
:10ED70005C2120000BF079FF2100002804D05C21E9
:10ED800020000BF072FF411C234A244B0520D3586E
:10ED9000FA680292224A0192224A0092CB22520041
:10EDA00005F032F83B689D461F481022B9680130D3
:10EDB0000BF081FE00233B741C4B2800BB82012317
:10EDC0005B42FB821133FB18BB610123BB8313330E
:10EDD000FA187168FFF720FE0420BD4609B0F0BDA7
:10EDE00002233B74114B4968BB8201235B42FB82C7
:10EDF0001133FB18BB610123BB831333FA18FFF7F0
:10EE00000BFEA878E9E7C046382300203423002011
:10EE10003C23002063B7020000B00040040500005E
:10EE200055B702006CAE0200042B00206780FFFF84
:10EE3000F0B5394B87B003AD2B8001235B426B806B
:10EE400002AB6B6001232B8183780400581F0E00F6
:10EE5000032838D80BF014FC1C022D1C4B685B688F
:10EE60001A78DA23FF33E15C914222D0E2547368CE
:10EE7000271D1A8959683800FDF7EFFB00280AD1D1
:10EE80006B462A00187271682000FFF7C5FD072342
:10EE9000180007B0F0BD02213800FDF779FB02230E
:10EEA0006A467168137220002A00FFF7B5FD092336
:10EEB000EEE700236A467168137220002A00FFF70C
:10EEC000ABFDA378E4E7154B1B689B0422D5144BDC
:10EED0001B68012B1ED9134F2F2138000BF0C5FEE4
:10EEE0002F21002807D15C2138000BF0BEFE39002D
:10EEF000002804D05C2138000BF0B7FE411C0A4A00
:10EF00000A4B0220D358A2780192094A0092094A7A
:10EF100004F07AFF0123CDE76080FFFF3823002053
:10EF20003423002063B7020000B000400405000055
:10EF30000AB70200570300007FB504008378012060
:10EF4000033B01AA0F4D4042012B0DD801236E4611
:10EF50005080496820003370158056601381FFF798
:10EF60005BFD022004B070BD03236E4633700123A5
:10EF7000508049682000158056601381FFF74CFDD2
:10EF8000A078EFE76780FFFFF0B5837885B0023B9C
:10EF900005000E0001AC144F022B15D833220021BE
:10EFA00012480BF091FD6A4600231370013B638009
:10EFB0000123626028002200716827802381FFF707
:10EFC0002BFD032005B0F0BD6A4602231370033BFE
:10EFD0006380012362604968220027802381FFF754
:10EFE0001BFDA878EEE7C0466780FFFF042B0020DA
:10EFF000F0B50400A3B00E00171E05D178464F4BA4
:10F000001B68002B1DD098473B88A34205D078464B
:10F010004A4B1B68002B16D0984704AC3022484955
:10F0200020000BF048FD31880022062012290FD164
:10F0300010AB0A321A703389013B402B15D923B02B
:10F04000F0BD00DEE0E700DEE7E70132082AF6D097
:10F0500003005343E55A8D42F7D1E31859883289AA
:10F060009142ECD11A7910AB1A70012303AD5B42C7
:10F07000388829002B8001F009F801235B420193B5
:10F08000002834D128882F4B984230D0210002F03C
:10F0900025F800282BD16288F3899A4227D110A93C
:10F0A0002948119602F026FC002805D07846234B0B
:10F0B0001B68002B19D098473800FFF73DF8BEE7D2
:10F0C00004232B70214B23800123220031003800C0
:10F0D00065602381FFF7A0FCB1E706232B701C4B72
:10F0E000F1E7032322E000DEA9E700DEE4E76B4658
:10F0F0009B88184A63803388934200D19FE70DD8DC
:10F10000154A934200D19AE7E7D8122BD8D0784617
:10F110000A4B1B68002BE6D0984790E70F4A9342B2
:10F1200007D80F490F4A8B42DBD302232B70228072
:10F13000CAE70D4A934200D181E7E8E71054002066
:10F14000D2B40200FFFF0000602A00206080FFFFB1
:10F150006380FFFF63800000608000006680000025
:10F16000658000006780FFFF6D800000F0B5857846
:10F1700087B007000C00032D05D0042D00D17AE0E4
:10F18000280007B0F0BD0026404D735D002B09D06C
:10F19000701C211D281810220BF07EFC002801D1C4
:10F1A000BD78EDE71136332EEED12E78002E46D005
:10F1B0006B7C002B42D0EB1CDB7F0226002B3ED069
:10F1C000334B1B689B0420D5324B1B68042B1CD986
:10F1D000314C2F2120000BF048FD2F21002807D1B2
:10F1E0005C2120000BF041FD2100002804D05C21AF
:10F1F00020000BF03AFD411C284A294B0520D3582A
:10F20000284A0092284A04F0FFFD284803A90880F4
:10F2100001200123404202AA4880388813700B81E4
:10F220004A6000F0FDFE042302259843A8D07846EA
:10F230001F4B1B68002B1CD09847A1E7012611200B
:10F240000123704304342B54C018281810222100C5
:10F250000BF031FC174D1022210028000BF02BFC85
:10F260001123154A154938002E74FFF7FDF90825BA
:10F2700086E700DE84E705480434102221000130CF
:10F280000BF00AFC061E8BD1E4E7C046042B0020DD
:10F29000382300203423002063B7020000B0004070
:10F2A00004050000CCB70200110300006780FFFFD7
:10F2B00010540020792900206D8000006A80000031
:10F2C000F0B589B0040001910E20002C44D0A5783F
:10F2D0000638002D40D1482602272048204B4660A2
:10F2E0000360876002F0D8FA1E481F4B87600360F6
:10F2F000466002F0D1FA1D4B1D70FEF7B5F8251DD2
:10F3000001001B4B1B4A2800FDF714F9002823D1EC
:10F310006A46928802AB9A80042302AA1380053BB6
:10F320005380154B07900493092321001000059387
:10F33000069400F09FFD00280ED1DE2322885B009A
:10F34000E2520E4A1833E2500D4A043BE250D03BE1
:10F35000FF3BA3700B4B186009B0F0BD602A002082
:10F36000742A0020BC290020D02900207829002000
:10F3700000879303A4B5020020B5020039E3010021
:10F3800080C3C901382B002070B504000E20002C6A
:10F3900011D0A3780638012B0DD1074E3568002D0A
:10F3A00009D10648064B036002F029FF022328001A
:10F3B000A370E370346070BD382B002070290020EA
:10F3C00001E6010030B5837801009807800F9B08A3
:10F3D0000BF056F9040216180A22534300200E4A75
:10F3E0000E4D1268D3182A688B60002A0FD09468DB
:10F3F0001C1B09D500280CD11000C860296030BD45
:10F400006422EAE7064AE8E71000D268EDE7002840
:10F41000F3D0C160CA60F2E7542B00205C2B0020BF
:10F420007017000010B5032809D80BF029F9120253
:10F430000406094810BD0948FCE70948FAE7784680
:10F44000084B1B68002B02D098470020F2E700DE33
:10F45000FBE70548EEE7C04640420F008096980063
:10F460000046C32310540020A0860100F8B54F4E7B
:10F470003378002B13D04E4B5D6803F00BF94D4CE5
:10F480002D1A2078FFF7CEFF2378401B4A4C002B23
:10F4900038D14A4B984235D9236801332360484D0F
:10F4A0002A68002A00D17AE0424C937820789B07A2
:10F4B0009B0F83425EDD404B97681B68FF1A414BF0
:10F4C0005F43FFF7AFFF010038000BF0F7F82B6840
:10F4D0009D78AD07AD0FEBB2022B1AD02BD8012BC4
:10F4E00040D10A210BF070F900293BD103F0D2F88A
:10F4F000354B2570C11833782D48002B49D003F0C7
:10F500003DF8F8BD2F490BF0D9F825684019206067
:10F51000C5E723786421002B02D0012B22D10A21D8
:10F520000BF052F900291DD103F0B4F8274BC11894
:10F5300002232370DFE72378002B0AD124490BF044
:10F5400043F900290ED103F0A5F8224BC11803237B
:10F55000EFE7012B02D196218900F0E7022B01D1C0
:10F560003C21ECE703F096F805002078FFF75AFFFE
:10F570002918C0E703F08EF82B68070098788007F9
:10F58000800FFFF74FFF2B6839189B789B079B0F65
:10F59000CFE701234160337002F092FFB1E7337887
:10F5A000002BAED0024802F0B5FFAAE7582B00208E
:10F5B0003C2B0020592B0020542B002050C300006E
:10F5C0005C2B0020A086010040420F00809698002E
:10F5D000701700000046C32337B5244B1878032862
:10F5E00020D8234B1A680BF04BF80216181A013278
:10F5F0001A6000221F4B1A701F490C68002C07D09C
:10F600001B4AA3681068834215D012689B1A12D453
:10F61000FFF72CFF37BD0A32EAE76432E8E7174903
:10F620005218E5E77846164B1B68002B01D0984727
:10F63000DFE700DEDDE7E36825880B60002301A932
:10F640002800019300F0B6FD002805D078460C4B49
:10F650001B68002B08D098472800019963689847D9
:10F660002000FFF7AFFEC7E700DEF5E7592B0020CB
:10F67000542B0020582B00205C2B0020701700001A
:10F680001054002010B5084C1822002120000BF067
:10F690001BFA064B064AA36000231360054A136059
:10F6A000054A137010BDC0463C2B0020D9F501005F
:10F6B000542B00205C2B0020582B00201F234A09CC
:10F6C00019401E3B8B40920010581840431E984131
:10F6D000C0B27047104A83B282B0000C904215D17C
:10F6E000FF221800904306D0980B0C4B8003C018E3
:10F6F0004342584107E07F221900914304D17F3BE8
:10F700001800431E9841C0B202B070473F22934395
:10F71000C03B1800ECE7C046FFFF00000080FFFF81
:10F720000023012807D8343343430448C01830303D
:10F7300003780120034018007047C046982B002032
:10F7400010B57846034B1B68002B01D0984710BDBD
:10F7500000DEFCE71054002010B5804710BD00000B
:10F7600010B50F4C6822002120000BF0ADF90622E5
:10F7700000210C480BF0A8F9102200210A480BF0D8
:10F78000A3F9012302225B42211DE380A380E281D1
:10F79000A38163872387A418CA87E38710BDC04667
:10F7A000982B0020602B0020002C002010B50F4B60
:10F7B00086B003930E4B04930E4B059304230293E0
:10F7C00001F0B2FB0C4B0D4CC018012300906946B0
:10F7D0000B480193237004F07DFF002804D00948F2
:10F7E00005F0A0F806B010BD2070FBE769F8010035
:10F7F00041F7010009F8010000FCFFFF942B0020F5
:10F80000702B0020E022002010B5144B1978CA0795
:10F8100002D502220A431A70197ACA0702D50222B7
:10F820000A431A720E4B1A88002A03D00222597911
:10F830000A435A710B4B190030310878C20702D5C0
:10F84000022202430A7064331978CA0702D50222E1
:10F850000A431A70FFF7AAFF10BDC046002C002013
:10F86000602B0020982B002070B505008CB00E0096
:10F87000012A07D17846104B1B68002B19D09847F6
:10F880000CB070BD022AF5D0032AF9D101AC29329F
:10F89000002120000BF018F919232370173B237166
:10F8A000EB68200023612B69A660636101F09CFF77
:10F8B000E6E700DEE4E7C04610540020F0B5077D1F
:10F8C00087B0040005AE012F3BD1300001F0CCFB26
:10F8D000E38A3288934225D3718889188B4221DAD2
:10F8E00000269B1A4C4D9BB20193083503972B00C1
:10F8F00028331B78039A134210D0AB88019A9342A5
:10F900000CD1618C2800FFF7D9FE002806D02B8C83
:10F9100020889C4600236188634505D30136343531
:10F92000022EE4D107B0F0BDDA000292EA69DF00EE
:10F93000D2191788874202D152888A4254D00133A3
:10F94000EAE7012331005B421430338001F0F4FB1D
:10F95000002805D07846314B1B68002B35D09847DE
:10F96000308801F0A1FB002805D178462B4B1B689D
:10F97000002B2CD098470023274D019308352B00EE
:10F98000012228331B78134218D0EF88974215D8EC
:10F99000618C2800FFF792FE00280FD0FF00381D71
:10F9A0001F4F31883818FFF789FE002806D02B8CAE
:10F9B00000229C462088618862450AD3019B343529
:10F9C00001330193022BDAD1ACE700DEC8E700DE99
:10F9D000D1E7EF69D300FB181F88874202D15F8807
:10F9E0008F4211D00132E7E7B7B26A6A21003800CE
:10F9F00000F00EFDEA69029B944663445B686A6A04
:10FA000021003800984789E76A465B6890882100A2
:10FA10006A6A9847D2E7C046982B0020105400200D
:10FA2000002C0020F0B503788DB00400002B00D02E
:10FA30007CE042683F33157829009943402910D073
:10FA400004D800290DD0002635000EE0802900D111
:10FA50006EE0C029F7D1567893783602ADB21E43D6
:10FA600003E0ADB27F2D61D0334E344B1B689B0455
:10FA700022D5334B1B68042B1ED9324F2F2138005F
:10FA80000BF0F3F82F21002807D15C2138000BF090
:10FA9000ECF83900002804D05C2138000BF0E5F8C0
:10FAA000411C294A294B0520D358294A0195009227
:10FAB0002422FF3204F0A8F9206A1F4F01F088FBCE
:10FAC00003AB1D805E8061680322BE4204D1FC321C
:10FAD000AA429241524201328A185A602189032275
:10FAE000BE4204D1FC32AA429241524201328A1AE9
:10FAF0001A81227B1A73E289DA8122691A61227DD6
:10FB00001A75E28ADA82A2699A61A26A053451689A
:10FB1000D9610D2151560D226A44D1770E22E17F21
:10FB20006A4458841800D177FFF7C8FE0DB0F0BDC5
:10FB300053782D021D4397E7FFFF00003823002074
:10FB40003423002030B8020000B00040040500005B
:10FB50004CB802007C23F0B595B002AFF8601500F8
:10FB60000A89FF330E0009249A4200D93FE1FFF7CA
:10FB7000D7FD043C002800D139E13423FA6853430F
:10FB8000A84AD3189A89002A00D030E1002D09D163
:10FB90009988A54A0234914200D128E1DB8893423A
:10FBA00000D124E13068FFF795FD0724002800D13B
:10FBB0001DE110220823BA18D01801F055FA342399
:10FBC000FA68798B5343974A1024D3189A89914243
:10FBD00000D80CE1398B521892B27A60002D00D116
:10FBE000BAE06B8C1021BB600C222B0079188A18AC
:10FBF0000C3303CB03C2280016230C30F91801F094
:10FC00009BFA002802D001235B42FB823423FA686E
:10FC10005343844AD3181B7CFB60FF2B02D1834BD8
:10FC20001B78FB603B7F012B00D0E4E0FA8B398B23
:10FC30008A4200D3A6E06B4610223B601423BA1818
:10FC4000D5180021202228000AF03EFF738876484C
:10FC500031880322834204D1FF238B429B415A42C5
:10FC600001323389B8689B186A460733DB08DB002A
:10FC7000D31A10229D462823BA18D11802AC01F0DD
:10FC80005BFB002806D07846694B1B68002B00D12F
:10FC9000BBE0984710210C222B0079188A1803CA60
:10FCA00003C3BB88EC602B813B7B7088AB723389CC
:10FCB0005D4A9C4631880323904204D1FC338B4239
:10FCC0009B415B42013363442B82574B984200D1E6
:10FCD0009DE0030A21706370A070534A0323904291
:10FCE00004D1FF208842804143420133E01862463C
:10FCF00071680AF0E0FE0021280002F093F9041E6A
:10FD000027D14C4B1B689B0423D54B4B1B68042B02
:10FD10001FD94A4D2F2128000AF0A7FF2F210028C4
:10FD200007D15C2128000AF0A0FF2900002804D098
:10FD30005C2128000AF099FF411C414A414B0520F3
:10FD4000D35832880192404A0092C622FF3204F012
:10FD50005BF83B689D464AE09A88D888BA601022D2
:10FD60000C23BA18D118F88201F0B8F9002800D194
:10FD70004CE778462E4B1B68002B01D0984745E78F
:10FD800000DE43E77B8B5B189A4200DB53E71022CF
:10FD90001423BA18D4180021242220000AF094FE5B
:10FDA000336810227B627368BA186360338910214C
:10FDB000238101232373BB887918E3812823D31877
:10FDC0000C228A1803CA03C302F064FC1022162313
:10FDD000BA18D3183A7BE061DA773B892000638454
:10FDE000FFF76CFD3B7F0024012B00D023E72000B0
:10FDF000BD4613B0F0BDF88A0B4B984200D11AE70C
:10FE000001F052F90028C2D115E700DE42E7FF23D6
:10FE10000A009A4303D00B0A237061705DE72170DA
:10FE20005BE7C046982B0020FFFF0000F022002077
:10FE300010540020382300203423002030B8020062
:10FE400000B00040040500005FB8020010B5FFF7E5
:10FE500087FC0648064B036002F0D1F900F01CFB5A
:10FE6000FFF710FCFFF7A2FC10BDC046682B002076
:10FE700025FA0100F7B504000D000E20002C00D17A
:10FE8000B5E0A368002B00D1B1E0002900D1AEE0BD
:10FE900001235B420B80E3680538002B00D1A6E00C
:10FEA000A3880438002B00D0A1E0594EB378F27833
:10FEB0009B18002B00D075E00027A3680093E3682F
:10FEC0000193019BBB4200D092E02F885149524BD5
:10FED0008F4243D11A00012030321278024005D0FF
:10FEE0001A0064321278024201D1020097B22F80C8
:10FEF00004208F4200D17AE034225743D8190127D9
:10FF00007F42C78028885043181887802888A78890
:10FF10005043181887812888278850431F52288803
:10FF20006788504318184780288842433B489A18EE
:10FF3000007810740622A08867884243B6188F4262
:10FF400000D05EE0B2780132B270342229884A4390
:10FF500002219A1830321078014311703422298816
:10FF6000206951435918C8622988A068514359181B
:10FF700048622988A08951435918088529886069F1
:10FF800051435918886111002888414359188882C3
:10FF9000298800204A439B180122303319780A43EC
:10FFA0001A7024E01C4B20889A896188002A05D1A8
:10FFB0001F88874202D15F888F420DD09A1CD28F52
:10FFC000002A00D078E79A8E824200D074E7DA8E59
:10FFD0008A4200D070E7012211002A8034224A436D
:10FFE0009B1830331B780F20DB0700D464E7FEBD7D
:10FFF000009AFB009858FFF76DFB002805D00137E9
:020000022000DC
:100000005FE7F2780132F2709FE70720EFE7C04622
:10001000602B0020FFFF0000982B0020F022002022
:1000200010B50E23002903D00022FFF793FD030033
:10003000180010BD10B50E230C001100002C05D0C7
:10004000002A03D02200FFF785FD0300180010BD31
:1000500070B505000C00FFF763FB0522002811D0E6
:100060000232042C0ED834235D43074B00225B1967
:10007000D988A14206D0DC803033197802320A4395
:100080001A700022100070BD982B002070B50E234E
:1000900005000C1E0BD0FFF743FB0523002806D0FC
:1000A0003420454303484019C388238000231800A7
:1000B00070BDC046982B0020F8B505000F00FFF773
:1000C0002FFB052300281AD00233012F17D834261E
:1000D0006E4335000B4C0835651939002800FFF7D1
:1000E000EDFA002398420AD10122BA402968A419E6
:1000F0000A432A600222303421780A432270180011
:10010000F8BDC046982B002070B505000C00FFF725
:1001100007FB0522002811D00232012C0ED834230F
:100120005D43074B00225B199988A14206D09C8051
:100130003033197802320A431A700022100070BD61
:10014000982B002070B505000C00FFF7E9FA052296
:10015000002814D02300803BDBB202327E2B0ED964
:1001600034235D43074B00225B19197CA14206D062
:100170001C743033197802320A431A7000221000BE
:1001800070BDC046982B002070B50E2305000C1ED4
:100190000BD0FFF7C5FA0523002806D034204543CD
:1001A00003484019037C23700023180070BDC0462B
:1001B000982B002070B50E2305000C1E0BD0FFF706
:1001C000AFFA0523002806D03420454303484019E0
:1001D000C36A23600023180070BDC046982B00201E
:1001E0002823434370B5324C0500E3183C331B7899
:1001F000002B05D178462F4B1B68002B4ED098471B
:10020000230068331B88002B05D17846294B1B68D7
:10021000002B45D0984728236B43E3181A00002190
:1002200020003C32683011700288013A92B202809C
:100230008A4239D022006A321288AA422DD11E4A3F
:100240005B6B1E489B1822003C32157802008D42E1
:1002500005D0656BEE1A8E4201DA2B000A002100F0
:1002600064310978002903D0E16DCB1A00D5012251
:1002700023006A331A80824205D178460D4B1B68F1
:10028000002B0FD0984723006A331A882823534342
:10029000E318596B200002F071F970BD00DEAFE782
:1002A00000DEB8E700DEEEE7200002F033F9F4E705
:1002B000102C00201054002000879303FFFF000043
:1002C000F0B54F4D85B02B0068331B880700002B1D
:1002D00005D178464B4B1B68002B32D09847FA2348
:1002E0009B00FB18019301222B002C0000266A338F
:1002F00052421A801834220024321378002B1BD06B
:10030000636901995B1A20D5002313702A006832B3
:10031000138803A9013B13802088FFF74BFF0028B7
:1003200005D07846374B1B68002B0CD098472088A7
:1003300001220399A369984701362834022E26D05A
:10034000D9E700DECBE700DEF1E7E269019BD31AD3
:1003500043D5211D2088FFF763FE2B006A331E80E2
:1003600000280BD1236AE269D2185B00E2612362A4
:100370006269E369D31ADFD5E261DDE7042823D19E
:1003800028235E43AE19736B1F4A9B1873632B00BF
:1003900068331B88002B14D02B006A331B88012B79
:1003A00005D97846174B1B68002B27D098472B00A0
:1003B0006A331A8828235343EB185A6BD31B00D592
:1003C000BB1AEB6005B0F0BD78460E4B1B68002BE6
:1003D00001D09847CCE700DECAE72B006A331B88C0
:1003E0000A498B4206D028214B43EB185B6BD21A8B
:1003F00000D4A1E72B006A331E809DE700DED6E71C
:10040000102C002010540020409C0000FFFF000032
:10041000F7B505000F000192012805D978461C4B5D
:100420001B68002B18D0984702F08EFD194C230052
:100430003C331B78002B02D0238BAB420ED0230021
:1004400064331B78002B04D0A31CDB8F0126AB4246
:1004500005D002F09DFDF7BD00DEE5E7002628226D
:10046000731C53433A88E15A9142F2D1E3185A88F7
:100470007B889A42EDD1B0B2FFF7B2FE28235E43EB
:10048000A419236B0022019928009847E1E7C04690
:1004900010540020102C002010B5044C6C220021B8
:1004A00020000AF011FB024BA36010BD102C0020AD
:1004B000C102020070B505000524012817D802F01A
:1004C00043FD0F4B1A003C321278002A02D01A8BDF
:1004D000AA420ED01A00643212780524002A04D0F1
:1004E0000233DB8F0120AB4204D002F051FD20002B
:1004F00070BD002080B2FFF773FE0024F5E7C04610
:10050000102C00200E23F0B585B0061E009300D1FC
:10051000C4E08369002B00D1C0E00522038800926B
:10052000012B00D9BAE00721624A436900919B1868
:10053000614A934200D9B1E002F006FD5F4D2B0005
:1005400068331B88022B00D9ABE02B003C331C78AE
:10055000002C10D032882B8B594C9A4212D0042395
:1005600000932B0064331B78002B06D1544A94422D
:100570000BD1012407E00094F3E7AB1CDA8F33883A
:100580009A4203D10823009300E01C0002F000FD12
:10059000009B002B00D081E0311D3088FFF740FD2B
:1005A000042302009A43131E00D081E028336343E2
:1005B000EB183C331B78002B06D07846414B1B6868
:1005C000002B00D170E0984702F064F801902820D9
:1005D00060431830310028181C220AF06CFA02AB74
:1005E000DF1D30883900FFF7CFFD002805D07846A1
:1005F000344B1B68002B59D09847F188304AB38898
:100600000320914204D1FC309842804140420130A5
:10061000B3893E782C4FC0187E432C4B80B2F6181D
:100620000B2805D90B300C210AF0D2F84743F619F4
:1006300028222827631C53436743EB185A68019903
:10064000EF19BE6352188E195A607E6302F07CFC6B
:100650002B0068331B88194E002B09D02B00282251
:100660006A331B885343ED186B6B7A6B9B1A09D462
:1006700028236343F318596B300001F07FFF3300E8
:100680006A331C8028235C433419273B3C3468368A
:10069000237033880133338002F07AFC009805B070
:1006A000F0BD074C04236EE700DE8DE700DEA4E713
:1006B0000090F3E7803C36FE80C3C901102C002077
:1006C000FFFF000010540020204E0000400D0300EA
:1006D0001F234A0919401E3B8B40920010581840B6
:1006E000431E9841C0B270474B099B00C0181F239E
:1006F00019401E3B8B4002681343036070474B094F
:100700009B00C0181F2319401E3B8B4002689A4370
:10071000026070470A00F0B5002301271F3252091A
:10072000551E934201D10120F0BD01246442AB4229
:1007300005D13E005C010C1BA6403400013C9E002C
:100740008659264201D10133EBE70020ECE7000097
:1007500010B50021042803D10248FFF7B9FF0100BA
:10076000080010BD8C2C002001235B4270B50500F1
:100770000C000B8008480021FFF7AAFF002806D0D4
:10078000064B1A880023AA4203D1238070BD208023
:10079000FCE71800FAE7C046202D0020282D002095
:1007A00001235B4270B505000C000B800748002157
:1007B000FFF78EFF002803D0054B1B88AB4202D108
:1007C0000123238070BD0020FCE7C046C42C00201C
:1007D000CC2C002001235B4270B505000C000B807F
:1007E00008480021FFF774FF002806D0064B1A883E
:1007F0000023AA4203D1238070BD2080FCE71800AB
:10080000FAE7C046A42C0020AC2C0020024B80004C
:10081000C35A0B807047C046942C002010B5041EAC
:1008200005D17846044B1B68002B02D09847A0479F
:1008300010BD00DEFBE7C04610540020F7B51625BA
:100840005C1E65430D4E0190A81D0F00301811006D
:1008500010220AF030F9002273195A7101321A710C
:100860005F806B469B882100AB530548FFF73CFF38
:1008700021000448FFF738FFF7BDC046CC2C00200C
:10088000C42C0020C82C002010B54C88013083B245
:100890000A1D08882100FFF7D1FF10BD70B516258D
:1008A0000E004543064CA91D6118301D10220AF0A8
:1008B00002F92B5B641933806388738070BDC04676
:1008C000CC2C002070B516250E004543064CA91D02
:1008D0006118301D10220AF0EEF82B5B641933808A
:1008E0006388738070BDC046AC2C002070B55C245A
:1008F0000D004443044EA11C7118A81C10220AF0DC
:10090000DAF8A35B2B8070BD282D002010B50C00F9
:1009100014214143034B04315918102220000AF0DE
:10092000CAF810BD842D002010B5042201480AF039
:10093000C2F810BD1A2D002010B50800042202498B
:100940000AF0B9F810BDC0461A2D0020F7B51624DC
:1009500017005C43164E0090A01D0191301839001D
:1009600010221D000AF0A7F8611D7118380003F06D
:10097000ADF9002805D078460E4B1B68002B14D02B
:100980009847162300216B43F218117169460988B4
:100990000948F1526B469B8829005380FFF7A4FE5B
:1009A00029000648FFF7A0FEF7BD00DEE9E7C046D4
:1009B000AC2C002010540020A42C0020A82C0020D7
:1009C00010B54C8883B20A1D08882100FFF7BEFFCE
:1009D00010BD0000F7B55C2454432300204D343390
:1009E0001600EB182A1901900F001364002802D199
:1009F00001221C4B1A70210012316918380003F0D3
:100A000070F9002805D07846174B1B68002B22D0C0
:100A10009847210044316918380003F073F9002821
:100A200005D07846104B1B68002B16D09847A01CA9
:100A30003900281810220AF03EF85C236A467343F6
:100A400092883100EA520948FFF74EFE310008480B
:100A5000FFF74AFEF7BD00DEDBE700DEE7E7C04652
:100A6000282D0020182D002010540020202D0020BB
:100A7000242D00200B0010B582B202311888FFF738
:100A8000A9FF10BDF8B5142706000C1F67430F4DD2
:100A9000381D3100281810220AF00DF8E91930002D
:100AA00003F05AF9002805D07846094B1B68002B43
:100AB00009D0984721000748FFF716FE2100064895
:100AC000FFF712FEF8BD00DEF4E7C046842D0020DB
