:020000022000DC
:1030000000000120CD960200F5960200F93F020073
:10301000F9960200FB960200FD96020000000000F7
:10302000000000000000000000000000FF96020009
:1030300001970200000000000397020005970200BC
:103040000797020007970200079702000797020000
:1030500007970200079702000797020007970200F0
:1030600007970200079702000797020007970200E0
:1030700007970200079702000797020007970200D0
:10308000079702000797020061AC02000797020051
:1030900007970200079702005940020007970200B5
:1030A00007970200079702000797020007970200A0
:1030B00007970200079702000000000000000000D0
:1030C0000797020007970200079702000797020080
:1030D0000797020007970200079702000000000010
:1030E00000000000000000000000000000000000E0
:1030F00000000000000000000000000000000000D0
:1031000000000000000000000000000000000000BF
:1031100000000000000000000000000000000000AF
:10312000000000000000000000000000000000009F
:10313000000000000000000000000000000000008F
:10314000000000000000000000000000000000007F
:10315000000000000000000000000000000000006F
:10316000000000000000000000000000000000005F
:10317000000000000000000000000000000000004F
:10318000000000000000000000000000000000003F
:10319000000000000000000000000000000000002F
:1031A000000000000000000000000000000000001F
:1031B000000000000000000000000000000000000F
:1031C00000000000000000000000000000000000FF
:1031D00000000000000000000000000000000000EF
:1031E00000000000000000000000000000000000DF
:1031F00000000000000000000000000000000000CF
:1032000010B5054C237833B9044B13B10448AFF320
:1032100000800123237010BD9832002000000000C0
:103220008C3703000C4B43B10C480D4910B5AFF37C
:1032300000800C48036823B910BD0A48036833B9FD
:103240007047094B002BF7D0BDE810401847064BDC
:10325000002BF5D0184700BF000000008C3703009A
:103260009C3200209032002000000000154B002B03
:1032700008BF134B9D46A3F5803A00218B460F46AD
:103280001348144A121A0FF003F80F4B002B00D00A
:1032900098470E4B002B00D09847002000210400D7
:1032A0000D000D48002802D00C48AFF300800EF04E
:1032B000A1FF2000290000F01DFB0EF087FF00BFDA
:1032C00000000800000001200000000000000000D5
:1032D000983200205461002000000000000000002F
:1032E000F0B503788FB004460B2B00F2C481DFE801
:1032F00013F071007100C2010C0073009800C2014C
:10330000C2018701C2010B01BA00A94D2978012928
:1033100060D14D228DF821204F228DF82220542299
:103320008DF823208DF828204B2250238DF829205A
:10333000A04A8DF81C30422312888DF81D3052238C
:103340008DF81F30ADF8322045239DF834208DF8DC
:1033500020308DF824308DF827308DF82A3059230D
:103360005F208DF82B3002F0FE02002363F3410250
:103370008DF81E008DF825004E20049305938DF8DE
:103380002600ADF82C30ADF82E30ADF830308DF889
:103390003420CDF817308DF811108DF812308DF8DB
:1033A000141004AB844A85498548043402F043FB79
:1033B00018B1844AB42100F0E5FD002307AA214694
:1033C0007F4802F04CFB18B17E4AB52100F0DAFDCF
:1033D00000232B700FB0F0BD7B4B1B685904F9D54F
:1033E0007A4B1B68032BF5D92F2176480FF024F870
:1033F00070B12F2173480FF01FF8411C744B754AB0
:10340000D3F804350092C822042008F09BFBE1E7C2
:103410005C216C480FF010F808B15C21EAE76949BB
:10342000ECE7694B1B685A04D4D5684B1B68032B27
:10343000D0D92F2163480EF0FFFF58B12F216148EA
:103440000EF0FAFF411C624B634AD3F80435009238
:10345000CC22D9E75C215B480EF0EEFF08B15C217D
:10346000EDE75849EFE75D4D5D4F2978514E07EB89
:103470004101308805F0DAFC18B1524AD12100F040
:1034800081FD2B78574A5849E08A0988013302EBBD
:103490004303E26805F096FD18B14A4AD52100F0D1
:1034A00071FD494B1B685B041CD5484B1B68032B03
:1034B00018D92F2143480EF0BFFFE0B12F2141481A
:1034C0000EF0BAFF411C2A78414B37F81220D3F88E
:1034D00004350292E28A0192444A00920420DA22E0
:1034E00008F030FB2B78424A01332B701288338866
:1034F000134433806EE75C2132480EF09DFF08B123
:103500005C21DCE72F49DEE710220121406802F050
:10351000CDFA2D4B054630B31B6858047FF55AAFE2
:103520002A4B1B68002B3FF455AF2F2125480EF086
:1035300083FF78B12F2123480EF07EFF411C244BDE
:103540002C4AD3F8043500920195E722012008F0B7
:10355000F9FA3FE75C211B480EF06EFF08B15C21D1
:10356000E9E71849EBE7224A1B68217A11805904E0
:103570007FF530AF154B1B68032B7FF62BAF2F2148
:1035800010480EF059FF58B12F210E480EF054FF8D
:10359000411C0F4B184AD3F804350092EC2233E754
:1035A0005C2108480EF048FF40B35C21EDE700BF06
:1035B000BE320020B0310020DA320020F835002081
:1035C000FC32002044270300143200201032002077
:1035D00000B000406C27030091270300D632002082
:1035E000B6320020C0320020D4320020B1270300C0
:1035F000D8320020E1270300152803003149C8E72D
:10360000314B07AA03F1100716461868596815468A
:1036100003C50833BB422A46F7D110223146606801
:1036200002F04BFA18B1274AF62100F0ABFC274B09
:103630001B685A047FF5CEAE254B1B68032B7FF623
:10364000C9AE2F211F480EF0F7FE58B12F211D489B
:103650000EF0F2FE411C1F4B1F4AD3F804350092B6
:10366000F722D1E65C2117480EF0E6FE08B15C2196
:10367000EDE71449EFE7154B1B685B047FF5AAAE35
:10368000134B1B68032B7FF6A5AE2F210D480EF0C0
:10369000D3FE70B12F210B480EF0CEFE411C0D4B16
:1036A0002278D3F8043501920C4A00920420FF22BC
:1036B0004DE75C2103480EF0BFFE08B15C21EAE74C
:1036C0000049ECE744270300B8240300143200202B
:1036D0001032002000B000403228030057280300B9
:1036E0002DE9F04184B00378714C0A2B04AF0546F4
:1036F0001ED00B2B4CD0042B40F0B4802368580410
:1037000031D56C4B1B68032B2DD92F216A480EF045
:1037100093FE002833D02F2167480EF08DFE411C08
:10372000664B674AD3F80435009240F20D1217E059
:1037300023685C0417D55F4B1B68032B13D92F211B
:103740005D480EF079FE88B12F215B480EF074FEC3
:10375000411C5A4B5B4AD3F80435009240F20912DF
:10376000042008F0EFF9BD46BDE8F0815C21524825
:103770000EF062FE08B15C21E7E74F49E9E75C2102
:103780004D480EF059FE08B15C21C5E74A49C7E72C
:103790002368590436D5474B1B68032B32D94A4B53
:1037A000D0F804E01968E8468AB004AE00231EF899
:1037B0000320100902F00F02085C06F81300885C71
:1037C00006EB43020133102B5070F0D1002386F832
:1037D00020302F2138480EF02FFE002830D02F2126
:1037E00035480EF029FE411C344B384AD3F80435D5
:1037F0000192374A0092029640F21112042008F01A
:10380000A1F9C54623685A04ADD52A4B1B68032B82
:10381000A9D92F2128480EF00FFED0B12F2126481C
:103820000EF00AFE411C254B2A7AD3F8043501928A
:10383000284A00924FF48972042008F083F992E735
:103840005C211D480EF0F8FD08B15C21C8E71A495B
:10385000CAE75C2118480EF0EFFD08B15C21DEE7F5
:103860001549E0E723685B047FF57DAF114B1B68CA
:10387000032B7FF678AF2F210F480EF0DDFD70B1DE
:103880002F210D480EF0D8FD411C0C4B2A78D3F89F
:1038900004350192104A00924FF48B72CCE75C2100
:1038A00005480EF0C9FD08B15C21EAE70249ECE7E2
:1038B00014320020103200204427030000B00040E2
:1038C000902803006E28030018320020AC28030063
:1038D000BC280300C4280300D328030008B50DF05A
:1038E0009DFBC0B20A28FAD00D28F8D0FF28F6D0E8
:1038F00008BD00002DE9F04700238CB04FF4F01212
:103900004FF0A041032042FA03F4E70748BF03F554
:10391000E07403F1010348BF41F82400202BF2D1E9
:10392000A24DA34A04214FF4C04008F0F1F82B68DF
:103930005E0419D59F4B1B68032B15D92F219E4878
:103940000EF07AFD002800F0A2802F219A480EF098
:1039500073FD411C994B9A4AD3F804350092042018
:1039600040F2651208F0EEF800F062FC9548964BC4
:1039700003600024446006F0AAFB05F0F3F910226E
:10398000214605A80EF084FC904B0DF1080818683C
:103990000290404605F0FAF918B1874A802100F0FC
:1039A000F1FA8B4A8B49002005F0E0FA18B1824AFF
:1039B000812100F0E7FA8649874B098805AA002093
:1039C00005F03CFB18B17C4A822100F0DBFA04F0E0
:1039D00037F9824B824A8348002101F0F5FC18B187
:1039E000754A852100F0CEFA7B4C7E4F21883888BD
:1039F00004F056FA18B1704A862100F0C3FA218803
:103A0000388804F075FA18B16B4A872100F0BAFAC9
:103A10000621388804F08AFA18B1674A882100F034
:103A2000B1FA7149714802F018F818B1624A772169
:103A300000F0A8FA2B685C0417D55E4B1B68032BBB
:103A400013D92F215C480EF0F7FC48B32F215A48B8
:103A50000EF0F2FC411C594B654AD3F80435009234
:103A600004204FF4B87208F06DF8DFF89091514ED1
:103A7000514C0DF0D3FA31283FD01ADC0A2803D07C
:103A80000D2801D001301ED106F03AFAF1E75C2191
:103A900049480EF0D1FC08B15C2157E7464959E787
:103AA0005C2145480EF0C8FC08B15C21CFE74249D3
:103AB000D1E7332800F0C98023DB342800F0F180FF
:103AC000352800F01A812B685B04DDD53368032BA1
:103AD000DAD92F2120460EF0AFFC002800F0B28189
:103AE0002F2120460EF0A8FC411C344B404AD3F84D
:103AF0000435009240F25B129AE0012389F800300D
:103B0000C2E72B68580417D53368032B14D92F212B
:103B100020460EF091FC002836D02F2120460EF0D2
:103B20008BFC411C254B334AD3F80435009204200A
:103B300040F2331208F006F8FFF7D0FEA0F1300192
:103B400089B2388804F07AF92B688246002857D069
:103B5000590499D53368002B96D02F2120460EF0BA
:103B60006BFCD0B12F2120460EF066FC411C134B9C
:103B7000214AD3F804350092CDF804A040F239125E
:103B8000012007F0DFFF7FE75C2120460EF054FCA8
:103B900008B15C21C2E72146C4E75C2120460EF053
:103BA0004BFC08B15C21DEE72146E0E7143200203F
:103BB000E5BA0200103200204427030000B00040A4
:103BC000F7250300CC320020E1320200C8240300B4
:103BD000D4320020E7250300B4320020E136020091
:103BE000FC32002038360020DA320020F835002080
:103BF000CC2403003B26030062260300BE320020D3
:103C00005A047FF541AF3368032B7FF63DAF2F2178
:103C100020460EF011FC78B12F2120460EF00CFC4E
:103C2000411C8D4B8D4AD3F80435009240F23D1271
:103C3000042007F087FF27E75C2120460EF0FCFBFD
:103C400008B15C21E9E72146EBE7854801F006FC75
:103C5000824600283FF418AF2B685B047FF514AF51
:103C60003368002B3FF410AF2F2120460EF0E4FB09
:103C700070B12F2120460EF0DFFB411C764B794AB4
:103C8000D3F804350092CDF804A040F2451277E74E
:103C90005C2120460EF0D0FB08B15C21EAE721460A
:103CA000ECE76F4801F0FCFB824600283FF4ECAEE5
:103CB0002B6858047FF5E8AE3368002B3FF4E4AE80
:103CC0002F2120460EF0B8FB70B12F2120460EF0B8
:103CD000B3FB411C604B644AD3F804350092CDF825
:103CE00004A04FF4A6724BE75C2120460EF0A4FB23
:103CF00008B15C21EAE72146ECE72B68590418D5A6
:103D00003368032B15D92F2120460EF095FB002890
:103D100000F086802F2120460EF08EFB411C4E4B7A
:103D2000524AD3F804350092042040F2511207F0B1
:103D300009FFFFF7D3FD4D228DF819204F228DF892
:103D40001A2054228DF81B208DF820204B2250235E
:103D50008DF82120464A8DF81430422312888DF8C0
:103D6000153052238DF81730ADF82A2045239DF8E1
:103D70002C208DF818308DF81C308DF81F308DF800
:103D8000223059238DF8233002F0FE0200235F21F8
:103D900063F3410230388DF816108DF81D108DF840
:103DA0002C204E210122C0B2C8F80030C8F80430DF
:103DB0008DF81E10C8F80730ADF82430ADF8263065
:103DC000ADF828308DF809208DF80A308DF80C20D8
:103DD0000190CDF80080274B274A214805A901F022
:103DE00081FB824600283FF44FAE2B685A047FF5D2
:103DF0004BAE3368002B3FF447AE2F2120460EF028
:103E00001BFBB0B12F2120460EF016FB411C124BBC
:103E10001A4AD3F804350092CDF804A0A222AFE6E6
:103E20005C2120460EF008FB08B15C2173E72146B7
:103E300075E75C2120460EF0FFFA08B15C21E2E74D
:103E40002146E4E75C2120460EF0F6FA08B15C2139
:103E500047E6214649E600BF00B000408B2603003C
:103E60003836002098260300C3260300EF260300FF
:103E7000B0310020DA320020F83500201527030089
:103E800048DF704710DF704760DF704761DF7047C1
:103E90004FF0A0434FF4F012C3F80825C3F80C25E7
:103EA000EFF3108372B60028FDD1704713B5144BA1
:103EB0001B685B04044613D52F2112480EF0BCFA90
:103EC000A0B12F210F480EF0B7FA411C0E4B0F4A3C
:103ED000D3F80435009201944E22002007F032FE00
:103EE000204602B0BDE81040FFF7D2BF5C21054874
:103EF0000EF0A2FA08B15C21E4E70249E6E700BF50
:103F0000143200200C29030000B0004027290300D0
:103F10007FB5174B1B685B0405460C46164618D543
:103F2000144B1B68ABB12F2113480EF085FAB0B1CA
:103F30002F2111480EF080FA411C104B104AD3F883
:103F4000043500920396029401957022012007F037
:103F5000F9FD204604B0BDE87040FFF799BF5C2131
:103F600005480EF069FA08B15C21E2E70249E4E78E
:103F700014320020103200200C29030000B0004051
:103F8000EC2903007FB5174B1B685B0406460D4602
:103F9000144618D5144B1B68ABB12F2113480EF0F3
:103FA0004BFAB0B12F2111480EF046FA411C104BCC
:103FB000104AD3F8043500920396029501944822E2
:103FC000012007F0BFFD012004B0BDE87040FFF7FD
:103FD0005FBF5C2105480EF02FFA08B15C21E2E7D3
:103FE0000249E4E714320020103200200C290300BB
:103FF00000B00040EF28030007B5134B1B685B04BB
:1040000012D52F2111480EF017FA98B12F210F4821
:104010000EF012FA411C0E4B0E4AD3F804350092F2
:104020000020542207F08EFD012003B05DF804EB60
:10403000FFF72EBF5C2105480EF0FEF908B15C21A8
:10404000E5E70249E7E700BF143200200C2903002E
:1040500000B00040E128030073B501A8FFF710FF8E
:1040600060B102AD4F2325F8063D094E1C46294696
:104070000748FFF70BFF28B102B070BD019806F0AA
:1040800021F8EAE7304606F01BF8ADF80240EEE70B
:104090006436002030B5404C2368590485B017D5EC
:1040A0003E4B1B68032B13D92F213D480EF0C4F95A
:1040B000002855D02F213A480EF0BEF9411C394B4B
:1040C000394AD3F80435009204207A2207F03AFDE9
:1040D000364B0293029B039323685A0419D52F4B46
:1040E0001B68032B15D92F212D480EF0A5F90028A8
:1040F0003FD02F212A480EF09FF9411C294BD3F8BD
:104100000435029A01922A4A00920420832207F081
:1041100019FD03A8FFF7B8FE029B039A9A420546D1
:104120001BD023685B0418D51C4B1B68012B14D9CA
:104130002F211B480EF080F920B32F2118480EF0D4
:104140007BF9411C174B039AD3F804350192194AA5
:10415000009202208C2207F0F5FC284605B030BD05
:104160005C210F480EF068F908B15C21A3E70C4907
:10417000A5E75C210A480EF05FF908B15C21B9E7B8
:104180000749BBE75C2106480EF056F908B15C21EF
:10419000D4E70349D6E700BF1432002010320020D4
:1041A0000C29030000B0004087290300B031002033
:1041B000A3290300B329030007B502AB184943F84C
:1041C000040D1846FFF75EFE18B1164A9321FFF75B
:1041D000D9FE154A92F816335B09012B01D9042B3D
:1041E00015D1104A942142F20200FFF7CBFE03E002
:1041F0001A6842F480021A60FFF74CFF18B1094AAE
:104200009721FFF7BFFE002003B05DF804FB074BCA
:1042100099680029ECD14FF480031360ECE700BFEC
:10422000113F02000C29030000E100E0C8600020FB
:1042300010B54B4C2368590486B017D5494B1B6801
:10424000032B13D92F2148480EF0F6F800286CD024
:104250002F2145480EF0F0F8411C444B444AD3F856
:10426000043500920420B52207F06CFC01238DF880
:10427000083000238DF809308DF80A3007238DF8B7
:104280000B300298FFF798FF23685A0417D5354B77
:104290001B68032B13D92F2133480EF0CDF80028CB
:1042A0004CD02F2130480EF0C7F8411C2F4B314A1B
:1042B000D3F8043500920420BF2207F043FC00230A
:1042C0000393059301238DF80C3007238DF80F30ED
:1042D00003A8294B049305F095FD18B1224AC42187
:1042E000FFF750FE23685B0416D51E4B1B68032B9B
:1042F00012D92F211C480EF09FF840B32F211A48E5
:104300000EF09AF8411C194B1C4AD3F80435009260
:104310000420C62207F016FC05F0CCFD18B1124AA5
:10432000C721FFF72FFE06B010BD5C210E480EF02E
:1043300083F808B15C218CE70B498EE75C210A48C1
:104340000EF07AF808B15C21ACE70749AEE75C21D2
:1043500005480EF071F808B15C21D0E70249D2E7B8
:1043600014320020103200200C29030000B000405D
:104370004029030059290300AD3E020072290300C1
:1043800000207047002070470020704713B5154B80
:104390001B689B04044619D5134B1B68012B15D9C8
:1043A0002F2112480EF048F898B12F210F480EF037
:1043B00043F8411C0E4B227AD3F8043501920D4A82
:1043C0000092022040F2651207F0BCFB207A02B096
:1043D00010BD5C2105480EF02FF808B15C21E5E71F
:1043E0000249E7E714320020103200201F2D03009D
:1043F00000B000404A2D03001FB50023024601A86B
:104400000193029303938DF80410904705B05DF873
:1044100004FB000030B50446007A4B68032885B0E1
:104420005D6812D1A28B48F260039A420BD12B78BF
:10443000002B35D00221606801F0FCFBA06A04214A
:10444000FFF7DAFF012005B030BD164B1B689B0457
:104450001BD5154B1B68032B17D92F2113480DF0C3
:10446000EBFFA0B12F2111480DF0E6FF411C104BCE
:10447000227AD3F8043502922A7801920D4A0092EA
:10448000042040F2992207F05DFB207ADBE75C21F3
:1044900006480DF0D1FF08B15C21E4E70349E6E7E7
:1044A0000220D0E714320020103200201F2D03001C
:1044B00000B00040B92C030037B50446007A4B68C1
:1044C00002285D6828D003287DD00128784B40F071
:1044D000C7802A7812B3012A46D01B6899041AD5DE
:1044E000744B1B68042B16D92F2173480DF0A4FFC1
:1044F00000285FD02F2170480DF09EFF411C6F4BAC
:104500002A78D3F8043501926D4A0092052040F2D2
:10451000C71207F017FB207A03B030BD1B689C045C
:10452000FAD5644B1B68042BF6D92F2162480DF095
:1045300083FF80B12F2160480DF07EFF411C5F4B4F
:10454000604AD3F804350092052040F2BF1207F00C
:10455000F9FA0120E0E75C2157480DF06DFF08B142
:104560005C21E8E75449EAE71B68980417D5514BEA
:104570001B68042B13D92F214F480DF05DFF80B12C
:104580002F214D480DF058FF411C4C4B4E4AD3F89B
:1045900004350092052040F2C31207F0D3FA02203E
:1045A000BAE75C2144480DF047FF08B15C21E8E719
:1045B0004149EAE75C2140480DF03EFF08B15C212B
:1045C00099E73D499BE7A28B48F263039A42A3D146
:1045D0002B78052B1CD801A252F823F0534502007A
:1045E000F5450200FF450200094602000D460200A3
:1045F0009F4502000621A06AFFF7FEFECFE70821D3
:10460000A06AFFF7F9FEA4E70521F9E70921F7E71A
:10461000274B1B689A049CD5264B1B68032B98D903
:104620002F2125480DF008FF88B12F2122480DF0D9
:1046300003FF411C214B2A78D3F804350192234A09
:104640000092042040F2EF1207F07CFA81E75C212F
:1046500019480DF0F1FE08B15C21E7E71649E9E7DA
:104660001B689B047FF557AF124B1B68032B7FF62B
:1046700052AF2F2110480DF0DFFE78B12F210E48E8
:104680000DF0DAFE411C0D4B2A78D3F80435019267
:104690000B4A0092042040F2FB123AE75C210648E4
:1046A0000DF0CAFE08B15C21E9E70349EBE700BF62
:1046B00014320020103200201F2D030000B00040F3
:1046C0004F2B0300222B03003B2B0300642B030022
:1046D00037B50446007A03282ED1A28B48F267032F
:1046E0009A4229D14B685D682B78032B5AD8DFE8B2
:1046F00003F0022E55573F4B1B68990417D53E4BCC
:104700001B68042B13D92F213C480DF095FEA8B14E
:104710002F213A480DF090FE411C394B394AD3F80D
:1047200004350092052040F2931207F00BFA0021A5
:10473000A06AFFF761FE012003B030BD5C212F4865
:104740000DF07AFE08B15C21E3E72C49E5E7294B3F
:104750001B689A0417D5284B1B68042B13D92F21EB
:1047600026480DF069FE80B12F2124480DF064FE2B
:10477000411C234B244AD3F80435009205204FF402
:10478000CC7207F0DFF90121D2E75C211B480DF064
:1047900053FE08B15C21E8E71849EAE70221C7E7C0
:1047A0000321C5E7134B1B689B04C4D5124B1B6840
:1047B000012BC0D92F2111480DF03EFE88B12F21C9
:1047C0000E480DF039FE411C0D4B2A78D3F8043504
:1047D00001920E4A009202204FF4D47207F0B2F90F
:1047E000A9E75C2105480DF027FE08B15C21E7E749
:1047F0000249E9E714320020103200201F2D030087
:1048000000B00040572C0300792C03009D2C0300BE
:1048100010B5037A032B044612D10A21806AFFF7F0
:10482000EBFDA28B48F267039A4207D00221606831
:1048300001F000FA0421A06AFFF7DEFD012010BD9F
:104840007846034B1B680BB19847F7E700DEF5E7A6
:10485000D46000207846034B1B6803B1184700DE84
:10486000704700BFD460002010B50182084C44613D
:104870004FF6FF71418203838283C1830C3003F0C2
:1048800023FD18B1BDE81040FFF7E4BF10BD00BF25
:10489000B436002037B5037A022B04460D4618D1F2
:1048A0008B88412B04D978461E4B1B687BB19847F7
:1048B000AA881D48A91D0DF0E0FC2046AB8848F2EF
:1048C00060021221FFF7D0FF032003B030BD00DEED
:1048D000EEE7164B1B689B0419D5154B1B68012B83
:1048E00015D92F2113480DF0A7FD90B12F211148A4
:1048F0000DF0A2FD411C104B227AD3F80435019231
:104900000E4A009202204FF43C7207F01BF9207A05
:10491000DBE75C2107480DF08FFD08B15C21E6E77D
:104920000449E8E7D4600020B436002014320020A7
:10493000103200201F2D030000B00040D32B0300D5
:1049400013B5037A022B04460CD11B4B0A791A705B
:1049500048F26101012348F26302FFF785FF03205B
:1049600002B010BD154B1B689B0419D5144B1B6876
:10497000012B15D92F2113480DF05EFD90B12F2189
:1049800010480DF059FD411C0F4B227AD3F8043525
:1049900001920E4A0092022040F2512207F0D2F812
:1049A0000120DDE75C2107480DF046FD08B15C21E0
:1049B000E6E70449E8E700BFB436002014320020DF
:1049C000103200201F2D030000B00040F82A030021
:1049D00013B5037A012B044609D1002348F267027C
:1049E00048F26401FFF740FF032002B010BD144BF2
:1049F0001B689B0419D5134B1B68012B15D92F215C
:104A000011480DF019FD90B12F210F480DF014FD44
:104A1000411C0E4B227AD3F8043501920C4A0092C5
:104A200002204FF4C17207F08DF8207ADDE75C2197
:104A300005480DF001FD08B15C21E6E70249E8E711
:104A400014320020103200201F2D030000B000405F
:104A50001C2C030013B5037A012B044609D1002353
:104A600048F2670248F26501FFF7FEFE032002B03C
:104A700010BD144B1B689B0419D5134B1B68012BED
:104A800015D92F2111480DF0D7FC90B12F210F48D7
:104A90000DF0D2FC411C0E4B227AD3F80435019262
:104AA0000C4A0092022040F2731207F04BF8207A71
:104AB000DDE75C2105480DF0BFFC08B15C21E6E7AD
:104AC0000249E8E714320020103200201F2D0300B5
:104AD00000B000403A2C030038B5037A012B04469D
:104AE0000D461AD18B6840681049002200F020FF63
:104AF00020B178460E4B1B686BB198470D4B2A7955
:104B00001A702046012348F2630248F26201FFF75F
:104B1000ABFE032038BD00DEF0E77846044B1B688F
:104B200013B19847207A38BD00DEFBE7E42A030082
:104B3000D4600020B436002008B503F075F930F0D9
:104B4000040303D0BDE80840FFF784BE08BD0000A1
:104B500030B50446007A022887B00D462CD00328D1
:104B600060D1A28B48F260039A4241D1414B1B684D
:104B70009A0418D5404B1B68042B14D92F213F48A9
:104B80000DF05AFC002835D02F213C480DF054FC84
:104B9000411C3B4B3B4AD3F80435009205204FF4AF
:104BA0002A7206F0CFFF208803F068FB20B1784618
:104BB000354B1B683BB3984769684B681B7823BB30
:104BC00048F26003ADF80C304FF6FF73ADF80E30CD
:104BD00002AB04930123ADF8143003AA0323208809
:104BE0008DF80830FFF7A8FF606801F065F8022033
:104BF00007B030BD5C2121480DF01EFC08B15C21DE
:104C0000C3E71E49C5E700DED6E7204B2A791A70B4
:104C10002046012348F2630248F26101FFF724FEB7
:104C20000320E5E7134B1B689B0417D5124B1B6849
:104C3000012B13D92F2111480DF0FEFB80B12F213C
:104C40000E480DF0F9FB411C0D4B114AD3F8043509
:104C5000009202204FF4317206F074FF207AC7E709
:104C60005C2106480DF0E8FB08B15C21E8E7034948
:104C7000EAE700BF14320020103200201F2D03008D
:104C800000B00040DE2C0300D4600020B4360020C9
:104C9000EC2C030070B58AB048F26D03ADF810300B
:104CA0004FF6FF73ADF8123003AB05930223ADF856
:104CB0001830037A0E464968012B04464D6816D118
:104CC00000238DF80C3000882B7C8DF80D3004AA61
:104CD000FFF732FF0B238DF81C302B7C8DF824302E
:104CE0000895A36A07A89847207A0AB070BD194BA7
:104CF0001B689B0419D5184B1B68032B15D92F2152
:104D000016480DF099FBE0B12F2114480DF094FBEB
:104D1000411C134B227AD3F804350192114A0092B8
:104D2000042040F2571206F00DFF01238DF80C30DD
:104D300004AA2B7C716820888DF80D30FFF7FCFEEB
:104D4000D2E75C2105480DF077FB08B15C21DCE778
:104D50000249DEE714320020103200201F2D03002C
:104D600000B00040752D0300F0B587B048F2600335
:104D7000ADF80C30057A4FF6FF73ADF80E3002AB8C
:104D80000493022D4FF0010304460E46ADF8143093
:104D90000BD0032D1BD10023208871688DF80830BB
:104DA00003AAFFF7C9FE207A0FE0496800884F6820
:104DB000002303AA8DF80830FFF7BEFE7368606811
:104DC0001A89394600F03AFF284607B0F0BD144B67
:104DD0001B689B0419D5134B1B68012B15D92F2178
:104DE00011480DF029FB90B12F210F480DF024FB45
:104DF000411C0E4B227AD3F8043501920C4A0092E2
:104E0000022040F2762206F09DFE0123C4E75C21D9
:104E100005480DF011FB08B15C21E6E70249E8E71F
:104E200014320020103200201F2D030000B000407B
:104E3000EF2B030070B54B685D68037A88B00446B9
:104E40000E46002B74D0022B0AD9032B70D1008898
:104E500003F014FA20B178464B4B1B6803B3984714
:104E600048F26303ADF814304FF6FF73ADF8163017
:104E700004AB06930223ADF81C3005238DF81030E7
:104E800005AA0023716820888DF81130FFF754FEC1
:104E90002B78042B1AD8DFE803F013050909090061
:104EA00000DEDDE70721A06AFFF7A6FA69786068EF
:104EB00000F0C0FE0421A06AFFF79EFA012003E083
:104EC000606800F0B3FE022008B070BD0221606887
:104ED00000F0B0FE0421A06AFFF78EFA2B4B1B688E
:104EE0009A04EBD52A4B1B68012BE7D92F212948BF
:104EF0000DF0A2FA98B12F2126480DF09DFA411C21
:104F0000254B227AD3F8043502922A780192234A5B
:104F10000092022040F2372206F014FECEE75C2118
:104F20001C480DF089FA08B15C21E5E71949E7E76B
:104F3000164B1B689B041BD5154B1B68012B17D9FF
:104F40002F2114480DF078FAA0B12F2111480DF04F
:104F500073FA411C104B227AD3F8043502922A7856
:104F600001920F4A0092022040F23D2206F0EAFD33
:104F7000207AA9E75C2107480DF05EFA08B15C21B0
:104F8000E4E70449E6E700BFD460002014320020C3
:104F9000103200201F2D030000B00040842B0300BE
:104FA000A72B03002DE9F041384C237896B0074633
:104FB0005BB90123DFF8F480354E237004A9404625
:104FC00004F05EFC20B10023237016B0BDE8F08130
:104FD00033689A041BD52F4B1B68042B17D92F213C
:104FE0002D480DF029FA00283DD02F212A480DF038
:104FF00023FA411C294B9DF81020D3F80435019267
:10500000274A009205204FF4417206F09BFD9DF85F
:105010001020244B04A953F82230384698473B7A95
:1050200083420546CAD033689B041AD5194B1B68C6
:10503000042B16D92F2118480DF0FEF9E0B12F21CD
:1050400015480DF0F9F9411C144BD3F804350295BD
:105050003A7A0192144A0092052040F20E3206F08C
:1050600071FD3D72AAE75C210B480DF0E5F908B12E
:105070005C21BBE70849BDE75C2107480DF0DCF97E
:1050800008B15C21DCE70449DEE700BFB33600204D
:1050900014320020103200201F2D030000B0004009
:1050A000992D0300AC2A0300A52D0300F83600203B
:1050B00010B50C4692B020B978460D4B1B68A3B1D1
:1050C00098474822002168460DF0E2F80723694618
:1050D00008488DF800308DF8044004F0A9FB064B19
:1050E0001868FFF75FFF12B010BD00DEE9E700BFF0
:1050F000D4600020F83600209C37002030B51546DB
:1051000095B00C4621B978463B4B1B6853B1984784
:1051100055B1012D30D07846374B1B68002B69D034
:1051200098471EE000DEF3E7344B1B689A0418D55D
:10513000334B1B68042B14D92F2132480DF07CF916
:1051400088B12F212F480DF077F9411C2E4B228A70
:10515000D3F8043501922D4A00920520F72206F07B
:10516000F1FC15B030BD5C2126480DF065F908B1A1
:105170005C21E7E72349E9E7204B1B689B0418D52E
:105180001F4B1B68012B14D92F211E480DF054F919
:1051900028B32F211B480DF04FF9411C1A4B228ACE
:1051A000D3F8043501921A4A00920220FD2206F03B
:1051B000C9FC0021482202A80DF06AF80D2302A9BB
:1051C00014488DF8083004F033FB20B178460A4BC0
:1051D0001B686BB198472046FFF7E4FEC1E75C21EE
:1051E00008480DF029F908B15C21D3E70549D5E756
:1051F00000DEF0E700DEB4E7D460002014320020C7
:10520000103200201F2D030000B00040342A03009C
:105210004E2A0300F836002010B592B0B0B1A9B103
:105220000C208DF800000DF10600ADF804200DF003
:1052300024F86946064804F0FBFA044618B9054B01
:105240001868FFF7AFFE204612B010BD0E24FAE733
:10525000F83600209C3700202DE9F0410C469EB026
:10526000154622B97846554B1B68EBB19847544B0D
:1052700001AA03F1280E174618685968164603C696
:10528000083373453246F7D11B88338021881229B1
:105290000CD108238DF830302389013B9BB2402B81
:1052A00016D91EB0BDE8F08100DEE0E7002206203E
:1052B00000FB02F3FE5A8E4232D11EAA1344228909
:1052C00033F8721C9142ECD113F8703C8DF83030F9
:1052D0001EAE4FF6FF7826F8788D2888314602F00A
:1052E000CBFD002846D1BDF80000404542D03946EC
:1052F00003F0BCFD00283DD1BDF80620E3899A42A9
:1053000038D10CA92F480D9404F092FA20B17846B8
:105310002A4B1B6863B398472846FFF743FEC0E754
:105320000132072AC4D1BCE704238DF80030ADF860
:105330000420029601233A4621462888ADF80C3015
:10534000FFF7FAFBADE705238DF8003048F267035D
:10535000ADF80430EDE706238DF8003000238DF81A
:105360000130ADF8042002960223E4E700DE98E75E
:1053700000DED1E74FF6FF73ADF80630238848F220
:10538000630293428DD00ED8112B05D3122B48F215
:105390006002C9D9934284D07846084B1B68002B21
:1053A000E4D098477DE748F26A018B42CBD048F2BF
:1053B0006C018B42CFD048F26702EBE7D46000204B
:1053C0000A2A0300F836002030B50D4687B004469F
:1053D000002832D0002A30D0002B2ED08362184B08
:1053E00042601860174802238360174B036048230C
:1053F000436004F0F5F948F20403ADF800304FF6CD
:10540000FF73ADF80230114B02930723039321463B
:1054100000236846ADF804500494059302F024FC80
:1054200048B92388A3810A4B63620A4B2362012394
:105430002372094B187007B030BD0E20FBE700BF88
:105440009C370020F83600200C370020742A030017
:10545000FD50020080C3C901B336002030B50546B7
:1054600093B0B0B1037A012B15D1482200216846D0
:105470000CF00EFF0223694608488DF8003004F056
:10548000D7F9044610B92846FFF78CFD204613B023
:1054900030BD0E24FAE70824F8E700BFF8360020F4
:1054A00030B5054693B0B0B1037A012B15D148222F
:1054B000002168460CF0ECFE0323694608488DF88D
:1054C000003004F0B5F9044610B92846FFF76AFD2C
:1054D000204613B030BD0E24FAE70824F8E700BFD9
:1054E000F836002070B50E4692B0114605461A46B1
:1054F00008B3037A012B20D1169B406800F09BFA79
:105500000446A8B90146482268460CF0C1FE0B23A8
:105510008DF8003069469DF85C3009488DF80430FC
:10552000029604F085F9044610B92846FFF73AFDC3
:10553000204612B070BD0E24FAE70824F8E700BF39
:10554000F83600201FB500F27D21044600F24D23FD
:105550006A4600F075FC6946204600F03EFB10B933
:10556000102384F8B33204B010BD00B590F8B33204
:105570008DB05BB1002380F8B3320290052301A8FF
:105580008DF804308DF80C1004F0D6F80DB05DF8ED
:1055900004FB70B590F8B352022D8CB0044610D1C4
:1055A000042602900DEB06008DF8046004F0C4F8A8
:1055B00004F29D220021204600F0D8FA18B984F8A0
:1055C000B3620CB070BD2946204600F0CBFAF8E774
:1055D00010B590F8B332072B8CB004460CD190F87C
:1055E000B0325BB109238DF804300A23029080F8B1
:1055F000B33201A804F0A0F80CB010BDD0F8B81177
:1056000000F0D8FA18B9092384F8B332F4E702217C
:10561000204600F0A7FAEFE730B590F8B4328DB02D
:105620000446032B3CD8DFE803F0312B1D0200F2C7
:105630006D25294600F0DAFC06238DF8043094F835
:10564000AE328DF80D3094F8AF328DF80C300294F4
:105650000495112301A884F8B33204F06DF80020FA
:105660000DB030BD07238DF8043090F8AE328DF8C0
:105670000D3090F8AF328DF80C3002900C23E9E732
:1056800008238DF8043002900D23E3E71022002157
:1056900000F26D200CF0FCFD2046FFF753FFDFE722
:1056A0000320DDE7F0B50D46A5B0044611462846B7
:1056B00000F02AFA08B902212BE12B78013B082BD4
:1056C000F9D801A252F823F0ED560200B7560200B5
:1056D0005D570200AB570200BB570200E5570200BE
:1056E000B7560200BF5802001B59020094F8B332AB
:1056F000042B31D10B22691C04F29E200CF0BDFD5D
:10570000052384F8B3320A238DF864306B788DF862
:105710006C301A946A88130A43EA0223ADF86D309C
:105720002B798DF86F306B798DF87030AB798DF8FF
:105730007130B5F80720130A43EA0223ADF872303E
:105740006B7A8DF874306A89130A43EA0223ADF844
:10575000753019A803F0F0FF25B0F0BD94F8B3320E
:10576000092BF9D104F5E0764022691C30460CF093
:1057700084FD00F05FFB58B10B2384F8B3320C2397
:105780008DF86430D4F8BC311A941C931B96E0E772
:1057900004F50071204600F00DFC00288BD1204656
:1057A000FFF73AFF0028D7D085E794F8B332112BE2
:1057B000D2D12046FFF7C6FEF4E794F8B322102AB0
:1057C000CAD1691C04F28D200CF057FD04F24D2162
:1057D000204600F015FA00287FF46DAF122384F8FC
:1057E000B332B9E794F8B332122BB5D11022691C49
:1057F00004F25D200CF041FD204600F045FC00283D
:105800003FF459AF01AD05AE04F508732A463146A1
:10581000204609AF00F076FB0723102204F5307113
:1058200038468DF840300CF028FDD4F8D232199665
:105830001A0E190242EA036201F47F011B0A0A43AD
:1058400003F47F431343B4F8D622CDF83730130A5C
:1058500043EA0223B4F8D022ADF83B30130A43EAFE
:10586000022394F8D822ADF834309DF836301A95DA
:10587000C2F3400161F3000362F341036FF3870356
:105880008DF836301923ADF870300DF141031F93B8
:105890000DF15A03209300231D93ADF8783019A819
:1058A00008231B978DF8843005F06CFB10A9204667
:1058B00000F0B9F900287FF4FEAE14238FE794F8C6
:1058C000B332142B7FF448AF0B238DF8643004F50A
:1058D00008731C9304F530731B93D4F8D2321D93D4
:1058E000B4F8D032ADF87830B4F8D63294F8D82283
:1058F000ADF87A309DF87C301A9462F30003C2F35D
:10590000400262F3410319A88DF87C3003F014FFC4
:105910000021204600F026F91EE70D238DF86430A3
:1059200019A86B781A948DF86C3003F005FFC2E665
:1059300070B51E4690F8B33204461546ABB90C4B11
:105940000C4A00F0EFF888B984F8B1023146192208
:1059500004F530700CF091FC2946204600F0F8F870
:1059600020B9022384F8B33270BD082070BD00BF97
:1059700000879303BC2D030013B590F8B332052BB9
:10598000044634D1102A30D852BB71BB022394F89C
:10599000B8028DF800300023C01A18BF0120012979
:1059A0008DF8013018BF94F8AF3284F8AE22012987
:1059B00008BF002284F8B4128DF802008DF803109D
:1059C0008DF80520694604F29D2220468DF80430AA
:1059D00000F0E0F810B9072384F8B33202B010BD2C
:1059E00019B1102AD2D00129D0D10920F6E7082018
:1059F000F4E738B5044694F8B3320C3B012B16D8C3
:105A0000102A16D894F8AE52954212D104F26D20A5
:105A10000CF033FC05F26D20C5F11002204400218A
:105A20000CF036FC2046BDE83840FFF78BBD08205F
:105A300038BD092038BD10B590F8B3425CB9C0F844
:105A4000B811C0F8BC2119460B2200F2B5200CF0A9
:105A500014FC204610BD082010BD00F043BA2DE90B
:105A6000F0410F4614460546D0B1C9B1C2B1D3B911
:105A700000F094FF0646B0B1238AB3F5805F02D3ED
:105A80000B20BDE8F081E08A04F0B2F90128F7D1DB
:105A900023463A4631462846BDE8F041FFF748BF65
:105AA0000E20BDE8F0810620BDE8F08190F8B1320B
:105AB0000BB9FFF761BF0820704790F8B1320BB9FE
:105AC000FFF797BF03F0AABC70B5044616460D4613
:105AD00021B978460B4B1B687BB1984724B97846AF
:105AE000084B1B685BB19847D4F8B0313246294661
:105AF00020461B68BDE87040184700DEEEE700DE78
:105B0000F2E700BFD460002048B10378092B05D824
:105B1000034AD05C431A58425841704700207047EE
:105B2000CC2D030010B560B159B152B1074CA3425E
:105B300009D9C0F8B431C0F8AC21C0F8B0110020C8
:105B400010BD0E2010BD072010BD00BFFF869303BF
:105B500010B4D0F8B021D468D0F8B42123465DF851
:105B6000044B1847D0F8B0311B69184713B5002310
:105B700004468DF8051010460DF1050101228DF83F
:105B800004300CF07AFB022201A92046FFF79CFFAB
:105B900002B010BD38B505460C4602F10C000131CB
:105BA00005220CF06AFB214628460622BDE8384053
:105BB000FFF78ABF30B593B012AC032304F8443D1D
:105BC000054640220DF105000CF057FB412221460D
:105BD0002846FFF779FF13B030BD30B587B006AC6B
:105BE000052304F8143D054610220DEB03000CF0CC
:105BF00044FB112221462846FFF766FF07B030BD5F
:105C000030B587B006AC062304F8143D05461022D3
:105C10000DF105000CF031FB112221462846FFF75B
:105C200053FF07B030BD2222FFF74EBFD0F8AC3192
:105C30009B681847D0F8AC31DB68184773B5194B2F
:105C40001B681B0704460D46164618D5164B1B68E5
:105C5000032B14D92F2115480CF0EEFBC8B12F21CE
:105C600012480CF0E9FB411C114B2A78D3F804359B
:105C70000192104A00920420DF2205F063FFD4F85D
:105C8000AC311B6832462946204602B0BDE8704060
:105C900018475C2105480CF0CFFB08B15C21DFE719
:105CA0000249E1E71432002010320020D62D030013
:105CB00000B00040F62D0300D0F8AC315B68184707
:105CC00070B506468AB014460D4609B308460CF076
:105CD000ABFB6A4681B2284605F0B4F90422694656
:105CE0000DF122000CF0C9FA162564BAADF8204077
:105CF00003F01EFD102201460DEB02000CF0BDFA70
:105D00002B4604AA0021304606F0B6FE0AB070BD4C
:105D10001225EAE770B50E468CB01546044628B940
:105D20007846264B1B68002B39D0984706F0FB03BA
:105D3000122B05D07846214B1B68002B31D0984799
:105D400025B978461D4B1B686BB398471C4B1B78D5
:105D50001BB32C22002101A80CF09AFA1022214634
:105D600002A808950CF089FA2B785A1E5342534129
:105D70008DF81830162E4FF003038DF8043014D12F
:105D80000123042204F112010DF11A008DF81930DB
:105D90000CF073FA01A803F0CFFC0CB070BD00DE6C
:105DA000C4E700DECCE700DED0E7002104220DF1DD
:105DB0001A008DF819100CF06BFAEBE7D460002094
:105DC000B231002073B505460A4E68460C4604F011
:105DD0000FFD00232421A34201D302B070BD1DF8A2
:105DE0000300B0FBF1F201FB1202D2B2B25CEA5442
:105DF0000133F0E70A2E030037B50D4604210446AF
:105E00000DEB010004F0F4FC094B019953F8252037
:105E1000B1FBF2F302FB131304221BBA0DEB0201D8
:105E200004F10C0001930CF028FA03B030BD00BF60
:105E3000302E0300014B1878704700BFA0370020B8
:105E40002DE9F0410446ACB00F46904600F29D218A
:105E5000112207A81E460CF010FA94F8B13204F58E
:105E6000E07540229BBBD4F8B8110DF12D000CF069
:105E700004FA402229460DF16D000CF0FEF93A4675
:105E800007A8912105F0DEF803AD04233A460093FC
:105E900004F50070124B0195202105F0EFF8304613
:105EA000102104F0A5FC3146102207A80CF0E5F9FA
:105EB00004F26D2110220BA80CF0DFF943462022DA
:105EC00007A9284605F05CF82CB0BDE8F08129460A
:105ED0000DF12D000CF0D1F94022D4F8B811CAE729
:105EE000542E030038B504460D460CF071F82946CF
:105EF000024620460CF070F8012814BF0320002051
:105F000038BD00002DE9F043044697B0894690461D
:105F100000F27D2110220AA81F460CF0AEF994F879
:105F2000B13204F24D2504F25D261022002B33D14C
:105F300029460EA80CF0A1F91022314612A80CF047
:105F40009CF904F50074042502AA0AA8302105F082
:105F500079F802AA2046CDF804900095124B202132
:105F600005F08CF806AB019302AA104B0095204671
:105F7000202105F083F80DF11B010D2240460CF0A5
:105F80007CF98DE8A0000A4B02AA2021204605F0EA
:105F900075F817B0BDE8F08331460EA80CF06DF926
:105FA00010222946CAE700BF592E03005E2E0300C7
:105FB000632E030070B50E4600F5E07405460CF044
:105FC00007F8014620460CF0E8F808B9032070BD38
:105FD000D5F8BC510BF0FCFF32460346294620465B
:105FE0000CF03AF80028F1D0002070BD37B590F8D9
:105FF000AE32013B072B04460D4604D97846214BAF
:106000001B686BB198471022002128460CF040F91C
:1060100094F8B432022B05D0032B0DD003B030BD61
:1060200000DEF0E794F8AF32013B042BF6D8DFE84E
:1060300003F00C0C0C1C220094F8AF32013B032B34
:10604000ECD8DFE803F00202121894F8AE42012106
:106050000DF1070004F0CCFB9DF80710631C91FBC9
:10606000F3F203FB1213EB73D8E794F8AE12284651
:10607000FFF7C2FED2E794F8AE122846FFF7A2FE61
:10608000CCE700BFD460002030B593B002AD04234C
:106090000446009300F27D22114B0195202100F56A
:1060A000007004F0EBFF04F25D2110220AA80CF04E
:1060B000E4F804F26D2110220EA80CF0DEF806AB15
:1060C0000AA92846202204F05BFF102204F28D2149
:1060D00006A80CF0C3F8B0FA80F0400913B030BD48
:1060E000542E0300F8B5154D2B68064623B97846A3
:1060F000134B1B6883B19847EFF3108772B62C6877
:10610000B4420BD00E4DD4F8A8319E420CD1D6F833
:10611000A831C4F8A83104E000DEEDE7D6F8A831D4
:106120002B6007B962B6F8BD1BB978462B681BB166
:106130009847D4F8A841E6E700DEFAE7A437002044
:10614000D460002010B5044620B978460A4B1B687D
:1061500073B1984794F89930012B0BD12046FFF783
:10616000C1FF204607F0C8F9002084F8990010BD4F
:1061700000DEEFE7082010BDD460002038B590F8AD
:106180009930023B022B04460D4604D97846144B45
:106190001B6803B398472046FFF7A4FF94F8983094
:1061A000012B04D078460E4B1B68B3B198472046AC
:1061B00007F0A2F9002304F1B80084F8983084F8BD
:1061C000D83084F8993004F001F929462046BDE81A
:1061D0003840FFF72FBD00DEDDE700DEE7E700BF58
:1061E000D46000202DE9F0418846911C06461546F2
:1061F0001F4607F0B1F8044620B36B1C43742923F3
:1062000083742A46414613300CF037F82771EFF3B8
:10621000108772B6D6F8A05101356B1CC6F8A05194
:1062200004D17846094B1B6853B1984707B962B649
:1062300030462560214607F0D9F80020BDE8F081FE
:1062400000DEF3E70420BDE8F08100BFD460002049
:106250002DE9F04190F8D830022B88B0044605D0E3
:106260007846504B1B68002B5ED0984794F8DB3083
:10627000002B48D194F89930032B05D07846494B30
:106280001B68002B52D0984794F8D830022B05D0C9
:106290007846444B1B68002B4AD09847D4F894208A
:1062A00094F8D93012BA009294F89B208DF804200B
:1062B0009DF8052002F0FC02142B03F102014FF0BF
:1062C0001700B1FBF0F161F387021D468DF8052040
:1062D00028BF142594F8DA208DF808201B022A46DE
:1062E00004F1DC010DF10900ADF806300BF0C5FF3B
:1062F000012305F1090269462046FFF773FF80B9C3
:10630000012384F8DB3094F8DB501726022794F839
:10631000D98008F10203B3FBF6F30133DBB29D42EF
:1063200008D308B0BDE8F08100DE9FE700DEABE7F0
:1063300000DEB3E76B1E03EB4301C3EBC101D4F8EE
:106340009430143189B21BBAA8EB0108009394F879
:106350009B308DF804301FFA88F89DF80530B8F1AD
:10636000170F28BF4FF0170867F30103DC3165F3FF
:106370008703424621440DF106008DF805300BF0ED
:106380007CFF012308F1060269462046FFF72AFF39
:106390000028C6D194F8DB30013384F8DB300135B6
:1063A000B5E700BFD460002000B5D0F8943089B0C4
:1063B0001BBA009300238DF804309DF805308DF84A
:1063C0000610022243F0030362F387038DF80530C1
:1063D000072204236946FFF705FF09B05DF804FBB7
:1063E00038B50D46044620B97846184B1B68FBB1FA
:1063F0009847022D04D97846144B1B68D3B19847AF
:1064000094F8993013F0FB0F1ED0023B012B04D9F6
:1064100078460E4B1B687BB1984729462046FFF70C
:10642000C3FF58B9042384F8993084F89C5038BDD0
:1064300000DEDEE700DEE3E700DEEEE72946204689
:10644000BDE83840FFF79ABE38BD00BFD4600020D9
:1064500000B5D0F8943089B01BBA00938DF80410C1
:106460000123062269468DF80530FFF7BBFE09B00F
:106470005DF804FB00B589B0D0F894309DF8052094
:106480001BBA009300238DF8043042F0030201236D
:1064900063F387028DF8052069460622FFF7A2FE06
:1064A00009B05DF804FB08460121FFF75BBB10B59E
:1064B000044604F047F8D4F8D410014404F1B800BD
:1064C000BDE8104003F0B4BFD0F8A0318B4206D134
:1064D000012380F8A431024B186804F0C1BC704756
:1064E000B431002037B591F89930032B05460C469E
:1064F0004ED191F8D830022B4AD1D1F8D0301B1AA6
:10650000002B14DA01212046FFF74EFF48B904237F
:1065100084F89930012384F89C30C4F8AC0003B0AF
:1065200030BD1D4BC4F8AC30C4F8D050F7E71B4B5E
:106530001B681B071AD51A4B1B68042B16D92F2171
:1065400018480BF079FFD0B12F2116480BF074FFDB
:10655000411C154B94F8DC20D3F804350192134A02
:106560000092052040F2953205F0ECFA0023204617
:1065700084F8DB3003B0BDE83040FFF769BE5C2132
:1065800008480BF059FF08B15C21DEE70549E0E758
:106590000023C4F8AC30C2E740420F0014320020A0
:1065A000103200201632030000B0004039320300E0
:1065B00013B50446EFF3108372B6174A1168C0F89A
:1065C000A811106003B962B6144B1B681B0718D5DD
:1065D000134B1B68032B14D92F2112480BF02CFFEF
:1065E00088B12F210F480BF027FF411C0E4B0F4A9B
:1065F000D3F80435009201944FF4B572042005F0ED
:10660000A1FA02B010BD5C2106480BF015FF08B1DD
:106610005C21E7E70349E9E7A437002014320020B2
:10662000103200201632030000B00040682E030034
:10663000F0B50E4689B01746044628B97846344B63
:106640001B68002B60D0984794F89830012B03D139
:1066500094F89930002B59D1012384F898302D4BB0
:10666000C4F8A83000252C4B84F8D85004F590725B
:1066700084F89B5084F89A5084F89950C4F8A0513B
:10668000C4F8C030C4F8C45080232449C4F8B040D2
:106690002046C4F8D470C4F8C84006F059FF04215D
:1066A00004F1940004F0A4F8802384F89A30D4F81C
:1066B000943084F89B501BBA00939DF805308DF8F8
:1066C000045043F0030365F38703102231460DF1B4
:1066D00006008DF805300BF0D0FD04231622694624
:1066E0002046FFF77FFD054658B92046FFF7DFFE3D
:1066F000204606F01BFE2046FFF75AFF022384F8CF
:106700009930284609B0F0BD00DE9DE70825F8E77E
:10671000D4600020E5640200A7640200C96402009E
:1067200038B5124B1C68002504B938BD94F8A43163
:1067300093B194F8993084F8A451042B94F8D8308C
:106740000DD1022B03D104F1A00003F03FFE94F819
:106750009C102046FFF712FDD4F8A841E4E7022B75
:10676000FAD12046FFF774FDF6E700BFA4370020FA
:106770002DE9F0410E4617469846044628B978465A
:10678000314B1A68002A58D0904794F89830012B62
:1067900003D194F89930002B53D1012384F8983019
:1067A0002A4BC4F8A8300025294B84F8D85084F827
:1067B0009B5084F89A5084F89950C4F8A051C4F8BA
:1067C000C030C4F8C450802304F590722149C4F845
:1067D000B0402046C4F8D480C4F8C84006F0B8FEE3
:1067E0008023C4F8945084F89A5084F89B303A4639
:1067F00031462046FFF764FA054620B97846124B29
:106800001B68E3B19847FF232B714FF0FF332B60D8
:1068100020464FF4FA6106F03BFE2946204606F07A
:10682000E5FD204606F082FD2046FFF7C1FE01236C
:1068300084F899300020BDE8F08100DEA5E700DE95
:10684000E1E70820BDE8F081D4600020E5640200A3
:10685000A7640200C964020030B5074D0246FF2359
:10686000141AA14202DCD843C0B230BD12F8014B69
:106870006340EB5CF4E700BF942E03002DE9F04188
:1068800090F89930032B04460E4617463FD1412A13
:1068900040D890F8D850002D3FD1FFF708FE03F004
:1068A00051FEB91C1723B1FBF3F10131CBB2A16E3C
:1068B000594301F5F4111A4BC4F8A83001F5906161
:1068C0008046C4F8AC10014404F1A00003F0B0FD10
:1068D000144BC4F8B0404344C4F8D030022384F8C9
:1068E000D830394684F8DB5084F8D9703046FFF749
:1068F000B3FF3A4684F8DA00314604F1DC000BF0CD
:10690000BCFC2046FFF7A4FC2846BDE8F081082027
:10691000BDE8F0810920BDE8F0811120BDE8F081DB
:10692000E564020080C3C9012DE9F0410B78012B19
:1069300092B005460C46164604D07846164B1B68A6
:106940002BB3984704F1040861784046FFF784FFB1
:10695000A37883421DD195F89A1028460027013666
:10696000FFF776FDE77085F89A6066784146324613
:1069700001A80BF082FC28462770FFF798FD3246ED
:1069800001A92846FFF75AF912B0BDE8F08100DEF0
:10699000D8E700232370F7E7D460002010B5054C3A
:1069A0002368013303D1044804F032FA206003481D
:1069B00010BD00BFB431002021670200942F0300F6
:1069C0002DE9FF4188461446054620B97846A34B79
:1069D0001B6833B3984724B97846A04B1B6813B3A0
:1069E00098472B681A0E190242EA036201F47F01EC
:1069F0001B0A0A4303F47F431343EFF3108172B67B
:106A0000974E34688CB901B962B6687900F0030317
:106A1000032B00F2F180DFE813F00F003501AA012B
:106A2000350200DED7E700DEDBE7D4F8942093429E
:106A3000E9D0D4F8A841E5E7002C00F0DD8094F817
:106A40009930032B40F0D88094F8D830002B62D1D5
:106A50002A7994F89A309A4231D3EB881B0A84F849
:106A6000D93017220233B3FBF2F30133DBB2072B29
:106A700006D90221204604B0BDE8F041FFF7B0BCC2
:106A80002B7A84F8DA30A8F10908012384F8D83089
:106A900084F8DB30424605F1090104F1DC000BF01B
:106AA000ECFB94F8D930984540F0A6802A7904F19F
:106AB000D801204604B0BDE8F041FFF735BF694B6F
:106AC0001B681A0717D5684B1B68042B13D92F2195
:106AD00066480BF0B1FCA8B12F2164480BF0ACFC68
:106AE000411C634B634AD3F80435009240F2A32261
:106AF000052005F027F82979204604B0BDE8F041CB
:106B0000FFF7A6BC5C2159480BF096FC08B15C214C
:106B1000E3E75649E5E7022B524B79D1297994F8FE
:106B20009A201B68914220D21B07E4D54E4B1B686C
:106B3000042BE0D92F214D480BF07EFC60B12F21B2
:106B40004A480BF079FC411C494B4A4AD3F80435BA
:106B5000009240F2AF22CBE75C2144480BF06CFC82
:106B600008B15C21ECE74149EEE726D91F0743D580
:106B70003D4B1B68012B3FD92F213C480BF05CFC9F
:106B800090B12F2139480BF057FC411C384B94F839
:106B90009A20D3F8043502922A790192364A00925B
:106BA0004FF42D72022025E05C2130480BF044FCAC
:106BB00008B15C21E6E72D49E8E71E071CD52A4B02
:106BC0001B68042B18D92F2128480BF035FCB0B1D5
:106BD0002F2126480BF030FC411C254B94F89A20BD
:106BE000D3F8043502922A790192244A00920520B2
:106BF0004FF42E7204F0A6FF04B0BDE8F0815C21D2
:106C00001A480BF019FC08B15C21E2E71749E4E7E8
:106C10001B681C07F0D5144B1B68012BECD92F21E6
:106C200012480BF009FC78B12F2110480BF004FC3E
:106C3000411C0F4B124AD3F80435009240F2BD229A
:106C4000022004F07FFFD7E75C2108480BF0F4FB3B
:106C500008B15C21E9E70549EBE700BFD4600020FB
:106C6000A437002014320020103200201632030016
:106C700000B00040A82F0300F82F030042300300AB
:106C80007B300300002CB7D094F89930032BB3D19C
:106C900094F8D830022BAE4B45D1297994F89B203B
:106CA000914240D11B6818071AD5AA4B1B68032BC9
:106CB00016D92F21A8480BF0BFFB58B32F21A648A7
:106CC0000BF0BAFB411CA54B94F8DC20D3F804353B
:106CD0000192A34A009204204FF43E7204F032FF66
:106CE000002504F1A000C4F8AC5003F06FFB20466F
:106CF00006F002FC94F89B3084F8D850013320460B
:106D000084F89B30FFF7D3FB204604B0BDE8F04188
:106D1000FEF7D2BF5C2190480BF08EFB08B15C21DE
:106D2000CDE78D49CFE71B6819077FF565AF894B24
:106D30001B68012B7FF660AF2F2187480BF07CFB8F
:106D400060B12F2184480BF077FB411C834B854AAF
:106D5000D3F80435009240F20A3271E75C217E4894
:106D60000BF06AFB08B15C21ECE77B49EEE7002CF5
:106D70003FF442AF94F89930032B7FF43DAF94F881
:106D8000D860297994F89A30012E4CD1994225D1B6
:106D900094F8DB3080080341DA073FF52DAF172761
:106DA000013807FB0040A8F10602A91DF0300BF0E6
:106DB00064FA6B7994F8DB209B0806FA03F313431B
:106DC00094F8D9200232B2FBF7F70137DBB2FFB2F9
:106DD00084F8DB30BE400133B34265E65C4B1B6890
:106DE0001B077FF509AF5B4B1B68012B7FF604AFD8
:106DF0002F2159480BF020FB60B12F2156480BF092
:106E00001BFB411C554B584AD3F80435009240F205
:106E1000E22215E75C2150480BF00EFB08B15C2123
:106E2000ECE74D49EEE79942FFF466AE7FF6E4AE3B
:106E3000474B1B681F077FF5DFAE464B1B68012BD6
:106E40007FF6DAAE2F2144480BF0F6FA88B12F21F5
:106E500041480BF0F1FA411C404B94F89A20D3F8CA
:106E6000043502922A790192404A009240F2EE22C1
:106E700098E65C2138480BF0DFFA08B15C21E7E7BF
:106E80003549E9E78008012874D023D3022800F0AF
:106E9000D2802F4B1B681B077FF5AEAE2D4B1B68B6
:106EA000012B7FF6A9AE2F212B480BF0C5FA002845
:106EB00000F026812F2128480BF0BEFA411C6A7988
:106EC000264B9208D3F804350192294A00924FF4D8
:106ED0005B72A3E0B8F1160F7FF48EAE02F028FCCF
:106EE00010220146A81D0BF0B9F900287FF484AEEA
:106EF000002C40F01381EFF3108372B634681CB994
:106F0000002B00F0078177E694F89920012A00F021
:106F10000081D4F8A841F2E75C210F480BF08CFA0D
:106F200008B15C2127E10C4929E10023C4F8943021
:106F300062E6032B7FF460AE94F8D830002B7FF428
:106F40005BAE204604B0BDE8F041FFF793BA00BF46
:106F500014320020103200201632030000B000402E
:106F6000AD300300C8300300E830030019310300DE
:106F7000EF310300002C3FF43FAEB8F1060F7FF471
:106F80003BAE94F89930894D022B2AD1204606F069
:106F9000B3FA1421204606F07BFA2B681D0740F156
:106FA000F880834B1B68032B40F2F3802F2181482C
:106FB0000BF042FA60B12F217E480BF03DFA411CE4
:106FC0007D4B7E4AD3F8043500924FF45272DDE0D7
:106FD0005C2178480BF030FA08B15C21ECE7754988
:106FE000EEE72B6818077FF507AE714B1B68012B86
:106FF0007FF602AE2F216F480BF01EFA90B12F21C1
:107000006C480BF019FA411C6B4B94F89920D3F89B
:10701000043501926A4A00924FF45472022004F03F
:1070200091FDE9E55C2163480BF006FA08B15C21AB
:10703000E6E76049E8E7002C3FF4DEADB8F1070F62
:107040007FF4DAAD94F89930584E023B012B30D8DA
:1070500094F8D830022B03D104F1A00003F0B6F964
:10706000A9792046FFF78AF8336819077FF5C4AD80
:107070004F4B1B68032B7FF6BFAD2F214D480BF004
:10708000DBF968B12F214B480BF0D6F9411C4A4B74
:107090004C4AD3F804350092042040F26232D0E525
:1070A0005C2144480BF0C8F908B15C21EBE7414989
:1070B000EDE733681A077FF59FAD3D4B1B68012B49
:1070C0007FF69AAD2F213B480BF0B6F978B12F210E
:1070D00038480BF0B1F9411C374B94F89920D3F89C
:1070E00004350192384A009240F2673296E75C21FB
:1070F00030480BF0A1F908B15C21E9E72D49EBE735
:107100005C212C480BF098F908B15C21D3E62949A1
:10711000D5E61BB962B6002C3FF46EAD94F89930F9
:10712000012B7FF406AF2B681A0E190242EA0362A4
:1071300001F47F011B0A0A4303F47F4313432046F3
:10714000C4F89430142106F0A3F92046FFF792F911
:1071500000287FF4EAAE154B1B681E0719D5144BA7
:107160001B68032B15D92F2112480BF065F9002855
:107170003FF4D2AE2F210F480BF05EF9411C0E4BAD
:107180000E4AD3F80435009240F22B32042004F06A
:10719000D9FC0323204684F89930FFF788F920466C
:1071A00004B0BDE8F041FEF741BD00BF143200203D
:1071B000103200201632030000B000405F3103009F
:1071C00075310300A6310300BC31030038B5837864
:1071D00003F003020446032A22D8DFE802F0021477
:1071E000191D9B08174A1848126813440268A360C7
:1071F00000210AB395685D1B002D1ADAF1B911461A
:10720000E160046038BD9B0803EB83035B00E9E7A2
:107210009A0864235343E5E79A0841F27073F9E74B
:1072200078460A4B1B6813B198470023DAE700DE63
:10723000D8E71146D268DCE70029E1D0CC60E260F3
:1072400038BD00BFC0370020C8370020D460002000
:1072500008B5032809D8DFE800F011020406084841
:1072600008BD084808BD084808BD7846074B1B689C
:1072700013B19847002008BD00DEFBE7044808BDB5
:1072800040420F00809698000046C323D46000203F
:10729000A08601002DE9F041574D2B78A3B1574B43
:1072A000574E5C6803F04EF9241A3078FFF7D0FF90
:1072B0003278544B001B002A40D14CF2503290429D
:1072C0003CD91A6801321A60DFF84881D8F80020EA
:1072D000002A00F087804A4E9378307803F0030349
:1072E0008342344664DD474B97681B68FB1A464F60
:1072F0005F43FFF7ADFFD8F80030B7FBF0F09F78A1
:10730000C7F30107FBB2022B1FD031D8012B47D1A5
:107310000A22B0FBF2F302FB1300002840D103F075
:1073200011F900F5742101F5107137702B78002BDD
:1073300050D03248BDE8F04103F07AB81A683249BB
:10734000B0FBF1F010441860BEE7337863B96422F3
:10735000B0FBF2F302FB130010BB03F0F3F82B4970
:10736000022301442370E1E7012B19D10A22EFE740
:10737000337863B941F27072B0FBF2F302FB130091
:1073800070B903F0DFF8224903230144EAE7012B37
:1073900002D14FF41672EFE7022B01D13C22EBE74A
:1073A00003F0D0F806462078FFF752FF3118BDE70A
:1073B00003F0C8F8D8F800300446987800F00300CD
:1073C000FFF746FFD8F800309B78C3F3010321187C
:1073D0003370ABE7094801232B704160BDE8F041F1
:1073E00002F0CCBF2B7823B10448BDE8F04102F095
:1073F000EDBFBDE8F08100BFC4370020A8370020F2
:10740000C5370020C0370020A08601008096980074
:107410000046C323C83700202DE9F341284B1B78D1
:10742000032B2AD8DFE803F0021B1F23254A136829
:1074300001331360244B254E224D00221A70B046B2
:1074400034683CB1A3682A6893421ED02A689B1A0C
:10745000002B1ADBFFF71EFF02B0BDE8F081194ACE
:1074600013680A33E5E7174A13686433E1E7154AFE
:10747000136803F5BB531033DBE77846144B1B68E6
:107480000BB19847D6E700DED4E72788E368C8F851
:10749000003002A9002341F8043D384600F07AFD8F
:1074A00020B178460A4B1B6843B198473846636859
:1074B000019998472046FFF789FEC1E700DEF5E70E
:1074C000C5370020C0370020C4370020C83700204F
:1074D000D460002010B5084C1822002120460AF084
:1074E000D7FE064B064AA36000231360054A1360CB
:1074F000054A137010BD00BFA837002019740200A0
:10750000C0370020C8370020C43700204A090123B3
:1075100001F01F0103FA01F150F82230194214BFA3
:107520000120002070474FF6FF72B2EB104F82B07F
:1075300083B215D113F47F4007D003F44043B3F571
:10754000004F14BF0020012006E023F07F022AB97B
:107550007F3B18BF0123184602B070470346FAE785
:1075600023F03F03C02BECE701289FBF054B3422DB
:1075700002FB003090F8300094BF00F001000020C2
:10758000704700BF043800207846034B1B6803B1E6
:10759000184700DE704700BFD4600020004700009D
:1075A00010B50F4C6822002120460AF071FE062219
:1075B00000210C480AF06CFE102200210A480AF053
:1075C00067FE4FF6FF730222E380A380E281A3816E
:1075D00063872387A4F84220A4F8403010BD00BF81
:1075E00004380020CC3700206C38002010B586B05D
:1075F0000E4B03930E4B04930E4B059304230293FF
:1076000001F064FB0C4CA0F580500123009069460A
:107610000A480193237004F005FF20B1084805F0E3
:1076200025F806B010BD2070FBE700BFA176020070
:10763000897502004576020000380020DC37002002
:10764000B8310020134B1A78D00744BF42F0020231
:107650001A701A7AD10744BF42F002021A720E4B16
:107660001A881AB15A7942F002025A710B4B93F8F8
:107670003020D00744BF42F0020283F8302093F854
:107680006420D10744BF42F0020283F86420FFF770
:10769000ADBF00BF6C380020CC370020043800207C
:1076A00030B5012A8DB004460D4606D17846104B00
:1076B0001B68D3B198470DB030BD022AF6D0032A1B
:1076C000F9D12C22002101A80AF0E2FD19238DF83E
:1076D000043002238DF80830E368059301A823697C
:1076E0000395069302F028F8E5E700DEE3E700BF24
:1076F000D46000202DE9F743037D012B04463CD1E3
:1077000001A801F07DFBE38ABDF80460B34222D3F7
:10771000BDF80620324493421DDA9B1B484D9EB2B1
:107720004FF0000895F82830DA070DD5AB88B34242
:107730000AD1618C2846FFF7E9FE28B127886088C6
:10774000298C00238B4209D308F10108B8F1020FFC
:1077500005F13405E6D103B0BDE8F083EA694FEAEC
:10776000C30902EB090E32F83320BA4203D1BEF846
:10777000022082424ED00133E4E74FF6FF7301A9A5
:107780001430ADF8043001F09FFB20B178462D4B4A
:107790001B687BB39847BDF8040001F04DFB20B98E
:1077A0007846284B1B683BB39847254DDFF89880F7
:1077B000002695F82830DB0716D5EF88012F13D85F
:1077C000618C2846FFF7A2FE70B108EBC700BDF838
:1077D00004100430FFF79AFE30B1B4F800E0678877
:1077E000288C0023834209D30136022E05F134058B
:1077F000DFD1B0E700DECEE700DED6E7E96901EBD6
:10780000C30231F83310714502D15188B94210D00A
:107810000133E7E71FFA88F76A6A2146384600F025
:10782000DDFCEB696A6A4B4421465B683846984741
:107830008AE753686A6A2146B0B29847D4E700BF26
:107840000C380020D46000206C38002070B503781C
:107850008CB00646002B75D143681C7804F0C0023A
:10786000402A0ED003D862B100252C460EE0802AB3
:107870006AD0C02AF8D15A789D78A4B245EA022588
:1078800004E0A4B27F2C5DD04FF6FF75374B1B6828
:107890009B0419D5364B1B68042B15D92F2135486D
:1078A0000AF0CAFD002853D02F2132480AF0C4FD47
:1078B000411C314B314AD3F804350092019440F217
:1078C0002312052004F03EF9306A01F049FB4FF61F
:1078D000FF729542ADF80C40ADF80E50736840D180
:1078E000FF2C8CBF0222012213444FF6FF729542F7
:1078F0000493338937D1FF2C8CBF022201229B1ABB
:10790000ADF81430337B8DF81830F389ADF81A30A8
:1079100033690793337D8DF82030F38AADF8223038
:10792000B3690993B36A5A680A9293F90D308DF8D6
:107930002C30ADF82E0096F824308DF82D3003A8A9
:10794000FFF7D8FE0CB070BD5B7843EA04249BE7D8
:107950005C2108480AF070FD08B15C21A5E70549E3
:10796000A7E70322C0E70322C9E700BF14320020C3
:10797000103200204D32030000B000406932030095
:107980002DE9F04F93B00B89B3F5BE7F02AF83466C
:107990000C46904680F08480FFF7E6FD002800F05A
:1079A00081809F4A342303FB0B2391469989002948
:1079B00078D1B8F1000F07D199884FF6FF72914244
:1079C00007D0DB88934204D02068FFF7ACFD002885
:1079D0006CD1072539E0D888B3F804A0F881314686
:1079E00001F044FA002800F0858078468D4B1B6832
:1079F0000BB198477EE000DE7CE07B8A0B449A4224
:107A000080F28D802422002140460AF041FC236848
:107A1000FB6163683B6296E803002389BB84012312
:107A200087F8283007F1300383E803007D8502F0F2
:107A300089FDB863404687F83D90A7F83EA0FFF760
:107A400059FE3B7D012B6AD1002528464437BD46AF
:107A5000BDE8F08FF8894FF6FF7398425FD001F0D0
:107A6000EBF90028CED15AE003226AE000DE7DE087
:107A7000032590E011F47F4F1DBF0D0A8BF80050D5
:107A80008BF801108BF8001093E003209BE05C2141
:107A900065480AF0D1FC08B15C21AEE06249B0E073
:107AA0000925D2E70525D0E71025CEE707F110001C
:107AB00001F0A6F9342303FB0B937A8A9D89AA422D
:107AC000F2D93A8A1544ADB207F11406B8F1000FA5
:107AD00081D0B8F822A008F10C0898E8030086E8E5
:107AE000030007F10E01404601F0EEF910B14FF628
:107AF000FF73FB81342303FB0B9907F11C0899F8F2
:107B00001090B9F1FF0F04BF484B93F800903B7DF4
:107B1000012B9FD1FA8A398A8A42BFF46EAF2022A4
:107B200000214046C7F804D00AF0B2FB61882388E0
:107B30004FF6FF72914297D1B3F5807F34BF012297
:107B4000022223891344073323F00703ADEB030D0F
:107B500007F1300150460DF1080B01F0A7FA28B1EA
:107B60007846304A1268002A80D0904796E8030091
:107B700088E803006088BD844FF6FF75A84287F847
:107B80002690C7F828B0228921887FF471AFFF2999
:107B90008CBF022501251544BD854FF6FF75A8420F
:107BA0003FF468AF050A8BF800108BF801508BF892
:107BB00002004FF6FF75A8427FF467AFB1F5807FF2
:107BC00034BF01200220616858440AF056FB0021AE
:107BD000404602F093F90546F8B9154B1B689B0423
:107BE0001BD5144B1B68042B17D92F210E480AF004
:107BF00023FC00283FF44BAF2F210B480AF01CFC5C
:107C0000411C0D4B2288D3F8043501920B4A009297
:107C1000052040F2C51203F095FFD7F804D014E711
:107C200004380020D46000204D320300C831002009
:107C3000143200201032002000B000407C320300DB
:107C400008B5FFF7ADFC0648064B036002F03FFAAB
:107C500000F006FBFFF73EFCBDE80840FFF7C6BC9E
:107C6000D43700204D7802002DE9F0410446002869
:107C700000F0BF808368002B00F0BB80002900F07B
:107C8000B8804FF6FF730B80C368002B00F0B48000
:107C90008388002B40F0B3805D4EB378F078C34208
:107CA00078D1D4F80880E7680025AF4240F098808A
:107CB00008884FF6FF739842564B46D193F83050E0
:107CC00015F0010500F0938093F86420D20701D4E9
:107CD000012080B24FF6FF75A842088000F0958021
:107CE000342202FB0030C580088802FB003085800A
:107CF0000888A78802FB00308781088827885043BE
:107D00001F520888678802FB00304780088802FB02
:107D100000324148007810746088A288A8424FF071
:107D2000060000FB02620BBF9078D0780130013072
:107D30000CBF9070D0700A88342000FB023292F899
:107D4000300040F0020082F830000A8825693420B3
:107D500000FB0232D5620A88A56800FB0232556238
:107D60000A88E56800FB023215850A88646900FB11
:107D7000023294610A8800FB0234A2820A8800FB66
:107D80000233002093F8302042F0010283F83020C3
:107D9000BDE8F0811F4B25889A8960882AB91F8821
:107DA000AF4202D15F8887420DD0B3F84020002A4D
:107DB0007FF477AF9A8EAA427FF473AFDA8E824255
:107DC0007FF46FAF012210460A80342202FB003399
:107DD00093F83030D8077FF564AF0F20BDE8F0810D
:107DE00058F83500FFF79FFB60B101355DE7284685
:107DF0006FE70E20BDE8F0810920BDE8F081052085
:107E0000BDE8F0810720BDE8F0810420BDE8F081E5
:107E1000CC37002004380020C831002011B10022E6
:107E2000FFF7AEBD0E20704713460A4619B113B1D5
:107E30001946FFF7A5BD0E207047000010B5044697
:107E4000FFF792FB88B1042911D80A48342303FBB9
:107E50000400C3888B4206D090F83030C18043F0D4
:107E6000020380F83030002010BD052010BD07202F
:107E700010BD00BF0438002010B5044651B1FFF713
:107E800073FB48B1054B342202FB04340020E38825
:107E90000B8010BD0E2010BD052010BD0438002041
:107EA000F8B506460F46FFF75FFBC0B1052918D8A5
:107EB00034250E4C754305F10806A019FFF726FB83
:107EC00088B9012303FA07F1A3590B43A3512C44AA
:107ED00094F8303043F0020384F83030F8BD0520C8
:107EE000F8BD0720F8BD0020F8BD00BF0438002011
:107EF00010B50446FFF738FB88B1052911D80A48A8
:107F0000342303FB040083888B4206D090F8303082
:107F1000818043F0020380F83030002010BD05203E
:107F200010BD072010BD00BF0438002010B5044666
:107F3000FFF71AFB98B181F080037E2B11D90A4814
:107F4000342303FB0400037C8B4206D090F83030CE
:107F5000017443F0020380F83030002010BD05208A
:107F600010BD072010BD00BF0438002010B5044626
:107F700051B1FFF7F9FA48B1054B342202FB043442
:107F80000020237C0B7010BD0E2010BD052010BDFD
:107F90000438002010B5044651B1FFF7E5FA48B1A6
:107FA000054B342202FB04340020E36A0B6010BD51
:107FB0000E2010BD052010BD0438002038B5324C0D
:107FC000282303FB0043054693F83C302BB9784641
:107FD0002E4B1B68002B48D09847B4F868302BB95B
:107FE00078462A4B1B68002B41D09847282202FB79
:107FF0000542002382F83C30B4F86830013B9BB264
:10800000A4F86830002B39D0B4F86A30AB423AD1CA
:10801000536B1F4A1A4494F83C3053B3636B991A5C
:108020000029B8BF1A464FF6FF73B8BF002394F873
:10803000641021B1E16D8A1A002AB8BF01234FF6FE
:10804000FF729342A4F86A3004D178460F4B1B6844
:1080500093B19847B4F86A300B48282202FB0344D6
:10806000616BBDE8384002F0E3B900DEB5E700DE41
:10807000BCE74FF6FF73DAE700DEEBE70248BDE846
:10808000384002F0A3B938BD7C380020D46000200D
:10809000008793032DE9F74F4D4BB3F86820064650
:1080A0009B4622B978464B4B1B689BB398474FF6CB
:1080B000FF77494CDFF81C91ABF86A7006F57A78C7
:1080C00000254FF0280A94F82030EBB12369A3EB88
:1080D0000803002B22DA002384F82030BBF8683034
:1080E000013BABF8683001A934F8040CFFF752FFEC
:1080F00020B17846D9F8003073B198476369019987
:1081000034F8040C012298470135022D04F12804AB
:1081100028D0D8E700DECAE700DEEFE7A369A3EBCB
:108120000802002A41DA214634F8040CFFF776FEF3
:10813000ABF86A5060B9E369A2691A445B00A261B6
:10814000E3612269A369D31A002BDDDAA261DBE7C0
:10815000042822D1282303FB05B56B6B03F51C43D0
:1081600040336B63BBF86830002B2DD0BBF86A300E
:10817000012B04D97846174B1B681BB39847BBF8F3
:108180006A30282202FB03B35B6B9A1B48BFF21ACA
:10819000CBF80C2003B0BDE8F08F7846D9F800305A
:1081A0000BB19847CDE700DECBE7BBF86A20BA42B7
:1081B00005D00AFB02B2526B9B1A002BA4DAABF873
:1081C0006A50A1E700DEDAE7CBF80C30E2E700BF47
:1081D0007C380020D46000209838002001282DE948
:1081E000F84307468946904604D978461A4B1B68DF
:1081F0006BB39847194C02F0C9FD94F83C3013B1A9
:10820000238BBB4225D094F86430E3B1B4F84030FE
:10821000BB4218D10125282605FB0663E218E15A66
:10822000B9F8003099420ED15288B9F802309A421A
:1082300009D106FB05442846FFF7C0FE236B002248
:10824000414638469847BDE8F84302F0C1BD00DE1C
:10825000D0E70025DFE700BFD46000207C38002095
:1082600010B5044C6C22002120460AF011F8024B94
:10827000A36010BD7C38002095800200012810B555
:1082800004461CD802F082FD0E4B93F83C101A46AF
:1082900011B11B8BA3420ED092F864306BB1B2F8CF
:1082A0004030A34209D10120FFF788FE002402F0EC
:1082B0008FFD204610BD0020F6E70524F7E70524D2
:1082C000F7E700BF7C3800202DE9F7430646002879
:1082D00000F0C6808369002B00F0C2800388012B68
:1082E00000F2C0804269624B1344624A934200F23A
:1082F000BB80614C02F04AFDB4F86830022B00F2FA
:10830000A58094F83C508DB13288238B9A424FF669
:10831000FF7512D0042794F864304BB94FF6FF7202
:10832000954240F0918001251F4607E02F46F2E775
:10833000B4F8402033889A4200D1082702F048FD63
:10834000002F7DD1311D3088FFF768FD30F0040328
:1083500040F08C80282303FB054393F83C302BB17D
:108360007846464B1B68002B74D0984702F0EAF819
:108370008046282000FB054031461C22183009F0B9
:108380007CFF0DF107013088FFF7F0FD28B178463A
:108390003A4B1B68002B5FD09847F188B3884FF6A3
:1083A000FF7291425AD1FF2B8CBF02230123B28965
:1083B00013449DF8072044F620619BB24A430B2BDF
:1083C00002F5433288BF0B3302F5A0724FF0280646
:1083D00082BF0C2093FBF0F301FB032205FB066335
:1083E000234406FB05495968C9F8382041444244F2
:1083F0005960C9F8342002F0C9FCB4F868304BB1B8
:10840000B4F86A30D9F8342006FB0346736B9B1A24
:10841000002B08DB282303FB05431748596B02F0A8
:1084200007F8A4F86A50282303FB0545012385F8C3
:108430003C30B4F868300133A4F8683002F0C8FC6E
:10844000384603B0BDE8F0831D4677E74FF6FF7569
:10845000042773E700DE89E700DE9EE70323A6E733
:108460000E27EDE70527EBE70727E9E70746E7E7EC
:10847000803C36FE80C3C9017C380020D4600020D7
:108480004A09012301F01F0103FA01F150F82230DB
:10849000194214BF0120002070474A09012301F04E
:1084A0001F0103FA01F150F822300B4340F822304B
:1084B00070474A09012301F01F0103FA01F150F846
:1084C000223023EA010340F822307047F0B501F171
:1084D0001F046409651E00230126A34201D1012067
:1084E000F0BDAB4204BFA1EB431206FA02F250F812
:1084F00023700CBF02F1FF324FF0FF323A4201D13C
:108500000133EAE70020F0BD042803D1002102482E
:10851000FFF7B6BF00207047F838002038B54FF697
:10852000FF7305460C460B8008480021FFF7A8FFA3
:1085300038B1074B1B88AB424FF0000303D12380B7
:1085400038BD208038BD184638BD00BFE439002052
:10855000EC3900202DE9F0474FF6FF73DFF8448037
:10856000DFF844900B8007460D4600241E464FF06E
:10857000160A21464046FFF783FF631C40B10AFB01
:1085800004F434F80920BA4206D12B80BDE8F08704
:108590002A88B24208BF2B80052B1C46E9D1002057
:1085A000BDE8F087303900203839002038B54FF663
:1085B000FF7305460C460B8008480021FFF760FF5B
:1085C00038B1074B1B88AB424FF0000303D1238027
:1085D00038BD208038BD184638BD00BF1039002096
:1085E00018390020024B33F820300B80704700BF51
:1085F0000039002010B5044620B97846044B1B68AA
:1086000023B198472346BDE81040184700DEF9E73C
:10861000D46000202DE9F0415D1E16240D4E6C4300
:108620000746A01D884630441146102209F025FE59
:10863000331900225A7101222946A3F80280064804
:108640001A713753FFF729FF29460448BDE8F04166
:10865000FFF723BF3839002030390020343900209B
:1086600010B40C46431C0A1D208849885DF8044B51
:108670009BB2FFF7CFBF000070B516244443074EEE
:108680000D46A11D10223144281D09F0F6FD325B74
:108690002A8033195B886B8070BD00BF3839002099
:1086A00070B516244443074E0D46A11D10223144D7
:1086B000281D09F0E2FD325B2A8033195B886B804C
:1086C00070BD00BF1839002070B55C244443054ECE
:1086D0000D46A11C10223144A81C09F0CEFD335BCD
:1086E0002B8070BDEC390020044A0B46142101FB9D
:1086F000002104311022184609F0BFBD483A00207D
:108700000422014809F0B9BDDE39002008460422E0
:10871000014909F0B2BD00BFDE3900202DE9F84360
:1087200016255D43144C91468046A81D0F46102225
:10873000494620441E4609F0A0FD691D21444846D3
:1087400003F066F920B178460C4B1B6893B198474B
:1087500016237343E21800211171578031460848EF
:1087600024F80380FFF799FE31460648BDE8F84338
:10877000FFF793BE00DEEBE718390020D46000203D
:10878000103900201439002010B40C4683B20A1DA1
:10879000208849885DF8044BFFF7C0BF2DE9F04100
:1087A0001E4D5C245443164604F134032A192B440D
:1087B00088461364074610B9194B01221A7004F158
:1087C00012012944404603F02CF920B17846154B9C
:1087D0001B68FBB1984704F144012944404603F06B
:1087E00031F920B178460F4B1B68ABB19847A01CFC
:1087F00041461022284409F040FD5C237343314672
:108800000948EF52FFF749FE31460848BDE8F041FC
:10881000FFF743BE00DEDEE700DEE8E7EC390020CC
:10882000DC390020D4600020E4390020E839002041
:108830000B4682B202311888FFF7B0BFF8B50D1FA2
:1088400014246C430E4F0646201D31461022384436
:1088500009F013FD3919304603F01CF920B17846B0
:10886000084B1B6853B1984729460748FFF715FE88
:1088700029460648BDE8F840FFF70FBE00DEF3E7E3
:10888000483A0020D4600020F8380020FC3800204E
:108890000B46011D89B21846FFF7D0BF2DE9F843FA
:1088A00004460F4602F072FA052C04D97846174B9D
:1088B0001B68FBB19847164B164D1E786401DEB15C
:1088C00005EB04091448B9F81210D9F814203944FA
:1088D00089B203F02FFD804670B1011DD9F8183020
:1088E00038469847404603F061FD02F071FA304681
:1088F000BDE8F88300DEDEE72C443946A068FFF7C8
:10890000CCFD064803F0B2FE0026EEE7D46000205E
:10891000A639002090320300A8390020CC3900206D
:10892000F8B504460F4602F031FA052C04D9784612
:10893000104B1B6893B198470F4B104D1E78640184
:1089400076B92C443946A068FFF7A7FD0C4803F020
:108950008DFE002602F03CFA3046F8BD00DEEBE763
:108960002B190848598A394489B203F029FD002897
:10897000F0D0E6E7D4600020A63900209032030052
:10898000CC390020A83900202DE9F843184D0026E5
:10899000AF68D5F80080384641465FFA86F9FFF7A0
:1089A00095FD10B90446444503D1052E1AD1BDE802
:1089B000F88321463846FFF763FD68B121466868B1
:1089C000FFF75EFD214648B14846FFF767FF60B1FB
:1089D00021463846FFF76DFD0134E4E74846FFF7CE
:1089E0009FFFF4E701362035D2E7BDE8F88300BFEA
:1089F000903203004FF6FF7370B50B8006460D46AC
:108A000009480021FFF73CFD044610B928802046A4
:108A100070BD10223146054809F020FC08B92880B5
:108A2000F5E70024F3E700BFF83800204C3A0020B7
:108A300008B548B97846084B1B681BB198474FF6F4
:108A4000FF7008BD00DEFAE7044BC01A18BF4FF0F4
:108A5000FF3080B208BD00BFD4600020FE39002086
:108A600008B548B978460E4B1B681BB198474FF6BE
:108A7000FF7008BD00DEFAE70A4B98420DD00A4BA2
:108A80009842F4D303F158029042F0D8C01A16234A
:108A9000B0FBF3F0013080B208BD002008BD00BF7C
:108AA000D46000201C3900203C39002010B5012979
:108AB0008CB0044606D17846104B1B68DBB1984752
:108AC0000CB010BD0229F6D00329F9D12C220021C7
:108AD00001A809F0DDFB19238DF8043002238DF87D
