:020000021000EC
:10F00000000001209D560200C556020009FB0100C8
:10F01000C9560200CB560200CD5602000000000087
:10F02000000000000000000000000000CF560200B9
:10F03000D156020000000000D3560200D55602004F
:10F04000D7560200D7560200D7560200D756020004
:10F05000D7560200D7560200D7560200D7560200F4
:10F06000D7560200D7560200D7560200D7560200E4
:10F07000D7560200D7560200D7560200D7560200D4
:10F08000D7560200D7560200496C0200D75602003C
:10F09000D7560200D756020069FB0100D75602007E
:10F0A000D7560200D7560200D7560200D7560200A4
:10F0B000D7560200D75602000000000000000000F2
:10F0C000D7560200D7560200D7560200D756020084
:10F0D000D7560200D7560200D756020000000000A3
:10F0E0000000000000000000000000000000000020
:10F0F0000000000000000000000000000000000010
:10F1000000000000000000000000000000000000FF
:10F1100000000000000000000000000000000000EF
:10F1200000000000000000000000000000000000DF
:10F1300000000000000000000000000000000000CF
:10F1400000000000000000000000000000000000BF
:10F1500000000000000000000000000000000000AF
:10F16000000000000000000000000000000000009F
:10F17000000000000000000000000000000000008F
:10F18000000000000000000000000000000000007F
:10F19000000000000000000000000000000000006F
:10F1A000000000000000000000000000000000005F
:10F1B000000000000000000000000000000000004F
:10F1C000000000000000000000000000000000003F
:10F1D000000000000000000000000000000000002F
:10F1E000000000000000000000000000000000001F
:10F1F000000000000000000000000000000000000F
:10F2000010B5054C237833B9044B13B10448AFF360
:10F2100000800123237010BDA81A00200000000008
:10F2200064F402000C4B43B10C480D4910B5AFF328
:10F2300000800C48036823B910BD0A48036833B93D
:10F240007047094B002BF7D0BDE810401847064B1C
:10F25000002BF5D0184700BF0000000064F4020046
:10F26000AC1A0020A01A002000000000154B002B53
:10F2700008BF134B9D46A3F5803A00218B460F46ED
:10F280001348144A121A0EF095FF0F4B002B00D0B2
:10F2900098470E4B002B00D0984700200021040017
:10F2A0000D000D48002802D00C48AFF300800EF08E
:10F2B00033FF2000290000F08DFA0EF019FF00BF87
:10F2C0000000080000000120000000000000000015
:10F2D000A81A00208C4B0020000000000000000055
:10F2E0002DE9F04188B0037804AF04460B2B00F2FF
:10F2F0002982DFE813F051005100270251000C0071
:10F30000310027022702EC01270227021D01794B59
:10F310001B68590440D5784B1B68032B3CD92F211F
:10F3200076480FF01BF870B12F2174480FF016F8D3
:10F33000411C734B734AD3F8043500928522042094
:10F3400008F0F4FB28E05C216C480FF007F808B1E6
:10F350005C21EAE76949ECE7664C2268520416D55D
:10F36000654B1B68032B12D92F2164480EF0F6FF62
:10F37000B0B12F2161480EF0F1FF411C604B624A91
:10F38000D3F80435009204208E2208F0CFFB5F4BA7
:10F390001B7873B1012B35D01037BD46BDE8F08125
:10F3A0005C2156480EF0DAFF08B15C21E2E75349D0
:10F3B000E4E70122564957483B607B607A70C7F802
:10F3C0000730BB703A7101F064F818B14B4A9621CE
:10F3D00000F060FB3B464E4A4E494F4801F047F86B
:10F3E00018B1464A992100F055FB00231A461946E8
:10F3F000494801F050F80028CED0404A9A2100F048
:10F4000049FBC9E723685B0417D53B4B1B68032BFB
:10F4100013D92F2139480EF0A1FF002860D02F21E9
:10F4200036480EF09BFF411C354B3C4AD3F804355F
:10F4300000920420622208F079FB0021384803F092
:10F440005DFE18B12D4A632100F024FB102200213B
:10F4500038460EF0AFFE3349334B09883A46002058
:10F4600005F0E8FD18B1254A672100F013FB2F498C
:10F47000012005F0D7FC18B1204A682100F00AFBF2
:10F48000294D274C2988208804F024FD18B11B4AF7
:10F49000692100F0FFFA254B2088198804F0E8FC68
:10F4A00018B1164A6A2100F0F5FA2988208804F07C
:10F4B00039FD18B1114A6B2100F0ECFA06212088C1
:10F4C00004F04EFD18B10D4A6C2100F0E3FA144827
:10F4D00003F078FE00283FF45FAF084A6D218EE705
:10F4E0005C2106480EF03AFF08B15C2198E7034919
:10F4F0009AE700BF241A0020201A00208CE40200A2
:10F5000000B00040B4E40200D4E40200C61A0020B7
:10F51000B41F0020D41F0020D81A0020EFE40200FE
:10F52000D81D0020D41A0020C41A0020D41D0020A9
:10F53000C38A3B80384601237B8005F023FC18B149
:10F54000954AAA2100F0A6FA944AA168A08A05F07B
:10F5500009FD18B1904AAD2100F09CFA8F49904BFB
:10F56000E2680988E08A05F029FD18B18A4AB221CB
:10F5700000F090FA8B4D2B685E041AD58A4B1B68FD
:10F58000032B16D92F2184480EF0E8FE002800F046
:10F5900083802F2180480EF0E1FE411C834BE28ADC
:10F5A000D3F804350192824A00920420B52208F073
:10F5B000BDFA2B68580435D57B4B1B68032B31D91A
:10F5C0007C4BD4F808E01968E8468AB004AE002302
:10F5D0001EF80320100902F00F02085C06F8130061
:10F5E000885C06EB43020133102B5070F0D10023EE
:10F5F00086F820302F2168480EF0B0FE002854D045
:10F600002F2165480EF0AAFE411C684B6A4AD3F8C8
:10F6100004350192694A00920296B622042008F04D
:10F6200085FAC5462B68590432D55F4B1B68032BFE
:10F630002ED9604BE46819686E468AB004AD002389
:10F64000E25C100902F00F02085C05F81300885C08
:10F6500005EB43020133102B5070F1D1002385F8E4
:10F6600020302F214C480EF079FE38B32F214A4824
:10F670000EF074FE411C4D4B514AD3F804350192F3
:10F680004E4A00920295B722042008F04FFAB54680
:10F690004C4B01221A707FE65C213F480EF05EFE63
:10F6A00008B15C2176E73C4978E75C213A480EF0E6
:10F6B00055FE08B15C21A4E73749A6E75C2136482E
:10F6C0000EF04CFE08B15C21D1E73349D3E73E4B45
:10F6D0003A4603F1100E3E4618685968154603C5B0
:10F6E000083373452A46F7D110223146606800F08E
:10F6F000E4FE18B1284ABF2100F0CCF9294B1B6861
:10F700005A047FF549AE284B1B68032B7FF644AEA5
:10F710002F2121480EF022FE58B12F211E480EF055
:10F720001DFE411C214B294AD3F804350092C0220A
:10F7300005E65C2118480EF011FE08B15C21EDE7EA
:10F740001549EFE7174B1B685B047FF525AE164B99
:10F750001B68032B7FF620AE2F210F480EF0FEFD15
:10F7600080B12F210C480EF0F9FD411C0F4B22787F
:10F77000D3F804350192164A00920420CE2208F0F4
:10F78000D5F909E65C2104480EF0E8FD08B15C21DA
:10F79000E8E70149EAE700BF8CE40200D41A002040
:10F7A000C81A0020241A0020201A002000B00040AF
:10F7B00027E50200281A00204EE5020060E502005D
:10F7C00068E50200C61A0020DCE302007AE50200C8
:10F7D000A0E5020010B5002386B04FF4F0124FF000
:10F7E000A041032042FA03F4E40748BF03F5E074A4
:10F7F00003F1010348BF41F82400202BF2D1574CFC
:10F80000574A04214FF4C04008F076F923685904A0
:10F8100017D5544B1B68032B13D92F2152480EF0D8
:10F820009DFD00287FD02F214F480EF097FD411CF1
:10F830004E4B4F4AD3F8043500920420D82208F0EA
:10F8400075F900F083FA4B484B4B0360002343608B
:10F8500006F031FC05F082FA04F00CFA23685A0431
:10F8600017D5404B1B68032B13D92F213E480EF0B0
:10F8700075FD002860D02F213B480EF06FFD411C24
:10F880003A4B3E4AD3F8043500920420722208F025
:10F890004DF9002301223A493A48039304938DF825
:10F8A0000C20CDF813308DF80D208DF80E308DF82A
:10F8B000102000F0EEFD18B12B4A792100F0EAF893
:10F8C00003AB2F4A2F49304800F0D1FD18B1264A2A
:10F8D0007A2100F0DFF823685B0416D5214B1B6802
:10F8E000032B12D92F2120480EF038FD68B32F21A9
:10F8F0001D480EF033FD411C1C4B244AD3F804353F
:10F9000000920420E52208F011F900231A46194656
:10F910001D4800F0C0FD18B1134AE62100F0BAF806
:10F9200006F0E2FAFCE75C210F480EF017FD08B183
:10F930005C2179E70C497BE75C210B480EF00EFD5A
:10F9400008B15C2198E708499AE75C2106480EF067
:10F9500005FD08B15C21CBE70349CDE7241A00205F
:10F96000CD7A0200201A00208CE4020000B0004092
:10F97000ECE30200CC1A0020E1F2010030E40200C6
:10F98000B41F0020D41F0020D81A002055E4020024
:10F9900048DF704710DF704760DF704761DF7047F6
:10F9A0004FF0A0434FF4F012C3F80825C3F80C251C
:10F9B000EFF3108372B60028FDD1704713B5144BD6
:10F9C0001B685B04044613D52F2112480EF0C6FCB9
:10F9D000A0B12F210F480EF0C1FC411C0E4B0F4A65
:10F9E000D3F80435009201944E22002008F09EF8CE
:10F9F000204602B0BDE81040FFF7D2BF5C210548A9
:10FA00000EF0ACFC08B15C21E4E70249E6E700BF78
:10FA1000241A0020E2E5020000B00040FDE50200EB
:10FA20007FB5174B1B685B0405460C46164618D578
:10FA3000144B1B68ABB12F2113480EF08FFCB0B1F3
:10FA40002F2111480EF08AFC411C104B104AD3F8AC
:10FA5000043500920396029401957022012008F06B
:10FA600065F8204604B0BDE87040FFF799BF5C21FF
:10FA700005480EF073FC08B15C21E2E70249E4E7B7
:10FA8000241A0020201A0020E2E5020000B0004005
:10FA9000C2E602007FB5174B1B685B0406460D46A5
:10FAA000144618D5144B1B68ABB12F2113480EF028
:10FAB00055FCB0B12F2111480EF050FC411C104BE9
:10FAC000104AD3F804350092039602950194482217
:10FAD000012008F02BF8012004B0BDE87040FFF7CA
:10FAE0005FBF5C2105480EF039FC08B15C21E2E7FC
:10FAF0000249E4E7241A0020201A0020E2E502006F
:10FB000000B00040C5E5020007B5134B1B685B045D
:10FB100012D52F2111480EF021FC98B12F210F484A
:10FB20000EF01CFC411C0E4B0E4AD3F8043500921B
:10FB30000020542207F0FAFF012003B05DF804EB27
:10FB4000FFF72EBF5C2105480EF008FC08B15C21D0
:10FB5000E5E70249E7E700BF241A0020E2E50200DA
:10FB600000B00040B7E5020073B501A8FFF710FF31
:10FB700060B102AD4F2325F8063D094E1C462946CB
:10FB80000748FFF70BFF28B102B070BD019806F0DF
:10FB90008DFAEAE7304606F087FAADF80240EEE764
:10FBA0001420002030B5414C2368590485B0054627
:10FBB00017D53F4B1B68032B13D92F213D480EF05F
:10FBC000CDFB002856D02F213A480EF0C7FB411C30
:10FBD000394B3A4AD3F80435009204207A2207F0D0
:10FBE000A5FF374B0293029B039323685A0419D550
:10FBF0002F4B1B68032B15D92F212E480EF0AEFB7F
:10FC0000002840D02F212B480EF0A8FB411C2A4B86
:10FC1000D3F80435029A01922A4A009204208322E2
:10FC200007F084FF284603A9FFF7B6FE029B039A5C
:10FC30009A4205461BD023685B0418D51C4B1B68F1
:10FC4000012B14D92F211B480EF088FB20B32F2144
:10FC500018480EF083FB411C174B039AD3F8043568
:10FC60000192194A009202208C2207F05FFF284679
:10FC700005B030BD5C210F480EF070FB08B15C216F
:10FC8000A2E70C49A4E75C210A480EF067FB08B123
:10FC90005C21B8E70749BAE75C2106480EF05EFB35
:10FCA00008B15C21D4E70349D6E700BF241A00203D
:10FCB000201A0020E2E5020000B000405DE60200EC
:10FCC000C019002079E6020089E6020000B58BB079
:10FCD0000AAB1A4943F8240D1846FFF75BFE18B12A
:10FCE000174A9321FFF7D6FE164A92F81633C3F34C
:10FCF0004113012B1BD9144B9968A1B11A6842F426
:10FD000080021A601C22002103A80EF053FA03A8F7
:10FD1000FFF748FF18B10A4A9A21FFF7BBFE0020FF
:10FD20000BB05DF804FB4FF480031360EAE7044A6C
:10FD3000942142F20200FFF7ADFEE3E721FA010051
:10FD4000E2E5020000E100E0004B002010B54B4C62
:10FD50002368590486B017D5494B1B68032B13D968
:10FD60002F2148480EF0FAFA00286CD02F21454880
:10FD70000EF0F4FA411C444B444AD3F80435009287
:10FD80000420B52207F0D2FE01238DF808300023AD
:10FD90008DF809308DF80A3007238DF80B30029862
:10FDA000FFF794FF23685A0417D5354B1B68032BC4
:10FDB00013D92F2133480EF0D1FA00284CD02F212F
:10FDC00030480EF0CBFA411C2F4B314AD3F80435A2
:10FDD00000920420BF2207F0A9FE0023039305939D
:10FDE00001238DF80C3007238DF80F3003A8294B21
:10FDF000049305F0F5FF18B1224AC421FFF74AFE2B
:10FE000023685B0416D51E4B1B68032B12D92F21C8
:10FE10001C480EF0A3FA40B32F211A480EF09EFAA8
:10FE2000411C194B1C4AD3F8043500920420C62209
:10FE300007F07CFE06F032F818B1124AC721FFF72E
:10FE400029FE06B010BD5C210E480EF087FA08B1FD
:10FE50005C218CE70B498EE75C210A480EF07EFAA4
:10FE600008B15C21ACE70749AEE75C2105480EF01C
:10FE700075FA08B15C21D0E70249D2E7241A0020C4
:10FE8000201A0020E2E5020000B0004016E6020061
:10FE90002FE60200BDF9010048E602000620704787
:10FEA00000B58DB00B238DF8043000F50873049372
:10FEB00000F5307302900393D0F8D2320593B0F876
:10FEC000D032ADF81830B0F8D63290F8D822ADF86C
:10FED0001A309DF81C3062F30003C2F3400262F353
:10FEE000410301A88DF81C3005F00EFC0DB05DF843
:10FEF00004FB30B590F8B332132B8DB004460D4699
:10FF000002D109B9FFF7CCFF002384F8B33201A86E
:10FF100005238DF8043002948DF80C5005F0F4FBA5
:10FF20000DB030BD00B503238DB080F8B33204238B
:10FF300002900DEB03008DF8043005F0E5FB0DB0E9
:10FF40005DF804FB10B504468CB00D2284F8B212A3
:10FF50008DF8042002908DF80C1000F06FFB38B97A
:10FF600001A805F0D1FB162384F8B3320CB010BD04
:10FF70000221204600F000FBF2E730B590F8B432E1
:10FF80008DB00446032B3CD8DFE803F0312B170279
:10FF900007238DF8043090F8AE328DF80D3090F8CC
:10FFA000AF328DF80C3002900C2384F8B33201A8E4
:10FFB00005F0AAFB00200DB030BD00F26D252946EA
:10FFC00000F02CFD06238DF8043094F8AE328DF845
:10FFD0000D3094F8AF328DF80C3002940495102354
:10FFE000E3E708238DF8043002900D23DDE71022AB
:10FFF000002100F26D200EF0DDF8102384F8B332FA
:020000022000DC
:10000000D8E70320D7E710B58CB0044600F02AFCEF
:1000100088B10C238DF80430D4F8BC31049304F576
:10002000E07303930B2384F8B33201A8029405F024
:100030006BFB0CB010BD04F50071204600F0D2FC43
:1000400048B92046FFF799FF0028F2D00521204645
:10005000FFF778FFEDE70221F9E7000070B50D46E4
:1000600096B004461146284600F04EFA20B9012108
:100070002046FFF767FF86E02B78092B00F23581D9
:10008000DFE813F00A0033014A006B0033018300FC
:10009000AE00CF003301270194F8B332032B72D1A5
:1000A00004F29D230122A91818461D460EF077F888
:1000B000B4F8B62201238DF82C3094F8B5328DF8BF
:1000C0002D30130A43EA0223ADF82E3094F8B832EB
:1000D000B4F8BB228DF8303094F8B9328DF8313055
:1000E00094F8BA328DF83230130A43EA0223B4F896
:1000F000BE22ADF8333094F8BD328DF83530130A96
:1001000043EA02230BA92A462046ADF8363000F018
:1001100037FAC0B30521ABE794F8B332062B32D1DE
:100120000522691C04F2A9200EF039F8AB7893B9C6
:1001300084F8B032EB7884F8B432EB78012B14BF3A
:100140006B79102384F8AE322B7984F8AF3209230F
:1001500084F8B33217E00123EAE794F8B332092BAD
:1001600011D14022691C04F5E0700EF018F894F8E3
:10017000B0322BB9D4F8B811204600F010FAC8E715
:100180002046FFF740FF16B070BD94F8B322102A46
:100190001CD1691C04F28D200EF001F804F27D21BF
:1001A000204604F24D230BAA00F062FB0BA9204667
:1001B00000F013FA0028E6D00428ABD078464F4B65
:1001C0001B680BB19847A5E700DEA3E70D2ADAD13B
:1001D0001022691C04F28D200DF0E1FF0E23B7E719
:1001E00094F8B332122BCED11022691C04F25D2098
:1001F0000DF0D5FF204600F05FFC08B9042137E779
:1002000004F24D21204600F0FBF9002882D104F5CC
:10021000087304F5107204F50C71204600F08AFB97
:10022000B1E794F8B332132BADD104F50C730B93F3
:1002300004F510730C936B1C0D9316A91923ADF8DC
:1002400038300023082201F8513D0DF109061A3516
:100250000BA80F93ADF84030119612958DF84C20F5
:1002600006F086FE9DF80730002B44D01022314660
:1002700004F530700DF093FF079BBDF819209DF831
:100280001B101BBAC4F8D232BDF82030180A40EA5D
:100290000320130A43EA022394F8D822C1F340054D
:1002A0009BB265F3000280B261F34102B3F5805F57
:1002B000A4F8D602A4F8D03284F8D82201D30221BF
:1002C000D6E605F083FD0128F9D1204600F0ABF910
:1002D0001FE70D238DF82C300BA86B788DF8343088
:1002E0000C9405F011FA162332E794F8B332162B6A
:1002F0007FF4BDAE47E70621BAE600BF0C4B0020F5
:1003000013B590F8B332033B0446132B1FD8DFE834
:1003100003F00A1E1E0D1E1E0F1E1E141E161E1694
:100320001E181A1E1E0D062384F8B33202B010BD2B
:1003300002B0BDE81040FFF766BE1023F4E71223B9
:10034000F2E71323F0E7FFF7ABFD1523ECE7144BBF
:100350001B681B07EAD5134B1B68002BE6D02F2127
:1003600011480DF0FBFF90B12F210F480DF0F6FF63
:10037000411C0E4B94F8B322D3F8043501920C4A79
:100380000092012040F2E11207F0D0FBCEE75C21A1
:1003900005480DF0E3FF08B15C21E6E70249E8E714
:1003A000241A0020201A0020F0E6020000B00040CD
:1003B00014E7020070B51E4690F8B33204461546A5
:1003C0008BB9022380F8B332012380F8B132074A97
:1003D000074B00F0A7F838B9324629462046BDE859
:1003E000704000F0B5B8082070BD00BFE0E6020024
:1003F000008793037FB590F8B3320C3B022B044681
:100400000E4630D8102A30D890F8AE5295422CD1F2
:1004100005F26D20C5F11002002120440DF0CAFE46
:100420002A46314604F26D200DF0B9FE94F8B3323D
:100430000C2B04D1204600F0C5F804B070BD0E2B83
:100440000CD104F27D21204604F24D236A4600F0CF
:100450000FFA6946204600F0C0F8EEE7102384F852
:10046000B3320020E9E70820E7E70920E5E710B507
:1004700090F8B3425CB9C0F8B811C0F8BC21194675
:100480000B2200F2B5200DF08AFE204610BD082098
:1004900010BD00F03FBA70B5044615461E4651B96E
:1004A00000F094FF014630B133462A462046BDE8AD
:1004B0007040FFF77FBF062070BD90F8B1320BB9D6
:1004C000FFF7ECBCFFF796BF70B5044616460D4625
:1004D00021B978460B4B1B687BB1984724B9784605
:1004E000084B1B685BB19847D4F8B03132462946B7
:1004F00020461B68BDE87040184700DEEEE700DECE
:10050000F2E700BF0C4B002048B10378092B05D857
:10051000034AD05C431A5842584170470020704744
:1005200043E7020010B560B159B152B1074CA34284
:1005300009D9C0F8B431C0F8AC21C0F8B01100201E
:1005400010BD0E2010BD072010BD00BFFF86930315
:1005500010B4D0F8B041D0F8B4316468A4465DF866
:10056000044B604710B4D0F8B021D468D0F8B4215F
:1005700023465DF8044B1847D0F8B0311B69184783
:1005800038B505460C46501C01310B220DF007FE14
:10059000214628460C22BDE83840FFF795BF30B50C
:1005A00093B012AC032304F8443D054640220DF1FC
:1005B00005000DF0F4FD412221462846FFF784FF97
:1005C00013B030BD07B502A9042301F8043D012290
:1005D000FFF77AFF03B05DF804FB30B587B006ACD7
:1005E000052304F8143D054610220DEB03000DF021
:1005F000D6FD112221462846FFF766FF07B030BD21
:1006000030B587B006AC062304F8143D0546102229
:100610000DF105000DF0C3FD112221462846FFF71C
:1006200053FF07B030BD07B502A9082301F8043D08
:100630000122FFF749FF03B05DF804FB07B509236A
:100640008DF80510022201A98DF80430FFF73CFF58
:1006500003B05DF804FBFFF737BFD0F8AC319B68FF
:100660001847D0F8AC31DB681847000073B5194B58
:100670001B681B0704460D46164618D5164B1B680B
:10068000032B14D92F2115480DF068FEC8B12F2176
:1006900012480DF063FE411C114B2A78D3F8043543
:1006A0000192104A00920420DF2207F03FFAD4F8AA
:1006B000AC311B6832462946204602B0BDE8704086
:1006C00018475C2105480DF049FE08B15C21DFE7C1
:1006D0000249E1E7241A0020201A00204DE7020019
:1006E00000B000406DE70200D0F8AC315B681847FD
:1006F00070B506468AB014460D4609B308460DF09B
:1007000025FE6A4681B2284606F090FC042269461E
:100710000DF122000DF043FD162564BAADF820401E
:1007200004F0EEFF102201460DEB02000DF037FD44
:100730002B4604AA0021304608F092F90AB070BD99
:100740001225EAE770B50E468CB01546044628B966
:100750007846264B1B68002B39D0984706F0FB03E0
:10076000122B05D07846214B1B68002B31D09847BF
:1007700025B978461D4B1B686BB398471C4B1B78FB
:100780001BB32C22002101A80DF014FD10222146DC
:1007900002A808950DF003FD2B785A1E53425341D1
:1007A0008DF81830162E4FF003038DF8043014D155
:1007B0000123042204F112010DF11A008DF8193001
:1007C0000DF0EDFC01A804F09FFF0CB070BD00DE41
:1007D000C4E700DECCE700DED0E7002104220DF103
:1007E0001A008DF819100DF0E5FCEBE70C4B00201A
:1007F000C019002073B505460A4E68460C4605F040
:10080000EBFF00232421A34201D302B070BD1DF8E9
:100810000300B0FBF1F201FB1202D2B2B25CEA5467
:100820000133F0E781E7020037B50D4604210446A5
:100830000DEB010005F0D0FF094B019953F825207D
:10084000B1FBF2F302FB131304221BBA0DEB0201FE
:1008500004F10C0001930DF0A2FC03B030BD00BF09
:10086000A8E70200014B1878704700BF6320002002
:100870002DE9F0410446ACB00F46904600F29D21B0
:10088000112207A81E460DF08AFC94F8B13204F537
:10089000E07540229BBBD4F8B8110DF12D000DF08E
:1008A0007EFC402229460DF16D000DF078FC3A46A1
:1008B00007A8912106F0BAFB03AD04233A46009342
:1008C00004F50070124B0195202106F0CBFB304659
:1008D000102105F081FF3146102207A80DF05FFCC2
:1008E00004F26D2110220BA80DF059FC4346202282
:1008F00007A9284606F038FB2CB0BDE8F081294650
:100900000DF12D000DF04BFC4022D4F8B811CAE7D0
:10091000CCE7020038B504460D460DF0EBFA294647
:10092000024620460DF0EAFA012814BF03200020F9
:1009300038BD00002DE9F043044697B08946904643
:1009400000F27D2110220AA81F460DF028FC94F821
:10095000B13204F24D2504F25D261022002B33D172
:1009600029460EA80DF01BFC1022314612A80DF0EE
:1009700016FC04F50074042502AA0AA8302106F02A
:1009800055FB02AA2046CDF804900095124B202179
:1009900006F068FB06AB019302AA104B00952046B7
:1009A000202106F05FFB0DF11B010D2240460DF0EA
:1009B000F6FB8DE8A0000A4B02AA2021204606F093
:1009C00051FB17B0BDE8F08331460EA80DF0E7FBF0
:1009D00010222946CAE700BFD1E70200D6E702008D
:1009E000DBE7020070B50E4600F5E07405460DF039
:1009F00081FA014620460DF062FB08B9032070BD64
:100A0000D5F8BC510DF076FA324603462946204609
:100A10000DF0B4FA0028F1D0002070BD37B590F881
:100A2000AE32013B072B04460D4604D97846214BD4
:100A30001B686BB198471022002128460DF0BAFBC5
:100A400094F8B432022B05D0032B0DD003B030BD87
:100A500000DEF0E794F8AF32013B042BF6D8DFE874
:100A600003F00C0C0C1C220094F8AF32013B032B5A
:100A7000ECD8DFE803F00202121894F8AE4201212C
:100A80000DF1070005F0A8FE9DF80710631C91FB0F
:100A9000F3F203FB1213EB73D8E794F8AE12284677
:100AA000FFF7C2FED2E794F8AE122846FFF7A2FE87
:100AB000CCE700BF0C4B002030B593B002AD04234F
:100AC0000446009300F27D22114B0195202100F590
:100AD000007006F0C7FA04F25D2110220AA80DF09A
:100AE0005EFB04F26D2110220EA80DF058FB06AB40
:100AF0000AA92846202206F037FA102204F28D2196
:100B000006A80DF03DFBB0FA80F0400913B030BDEF
:100B1000CCE70200F8B5154D2B68064623B9784698
:100B2000134B1B6883B19847EFF3108772B62C689C
:100B3000B4420BD00E4DD4F8A8319E420CD1D6F859
:100B4000A831C4F8A83104E000DEEDE7D6F8A831FA
:100B50002B6007B962B6F8BD1BB978462B681BB18C
:100B60009847D4F8A841E6E700DEFAE764200020C1
:100B70000C4B002010B5044620B978460A4B1B6880
:100B800073B1984794F89930012B0BD12046FFF7A9
:100B9000C1FF204608F0A4FC002084F8990010BD95
:100BA00000DEEFE7082010BD0C4B002038B590F8B0
:100BB0009930023B022B04460D4604D97846144B6B
:100BC0001B6803B398472046FFF7A4FF94F89830BA
:100BD000012B04D078460E4B1B68B3B198472046D2
:100BE00008F07EFC002304F1B80084F8983084F803
:100BF000D83084F8993005F0DDFB29462046BDE861
:100C00003840FFF72EBD00DEDDE700DEE7E700BF7E
:100C10000C4B00202DE9F0418846911C06461546F4
:100C20001F4608F08DFB044620B36B1C4374292338
:100C300083742A46414613300DF0B1FA2771EFF361
:100C4000108772B6D6F8A05101356B1CC6F8A051BA
:100C500004D17846094B1B6853B1984707B962B66F
:100C600030462560214608F0B5FB0020BDE8F08144
:100C700000DEF3E70420BDE8F08100BF0C4B00204C
:100C80002DE9F04190F8D830022B88B0044605D009
:100C90007846504B1B68002B5ED0984794F8DB30A9
:100CA000002B48D194F89930032B05D07846494B56
:100CB0001B68002B52D0984794F8D830022B05D0EF
:100CC0007846444B1B68002B4AD09847D4F89420B0
:100CD00094F8D93012BA009294F89B208DF8042031
:100CE0009DF8052002F0FC02142B03F102014FF0E5
:100CF0001700B1FBF0F161F387021D468DF8052066
:100D000028BF142594F8DA208DF808201B022A4603
:100D100004F1DC010DF10900ADF806300DF03FFAE9
:100D2000012305F1090269462046FFF773FF80B9E8
:100D3000012384F8DB3094F8DB501726022794F85F
:100D4000D98008F10203B3FBF6F30133DBB29D4215
:100D500008D308B0BDE8F08100DE9FE700DEABE716
:100D600000DEB3E76B1E03EB4301C3EBC101D4F814
:100D70009430143189B21BBAA8EB0108009394F89F
:100D80009B308DF804301FFA88F89DF80530B8F1D3
:100D9000170F28BF4FF0170867F30103DC3165F325
:100DA0008703424621440DF106008DF805300DF011
:100DB000F6F9012308F1060269462046FFF72AFFEB
:100DC0000028C6D194F8DB30013384F8DB300135DC
:100DD000B5E700BF0C4B002000B5D0F8943089B0C7
:100DE0001BBA009300238DF804309DF805308DF870
:100DF0000610022243F0030362F387038DF80530E7
:100E0000072204236946FFF705FF09B05DF804FBDC
:100E100038B50D46044620B97846184B1B68FBB11F
:100E20009847022D04D97846144B1B68D3B19847D4
:100E300094F8993013F0FB0F1ED0023B012B04D91C
:100E400078460E4B1B687BB1984729462046FFF732
:100E5000C3FF58B9042384F8993084F89C5038BDF6
:100E600000DEDEE700DEE3E700DEEEE729462046AF
:100E7000BDE83840FFF79ABE38BD00BF0C4B0020DC
:100E800000B5D0F8943089B01BBA00938DF80410E7
:100E90000123062269468DF80530FFF7BBFE09B035
:100EA0005DF804FB00B589B0D0F894309DF80520BA
:100EB0001BBA009300238DF8043042F00302012393
:100EC00063F387028DF8052069460622FFF7A2FE2C
:100ED00009B05DF804FB08460121FFF74DBB10B5D2
:100EE000044605F023FBD4F8D410014404F1B80003
:100EF000BDE8104005F090BAD0F8A0318B4206D181
:100F0000012380F8A431024B186805F09DBF70479B
:100F1000C419002037B591F89930032B05460C46CB
:100F20004ED191F8D830022B4AD1D1F8D0301B1ACB
:100F3000002B14DA01212046FFF74EFF48B90423A5
:100F400084F89930012384F89C30C4F8AC0003B0D5
:100F500030BD1D4BC4F8AC30C4F8D050F7E71B4B84
:100F60001B681B071AD51A4B1B68042B16D92F2197
:100F700018480DF0F3F9D0B12F2116480DF0EEF915
:100F8000411C154B94F8DC20D3F804350192134A28
:100F90000092052040F2953206F0C8FD002320465D
:100FA00084F8DB3003B0BDE83040FFF769BE5C2158
:100FB00008480DF0D3F908B15C21DEE70549E0E708
:100FC0000023C4F8AC30C2E740420F00241A0020CE
:100FD000201A00208EEB020000B00040B1EB0200AE
:100FE00013B50446EFF3108372B6174A1168C0F8C0
:100FF000A811106003B962B6144B1B681B0718D503
:10100000134B1B68032B14D92F2112480DF0A6F99E
:1010100088B12F210F480DF0A1F9411C0E4B0F4A4A
:10102000D3F80435009201944FF4B572042006F011
:101030007DFD02B010BD5C2106480DF08FF908B1AE
:101040005C21E7E70349E9E764200020241A002037
:10105000201A00208EEB020000B00040E0E7020002
:10106000F0B50E4689B01746044628B97846344B89
:101070001B68002B60D0984794F89830012B03D15F
:1010800094F89930002B59D1012384F898302D4BD6
:10109000C4F8A83000252C4B84F8D85004F5907281
:1010A00084F89B5084F89A5084F89950C4F8A05161
:1010B000C4F8C030C4F8C45080232449C4F8B040F8
:1010C0002046C4F8D470C4F8C84008F035FA0421AA
:1010D00004F1940005F080FB802384F89A30D4F862
:1010E000943084F89B501BBA00939DF805308DF81E
:1010F000045043F0030365F38703102231460DF1DA
:1011000006008DF805300DF04AF8042316226946D2
:101110002046FFF77FFD054658B92046FFF7DFFE62
:10112000204608F0F7F82046FFF75AFF022384F81C
:101130009930284609B0F0BD00DE9DE70825F8E7A4
:101140000C4B0020150F0200D70E0200F90E020012
:1011500038B5124B1C68002504B938BD94F8A43189
:1011600093B194F8993084F8A451042B94F8D830B2
:101170000DD1022B03D104F1A00005F01BF994F866
:101180009C102046FFF712FDD4F8A841E4E7022B9B
:10119000FAD12046FFF774FDF6E700BF6420002077
:1011A0002DE9F0410E4617469846044628B9784680
:1011B000314B1A68002A58D0904794F89830012B88
:1011C00003D194F89930002B53D1012384F898303F
:1011D0002A4BC4F8A8300025294B84F8D85084F84D
:1011E0009B5084F89A5084F89950C4F8A051C4F8E0
:1011F000C030C4F8C450802304F590722149C4F86B
:10120000B0402046C4F8D480C4F8C84008F094F92F
:101210008023C4F8945084F89A5084F89B303A465E
:1012200031462046FFF764FA054620B97846124B4E
:101230001B68E3B19847FF232B714FF0FF332B60FE
:1012400020464FF4FA6108F017F92946204608F0C5
:10125000C1F8204608F05EF82046FFF7C1FE0123E2
:1012600084F899300020BDE8F08100DEA5E700DEBB
:10127000E1E70820BDE8F0810C4B0020150F0200CB
:10128000D70E0200F90E020030B5074D0246FF23CB
:10129000141AA14202DCD843C0B230BD12F8014B8F
:1012A0006340EB5CF4E700BF0CE802002DE9F0417D
:1012B00090F89930032B04460E4617463FD1412A39
:1012C00040D890F8D850002D3FD1FFF708FE05F028
:1012D0002DF9B91C1723B1FBF3F10131CBB2A16E8B
:1012E000594301F5F4111A4BC4F8A83001F5906187
:1012F0008046C4F8AC10014404F1A00005F08CF85D
:10130000144BC4F8B0404344C4F8D030022384F8EE
:10131000D830394684F8DB5084F8D9703046FFF76E
:10132000B3FF3A4684F8DA00314604F1DC000CF0F1
:1013300036FF2046FFF7A4FC2846BDE8F0810820D0
:10134000BDE8F0810920BDE8F0811120BDE8F08101
:10135000150F020080C3C9012DE9F0410B78012B64
:1013600092B005460C46164604D07846164B1B68CC
:101370002BB3984704F1040861784046FFF784FFD7
:10138000A37883421DD195F89A102846002701368C
:10139000FFF776FDE77085F89A6066784146324639
:1013A00001A80CF0FCFE28462770FFF798FD324696
:1013B00001A92846FFF75AF912B0BDE8F08100DE16
:1013C000D8E700232370F7E70C4B002010B5054C3D
:1013D0002368013303D1044805F00EFD2060034863
:1013E00010BD00BFC4190020511102000CE9020019
:1013F0002DE9FF4188461446054620B97846A34B9F
:101400001B6833B3984724B97846A04B1B6813B3C5
:1014100098472B681A0E190242EA036201F47F0111
:101420001B0A0A4303F47F431343EFF3108172B6A0
:10143000974E34688CB901B962B6687900F003033D
:10144000032B00F2F180DFE813F00F003501AA0151
:10145000350200DED7E700DEDBE7D4F894209342C4
:10146000E9D0D4F8A841E5E7002C00F0DD8094F83D
:101470009930032B40F0D88094F8D830002B62D1FB
:101480002A7994F89A309A4231D3EB881B0A84F86F
:10149000D93017220233B3FBF2F30133DBB2072B4F
:1014A00006D90221204604B0BDE8F041FFF7B0BCE8
:1014B0002B7A84F8DA30A8F10908012384F8D830AF
:1014C00084F8DB30424605F1090104F1DC000CF040
:1014D00066FE94F8D930984540F0A6802A7904F148
:1014E000D801204604B0BDE8F041FFF735BF694B95
:1014F0001B681A0717D5684B1B68042B13D92F21BB
:1015000066480CF02BFFA8B12F2164480CF026FF91
:10151000411C634B634AD3F80435009240F2A32286
:10152000052006F003FB2979204604B0BDE8F04110
:10153000FFF7A6BC5C2159480CF010FF08B15C21F4
:10154000E3E75649E5E7022B524B79D1297994F824
:101550009A201B68914220D21B07E4D54E4B1B6892
:10156000042BE0D92F214D480CF0F8FE60B12F215B
:101570004A480CF0F3FE411C494B4A4AD3F8043563
:10158000009240F2AF22CBE75C2144480CF0E6FE2B
:1015900008B15C21ECE74149EEE726D91F0743D5A6
:1015A0003D4B1B68012B3FD92F213C480CF0D6FE48
:1015B00090B12F2139480CF0D1FE411C384B94F8E2
:1015C0009A20D3F8043502922A790192364A009281
:1015D0004FF42D72022025E05C2130480CF0BEFE55
:1015E00008B15C21E6E72D49E8E71E071CD52A4B28
:1015F0001B68042B18D92F2128480CF0AFFEB0B17E
:101600002F2126480CF0AAFE411C254B94F89A2065
:10161000D3F8043502922A790192244A00920520D7
:101620004FF42E7206F082FA04B0BDE8F0815C211E
:101630001A480CF093FE08B15C21E2E71749E4E791
:101640001B681C07F0D5144B1B68012BECD92F210C
:1016500012480CF083FE78B12F2110480CF07EFE6A
:10166000411C0F4B124AD3F80435009240F2BD22C0
:10167000022006F05BFAD7E75C2108480CF06EFE0A
:1016800008B15C21E9E70549EBE700BF0C4B0020FE
:1016900064200020241A0020201A00208EEB020073
:1016A00000B0004020E9020070E90200BAE902003F
:1016B000F3E90200002CB7D094F89930032BB3D192
:1016C00094F8D830022BAE4B45D1297994F89B2061
:1016D000914240D11B6818071AD5AA4B1B68032BEF
:1016E00016D92F21A8480CF039FE58B32F21A6484F
:1016F0000CF034FE411CA54B94F8DC20D3F80435E3
:101700000192A34A009204204FF43E7206F00EFAB2
:10171000002504F1A000C4F8AC5004F04BFE2046B4
:1017200007F0DEFE94F89B3084F8D8500133204651
:1017300084F89B30FFF7D3FB204604B0BDE8F041AE
:10174000FEF7D2BF5C2190480CF008FE08B15C2186
:10175000CDE78D49CFE71B6819077FF565AF894B4A
:101760001B68012B7FF660AF2F2187480CF0F6FD38
:1017700060B12F2184480CF0F1FD411C834B854A58
:10178000D3F80435009240F20A3271E75C217E48BA
:101790000CF0E4FD08B15C21ECE77B49EEE7002C9E
:1017A0003FF442AF94F89930032B7FF43DAF94F8A7
:1017B000D860297994F89A30012E4CD1994225D1DC
:1017C00094F8DB3080080341DA073FF52DAF172787
:1017D000013807FB0040A8F10602A91DF0300CF00B
:1017E000DEFC6B7994F8DB209B0806FA03F31343C5
:1017F00094F8D9200232B2FBF7F70137DBB2FFB21F
:1018000084F8DB30BE400133B34265E65C4B1B68B5
:101810001B077FF509AF5B4B1B68012B7FF604AFFD
:101820002F2159480CF09AFD60B12F2156480CF039
:1018300095FD411C554B584AD3F80435009240F2AF
:10184000E22215E75C2150480CF088FD08B15C21CC
:10185000ECE74D49EEE79942FFF466AE7FF6E4AE61
:10186000474B1B681F077FF5DFAE464B1B68012BFC
:101870007FF6DAAE2F2144480CF070FD88B12F219D
:1018800041480CF06BFD411C404B94F89A20D3F872
:10189000043502922A790192404A009240F2EE22E7
:1018A00098E65C2138480CF059FD08B15C21E7E767
:1018B0003549E9E78008012874D023D3022800F0D5
:1018C000D2802F4B1B681B077FF5AEAE2D4B1B68DC
:1018D000012B7FF6A9AE2F212B480CF03FFD0028ED
:1018E00000F026812F2128480CF038FD411C6A7930
:1018F000264B9208D3F804350192294A00924FF4FE
:101900005B72A3E0B8F1160F7FF48EAE03F0F8FE21
:1019100010220146A81D0CF033FC00287FF484AE91
:10192000002C40F01381EFF3108372B634681CB9B9
:10193000002B00F0078177E694F89920012A00F047
:101940000081D4F8A841F2E75C210F480CF006FDB5
:1019500008B15C2127E10C4929E10023C4F8943047
:1019600062E6032B7FF460AE94F8D830002B7FF44E
:101970005BAE204604B0BDE8F041FFF793BA00BF6C
:10198000241A0020201A00208EEB020000B0004034
:1019900025EA020040EA020060EA020091EA020041
:1019A00067EB0200002C3FF43FAEB8F1060F7FF466
:1019B0003BAE94F89930894D022B2AD1204607F08E
:1019C0008FFD1421204607F057FD2B681D0740F1BD
:1019D000F880834B1B68032B40F2F3802F21814852
:1019E0000CF0BCFC60B12F217E480CF0B7FC411C10
:1019F0007D4B7E4AD3F8043500924FF45272DDE0FD
:101A00005C2178480CF0AAFC08B15C21ECE7754930
:101A1000EEE72B6818077FF507AE714B1B68012BAB
:101A20007FF602AE2F216F480CF098FC90B12F2169
:101A30006C480CF093FC411C6B4B94F89920D3F844
:101A4000043501926A4A00924FF45472022006F063
:101A50006DF8E9E55C2163480CF080FC08B15C217D
:101A6000E6E76049E8E7002C3FF4DEADB8F1070F88
:101A70007FF4DAAD94F89930584E023B012B30D800
:101A800094F8D830022B03D104F1A00004F092FCAA
:101A9000A9792046FFF78AF8336819077FF5C4ADA6
:101AA0004F4B1B68032B7FF6BFAD2F214D480CF029
:101AB00055FC68B12F214B480CF050FC411C4A4B9F
:101AC0004C4AD3F804350092042040F26232D0E54B
:101AD0005C2144480CF042FC08B15C21EBE7414931
:101AE000EDE733681A077FF59FAD3D4B1B68012B6F
:101AF0007FF69AAD2F213B480CF030FC78B12F21B6
:101B000038480CF02BFC411C374B94F89920D3F843
:101B100004350192384A009240F2673296E75C2120
:101B200030480CF01BFC08B15C21E9E72D49EBE7DC
:101B30005C212C480CF012FC08B15C21D3E6294949
:101B4000D5E61BB962B6002C3FF46EAD94F899301F
:101B5000012B7FF406AF2B681A0E190242EA0362CA
:101B600001F47F011B0A0A4303F47F431343204619
:101B7000C4F89430142107F07FFC2046FFF792F957
:101B800000287FF4EAAE154B1B681E0719D5144BCD
:101B90001B68032B15D92F2112480CF0DFFB0028FE
:101BA0003FF4D2AE2F210F480CF0D8FB411C0E4B56
:101BB0000E4AD3F80435009240F22B32042005F08F
:101BC000B5FF0323204684F89930FFF788F92046B3
:101BD00004B0BDE8F041FEF740BD00BF241A00206C
:101BE000201A00208EEB020000B00040D7EA02006D
:101BF000EDEA02001EEB020034EB020030B50446B1
:101C000080784B68082885B05D683CD1B4F8CC2159
:101C100048F260039A420BD12B78032B0AD8DFE8F5
:101C200003F05C02025C201D0221FEF7A5FC0220ED
:101C300005B030BD2A4B1B689A0419D5294B1B6887
:101C4000042B15D92F2128480CF088FB90B12F21A7
:101C500025480CF083FB411C244B2A78D3F804352B
:101C60000192234A009205204FF46B7205F05EFF4B
:101C7000A078DDE75C211C480CF070FB08B15C210A
:101C8000E6E71949E8E7164B1B689B04F0D5154BAE
:101C90001B68032BECD92F2113480CF05FFB98B184
:101CA0002F2111480CF05AFB411C104BA278D3F89D
:101CB000043502922A7801920E4A0092042040F2E2
:101CC000B63205F033FFD3E75C2107480CF046FB42
:101CD00008B15C21E5E70449E7E70620A8E700BF73
:101CE000241A0020201A002057EE020000B0004005
:101CF00082EE02009BEE020037B5044680784B6806
:101D000005285D6854D0082840F0A680B4F8CC219E
:101D100048F263039A4240F0BE802B78052B634B58
:101D20001B6824D19C0417D5614B1B68042B13D965
:101D30002F2160480CF012FB80B12F215D480CF080
:101D40000DFB411C5C4B5D4AD3F8043500924FF407
:101D50003172052005F0EAFE02209CE05C21554826
:101D60000CF0FCFA08B15C21E8E75249EAE7980474
:101D7000F2D54F4B1B68042BEED92F214D480CF0A8
:101D8000EDFA60B12F214B480CF0E8FA411C4A4BA8
:101D90004B4AD3F80435009240F2C922D9E75C21BE
:101DA00044480CF0DBFA08B15C21ECE74149EEE76E
:101DB0002B78052B3D4B1B6824D1990417D53C4B40
:101DC0001B68042B13D92F213A480CF0C7FA80B1B5
:101DD0002F2138480CF0C2FA411C374B394AD3F84E
:101DE0000435009205204FF4357205F09FFE062061
:101DF00051E05C212F480CF0B1FA08B15C21E8E712
:101E00002C49EAE79A0419D5294B1B68042B15D9EC
:101E10002F2128480CF0A2FAA8B12F2125480CF058
:101E20009DFA411C244B2A78D3F804350192264AA6
:101E30000092052040F2D92205F078FE0221201DF3
:101E4000FEF79AFBD3E75C211A480CF087FA08B139
:101E50005C21E3E71749E5E7144B1B689B0419D5A0
:101E6000134B1B68012B15D92F2112480CF076FA61
:101E700098B12F210F480CF071FA411C0E4BA2783B
:101E8000D3F804350192114A009202204FF43872BF
:101E900005F04CFEA07803B030BD5C2105480CF085
:101EA0005DFA08B15C21E5E70249E7E7241A002062
:101EB000201A002057EE020000B0004031ED020071
:101EC00049ED020065ED02007CED02009AED020092
:101ED00030B504468078082885B00D4608D1B4F89E
:101EE000CC2148F26D039A4200D1E07805B030BDB4
:101EF000154B1B689B041BD5144B1B68032B17D970
:101F00002F2113480CF02AFAA0B12F2110480CF011
:101F100025FA411C0F4BA278D3F8043502922A7897
:101F200001920D4A0092042040F2E31205F0FEFDFA
:101F3000A078DBE75C2106480CF010FA08B15C21C0
:101F4000E4E70349E6E700BF241A0020201A002036
:101F500057EE020000B000402BEE02001FB5837860
:101F60008B42044621D0C370154B81701B689B04C3
:101F70001BD5144B1B68042B17D92F2112480CF0CA
:101F8000EDF9A0B12F2110480CF0E8F9411C0F4BDE
:101F9000A278D3F804350292E27801920C4A0092BA
:101FA000052040F2071205F0C1FD04B010BD5C2110
:101FB00005480CF0D3F908B15C21E4E70249E6E7F3
:101FC000241A0020201A002057EE020000B0004022
:101FD000F6EB02002DE9F043744D2B7895B00446E2
:101FE000002B40F09580012371482B7003F05CFCBE
:101FF000704FDFF8C881DFF8C891064602A938465D
:1020000003F026FC9DF80830002800F08480092B9E
:1020100043D0002E41D0664803F046FC86423CD1B6
:1020200002A9634803F014FC30B17846624B1B6888
:10203000002B00F0A78098479DF80830092B20D08E
:102040005E4B1B689A041CD55D4B1B68042B18D98A
:102050002F215C480CF082F9002800F095802F2198
:1020600058480CF07BF9411C574B9DF80820D3F8D9
:1020700004350192554A0092052040F2D73205F00E
:1020800055FD9DF80820524B02A953F822302046F6
:10209000984701462046FFF761FF94F8D831002B9E
:1020A00034D09DF80830092B30D00E2B2ED0A378D9
:1020B000022B2BD100238DF80830404B1B689B046A
:1020C0001BD53F4B1B68042B17D92F213D480CF023
:1020D00045F9002861D02F213A480CF03FF9411C06
:1020E000394B9DF80820D3F804350192374A009205
:1020F00005204FF4797205F019FD0021332235488F
:102100000CF058F803212046FFF728FF00232B701E
:1021100015B0BDE8F083092B1ED0D8F80030990423
:102120001AD5D9F80030042B16D92F2125480CF0E8
:1021300015F9F0B12F2123480CF010F9411C224B66
:102140009DF80820D3F804350192204A009205201A
:1021500040F2CB3205F0EAFC9DF808201C4B02A9A6
:1021600053F822302046984701462046FFF7F6FEF6
:1021700044E75C2113480CF0F1F808B15C21DAE780
:102180001049DCE700DE57E75C210E480CF0E6F86A
:1021900008B15C2164E70B4966E75C2109480CF053
:1021A000DDF808B15C2197E7064999E77020002027
:1021B000B4200020582100200C4B0020241A0020BD
:1021C000201A002057EE020000B00040D9EE0200B5
:1021D0005CEC0200FC21002030B5154695B00C46A1
:1021E00021B978463D4B1B6853B1984755B1012D35
:1021F00032D07846394B1B68002B6DD0984720E0D1
:1022000000DEF3E7364B1B689A041AD5354B1B6882
:10221000042B16D92F2134480CF0A0F898B12F21A7
:1022200031480CF09BF8411C304BB4F8C021D3F876
:10223000043501922E4A0092052040F2371205F033
:1022400075FC15B030BD5C2127480CF087F808B14B
:102250005C21E5E72449E7E7214B1B689B041AD57D
:10226000204B1B68012B16D92F211F480CF076F844
:1022700038B32F211C480CF071F8411C1B4BB4F8EB
:10228000C021D3F8043501921A4A009202204FF47B
:102290009E7205F04BFC0021482202A80BF08AFF39
:1022A0000E2302A914488DF8083003F0A9FA20B1D2
:1022B00078460A4B1B686BB198472046FFF78AFEA9
:1022C000BFE75C2108480CF049F808B15C21D1E770
:1022D0000549D3E700DEF0E700DEB2E70C4B002053
:1022E000241A0020201A002057EE020000B00040FF
:1022F000E5EE0200FFEE02005821002030B5114C3F
:1023000022680432824293B00D4616D10021482241
:1023100068460BF04FFF072369460B488DF80030E5
:102320008DF8045003F06CFA20B17846074B1B6817
:102330002BB198472068FFF74DFE13B030BD00DE8B
:10234000F8E700BF30220020582100200C4B00206D
:1023500010B50F4C22680432824292B014D1002191
:10236000482268460BF026FF0523694609488DF888
:10237000003003F045FA20B17846074B1B682BB1BB
:1023800098472068FFF726FE12B010BD00DEF8E780
:1023900030220020582100200C4B002010B50F4C9B
:1023A00022680432824292B014D100214822684649
:1023B0000BF000FF0B23694609488DF8003003F04D
:1023C0001FFA20B17846074B1B682BB1984720684D
:1023D000FFF700FE12B010BD00DEF8E7302200204B
:1023E000582100200C4B002008B58378052B01D024
:1023F000082B08D104300221FEF7BEF8064803F08E
:1024000050FA022008BD7846044B1B680BB1984770
:10241000F7E700DEF5E700BFB42000200C4B0020FA
:1024200070B5144E33681C1D844292B015461CD101
:102430009B78062B01D0082B17D112AC0C2304F883
:10244000483D2A460DF106000BF0A9FE21460A4838
:10245000ADF8045003F0D4F920B17846074B1B685F
:102460002BB198473068FFF7B5FD12B070BD00DEA4
:10247000F8E700BF30220020582100200C4B00203C
:1024800010B50378032B92B016D112AC092304F8CF
:10249000483D011D1C2201A80BF081FE2146084881
:1024A00003F0AEF920B17846064B1B6833B198476C
:1024B000054B1868FFF78EFD12B010BD00DEF7E780
:1024C000582100200C4B0020302200207846034B7E
:1024D0001B6803B1184700DE704700BF0C4B00209B
:1024E00010B5A0F8C0110B4CC0F8C4414FF6FF71F5
:1024F000A0F8C211A0F8C831A0F8CC21A0F8CE11E4
:1025000000F5DE7001F0FAFE18B1BDE81040FFF7EB
:10251000DDBF10BD7120002073B5424E32689204B9
:1025200005460C461AD5404B1B68042B16D92F21A3
:102530003E480BF013FF00283FD02F213B480BF003
:102540000DFF411C3A4BA279D3F804350192394A68
:10255000009205204FF45D7205F0E8FAAB78062B87
:102560003FD0082B55D133689B0419D52E4B1B68DF
:10257000042B15D92F212D480BF0F0FE30B32F215D
:102580002A480BF0EBFE411C294B2278D3F8043586
:102590000192294A009205204FF45E7205F0C6FAB6
:1025A0002146264803F02CF920B17846244B1B68BD
:1025B000ABB19847A87802B070BD5C211B480BF006
:1025C000CDFE08B15C21B9E71849BBE75C2117488B
:1025D0000BF0C4FE08B15C21D2E71449D4E700DE59
:1025E000E8E7A388412B04D97846154B1B6873B1E3
:1025F0009847A2881348A11D0BF0D1FD2846A38857
:1026000048F260021221FFF76BFF0820D3E700DEDB
:10261000EFE778460A4B1B6813B198470220CAE7D8
:1026200000DEFBE7241A0020201A002057EE0200EB
:1026300000B00040D4ED0200EBED0200B420002019
:102640000C4B00207120002013B58378072B044623
:102650000BD11A4B00221A701121012348F260029B
:10266000FFF73EFF082002B010BD154B1B689B040E
:1026700019D5144B1B68012B15D92F2112480BF0CB
:102680006DFE90B12F2110480BF068FE411C0F4BDE
:10269000A278D3F8043501920D4A0092022040F24C
:1026A0006D3205F043FAA078DDE75C2106480BF0B7
:1026B00055FE08B15C21E6E70349E8E771200020F8
:1026C000241A0020201A002057EE020000B000401B
:1026D000BEED020037B58478052C05460ED11C4BA3
:1026E00000221A70FF225A7048F26C01022348F24D
:1026F0006302FFF7F5FE204603B030BD154B1B68A3
:102700009B0419D5144B1B68042B15D92F21134892
:102710000BF024FE90B12F2110480BF01FFE411C3E
:102720000F4BAA78D3F8043501920E4A0092052087
:1027300040F2552205F0FAF9A878DDE75C21074858
:102740000BF00CFE08B15C21E6E70449E8E700BFA6
:1027500071200020241A0020201A002057EE0200C9
:1027600000B00040C5EC020037B58378053B044655
:102770000D46042B5ED8DFE803F00353531E5300CD
:10278000008801F095FD30B1052804D078462B4B28
:102790001B6873B198472A4B01221A702A795A7024
:1027A00048F26C01022348F263022046FFF798FECC
:1027B00029E000DEEFE7234B1B689B0419D5224B71
:1027C0001B68042B15D92F2120480BF0C7FDE0B161
:1027D0002F211E480BF0C2FD411C1D4B2A78D3F857
:1027E000043501921B4A009205204FF4277205F030
:1027F0009DF92946184803F003F820B178460F4B9D
:102800001B685BB19847082015E05C210F480BF06E
:10281000A5FD08B15C21DCE70C49DEE700DEF2E74C
:10282000074B01221A700A7912B902211970B6E712
:102830000321FBE7022003B030BD00BF0C4B00209A
:1028400071200020241A0020201A002057EE0200D8
:1028500000B00040EBED0200B420002008B5008875
:1028600001F0FCFA30F0040303D0BDE80840FFF7A4
:102870002DBE08BD70B50D4649684B6886B01E7800
:1028800048F26303ADF80C304FF6FF73ADF80E302D
:1028900002AB04930223ADF814308378062B044670
:1028A0002FD3072B18D9082B2BD1B0F8CC2148F205
:1028B0006D039A4207D103238DF8083003AAFFF76E
:1028C000CDFFA07819E0008801F0F2FC20B1784635
:1028D000234B1B689BB19847022E314604F104003C
:1028E00028BF0221FDF748FE0523204603AA696898
:1028F0008DF80830FFF7B2FF092006B070BD00DE8A
:10290000EAE7184B1B689B0419D5174B1B68012B72
:1029100015D92F2115480BF021FDB8B12F211348EF
:102920000BF01CFD411C124BA278D3F80435019228
:10293000104A0092022040F27F2205F0F7F80323AC
:102940008DF8083003AA69682046B8E75C2107487B
:102950000BF004FD08B15C21E1E70449E3E700BFA7
:102960000C4B0020241A0020201A002057EE0200F1
:1029700000B00040A8EC020070B586B048F26303D6
:102980000E46ADF80C3049684FF6FF73ADF80E30C7
:1029900002AB4D6804930223ADF814308378023BF8
:1029A0000446062B00F28480DFE803F01717177B3C
:1029B0000909040090F89D30023B012B04D8012343
:1029C0008DF8083000236FE0008801F071FC20B121
:1029D00078464A4B1B68ABB198472B78022B04D83A
:1029E000474A03EB0313D35C73B904238DF8083013
:1029F000716800238DF8093003AA2046FFF72EFFE7
:102A0000A07838E000DEE8E7FF2384F8D9312978A0
:102A1000112303FB01210131201DFDF7A3FD054614
:102A2000002833D0374B1B689A0418D5364B1B68E7
:102A3000012B14D92F2135480BF090FCE8B12F2140
:102A400032480BF08BFC411C314B324AD3F8043531
:102A5000009201954FF40872022005F067F82E4AA3
:102A6000022313705370204648F2630248F26C014F
:102A7000FFF736FD082006B070BD5C2123480BF03F
:102A80006DFC08B15C21DBE72049DDE78DF808002B
:102A90008DF8090003AA20467168FFF7DFFE0520C4
:102AA000E9E700238DF808308DF8093003AAA4E780
:102AB000144B1B689B04A3D5134B1B68032B9FD996
:102AC0002F2112480BF04AFC78B12F210F480BF050
:102AD00045FC411C0E4B114AD3F8043500920420EA
:102AE00040F23F2205F022F88AE75C2107480BF00C
:102AF00035FC08B15C21E9E70449EBE70C4B002009
:102B0000FC210020241A0020201A002057EE020089
:102B100000B00040F4EC0200712000201BED020028
:102B20002DE9F04389B08378023B022B04AF0646BF
:102B3000884663D83A4B4C681B6813F4005F04F175
:102B4000040437D0374B1B68042B33D9364BE94686
:102B50008AB0196804AD2046002310F8012B4FEA13
:102B6000121E02F00F0211F80EE005F803E011F852
:102B700002E0EA180233202B82F801E0EDD10023B5
:102B800085F820302F2129480BF0E8FB68B32F216E
:102B900026480BF0E3FB411C254B264AD3F80435AD
:102BA0000192254A009202954FF4CB72052004F061
:102BB000BDFFCD461022214620480BF0F0FA00233D
:102BC0003B7048F26703BB804FF6FF73FB803046D3
:102BD00001233A1DD8F80410BF60BB81FFF73EFE09
:102BE00004201437BD46BDE8F0835C210F480BF08C
:102BF000B5FB08B15C21CBE70C49CDE702233B7064
:102C000048F26703BB804FF6FF73FB803A1D012338
:102C10004968BF60BB81FFF721FEB078E1E700BFE4
:102C2000241A0020201A0020281A002057EE020043
:102C300000B0004049EE020060E50200FD210020E6
:102C400070B586B048F26003ADF80C304FF6FF73F4
:102C50000446ADF80E30807802AB04930123ADF842
:102C60001430431F0D46032B36D8DFE803F01B0258
:102C70002B1B4B6894F8D9215B681B789A4221D0B2
:102C800084F8D9314B68261D1A8959683046FDF7FA
:102C9000E2FC48B98DF8080003AA20466968FFF7EE
:102CA000DDFD072006B070BD02213046FDF764FC53
:102CB0000223204603AA69688DF80830FFF7CEFD8D
:102CC0000920EFE70023204603AA69688DF8083041
:102CD000FFF7C4FDA078E5E7144B1B689B0419D5EA
:102CE000134B1B68012B15D92F2112480BF036FB13
:102CF00090B12F210F480BF031FB411C0E4BA278F5
:102D0000D3F8043501920D4A0092022040F2573266
:102D100004F00CFF0123D6E75C2106480BF01EFBF4
:102D200008B15C21E6E70349E8E700BF241A002068
:102D3000201A002057EE020000B00040FEED020015
:102D400030B582780123033A9A4285B0044648F2AE
:102D5000670212D8ADF804204FF6FF72ADF80620D6
:102D600049688DF8003001AACDF808D0ADF80C30D4
:102D7000FFF774FD022005B030BDADF804204FF61A
:102D8000FF72ADF80620032501AA49688DF80050AE
:102D9000CDF808D0ADF80C30FFF760FDA078EAE779
:102DA00030B58378023B022B85B004460D461CD813
:102DB0003322002118480BF0FDF900238DF8003074
:102DC00048F26703ADF804304FF6FF73ADF80630F4
:102DD0002046012301AA6968CDF808D0ADF80C306F
:102DE000FFF73CFD032005B030BD02238DF8003015
:102DF00048F26703ADF804304FF6FF73ADF80630C4
:102E000001AA01234968CDF808D0ADF80C30FFF7CE
:102E100025FDA078E7E700BFFC2100202DE9F04167
:102E20000646A0B00C46154622B97846584B1B689A
:102E30001BB398472B88B34204D07846544B1B6889
:102E4000EBB19847534B02AA03F1300E17461868AE
:102E50005968164603C6083373453246F7D12188B0
:102E600012290ED10A238DF838302389013B9BB2F9
:102E7000402B18D920B0BDE8F08100DEDAE700DE93
:102E8000E0E70022062000FB02F3FE5A8E4232D118
:102E900020AA1344228933F8761C9142EAD113F810
:102EA000743C8DF8383020AE4FF6FF7826F87C8DD4
:102EB0002888314600F0FAFF00283BD1BDF8040015
:102EC000404537D0394601F0CDFF002832D1BDF85A
:102ED0000A20E3899A422DD10EA92F480F9402F0BF
:102EE0008FFC20B178462A4B1B680BB398472846C5
:102EF000FFF770F8BEE70132082AC4D1BAE704230D
:102F00008DF80430ADF8082001233A4621462846C2
:102F10000396ADF81030FFF7A1FCABE706238DF860
:102F20000430ADF80810EFE7032226E000DEA1E749
:102F300000DEDCE74FF6FF73ADF80A30238848F275
:102F400063018B4296D00DD848F26002934291D033
:102F5000E4D8122BD3D078460D4B1B68002BE5D05C
:102F6000984787E748F2660293420BD848F2650219
:102F7000934248F26703D7D302228DF80420ADF8BC
:102F80000830C1E748F26D0293423FF473AFE2E7C5
:102F90000C4B0020C6EB0200582100202DE9F04325
:102FA00006468078032887B00C4605D0042800F038
:102FB000828007B0BDE8F083DFF83C8100254746FA
:102FC00001F1040915F8083043B1681C1022494684
:102FD00040440BF0D5F808B9B078EAE71135332D45
:102FE000F0D13D782DB17B7CFBB197F82230F3B95D
:102FF000022505EB051001233B54184404343844E2
:10300000354F102221460BF0CAF8102221463846CF
:103010000BF0C5F83D743046112348F26D0248F2BA
:103020006A01FFF75DFA0820C3E70125E1E72B4BB2
:103030001B689B0417D52A4B1B68042B13D92F211F
:1030400028480BF08BF958B32F2126480BF086F94E
:10305000411C254B254AD3F804350092052040F247
:10306000113204F063FD48F26702ADF80C204FF610
:10307000FF720123ADF80E2003A902AA30888DF853
:103080000830ADF81430049200F0E2FE30F0040392
:1030900004D07846164B1B685BB19847022088E73E
:1030A0005C2110480BF05AF908B15C21CDE70D49BD
:1030B000CFE700DEF2E70434102221460D480BF082
:1030C0005FF80746002887D1034D10222146284685
:1030D0000BF065F82F749EE771200020241A002061
:1030E000201A002057EE020000B00040C0EE02009F
:1030F0000C4B0020FD210020FC2100202DE9F04197
:10310000884686B00446002841D08578002D40D1FD
:103110002148224B0360482602274660876002F060
:1031200047FB1F481F4B876080E8480002F040FBC8
:103130001D4B1D70FEF74AF91C4B1D4A0146201D10
:10314000FDF7F0F900BB0423ADF800304FF6FF7334
:10315000ADF80230174B02930590092321466846CB
:10316000ADF804800393049400F098FD60B92388BF
:10317000A4F8BC31104BC4F8D431104BC4F8D03192
:103180000123A3700E4B186006B0BDE8F0810E203D
:10319000FAE70820F8E700BF582100206C21002042
:1031A000B4200020C8200020702000200087930356
:1031B00098EC020014EC0200D921020080C3C9017E
:1031C0003022002070B5054680B18378012B0FD1E5
:1031D000084E346864B90848084B036002F06BFF7E
:1031E0000223AB70EB703560204670BD0E2070BDC1
:1031F000082070BD302200206820002081240200B9
:1032000038B5837803F003020446032A22D8DFE8A6
:1032100002F00214191D9B08174A1848126813443B
:103220000268A36000210AB395685D1B002D1ADABD
:10323000F1B91146E160046038BD9B0803EB8303DC
:103240005B00E9E79A0864235343E5E79A0841F2F3
:103250007073F9E778460A4B1B6813B1984700234F
:10326000DAE700DED8E71146D268DCE70029E1D0D2
:10327000CC60E26038BD00BF4C2200205422002008
:103280000C4B002008B5032809D8DFE800F0110234
:103290000406084808BD084808BD084808BD784627
:1032A000074B1B6813B19847002008BD00DEFBE701
:1032B000044808BD40420F00809698000046C32392
:1032C0000C4B0020A08601002DE9F041574D2B78D2
:1032D000A3B1574B574E5C6803F028F9241A307895
:1032E000FFF7D0FF3278544B001B002A40D14CF23C
:1032F000503290423CD91A6801321A60DFF8488196
:10330000D8F80020002A00F087804A4E9378307861
:1033100003F003038342344664DD474B97681B6820
:10332000FB1A464F5F43FFF7ADFFD8F80030B7FBFD
:10333000F0F09F78C7F30107FBB2022B1FD031D802
:10334000012B47D10A22B0FBF2F302FB1300002845
:1033500040D103F0EBF800F5742101F510713770DE
:103360002B78002B50D03248BDE8F04103F054B820
:103370001A683249B0FBF1F010441860BEE73378A8
:1033800063B96422B0FBF2F302FB130010BB03F03D
:10339000CDF82B49022301442370E1E7012B19D119
:1033A0000A22EFE7337863B941F27072B0FBF2F3AF
:1033B00002FB130070B903F0B9F82249032301445A
:1033C000EAE7012B02D14FF41672EFE7022B01D18D
:1033D0003C22EBE703F0AAF806462078FFF752FFFD
:1033E0003118BDE703F0A2F8D8F800300446987809
:1033F00000F00300FFF746FFD8F800309B78C3F3D6
:10340000010321183370ABE7094801232B70416099
:10341000BDE8F04102F0A6BF2B7823B10448BDE817
:10342000F04102F0C7BFBDE8F08100BF502200208C
:1034300034220020512200204C220020A0860100CE
:10344000809698000046C323542200202DE9F341C2
:10345000284B1B78032B2AD8DFE803F0021B1F231D
:10346000254A136801331360244B254E224D002258
:103470001A70B04634683CB1A3682A6893421ED0E3
:103480002A689B1A002B1ADBFFF71EFF02B0BDE86B
:10349000F081194A13680A33E5E7174A1368643361
:1034A000E1E7154A136803F5BB531033DBE77846B1
:1034B000144B1B680BB19847D6E700DED4E727888A
:1034C000E368C8F8003002A9002341F8043D3846FB
:1034D00000F07AFD20B178460A4B1B6843B198474B
:1034E00038466368019998472046FFF789FEC1E78F
:1034F00000DEF5E7512200204C220020502200205F
:10350000542200200C4B002010B5084C182200213A
:1035100020460AF04FFE064B064AA36000231360C4
:10352000054A1360054A137010BD00BF3422002005
:103530004D3402004C220020542200205022002052
:103540004A09012301F01F0103FA01F150F822306A
:10355000194214BF0120002070474FF6FF72B2EBF2
:10356000104F82B083B215D113F47F4007D003F41B
:103570004043B3F5004F14BF0020012006E023F0C4
:103580007F022AB97F3B18BF0123184602B070475B
:103590000346FAE723F03F03C02BECE701289FBF67
:1035A000054B342202FB003090F8300094BF00F04D
:1035B00001000020704700BF902200207846034B96
:1035C0001B6803B1184700DE704700BF0C4B00209A
:1035D0000047000010B50F4C6822002120460AF079
:1035E000E9FD062200210C480AF0E4FD102200212A
:1035F0000A480AF0DFFD4FF6FF730222E380A38042
:10360000E281A38163872387A4F84220A4F8403095
:1036100010BD00BF9022002058220020F822002078
:1036200010B586B00E4B03930E4B04930E4B0593CF
:103630000423029301F046FB0C4CA0F580500123BB
:10364000009069460A480193237004F0DFFE20B120
:10365000084804F0FFFF06B010BD2070FBE700BF74
:10366000D5360200BD350200793602008C220020DA
:1036700068220020C8190020134B1A78D00744BFD5
:1036800042F002021A701A7AD10744BF42F00202D5
:103690001A720E4B1A881AB15A7942F002025A7104
:1036A0000B4B93F83020D00744BF42F0020283F85E
:1036B000302093F86420D10744BF42F0020283F81F
:1036C0006420FFF7ADBF00BFF82200205822002081
:1036D0009022002030B5012A8DB004460D4606D157
:1036E0007846104B1B68D3B198470DB030BD022A05
:1036F000F6D0032AF9D12C22002101A80AF05AFDA4
:1037000019238DF8043002238DF80830E3680593FF
:1037100001A823690395069301F0F6FFE5E700DEB3
:10372000E3E700BF0C4B00202DE9F743037D012B9D
:1037300004463CD101A801F05FFBE38ABDF80460B8
:10374000B34222D3BDF80620324493421DDA9B1BBC
:10375000484D9EB24FF0000895F82830DA070DD595
:10376000AB88B3420AD1618C2846FFF7E9FE28B145
:1037700027886088298C00238B4209D308F101082F
:10378000B8F1020F05F13405E6D103B0BDE8F083CE
:10379000EA694FEAC30902EB090E32F83320BA4254
:1037A00003D1BEF8022082424ED00133E4E74FF647
:1037B000FF7301A91430ADF8043001F081FB20B192
:1037C00078462D4B1B687BB39847BDF8040001F089
:1037D0002FFB20B97846284B1B683BB39847254DF3
:1037E000DFF89880002695F82830DB0716D5EF889B
:1037F000012F13D8618C2846FFF7A2FE70B108EBA9
:10380000C700BDF804100430FFF79AFE30B1B4F8D9
:1038100000E06788288C0023834209D30136022EFA
:1038200005F13405DFD1B0E700DECEE700DED6E7F4
:10383000E96901EBC30231F83310714502D15188B7
:10384000B94210D00133E7E71FFA88F76A6A2146C8
:10385000384600F0DDFCEB696A6A4B4421465B6840
:10386000384698478AE753686A6A2146B0B2984753
:10387000D4E700BF982200200C4B0020F822002043
:1038800070B503788CB00646002B75D143681C7860
:1038900004F0C002402A0ED003D862B100252C46A5
:1038A0000EE0802A6AD0C02AF8D15A789D78A4B256
:1038B00045EA022504E0A4B27F2C5DD04FF6FF75E7
:1038C000374B1B689B0419D5364B1B68042B15D945
:1038D0002F2135480AF042FD002853D02F213248CD
:1038E0000AF03CFD411C314B314AD3F804350092BB
:1038F000019440F22312052004F018F9306A01F017
:103900002BFB4FF6FF729542ADF80C40ADF80E5010
:10391000736840D1FF2C8CBF0222012213444FF662
:10392000FF7295420493338937D1FF2C8CBF02225A
:1039300001229B1AADF81430337B8DF81830F389CF
:10394000ADF81A3033690793337D8DF82030F38A50
:10395000ADF82230B3690993B36A5A680A9293F9B1
:103960000D308DF82C30ADF82E0096F824308DF8FF
:103970002D3003A8FFF7D8FE0CB070BD5B7843EA8A
:1039800004249BE75C2108480AF0E8FC08B15C21AC
:10399000A5E70549A7E70322C0E70322C9E700BF5F
:1039A000241A0020201A002024EF020000B000405A
:1039B00040EF02002DE9F04F93B00B89B3F5BE7FC5
:1039C00002AF83460C46904680F08480FFF7E6FD08
:1039D000002800F081809F4A342303FB0B2391468B
:1039E0009989002978D1B8F1000F07D199884FF64D
:1039F000FF72914207D0DB88934204D02068FFF722
:103A0000ACFD00286CD1072539E0D888B3F804A0B4
:103A1000F881314601F026FA002800F085807846CA
:103A20008D4B1B680BB198477EE000DE7CE07B8A03
:103A30000B449A4280F28D802422002140460AF0F5
:103A4000B9FB2368FB6163683B6296E80300238946
:103A5000BB84012387F8283007F1300383E8030093
:103A60007D8502F063FDB863404687F83D90A7F876
:103A70003EA0FFF759FE3B7D012B6AD10025284669
:103A80004437BD46BDE8F08FF8894FF6FF73984282
:103A90005FD001F0CDF90028CED15AE003226AE0D0
:103AA00000DE7DE0032590E011F47F4F1DBF0D0A7D
:103AB0008BF800508BF801108BF8001093E0032076
:103AC0009BE05C2165480AF049FC08B15C21AEE04E
:103AD0006249B0E00925D2E70525D0E71025CEE7F9
:103AE00007F1100001F088F9342303FB0B937A8A65
:103AF0009D89AA42F2D93A8A1544ADB207F114065B
:103B0000B8F1000F81D0B8F822A008F10C0898E8AD
:103B1000030086E8030007F10E01404601F0D0F9EA
:103B200010B14FF6FF73FB81342303FB0B9907F1B0
:103B30001C0899F81090B9F1FF0F04BF484B93F897
:103B400000903B7D012B9FD1FA8A398A8A42BFF4CB
:103B50006EAF202200214046C7F804D00AF02AFBAD
:103B6000618823884FF6FF72914297D1B3F5807F29
:103B700034BF0122022223891344073323F00703B1
:103B8000ADEB030D07F1300150460DF1080B01F0CC
:103B900089FA28B17846304A1268002A80D09047C6
:103BA00096E8030088E803006088BD844FF6FF753F
:103BB000A84287F82690C7F828B0228921887FF488
:103BC00071AFFF298CBF022501251544BD854FF635
:103BD000FF75A8423FF468AF050A8BF800108BF818
:103BE00001508BF802004FF6FF75A8427FF467AFD3
:103BF000B1F5807F34BF01200220616858440AF08B
:103C0000CEFA0021404602F06DF90546F8B9154B91
:103C10001B689B041BD5144B1B68042B17D92F2141
:103C20000E480AF09BFB00283FF44BAF2F210B48B6
:103C30000AF094FB411C0D4B2288D3F80435019205
:103C40000B4A0092052040F2C51203F06FFFD7F82F
:103C500004D014E7902200200C4B002024EF020037
:103C6000D8190020241A0020201A002000B000409B
:103C700053EF020008B5FFF7ADFC0648064B0360A2
:103C800002F019FA00F006FBFFF73EFCBDE8084021
:103C9000FFF7C6BC60220020813802002DE9F04108
:103CA0000446002800F0BF808368002B00F0BB8032
:103CB000002900F0B8804FF6FF730B80C368002B1B
:103CC00000F0B4808388002B40F0B3805D4EB37861
:103CD000F078C34278D1D4F80880E7680025AF4275
:103CE00040F0988008884FF6FF739842564B46D1B3
:103CF00093F8305015F0010500F0938093F864209C
:103D0000D20701D4012080B24FF6FF75A842088087
:103D100000F09580342202FB0030C580088802FB49
:103D2000003085800888A78802FB003087810888DA
:103D3000278850431F520888678802FB003047805D
:103D4000088802FB00324148007810746088A2881D
:103D5000A8424FF0060000FB02620BBF9078D078BB
:103D6000013001300CBF9070D0700A88342000FB05
:103D7000023292F8300040F0020082F830000A88E7
:103D80002569342000FB0232D5620A88A56800FB51
:103D9000023255620A88E56800FB023215850A88FE
:103DA000646900FB023294610A8800FB0234A2823B
:103DB0000A8800FB0233002093F8302042F0010211
:103DC00083F83020BDE8F0811F4B25889A896088F0
:103DD0002AB91F88AF4202D15F8887420DD0B3F85D
:103DE0004020002A7FF477AF9A8EAA427FF473AF07
:103DF000DA8E82427FF46FAF012210460A803422AD
:103E000002FB003393F83030D8077FF564AF0F2002
:103E1000BDE8F08158F83500FFF79FFB60B1013530
:103E20005DE728466FE70E20BDE8F0810920BDE878
:103E3000F0810520BDE8F0810720BDE8F081042075
:103E4000BDE8F0815822002090220020D8190020DF
:103E500011B10022FFF7AEBD0E20704713460A468F
:103E600019B113B11946FFF7A5BD0E207047000028
:103E700010B50446FFF792FB88B1042911D80A480F
:103E8000342303FB0400C3888B4206D090F8303003
:103E9000C18043F0020380F83030002010BD0520BF
:103EA00010BD072010BD00BF9022002010B50446B1
:103EB00051B1FFF773FB48B1054B342202FB0434C8
:103EC0000020E3880B8010BD0E2010BD052010BD22
:103ED00090220020F8B506460F46FFF75FFBC0B101
:103EE000012918D834250E4C754305F10806A01990
:103EF000FFF726FB88B9012303FA07F1A3590B4307
:103F0000A3512C4494F8303043F0020384F830304D
:103F1000F8BD0520F8BD0720F8BD0020F8BD00BFA2
:103F20009022002010B50446FFF738FB88B1012924
:103F300011D80A48342303FB040083888B4206D03F
:103F400090F83030818043F0020380F83030002058
:103F500010BD052010BD072010BD00BF902200201D
:103F600010B50446FFF71AFB98B181F080037E2B51
:103F700011D90A48342303FB0400037C8B4206D08A
:103F800090F83030017443F0020380F830300020A4
:103F900010BD052010BD072010BD00BF90220020DD
:103FA00010B5044651B1FFF7F9FA48B1054B342278
:103FB00002FB04340020237C0B7010BD0E2010BDCA
:103FC000052010BD9022002010B5044651B1FFF726
:103FD000E5FA48B1054B342202FB04340020E36AC1
:103FE0000B6010BD0E2010BD052010BD90220020DA
:103FF00038B5324C282303FB0043054693F83C3088
:104000002BB978462E4B1B68002B48D09847B4F844
:1040100068302BB978462A4B1B68002B41D0984753
:10402000282202FB0542002382F83C30B4F86830B5
:10403000013B9BB2A4F86830002B39D0B4F86A3049
:10404000AB423AD1536B1F4A1A4494F83C3053B3F5
:10405000636B991A0029B8BF1A464FF6FF73B8BFB1
:10406000002394F8641021B1E16D8A1A002AB8BFC8
:1040700001234FF6FF729342A4F86A3004D17846C8
:104080000F4B1B6893B19847B4F86A300B4828224D
:1040900002FB0344616BBDE8384002F0BDB900DEAD
:1040A000B5E700DEBCE74FF6FF73DAE700DEEBE7CB
:1040B0000248BDE8384002F07DB938BD0823002031
:1040C0000C4B0020008793032DE9F74F4D4BB3F8BD
:1040D000682006469B4622B978464B4B1B689BB32B
:1040E00098474FF6FF77494CDFF81C91ABF86A70A0
:1040F00006F57A7800254FF0280A94F82030EBB1C5
:104100002369A3EB0803002B22DA002384F8203074
:10411000BBF86830013BABF8683001A934F8040CF7
:10412000FFF752FF20B17846D9F8003073B19847B5
:104130006369019934F8040C012298470135022D76
:1041400004F1280428D0D8E700DECAE700DEEFE754
:10415000A369A3EB0802002A41DA214634F8040CD3
:10416000FFF776FEABF86A5060B9E369A2691A44BA
:104170005B00A261E3612269A369D31A002BDDDA37
:10418000A261DBE7042822D1282303FB05B56B6B72
:1041900003F51C4340336B63BBF86830002B2DD014
:1041A000BBF86A30012B04D97846174B1B681BB348
:1041B0009847BBF86A30282202FB03B35B6B9A1B5B
:1041C00048BFF21ACBF80C2003B0BDE8F08F784658
:1041D000D9F800300BB19847CDE700DECBE7BBF84C
:1041E0006A20BA4205D00AFB02B2526B9B1A002B1E
:1041F000A4DAABF86A50A1E700DEDAE7CBF80C30BE
:10420000E2E700BF082300200C4B002024230020FD
:1042100001282DE9F84307468946904604D9784697
:104220001A4B1B686BB39847194C02F0A3FD94F826
:104230003C3013B1238BBB4225D094F86430E3B1FA
:10424000B4F84030BB4218D10125282605FB06638F
:10425000E218E15AB9F8003099420ED15288B9F803
:1042600002309A4209D106FB05442846FFF7C0FEFA
:10427000236B0022414638469847BDE8F84302F0D8
:104280009BBD00DED0E70025DFE700BF0C4B002020
:104290000823002010B5044C6C220021204609F0B0
:1042A00089FF024BA36010BD08230020C940020013
:1042B000012810B504461CD802F05CFD0E4B93F8A3
:1042C0003C101A4611B11B8BA3420ED092F86430F9
:1042D0006BB1B2F84030A34209D10120FFF788FE4C
:1042E000002402F069FD204610BD0020F6E70524F9
:1042F000F7E70524F7E700BF082300202DE9F7437F
:104300000646002800F0C6808369002B00F0C280BA
:104310000388012B00F2C0804269624B1344624A59
:10432000934200F2BB80614C02F024FDB4F8683087
:10433000022B00F2A58094F83C508DB13288238B7B
:104340009A424FF6FF7512D0042794F864304BB9A7
:104350004FF6FF72954240F0918001251F4607E01D
:104360002F46F2E7B4F8402033889A4200D108275C
:1043700002F022FD002F7DD1311D3088FFF768FD4E
:1043800030F0040340F08C80282303FB054393F8AE
:104390003C302BB17846464B1B68002B74D09847B5
:1043A00002F0C4F88046282000FB054031461C225C
:1043B000183009F0F4FE0DF107013088FFF7F0FD29
:1043C00028B178463A4B1B68002B5FD09847F1889C
:1043D000B3884FF6FF7291425AD1FF2B8CBF022354
:1043E0000123B28913449DF8072044F620619BB253
:1043F0004A430B2B02F5433288BF0B3302F5A07200
:104400004FF0280682BF0C2093FBF0F301FB032240
:1044100005FB0663234406FB05495968C9F83820A3
:10442000414442445960C9F8342002F0A3FCB4F876
:1044300068304BB1B4F86A30D9F8342006FB034633
:10444000736B9B1A002B08DB282303FB05431748DB
:10445000596B01F0E1FFA4F86A50282303FB0545DE
:10446000012385F83C30B4F868300133A4F8683093
:1044700002F0A2FC384603B0BDE8F0831D4677E7A2
:104480004FF6FF75042773E700DE89E700DE9EE73D
:104490000323A6E70E27EDE70527EBE70727E9E764
:1044A0000746E7E7803C36FE80C3C90108230020A9
:1044B0000C4B00204A09012301F01F0103FA01F10E
:1044C00050F82230194214BF0120002070474A09D9
:1044D000012301F01F0103FA01F150F822300B43D0
:1044E00040F8223070474A09012301F01F0103FA06
:1044F00001F150F8223023EA010340F822307047DE
:10450000F0B501F11F046409651E00230126A342D2
:1045100001D10120F0BDAB4204BFA1EB431206FA6A
:1045200002F250F823700CBF02F1FF324FF0FF325D
:104530003A4201D10133EAE70020F0BD042803D15B
:1045400000210248FFF7B6BF0020704784230020F7
:1045500038B54FF6FF7305460C460B80084800211E
:10456000FFF7A8FF38B1074B1B88AB424FF00003A1
:1045700003D1238038BD208038BD184638BD00BF28
:10458000182400202024002038B54FF6FF7305467C
:104590000C460B8006480021FFF78CFF18B1054B35
:1045A0001B88AB4202D10123238038BD002038BDD7
:1045B000BC230020C423002038B54FF6FF73054606
:1045C0000C460B8008480021FFF774FF38B1074BF9
:1045D0001B88AB424FF0000303D1238038BD2080FD
:1045E00038BD184638BD00BF9C230020A4230020FE
:1045F000024B33F820300B80704700BF8C23002023
:1046000010B5044620B97846044B1B6823B198477F
:104610002346BDE81040184700DEF9E70C4B0020A8
:104620002DE9F0415D1E16240D4E6C430746A01D7A
:10463000884630441146102209F0B1FD331900229A
:104640005A7101222946A3F8028006481A7137538D
:10465000FFF73DFF29460448BDE8F041FFF737BFAB
:10466000C4230020BC230020C023002010B40C462B
:10467000431C0A1D208849885DF8044B9BB2FFF754
:10468000CFBF000070B516244443074E0D46A11D50
:1046900010223144281D09F082FD325B2A80331933
:1046A0005B886B8070BD00BFC423002070B51624EA
:1046B0004443074E0D46A11D10223144281D09F028
:1046C0006EFD325B2A8033195B886B8070BD00BF42
:1046D000A423002070B55C244443054E0D46A11C64
:1046E00010223144A81C09F05AFD335B2B8070BDA9
:1046F00020240020044A0B46142101FB0021043130
:104700001022184609F04BBD7C24002004220148E9
:1047100009F045BD1224002008460422014909F091
:104720003EBD00BF122400202DE9F84316255D434D
:10473000144C91468046A81D0F461022494620443D
:104740001E4609F02CFD691D2144484603F054F92A
:1047500020B178460C4B1B6893B1984716237343DE
:10476000E2180021117157803146084824F803806F
:10477000FFF7ADFE31460648BDE8F843FFF7A7BE98
:1047800000DEEBE7A42300200C4B00209C2300203C
:10479000A023002010B40C4683B20A1D208849884B
:1047A0005DF8044BFFF7C0BF2DE9F0411E4D5C24BE
:1047B0005443164604F134032A192B4488461364E3
:1047C000074610B9194B01221A7004F1120129444D
:1047D000404603F01AF920B17846154B1B68FBB12F
:1047E000984704F144012944404603F01FF920B1E1
:1047F00078460F4B1B68ABB19847A01C414610226E
:10480000284409F0CCFC5C23734331460948EF523D
:10481000FFF75DFE31460848BDE8F041FFF757BE9F
:1048200000DEDEE700DEE8E7202400201024002080
:104830000C4B0020182400201C2400200B4682B2C0
:1048400002311888FFF7B0BFF8B50D1F14246C4370
:104850000E4F0646201D31461022384409F09FFCB9
:104860003919304603F00AF920B17846084B1B6825
:1048700053B1984729460748FFF729FE29460648BD
:10488000BDE8F840FFF723BE00DEF3E77C240020FC
:104890000C4B002084230020882300200B46011DA0
:1048A00089B21846FFF7D0BF2DE9F84304460F46FA
:1048B00002F060FA052C04D97846174B1B68FBB14F
:1048C0009847164B164D1E786401DEB105EB0409BE
:1048D0001448B9F81210D9F81420394489B203F0F9
:1048E0001DFD804670B1011DD9F818303846984733
:1048F000404603F04FFD02F05FFA3046BDE8F88312
:1049000000DEDEE72C443946A068FFF7E0FD0648EC
:1049100003F0A0FE0026EEE70C4B0020DA23002077
:1049200068EF0200DC23002000240020F8B50446D4
:104930000F4602F01FFA052C04D97846104B1B686D
:1049400093B198470F4B104D1E78640176B92C44F3
:104950003946A068FFF7BBFD0C4803F07BFE00263C
:1049600002F02AFA3046F8BD00DEEBE72B190848C2
:10497000598A394489B203F017FD0028F0D0E6E7E0
:104980000C4B0020DA23002068EF020000240020F6
:10499000DC2300202DE9F843184D0026AF68D5F838
:1049A0000080384641465FFA86F9FFF7A9FD10B945
:1049B0000446444503D1052E1AD1BDE8F8832146AB
:1049C0003846FFF777FD68B121466868FFF772FD4A
:1049D000214648B14846FFF767FF60B12146384697
:1049E000FFF781FD0134E4E74846FFF79FFFF4E756
:1049F00001362035D2E7BDE8F88300BF68EF02003A
:104A00004FF6FF7370B50B8006460D46094800212E
:104A1000FFF750FD044610B92880204670BD1022D3
:104A20003146054809F0ACFB08B92880F5E70024B9
:104A3000F3E700BF842300208024002008B548B994
:104A40007846084B1B681BB198474FF6FF7008BDAE
:104A500000DEFAE7044BC01A18BF4FF0FF3080B2F7
:104A600008BD00BF0C4B00203224002008B548B917
:104A70007846094B1B681BB198474FF6FF7008BD7D
:104A800000DEFAE7054B984204D0054B9842F4D17A
:104A9000012008BD002008BD0C4B0020A8230020E9
:104AA000C823002010B501298CB0044606D17846F1
:104AB000104B1B68DBB198470CB010BD0229F6D033
:104AC0000329F9D12C22002101A809F073FB192335
