:020000021000EC
:10F0000000000120196B0200416B0200C1F60100F3
:10F01000456B0200476B0200496B020000000000D4
:10F020000000000000000000000000004B6B020028
:10F030004D6B0200000000004F6B0200516B02009C
:10F04000536B0200536B020069490200536B0200CC
:10F05000536B0200536B0200536B0200536B0200B0
:10F06000536B0200536B0200536B0200536B0200A0
:10F07000536B0200536B0200536B0200536B020090
:10F08000536B0200536B0200B9870200536B0200FE
:10F09000536B0200536B020021F70100536B020017
:10F0A000536B0200536B0200536B0200536B020060
:10F0B000536B0200536B02000000000000000000D0
:10F0C000536B0200536B0200536B0200536B020040
:10F0D000536B0200536B0200536B020000000000F0
:10F0E0000000000000000000000000000000000020
:10F0F0000000000000000000000000000000000010
:10F1000000000000000000000000000000000000FF
:10F1100000000000000000000000000000000000EF
:10F1200000000000000000000000000000000000DF
:10F1300000000000000000000000000000000000CF
:10F1400000000000000000000000000000000000BF
:10F1500000000000000000000000000000000000AF
:10F16000000000000000000000000000000000009F
:10F17000000000000000000000000000000000008F
:10F18000000000000000000000000000000000007F
:10F19000000000000000000000000000000000006F
:10F1A000000000000000000000000000000000005F
:10F1B000000000000000000000000000000000004F
:10F1C000000000000000000000000000000000003F
:10F1D000000000000000000000000000000000002F
:10F1E000000000000000000000000000000000001F
:10F1F000000000000000000000000000000000000F
:10F2000010B5054C237833B9044B13B10448AFF360
:10F2100000800123237010BDE81A002000000000C8
:10F22000980B03000C4B43B10C480D4910B5AFF3DC
:10F2300000800C48036823B910BD0A48036833B93D
:10F240007047094B002BF7D0BDE810401847064B1C
:10F25000002BF5D0184700BF00000000980B0300FA
:10F26000EC1A0020E01A002000000000154B002BD3
:10F2700008BF134B9D46A3F5803A00218B460F46ED
:10F280001348144A121A10F0E1FB0F4B002B00D068
:10F2900098470E4B002B00D0984700200021040017
:10F2A0000D000D48002802D00C48AFF3008010F08C
:10F2B0007FFB2000290000F013F810F065FB00BF71
:10F2C0000000080000000120000000000000000015
:10F2D000E81A00208051002000000000000000001B
:10F2E0007FB58C4C8C4A4EF2070004210AF0FEF9DF
:10F2F0002368580418D5894B1B68032B14D92F2178
:10F30000874810F077FC002800F0DF802F21844828
:10F3100010F070FC411C834B834AD3F804350092F3
:10F32000042042220AF0FCF94FF0A0434FF0FF32D4
:10F33000C3F818254FF4F012C3F804257B4A7C4D1E
:10F340007C4E10680A22D3F8041581F40031C3F80A
:10F350000415314600BF00BF00BF00BF00BF00BFA3
:10F3600000BF00BFA8422FD000BF00BF00BF00BF3A
:10F3700000BF00BF00BF00BF00BF00BF00BF00BF95
:10F3800000BF00BF00BF00BF00BF00BF00BF00BF85
:10F3900000BF00BF00BF00BF00BF00BF00BF00BF75
:10F3A00000BF00BF00BF00BF00BF00BF00BF00BF65
:10F3B00000BF00BF00BF00BF00BF00BF00BF00BF55
:10F3C00000BF00BF00BF00BF0139C3D1013ABAD1AD
:10F3D00000F098FA04F062FC03F0F8FA236859048C
:10F3E00017D54E4B1B68032B13D92F214C4810F017
:10F3F00001FC002872D02F21494810F0FBFB411C72
:10F40000484B4D4AD3F804350092042054220AF0A8
:10F4100087F94A4A92E8030002AB83E803001946E1
:10F42000C82008F0BFFF18B13D4A562100F00EF980
:10F4300023685A0417D5394B1B68032B13D92F2186
:10F44000374810F0D7FB002851D02F21344810F056
:10F45000D1FB411C334B3A4AD3F8043500920420C7
:10F4600058220AF05DF9002007F0C4F918B12C4ABF
:10F47000592100F0EBF807F0D8F918B1284A5A21C1
:10F4800000F0E4F823685B0416D5244B1B68032BBB
:10F4900012D92F21224810F0ADFB88B32F2120482C
:10F4A00010F0A8FB411C1F4B264AD3F804350092EC
:10F4B00004205C220AF034F94FF0A0434FF40032EC
:10F4C000C3F80C2508F094FAFCE75C21144810F00E
:10F4D00091FB08B15C211AE711491CE75C21104837
:10F4E00010F088FB08B15C2186E70D4988E75C21B4
:10F4F0000B4810F07FFB08B15C21A7E70849A9E79A
:10F500005C21074810F076FB08B15C21C7E704498D
:10F51000C9E700BF641A0020C1960200601A0020EB
:10F520007CFC020000B000409AFC02001C1A002083
:10F530000024F400A0860100D3FC020074FC020049
:10F54000F0FC02000EFD020048DF704710DF70473C
:10F5500060DF704761DF70474FF0A0434FF4F01257
:10F56000C3F80825C3F80C25EFF3108372B6002802
:10F57000FDD1704713B5144B1B685B04044613D5CB
:10F580002F21124810F036FBA0B12F210F4810F0A8
:10F5900031FB411C0E4B0F4AD3F804350092019405
:10F5A0004E2200200AF0BCF8204602B0BDE8104010
:10F5B000FFF7D2BF5C21054810F01CFB08B15C21AD
:10F5C000E4E70249E6E700BF641A002053FD0200A9
:10F5D00000B000406EFD02007FB5174B1B685B0456
:10F5E00005460C46164618D5144B1B68ABB12F21A7
:10F5F000134810F0FFFAB0B12F21114810F0FAFAB9
:10F60000411C104B104AD3F8043500920396029423
:10F610000195702201200AF083F8204604B0BDE86D
:10F620007040FFF799BF5C21054810F0E3FA08B17C
:10F630005C21E2E70249E4E7641A0020601A002036
:10F6400053FD020000B0004033FE02007FB5174BAF
:10F650001B685B0406460D46144618D5144B1B6800
:10F66000ABB12F21134810F0C5FAB0B12F211148CA
:10F6700010F0C0FA411C104B104AD3F80435009228
:10F68000039602950194482201200AF049F80120CE
:10F6900004B0BDE87040FFF75FBF5C21054810F083
:10F6A000A9FA08B15C21E2E70249E4E7641A002004
:10F6B000601A002053FD020000B0004036FD020039
:10F6C00007B5134B1B685B0412D52F21114810F0AE
:10F6D00091FA98B12F210F4810F08CFA411C0E4B73
:10F6E0000E4AD3F804350092002054220AF018F88C
:10F6F000012003B05DF804EBFFF72EBF5C21054845
:10F7000010F078FA08B15C21E5E70249E7E700BFAD
:10F71000641A002053FD020000B0004028FD0200E2
:10F7200073B501A8FFF710FF60B102AD4F2325F8B4
:10F73000063D094E1C4629460748FFF70BFF28B136
:10F7400002B070BD019808F035FAEAE7304608F0DB
:10F750002FFAADF80240EEE7041B002030B5414C13
:10F760002368590485B0054617D53F4B1B68032B0A
:10F7700013D92F213D4810F03DFA002856D02F21F3
:10F780003A4810F037FA411C394B3A4AD3F804355D
:10F79000009204207A2209F0C3FF374B0293029BA8
:10F7A000039323685A0419D52F4B1B68032B15D9D3
:10F7B0002F212E4810F01EFA002840D02F212B4870
:10F7C00010F018FA411C2A4BD3F80435029A019222
:10F7D0002A4A00920420832209F0A2FF284603A9A6
:10F7E000FFF7B6FE029B039A9A4205461BD0236898
:10F7F0005B0418D51C4B1B68012B14D92F211B4807
:10F8000010F0F8F920B32F21184810F0F3F9411C3B
:10F81000174B039AD3F804350192194A009202203B
:10F820008C2209F07DFF284605B030BD5C210F48D1
:10F8300010F0E0F908B15C21A2E70C49A4E75C21D3
:10F840000A4810F0D7F908B15C21B8E70749BAE7D0
:10F850005C21064810F0CEF908B15C21D4E70349D9
:10F86000D6E700BF641A0020601A002053FD020092
:10F8700000B00040CEFD0200C0190020EAFD0200E9
:10F88000FAFD020000B58BB00AAB1A4943F8240D0B
:10F890001846FFF75BFE18B1174A9321FFF7D6FE13
:10F8A000164A92F81633C3F34113012B1BD9144B9C
:10F8B0009968A1B11A6842F480021A601C220021E2
:10F8C00003A810F0C3F803A8FFF748FF18B10A4ACD
:10F8D0009A21FFF7BBFE00200BB05DF804FB4FF44C
:10F8E00080031360EAE7044A942142F20200FFF722
:10F8F000ADFEE3E7D9F5010053FD020000E100E0B1
:10F90000F450002010B54B4C2368590486B017D52D
:10F91000494B1B68032B13D92F21484810F06AF973
:10F9200000286CD02F21454810F064F9411C444B4D
:10F93000444AD3F8043500920420B52209F0F0FEC1
:10F9400001238DF8083000238DF809308DF80A3036
:10F9500007238DF80B300298FFF794FF23685A04B1
:10F9600017D5354B1B68032B13D92F21334810F0C3
:10F9700041F900284CD02F21304810F03BF9411CB0
:10F980002F4B314AD3F8043500920420BF2209F0EE
:10F99000C7FE00230393059301238DF80C30072342
:10F9A0008DF80F3003A8294B049307F089FF18B195
:10F9B000224AC421FFF74AFE23685B0416D51E4B7A
:10F9C0001B68032B12D92F211C4810F013F940B3E8
:10F9D0002F211A4810F00EF9411C194B1C4AD3F87C
:10F9E000043500920420C62209F09AFE07F0C6FFF3
:10F9F00018B1124AC721FFF729FE06B010BD5C21DD
:10FA00000E4810F0F7F808B15C218CE70B498EE73F
:10FA10005C210A4810F0EEF808B15C21ACE7074918
:10FA2000AEE75C21054810F0E5F808B15C21D0E7AD
:10FA30000249D2E7641A0020601A002053FD020038
:10FA400000B0004087FD0200A0FD020075F5010036
:10FA5000B9FD02001FB500F27D21044600F24D23DE
:10FA60006A4600F0EBFF6946204600F08CFE10B9B4
:10FA7000102384F8B33204B010BD00B590F8B3324F
:10FA80008DB05BB1002380F8B3320290052301A84A
:10FA90008DF804308DF80C1007F0B0F80DB05DF85B
:10FAA00004FB70B590F8B352022D8CB0044610D10F
:10FAB000042602900DEB06008DF8046007F09EF816
:10FAC00004F29D220021204600F00CFE18B984F8B3
:10FAD000B3620CB070BD2946204600F0FFFDF8E788
:10FAE00010B590F8B332072B8CB004460CD190F8C7
:10FAF000B0325BB109238DF804300A23029080F8FC
:10FB0000B33201A807F07AF80CB010BDD0F8B811E4
:10FB100000F01BFE18B9092384F8B332F4E7022180
:10FB2000204600F0DBFDEFE730B590F8B4328DB041
:10FB30000446032B3CD8DFE803F0312B1D0200F212
:10FB40006D25294601F050F806238DF8043094F80D
:10FB5000AE328DF80D3094F8AF328DF80C3002943F
:10FB60000495112301A884F8B33207F047F8002068
:10FB70000DB030BD07238DF8043090F8AE328DF80B
:10FB80000D3090F8AF328DF80C3002900C23E9E77D
:10FB900008238DF8043002900D23E3E710220021A2
:10FBA00000F26D200FF052FF2046FFF753FFDFE712
:10FBB0000320DDE7F0B50D46A5B004461146284602
:10FBC00000F054FD08B902212BE12B78013B082BF2
:10FBD000F9D801A252F823F0FDFB0100C7FB010098
:10FBE0006DFC0100BBFC0100CBFC0100F5FC010039
:10FBF000C7FB0100CFFD01002BFE010094F8B332DA
:10FC0000042B31D10B22691C04F29E200FF013FF4C
:10FC1000052384F8B3320A238DF864306B788DF8AD
:10FC20006C301A946A88130A43EA0223ADF86D30E7
:10FC30002B798DF86F306B798DF87030AB798DF84A
:10FC40007130B5F80720130A43EA0223ADF8723089
:10FC50006B7A8DF874306A89130A43EA0223ADF88F
:10FC6000753019A806F0CAFF25B0F0BD94F8B3327C
:10FC7000092BF9D104F5E0764022691C30460FF0DB
:10FC8000DAFE00F0D5FE58B10B2384F8B3320C2312
:10FC90008DF86430D4F8BC311A941C931B96E0E7BD
:10FCA00004F50071204600F083FF00288BD1204628
:10FCB000FFF73AFF0028D7D085E794F8B332112B2D
:10FCC000D2D12046FFF7C6FEF4E794F8B322102AFB
:10FCD000CAD1691C04F28D200FF0ADFE04F24D2153
:10FCE000204600F063FD00287FF46DAF122384F8F6
:10FCF000B332B9E794F8B332122BB5D11022691C94
:10FD000004F25D200FF097FE204600F0BBFF0028B4
:10FD10003FF459AF01AD05AE04F508732A463146EC
:10FD2000204609AF00F0ECFE0723102204F53071E5
:10FD300038468DF840300FF07EFED4F8D232199656
:10FD40001A0E190242EA036201F47F011B0A0A43F8
:10FD500003F47F431343B4F8D622CDF83730130AA7
:10FD600043EA0223B4F8D022ADF83B30130A43EA49
:10FD7000022394F8D822ADF834309DF836301A9525
:10FD8000C2F3400161F3000362F341036FF38703A1
:10FD90008DF836301923ADF870300DF141031F9303
:10FDA0000DF15A03209300231D93ADF8783019A864
:10FDB00008231B978DF8843008F0A8FE10A9204670
:10FDC00000F01FFD00287FF4FEAE14238FE794F8A7
:10FDD000B332142B7FF448AF0B238DF8643004F555
:10FDE00008731C9304F530731B93D4F8D2321D931F
:10FDF000B4F8D032ADF87830B4F8D63294F8D822CE
:10FE0000ADF87A309DF87C301A9462F30003C2F3A7
:10FE1000400262F3410319A88DF87C3006F0EEFE33
:10FE20000021204600F05AFC1EE70D238DF86430B7
:10FE300019A86B781A948DF86C3006F0DFFEC2E6D4
:10FE400070B51E4690F8B33204461546ABB90C4B5C
:10FE50000C4A00F019FC88B984F8B1023146192225
:10FE600004F530700FF0E7FD2946204600F02CFC29
:10FE700020B9022384F8B33270BD082070BD00BFE2
:10FE80000087930350FE020013B590F8B332052BA0
:10FE9000044634D1102A30D852BB71BB022394F8E7
:10FEA000B8028DF800300023C01A18BF01200129C4
:10FEB0008DF8013018BF94F8AF3284F8AE220129D2
:10FEC00008BF002284F8B4128DF802008DF80310E8
:10FED0008DF80520694604F29D2220468DF80430F5
:10FEE00000F023FC10B9072384F8B33202B010BD30
:10FEF00019B1102AD2D00129D0D10920F6E7082063
:10FF0000F4E738B5044694F8B3320C3B012B16D80D
:10FF1000102A16D894F8AE52954212D104F26D20F0
:10FF20000FF089FD05F26D20C5F11002204400217B
:10FF30000FF08CFD2046BDE83840FFF78BBD082050
:10FF400038BD092038BD10B590F8B3220B2A0446FD
:10FF50000AD159B1202200F500700FF06CFD204647
:10FF6000BDE81040FFF7E0BD082010BD0E2010BD19
:10FF700000B58DB00B238DF8043000F508730493A1
:10FF800000F5307302900393D0F8D2320593B0F8A5
:10FF9000D032ADF81830B0F8D63290F8D822ADF89B
:10FFA0001A309DF81C3062F30003C2F3400262F382
:10FFB000410301A88DF81C3006F020FE0DB05DF85D
:10FFC00004FB30B590F8B332132B8DB004460D46C8
:10FFD00002D109B9FFF7CCFF002384F8B33201A89E
:10FFE00005238DF8043002948DF80C5006F006FEBF
:10FFF0000DB030BD00B503238DB080F8B3320423BB
:020000022000DC
:1000000002900DEB03008DF8043006F0F7FD0DB003
:100010005DF804FB10B504468CB00D2284F8B212D2
:100020008DF8042002908DF80C1000F0DDFB38B93B
:1000300001A806F0E3FD162384F8B3320CB010BD1E
:100040000221204600F04AFBF2E730B590F8B432C6
:100050008DB00446032B3CD8DFE803F0312B1702A8
:1000600007238DF8043090F8AE328DF80D3090F8FB
:10007000AF328DF80C3002900C2384F8B33201A813
:1000800006F0BCFD00200DB030BD00F26D25294604
:1000900000F0AAFD06238DF8043094F8AE328DF8F6
:1000A0000D3094F8AF328DF80C3002940495102383
:1000B000E3E708238DF8043002900D23DDE71022DA
:1000C000002100F26D200FF0C1FC102384F8B33240
:1000D000D8E70320D7E710B58CB0044600F0A8FCA1
:1000E00088B10C238DF80430D4F8BC31049304F5A6
:1000F000E07303930B2384F8B33201A8029406F053
:100100007DFD0CB010BD04F50071204600F050FDDF
:1001100048B92046FFF799FF0028F2D00521204674
:10012000FFF778FFEDE70221F9E7000070B50D4613
:1001300096B004461146284600F098FA20B90121ED
:100140002046FFF767FF86E02B78092B00F2358108
:10015000DFE813F00A0033014A006B00330183002B
:10016000AE00CF003301270194F8B332032B72D1D4
:1001700004F29D230122A91818461D460FF05BFCCE
:10018000B4F8B62201238DF82C3094F8B5328DF8EE
:100190002D30130A43EA0223ADF82E3094F8B8321A
:1001A000B4F8BB228DF8303094F8B9328DF8313084
:1001B00094F8BA328DF83230130A43EA0223B4F8C5
:1001C000BE22ADF8333094F8BD328DF83530130AC5
:1001D00043EA02230BA92A462046ADF8363000F048
:1001E00095FAC0B30521ABE794F8B332062B32D1B0
:1001F0000522691C04F2A9200FF01DFCAB7893B90D
:1002000084F8B032EB7884F8B432EB78012B14BF69
:100210006B79102384F8AE322B7984F8AF3209233E
:1002200084F8B33217E00123EAE794F8B332092BDC
:1002300011D14022691C04F5E0700FF0FCFB94F82A
:10024000B0322BB9D4F8B811204600F07EFAC8E7D6
:100250002046FFF740FF16B070BD94F8B322102A75
:100260001CD1691C04F28D200FF0E5FB04F27D2106
:10027000204604F24D230BAA00F0E0FB0BA9204618
:1002800000F081FA0028E6D00428ABD078464F4B26
:100290001B680BB19847A5E700DEA3E70D2ADAD16A
:1002A0001022691C04F28D200FF0C5FB0E23B7E766
:1002B00094F8B332122BCED11022691C04F25D20C7
:1002C0000FF0B9FB204600F0DDFC08B9042137E748
:1002D00004F24D21204600F069FA002882D104F58D
:1002E000087304F5107204F50C71204600F008FC48
:1002F000B1E794F8B332132BADD104F50C730B9323
:1003000004F510730C936B1C0D9316A91923ADF80B
:1003100038300023082201F8513D0DF109061A3545
:100320000BA80F93ADF84030119612958DF84C2024
:1003300008F0EEFB9DF80730002B44D01022314628
:1003400004F530700FF077FB079BBDF819209DF87E
:100350001B101BBAC4F8D232BDF82030180A40EA8C
:100360000320130A43EA022394F8D822C1F340057C
:100370009BB265F3000280B261F34102B3F5805F86
:10038000A4F8D602A4F8D03284F8D82201D30221EE
:10039000D6E607F08BFA0128F9D1204600F019FAC9
:1003A0001FE70D238DF82C300BA86B788DF83430B7
:1003B0000C9406F023FC162332E794F8B332162B84
:1003C0007FF4BDAE47E70621BAE600BF005100202A
:1003D00013B590F8B332033B0446132B1FD8DFE864
:1003E00003F00A1E1E0D1E1E0F1E1E141E161E16C4
:1003F0001E181A1E1E0D062384F8B33202B010BD5B
:1004000002B0BDE81040FFF766BE1023F4E71223E8
:10041000F2E71323F0E7FFF7ABFD1523ECE7144BEE
:100420001B681B07EAD5134B1B68002BE6D02F2156
:1004300011480FF0DFFB90B12F210F480FF0DAFBCE
:10044000411C0E4B94F8B322D3F8043501920C4AA8
:100450000092012040F2E11209F062F9CEE75C213E
:1004600005480FF0C7FB08B15C21E6E70249E8E761
:10047000641A0020601A002070FE020000B00040E4
:1004800094FE020070B51E4690F8B332044615463D
:100490008BB9022380F8B332012380F8B132074AC6
:1004A000074B00F0F1F838B9324629462046BDE83E
:1004B000704000F0FFB8082070BD00BF60FE020071
:1004C000008793037FB590F8B3320C3B022B0446B0
:1004D0000E4630D8102A30D890F8AE5295422CD122
:1004E00005F26D20C5F11002002120440FF0AEFA94
:1004F0002A46314604F26D200FF09DFA94F8B3328B
:100500000C2B04D1204600F033F904B070BD0E2B43
:100510000CD104F27D21204604F24D236A4600F0FE
:100520008DFA6946204600F02EF9EEE7102384F894
:10053000B3320020E9E70820E7E70920E5E710B536
:1005400090F8B3220B2A04460AD159B1202200F5B3
:1005500000700FF070FA2046BDE81040FFF775BD3F
:10056000082010BD0E2010BD10B590F8B3425CB944
:10057000C0F8B811C0F8BC2119460B2200F2B52012
:100580000FF059FA204610BD082010BD00F0A8BA9F
:1005900070B5044615461E4651B900F0FDFF0146F0
:1005A00030B133462A462046BDE87040FFF76ABFA7
:1005B000062070BD2DE9F0410F4614460546D0B126
:1005C000C9B1C2B1D3B900F0E7FF0646B0B1238A82
:1005D000B3F5805F02D30B20BDE8F081E08A07F01D
:1005E00065F90128F7D123463A4631462846BDE849
:1005F000F041FFF725BC0E20BDE8F0810620BDE8E4
:10060000F08190F8B1320BB9FFF73EBC082070477B
:1006100090F8B1320BB9FFF774BCFFF753BF90F8F5
:10062000B1320BB9FFF78FBCFFF789BF70B5044635
:1006300016460D4621B978460B4B1B687BB198478F
:1006400024B97846084B1B685BB19847D4F8B031A1
:100650003246294620461B68BDE87040184700DE38
:10066000EEE700DEF2E700BF0051002048B103785A
:10067000092B05D8034AD05C431A584258417047A9
:1006800000207047C3FE020010B560B159B152B1ED
:10069000074CA34209D9C0F8B431C0F8AC21C0F866
:1006A000B011002010BD0E2010BD072010BD00BFEE
:1006B000FF86930310B4D0F8B041D0F8B431646829
:1006C000A4465DF8044B604710B4D0F8B021D4685C
:1006D000D0F8B42123465DF8044B1847D0F8B03168
:1006E0001B69184713B5002304468DF80510104602
:1006F0000DF1050101228DF804300FF09CF9022262
:1007000001A92046FFF792FF02B010BD38B505469B
:100710000C46501C01310B220FF08DF92146284662
:100720000C22BDE83840FFF781BF38B505460C46BE
:1007300002F10C00013105220FF07DF92146284617
:100740000622BDE83840FFF771BF30B593B012AC58
:10075000032304F8443D054640220DF105000FF047
:100760006AF9412221462846FFF760FF13B030BDE9
:1007700007B502A9042301F8043D0122FFF756FF43
:1007800003B05DF804FB30B587B006AC052304F870
:10079000143D054610220DEB03000FF04CF9112219
:1007A00021462846FFF742FF07B030BD30B587B07D
:1007B00006AC062304F8143D054610220DF1050091
:1007C0000FF039F9112221462846FFF72FFF07B015
:1007D00030BD07B502A9082301F8043D0122FFF747
:1007E00025FF03B05DF804FB07B509238DF805105C
:1007F000022201A98DF80430FFF718FF03B05DF85D
:1008000004FB2222FFF712BFD0F8AC319B681847D7
:10081000D0F8AC31DB68184773B5194B1B681B0760
:1008200004460D46164618D5164B1B68032B14D9E3
:100830002F2115480FF0DEF9C8B12F2112480FF013
:10084000D9F9411C114B2A78D3F804350192104A8A
:1008500000920420DF2208F063FFD4F8AC311B685B
:1008600032462946204602B0BDE8704018475C2158
:1008700005480FF0BFF908B15C21DFE70249E1E765
:10088000641A0020601A0020CDFE020000B0004073
:10089000EDFE0200D0F8AC315B68184770B5064633
:1008A0008AB014460D4609B308460FF09BF96A4614
:1008B00081B2284608F08AF9042269460DF1220027
:1008C0000FF0B9F8162564BAADF8204006F092F999
:1008D000102201460DEB02000FF0ADF82B4604AAE2
:1008E0000021304609F0C8FE0AB070BD1225EAE7C3
:1008F00070B50E468CB01546044628B97846264B8E
:100900001B68002B39D0984706F0FB03122B05D04B
:100910007846214B1B68002B31D0984725B9784683
:100920001D4B1B686BB398471C4B1B781BB32C22C9
:10093000002101A80FF08AF81022214602A808958C
:100940000FF079F82B785A1E534253418DF8183026
:10095000162E4FF003038DF8043014D10123042226
:1009600004F112010DF11A008DF819300FF063F83F
:1009700001A806F043F90CB070BD00DEC4E700DE4C
:10098000CCE700DED0E7002104220DF11A008DF83B
:1009900019100FF05BF8EBE700510020C0190020A0
:1009A00073B505460A4E68460C4607F0B9FC0023AD
:1009B0002421A34201D302B070BD1DF80300B0FB97
:1009C000F1F201FB1202D2B2B25CEA540133F0E759
:1009D00001FF020037B50D46042104460DEB01006E
:1009E00007F09EFC094B019953F82520B1FBF2F367
:1009F00002FB131304221BBA0DEB020104F10C00DD
:100A000001930FF018F803B030BD00BF28FF0200BB
:100A1000C82808D14868054B18B101221A70002077
:100A20007047187070470720704700BF531B0020A5
:100A3000014B1878704700BF531B00202DE9F0418F
:100A40000446ACB00F46904600F29D21112207A843
:100A50001E460EF0F0FF94F8B13204F5E075402226
:100A60009BBBD4F8B8110DF12D000EF0E4FF40222D
:100A700029460DF16D000EF0DEFF3A4607A89121E0
:100A800008F0A4F803AD04233A46009304F500707F
:100A9000124B0195202108F0B5F83046102107F0DF
:100AA0003FFC3146102207A80EF0C5FF04F26D216D
:100AB00010220BA80EF0BFFF4346202207A92846AC
:100AC00008F022F82CB0BDE8F08129460DF12D0088
:100AD0000EF0B1FF4022D4F8B811CAE74CFF020073
:100AE00038B504460D460EF0C3FB294602462046A3
:100AF0000EF0C2FB012814BF0320002038BD000007
:100B00002DE9F043044697B08946904600F27D21D6
:100B100010220AA81F460EF08EFF94F8B13204F29C
:100B20004D2504F25D261022002B33D129460EA854
:100B30000EF081FF1022314612A80EF07CFF04F562
:100B40000074042502AA0AA8302108F03FF802AA7E
:100B50002046CDF804900095124B202108F052F861
:100B600006AB019302AA104B00952046202108F005
:100B700049F80DF11B010D2240460EF05CFF8DE897
:100B8000A0000A4B02AA2021204608F03BF817B02B
:100B9000BDE8F08331460EA80EF04DFF1022294625
:100BA000CAE700BF51FF020056FF02005BFF0200D0
:100BB00070B50E4600F5E07405460EF059FB01468F
:100BC00020460EF03AFC08B9032070BDD5F8BC51A0
:100BD0000EF04EFB32460346294620460EF08CFBB3
:100BE0000028F1D0002070BD37B590F8AE32013B3F
:100BF000072B04460D4604D97846214B1B686BB180
:100C000098471022002128460EF020FF94F8B432B5
:100C1000022B05D0032B0DD003B030BD00DEF0E772
:100C200094F8AF32013B042BF6D8DFE803F00C0C4C
:100C30000C1C220094F8AF32013B032BECD8DFE808
:100C400003F00202121894F8AE4201210DF10700E0
:100C500007F066FB9DF80710631C91FBF3F203FBA2
:100C60001213EB73D8E794F8AE122846FFF7B2FEE2
:100C7000D2E794F8AE122846FFF792FECCE700BF09
:100C80000051002030B593B002AD04230446009318
:100C900000F27D22114B0195202100F5007007F034
:100CA000B1FF04F25D2110220AA80EF0C4FE04F286
:100CB0006D2110220EA80EF0BEFE06AB0AA9284632
:100CC000202207F021FF102204F28D2106A80EF049
:100CD000A3FEB0FA80F0400913B030BD4CFF020013
:100CE000F8B5154D2B68064623B97846134B1B689B
:100CF00083B19847EFF3108772B62C68B4420BD0DB
:100D00000E4DD4F8A8319E420CD1D6F8A831C4F8C3
:100D1000A83104E000DEEDE7D6F8A8312B6007B972
:100D200062B6F8BD1BB978462B681BB19847D4F85A
:100D3000A841E6E700DEFAE7541B0020005100203E
:100D400010B5044620B978460A4B1B6873B1984722
:100D500094F89930012B0BD12046FFF7C1FF2046B4
:100D60000AF046FA002084F8990010BD00DEEFE793
:100D7000082010BD0051002038B590F89930023B92
:100D8000022B04460D4604D97846144B1B6803B366
:100D900098472046FFF7A4FF94F89830012B04D021
:100DA00078460E4B1B68B3B1984720460AF020FAEC
:100DB000002304F1B80084F8983084F8D83084F81F
:100DC000993007F09BF829462046BDE83840FFF7E8
:100DD0001FBD00DEDDE700DEE7E700BF00510020B9
:100DE0002DE9F0418846911C064615461F460AF03B
:100DF000EDF8044620B36B1C4374292383742A4600
:100E0000414613300EF017FE2771EFF3108772B6CC
:100E1000D6F8A05101356B1CC6F8A05104D1784614
:100E2000094B1B6853B1984707B962B63046256035
:100E300021460AF015F90020BDE8F08100DEF3E755
:100E40000420BDE8F08100BF005100202DE9F041F1
:100E500090F8D830022B88B0044605D07846504B25
:100E60001B68002B5ED0984794F8DB30002B48D1EC
:100E700094F89930032B05D07846494B1B68002B1A
:100E800052D0984794F8D830022B05D07846444B7E
:100E90001B68002B4AD09847D4F8942094F8D93096
:100EA00012BA009294F89B208DF804209DF805203A
:100EB00002F0FC02142B03F102014FF01700B1FB0A
:100EC000F0F161F387021D468DF8052028BF142537
:100ED00094F8DA208DF808201B022A4604F1DC0180
:100EE0000DF10900ADF806300EF0A5FD012305F166
:100EF000090269462046FFF773FF80B9012384F891
:100F0000DB3094F8DB501726022794F8D98008F1DB
:100F10000203B3FBF6F30133DBB29D4208D308B002
:100F2000BDE8F08100DE9FE700DEABE700DEB3E75F
:100F30006B1E03EB4301C3EBC101D4F894301431B1
:100F400089B21BBAA8EB0108009394F89B308DF886
:100F500004301FFA88F89DF80530B8F1170F28BF44
:100F60004FF0170867F30103DC3165F3870342464E
:100F700021440DF106008DF805300EF05CFD0123D3
:100F800008F1060269462046FFF72AFF0028C6D16D
:100F900094F8DB30013384F8DB300135B5E700BF6E
:100FA0000051002000B5D0F8943089B01BBA0093EE
:100FB00000238DF804309DF805308DF806100222CC
:100FC00043F0030362F387038DF8053007220423FF
:100FD0006946FFF705FF09B05DF804FB38B50D461B
:100FE000044620B97846184B1B68FBB19847022D80
:100FF00004D97846144B1B68D3B1984794F89930BC
:1010000013F0FB0F1ED0023B012B04D978460E4B88
:101010001B687BB1984729462046FFF7C3FF58B9A4
:10102000042384F8993084F89C5038BD00DEDEE754
:1010300000DEE3E700DEEEE729462046BDE8384063
:10104000FFF79ABE38BD00BF0051002000B5D0F8B0
:10105000943089B01BBA00938DF804100123062246
:1010600069468DF80530FFF7BBFE09B05DF804FB5B
:1010700000B589B0D0F894309DF805201BBA0093D4
:1010800000238DF8043042F00302012363F387024A
:101090008DF8052069460622FFF7A2FE09B05DF82B
:1010A00004FB08460121FFF719BB10B5044606F002
:1010B000E1FFD4F8D410014404F1B800BDE81040B9
:1010C00006F04EBFD0F8A0318B4206D1012380F844
:1010D000A431024B186807F087BC7047C419002080
:1010E00037B591F89930032B05460C464ED191F84F
:1010F000D830022B4AD1D1F8D0301B1A002B14DA89
:1011000001212046FFF74EFF48B9042384F89930A7
:10111000012384F89C30C4F8AC0003B030BD1D4BF3
:10112000C4F8AC30C4F8D050F7E71B4B1B681B0762
:101130001AD51A4B1B68042B16D92F2118480EF00C
:1011400059FDD0B12F2116480EF054FD411C154B0E
:1011500094F8DC20D3F804350192134A009205205C
:1011600040F2953208F0DCFA0023204684F8DB30A8
:1011700003B0BDE83040FFF769BE5C2108480EF0BF
:1011800039FD08B15C21DEE70549E0E70023C4F83A
:10119000AC30C2E740420F00641A0020601A002001
:1011A0000E03030000B000403103030013B50446F2
:1011B000EFF3108372B6174A1168C0F8A8111060D7
:1011C00003B962B6144B1B681B0718D5134B1B6879
:1011D000032B14D92F2112480EF00CFD88B12F21BA
:1011E0000F480EF007FD411C0E4B0F4AD3F8043593
:1011F000009201944FF4B572042008F091FA02B005
:1012000010BD5C2106480EF0F5FC08B15C21E7E753
:101210000349E9E7541B0020641A0020601A0020EB
:101220000E03030000B0004060FF0200F0B50E4660
:1012300089B01746044628B97846344B1B68002B02
:1012400060D0984794F89830012B03D194F89930E6
:10125000002B59D1012384F898302D4BC4F8A830C5
:1012600000252C4B84F8D85004F5907284F89B50DC
:1012700084F89A5084F89950C4F8A051C4F8C0304A
:10128000C4F8C45080232449C4F8B0402046C4F8B0
:10129000D470C4F8C84009F0D7FF042104F19400C9
:1012A00007F03EF8802384F89A30D4F8943084F81C
:1012B0009B501BBA00939DF805308DF8045043F005
:1012C000030365F38703102231460DF106008DF804
:1012D00005300EF0B0FB0423162269462046FFF7C6
:1012E0007FFD054658B92046FFF7DFFE204609F08E
:1012F00053FE2046FFF75AFF022384F89930284610
:1013000009B0F0BD00DE9DE70825F8E70051002098
:10131000E1100200A3100200C510020038B5124B04
:101320001C68002504B938BD94F8A43193B194F831
:10133000993084F8A451042B94F8D8300DD1022BA5
:1013400003D104F1A00006F0D9FD94F89C102046CA
:10135000FFF712FDD4F8A841E4E7022BFAD12046AA
:10136000FFF774FDF6E700BF541B00202DE9F041A4
:101370000E4617469846044628B97846314B1A68F7
:10138000002A58D0904794F89830012B03D194F854
:101390009930002B53D1012384F898302A4BC4F89C
:1013A000A8300025294B84F8D85084F89B5084F845
:1013B0009A5084F89950C4F8A051C4F8C030C4F8C9
:1013C000C450802304F590722149C4F8B0402046EF
:1013D000C4F8D480C4F8C84009F036FF8023C4F8AC
:1013E000945084F89A5084F89B303A46314620460F
:1013F000FFF754FA054620B97846124B1B68E3B153
:101400009847FF232B714FF0FF332B6020464FF49A
:10141000FA6109F0B9FE2946204609F021FE20466E
:1014200009F0BAFD2046FFF7C1FE012384F8993088
:101430000020BDE8F08100DEA5E700DEE1E708203E
:10144000BDE8F08100510020E1100200A31002006D
:10145000C510020030B5074D0246FF23141AA14201
:1014600002DCD843C0B230BD12F8014B6340EB5CE4
:10147000F4E700BF8CFF02002DE9F04190F89930AD
:10148000032B04460E4617463FD1412A40D890F818
:10149000D850002D3FD1FFF708FE06F0EBFDB91C38
:1014A0001723B1FBF3F10131CBB2A16E594301F522
:1014B000F4111A4BC4F8A83001F590618046C4F8C5
:1014C000AC10014404F1A00006F04AFD144BC4F82E
:1014D000B0404344C4F8D030022384F8D8303946B1
:1014E00084F8DB5084F8D9703046FFF7B3FF3A46F2
:1014F00084F8DA00314604F1DC000EF09CFA204654
:10150000FFF7A4FC2846BDE8F0810820BDE8F08183
:101510000920BDE8F0811120BDE8F081E110020052
:1015200080C3C9012DE9F0410B78012B92B005462B
:101530000C46164604D07846164B1B682BB39847CA
:1015400004F1040861784046FFF784FFA3788342E2
:101550001DD195F89A10284600270136FFF776FD31
:10156000E77085F89A6066784146324601A80EF029
:1015700062FA28462770FFF798FD324601A92846EF
:10158000FFF74AF912B0BDE8F08100DED8E700238A
:101590002370F7E70051002010B5054C2368013394
:1015A00003D1044807F0F8F92060034810BD00BFDC
:1015B000C41900201D1302008C0003002DE9FF4117
:1015C00088461446054620B97846A34B1B6833B3BA
:1015D000984724B97846A04B1B6813B398472B68EB
:1015E0001A0E190242EA036201F47F011B0A0A4340
:1015F00003F47F431343EFF3108172B6974E3468C0
:101600008CB901B962B6687900F00303032B00F2CC
:10161000F180DFE813F00F003501AA01350200DE8A
:10162000D7E700DEDBE7D4F894209342E9D0D4F882
:10163000A841E5E7002C00F0DD8094F89930032BF9
:1016400040F0D88094F8D830002B62D12A7994F8F1
:101650009A309A4231D3EB881B0A84F8D93017228A
:101660000233B3FBF2F30133DBB2072B06D90221BD
:10167000204604B0BDE8F041FFF7B0BC2B7A84F8F7
:10168000DA30A8F10908012384F8D83084F8DB3077
:10169000424605F1090104F1DC000EF0CCF994F8A2
:1016A000D930984540F0A6802A7904F1D801204627
:1016B00004B0BDE8F041FFF735BF694B1B681A075E
:1016C00017D5684B1B68042B13D92F2166480EF0E1
:1016D00091FAA8B12F2164480EF08CFA411C634B9B
:1016E000634AD3F80435009240F2A322052008F0A3
:1016F00017F82979204604B0BDE8F041FFF7A6BCF1
:101700005C2159480EF076FA08B15C21E3E75649AE
:10171000E5E7022B524B79D1297994F89A201B687E
:10172000914220D21B07E4D54E4B1B68042BE0D915
:101730002F214D480EF05EFA60B12F214A480EF07D
:1017400059FA411C494B4A4AD3F80435009240F2F9
:10175000AF22CBE75C2144480EF04CFA08B15C2183
:10176000ECE74149EEE726D91F0743D53D4B1B68FF
:10177000012B3FD92F213C480EF03CFA90B12F218C
:1017800039480EF037FA411C384B94F89A20D3F8B8
:10179000043502922A790192364A00924FF42D7252
:1017A000022025E05C2130480EF024FA08B15C21CB
:1017B000E6E72D49E8E71E071CD52A4B1B68042BDA
:1017C00018D92F2128480EF015FAB0B12F2126483C
:1017D0000EF010FA411C254B94F89A20D3F80435EA
:1017E00002922A790192244A009205204FF42E7227
:1017F00007F096FF04B0BDE8F0815C211A480EF0B6
:10180000F9F908B15C21E2E71749E4E71B681C0716
:10181000F0D5144B1B68012BECD92F2112480EF088
:10182000E9F978B12F2110480EF0E4F9411C0F4B73
:10183000124AD3F80435009240F2BD22022007F08C
:101840006FFFD7E75C2108480EF0D4F908B15C219E
:10185000E9E70549EBE700BF00510020541B0020D9
:10186000641A0020601A00200E03030000B000403C
:10187000A0000300F00003003A010300730103001D
:10188000002CB7D094F89930032BB3D194F8D8300A
:10189000022BAE4B45D1297994F89B20914240D13F
:1018A0001B6818071AD5AA4B1B68032B16D92F21C2
:1018B000A8480EF09FF958B32F21A6480EF09AF9C8
:1018C000411CA54B94F8DC20D3F804350192A34ABF
:1018D000009204204FF43E7207F022FF002504F12D
:1018E000A000C4F8AC5006F009FB204609F080FCCB
:1018F00094F89B3084F8D8500133204684F89B300C
:10190000FFF7D3FB204604B0BDE8F041FEF7C2BFAD
:101910005C2190480EF06EF908B15C21CDE78D494D
:10192000CFE71B6819077FF565AF894B1B68012B53
:101930007FF660AF2F2187480EF05CF960B12F2150
:1019400084480EF057F9411C834B854AD3F804357F
:10195000009240F20A3271E75C217E480EF04AF9AB
:1019600008B15C21ECE77B49EEE7002C3FF442AF85
:1019700094F89930032B7FF43DAF94F8D86029791F
:1019800094F89A30012E4CD1994225D194F8DB304D
:1019900080080341DA073FF52DAF1727013807FB11
:1019A0000040A8F10602A91DF0300EF044F86B7952
:1019B00094F8DB209B0806FA03F3134394F8D9202C
:1019C0000232B2FBF7F70137DBB2FFB284F8DB304B
:1019D000BE400133B34265E65C4B1B681B077FF5D5
:1019E00009AF5B4B1B68012B7FF604AF2F215948D1
:1019F0000EF000F960B12F2156480EF0FBF8411CA3
:101A0000554B584AD3F80435009240F2E22215E7CC
:101A10005C2150480EF0EEF808B15C21ECE74D492E
:101A2000EEE79942FFF466AE7FF6E4AE474B1B68E3
:101A30001F077FF5DFAE464B1B68012B7FF6DAAE42
:101A40002F2144480EF0D6F888B12F2141480EF0DE
:101A5000D1F8411C404B94F89A20D3F804350292F7
:101A60002A790192404A009240F2EE2298E65C21E7
:101A700038480EF0BFF808B15C21E7E73549E9E7DF
:101A80008008012874D023D3022800F0D2802F4B85
:101A90001B681B077FF5AEAE2D4B1B68012B7FF635
:101AA000A9AE2F212B480EF0A5F8002800F02681C2
:101AB0002F2128480EF09EF8411C6A79264B920887
:101AC000D3F804350192294A00924FF45B72A3E0E7
:101AD000B8F1160F7FF48EAE05F08CF81022014697
:101AE000A81D0DF099FF00287FF484AE002C40F073
:101AF0001381EFF3108372B634681CB9002B00F029
:101B0000078177E694F89920012A00F00081D4F843
:101B1000A841F2E75C210F480EF06CF808B15C2197
:101B200027E10C4929E10023C4F8943062E6032B35
:101B30007FF460AE94F8D830002B7FF45BAE204683
:101B400004B0BDE8F041FFF793BA00BF641A00206B
:101B5000601A00200E03030000B00040A50103003E
:101B6000C0010300E001030011020300E7020300CB
:101B7000002C3FF43FAEB8F1060F7FF43BAE94F873
:101B80009930894D022B2AD1204609F031FB1421CE
:101B9000204609F0F9FA2B681D0740F1F880834BC5
:101BA0001B68032B40F2F3802F2181480EF022F8AE
:101BB00060B12F217E480EF01DF8411C7D4B7E4AFE
:101BC000D3F8043500924FF45272DDE05C2178487E
:101BD0000EF010F808B15C21ECE77549EEE72B68D0
:101BE00018077FF507AE714B1B68012B7FF602AE1D
:101BF0002F216F480DF0FEFF90B12F216C480DF0A2
:101C0000F9FF411C6B4B94F89920D3F804350192ED
:101C10006A4A00924FF45472022007F081FDE9E510
:101C20005C2163480DF0E6FF08B15C21E6E76049FE
:101C3000E8E7002C3FF4DEADB8F1070F7FF4DAAD32
:101C400094F89930584E023B012B30D894F8D83094
:101C5000022B03D104F1A00006F050F9A979204627
:101C6000FFF78AF8336819077FF5C4AD4F4B1B683F
:101C7000032B7FF6BFAD2F214D480DF0BBFF68B1A0
:101C80002F214B480DF0B6FF411C4A4B4C4AD3F86C
:101C900004350092042040F26232D0E55C214448D1
:101CA0000DF0A8FF08B15C21EBE74149EDE733688F
:101CB0001A077FF59FAD3D4B1B68012B7FF69AAD50
:101CC0002F213B480DF096FF78B12F2138480DF0B9
:101CD00091FF411C374B94F89920D3F804350192B9
:101CE000384A009240F2673296E75C2130480DF0A6
:101CF00081FF08B15C21E9E72D49EBE75C212C4825
:101D00000DF078FF08B15C21D3E62949D5E61BB96F
:101D100062B6002C3FF46EAD94F89930012B7FF43D
:101D200006AF2B681A0E190242EA036201F47F0122
:101D30001B0A0A4303F47F4313432046C4F894303C
:101D4000142109F021FA2046FFF792F900287FF4C8
:101D5000EAAE154B1B681E0719D5144B1B68032BE5
:101D600015D92F2112480DF045FF00283FF4D2AEBF
:101D70002F210F480DF03EFF411C0E4B0E4AD3F8A9
:101D80000435009240F22B32042007F0C9FC0323F3
:101D9000204684F89930FFF788F9204604B0BDE862
:101DA000F041FEF731BD00BF641A0020601A002028
:101DB0000E03030000B00040570203006D02030051
:101DC0009E020300B402030038B5837803F00302D7
:101DD0000446032A22D8DFE802F00214191D9B08EA
:101DE000174A1848126813440268A36000210AB316
:101DF00095685D1B002D1ADAF1B91146E1600460A7
:101E000038BD9B0803EB83035B00E9E79A08642372
:101E10005343E5E79A0841F27073F9E778460A4BB5
:101E20001B6813B198470023DAE700DED8E71146B4
:101E3000D268DCE70029E1D0CC60E26038BD00BFA9
:101E4000701B0020781B00200051002008B50328DB
:101E500009D8DFE800F011020406084808BD084868
:101E600008BD084808BD7846074B1B6813B1984762
:101E7000002008BD00DEFBE7044808BD40420F001B
:101E8000809698000046C32300510020A0860100E0
:101E90002DE9F041574D2B78A3B1574B574E5C6855
:101EA00006F0E8F8241A3078FFF7D0FF3278544B68
:101EB000001B002A40D14CF2503290423CD91A68A3
:101EC00001321A60DFF84881D8F80020002A00F0BB
:101ED00087804A4E9378307803F003038342344678
:101EE00064DD474B97681B68FB1A464F5F43FFF75B
:101EF000ADFFD8F80030B7FBF0F09F78C7F30107CB
:101F0000FBB2022B1FD031D8012B47D10A22B0FBE4
:101F1000F2F302FB1300002840D106F0ABF800F505
:101F2000742101F5107137702B78002B50D0324896
:101F3000BDE8F04106F014B81A683249B0FBF1F080
:101F400010441860BEE7337863B96422B0FBF2F343
:101F500002FB130010BB06F08DF82B49022301444D
:101F60002370E1E7012B19D10A22EFE7337863B937
:101F700041F27072B0FBF2F302FB130070B906F08D
:101F800079F8224903230144EAE7012B02D14FF4F7
:101F90001672EFE7022B01D13C22EBE706F06AF85C
:101FA00006462078FFF752FF3118BDE706F062F8C9
:101FB000D8F800300446987800F00300FFF746FF99
:101FC000D8F800309B78C3F3010321183370ABE7D6
:101FD000094801232B704160BDE8F04105F066BF60
:101FE0002B7823B10448BDE8F04105F087BFBDE878
:101FF000F08100BF741B0020581B0020751B0020BF
:10200000701B0020A0860100809698000046C32324
:10201000781B00202DE9F341284B1B78032B2AD88D
:10202000DFE803F0021B1F23254A13680133136006
:10203000244B254E224D00221A70B04634683CB124
:10204000A3682A6893421ED02A689B1A002B1ADBC9
:10205000FFF71EFF02B0BDE8F081194A13680A338A
:10206000E5E7174A13686433E1E7154A136803F597
:10207000BB531033DBE77846144B1B680BB1984712
:10208000D6E700DED4E72788E368C8F8003002A965
:10209000002341F8043D384600F05AFF20B178464D
:1020A0000A4B1B6843B198473846636801999847C3
:1020B0002046FFF789FEC1E700DEF5E7751B00202B
:1020C000701B0020741B0020781B00200051002092
:1020D00010B5084C1822002120460DF0B7FC064B25
:1020E000064AA36000231360054A1360054A137073
:1020F00010BD00BF581B002015200200701B0020DF
:10210000781B0020741B0020F8B50F4616460446C5
:1021100020B97846154B1B68FBB19847144D06F063
:10212000F9FB2B6800220BB1A34218D1A17867F309
:10213000010166F38701A170ABB1DB6892B92B6036
:102140002EB12046FFF740FE2B689C4201D1FFF7DD
:102150009FFEBDE8F84006F0FFBB00DEDEE71A4652
:10216000DB68E0E7D360002EF3D0EAE700510020FF
:10217000781B002070B50E461546044620B97846F7
:10218000074B1B684BB19847A378C3F30103337027
:10219000A378C3F385032B7070BD00DEF4E700BFA6
:1021A000005100204A09012301F01F0103FA01F147
:1021B00050F82230194214BF0120002070474FF61A
:1021C000FF72B2EB104F82B083B215D113F47F408F
:1021D00007D003F44043B3F5004F14BF00200120A3
:1021E00006E023F07F022AB97F3B18BF012318467F
:1021F00002B070470346FAE723F03F03C02BECE739
:1022000028B9044B93F8300000F00100704700201B
:10221000704700BFB81B00207846034B1B6803B112
:10222000184700DE704700BF005100200047000043
:1022300008B5064B064801221A7007F033FE20B19C
:102240000448BDE8084008F011B808BDB41B0020E0
:10225000901B0020D8190020F8B506F05BFB3B4B23
:102260001B78002B6FD13A4D2B786BB906220121D8
:10227000384807F05FFE08B301240222C2800481BF
:10228000848007F093FE2C70334C237803F0030313
:10229000032B0FD104224FF440512E4807F04AFE81
:1022A00060B16368DB43436007F080FE237823F06E
:1022B00002032370002402E0112418E01124274DAA
:1022C000244F0026B1B2C4B96B799B070FD5022207
:1022D00041F48051384607F02DFE0028ECD02A88C2
:1022E000828007F063FE6B7923F002036B71013685
:1022F000022E05F10605E5D11CB1194807F0B6FF1D
:102300001DE0184C94F8303003F00303032B16D172
:1023100014224FF400510F4807F00CFE0546002828
:10232000EBD01422214604300DF085FB284607F03F
:102330003DFE94F8303023F0020384F83030BDE8DD
:10234000F84006F009BB0824B9E700BFB41B002021
:10235000B51B0020901B0020EC1B00207C1B0020E4
:10236000E8190020B81B002010B50C4C34220021C5
:1023700020460DF06BFB0C22002109480DF066FB96
:102380000822002107480DF061FB4FF6FF73012280
:10239000E380A380E281A38110BD00BFB81B0020B1
:1023A0007C1B0020EC1B002010B586B00E4B039365
:1023B0000E4B04930E4B05930423029301F020FC73
:1023C0000C4CA0F580500123009069460A48019307
:1023D000237007F027FE20B1084807F047FF06B03A
:1023E00010BD2070FBE700BF4D240200192202003F
:1023F00001240200B41B0020901B0020C8190020FB
:102400000F4A1378D80744BF43F0020313700D4BF3
:102410001A881AB15A7942F002025A71DA881AB14E
:10242000DA7A42F00202DA72074A92F83030D907BB
:1024300044BF43F0020382F83030FFF7B5BF00BF5E
:10244000EC1B00207C1B0020B81B002030B5012AAB
:102450008DB004460D4606D17846104B1B68D3B1AB
:1024600098470DB030BD022AF6D0032AF9D12C22AC
:10247000002101A80DF0EAFA19238DF80430022397
:102480008DF80830E368059301A823690395069346
:1024900004F0B4FBE5E700DEE3E700BF00510020F5
:1024A000F7B5037D012B04463ED101A801F07EFC67
:1024B000E38ABDF80420934234D3BDF806101144DA
:1024C0008B422FDA3C4D95F83010C9072AD59B1A5C
:1024D000AA899BB29A4225D1618C05F10800FFF7C9
:1024E00061FEF8B1B4F800E061882F8D6A6A0023BC
:1024F0009F4217D932F8330070454FEAC30601D026
:102500000133F5E7901940888842F9D1EA6A2146FB
:10251000002000F017FE6B6A33445B68EA6A2146CC
:102520000020984703B0F0BD4FF6FF7301A91430A7
:10253000ADF8043001F036FD28B178461F4B1B681A
:10254000002B30D09847BDF8040001F07BFC20B987
:1025500078461A4B1B6843B39847174D95F83030AF
:10256000DB07DFD5EE89002EDCD1618C05F1080098
:10257000FFF718FE0028D5D0BDF804101048FFF76B
:1025800011FE0028CED0696A27886088B5F828E057
:102590000A4633467345C5D231F83360BE4206D091
:1025A00001330832F6E700DECDE700DED5E75688D6
:1025B0008642F5D15368B1E7B81B002000510020D6
:1025C000F01B002070B503788CB00646002B75D147
:1025D00043681C7804F0C002402A0ED003D862B1D0
:1025E00000252C460EE0802A6AD0C02AF8D15A78FD
:1025F0009D78A4B245EA022504E0A4B27F2C5DD008
:102600004FF6FF75374B1B689B0419D5364B1B687B
:10261000042B15D92F2135480DF0ECFA002853D0A2
:102620002F2132480DF0E6FA411C314B314AD3F8E4
:1026300004350092019440F22312052007F070F84F
:10264000306A01F001FD4FF6FF729542ADF80C4083
:10265000ADF80E50736840D1FF2C8CBF02220122CE
:1026600013444FF6FF7295420493338937D1FF2C00
:102670008CBF022201229B1AADF81430337B8DF8F7
:102680001830F389ADF81A3033690793337D8DF82C
:102690002030F38AADF82230B3690993B36A5A68DF
:1026A0000A9293F90D308DF82C30ADF82E0096F883
:1026B00024308DF82D3003A8FFF7F2FE0CB070BD6A
:1026C0005B7843EA04249BE75C2108480DF092FA0A
:1026D00008B15C21A5E70549A7E70322C0E703226B
:1026E000C9E700BF641A0020601A002045030300F8
:1026F00000B00040610303002DE9F04F93B00B8957
:10270000B3F5BE7F02AF83460C46904680F08480CE
:10271000FFF776FD002800F081809F4A342303FBF9
:102720000B2391469989012978D8B8F1000F07D178
:1027300099884FF6FF72914207D0DB88934204D00C
:102740002068FFF73CFD00286CD1072539E0D888C8
:10275000B3F804A0F881314601F08EFB002800F0A8
:10276000858078468D4B1B680BB198477EE000DE74
:102770007CE07B8A0B449A4280F28D8024220021E7
:1027800040460DF063F92368FB6163683B6296E89D
:1027900003002389BB84012387F8283007F1300325
:1027A00083E803007D8505F065FCB863404687F843
:1027B0003D90A7F83EA0FFF773FE3B7D012B6AD149
:1027C000002528464437BD46BDE8F08FF8894FF60E
:1027D000FF7398425FD001F035FB0028CED15AE05C
:1027E00003226AE000DE7DE0032590E011F47F4FD4
:1027F0001DBF0D0A8BF800508BF801108BF80010EC
:1028000093E003209BE05C2165480DF0F3F908B1EB
:102810005C21AEE06249B0E00925D2E70525D0E7AA
:102820001025CEE707F1100001F0C0FA342303FBB6
:102830000B937A8A9D89AA42F2D93A8A1544ADB29D
:1028400007F11406B8F1000F81D0B8F822A008F102
:102850000C0898E8030086E8030007F10E014046E3
:1028600001F0A0FB10B14FF6FF73FB81342303FB93
:102870000B9907F11C0899F81090B9F1FF0F04BFEC
:10288000484B93F800903B7D012B9FD1FA8A398AFF
:102890008A42BFF46EAF202200214046C7F804D020
:1028A0000DF0D4F8618823884FF6FF72914297D1DA
:1028B000B3F5807F34BF01220222238913440733FA
:1028C00023F00703ADEB030D07F1300150460DF186
:1028D000080B01F0B1FD28B17846304A1268002A91
:1028E00080D0904796E8030088E803006088BD84A4
:1028F0004FF6FF75A84287F82690C7F828B02289BE
:1029000021887FF471AFFF298CBF02250125154472
:10291000BD854FF6FF75A8423FF468AF050A8BF8F6
:1029200000108BF801508BF802004FF6FF75A8429B
:102930007FF467AFB1F5807F34BF0120022061686A
:1029400058440DF078F80021404605F04FF8054650
:10295000F8B9154B1B689B041BD5144B1B68042B43
:1029600017D92F210E480DF045F900283FF44BAF41
:102970002F210B480DF03EF9411C0D4B2288D3F856
:10298000043501920B4A0092052040F2C51206F070
:10299000C7FED7F804D014E7B81B00200051002070
:1029A00045030300F8190020641A0020601A002073
:1029B00000B000407403030008B5FFF7D5FC00F039
:1029C000FDFBBDE80840FFF733BC000008B5FFF78A
:1029D000CBFC0648064B036005F0F1F800F0E0FB85
:1029E000FFF776FBBDE80840FFF7DEBC881B002040
:1029F000C525020011B10022FFF77EBE0E207047F0
:102A000008B50246FFF7FCFB88B1172911D80A4820
:102A1000342303FB0200C3888B4206D090F8303089
:102A2000C18043F0020380F83030002008BD05204B
:102A300008BD072008BD00BFB81B002008B502462E
:102A400051B1FFF7DDFB48B1054B342000FB0232EA
:102A50000020D3880B8008BD0E2008BD052008BDCE
:102A6000B81B002038B528BB154B93F8304014F044
:102A7000010F1C461ED09D69F5B13F2A1ED80329BF
:102A80001CD85B7CB2EB930F03D103F003038B42A2
:102A900015D0637C0B4862F3870361F30103637411
:102AA000FFF732FB94F8303043F0020384F8303003
:102AB000002038BD052038BD062038BD072038BDB0
:102AC000B81B0020CC1B002010B5044679B172B1B0
:102AD000FFF796FB68B1094834236343C418A4691F
:102AE0004CB114331844FFF745FB002010BD0E20F5
:102AF00010BD052010BD062010BD00BFB81B002072
:102B0000F8B502460F46FFF77BFBE8B1124B3421C4
:102B100001FB0232D689012E18D0172F18D80F4C7E
:102B2000F500043539466019FFF73CFB90B90123E5
:102B300003FA07F163590B43635114F8363043F03D
:102B4000020304F83630F8BD0520F8BD0620F8BDB4
:102B50000720F8BD0020F8BDB81B0020EC1B0020AA
:102B6000F8B502460F46FFF74BFBF8B1124B342184
:102B700001FB0232D689012E1AD0172F1AD80F4C1A
:102B8000F500043539466019FFF70CFB98B10123B5
:102B900003FA07F1635923EA0103635114F836304D
:102BA00043F0020304F836300020F8BD0520F8BDDC
:102BB0000620F8BD0720F8BDB81B0020EC1B002044
:102BC0002DE9F843044617460E4631B32AB3FFF702
:102BD00017FB28B31748342303FB0400C389012BD8
:102BE00021D00024DFF85090B2F800801480054610
:102BF000EB8963B921464846FFF7D4FA38B13B88E0
:102C0000984513D926F813403B8801333B800134A3
:102C1000182CEDD10020BDE8F8830E20BDE8F88324
:102C20000520BDE8F8830620BDE8F8830920BDE84B
:102C3000F88300BFB81B0020F01B0020F8B5024647
:102C40000F46FFF7DDFAC0B10A2918D834250E4C1B
:102C5000554305F10806A019FFF7A4FA88B9012326
:102C600003FA07F1A3590B43A3512C4494F83030D5
:102C700043F0020384F83030F8BD0520F8BD07208A
:102C8000F8BD0020F8BD00BFB81B0020F8B5024613
:102C90000F46FFF7B5FAD0B10A291AD834250E4CE1
:102CA000554305F10806A019FFF77CFA90B10123FE
:102CB00003FA07F1A35923EA0103A3512C4400208E
:102CC00094F8303043F0020384F83030F8BD05202A
:102CD000F8BD0720F8BD00BFB81B00202DE9F0416A
:102CE000064615460F46F9B1F2B1FFF789FAF0B181
:102CF0000024124BB2F800801480342202FB063606
:102D0000083621463046FFF74DFA38B12B889845F2
:102D100010D927F813402B8801332B800134082C5D
:102D2000EFD10020BDE8F0810E20BDE8F081052044
:102D3000BDE8F0810920BDE8F08100BFB81B00208C
:102D400008B50246FFF75CFA88B10A2911D80A488B
:102D5000342303FB020083888B4206D090F8303086
:102D6000818043F0020380F83030002008BD052048
:102D700008BD072008BD00BFB81B002008B50246EB
:102D800051B1FFF73DFA48B1054B342000FB023248
:102D9000002093880B8008BD0E2008BD052008BDCB
:102DA000B81B002008B50246FFF72AFA98B181F057
:102DB00080037E2B11D90A48342303FB0200037CD5
:102DC0008B4206D090F83030017443F0020380F853
:102DD0003030002008BD052008BD072008BD00BF19
:102DE000B81B002008B5024651B1FFF709FA48B1F7
:102DF000054B342000FB02320020137C0B7008BD11
:102E00000E2008BD052008BDB81B0020012810B504
:102E10000DD80623074A58431418135A8B4204D07E
:102E20006379115243F002036371002010BD052045
:102E300010BD00BF7C1B002041B1012808D806232B
:102E40005843044B1B5A0B80002070470E207047DC
:102E5000052070477C1B002049B1012809D8064B8A
:102E6000062202FB003083780B70002070470E2092
:102E700070470520704700BF7C1B002049B1012826
:102E800009D8064B062202FB0030C3780B700020E5
:102E900070470E2070470520704700BF7C1B002044
:102EA00008B5024661B1FFF7ABF958B13420504381
:102EB000054B1A181B5A0B8053884B80002008BD05
:102EC0000E2008BD052008BDB81B002082B001916E
:102ED000C2B1012802D9052002B070474FF6FF7336
:102EE0001380094B99898142F5D11888BDF80410E7
:102EF0008842F0D15988BDF806309942EBD10020C4
:102F00001080E9E70E20E7E7B81B002030B5044643
:102F1000A1B19AB1012813D81388002010808BB179
:102F20000A4D95F8303013F001030DD0AB89A34260
:102F30000BD1088013880133138030BD0E2030BDC3
:102F4000052030BD092030BD184630BDB81B00201B
:102F500008B5024651B1FFF753F948B1054B34208B
:102F600000FB02320020D36A0B6008BD0E2008BDB2
:102F7000052008BDB81B002038B52D4C282303FBC5
:102F80000043054693F83C302BB97846294B1B6823
:102F9000002B3DD09847B4F840302BB97846254BEC
:102FA0001B68002B36D09847282202FB05420023DD
:102FB00082F83C30B4F84030013B9BB2A4F840307A
:102FC000002B2ED0B4F84230AB422FD194F83C30D5
:102FD00013B3616B184B526B0B449B1ADB43DB0F33
:102FE0005B429BB24FF6FF729342A4F8423004D189
:102FF0007846104B1B6893B19847B4F842300C48A0
:10300000282202FB0344616BBDE8384004F0A8BFEE
:1030100000DEC0E700DEC7E74FF6FF73E2E700DE41
:10302000EBE70348BDE8384004F068BF38BD00BF97
:10303000F41B00200051002000796CFC37B53E4C99
:10304000B4F8403005462BB978463C4B1B68002B42
:103050003DD098474FF6FF73A4F8423094F83C30C7
:10306000E3B1E26A05F57A71521A002A33DA0023D5
:1030700084F83C30B4F84030208B013B01A9A4F81F
:103080004030FFF765FF20B178462C4B1B6803B337
:103090009847236B0199208B01229847B4F8403060
:1030A000002B47D0B4F842302BB17846234B1B6835
:1030B000002B3DD09847B4F84230282202FB03434E
:1030C0005B6B5A1B48BFEA1AE26003B030BD00DEFA
:1030D000C0E700DEDDE7636B5B1A002B24DA1849DA
:1030E000208BFFF787FC0023A4F8423060B9A36B64
:1030F000626B1A445B006263A363E26A636BD31A78
:10310000002BCBDA6263C9E7042805D1636B03F5B2
:103110001C4340336363C1E77846084B1B680BB11F
:103120009847EAE700DEE8E70023A4F84230B5E775
:1031300000DEC0E7E360C8E7F41B00200051002078
:10314000101C0020F8B50E461746054620B17846FB
:10315000114B1B68EBB19847104C05F0DBFB94F862
:103160003C3093B1238BAB420FD1228D33889A42EE
:103170000BD1628D73889A4207D10020FFF7FCFEC5
:10318000236B0022394628469847BDE8F84005F0F1
:10319000E3BB00DEE0E700BF00510020F41B00208D
:1031A00010B5044C4422002120460CF04FFC024B89
:1031B000A36010BDF41B00203D30020008B505F0EF
:1031C000A9FB0948B0F8403023B10023A0F84030F3
:1031D00004F094FE2822002104480CF037FCBDE8DE
:1031E000084005F0B9BB00BFF41B00200C1C0020F8
:1031F0004A09012301F01F0103FA01F150F82230BE
:10320000194214BF0120002070474A09012301F030
:103210001F0103FA01F150F822300B4340F822302D
:1032200070474A09012301F01F0103FA01F150F828
:10323000223023EA010340F822307047F0B501F153
:103240001F046409651E00230126A34201D1012049
:10325000F0BDAB4204BFA1EB431206FA02F250F8F4
:1032600023700CBF02F1FF324FF0FF323A4201D11E
:103270000133EAE70020F0BDA0F1100189B207296F
:1032800002D80248FFF7B4BF00207047481C002056
:103290002DE9F0474FF6FF73DFF84480DFF84490E4
:1032A0000B8007460D4600241E464FF05C0A21465F
:1032B0004046FFF79DFF40B10AFB04F333F80930A5
:1032C000BB4206D12C80BDE8F0872B88B34208BFF3
:1032D0002C800134042CEAD10020BDE8F08700BF27
:1032E000D01D0020D81D00202DE9F0474FF6FF73B8
:1032F000DFF84880DFF848900B8007460D46002431
:103300001E464FF0160A21464046FFF771FF48B1AE
:103310000AFB04F333F80930BB4209D108342C808E
:10332000BDE8F0872B88B34204BF04F108032B806B
:103330000134032CE7D10020BDE8F087481D0020B0
:10334000501D00202DE9F0474FF6FF73DFF8448051
:10335000DFF844900B8007460D4600241E464FF0D0
:10336000160A21464046FFF743FF40B10AFB04F32B
:1033700033F80930BB4206D12C80BDE8F0872B889A
:10338000B34208BF2C800134082CEAD10020BDE8EC
:10339000F08700BF901C0020981C0020024B33F8DF
:1033A00020300B80704700BF501C002010B5044631
:1033B00020B97846044B1B6823B198472346BDE8E3
:1033C0001040184700DEF9E7005100202DE9F041D8
:1033D000A3F1080516240E4E6C430746A01D88462F
:1033E0003044114610220CF026FB331900225A718A
:1033F00001222946A3F8028006481A713753FFF7C5
:1034000004FF29460448BDE8F041FFF7FEBE00BFB7
:10341000501D0020481D00204C1D002010B40C46FB
:1034200000F108030A1D208849885DF8044B9BB20F
:10343000FFF7CCBF70B516244443074E0D46A11DBF
:1034400010223144281D0CF0F6FA325B2A80331921
:103450005B886B8070BD00BF501D002070B51624C6
:103460004443074E0D46A11D10223144281D0CF087
:10347000E2FA325B2A8033195B886B8070BD00BF33
:10348000981C002070B55C244443054E0D46A11CD9
:1034900010223144A81C0CF0CEFA335B2B8070BD97
:1034A000D81D0020044A0B46142101FB00210431E1
:1034B000102218460CF0BFBA481F00200422014811
:1034C0000CF0B9BACA1D00200846042201490CF0CC
:1034D000B2BA00BFCA1D00202DE9F84316255D438E
:1034E000144C91468046A81D0F46102249462044A0
:1034F0001E460CF0A0FA691D2144484606F076F8F5
:1035000020B178460C4B1B6893B198471623734340
:10351000E2180021117157803146084824F80380D1
:10352000FFF773FE31460648BDE8F843FFF76DBE6E
:1035300000DEEBE7981C002000510020901C0020CA
:10354000941C002010B40C4683B20A1D20884988C0
:103550005DF8044BFFF7C0BF2DE9F0411E4D5C2420
:103560005443164604F134032A192B448846136445
:10357000074610B9194B01221A7004F112012944AF
:10358000404606F03CF820B17846154B1B68FBB16D
:10359000984704F144012944404606F041F820B11F
:1035A00078460F4B1B68ABB19847A01C41461022D0
:1035B00028440CF040FA5C23734331460948EF522B
:1035C000FFF723FE31460848BDE8F041FFF71DBE76
:1035D00000DEDEE700DEE8E7D81D0020C81D002081
:1035E00000510020D01D0020D41D00200B4682B2C7
:1035F00002311888FFF7B0BFF8B5A1F11005142407
:103600006C430F4F0646201D3146102238440CF003
:1036100012FA3919304606F02BF820B17846094BDA
:103620001B6853B1984729460748FFF7EEFD294626
:103630000648BDE8F840FFF7E8BD00DEF3E700BF4D
:10364000481F002000510020481C00204C1C002076
:103650000B4600F1100189B21846FFF7CDBF0000FC
:103660002DE9F84304460F4605F054F9052C04D91A
:103670007846174B1B68FBB19847164B164D1E78C2
:103680006401DEB105EB04091448B9F81210D9F849
:103690001420394489B206F04DFC804670B1011DFA
:1036A000D9F8183038469847404606F07FFC05F0B8
:1036B00053F93046BDE8F88300DEDEE72C44394696
:1036C000A068FFF7A2FD064806F0D0FD0026EEE751
:1036D00000510020921D002088030300941D00204B
:1036E000B81D0020F8B504460F4605F013F9052C67
:1036F00004D97846104B1B6893B198470F4B104D77
:103700001E78640176B92C443946A068FFF77DFD28
:103710000C4806F0ABFD002605F01EF93046F8BD5A
:1037200000DEEBE72B190848598A394489B206F0C4
:1037300047FC0028F0D0E6E700510020921D002051
:1037400088030300B81D0020941D00202DE9F843D4
:10375000184D0026AF68D5F80080384641465FFA1C
:1037600086F9FFF76BFD10B90446444503D1052ED9
:103770001AD1BDE8F88321463846FFF739FD68B114
:1037800021466868FFF734FD214648B14846FFF7F7
:1037900067FF60B121463846FFF743FD0134E4E797
:1037A0004846FFF79FFFF4E701362035D2E7BDE832
:1037B000F88300BF8803030008B5064B06480022C3
:1037C0001A7006F06FFB20B10448BDE8084006F00F
:1037D0004DBD08BD921D0020941D0020FC19002045
:1037E0002DE9F0474FF6FF73DFF84C80DFF84C907F
:1037F0000B8007460D4600244FF0140A2146404630
:10380000FFF7F6FC064650B92A884FF6FF739A4236
:1038100000D12C800134082CF0D1002609E00AFBED
:1038200004901022394604300CF0F6F80028F1D14B
:103830002C803046BDE8F087481C0020481F00203F
:103840002DE9F3414FF6FF770E461446ADF80670AA
:10385000804640B339B30DF10601FFF7C1FFBDF853
:10386000063003F11005ADB250B9BB421DD0294658
:103870004046FFF7C1FEBDF806100220FFF7F0FE3C
:10388000BDF806300A4A3580142101FB032334B900
:10389000DA780132DA70002002B0BDE8F0819A785F
:1038A00001329A70F7E70E20F6E70420F4E700BF34
:1038B000481F002008B548B978460B4B1B681BB160
:1038C00098474FF6FF7008BD00DEFAE7074B9842B5
:1038D000F7D303F58A729042F3D8C01A5C23B0FB89
:1038E000F3F080B208BD00BF00510020EA1D0020A7
:1038F00008B548B97846114B1B681BB198474FF67D
:10390000FF7008BD00DEFAE70D4B984209D303F1C2
:103910009A02904205D8C01A1623B0FBF3F080B289
:1039200008BD084B9842EAD303F12C029042E6D836
:10393000C01A1623B0FBF3F00830F0E70051002066
:103940009C1C0020541D002010B501298CB0044699
:1039500006D17846104B1B68DBB198470CB010BD00
:103960000229F6D00329F9D12C22002101A80CF05C
:103970006DF819238DF8043002238DF80830074BB9
:103980000394DA681B69059201A8069303F036F9DF
:10399000E4E700DEE2E700BF00510020941D0020B4
:1039A00011460020FFF7D0BF08461146FFF7CCBFF5
:1039B0002DE9F74F80460F46914603F077FF022826
:1039C000064650D14FF6FF744D4B4E4A0025A24695
:1039D0004FF0140B54450ED1104629460193009226
:1039E000FFF706FC9DE80C0028B9ACB20135082DA4
:1039F000F0D1002306E00BFB05F1C95A4145F5D192
:103A0000ACB20123B9F1000F52D0B9F1010F03D1CB
:103A100006F0FD06012E4BD1002B4ED14FF6FF7262
:103A200094426AD0384A394822F8248002EB840252
:103A30002146D3709370FFF7E8FB21463448FFF727
:103A4000E4FB21460120FFF70BFE3C80B9F1000F9B
:103A500034D12D4B03EB8404E3780133E370002071
:103A600003B0BDE8F08F00F0FD03012B4FF6FF74AB
:103A7000BFD1DFF894B0254B0025A24654450CD1A8
:103A8000184629460093FFF7B3FB009B28B9ACB258
:103A90000135102DF2D1002305E03BF825204245E9
:103AA000F6D1ACB20123B9F1000FB5D1032E01D08C
:103AB0001020D5E7EBB13C80CBE73C80124B03EB09
:103AC0008404A3780133A370C9E70F4A0F4822F892
:103AD000248002EB84022146D3709370FFF795FB9C
:103AE00021460B48FFF791FB21460120FFF7B8FD67
:103AF000E1E74FF6FF729442E7D10420B0E700BF40
:103B0000481F0020481C0020501C0020381C0020AA
:103B10003C1C00200F2810B5044608D80146064872
:103B2000FFF766FB18B1012000F0010010BD204630
:103B3000FFF7A2FBF8E700BF381C00200F28014662
:103B400002D80248FFF754BB00207047381C002001
:103B5000F8B50446FFF7F2FF064690B1164E06EBA5
:103B60008403987858B9DD7815BB21461348FFF7D0
:103B700058FB26F8245021460120FFF7B3FD002012
:103B8000F8BD2046FFF778FB98B1103C0C4F142588
:103B900065437B19987850B9DE784EB921460948BB
:103BA000FFF73FFB7E5321460220FFF79BFD304687
:103BB000F8BD0520F8BD00BF501C0020381C0020B7
:103BC000481F0020481C002010B50A4B0A8884B208
:103BD000214623F8242003EB840300220648DA70F0
:103BE0009A70FFF712FB21460448BDE81040FFF72A
:103BF0000CBB00BF501C0020381C00203C1C0020C7
:103C000008B503F093FCA0F5805008BD70B586B0F0
:103C10001C4B03931C4B04931C4B059300230293F2
:103C2000FFF7EEFF1A4E00900124019404F072FE9B
:103C30006946304606F0F6F940B1002404F08CFEE7
:103C4000DCB1144B01221A7006B070BD3578012D1D
:103C5000F4D10A222946304606F06CF90028ECD04F
:103C600010224281082282810421C28003228180A5
:103C7000028106F09BF92C46E0E7074806F0F6FAC9
:103C8000E2E700BFA9390200A1390200C13C0200ED
:103C9000941D0020921D00200C1A0020044B054AA0
:103CA0009A60054ADA60054B00221A70FFF7AEBF32
:103CB000B81D0020AD3302004D370200921D0020D8
:103CC000FFF7A4BFF8B5174F0025EC591F347E1934
:103CD0006409A4002246002170680BF0B7FE20356D
:103CE00022460021B0680BF0B1FEC02DEDD10023BB
:103CF0000D481946C2180433402BD1709170F9D188
:103D000000220A48134681181432A02ACB708B7007
:103D1000F9D1074A13805380064A1370BDE8F84072
:103D2000FFF74ABD88030300501C0020481F0020F5
:103D3000CA1D0020C81D002070B5054620B9784670
:103D4000174B1B6863B19847164E346814F0010492
:103D500024D128886B880344984203DB0B2070BD74
:103D600000DEF1E703F0A2FD0128F7D128886B8877
:103D70001844013880B203F099FD0128EED10422E5
:103D8000294609480BF057FE336843F001033360BE
:103D900021462046FFF764FC204670BD0F2070BD11
:103DA00000510020401C0020CA1D002010B5044610
:103DB00020B97846064B1B683BB198472046042241
:103DC0000449BDE810400BF036BE00DEF6E700BF48
:103DD00000510020CA1D002011B10122FFF7E8BDEB
:103DE0000E2070470122FFF72BBD000010B50446DE
:103DF000FFF7A4FE50B10C4B03EB84039A78013A11
:103E00009A702046BDE81040FFF7A2BE2046FFF79B
:103E100033FA30B1054AA4F11003142101FB032346
:103E2000ECE7052010BD00BF501C0020481F0020FB
:103E300011B10022FFF7BCBD0E2070470022FFF732
:103E4000FFBC000010B50446FFF764FE70B10F2CF4
:103E500089BF074B074B103C14228CBF02FB043474
:103E600003EB8404E078003018BF012010BD00BFD0
:103E7000481F0020501C002070B506460D4601B3B7
:103E8000FFF75CFE044658B1104B33F826206A80D9
:103E900033F8260003F00AFD28700020686070BD2A
:103EA0003046FFF7E9F970B1103E1420084B70431B
:103EB0001A5A6A8004301844022368602B70204626
:103EC00070BD0E2070BD052070BD00BF501C0020CD
:103ED000481F002013B50446FFF71CFE08B36946CF
:103EE0002046FFF7C9FFC0B99DF80030032B0BD166
:103EF0000D4B03EB8403DA789AB1013ADA7020466D
:103F0000FFF726FE02B010BD022B08D1074AA4F12C
:103F10001003142101FB0323EDE70020F2E70F203B
:103F2000F0E70520EEE700BF501C0020481F0020EE
:103F30002DE9F0410E46074660B359B30025DFF87E
:103F40005C802C4629464046FFF752F940B1336861
:103F5000A34202D10920BDE8F08127F814500134B2
:103F60000135102DEED1DFF8388000252946404676
:103F7000FFF73EF938B13368A342EBD005F11003E7
:103F800027F8143001340135082DEFD134600020BA
:103F9000BDE8F0810E20BDE8F08100BF381C002094
:103FA000481C00202DE9F7430D46044600283CD06C
:103FB00000293AD0408803F079FC022824D0032855
:103FC00001D0012833D14FF6FF73DFF86880DFF8A6
:103FD000689067882B8000241E4621464046FFF7E4
:103FE00007F940B139F82430BB4208D12C800020B9
:103FF00003B0BDE8F0832B88B34208BF2C800134A6
:10400000102CEAD10520F3E760684FF6FF73ADF896
:10401000063050B10DF10601FFF7E2FB0028F1D0A8
:10402000BDF8063010332B80E1E70E20E0E71020CA
:10403000DEE700BF381C0020501C002008B1FFF74D
:1040400039BC4FF6FF70704708B1FFF751BC4FF60F
:10405000FF707047F7B5064615460F46F1B1EAB155
:10406000B0F5805F1CD20DF10601FFF711F904468F
:10407000C0B9BDF806204FF6FF739A4214D03946F6
:104080003046FFF769FABDF806100320FFF7E8FA9B
:10409000BDF806302B80204603B0F0BD0E20FBE7B4
:1040A0000720F9E70F20F7E70420F5E738B50446C5
:1040B0000D46A1B1032814D801460B48FFF798F824
:1040C00078B15C23634309482246C05A2946FFF76A
:1040D00043FA21460320FFF7C3FA002038BD0E2023
:1040E00038BD052038BD00BFD01D0020D81D0020E0
:1040F0002DE9F0470D46064600B3F9B10024DFF87C
:104100004880DFF848900F680C604FF05C0A214649
:104110004046FFF76DF858B12B689F4211D00AFB5B
:1041200004F232F8092026F813202B6801332B60A3
:104130000134042CEBD10020BDE8F0870E20BDE84F
:10414000F0870920BDE8F087D01D0020D81D002091
:104150002DE9F34107460D461E46904652B34BB338
:1041600003F0A4FB012827D1032D27D829461648A0
:10417000FFF73EF810B30DF106013846FFF7B4F82B
:104180000446E8B9BDF806304FF6FF72934219D0E5
:10419000424629463846FFF719F9BDF806100520B2
:1041A0000839FFF75DFABDF806303380204602B0CB
:1041B000BDE8F0810E20FAE71020F8E70520F6E7C9
:1041C0000F20F4E70420F2E7D01D0020083838B5AE
:1041D00084B2022C13D821460A48FFF709F870B1BF
:1041E00016236343084A07480025D5522146FFF7A6
:1041F00018F821460520FFF775FA284638BD052036
:1042000038BD00BF481D0020501D00202DE9F3419E
:1042100005460F461E4690463AB333B3032926D8C7
:104220001748FEF7E5FF10B3B5F5805F21D20DF119
:1042300006012846FFF786F80446E0B9BDF80630C7
:104240004FF6FF72934218D0424639462846FFF790
:1042500043F9BDF806100420FFF702FABDF8063056
:104260003380204602B0BDE8F0810E20FAE7052039
:10427000F8E70720F6E70F20F4E70420F2E700BF95
:10428000D01D002070B504460E46B1B1072816D8DF
:1042900001460C48FEF7ACFF88B10B4D1620604379
:1042A000291823463246285A4988FFF715F921462E
:1042B0000420FFF7D5F9002070BD0E2070BD052049
:1042C00070BD00BF901C0020981C0020072810B56E
:1042D00004460ED801460848FEF78AFF48B1214639
:1042E0000548FEF79EFF21460420FFF7FBF900205A
:1042F00010BD052010BD00BF901C002003282DE933
:10430000F041054646D801462448FEF771FF0028D3
:1043100040D0234E234FDFF89480002421463046BE
:10432000FEF766FF70B1162303FB04735B88AB4294
:1043300008D1A0B2FFF7CAFF20B17846D8F8003004
:1043400023B398470134082CE8D1174E174F36F89D
:10435000023C53B13388AB4207D12046FFF736FF0A
:1043600018B178463B689BB198470134A4B20B2C36
:1043700006F11606EBD129460848FEF752FF2946FA
:104380000320FFF7AFF90020BDE8F08100DED9E798
:1043900000DEEAE70520BDE8F08100BFD01D002067
:1043A000901C0020981C0020521D0020005100206D
:1043B0002DE9F84F064615460F4669B362B3032848
:1043C0002DD801461948FEF713FF40B30024DFF84B
:1043D00060A0DFF86080D5F800902C604FF0160BDD
:1043E00021465046FEF704FF80B10BFB04F208EBB8
:1043F00002035B88B34209D12B68994512D032F889
:10440000082027F813202B6801332B600134082C77
:10441000E6D10020BDE8F88F0E20BDE8F88F05201A
:10442000BDE8F88F0920BDE8F88F00BFD01D00203F
:10443000901C0020981C00200A2870B504460E46E7
:104440006AD8002966D0072831D801463348FEF7DC
:10445000CFFE002860D0324D162303FB04535B8847
:10446000032B04D978462F4B1B68E3B198471623DA
:1044700003FB04532C485988FEF7BAFE20B978464E
:10448000284B1B688BB1984716235C43231D2B4494
:10449000254473606B88254A5C2101FB032312339A
:1044A0003360002070BD00DEE1E700DEECE7A0F144
:1044B000080421461E48FEF79BFE00282CD01D4D07
:1044C000162303FB04535B88032B04D97846154B52
:1044D0001B68DBB19847162303FB04531248598825
:1044E000FEF786FE20B978460E4B1B6883B19847CD
:1044F00016235C432B190D4A5B885C2101FB0323C7
:10450000043412332C4433607460CAE700DEE2E7FF
:1045100000DEEDE70E2070BD052070BD901C002070
:10452000981C002000510020D01D0020D81D002024
:10453000481D0020501D00202DE9F84380460E46FE
:1045400021B97846164B1B688BB19847306880B10B
:10455000FFF7B0F9441C134FDFF84C905C2505FBC6
:104560000475032C07D900233360BDE8F88300DE0F
:10457000ECE70446EFE721464846FEF739FE58B11E
:10458000AB7C88EA03035B0606D15C2000FB047465
:1045900012343460BDE8F88301345C35E1E700BFD4
:1045A00000510020D81D0020D01D00202DE9F0472B
:1045B00004468846164622B97846204B1B6893B1BC
:1045C000984724B978461D4B1B6873B1984720461D
:1045D000FFF770F94FF6FF739842074607D10023A3
:1045E0003360BDE8F08700DEEBE700DEEFE7306820
:1045F000F8B1FFF77DF9441C1148DFF848A01625F3
:1046000005FB04058146072CE9D821465046FEF7F4
:10461000EFFD80B16B88BB420DD16B7988EA030353
:104620009B0608D1162000FB049404343460BDE8D6
:10463000F0870446E0E701341635E4E70051002036
:10464000981C0020901C002038B504460D4621B966
:1046500078460F4B1B6893B1984774B10D4B1A887D
:10466000A2420ED0DA8AA2420DD09A8DA2420CD17B
:104670000224162202FB043404342C6038BD00DE10
:10468000EBE70024F5E70124F3E70024F5E700BF9A
:1046900000510020501D00202DE9F04707460D462F
:1046A00021B97846274B1B68FBB198472C68264EEA
:1046B0006CB106F13C039C4219D306F5A8729442F2
:1046C00015D8E41A5C23B4FBF3F4A4B201344FF020
:1046D0005C0808FB0468DFF878A008F15408032C94
:1046E00008D900232B60BDE8F08700DEDEE74FF637
:1046F000FF74EBE721465046FEF77AFD8146A0B1F4
:1047000067B9124B1B78A3B95C235C4333193C3463
:10471000344483F83C902C60BDE8F0870822414681
:1047200038460BF079F90028EBD0013408F15C0829
:10473000D5E75C23634336F80390B9FA89F94FEA69
:104740005919E1E700510020D81D0020C81D0020A4
:10475000D01D00202DE9F34706460D4603F0A6F8CC
:10476000022839D0032812D001280ED1394B1B68FA
:1047700013F0010309D0384B1A88964205D35B88A1
:1047800013449E424FF000035FDB00205AE04FF6D7
:10479000FF77DFF8CC80DFF8CCA00024B9464F4586
:1047A00009D121465046FEF723FD20B9A7B20134B6
:1047B000102CF4D1E9E738F82420B2424FEA840300
:1047C000F5D14344DB78002BF1D003232B70002379
:1047D0006E806B60012035E06868E8B94FF6FF73C2
:1047E000ADF80630BDF80640DFF87C801B4F072C83
:1047F0004FF6FF7394BF01340024ADF806304FF03C
:104800001409082CC1D021464046FEF7F1FC50B9EE
:10481000ADF806400134F4E70DF10601FEF7E0FFC4
:104820000028DBD0DEE709FB04F3DA5BB242F1D10A
:10483000FA18D278002AA8D0043302221F446E80CE
:104840002A706F6002B0BDE8F0876E8028706B60E0
:10485000F8E700BF401C0020CA1D0020481F0020B0
:10486000501C0020381C0020481C0020002840D08C
:1048700000293ED0204B1860204B19604FF0A04318
:104880004FF48072C3F81C258022C3F81C250C222B
:10489000C3F82027C3F81C274022C3F80825C3F813
:1048A00018252022C3F81825154B0622C3F80C251D
:1048B0000822C3F814250722C3F810250522C3F8DF
:1048C000082501210F4AC3F86C158420C3F824255C
:1048D0000422C3F80025C3F804030020C3F808012C
:1048E000C3F81C011960084BC02183F802131A6039
:1048F00070470E20704700BFEC1F0020F01F002003
:104900000020004000E0D70100E100E070B5124D4A
:10491000124E134C29783368002011B1D4F80821C5
:104920006AB9D4F81C31ABB10023C4F81C31D4F8F7
:104930001C310C4B1B686BB1BDE870401847C4F8C4
:104940000801D4F80821002BE7D0D4F81805C0B22C
:104950009847DFE770BD00BFE81F0020EC1F002074
:1049600000200040F01F0020FFF7D0BF014B18705F
:10497000704700BFE81F002038B50B4C23788BB977
:104980000A4D0B48294602F0B9FB58B92B68094A71
:10499000197901232370C2F81C019360C2F81C1519
:1049A000054A138038BD00BFD8200020BC2100205C
:1049B000AC21002000200040F41F002070B5194CED
:1049C000237823B97846184B1B686BB19847174D6D
:1049D000296859B9164B0122DA602170154BBDE8E0
:1049E0007040186804F000B800DEF0E7124A087959
:1049F0001388461CB3420BD101331048138002F0D8
:104A0000E9FB0B4A002301212B60D1602370E5E70D
:104A1000834206DC194401331380054B0979C3F83E
:104A20001C1570BDD820002000510020BC210020A2
:104A300000200040F81F0020F41F0020AC210020BF
:104A400008B5D0221249134802F0A8F912491348B8
:104A5000D02202F0A3F912491248FFF707FF20B154
:104A60007846114B1B6883B198470120FFF77EFF02
:104A70000E4A0F48002313700E4A13800E4A13800B
:104A800003F08AFF0D4B186008BD00DEEDE700BFA4
:104A9000DC200020AC210020FC1F0020CC200020C6
:104AA000BD490200B54B020000510020D820002073
:104AB00079490200DA200020F41F0020F81F0020AE
:104AC00037B5421C04460D4692B201A9044802F0D3
