:020000021000EC
:10F0000000F00020353102005D31020095F801006A
:10F01000613102006331020065310200000000002E
:10F020000000000000000000000000006731020046
:10F0300069310200000000006B3102006D310200F6
:10F040006F3102006F3102006F3102006F31020038
:10F050006F3102006F3102006F3102006F31020028
:10F060006F3102006F3102006F3102006F31020018
:10F070006F3102006F3102006F3102006F31020008
:10F080006F3102006F310200A55102006F310200A2
:10F090006F3102006F3102000DF901006F31020083
:10F0A0006F3102006F3102006F3102006F310200D8
:10F0B0006F3102006F31020000000000000000000C
:10F0C0006F3102006F3102006F3102006F310200B8
:10F0D0006F3102006F3102006F310200000000004A
:10F0E0000000000000000000000000000000000020
:10F0F0000000000000000000000000000000000010
:10F1000000000000000000000000000000000000FF
:10F1100000000000000000000000000000000000EF
:10F1200000000000000000000000000000000000DF
:10F1300000000000000000000000000000000000CF
:10F1400000000000000000000000000000000000BF
:10F1500000000000000000000000000000000000AF
:10F16000000000000000000000000000000000009F
:10F17000000000000000000000000000000000008F
:10F18000000000000000000000000000000000007F
:10F19000000000000000000000000000000000006F
:10F1A000000000000000000000000000000000005F
:10F1B000000000000000000000000000000000004F
:10F1C000000000000000000000000000000000003F
:10F1D000000000000000000000000000000000002F
:10F1E000000000000000000000000000000000001F
:10F1F000000000000000000000000000000000000F
:10F2000010B5054C237833B9044B13B10448AFF360
:10F2100000800123237010BD801A00200000000030
:10F2200004E402000C4B43B10C480D4910B5AFF398
:10F2300000800C48036823B910BD0A48036833B93D
:10F240007047094B002BF7D0BDE810401847064B1C
:10F25000002BF5D0184700BF0000000004E40200B6
:10F26000841A00207C1A002000000000154B002B9F
:10F2700008BF134B9D46A3F5803A00218B460F46ED
:10F280001348144A121A0EF0F3F90F4B002B00D05A
:10F2900098470E4B002B00D0984700200021040017
:10F2A0000D000D48002802D00C48AFF300800EF08E
:10F2B00091F92000290000F083F80EF077F900BFE3
:10F2C0000000080000F00020000000000000000026
:10F2D000801A002008470020000000000000000005
:10F2E00008B50378123B042B15D8DFE803F031266C
:10F2F000150303000379022B31D0042B05D1B0F89C
:10F300001310B0F80920914249D0411D184603F06E
:10F31000EFF900283DD108BD4FF0A0434FF4F012A3
:10F32000C3F80825007903F069FA0028F3D0224ACF
:10F330008D21BDE8084000F069BA4FF0A0434FF4BA
:10F34000F0114FF4C022C3F80815C3F80C2508BD0E
:10F350004FF0A0434FF42022C3F80C2508BDC17B19
:10F3600042799142D1D1017C82799142CDD2134A26
:10F37000411D1268184603F04BF918B10E4A7B2163
:10F3800000F044FA4FF0A0434FF4F012C3F8082500
:10F3900008BD094A8121BDE8084000F037BAD0F81D
:10F3A0000F10D0F805209142AFD1D0F81510D0F849
:10F3B0000B209142A9D2DAE70CD902007046002056
:10F3C0002DE9F0434FF0A04303224FF400314FF4F6
:10F3D00080204FF400264FF48014B24DC3F8442728
:10F3E00083B0C3F84827C3F84C27C3F85027C3F8A5
:10F3F0000815AD4AC3F808050421C3F808654CF2A6
:10F400008700C3F8084506F041FF2B685A0434D53D
:10F41000A64C2368032B00F2CA80A54EDFF8A08219
:10F420003268D8F800103368A24FDFF8989223F4BE
:10F430007F6323F00F03521A03F580533A60C9F833
:10F4400000302368052B40D800F064FB9A4B9B4AA0
:10F450001A60184600225A6004F02CFF2B685B04E7
:10F4600002D52368032B1AD84FF0A0434FF4003283
:10F47000C3F80C2504F008FEFCE78D4B90491A6890
:10F480000E681B688F488B49884C23F47F6323F0F8
:10F490000F03921B03F5805303600A60D4E72F210A
:10F4A00089480EF0B1F9002800F0AD802F21864880
:10F4B0000EF0AAF9411C854B854AD3F80435009219
:10F4C0000420BE2206F0F2FECEE72F217E480EF089
:10F4D0009BF9002800F0B1802F217B480EF094F9B1
:10F4E000411C7A4B7B4AD3F80435D8F800000190D0
:10F4F00000920620AB2206F0D9FE2B685804A3D553
:10F500002368052BA0D92F216F480EF07DF9002824
:10F5100000F09E802F216C480EF076F9411C6B4B59
:10F520006D4AD3F804353068019000920620AC2271
:10F5300006F0BCFE2B68590486D52368052B83D9B9
:10F540002F2161480EF060F9002800F090802F21F3
:10F550005D480EF059F9411C5C4B38685F4AD3F89E
:10F560000435019000920620AD2206F09FFE2B6824
:10F570005A047FF569AF2368052B7FF665AF2F210D
:10F5800051480EF041F900287CD02F214E480EF052
:10F590003BF9411C4D4BD9F80000514AD3F80435D2
:10F5A000019000920620AE2206F080FE4CE72F214B
:10F5B00045480EF029F988B32F2143480EF024F96D
:10F5C000411C424B474A3A4EDFF8F480D3F80435E9
:10F5D00000920420A22206F069FE3268D8F80010DA
:10F5E0003368344FDFF8DC90521A23F47F6323F042
:10F5F0000F033A602A6803F58053C9F800305304BA
:10F600007FF522AF1DE75C212F480EF0FDF880B199
:10F610005C212D480EF0F8F8411C4CE75C212A488B
:10F620000EF0F2F838B15C2127480EF0EDF8411CDD
:10F63000C7E725493FE72449C3E75C2122480EF08C
:10F64000E3F880B15C2120480EF0DEF8411C48E769
:10F650005C211D480EF0D8F838B15C211A480EF034
:10F66000D3F8411C5BE718493BE7174957E75C2192
:10F6700015480EF0C9F880B15C2113480EF0C4F8AB
:10F68000411C69E75C2110480EF0BEF838B15C21DE
:10F690000D480EF0B9F8411C7CE70B495CE70A49BC
:10F6A00078E700BF041A002061620200001A0020FF
:10F6B000C4190020744600209C1A0020E1F20100C9
:10F6C000C0190020704600200CD9020000B0004094
:10F6D000F0D80200B0D80200C0D80200D0D8020092
:10F6E000E0D8020088D8020048DF704710DF70477A
:10F6F00060DF704761DF704710B51B4B1B685B0410
:10F7000082B004460ED44FF0A0434FF4F012C3F879
:10F710000825C3F80C25EFF3108372B604B1FEE799
:10F7200002B010BD2F2111480EF06EF878B12F21D4
:10F730000E480EF069F8411C0D4A0E4B0020D3F81C
:10F7400004358DE814004E2206F0B0FDDBE75C21A5
:10F7500006480EF059F828B15C2104480EF054F820
:10F76000411CE9E70149E7E7041A002058D90200E3
:10F7700074D9020000B0004070B51F4B1B685B04D9
:10F7800084B00C4602D51D4B1B6873B94FF0A043E3
:10F790004FF4F012C3F80825C3F80C25EFF31083DB
:10F7A00072B604B1FEE704B070BD05462F211448BF
:10F7B00016460EF029F888B12F2111480EF024F8D2
:10F7C000411C104A104B0120D3F8043503968DE8F4
:10F7D00024000294702206F069FDD7E75C210848F6
:10F7E0000EF012F828B15C2105480EF00DF8411C0E
:10F7F000E7E70349E5E700BF041A0020001A0020EC
:10F8000058D9020048DA020000B0004000B51C4B95
:10F810001B685B0485B002D51A4B1B685BB94FF0BF
:10F82000A0434FF4F012C3F80825C3F80C25EFF3FA
:10F83000108372B6FEE70D4606462F211248144685
:10F840000DF0E2FF78B12F210F480DF0DDFF411CD4
:10F850000E4A0F4B0120D3F804358DE8740048227E
:10F8600006F024FDDBE75C2107480DF0CDFF28B151
:10F870005C2105480DF0C8FF411CE9E70249E7E7B4
:10F88000041A0020001A002058D9020038D90200BA
:10F8900000B0004000B5194B1B685B0483B00BD46B
:10F8A0004FF0A0434FF4F012C3F80825C3F80C251D
:10F8B000EFF3108372B6FEE72F2111480DF0A4FF7D
:10F8C00070B12F210E480DF09FFF411C0D4B0E4AC9
:10F8D000D3F8043500920020542206F0E7FCDFE75D
:10F8E0005C2107480DF090FF28B15C2104480DF021
:10F8F0008BFF411CEAE70249E8E700BF041A002039
:10F9000058D9020000B0004028D9020070B582B07A
:10F9100002E0019804F0C8FC01A8FFF7E5FE00280A
:10F92000F7D002AE4F2526F8065D074C04E02046CE
:10F9300004F0B8FCADF8025031462046FFF7DAFE7D
:10F940000028F4D002B070BDA41A002030B58FB0EA
:10F950000EAB654943F82C0D1846FFF7C7FE00288B
:10F9600040F0BD80614A92F81633C3F34113012B76
:10F970007FD95F4B9968002940F08C804FF4800359
:10F9800013605C4D2A6800230893079309930A9338
:10F990000B930C930D9353042ED4574B0593059B57
:10F9A000069307A806A9FFF7A3FE059B069A9A42AD
:10F9B00004461CD02B685A0419D5504B1B68012BE8
:10F9C00015D92F214E480DF01FFF002857D02F21A9
:10F9D0004B480DF019FF411C4A4A4B4B069DD3F88A
:10F9E000043502208DE824008C2206F05FFC2046BE
:10F9F000002C70D10FB030BD404C2368032B1DD8B4
:10FA00003D4B0593059B06932368032BC9D92F21F2
:10FA10003B480DF0F9FE00284CD02F2138480DF05E
:10FA2000F3FE411C384B394AD3F804350598019050
:10FA300000920420832206F039FCB2E72F213048DF
:10FA40000DF0E2FE58B32F212D480DF0DDFE411CD4
:10FA50002D4B2F4AD3F80435009204207A2206F069
:10FA600025FC254B05932B68059A0692590498D5D9
:10FA7000CAE7234A942142F20200FFF7C7FE5C2145
:10FA80001F480DF0C1FE00B35C211D480DF0BCFE07
:10FA9000411CA1E71A6842F480021A6071E75C21F8
:10FAA00017480DF0B1FE90B15C2115480DF0ACFE89
:10FAB000411CCDE75C2112480DF0A6FE48B15C2147
:10FAC0000F480DF0A1FE411CACE70D4984E70C493D
:10FAD000BEE70B49A6E70A4A9A21FFF797FE084AB4
:10FAE0009321FFF793FE00BF79F7010000E100E0EA
:10FAF00078460020041A0020C0190020001A0020B7
:10FB000058D902000CDA020000B00040FCD9020013
:10FB1000E0D9020030B54E4C2368590487B003D5B4
:10FB20004C4B1B68032B50D84B480290FFF70EFF3D
:10FB300023685A0403D5474B1B68032B31D8002395
:10FB400001250721454A039303A805938DF80C501E
:10FB50008DF80F10049204F00FFA002874D1236876
:10FB60005B0405D404F068FA002869D107B030BD01
:10FB7000384B1B68032BF5D92F2139480DF044FE73
:10FB8000002841D02F2136480DF03EFE411C354B58
:10FB9000354AD3F8043500920420C62206F086FBCD
:10FBA000E0E72F212E480DF02FFE10B32F212C4817
:10FBB0000DF02AFE411C2B4B2C4AD3F80435009241
:10FBC0000420BF2206F072FBB9E72F2124480DF074
:10FBD0001BFE20B32F2122480DF016FE411C214BA5
:10FBE000234AD3F8043500920420B52206F05EFBC8
:10FBF0009AE75C211A480DF007FED8B15C2118483D
:10FC00000DF002FE411CD6E75C2115480DF0FCFD0D
:10FC100090B15C2112480DF0F7FD411CB7E75C2163
:10FC20000F480DF0F1FD48B15C210D480DF0ECFDE1
:10FC3000411CD4E70A49BEE70949A8E70849CEE7CD
:10FC4000074AC721FFF7E2FD054AC421FFF7DEFDA1
:10FC5000041A0020001A002001000007F9F6010034
:10FC600058D9020000B00040C8D90200ACD9020047
:10FC700090D9020030B5044683B0002963D00B68E8
:10FC800033B3374A02F11200834203D200230B60E0
:10FC900003B030BD02F59375AB42F7D8314D1B1A56
:10FCA000A5FB0303C3F38F130133032BEED82E48B8
:10FCB000012500689D40054206D05C2505FB032513
:10FCC000AD7C65406D0621D00133042B2CD1DDE7DE
:10FCD000254B1868C30720D482073CD40223012295
:10FCE0009A40024207D01E4A5C2505FB0325AD7CE5
:10FCF00065406D060AD0022BC8D10507C6D5184A43
:10FD000092F826315C406006C0D103235C2000FBE2
:10FD1000032312330B6003B030BD114A937C634060
:10FD200013F07F03F2D0012301259D40054206D048
:10FD30005C2505FB0325AD7C65406D06E6D00133EF
:10FD4000042BCCD1A2E77846084B1B6833B1019154
:10FD50009847019993E7024A0123E9E700DE8EE71D
:10FD6000141C0020C94216B2101C00208846002036
:10FD7000F0B5044683B01646002A00F0AE80002C91
:10FD800000F0B6807C4A944203D20023336003B073
:10FD9000F0BD02F58A739C42F7D8784BA21AA3FBF8
:10FDA0000232C2F38F124FF6FF739A42EDD03368DE
:10FDB000002B00F0A9807248041DA342E5D300F196
:10FDC0009E05AB42E1D86F4D1B1BA5FB0343C3F35C
:10FDD0000F130133072BD8D86B4C012524689D40A5
:10FDE000254206D0162505FB03056F88974200F0D3
:10FDF00096800133082BC8D001259D40254206D0AE
:10FE0000162505FB03056F88974200F092805D1C64
:10FE1000082DBAD00123AB40234207D058481623FF
:10FE200003FB05035F88974200F088806B1C082B5A
:10FE3000ABD001209840204207D05148162707FB3D
:10FE40000307B7F802E096457FD0AB1C082B9CD087
:10FE500001209840204207D04948162707FB030796
:10FE6000B7F802E0964575D0EB1C082B8DD0012029
:10FE70009840204207D04248162707FB0307B7F8EF
:10FE800002E096456BD02B1D082B3FF47EAF01207E
:10FE90009840204207D03A48162707FB0307B7F8D7
:10FEA00002E0964540D0022D7FF46FAF23067FF528
:10FEB0006CAF3348B0F89C3093427FF466AF90F853
:10FEC0009F3059408F0608BF07237FF45EAF16228C
:10FED00002FB03030433336059E778462B4B1B685E
:10FEE000002B43D0019198470199002C7FF44AAF31
:10FEF0007846264C2368002B3CD0984723687846E8
:10FF0000002B35D0984740E71F480468E00701D52B
:10FF10001B4867E7A50727D51948012370E76D79C6
:10FF20004D40AF06D3D064E77F794F40BF06CED0B7
:10FF3000B9E76D794D40AD06C9D068E75B794B40B4
:10FF40009B067FF473AF2B46C1E77F794F40BF0616
:10FF5000BDD07AE77F794F40BF06B8D084E77F797C
:10FF60004F40BF06B3D08EE7022553E700DE06E719
:10FF700000DE0AE700DEC2E7261C0020C94216B2F6
:10FF8000441B0020A38B2EBA401B00208846002073
:10FF900010B5044682B051B134B10A4B33F8042B8A
:10FFA000A2420CBF1C4600240C6002B010BD784673
:10FFB000054B1B681BB1019198470199ECE700DEE6
:10FFC000EAE700BFF41B0020884600202DE9F84F27
:10FFD00080468946002971D0D9F80040A4B13C4B35
:10FFE0009C4204D20023C9F80030BDE8F88F03F525
:10FFF0008A729442F6D8374AE41AA2FB0434C4F356
:020000022000DC
:100000008F140134032CEDD8B8F1000F22D05C25F9
:10001000DFF8C8B0304E05FB04F54FF0010ADBF8FD
:1000200000300AFA04FE05F154011EEA030F4FF0F6
:10003000080231444046374602D00DF0FFFA30B393
:100040000134042C05F15C05E9D10023C9F8003026
:10005000BDE8F88F214A0123126803FA04F1114226
:1000600011D1E1180429BDD003FA01F010422DD1BD
:10007000A11C0429B6D08B40134227D1002CB1D14A
:100080001307AFD503245C25134F05FB04F5144B70
:100090001B788BB15C2303FB04F3FB5AB3FA83F3A5
:1000A0005B095C223C3502FB04743D4484F83C301F
:1000B000C9F80050BDE8F88F0123F2E77846094BF4
:1000C0001B680BB1984787E700DE85E70C46DAE747
:1000D000501C0020C94216B2141C0020101C002025
:1000E0000A1C0020884600202DE9F0410D460446F8
:1000F00003F038FF022800F08180032816D0012881
:1001000002D00020BDE8F081B64B1B68DB07F8D5B4
:10011000B54A13889C42F4D3528813449C42F0DAC7
:1001200000236C8028706B60BDE8F081AF4B1A68CB
:10013000AF4BD70745D49A88A24200F075811A893F
:10014000A24200F07A819A89A24200F093811A8A31
:10015000A2424FD09A8AA24200F0A5811A8BA242F5
:1001600000F0E4819A8BA24200F0AC811A8CA2428A
:1001700000F0F5819A8CA24200F0B3811A8DA24260
:1001800000F005819A8DA24200F0B1811A8EA24240
:1001900000F0FB819A8EA24200F0AF811A8FA2423A
:1001A00000F011819A8FA242ABD193F83F30002B1F
:1001B000A7D0032200236C802A706B600120BDE869
:1001C000F0811988A14200F0BA80960740F1318190
:1001D0009988A14200F0EC815607B4D51989A14253
:1001E00002D1D97A0029E4D1100700F18C811A8A52
:1001F000A242AFD1DA7C002ADBD1ABE76F68002FD7
:1002000000F095807B4E336813F0010240F0E180EE
:10021000980700F1F5805A0700F1FC801A0700F1F9
:100220001F81D80600F12B81990600F132815A0610
:1002300000F13E81180600F14A813268D10700F1D1
:100240008380012101238B40134206D08B00581874
:10025000694F37F82000A04259D0481C08283FF4C5
:1002600050AF01238340134207D086003318624FFA
:1002700037F82330A34200F0BD81411C08293FF428
:1002800040AF01238B40134206D08B005E185A4FBB
:1002900037F82660A6423AD0811C08293FF431AFD6
:1002A00001238B40134206D08B005E18524F37F863
:1002B0002660A6422BD0C11C08293FF422AF01239F
:1002C0008B40134206D08B005E184B4F37F82660E8
:1002D000A6421CD0011D08293FF413AF01238B4017
:1002E000134206D08B005E18434F37F82660A642B3
:1002F0000DD002287FF405AF13067FF502AF3E4F05
:10030000B7F88C30A3427FF4FCAE07211C230B44CA
:100310009B00FA18D278002A3FF4F3AE04333B4432
:1003200002226B606C802A700120BDE8F081314BA5
:100330001A68D70708D4910793D5012186E7D978A1
:1003400000293FF442AF34E700218B0058182A4FB0
:1003500037F82000A042DAD0013108297FF472AFCB
:10036000CFE6998BA14200F03581D1057FF502AF30
:10037000198CA14204D193F8231000297FF419AFFE
:10038000970500F1F2801A8DA2427FF4FBAE93F83C
:100390002B20002A7FF40DAFF4E6998DA14200F0E6
:1003A0002381D1047FF5F6AE198EA14204D193F8D2
:1003B000331000297FF4FDAE970400F1EC801A8F12
:1003C000A2427FF4EFAE93F83B20002A7FF4F1AE17
:1003D000E8E61022394609480DF030F9002831D0FE
:1003E000336815E7F81A00200C1C0020F41A0020CE
:1003F000001B0020FC1A0020841D0020881D002006
:100400001022394687480DF019F938B33368590777
:100410007FF504AF1022394683480DF00FF900280C
:1004200000F0ED803368F9E6DA79002A3FF487AE10
:10043000BFE61A89A2427FF486AEDA7A002A7FF4F8
:10044000B8AE80E60146013108293FF45AAE326861
:1004500001238B4013427FF478AF7DE70121F2E75F
:100460001022394671480DF0E9F8002800F0C580E7
:100470003368D6E6DA7B002A3FF469AE99E61022AB
:1004800039466B480DF0DAF8002800F0BC8033687C
:10049000CAE61022394667480DF0D0F8002800F06F
:1004A000B4803368C3E6DA7D002A3FF457AE80E6B5
:1004B0001022394660480DF0C1F8002800F0A180F4
:1004C0003368B7E6DA7F002A3FF450AE71E639466A
:1004D00010225A480DF0B2F800287FF4AEAE072182
:1004E000B1E793F82720002A3FF448AE61E693F87D
:1004F0002F20002A3FF44AAE5BE693F83720002A0B
:100500003FF44CAE55E69989A14256D0D1067FF50D
:1005100021AE198AA14203D1D97C00297FF449AECA
:10052000970608D41A8BA2427FF41CAEDA7E002A0A
:100530007FF43FAE16E6998AA14242D056067FF577
:1005400011AE198BA14203D1D97E00297FF431AEBF
:1005500010063FF506AF1A8CA2427FF40BAE93F85B
:100560002320002A7FF425AE04E6998CA1422CD0EA
:1005700056057FF507AE198DA1424DD010053FF508
:100580000CAF1A8EA2427FF405AE93F83320002AF6
:100590007FF40FAEFEE5998EA14220D056047FF580
:1005A00001AE198FA14232D010047FF5AAADF9E552
:1005B000D97900293FF410AEFBE5D97B0029A5D0FD
:1005C000F7E5D97D0029B9D0F3E593F82710002984
:1005D000CED0EEE5D97F00293FF4C7AEE9E593F828
:1005E00037100029DAD0E4E593F82F1000293FF402
:1005F000D8AEDEE50146334689E6032123E7022132
:1006000021E706211FE704211DE705211BE793F8D9
:100610003B100029C8D0CCE593F82B100029ADD0B1
:10062000C7E500BF9C1D0020B01D0020C41D002098
:10063000D81D0020EC1D0020001E0020141E0020EC
:10064000D0F8AC319B681847D0F8AC31DB6818475C
:10065000F0B51C4B1B681B0783B004460D461646BD
:1006600003D5194B1B68032B09D8D4F8AC311B6890
:1006700032462946204603B0BDE8F04018472F21F6
:1006800012480DF0C1F880B12F2110480DF0BCF8D0
:10069000411C2F780E4A0F4B0420D3F804358DE807
:1006A0008400DF2205F002FEDFE75C2107480DF041
:1006B000ABF828B15C2105480DF0A6F8411CE8E72D
:1006C0000249E6E7041A0020001A002068DA020056
:1006D00088DA020000B00040D0F8AC315B681847FF
:1006E00070B50E468CB01446054600283DD006F085
:1006F000FB03122B04D07846264B1B6863B3984744
:100700006CB3254B1B780BB90CB070BD2C220021AB
:1007100001A80CF0ADFF1022294602A808940CF0A5
:100720009CFF2378A3F10103B3FA83F303225B094F
:10073000162E8DF818308DF804201CD00023194691
:1007400004220DF11A008DF819300CF091FF01A868
:1007500002F028FD0CB070BD00DE002CD1D178462F
:100760000C4B1B68A3B19847CBE77846094B1B6835
:1007700063B19847BBE7012305F1120104220DF193
:100780001A008DF819300CF068FFE0E700DEAEE7E4
:1007900000DEB6E788460020C8190020F8B5194EDB
:1007A000336805462BB3EFF3108772B63468AC425A
:1007B0001BD0D4F8A8319D4206D0134E5BB11C4625
:1007C000D4F8A8319D42F9D1D5F8A831C4F8A831A0
:1007D00007B962B6F8BD784632681AB19047D4F8C6
:1007E000A841EDE700DE1C46EAE7D5F8A831336002
:1007F000EEE77846044B1B680BB19847D3E700DE61
:10080000D1E700BF241E002088460020F0B589B043
:10081000D0F894209DF80530012643F0030312BA66
:1008200066F3870300240821054600928DF8053001
:100830008DF8044007F0D0FEF0B1044629230722CA
:10084000427483740622694613300CF006FF267149
:10085000EFF3108772B6D5F8A0610136731CC5F8A6
:10086000A0610CD007B962B628462660214607F081
:1008700001FF002009B0F0BD042009B0F0BD7846AA
:10088000054B1B681BB19847002FECD0ECE700DE4E
:10089000002FE8D0E8E700BF88460020F0B589B017
:1008A000D0F894308DF8041001261BBA08210546B3
:1008B00000938DF8056007F08FFED8B10446292318
:1008C0000722427483740622694613300CF0C5FE79
:1008D0002671EFF3108772B6D5F8A0610136731C4C
:1008E000C5F8A06108D007B962B62660214628463F
:1008F00007F0C0FE09B0F0BD7846054B1B681BB180
:100900009847002FF0D0F0E700DE002FECD0ECE7A6
:10091000884600202DE9F0410B78012B92B00C465F
:100920000546164604D07846214B1B68D3B198473C
:10093000637894F802C0271D6BB1DFF878E0FA18ED
:100940003946FF2011F8013B43408A421EF803005C
:10095000F8D1C343DBB29C4506D00023237012B00C
:10096000BDE8F08100DEE3E795F89A1028464FF0E5
:1009700000080136FFF792FF84F8038085F89A603B
:1009800066783946324601A80CF067FE84F800808C
:1009900003F0E2FFD5F8D410014405F1B80003F0EC
:1009A000D1FE324601A92846FFF752FED7E700BF25
:1009B000884600209CDA02002DE9F0410D4688B0FF
:1009C0000446002800F08C80022D05D978464E4B55
:1009D0001B68002B73D0984794F8993013F0FB0FE5
:1009E00043D0023B012B05D97846474B1B68002BAF
:1009F0007CD098479DF80530D4F894208DF80650A7
:100A0000022143F0030361F3870312BA0026092190
:100A100020468DF804608DF80530009207F0DCFD6B
:100A2000064628B3292308224274837407226946A4
:100A300013300CF012FE04233371EFF3108872B6FA
:100A4000D4F8A07101377B1CC4F8A0713FD0B8F175
:100A5000000F00D162B637603146204607F00AFE2B
:100A6000042384F89C5084F8993008B0BDE8F081E4
:100A700094F89930023B022B23D82046FFF78EFED4
:100A800094F89830012B05D078461F4B1B68002B3B
:100A90002ED09847204607F093FE002384F8983024
:100AA00084F8D83084F8993004F1B80003F016FEC9
:100AB00029462046FFF7C8FD08B0BDE8F08100DEFA
:100AC0008AE77846104B1B68B3B19847D5E778465C
:100AD0000D4B1B6893B19847B8F1000FBAD0BAE735
:100AE0007846094B1B682BB198476DE700DE81E71C
:100AF00000DECFE700DE67E700DEBEE700DEB8F12C
:100B0000000FA7D0A7E700BF88460020F0B50E462B
:100B100087B00546002800F04381002A00F04C8190
:100B20002B681A0E190242EA036201F47F011B0AC4
:100B30000A4303F47F431A43EFF3108172B6A24FC6
:100B40003C681CB906E0D4F8A8411CB1D4F8943034
:100B50009A42F8D101B962B66A7902F00303032B15
:100B600049D8DFE813F0DE00B4007E004A0094F8B4
:100B7000D830022B00F01783AD792046FFF70EFE28
:100B800094F89830012B06D07846904B1B68002BC8
:100B900000F007839847204607F012FE002384F8F0
:100BA000983084F8D83084F8993004F1B80003F014
:100BB00095FD29462046FFF747FD854B1B68190721
:100BC00019D5844B1B68032B15D92F2182480CF0B3
:100BD0001BFE002800F0DA832F217F480CF014FE62
:100BE000411C7E4B7E4AD3F804350092042040F22B
:100BF000623205F05BFB07B0F0BD9208012A00F0FD
:100C0000F980C0F04A81022A40F02381002CF2D002
:100C1000072EF0D194F89930023B012BA7D96C4BE9
:100C20001B681A07E7D56B4B1B68012BE3D92F21F3
:100C300069480CF0E9FD002800F041832F21664847
:100C40000CF0E2FD411C654B94F89900654AD3F81D
:100C5000043501900092022040F2673205F026FB35
:100C6000C9E7002CC7D094F89930032BC3D194F86E
:100C7000D870297994F89A30012F00F08381994235
:100C8000C0F07A81B7D9524B1B681F07B3D5514BBF
:100C90001B68012BAFD92F214F480CF0B5FD002860
:100CA00000F0F0832F214C480CF0AEFD411C4B4B63
:100CB00094F89A20D3F80435029228794A4A019090
:100CC0000092022040F2EE2205F0F0FA93E7002CA9
:100CD00091D094F89930032B8DD194F8D830022B11
:100CE00000F074813A4B1B68190784D5394B1B6897
:100CF000012B80D92F2138480CF086FD002800F008
:100D0000D1822F2134480CF07FFD411C334B374AF0
:100D1000D3F804350092022040F20A3205F0C6FAF8
:100D200069E7002C3FF467AF94F89930032B7FF408
:100D300062AF94F8D830002B40F0D680297994F82F
:100D40009A308B4200F27181EA882949120A931C79
:100D5000A1FB03131B090133DBB2072B84F8D92055
:100D600000F290812B7A84F8DA30093E012384F86E
:100D7000D83084F8DB30324605F1090104F1DC009B
:100D80000CF06BFC94F8D9309E427FF434AF2A7992
:100D900004F1D801204607B0BDE8F040FFF7BABD26
:100DA00078460A4B1B68002B00F09A800592984702
:100DB000059A002A7FF4B4AE7846044B1B68002BDA
:100DC00000F090809847ABE6241E00208846002063
:100DD000041A0020001A00209CDB020000B0004032
:100DE000FCDD020014DE020068DD020014DD0200FA
:100DF000C94216B2002C3FF4FEAE062E7FF4FBAEC5
:100E000094F89930022B00F04481B34B1B6818070B
:100E10007FF5F1AEB14B1B68012B7FF6ECAE2F21B5
:100E2000AF480CF0F1FC002800F0D2812F21AC4833
:100E30000CF0EAFC411CAB4B94F89900AA4AD3F899
:100E400004350190009202204FF4547205F02EFAFE
:100E5000D1E6A14B1B681B077FF5CDAE9F4B1B68EE
:100E6000012B7FF6C8AE2F219D480CF0CDFC002849
:100E700000F0FB802F219A480CF0C6FC411C6A79D7
:100E8000984B9A48D3F804350090920801920220BA
:100E90004FF45B7205F00AFAADE6162E7FF4ABAEA6
:100EA00002F07CF910220146A81D0CF0C7FB0028B7
:100EB0007FF4A1AE002C00F0118294F89930012B40
:100EC00000F0B781032B7FF496AE94F8D830002B56
:100ED0007FF491AE204607B0BDE8F040FFF796BC26
:100EE00000DE1AE600DE1BE6022B20D07A4B1B68E0
:100EF0001C077FF580AE794B1B68012B7FF67BAE1C
:100F00002F2177480CF080FC002800F034822F213C
:100F100073480CF079FC411C724B754AD3F80435C8
:100F20000092022040F2BD2205F0C0F963E694F879
:100F30009A3029799942684B1B6880F00D811B0714
:100F40001AD5664B1B68042B16D92F2164480CF068
:100F50005BFC002800F0F1812F2161480CF054FC6B
:100F6000411C604B634AD3F804350092052040F2DF
:100F7000AF2205F09BF92979204607B0BDE8F04083
:100F8000FFF78CBC994200F0B980534B1B681B07DC
:100F90007FF531AE514B1B68012B7FF62CAE2F2114
:100FA0004F480CF031FC002800F0BC812F214C4848
:100FB0000CF02AFC411C4B4B4F4AD3F804350092ED
:100FC000022040F2E22205F071F914E62A7994F841
:100FD0009B309A427FF486AE3F4B1B68180704D5BE
:100FE0003E4B1B68032B00F20982002504F1A00090
:100FF000C4F8AC5003F072FB204607F0E1FB94F814
:101000009B3084F8D850013384F89B3003F0A4FC63
:10101000D4F8D410014404F1B80003F093FB204647
:1010200007B0BDE8F040FFF757BB2B4B1B681A0712
:10103000A2D52A4B1B68042B9ED92F2128480CF0DF
:10104000E3FB002800F02E822F2125480CF0DCFB6A
:10105000411C244B274AD3F804350092052040F266
:10106000A32205F023F9297986E75C211C480CF0BE
:10107000CBFB002800F0AA805C2119480CF0C4FBCF
:10108000411CFCE62046022107B0BDE8F040FFF716
:1010900093BC204607F094FB1421204607F050FB38
:1010A0000D4B1B681D0704D50C4B1B68032B00F26E
:1010B0007C81032384F8993003F04EFCD4F8D410DB
:1010C000014404F1B80003F03DFB204607B0BDE841
:1010D000F040FFF7B5BA00BF041A0020001A002044
:1010E0009CDB020000B00040C8DD020048DE0200C8
:1010F000C4DC0200ECDB020034DD020094F8DB10FB
:10110000930841FA03F2D2073FF575AD013B03EBBB
:101110004300C3EBC00303F1F000B21FA91D20443C
:101120000CF09BFA94F8D9306A79AB4894F8DB104C
:101130000233A0FB030392081B0907FA02F20A43D9
:101140000133D2B2DBB207FA03F3511C994284F89F
:10115000DB207FF450AD1AE647D91F077FF54BAD72
:101160009E4B1B68012B7FF646AD2F219C480CF04F
:101170004BFB002800F0F0802F2199480CF044FB35
:10118000411C984B94F89A20D3F8043502922879A0
:10119000954A0190009202204FF42D7205F086F8D6
:1011A00029E500DEF7E404F1A00003F097FA94F8D3
:1011B0009930AD79023B022B7FF6DFAC78468B4B42
:1011C0001B68002B00F088809847D6E4844956E6D7
:1011D0005C2183480CF018FB002800F0C8805C21DB
:1011E0007F480CF011FB411C25E61E077FF503AD7F
:1011F0007A4B1B68042B7FF6FEAC2F2178480CF04D
:1012000003FB002800F081802F2175480CF0FCFAC8
:10121000411C744B94F89A20D3F804350292287933
:10122000734A0190009205204FF42E7205F03EF8AB
:10123000E1E42B681A0E190242EA036201F47F010D
:101240001B0A0A4303F47F4313432046C4F8943037
:10125000142107F075FA2046FFF7D8FA002840F06D
:101260000A81644B1B681E077FF523AF5B4B1B682D
:10127000032B7FF61EAF2F2159480CF0C5FA00282A
:1012800000F0EE802F2156480CF0BEFA411C554B61
:10129000594AD3F804350092042040F22B3205F06D
:1012A00005F806E75C214E480CF0AEFA002800F085
:1012B00004815C214A480CF0A7FA411C26E55C2118
:1012C00047480CF0A1FA002800F0E7805C21444870
:1012D0000CF09AFA411CB6E400DE4EE4EFF3108203
:1012E00072B63B682BB9ECE0D3F8A831002B00F0C4
:1012F000E88093F899100129F6D11C46002A98D16C
:1013000062B6002C3FF477ACD7E55C2134480CF092
:101310007BFA002800F0DA805C2131480CF074FA86
:10132000411C76E75C212E480CF06EFA80B15C21FE
:101330002B480CF069FA411C3DE65C2128480CF072
:1013400063FA38B15C2126480CF05EFA411C08E6CD
:10135000234930E6224904E65C2121480CF054FA86
:1013600038B15C211E480CF04FFA411C09E71C49BA
:1013700061E51B4905E75C2119480CF045FA80B18D
:101380005C2117480CF040FA411CC5E55C2114486B
:101390000CF03AFA38B15C2111480CF035FA411CD6
:1013A0001FE40F49B8E50E491BE42F210C480CF04F
:1013B0002BFA00283AD02F2109480CF025FA411CBD
:1013C000084B0D4AD3F80435009204204FF45272B2
:1013D00004F06CFF6DE600BFC94216B2001A00208F
:1013E0009CDB020000B000403CDC0200884600208C
:1013F00088DC0200041A0020B0DD02002F213448EE
:101400000CF002FAE8B12F2131480CF0FDF9411C33
:10141000304B94F8DC00304AD3F804350190009248
:1014200004204FF43E7204F041FFDEE55C212848C1
:101430000CF0EAF980B15C2125480CF0E5F9411C7B
:10144000BEE75C2122480CF0DFF938B15C2120486E
:101450000CF0DAF9411CDBE71D49B1E71C49D7E77D
:101460005C211B480CF0D0F950B15C2118480CF0FD
:10147000CBF9411C0BE70023C4F89430FFF7BBBB4A
:10148000134904E75C2112480CF0BEF940B15C211D
:101490000F480CF0B9F9411C09E40D49FFF7D3BB23
:1014A0000B4904E45C210A480CF0AEF938B15C2128
:1014B00007480CF0A9F9411CCBE5054926E404498D
:1014C000C7E5002A3FF41CAFFFF795BB0049A0E633
:1014D0009CDB020000B00040F8DC0200704700BF57
:1014E00000B52F2183B012480CF08EF990B12F2156
:1014F0000F480CF089F9411C0E4B0F4AD3F8043504
:101500000092012040F2853204F0D0FE062003B0A4
:101510005DF804FB5C2106480CF076F928B15C21EB
:1015200003480CF071F9411CE6E70149E4E700BF0C
:1015300044E0020000B0004064E002002DE9F04FFA
:10154000744B754CDFF8EC9100F1004783B0013F1C
:10155000A3EB0008A4F1070B09F10D0A002504E034
:101560000135082D04F124041FD0637E002BF7D031
:1015700014F8013C012B61D053D3022B43D134F832
:10158000033C54F8072CA67E6449134401FB06363D
:1015900018EB060F10D4F31B013537EA230728BFD9
:1015A0003746082D04F12404DFD15D48394603B0E5
:1015B000BDE8F04F03F0C6B8E37E012B7AD9A37ED5
:1015C000627E9A4257D805EBC5030BEB83030022DA
:1015D000E276198C4FF6FF7399423BD0637EA17E71
:1015E000994214F8013C28BF6276012B39D054D3BC
:1015F000022B48D078464B4B1E68002E00F08580A9
:10160000B047002609E07846464B1E6806B3B0474F
:10161000B8F1000F4FF00006CEDB637E002B9FD0A9
:10162000B9E7A17E34F8032C54F8073C01268E401C
:101630003D49013E134401FB0636A9E734F8033C5B
:1016400054F8072CA67E3849134401FB06369FE761
:1016500000DE9DE714F8013C44F8076C012BA276EC
:10166000C5D134F8033C54F8072CA67E2E49134408
:1016700001FB0636D1E701332C48A37603F0BCFA10
:1016800024F8030C9FE734F8033C54F8072CA67E9B
:101690002249134401FB0636BFE7A17E34F8032C30
:1016A00054F8073C01268E401F49013E134401FBBC
:1016B0000636B2E71E4B93F83020002A83D1227EF3
:1016C000019302F10A0002F1030E162189F80100CC
:1016D0006FF01B0089F809E089F80A106FF0010E1D
:1016E00089F80B002146504689F80CE00BF0B5FF55
:1016F000019B184607F0FEFA00283FF460AF7846D9
:10170000084B1B681BB1984759E700DE85E700DEF0
:1017100055E700BF18FCFFFFC71E00208096980009
:10172000E01F002088460020A0860100841E0020C3
:10173000501E0020281E0020F0B5484D2B681A06C8
:1017400095B003D5464B1B68032B39D8454C23680D
:1017500023228DF80C20002B49D0012002F0BAFB87
:10176000236803A898470546002002F0B3FB0DB19B
:1017700015B0F0BD3C4C3D4863788DF829302346C8
:10178000217853F8022FCDF82A205F681E898DF842
:101790002810132206238DF824208DF83430CDF83C
:1017A0002E70ADF8326002F099FF012309A8C4F849
:1017B0000E5025706570237301F0F4FC15B0F0BD78
:1017C00004462F212A480CF01FF860B32F21284827
:1017D0000CF01AF8411C274A274B0420D3F8043593
:1017E0008DE8140040F2291204F060FDAEE72B688A
:1017F0001B06BDD51A4B1B68002BB9D02F211C48E6
:101800000CF002F8E0B12F2119480BF0FDFF411C4C
:10181000194B1A4AD3F804350092012040F2853260
:1018200004F044FDA4E75C2111480BF0EDFF28B162
:101830005C210F480BF0E8FF411CCCE70C49CAE7DC
:101840005C210B480BF0E0FF28B15C2108480BF04D
:10185000DBFF411CDCE70649DAE700BF041A002081
:10186000001A002084460020AC1E0020941E002098
:1018700044E0020070DE020000B0004064E00200BC
:1018800070B5354E33681A0688B003D5334B1B68E4
:10189000032B13D8324D2B68032200248DF8082027
:1018A0008DF80C400BB3012002F014FB2B6802A84A
:1018B0009847204602F00EFB08B070BD04462F2169
:1018C00028480BF0A1FF60B32F2126480BF09CFFA6
:1018D000411C254A254B0420D3F804358DE814001B
:1018E0004FF49A7204F0E2FCD4E733681B06E3D5A8
:1018F0001A4B1B68002BDFD02F211A480BF084FFF6
:10190000E0B12F2117480BF07FFF411C174B184AFD
:10191000D3F804350092012040F2853204F0C6FC71
:10192000CAE75C210F480BF06FFF28B15C210D481E
:101930000BF06AFF411CCCE70A49CAE75C21094861
:101940000BF062FF28B15C2106480BF05DFF411CE3
:10195000DCE70449DAE700BF041A0020001A00207F
:101960008446002044E002007CE0020000B0004019
:1019700064E0020010B50C4688B030B17846774B71
:101980001B68002B00F09A8098472378022B32D0F6
:10199000032B48D0012B07D07846704B1B68002BD7
:1019A00000F08E8098475EE06D4BE2681B68039202
:1019B00018064FF060028DF8082026D5694B1B6889
:1019C000032B76D92F2168480BF01EFF002800F06A
:1019D0009B802F2164480BF017FF411CE468634A89
:1019E000634B0420D3F804358DE814004FF4A27241
:1019F00004F05CFC37E05A4B62681B6803921906DE
:101A00004FF061028DF808204FD45A4C236843B13F
:101A1000012002F05FFA236802A89847002002F034
:101A200059FA08B010BD4E4B1B6862228DF8082091
:101A30001A06EAD54B4B1B68032B3AD92F214A488B
:101A40000BF0E2FE00286AD02F2147480BF0DCFEA5
:101A5000411C474B484AD3F804350092042040F219
:101A60004D1204F023FC434C2368002BD0D13C4B97
:101A70001B681B06D5D53B4B1B68002BD1D02F21F3
:101A800039480BF0C1FE002854D02F2136480BF006
:101A9000BBFE411C364B394AD3F804350092012075
:101AA00040F2853204F002FCBBE72E4B1B68032B8F
:101AB00008D8304C2268002AAAD1DEE700DE64E7AD
:101AC00000DED0E72F2128480BF09EFE88B12F21A1
:101AD00025480BF099FE411C6468294A244B0420D8
:101AE000D3F804358DE8140040F2491204F0DEFB0F
:101AF000B9E75C211C480BF087FE30B35C211A4823
:101B00000BF082FE411CE7E75C2117480BF07CFEDE
:101B1000E8B15C2114480BF077FE411C5EE75C21C4
:101B200011480BF071FEA0B15C210F480BF06CFE68
:101B3000411C8EE75C210C480BF066FE58B15C211D
:101B400009480BF061FE411CA4E70749C4E70649B8
:101B500044E705497DE704499CE700BF884600202B
:101B6000041A0020001A002044E0020000E00200F5
:101B700000B000408446002030E0020064E0020033
:101B800018E002002DE9F047037892B00446712B6B
:101B900000F24B83DFE813F09700F60122024903BD
:101BA00049034903490349034903490349034903D5
:101BB00049034903490349034903490349034903C5
:101BC00049034903490349034903490349034903B5
:101BD0004903490349034903CF001601570187010F
:101BE000BB0005034903490349034903490349036A
:101BF0004903490349034903490349034903490385
:101C00004903490349034903490349034903490374
:101C10004903490349034903490349034903490364
:101C20004903490349034903490349034903490354
:101C300049034903490349039702A10249034903A0
:101C40004903490349034903490349034903490334
:101C500049034903490349035D02E302AE02490314
:101C60004903490349034903490349034903490314
:101C70004903490349034903B4027200B14B1B688D
:101C800019061BD5B04B1B68032B17D92F21AF4862
:101C90000BF0BAFD002800F0F9832F21AB480BF0C0
:101CA000B3FD411CAA4AAB4B6468D3F80435042049
:101CB0008DE8140040F24D2204F0F8FAA64802F034
:101CC0000DFD002034E09F4B1B681A061BD59E4B70
:101CD0001B68032B17D92F219C480BF095FD00287A
:101CE00000F0AD832F2199480BF08EFD411C994BDC
:101CF0009A4AD3F8043500920434019440F27B12DE
:101D0000042004F0D3FA002012B0BDE8F087944B11
:101D1000914DDA89C088934918820132DA81A9602D
:101D200002F01AFE90490144284602F00BFD002003
:101D300012B0BDE8F087834B1B681B061BD5824B96
:101D40001B68032B17D92F2180480BF05DFD00285D
:101D500000F068832F217D480BF056FD411C834A1B
:101D60007C4B2579D3F8043504208DE8240040F21B
:101D70007F1204F09BFA7A4D23798DF82C302B4694
:101D8000697853F8024FCDF822401C892A785E68A2
:101D90007148ADF82A40132300248DF821108DF8E6
:101DA00020208DF81C30CDF8266002F097FC01232E
:101DB00007A8C5F80E402B732C706C7001F0F2F977
:101DC0002046B5E75F4B1B681F0619D55E4B1B68A5
:101DD000032B15D92F215D480BF016FD002800F0CC
:101DE0008A832F2159480BF00FFD411C594B604A43
:101DF000D3F80435009204204FF4C37204F056FA6D
:101E00002346627953F8064F8DF8202058681989C7
:101E1000CDF821401623022ACDF82500ADF829106F
:101E20008DF81C3000F0A082042A00F0AE82012A56
:101E30007FF469AF4F4B1B681B88ADF82B3007A8A8
:101E400001F0B0F95FE73F4B1B681E0619D53E4B0A
:101E50001B68032B15D92F213C480BF0D5FC00281B
:101E600000F079832F2139480BF0CEFC411C394B0F
:101E7000414AD3F80435009204204FF4CB7204F0A9
:101E800015FA2379022B00F03082032B40F0D18128
:101E9000A3798DF8203011238DF81C3007A801F0AC
:101EA00081F9002044E7274B1B681D0619D5264BF6
:101EB0001B68032B15D92F2124480BF0A5FC002803
:101EC00000F031832F2121480BF09EFC411C214B57
:101ED0002A4AD3F80435009204204FF4D77204F054
:101EE000E5F91F4B2179677954F8060F8DF820101A
:101EF0001A46012902F8021B0CBF05210921666858
:101F00001973C3F802002189134D8DF82170002444
:101F1000CDF82200122707A811815660ADF82A10CB
:101F2000DC81CDF826608DF81C7001F03BF90D4B7B
:101F3000AB6002F011FD12490144284602F002FC98
:101F40002046F5E6041A0020001A002044E00200B2
:101F5000C0DF020000B00040941E0020A4DE02009A
:101F6000AC1E00203917020080969800B0DE0200F7
:101F7000CCDE0200F81F0020DCDE0200F4DE0200EE
:101F800080F0FA02AC4B1B681A061ED5AB4B1B68DF
:101F9000DBB12F21AA480BF037FC002800F0B782F4
:101FA0002F21A7480BF030FC411CA64B6068E66867
:101FB000A568A54AD3F804350190009203960295CE
:101FC00040F25522012004F071F978469F4B1B68BE
:101FD000002B00F0C68198470020A9E6964B1B68AD
:101FE000180619D5954B1B68032B15D92F2194483A
:101FF0000BF00AFC002800F02F822F2190480BF0F4
:1020000003FC411C8F4B924AD3F804350092042004
:1020100040F2D51204F04AF92346257953F8067F99
:10202000E16958681E89226A6379CDF82500142475
:1020300007A8CDF82170ADF829608DF81C408DF807
:1020400020500B910C928DF8343001F0ABF8002049
:102050006EE6794E33681F0640F10C81DFF8DC81B3
:10206000D8F80030032B00F29D81857BDFF80092C9
:1020700005EBC507BF0009EB070292F82020002AF4
:1020800000F0FE80012B40F2FB802F216C480BF00A
:10209000BBFB002800F06B822F2169480BF0B4FBDA
:1020A000411C684B6B4AD3F804350092EE0072195C
:1020B00009EB8202022092F82120019240F21622BE
:1020C00004F0F4F8DDE04368C3F30B02002A00F0EB
:1020D0005181102012B0BDE8F08743689907F8D10C
:1020E0008568AA07F5D1C46814F0030200F0628283
:1020F00009201DE60379072B40F22881072017E607
:10210000554E564BB36002F027FCA568054429469E
:10211000304602F017FB484B1B6818067FF5F3ADFD
:10212000464B1B68032B7FF6EEAD2F2144480BF086
:102130006BFB002800F0B8812F2141480BF064FBB5
:10214000411CA468464A3F4B0420D3F804358DE86F
:1021500034004FF4127204F0A9F80020E8E5364B81
:102160001B681C067FF5CFAD344B1B68032B7FF635
:10217000CAAD2F2132480BF047FB002800F0A181A7
:102180002F212F480BF040FB411C2E4B354AD3F832
:1021900004350092042040F2312204F087F8002038
:1021A000C6E5254B1B681C0619D5244B1B68032B61
:1021B00015D92F2122480BF027FB002800F0598168
:1021C0002F211F480BF020FB411C1E4B264AD3F841
:1021D0000435009204204FF4E77204F067F8234DB1
:1021E0001D486B788DF821302B462A7853F8021F52
:1021F000CDF822105C681989CDF8264013230024FD
:10220000ADF82A108DF820208DF81C308DF82C4068
:1022100002F064FA012307A8C5F80E402C706C7018
:102220002B7300F0BFFF204682E5034B1B681B06A3
:1022300070D406207CE500BF041A0020001A00209C
:1022400044E0020000B00040D4DF020088460020D5
:102250000CDF02005CDF0200941E002081180200E7
:10226000A0DF020090DF020000DF0200AC1E0020B1
:10227000C01E0020857BDFF8289305EBC507BF0053
:10228000EE002E44B60009EB060A00258AF820501D
:1022900002F062FB237B8AF8063080468AF82150E0
:1022A000B9488AF82250AAF8045002F0A5FC08F5B3
:1022B0007A7818FA80F049F80600A3688AF81F3087
:1022C000F81DA268616848440BF0C7F9AF4859F897
:1022D00006104368627B8AF82020CB1AAB42BFF617
:1022E00012AD02F02FFA284622E52346A27953F8D0
:1022F000071FCDF821105D681889637CCDF8255043
:102300001021ADF829008DF81C108DF820208DF8D3
:102310002B30C3E59E4B1B68012B8AD92F219D488A
:102320000BF072FA002800F0D9802F2199480BF0A9
:102330006BFA411C984B994AD3F80435009202205D
:1023400040F2592203F0B2FF0620F1E4944903EB76
:10235000C30201EB820292F82020002A5AD1082001
:10236000E6E400DE1846E3E48E4B1B685B88ADF8BC
:102370002B3064E5816809910224104607A908936F
:102380008DF81C4001F0ECFCD2E4864B1B6853F83E
:10239000042F5968CDF82F10CDF82B201B89ADF8EC
:1023A00033304CE52F217B480BF02EFA002800F04B
:1023B000C6802F2177480BF027FA411C6568764BC1
:1023C000277B2D887848794AD3F804350495657BB6
:1023D000DFF8CC91002F08BF0246A77B7448039218
:1023E0000197029500904FF40472042003F05EFF01
:1023F000A57B05EBC507BF0009EB070393F8203069
:10240000002B3FF43DAF33681E067FF539AFD8F897
:10241000003037E603EBC30301EB8303002083F8AE
:10242000200085E45C215B480BF0EEF9002800F009
:10243000CF805C2157480BF0E7F9411C8FE45C2109
:1024400054480BF0E1F9002800F0CE805C2151489F
:102450000BF0DAF9411C4AE45C214E480BF0D4F948
:10246000002800F0B3805C214A480BF0CDF9411CF4
:10247000C8E55C2147480BF0C7F9002800F0AB80A5
:102480005C2144480BF0C0F9411C9EE65C214148A8
:102490000BF0BAF9002800F0A0805C213D480BF059
:1024A000B3F9411CFFF7FEBB5C213A480BF0ACF9D5
:1024B000002800F095805C2136480BF0A5F9411CFE
:1024C0003FE65C2133480BF09FF9002800F08A803A
:1024D0005C2130480BF098F9411C56E65C212D48F0
:1024E0000BF092F9002800F082805C2129480BF063
:1024F0008BF9411C1EE75C2126480BF085F900286A
:1025000079D05C2123480BF07FF9411C6EE45C21FB
:1025100020480BF079F9002874D05C211D480BF09D
:1025200073F9411C41E55C211A480BF06DF9002854
:1025300066D05C2117480BF067F9411CC7E45C21A9
:1025400014480BF061F9002858D05C2111480BF0B9
:102550005BF9411C32E75C210E480BF055F900286D
:1025600047D05C210B480BF04FF9411C7FE45C2104
:1025700008480BF049F9002846D05C2105480BF0CB
:1025800043F9411C8DE500BF841E0020E01F0020A0
:10259000001A002044E0020000B00040ECDF02001E
:1025A000C01E0020F81F00208CDE020098DE020012
:1025B00024DF02000126104607A908930A95099412
:1025C0008DF81C6001F0CCFBFFF7B2BB0F4919E599
:1025D0000E49FFF7C4BB0D49F7E50C49FFF762BB95
:1025E0000A49AEE50949D0E50849FFF780BB07492C
:1025F000A0E606493BE40549FFF7F8BB0349DDE6E1
:10260000024964E40149D0E400494AE544E002009B
:10261000F0B52E4C237B012B87B003D0082528462C
:1026200007B0F0BD00293FD0002A3DD0284DD1F899
:1026300004C08DF804000E462968B6F808E004923C
:1026400007463268CDF809C02020ADF80DE08DF8BE
:102650000000CDF8052049B3184601F03BFC2B687B
:10266000684698470546002001F034FC002DD6D17D
:10267000184B7268B6F808E0174936685A60A3F834
:1026800008E00122032315486770E5812582C4F81C
:10269000026088602270237302F05EF910490144E1
:1026A000104802F04FF8BAE70E25B8E70E4B1B684A
:1026B0001B0601D40625B2E70C4B1B68002BF9D092
:1026C000FEF70EFF0546002DA9D1D1E7AC1E002074
:1026D00084460020AE1E0020941E00203917020000
:1026E00080C3C901E01F0020041A0020001A002046
:1026F0002DE9F0413A4C237B88B023B908252846C0
:1027000008B0BDE8F081002938D00E46354D496843
:1027100032892B68CDF81110ADF8152021213268CF
:102720008DF80C004FF0000807468DF80810CDF822
:102730000D20CDF8188033B3012001F0CBFB2B68BE
:1027400002A898470546404601F0C4FB002DD6D1AB
:102750003068D6F804C0B6F808E0C4F802000221D8
:10276000082228466770E5812582C4F806C0A4F8CF
:102770000AE02170227308B0BDE8F0810E252846DA
:1027800008B0BDE8F081184B1B681B0601D4062574
:10279000B5E7164B1B68002BF9D02F2114480BF01E
:1027A00033F880B12F2112480BF02EF8411C114B49
:1027B000114AD3F804350092012040F2853203F02B
:1027C00075FD06259BE75C2109480BF01DF828B133
:1027D0005C2107480BF018F8411CE8E70449E6E7DC
:1027E000AC1E002084460020041A0020001A00209D
:1027F00044E0020000B0004064E0020010B5254B48
:102800001B7B88B01BB90824204608B010BD224CA1
:102810008DF80C00236824228DF8082063B1012074
:1028200001F058FB236802A898470446002001F0F5
:1028300051FB204608B010BD184B1B681B0601D485
:102840000624E1E7164B1B68002BF9D02F21154811
:102850000AF0DAFF80B12F2112480AF0D5FF411C9F
:10286000114B124AD3F804350092012040F2853210
:1028700003F01CFD0624C7E75C210A480AF0C4FFE8
:1028800028B15C2107480AF0BFFF411CE8E7054971
:10289000E6E700BFAC1E002084460020041A00209A
:1028A000001A002044E0020000B0004064E0020092
:1028B00030B5234C236883B093B1054660B1012045
:1028C00001F008FB2368284698470446002001F0E1
:1028D00001FB204603B030BD0E24204603B030BDBE
:1028E000184B1B681B0603D40624204603B030BDDA
:1028F000154B1B68002BF7D02F2114480AF084FFDA
:1029000080B12F2111480AF07FFF411C104B114A62
:10291000D3F804350092012040F2853203F0C6FC62
:102920000624D6E75C2109480AF06EFF28B15C2135
:1029300006480AF069FF411CE8E70449E6E700BFE2
:1029400084460020041A0020001A002044E00200FF
:1029500000B0004064E002002DE9F0414FF08052E9
:1029600094B0D2F80C3103F500239B0253F8043CD9
:1029700053B14FF010214869013005D050691269F8
:1029800002FB00F29A4207D8694B01221A7306240F
:10299000204614B0BDE8F0814A699342F4D3654FF4
:1029A00065483B6002F0F2F8644A654B654C664846
:1029B0003968946000250126D56015615561DD6098
:1029C000624A1D615D619860082305950395029533
:1029D000069507958DF80C608DF814608DF81660DB
:1029E00004928DF81530002966D0304601F072FA55
:1029F00002A83B6898470446284601F06BFA34B1B8
:102A00004B4B012220461A7314B0BDE8F081DFF869
:102A10006C810EA805F0E4FE06220DF1390108F1E3
:102A200003000AF01AFE9DF8381098F80020484B71
:102A30000A944908022061F3861260F303021C77AE
:102A4000ADF824004349444888F800204FF0250E93
:102A50000322424C9862C3F81880196283F81DE083
:102A60005C6283F82C209A773B6830208DF8200038
:102A700043B3304601F02EFA3B6808A89847044655
:102A8000284601F027FA002CBAD1354B0A9A0E9449
:102A900001250EA81A600F941094119412941394A7
:102AA0008DF83850FFF704FF2E490446002001F04E
:102AB00041F91F4B1D736BE72B4B1B681A060FD494
:102AC00006249DE7284B1B681B06F9D5274B1B687E
:102AD000002BF5D0FEF704FD0446002C90D1D4E77E
:102AE000224B1B68002BEBD02F2121480AF08CFED3
:102AF00080B12F211E480AF087FE81191D4B1E4A06
:102B0000D3F804350092012040F2853203F0CEFB69
:102B1000062475E75C2116480AF076FE28B15C2190
:102B200013480AF071FE411CE8E71149E6E700BFCF
:102B3000AC1E002084460020841E0020941E00202D
:102B4000E01F0020811802003D150200851B0200D5
:102B5000501E0020D6BE898E40E00200DD14020027
:102B6000F81F002075190200041A0020001A002026
:102B700044E0020000B0004064E00200281E002093
:102B8000864B1B7B0BB90820704730B102884FF68B
:102B9000F8739A4203D8102070470E20704730B562
:102BA00087B00D46044601F07BF910B1112007B043
:102BB00030BD22884FF6FC739A420CD000230222CB
:102BC00068468DE838000393049305938DF8002040
:102BD000FFF76EFEEBE761880029EFD0704B93F8AA
:102BE000200020B1B3F80700904200F08E8093F8E7
:102BF000442032B1B3F82B004FF6FC72904200F043
:102C0000968093F8682032B1B3F84F004FF6FC720B
:102C1000904200F09E8093F88C2032B1B3F873009C
:102C20004FF6FC72904200F0A68093F8B0202AB1D3
:102C3000B3F897004FF6FC72904248D093F8D42036
:102C40002AB1B3F8BB004FF6FC7290424ED093F815
:102C5000F8202AB1B3F8DF004FF6FC72904227D07B
:102C600093F81C21002AA9D0B3F803014FF6FC7297
:102C70009042A3D1B3F805218A429FD1D3F807111E
:102C8000626891429AD193F81E21FF2A18BF072249
:102C900094D0EFF3108172B6242000FB023393F836
:102CA0002220013283F82220002987D162B685E7ED
:102CB000B3F8E1208A42D3D1D3F8E30062689042AE
:102CC000CED193F8FA20FF2ACAD00622E1E7B3F862
:102CD00099208A42B2D1D3F89B0062689042ADD16C
:102CE00093F8B220FF2AA9D00422D2E7B3F8BD207E
:102CF0008A42ACD1D3F8BF0062689042A7D193F862
:102D0000D620FF2AA3D00522C3E7B3F809208A42C0
:102D10007FF46DAFD3F80B00626890427FF467AF29
:102D200093F82220FF2A3FF462AF0022B1E7B3F804
:102D30002D208A427FF465AFD3F82F00626890425D
:102D40007FF45FAF93F84620FF2A3FF45AAF012289
:102D50009FE7B3F851208A427FF45DAFD3F8530068
:102D6000626890427FF457AF93F86A20FF2A3FF4DD
:102D700052AF02228DE7B3F875208A427FF455AF37
:102D8000D3F87700626890427FF44FAF93F88E20BB
:102D9000FF2A3FF44AAF03227BE700BFAC1E0020AE
:102DA000C01E0020F0B4B24B1A78062A1BD0B14ADC
:102DB000D2F8883043F47003C2F88830BFF34F8FE5
:102DC000BFF36F8F4FF01023D3F80022002AC0F218
:102DD0007981D3F80432002BC0F27481A64BA74A44
:102DE0001A60F0BC704704331B681807DFD1A44B8E
:102DF0001B6803F0F002302A00F0298103F0E003A1
:102E0000402B00F024819E4B1B6803F0F003302B15
:102E100000F00F819A4B1B6803F0F002302A00F09B
:102E2000F88003F0E003402B00F0F380944B1B6824
:102E300003F0F003302B00F0DC80914B1B6803F0B3
:102E4000F002302A00F0C18003F0E003402B00F0D4
:102E5000BC808B4B1B6803F0F003302B00F0A78085
:102E6000874B1B6803F0F003302B00F08980844B04
:102E70001B6803F0F003502B30D0814B1B6803F02C
:102E8000F002302A19D003F0E003402B15D07C4B20
:102E90001B6803F0F002302A03D003F0E003402B5C
:102EA00085D14FF08043D3F80024D2077FF57FAF60
:102EB0006FF00102C3F8002479E7724B724A1B6875
:102EC00003F04F0313606A4B1B78062B7FF46FAF40
:102ED0006E4B1B6818077FF46AAFD8E74FF080523B
:102EE0006B4BD2F80414C3F82015D2F80814C3F8B9
:102EF0002415D2F80C14C3F82815D2F81014C3F80E
:102F00002C15D2F81414C3F83015D2F81814C3F8DD
:102F10003415D2F81C14C3F84015D2F82014C3F8A5
:102F20004415D2F82414C3F84815D2F82814C3F86D
:102F30004C15D2F82C14C3F85015D2F83014C3F83D
:102F40005415D2F83414C3F86015D2F83814C3F805
:102F50006415D2F83C14C3F86815D2F840144448FC
:102F6000C3F86C15D2F844140278C3F87015062A19
:102F70007FF41DAF454B1B681C077FF418AF7CE73F
:102F8000444E454C4549464B0527012500203F222C
:102F90003760256008601A60354B1B78062B7FF47C
:102FA00006AF3A4B1B681D077FF401AF5FE7304B5C
:102FB0003C4A1B780321062B11607FF4F8AE334B9B
:102FC0001B681E077FF4F3AE4AE74FF080430022F0
:102FD000C3F80C21C3F81021C3F83825244B1B7803
:102FE000062B7FF470AF294B1B681F077FF4DFAE01
:102FF0002FE72D491E4ACB68127823F08073062AEA
:10300000CB607FF4D4AE214B1B681B077FF4CFAE9F
:1030100013E7264B164A1B6812782549C3F342333F
:10302000062A0B60B8D1194B1B681A077FF4BFAE94
:10303000FCE60F4B1F4A1B781F491160062B7FF4DB
:10304000B6AE124B1B6819077FF4B1AEE2E61B4B1C
:10305000074A1B6812781A49C3F30423062A0B6037
:10306000BCD10A4B1B6819073FF4CDAE9FE600BFE9
:10307000E00F00F000ED00E0CC1900200090D0033C
:10308000E80F00F058020010E40E0040E40F00F0DA
:1030900000C00040105600408856004018560040BE
:1030A00014560040A0050040F0ED00E0440200107E
:1030B0003C05004074C007400DF0ADBA2403001079
:1030C00040350140184B0122C3F80425D3F80024F1
:1030D000002AFBD04FF0102315221349C3F8002219
:1030E000D1F80034002BFBD04FF0102215210E4BED
:1030F000C2F80412D3F80024002AFBD000220A49A7
:10310000C3F80425D1F80034002BFBD0BFF34F8F58
:103110000649074BCA6802F4E0621343CB60BFF371
:103120004F8F00BFFDE700BF00E0014000ED00E071
:103130000400FA050649074A074B9B1A03DD043BC6
:10314000C858D050FBDCFFF72DFEFCF78FF80000CD
:1031500010E40200C0190020801A0020FEE7FEE7FC
:10316000FEE7FEE7FEE7FEE7FEE7FEE7FEE7FEE737
:1031700010B5074C0749204608220AF06EFA04F100
:10318000080008220449BDE810400AF066BA00BFF2
:10319000FC1F002060000010A400001000487047D1
:1031A000FC1F002038B5054650B1094B1C6834B1EE
:1031B00054F8043C284698472468002CF8D138BDC0
:1031C0007846044B1B680BB19847EEE700DEECE74E
:1031D0000C20002088460020F8B50646D8B1351DE1
:1031E00020D01F4F3C68A54225D01CB92BE0A5423A
:1031F0000AD01C462368002BF9D135B1A54202D074
:10320000236873602560F8BDF8BD7846154B1B68D0
:10321000F3B19847F2E77846124B1B68B3B1984771
:10322000351DDED178460F4B1B68B3B10C4F984764
:103230003C68A542D9D178460A4B1B6853B19847E0
:103240003C68002CD6D13D607460F8BD00DEC6E756
:1032500000DED3E700DE2C46C7E700DEC1E700BF93
:103260000C2000208846002010B5044618B12346E3
:10327000BDE8104018477846044B1B6823B19847B7
:103280002346BDE81040184700DEF0E788460020DE
:1032900008B508220221094803F026FD40B1084A7A
:1032A00091684160127B0272BDE8084003F06ABD7C
:1032B0000448BDE8084004F031B800BF14200020E5
:1032C00050200020E019002010B586B018220021FF
:1032D00068460AF0CDF90023029304F089F8012230
:1032E000A0F58054064B0748009469460192039369
:1032F00003F0DAFD10B1044804F010F806B010BD78
:103300000D33020014200020F019002030B50C46C7
:103310008DB022B94B88012B1BD00DB030BD032AD4
:1033200004D07846144B1B6813B3984701A82C228D
:1033300000210AF09DF9114B0394D9681A6905918F
:10334000192301A806928DF80430FFF72BFF0DB06A
:1033500030BD0B4D2B7823B97846074B1B684BB11A
:103360009847084B62685A6000232B700DB030BD3F
:1033700000DEDBE700DEF4E78846002014200020B2
:10338000642000205020002038B50E4D2B7833B932
:103390000D4B5C6804F50054B4F1807F00D938BD52
:1033A00004220121094803F09FFC28B1446003F086
:1033B000E9FC01232B7038BD0548BDE8384003F017
:1033C000ADBF00BF6420002050200020142000204A
:1033D000D0190020F0B5574C8DB001F099FF657BF6
:1033E000002D2ED0A37B002B30D1228A41F28263A4
:1033F0009A424CD9227B00236373002A2CD0012AE5
:103400003AD10CA80226A26800F82C6D0392236022
:103410006360237323828DF80830FFF7C3FE3146C3
:103420000822454803F060FC002877D0A26842607B
:10343000227B027203F0A6FC404E3378002B5BD057
:103440001D4601F087FF28460DB0F0BD01F082FF58
:10345000002528460DB0F0BD01F05AFF237BE3B1F3
:1034600001F078FF7846364B1B6853B900DE01F057
:1034700071FF28460DB0F0BD7846314B1B68002B1C
:10348000F4D0984701F066FF28460DB0F0BD2D4BF3
:103490001B78002BAED11D46D3E7A37B002BDFD1D9
:1034A000228A41F282639A4203D8264B1B78002B72
:1034B000D6D0A36820480133012700260822022124
:1034C000A3602773268203F00FFC034670B3A26843
:1034D0005A60227B1A7203F055FC0CA8022300F8F4
:1034E0002C3DA368227B8DF80820013B0393FFF756
:1034F00059FE01F02FFFA4E7646804F50054B4F10D
:10350000807F9ED8042201210B4803F0EDFB48B1D7
:10351000446003F037FC0123337092E70A4803F05C
:10352000FDFE89E7094803F0F9FE8AE7064803F043
:10353000F5FED2E750200020142000206420002057
:103540008846002065200020E0190020D0190020C6
:1035500010B51C4C227BE2B1012A0CD078461A4BE4
:103560001B685BB39847238A01332382638A7BB14C
:10357000013B638210BD238A41F282618B4215D9DF
:1035800042F2B0118B4215D96273FFF723FFEDE7CA
:1035900010BD238A41F28262934202D9FFF71AFFDB
:1035A000E4E70A4A1278002AF8D1DDE7074A1278E0
:1035B000002AD9D0FFF70EFF238AD5E700DE238A41
:1035C000D2E700BF50200020884600206520002060
:1035D00070B500E020BF03F0C9FE0028FAD001F06A
:1035E00097FE00221146384803F0D0FA00284FD049
:1035F0000026354C354608E0022B00D1051D024659
:103600000021204603F0C2FA50B14388012BF3D1C8
:10361000061D02460021204603F0B8FA0028F4D126
:10362000002D35D0002E33D0284C2B68A3602B7989
:103630002373B54209D833682360254D63602A7827
:10364000EAB1BDE8704001F085BE2B79002BF2D1C4
:103650001F4D20602B786060002BF2D14FF4005496
:1036600004220121184803F03FFB48B3446003F0F3
:1036700089FB01232B70BDE8704001F06BBE03F5A0
:103680000054B4F1807FEBD9BDE8704001F062BE18
:103690000E4C0D480023082202212360A3602373EF
:1036A00003F022FB38B1A2684260227B027203F071
:1036B00069FB2368C1E7074803F030FE2368BCE7D5
:1036C000054803F02BFEBCE714200020502000200A
:1036D00064200020E0190020D019002010B5142229
:1036E00086B00021154809F0C3FF01F035F9144BED
:1036F000144A586014489860002418461349D96049
:103700001C615C61147000F0A7FF21461822684616
:1037100009F0AEFF029403F06BFE0122A0F5805485
:103720000B4B0C48009469460192039303F0BCFBD9
:1037300010B1094803F0F2FD06B010BD5020002082
:1037400038200020652000205135020000879303B7
:103750000D33020014200020F0190020F8B52E4C83
:1037600094E80C009A4216D20646257B2B492C4839
:10377000012D18BF0146914226D9A3F14001914283
:103780002BD9EFF3108072B623685A1C2260336085
:1037900030B962B6F8BD234D2A781AB10F20F8BDB2
:1037A0000020F8BD03F50054B4F1807FF6D8042260
:1037B00001211D4803F098FA20B3446003F0E2FAB7
:1037C00001232B700F20F8BD01236373FFF702FE66
:1037D0000028D6D194E80C00CFE7124F3A78002A9F
:1037E000CFD103F50055B5F1807FCAD8042201215D
:1037F0000D4803F079FA50B1456003F0C3FA012394
:103800003B70BEE7094803F089FD0F20F8BD07486B
:1038100003F084FDB5E700BF5020002000E0FF006A
:10382000FFFF7F006420002014200020D01900201A
:1038300098B910B50F4C23682BB978460E4B1B680E
:103840009BB198472368013B236003B110BD0B4A2D
:103850009373BDE81040FFF7BDBD064A07491368E2
:103860000120034413608873704700DE4FF0FF337C
:10387000236010BD1020002088460020502000202A
:1038800070B5344C8CB005460E4601F041FD237BEB
:1038900073B9638A93B9A268DEB9AA4204D22A3204
:1038A000954201D8A37BC3B101F054FD0CB070BDAB
:1038B000012BF9D1002EF7D1A36803E0002EF3D03D
:1038C000A36801339D42EFD101236373FFF782FDAB
:1038D000EAE7531C9D42F5D9E1E71F4E1F48A5605A
:1038E000082202212360636063732373266103F05F
:1038F000FBF930B3A2684260227B027203F042FA05
:10390000174D2B785BB10CA8022300F82C3D227BCD
:10391000A3688DF808200393FFF744FCC4E76668AA
:1039200006F50056B6F1807FEDD8042201210B4840
:1039300003F0DAF948B1466003F024FA01232B7052
:10394000E1E7084803F0EAFCDAE7074803F0E6FCA1
:10395000D9E700BF502000200000062D14200020D1
:1039600064200020E0190020D0190020014B986845
:10397000704700BF50200020034B1A7B9868012A33
:1039800008BF00F1FF30704750200020044B9B68B7
:103990005840C20748BF03F1FF331846704700BFC5
:1039A00050200020014B187B704700BF50200020A2
:1039B0002DE9F8431F4CDFF880904FF000080221FA
:1039C000204602F0BDFB5FFA88F70546D0B100261D
:1039D00054F8043C2946384613B134F80C2C984767
:1039E00034F80C3C02210133204624F80C3C02F050
:1039F000DBFB0221204602F0A3FB0136054600282E
:103A0000E6D146B908F10108B8F1030F04F1B80492
:103A1000D5D1BDE8F8830146204602F0F5FB082821
:103A2000F0D154F8043C002BECD02A4638464946E5
:103A30009847E7E77C20002090E0020010B50121C4
:103A400004460C3002F07CFB58B3234BC4F89C3086
:103A50000023C4F8A03002786168012A2AD0022A23
:103A600020D182681D4B1E48521A120B03FB02F331
:103A700003F5FA73834228BF03460122C4F8A43039
:103A8000C4F8A84084F8B42004F19C0004F060FF5E
:103A900038B17846134B1B6813B1BDE81040184786
:103AA00000DE10BD78460F4B1B688BB198474FF472
:103AB000FA73E2E783680A485B1A9A084FF4A9731D
:103AC00003FB02F303F5FA73834228BF0346D4E7EE
:103AD00000DE4FF4FA73D0E7E93A0200645E0100B9
:103AE000A0860100884600202DE9F04F694B1B7825
:103AF00083B00D46002B40F0B98001F10C0306465F
:103B0000012118460193D5F8A47002F019FB8346F1
:103B1000002800F0B780DFF88CA1DFF88481DFF89F
:103B20008891A7F5FA77002439E0A9FB04346A6884
:103B3000DBF80810240C2403891A8C4228BF0C4699
:103B400044B97846D8F80010002900F09980009216
:103B50008847009ADBF8041022F00300084421464D
:103B600008F0E2FB28B17846D8F80020002A62D09D
:103B7000904769680C446C60DBF80820A24220D0B2
:103B800000F0EAFE9BF80020841B48BF341A012A8B
:103B900064D0022A51D1404A2244974256D39BF81E
:103BA0000020012AA7EB04041FD0022ABDD07846CA
:103BB000D8F80020002A54D090476C680022A24216
:103BC000DED104F015FF0198012102F0EDFA334A2D
:103BD000002310686B6085F8B43001F005FC2846BE
:103BE00003B0BDE8F04FFFF729BFAAFB04346A68B1
:103BF000DBF80810E409A400891A8C4228BF0C469F
:103C00003CB97846D8F80010002937D00092884790
:103C1000009ADBF80C10DBF8043022F003000144BA
:103C20002246184408F0AEFB0028A2D07846D8F807
:103C30000020002A9CD100DE9BE77846D8F80020BF
:103C400092B19047002222449742A8D204F0D0FEBD
:103C5000284603B0BDE8F04FFFF7F0BE4FF4A9725D
:103C60009AE700DE6C6889E700DE95E704F0C0FEA5
:103C7000002385F8B43003B0BDE8F08F00DEC8E75C
:103C800000DE67E77846064A12680AB1904742E7C5
:103C900000DE40E76C200020645E01006820002008
:103CA00088460020EB5DF260B77609BBF8B51E4888
:103CB0001E4C01F071FB1E4B04F11C02082710265C
:103CC0000325186004F1180304F10C0062612361FC
:103CD000A7736673257302F0E7F904F1D40204F1C7
:103CE000D00304F1C400C4F8CC20C4F8C83084F870
:103CF000C67084F8C56084F8C45002F0D5F904F5A4
:103D0000C67204F5C47304F5BE7084F87E7184F83D
:103D10007D6184F87C51C4F88421C4F88031BDE809
:103D2000F84002F0C1B900BFB13902007020002094
:103D300068200020022838B504460D4604D978468C
:103D4000054B1B6833B19847044BB82202FB04347F
:103D5000A56038BD00DEF7E788460020702000200F
:103D600002282DE9F84F04460D46924605D97846BB
:103D7000484B1B68002B76D09847002D76D02B78C7
:103D8000012B54D0022B3ED07846424B1B68002BAF
:103D90004BD09847EFF3108872B6B82707FB04F7AB
:103DA000DFF8F89007F10C064E443046002102F08F
:103DB000C7F9834628B33046002102F0F5F92946B9
:103DC0005846102209F049FCBAF1000F04D009EB63
:103DD00007035B88AAF80030B82303FB04946388C8
:103DE00094F8B4000133638048B92B4B1C78002C45
:103DF00042D0B8F1000F00D162B6BDE8F88F0020C4
:103E0000F7E70420F5E76B68C3F30B032BB17846A3
:103E1000204B1B68002B3BD09847AB68C3F30B02C9
:103E2000CAB178461B4B1B68C3B900DEB2E76B68AA
:103E3000980705D07846174B1B68002B24D098476D
:103E4000EB68990704D07846124B1B68F3B198478A
:103E5000AB689A07E5D1002B96D09BE79847AB68F3
:103E6000002B91D096E700DE002D88D17846094BD3
:103E70001B683BB1984782E709EB0700FFF7DEFDBF
:103E80002046B6E700DE7AE700DED9E700DEDFE7AE
:103E900000DEC2E7884600206C2000207020002051
:103EA00070B50B4C04F50A76EFF3108572B600215D
:103EB000204602F0A9F905B962B6082804F1B80451
:103EC00003D1B442F0D1002070BD012070BD00BF0D
:103ED0007C20002070B5EFF3108472B688B91B4DBA
:103EE0002B68DBB1013B2B607BB9194E96F8B430DF
:103EF00023B396F86C31EBB196F8243213B32B68E8
:103F000003E0124A1368013313600033114A18BFEB
:103F1000012313700CB962B670BD70BD78460E4BAC
:103F20001B6813B198472B68DCE700DE4FF0FF33C6
:103F30002B60EAE70948FFF781FDDDE73046FFF730
:103F40007DFDD6E70648FFF779FDD8E798220020E7
:103F5000702000206C2000208846002028210020AE
:103F6000E021002010B1800B014B185C704700BFAE
:103F7000A0E0020012DF704770B52C4D2B7882B0A4
:103F80001BB10824204602B070BD00283ED0284B4B
:103F900042681A600646FFF7EBF80DF10700FFF7DD
:103FA000E9FF04460028EDD19DF80730012B18BF2A
:103FB0000224E7D105F086FB00F03CFB01F062F93A
:103FC0003378012B2ED0FA2001F02CF804F09CFC61
:103FD00005F024FB04F04AFAFFF768FE02F0A2FDA8
:103FE00003F034FF304606F017FD304601F01CFBAD
:103FF00042F2107003F09EFD304608F0F9F9FEF72A
:10400000ABFC38B1062805D00446BBE70E24204699
:1040100002B070BD00F098FD064A00210123116036
:104020002B70AFE7F07800F047F9CDE79D22002034
:1040300088460020A0220020104B1B780BB90820D6
:10404000704710B50E4C237882B013B1082002B02F
:1040500010BD01F00DF820B178460A4B1B685BB12A
:10406000984704F067FC0028F1D1019005F0ECF9C5
:10407000012323700198EAE700DEF2E79D22002089
:104080009C220020884600202DE9F04F8DB005F0DD
:1040900009FA0446002800F0D780DFF8FC81DFF839
:1040A000FC91DFF8FCA1002600238DF8183027468C
:1040B0000FCF07AD0FC53B682B60627D052A04F169
:1040C0001D0525D902F1170163189D4220D26E4FBC
:1040D000AB469BF80130163B152B11D8DFE803F0F7
:1040E0004C10101010101010101010101010101094
:1040F000101010345C0B237D03F00F03022B79D0DA
:104100009BF8003001335B449B4663189B45E0D32A
:10411000D8F8001061B1237D049506A8063AC3F3D0
:10412000030305908DF80D208DF80C3003A8884707
:10413000204605F0F9F905F0B5F904460028B3D199
:1041400030460DB0BDE8F08F237D03F00F03022B46
:10415000D6D1584606AA10F8021B0139C9B2FCF79D
:10416000D5FC627D9BF80030052A03F101035B4416
:10417000CED902F11701C7E7BBF802004FF6E4639E
:104180009842BDD1584606AA10F8021B03390230E6
:10419000FEF7F6FC627DE5E7237D03F00F03022BBB
:1041A000AED1584606AA10F8021B013901F018FCDE
:1041B00006460028EED0D9F800305A06EAD5DAF8DB
:1041C0000030012BE6D92F21384609F01DFB0028CD
:1041D0003FD02F21384609F017FB411C2B4A2C4BAE
:1041E0000220D3F804358DE84400F82202F05EF88E
:1041F000627DB7E7584606AA10F8021B0139C9B21A
:1042000003F0F2FC06460028C4D0D9F800305B0663
:10421000C0D5DAF80030012BBCD92F21384609F07F
:10422000F3FA08B32F21384609F0EEFA411C194A77
:10423000174B0220D3F804358DE8440040F20B12EE
:1042400002F034F8627D8DE7064630460DB0BDE8D9
:10425000F08F5C21384609F0D7FA80B15C213846EE
:1042600009F0D2FA411CB9E75C21384609F0CCFAD2
:1042700038B15C21384609F0C7FA411CD7E7394606
:10428000ACE73946D3E700BFA4E00200C0E002007B
:1042900000B00040ECE00200A0220020041A002040
:1042A000001A00200020704708B500F093FE00209F
:1042B00008BD00BFFEF790BF07289ABF024B53F816
:1042C0002000FA20704700BF18E10200014B186877
:1042D00001F08AB8A422002070B5436905462BB1CD
:1042E0007846194B1B68002B2BD09847174C236836
:1042F000F3B1236868685B68C31A002B18DB216878
:1043000004E05A68121A002A03DA19464B69002B96
:10431000F7D1E2686B6101324D61E2603AB97846EB
:10432000094B1B6813B1BDE87040184700DE70BD33
:1043300022682560E3686A610133E360002BEED0F8
:10434000F5E700DED2E700BF88460020A822002063
:104350002DE9F04F7F4CDFF804A281B027464FF0E3
:1043600000094FF001083D6865B1A36853B12E788C
:10437000F6B2F31E012B40F2F38005F114073D68FD
:10438000002DF2D1DFF8D481002602276368C3B183
:1043900065686B6963602B786E61052B00F0D880CF
:1043A0002B78012B06D07846D8F80030002B00F08F
:1043B000098198472F702846FFF78EFF6368002B0E
:1043C000E6D100F0C9FADFF8948181462368002B1A
:1043D00067D023685B68A3EB0903642B61D527686A
:1043E0003B78022B06D07846D8F80030002B00F03E
:1043F000E78098477B692360E3680022591EE160EB
:104400007A6133B97846D8F80030002B00F0DC80B0
:104410009847BB68002B00F0DC80062248463A70C3
:104420003969DFF830B1984700F096FA4FF0000A8A
:104430008146DBF8005065B1A26852B12E78F6B221
:10444000F21E012A50D905F1140BDBF80050002DA3
:10445000F2D100264FF0020B6368BBB165686B694F
:1044600063602B786E61052B3CD02B78012B05D037
:104470007846D8F80030002B66D0984785F800B011
:104480002846FFF729FF6368002BE7D13B78062B0E
:104490009CD1F968002940F0A38039702368002B73
:1044A00097D100F059FA2368002B00F0A980236807
:1044B0005B68C3F16403C34200F1AB8000F16401A7
:1044C0000223254A012000F0FBF9002800F0988023
:1044D0007846224B1B68002B00F0918001B0BDE8AC
:1044E000F04F18472E70B7E76A69CBF80020E268F2
:1044F000C5F814A0501EE06022B97846D8F8002014
:1045000022B39047A268032E02F1FF32A26085F821
:1045100000A08ED12A7842B12A78062A05D07846A2
:10452000D8F80020002A70D090476A692AB17846EE
:10453000D8F80020002A60D090474FF001032B707C
:1045400062686A61656074E700DE97E700DED9E7BC
:104550002E701BE7A8220020CD42020088460020D2
:104560006B693B60E368C5F814905A1EE2602BB992
:104570007846DAF80030002B49D09847A368032E1C
:1045800003F1FF33A36085F800907FF4ECAE2B7845
:1045900043B12B78062B05D07846DAF80030002B93
:1045A00044D098476B692BB17846DAF80030002B7D
:1045B0003AD0984785F8008063686B616560D2E601
:1045C00000DE17E700DEF5E600DEBB68002B7FF4B7
:1045D00024AF7846D8F80020AAB19047BB681CE702
:1045E0007B680B44A3EB0902642AFAD402227B60A5
:1045F0003A703846FFF770FEE8E600DE9DE700DE21
:1046000001B0BDE8F08F00DE07E700DE8DE700DED9
:10461000B4E72368064A59680120022300F050F9E4
:1046200000287FF455AFEBE700DEC3E700DEB9E713
:10463000CD42020008B510220021044809F018F804
:10464000034800F0A9FE034B186008BDA822002013
:1046500051430200A422002070B5044600282CD04B
:10466000A36823B3EFF3108572B62378002262614A
:104670006BB12378062B0AD07846154E3368A3B168
:10468000984763691BB17846336873B19847012234
:10469000104B22705A6862615C6005B962B60E4BBD
:1046A000BDE87040186800F09FBE00DEEFE7784676
:1046B000074B1B683BB19847D4E77846044B1B680F
:1046C0001BB19847CCE700DECCE700DEC8E700BFAF
:1046D00088460020A8220020A422002038B50446E5
:1046E00010B3EFF3108572B62378062B16D023781B
:1046F000012B16D0237813B905B962B638BD2378DB
:10470000033B012B03D90C4A9368013393600B4A96
:1047100004231068237000F067FEEDE70023237088
:10472000EAE705232370E7E77846054B1B680BB1E2
:104730009847D6E700DED4E7A8220020A422002074
:104740008846002070B50E46044600283CD0EFF3A2
:10475000108572B62378EBB12378062B1AD0237814
:10476000012B0DD02378052B0AD02378033B012B96
:1047700003D91A4A9368013393600323237001E03D
:1047800001232370164B6660186800F02DFE05B9F2
:1047900062B670BD23783BB12378062B04D07846EF
:1047A000104B1B68B3B19847636923B178460D4B32
:1047B0001B683BB198470122084B22705A6862611E
:1047C0005C60DFE700DEF6E77846064B1B681BB14E
:1047D0009847BCE700DEE7E700DEB8E7A822002044
:1047E000A4220020884600202DE9F043DFF8C8907D
:1047F0002B4FDFF8C88083B00024A60006F1804567
:1048000005F50045D5F8403153B359F82420002A66
:104810003AD004F11003012101FA03F3002049F812
:104820000600C7F80833EFF31083C8F8003072B6FB
:104830001C4B1B78D3B11C4BC7F84C01F964D7F85B
:104840004C1518680144D8F8003003B962B6174B0C
:10485000E35C9B070DD5084690470023C5F840311F
:104860000134032CC9D103B0BDE8F083104B1968A3
:10487000E9E7104600F024FD0028EED078460D4B05
:104880001B685BB19847E8E778460A4B1B681BB189
:1048900001929847019ABCE700DEBAE700DEDCE748
:1048A00000800040C8220020CC220020B822002036
:1048B000E022002088460020BC220020DC220020CC
:1048C000022801D907207047F0B403F003049C428A
:1048D00002D00A20F0BC7047EFF31083164D2B6016
:1048E00072B6164F164B174E47F820201B78164FFE
:1048F000164A46F8201000263C5442F82060ABB11E
:10490000134B1B68CC1A48BF5C1A830003F1804329
:1049100003F50043012210300E4902FA00F0002294
:10492000C1F80403C3F84045C3F84021286808B91A
:1049300062B6CFE70020CDE7DC220020BC220020B9
:10494000C8220020D0220020B8220020E42200202B
:10495000CC22002000800040EFF310830F4A136048
:1049600072B60F4B1B788BB110B40E4B0E49012061
:104970000024C3F84C41D864D3F84C050B681844A4
:10498000136803B962B65DF8044B7047074B1868AB
:104990001368002BF9D162B6704700BFDC220020FB
:1049A000C822002000800040CC220020E02200200D
:1049B0002DE9F84F384EDFF8FCB0DFF8FC90DFF857
:1049C000FCA0804600F178070024A50005F1804195
:1049D00001F50041D9F800005BF824300022C1F84D
:1049E0004025C1F84021D1F84011191A48BFC11A19
:1049F000B7EB000C48BFA0EB070C8C45316823D9FE
:104A000039B1264BE05C00233360830736D540463E
:104A100088475AF8051021B1012300200B604AF89D
:104A200005000134032C06F10406CED11C4B1B6893
:104A30001BB91C4B4FF480721A601B4BC9F80080E5
:104A400001221A70BDE8F88F0029EAD005F18045EF
:104A5000B3EB080005F5004504F1100E4FF001011D
:104A6000124A48BFA8EB030001FA0EF10023C2F876
:104A70000413C5F84005C5F84031D2E70846414661
:104A800000F01EFC0028C4D078460949096809B125
:104A90008847BEE700DEBCE7BC220020B822002029
:104AA000DC22002000E100E0C8220020008000405D
:104AB00088460020D0220020CC220020E4220020C2
:104AC00030B4164B1A78D40705D5154C1549002279
