:020000022000DC
:1030000000000120E5AE02000DAF0200F94202000F
:1030100011AF020013AF020015AF02000000000064
:1030200000000000000000000000000017AF0200D8
:1030300019AF0200000000001BAF02001DAF02002C
:103040001FAF02001FAF02001FAF02001FAF020040
:103050001FAF02001FAF02001FAF02001FAF020030
:103060001FAF02001FAF02001FAF02001FAF020020
:103070001FAF02001FAF02001FAF02001FAF020010
:103080001FAF02001FAF0200B1CA02001FAF020053
:103090001FAF02001FAF0200714302001FAF02000A
:1030A0001FAF02001FAF02001FAF02001FAF0200E0
:1030B0001FAF02001FAF0200000000000000000070
:1030C0001FAF02001FAF02001FAF02001FAF0200C0
:1030D0001FAF02001FAF02001FAF02000000000080
:1030E00000000000000000000000000000000000E0
:1030F00000000000000000000000000000000000D0
:1031000000000000000000000000000000000000BF
:1031100000000000000000000000000000000000AF
:10312000000000000000000000000000000000009F
:10313000000000000000000000000000000000008F
:10314000000000000000000000000000000000007F
:10315000000000000000000000000000000000006F
:10316000000000000000000000000000000000005F
:10317000000000000000000000000000000000004F
:10318000000000000000000000000000000000003F
:10319000000000000000000000000000000000002F
:1031A000000000000000000000000000000000001F
:1031B000000000000000000000000000000000000F
:1031C00000000000000000000000000000000000FF
:1031D00000000000000000000000000000000000EF
:1031E00000000000000000000000000000000000DF
:1031F00000000000000000000000000000000000CF
:1032000010B5054C237833B9044B13B10448AFF320
:1032100000800123237010BD9832002000000000C0
:1032200000AC03000C4B43B10C480D4910B5AFF393
:1032300000800C48036823B910BD0A48036833B9FD
:103240007047094B002BF7D0BDE810401847064BDC
:10325000002BF5D0184700BF0000000000AC0300B1
:103260009C3200209032002000000000154B002B03
:1032700008BF134B9D46A3F5803A00218B460F46AD
:103280001348144A121A16F0E7F90F4B002B00D01E
:1032900098470E4B002B00D09847002000210400D7
:1032A0000D000D48002802D00C48AFF3008016F046
:1032B00085F92000290000F0FDFB16F06BF900BF36
:1032C00000000800000001200000000000000000D5
:1032D000983200205C610020000000000000000027
:1032E000F0B503788FB004460B2B00F23781DFE88E
:1032F00013F02B002B00350182001501C8003501A9
:103300003501E80035012D005400A54A1B68217ADB
:103310001180590418D5A34B1B68032B14D92F21F6
:10332000A14816F06DFA002800F0D3812F219E48A5
:1033300016F066FA411C9D4B9D4AD3F80435009265
:103340000420EC220AF0D8FC0FB0F0BD10220121BD
:10335000406802F081FF974B05460028D5D01B68D6
:103360005804F1D58F4B1B68002BEDD02F218E48D0
:1033700016F046FA002800F0B7812F218A4816F08F
:103380003FFA411C8C4A894B0120D3F804358DE863
:103390002400E7220AF0B0FCD6E7884D884F297850
:1033A000884E07EB4101308806F000FF002840F00E
:1033B00042812B78DFF844E28349E2680988E08A99
:1033C00001330EEB430307F0DDF8002840F03881AD
:1033D000784B1B685B0404D5724B1B68032B00F20F
:1033E0000F816F4B328819882B780A440133328061
:1033F0002B700FB0F0BD754D29780129A4D19DF82F
:103400003400734E6F4B0796002200F0FE0062F30B
:10341000410006F1DC661B888DF8340006F5C126F4
:103420006C4804920592ADF83230ADF82C20ADF81E
:103430002E20ADF830208DF812208DF81110664F37
:10344000CDF8172006F582768DF81410089004AB9D
:10345000624A63496348099704340A9602F0C0FE41
:10346000002840F0F7802146002307AA5D4802F0BB
:10347000CBFE18B14C4AB52100F0FAFE00232B70A8
:1034800062E74C4B1B685A047FF55EAF454B1B68E7
:10349000032B7FF659AF2F21434816F0B1F90028CE
:1034A00000F00C812F21404816F0AAF9411C3F4B37
:1034B0004D4AD3F8043500920420CC220AF01CFCBB
:1034C00042E74A4B0FCB07AD85E80F0029466068FD
:1034D000102202F0C9FE002840F0B780354B1B686F
:1034E0005A047FF531AF2F4B1B68032B7FF62CAFAF
:1034F0002F212D4816F084F9002800F0BC802F21E0
:10350000294816F07DF9411C284B394AD3F8043577
:1035100000920420F7220AF0EFFB15E7254B1B6809
:1035200059047FF511AF1F4B1B68032B7FF60CAFBF
:103530002F211D4816F064F9002800F0B4802F21D7
:10354000194816F05DF9411C184B2A4AD3F8043586
:1035500000920420C8220AF0CFFBF5E6154B1B6849
:103560005B047FF5F1AE0F4B1B68032B7FF6ECAECF
:103570002F210D4816F044F9002870D02F210A4859
:1035800016F03EF9411C094B20781B4AD3F804354C
:10359000019000920420FF220AF0AEFBD4E600BFA7
:1035A000DC32002010320020189B030000B00040E5
:1035B000EC9B030014320020B89B0300DA32002099
:1035C000B8320020B0310020D8320020C0320020B4
:1035D00050425F52454D4F54455F4E45E03200200A
:1035E000FC35002000330020689B03008098030016
:1035F0000C9C0300409B0300349C0300C432002059
:103600002F21464816F0FCF8002840D02F214348CF
:1036100016F0F6F8411C2A78414BE08A37F8124040
:10362000404AD3F80435019000920294DA22042033
:103630000AF062FBD5E6394AD12100F019FEB8E65E
:10364000364AD52100F014FEC2E6344AF62100F0D5
:103650000FFE43E7314AB42100F00AFE03E75C2184
:103660002E4816F0CDF8002849D05C212B4816F0E2
:10367000C7F8411C87E75C21284816F0C1F80028EC
:103680003FD05C21254816F0BBF8411C3CE75C218B
:10369000224816F0B5F8002835D05C211F4816F0F6
:1036A000AFF8411CB7E75C211C4816F0A9F860B3DD
:1036B0005C211A4816F0A4F8411C45E75C21174824
:1036C00016F09EF818B35C21144816F099F8411CC6
:1036D000EDE65C21114816F093F8E0B15C210F484B
:1036E00016F08EF8411C26E65C210C4816F088F88E
:1036F00078B15C21094816F083F8411C42E607497D
:1037000041E7064900E7054985E704491CE7034905
:10371000CDE6024936E601490DE600BF189B0300DD
:1037200000B00040889B03002DE9F04385B003788A
:103730000A2B04AF00F041810B2B044644D0042B2C
:1037400023D0C04B1B685B041BD5BF4B1B68032BEE
:1037500017D92F21BD4816F053F8002800F04D81ED
:103760002F21BA4816F04CF8411CB94AB94B2478BD
:10377000D3F8043504208DE814004FF48B720AF05E
:10378000BBFA0437BD46BDE8F083AE4B1B68580456
:10379000F7D5AD4B1B68032BF3D92F21AB4816F09F
:1037A0002FF8002800F041812F21A84816F028F8B2
:1037B000411CA84BA84AD3F804350092042040F2DB
:1037C0000D120AF099FADCE79E4E33685904D8D5F9
:1037D000DFF87482D8F80030032BD2D942689F4BAF
:1037E00011781B6899480D09E9468AB05D5D8DF82E
:1037F000105001F00F0104AD595C697051784FEA27
:10380000111E01F00F0113F80EE085F802E0595C7B
:10381000E97091784FEA111E01F00F0113F80EE0E4
:1038200085F804E0595C6971D1784FEA111E01F006
:103830000F0113F80EE085F806E0595CE971117983
:103840004FEA111E01F00F0113F80EE085F808E0B1
:10385000595C697251794FEA111E01F00F0113F89A
:103860000EE085F80AE0595CE97291794FEA111E81
:1038700001F00F0113F80EE085F80CE0595C697354
:10388000D1794FEA111E01F00F0113F80EE085F80F
:103890000EE0595CE973117A4FEA111E01F00F0135
:1038A00013F80EE085F810E0595C6974517A4FEA1C
:1038B000111E01F00F0113F80EE085F812E0595CBB
:1038C000E974917A4FEA111E01F00F0113F80EE02E
:1038D00085F814E0595C6975D17A4FEA111E01F040
:1038E0000F0113F80EE085F816E0595CE975117BBD
:1038F0004FEA111E01F00F0113F80EE085F818E0F1
:10390000595C6976517B4FEA111E01F00F0113F8E3
:103910000EE085F81AE0595CE976917B4FEA111EBA
:1039200001F00F0113F80EE085F81CE0595C69778F
:10393000D27B110902F00F02595CA9779B5CEB77EF
:10394000002385F820302F2115F05AFF002800F0C1
:103950009A802F213D4815F053FF411C3D4B4048B4
:10396000404AD3F8043501900092029540F21112BA
:1039700004200AF0C1F933685A04CD467FF501AF3F
:10398000D8F80030032B7FF6FCAE2F212F4815F01E
:1039900037FF00283DD02F212C4815F031FF411C66
:1039A000247A314A2B4B0420D3F804358DE81400D7
:1039B0004FF489720AF0A0F9E3E6224B1B685C041D
:1039C0007FF5DFAE204B1B68032B7FF6DAAE2F218D
:1039D0001E4815F015FF00284AD02F211B4815F06E
:1039E0000FFF411C1B4B214AD3F8043500920420E1
:1039F00040F209120AF080F9C3E65C21134815F081
:103A0000FFFE00284AD05C21104815F0F9FE411C49
:103A1000ABE65C210D4815F0F3FE002840D05C2198
:103A20000A4815F0EDFE411CBAE75C21074815F085
:103A3000E7FE002836D05C21044815F0E1FE411C69
:103A4000B7E600BF1432002010320020189B03009C
:103A5000B49C030000B00040709C030018320020AA
:103A60008C9C03009C9C0300A49C03004C9C0300C2
:103A70005C210F4815F0C4FEB0B15C210C4815F074
:103A8000BFFE411CAEE75C21094815F0B9FE68B1E4
:103A90005C21074815F0B4FE411C5FE7044964E669
:103AA00003497DE7024984E601499BE7004955E760
:103AB000189B03002DE9F04F00238FB04FF4F01056
:103AC0004FF0A041032203E0ED0748BF41F8242056
:103AD0000133202B40FA03F503F5E074F4D1724C66
:103AE000724A734E4FF4C04004210AF0F5F823687F
:103AF000580403D53368032B00F2DA8200F0FEFC91
:103B00006C4B6D4A1A60002718465F6008F058F841
:103B100006F0A0FA694B07970EAD1B6945F8283DE2
:103B20002846089709970A9706F0EEFA18B1644AF2
:103B3000802100F09DFB634A6349002006F0D8FC19
:103B400018B15F4A812100F093FB5E4A5F4B1188F8
:103B5000002007AA06F0B6FD18B1594A822100F0EC
:103B600087FB04F0CFFE5A4B5A4A5B48002101F014
:103B7000A3FF18B1524A852100F07AFB534FDFF8BA
:103B800058913988B9F8000005F016FB18B14C4A75
:103B9000862100F06DFB3988B9F8000005F038FB8C
:103BA00018B1474A872100F063FB0621B9F80000ED
:103BB00005F04CFB18B1424A882100F059FB4749F7
:103BC000474802F01FFB18B13D4A772100F050FB37
:103BD0002368590403D53368032B00F27E82414BDE
:103BE0000293DFF804B1DFF804A1354FDFF800815C
:103BF00011F050FB0130362838D8DFE810F05200C1
:103C000037003700370037003700370037003700FC
:103C100037003700520037003700520037003700B6
:103C200037003700370037003700370037003700DC
:103C300037003700370037003700370037003700CC
:103C400037003700370037003700370037003700BC
:103C500037003700370037003700370037003700AC
:103C600037007A0114015101EA007B0023685B04EC
:103C700017D53368032B14D92F21384615F0C0FD12
:103C8000002800F085812F21384615F0B9FD411C30
:103C9000029AD8F804350092042040F25B120AF030
:103CA0002BF807F077FEA3E714320020ADDC02000A
:103CB00010320020D0320020E13202008098030050
:103CC000189B0300D8320020B0990300B4320020C2
:103CD00029370200003300203C360020E03200206B
:103CE000FC35002094980300C0320020B031002041
:103CF00000B000402368580403D53368032B00F25A
:103D00001D8111F0C7FAC0B20A28FAD00D28F8D0E8
:103D1000FF28F6D03038C0B20190C048079000F1BB
:103D2000F87000F6F520089000F171409DF834E03D
:103D30000095A0F56E40099000F19F5000210EF013
:103D4000FE0E00F5B71061F3410E00F60F4029603A
:103D50006960BAF800C00A908DF834E0ADF82C1014
:103D60004FF0010EADF82E10ADF83010C5F8071069
:103D70008DF81210AA4BAB4AAB48ADF832C007A978
:103D80008DF811E08DF814E001F038FF002888D09C
:103D90002368590485D53368002B82D003902F21E6
:103DA000384615F02DFD039A002800F01B812F21C5
:103DB000384615F025FD039A411CD8F804350192C8
:103DC0009A4A00920120A22209F096FF07F0E2FD34
:103DD0000EE7954801F0E6FE00283FF462AF236845
:103DE0005B047FF55EAF3368002B3FF45AAF03905E
:103DF0002F21384615F004FD039A002800F0E380D7
:103E00002F21384615F0FCFC039A411CD8F80435E4
:103E10000192874A009201204FF4A67209F06CFFCC
:103E200007F0B8FDE4E623685A0403D53368032B92
:103E300000F2998011F02EFAC0B20A28FAD00D28AB
:103E4000F8D0FF28F6D0A0F1300189B2B9F800000F
:103E500005F07EF92368002851D05B047FF521AF7F
:103E60003368002B3FF41DAF03902F21384615F027
:103E7000C7FC039A002800F0FD802F21384615F07A
:103E8000BFFC039A411CD8F804350192694A00929C
:103E9000012040F2391209F02FFF07F07BFDA7E661
:103EA000614801F053FE00283FF4FBAE236859043B
:103EB0007FF5F7AE3368002B3FF4F3AE03902F216C
:103EC000384615F09DFC039A00286DD02F21384606
:103ED00015F096FC039A411CD8F804350192564A15
:103EE0000092012040F2451209F006FF07F052FD52
:103EF0007EE601238BF8003007F04CFD78E658048D
:103F00007FF5CFAE3368032B7FF6CBAE2F2138463B
:103F100015F076FC002800F0A2802F21384615F01D
:103F20006FFC411C454AD8F804350092042040F249
:103F30003D1209F0E1FE07F02DFD59E62F2138462C
:103F400015F05EFC00285CD02F21384615F058FC97
:103F5000411C3B4AD8F804350092042040F251122B
:103F600009F0CAFECDE62F21384615F049FC00289D
:103F70006AD02F21384615F043FC411C314AD8F84D
:103F800004350092042040F2331209F0B5FE51E7E7
:103F90005C21384615F034FC002879D05C21384685
:103FA00015F02EFC411C73E65C213846039215F097
:103FB00027FC039A002873D05C21384615F020FCBA
:103FC000039A411C88E75C213846039215F018FCDF
:103FD000039A002866D05C21384615F011FC039A3C
:103FE000411C13E75C213846039215F009FC039A43
:103FF000002851D05C21384615F002FC039A411C80
:10400000DBE65C21384615F0FBFB002846D05C213E
:10401000384615F0F5FB411C9BE700BF50425F524C
:10402000E0320020FC3500203C360020E89A0300F6
:10403000949A03002C9A0300689A0300589A03008C
:10404000C09A0300049A03005C21384615F0D8FB9F
:1040500000B35C21384615F0D3FB411C8EE75C2190
:10406000384615F0CDFBF8B15C21384615F0C8FB99
:10407000411C57E75C213846039215F0C1FB039AB7
:10408000A0B15C21384615F0BBFB039A411CFAE64F
:104090003946FDE5394671E739468EE6394658E737
:1040A000394619E73946B1E639463BE73946EAE68B
:1040B0002F21224815F0A4FB28B32F211F4815F00B
:1040C0009FFB411C1E4B1F4AD3F80435009204206D
:1040D00040F2651209F010FE10E52F21174815F087
:1040E0008FFBD8B12F21154815F08AFB411C164AC9
:1040F000134B0292D3F80435009204204FF4B872A7
:1041000009F0FAFD6DE55C210C4815F079FB80B1F2
:104110005C210A4815F074FB411CD3E75C21074879
:1041200015F06EFB38B15C21044815F069FB411CA9
:10413000DDE70249C6E70149D9E700BF189B030044
:1041400000B00040C09903009498030048DF704716
:1041500010DF704760DF704761DF704710B51B4BA1
:104160001B685B0482B004460ED44FF0A0434FF4AA
:10417000F012C3F80825C3F80C25EFF3108372B6CC
:1041800004B1FEE702B010BD2F21114815F038FB35
:1041900078B12F210E4815F033FB411C0D4A0E4B10
:1041A0000020D3F804358DE814004E2209F0A4FD58
:1041B000DBE75C21064815F023FB28B15C210448AD
:1041C00015F01EFB411CE9E70149E7E71432002026
:1041D000F49C0300109D030000B0004070B51F4B1D
:1041E0001B685B0484B00C4602D51D4B1B6873B979
:1041F0004FF0A0434FF4F012C3F80825C3F80C2584
:10420000EFF3108372B604B1FEE704B070BD05464B
:104210002F211448164615F0F3FA88B12F211148C2
:1042200015F0EEFA411C104A104B0120D3F804356A
:1042300003968DE824000294702209F05DFDD7E713
:104240005C21084815F0DCFA28B15C21054815F01E
:10425000D7FA411CE7E70349E5E700BF1432002025
:1042600010320020F49C0300E49D030000B00040E5
:1042700000B51C4B1B685B0485B002D51A4B1B684C
:104280005BB94FF0A0434FF4F012C3F80825C3F810
:104290000C25EFF3108372B6FEE70D4606462F217C
:1042A0001248144615F0ACFA78B12F210F4815F0DA
:1042B000A7FA411C0E4A0F4B0120D3F804358DE8B4
:1042C0007400482209F018FDDBE75C21074815F06F
:1042D00097FA28B15C21054815F092FA411CE9E7EC
:1042E0000249E7E71432002010320020F49C03005A
:1042F000D49C030000B0004000B5194B1B685B0460
:1043000083B00BD44FF0A0434FF4F012C3F808254C
:10431000C3F80C25EFF3108372B6FEE72F21114886
:1043200015F06EFA70B12F210E4815F069FA411C94
:104330000D4B0E4AD3F8043500920020542209F0A8
:10434000DBFCDFE75C21074815F05AFA28B15C2155
:10435000044815F055FA411CEAE70249E8E700BFB6
:1043600014320020F49C030000B00040C49C030001
:1043700070B582B002E0019807F01CFC01A8FFF7BD
:10438000E5FE0028F7D002AE4F2526F8065D074C63
:1043900004E0204607F00CFCADF802503146204600
:1043A000FFF7DAFE0028F4D002B070BD68360020B6
:1043B00030B54A4C2368590485B021D5484D2B6847
:1043C000032B49D8474B0293029B03932B68032B83
:1043D0001AD92F21444815F013FA00286DD02F2147
:1043E000414815F00DFA411C404B414AD3F80435C1
:1043F000029D04208DE82400832209F07DFC03E067
:10440000384B0293029B039303A8FFF7A3FE029B82
:10441000039A9A4205461CD023685B0419D5304B99
:104420001B68012B15D92F212F4815F0E9F9002819
:104430002DD02F212C4815F0E3F9411C2B4B03986C
:104440002C4AD3F804350190009202208C2209F006
:1044500053FC284605B030BD2F21234815F0D0F974
:1044600000B32F21204815F0CBF9411C1F4B224AE5
:10447000D3F80435009204207A2209F03DFC194B50
:1044800002932368029A03925A04BDD59EE75C21E9
:10449000154815F0B5F9D8B15C21134815F0B0F9FD
:1044A000411CCBE75C21104815F0AAF990B15C21C2
:1044B0000D4815F0A5F9411CD8E75C210A4815F014
:1044C0009FF948B15C21084815F09AF9411C8BE727
:1044D0000549B3E70449C9E7034985E714320020D9
:1044E00010320020B0310020F49C030000B00040E6
:1044F000989D0300A89D03007C9D030030B5654C8A
:104500002368590487B003D5634B1B68032B0BD872
:1045100006A8624B40F8103D6149FFF719FEC0B193
:10452000604A9321FFF7A4FE2F215E4815F068F939
:10453000002876D02F215B4815F062F9411C5A4BB8
:104540005A4AD3F8043500920420B52209F0D4FB6E
:10455000DEE7574A92F816335B09012B40F2888058
:10456000042B00F08580534B9968002954D14FF4F7
:1045700080031360FFF71CFF002840F0878023684A
:104580005A0403D5444B1B68032B1CD80023012578
:104590000721494A039303A805938DF80C508DF821
:1045A0000F10049207F070F900286BD123685B04A8
:1045B00003D5394B1B68032B1AD807F0C1F9002823
:1045C0005CD107B030BD2F21364815F019F900280D
:1045D0003DD02F21334815F013F9411C324B374A97
:1045E000D3F8043500920420BF2209F085FBCDE703
:1045F0002F212C4815F004F9F0B12F21294815F08E
:10460000FFF8411C284B2E4AD3F8043500920420B1
:10461000C62209F071FBD0E71A6842F480021A60E2
:10462000A8E75C211F4815F0EBF8D8B15C211D48C4
:1046300015F0E6F8411C82E75C211A4815F0E0F815
:10464000A0B15C21174815F0DBF8411CDAE75C21CA
:10465000144815F0D5F838B15C21124815F0D0F89F
:10466000411CBBE70F496AE70E49B7E70D49C9E7A7
:104670000C4A942142F20200FFF7FAFD094AC721D1
:10468000FFF7F6FD074AC421FFF7F2FD054A97211F
:10469000FFF7EEFD14320020103200200100000769
:1046A000DD410200F49C030000B000402C9D03009B
:1046B00000E100E0D06000205D410200489D030061
:1046C000649D030000207047002070470020704761
:1046D00030B50446007A4B68032889B05D6806D17E
:1046E000A28B48F260039A4223D009B030BD224B1E
:1046F0001B689B04F9D5214B1B68032BF5D92F218F
:104700001F4815F07DF848B32F211D4815F078F8A3
:10471000411C1C4B227AD3F8043502922D781A4A98
:1047200004208DE8240040F2992209F0E5FA207A6D
:10473000DBE72B7813B9022009B030BD0221606895
:1047400001F0A2FE00230421059305A8A26A0693A6
:1047500007938DF8141090470120C6E75C210848A4
:1047600015F04EF828B15C21054815F049F8411CB8
:10477000CFE70349CDE700BF1432002010320020FC
:10478000CCA0030000B00040F8A0030030B5037ACD
:104790004A68022B87B055680CD0032B044617D00B
:1047A000012B0AD0934A1268920403D5924A1268E8
:1047B000032A67D8184607B030BD2A7802B3012A09
:1047C0003ED18C4B1B689C0400F195800223F1E7DD
:1047D000818B48F263029142ECD12B78052B00F2D9
:1047E000A68001A252F823F0B7480200DF48020079
:1047F000D9480200D3480200BB480200CD4702005E
:104800007C4A12689504D5D57B4A1268042AD1D90E
:104810002F217A4814F0F4FF002800F0B4802F21F3
:10482000764814F0EDFF411C754B764AD3F80435F9
:104830000092052040F2BF1209F05EFA0123B9E7A9
:104840006C4A12689004B5D56B4A1268042AB1D933
:104850002F216A4814F0D4FF002800F09F802F21F8
:10486000664814F0CDFF411C654B2878664AD3F8A2
:10487000043501900092052040F2C71209F03CFA7D
:10488000237A97E72F215D4814F0BAFF00286FD0F4
:104890002F215A4814F0B4FF411C2D785A4A584B26
:1048A0000420D3F804358DE8240040F2FB1209F00F
:1048B00023FA237A7EE701237CE700230921A26AF9
:1048C00003930493059303A88DF80C1090470123DC
:1048D00070E700230521F2E700230821EFE700231A
:1048E00006210393826A0493059303A88DF80C10A4
:1048F000904702235EE7404B1B68042B7FF666AFB0
:104900002F213E4814F07CFF002854D02F213B4833
:1049100014F076FF411C3A4B3C4AD3F80435009220
:10492000052040F2C31209F0E7F9022342E7314BB8
:104930001B689904BFD5304B1B68032BBBD92F21B3
:104940002E4814F05DFF002844D02F212B4814F08E
:1049500057FF411C2A4B28782D4AD3F80435019083
:104960000092042040F2EF1209F0C6F9012321E77A
:104970005C21224814F044FFD8B15C211F4814F098
:104980003FFF411C89E75C211C4814F039FFF8B156
:104990005C211A4814F034FF411C45E75C2117489C
:1049A00014F02EFF90B15C21144814F029FF411C33
:1049B0005AE7124971E75C21104814F021FFA0B1B9
:1049C0005C210E4814F01CFF411CA4E70B494BE787
:1049D0000A4929E75C21094814F012FF38B15C212B
:1049E000064814F00DFF411CB4E7044993E703495E
:1049F000B0E700BF1432002010320020CCA003002A
:104A000000B00040249F0300549F0300409F030018
:104A10006C9F0300037A032B13D130B5848B48F2CB
:104A20006702944287B002D0184607B030BD4B6889
:104A30005C6823780546032B39D8DFE803F01021A2
:104A400035041846704700230321AA6A0393049390
:104A5000059303A88DF80C1090470123E4E74E4B13
:104A60001B68990403D54D4B1B68042B57D80023B2
:104A7000049303930593AA6A03A890470123D3E7FD
:104A8000454B1B689A0403D5444B1B68042B31D853
:104A900000230124039304930593AA6A8DF80C4024
:104AA00003A890472346BFE700230221CDE73A4BF6
:104AB0001B689B041CD5394B1B68012B18D92F216F
:104AC000374814F09DFE00283ED02F21344814F0C2
:104AD00097FE411C334B2078334AD3F804350190BC
:104AE000009202204FF4D47209F006F901239BE7EB
:104AF000012399E72F212A4814F082FE78B32F2151
:104B0000274814F07DFE411C264B284AD3F8043573
:104B1000009205204FF4CC7209F0EEF8B8E72F218F
:104B20001F4814F06DFE28B32F211D4814F068FEB5
:104B3000411C1C4B1E4AD3F804350092052040F25C
:104B4000931209F0D9F892E75C21154814F058FE49
:104B5000D8B15C21124814F053FE411CBAE75C2125
:104B60000F4814F04DFE90B15C210D4814F048FE42
:104B7000411CC9E75C210A4814F042FE48B15C219F
:104B8000074814F03DFE411CD3E70549A2E704495C
:104B9000BAE70349CDE700BF1432002010320020ED
:104BA000CCA0030000B00040B0A003008CA0030024
:104BB00068A0030030B5184B1B689B0483B0044603
:104BC00019D5164B1B68012B15D92F21144814F049
:104BD00017FE98B12F21124814F012FE411C114A01
:104BE000114B257AD3F8043502208DE8240040F2D9
:104BF000651209F081F8207A03B030BD5C210848C5
:104C000014F0FEFD28B15C21054814F0F9FD411CAB
:104C1000E5E70349E3E700BF14320020103200202B
:104C2000CCA0030064A1030000B0004030B5037ABB
:104C3000032B85B00BD07846154B1B681BB19847EA
:104C4000012005B030BD00DE012005B030BD0446B6
:104C500000250A23019502958DF804300395A36A77
:104C600001A89847A28B48F267039A42E8D0022134
:104C7000606801F009FC042201950DEB0200A36AB3
:104C8000029503958DF804209847012005B030BDAA
:104C9000DC6000202DE9F047DFF814A13E4E3F4FC5
:104CA000DFF81081DFF81091012396B004468AF8EE
:104CB00000300BE09DF81020394B04A953F8223046
:104CC00020469847237A8342054629D104A93046D5
:104CD00006F0FAF9F0B93B689A04EBD5D8F8003041
:104CE000042BE7D92F21484614F08AFD08B32F2161
:104CF000484614F085FD411C9DF81050294A2A4B66
:104D00000520D3F804358DE824004FF4417208F0F3
:104D1000F3FFCFE700238AF8003016B0BDE8F08734
:104D20003B689B0403D5D8F80030042B0CD82572BF
:104D3000CCE75C21484614F063FDF0B15C214846A5
:104D400014F05EFD411CD7E72F21484614F058FDB2
:104D5000A8B12F21484614F053FD411C124B207A74
:104D6000124AD3F8043501900092029540F20E32B7
:104D7000052008F0C1FF2572A8E74946BCE75C2181
:104D8000484614F03DFD28B15C21484614F038FD3A
:104D9000411CE3E74946E1E7FC36002014320020DD
:104DA000AC9E0300B4A1030000B00040C0A103000A
:104DB000B736002010320020CCA0030010B50C46FE
:104DC00092B0B0B148220021684614F045FC072398
:104DD00069460C488DF800308DF8044006F04AF919
:104DE000094B1B781BB9094B1868FFF753FF12B02A
:104DF00010BD7846064B1B680BB19847E2E700DE12
:104E0000E0E700BFFC360020B7360020A0370020C6
:104E1000DC60002010B50C4696B0002964D0002A52
:104E20003DD0012A33D1454B1B689B0419D5444B17
:104E30001B68012B15D92F21424814F0E1FC0028F2
:104E400061D02F213F4814F0DBFC411C3E4B208AEF
:104E50003E4AD3F80435019000920220FD2208F06A
:104E60004BFF002104A8482214F0F6FB0D2304A9EF
:104E700037488DF8103006F0FDF800282ED1354B5C
:104E80001B7813B92046FFF705FF16B010BD784612
:104E9000314B1B68002B2FD0984716B010BD274B05
:104EA0001B689A04F1D5264B1B68042BEDD92F21E2
:104EB000244814F0A5FC002830D02F21214814F0FC
:104EC0009FFC411C248A254A1F4B0520D3F804353A
:104ED0008DE81400F72208F00FFFD6E778461E4B46
:104EE0001B6863B19847CAE778461B4B1B6843B100
:104EF00003929847039A92E700DE16B010BD00DED9
:104F0000BDE700DE8BE75C210E4814F079FC80B130
:104F10005C210C4814F074FC411C97E75C210948A3
:104F200014F06EFC38B15C21064814F069FC411C99
:104F3000C8E704498AE70349C4E700BF14320020E8
:104F400010320020CCA0030000B000404C9E0300B3
:104F5000FC360020B7360020DC600020309E0300C5
:104F600010B592B0B8B1B1B10C240DF10600ADF896
:104F700004208DF8004014F064FB6946084806F0F0
:104F800079F8044640B9074B1B782BB9064B1868D3
:104F9000FFF780FE00E00E24204612B010BD00BFD7
:104FA000FC360020B7360020A0370020F0B50D46B3
:104FB00004464968007A4E688DB0002843D0022824
:104FC0000DD903283FD1208804F052FB00285ED081
:104FD0007846604B1B68002B58D0984769685E4A3A
:104FE000069205AA0023079220888DF81530022723
:104FF000052506AAADF820708DF8145003F040FF87
:1050000030F0040305D07846524B1B68002B52D079
:1050100098473378042B50D8DFE803F03B41030373
:10502000030009AD7178606801F02EFA00230421B5
:1050300009932846A26A6B60AB608DF824109047F4
:1050400001200DB0F0BD454B1B689B04F9D5444BC6
:105050001B68012BF5D92F21424814F0D1FB002801
:105060005ED02F213F4814F0CBFB411C3E4B227AEF
:10507000D3F80435029230783C4A01900092022025
:1050800040F23D2208F038FE207ADAE700DE696857
:10509000A5E7606801F0F4F902200DB0F0BD00232F
:1050A00009AD072209930A930B9328468DF8242013
:1050B000A36A9847B6E700DEABE70221606801F01B
:1050C000E3F90023042209930A930B938DF824201B
:1050D000A36A09A89847214B1B689A041DD5204B49
:1050E0001B68012B19D92F211E4814F089FB10B31E
:1050F0002F211C4814F084FB411C1B4B227AD3F84F
:105100000435029234781A4A02208DE8140040F2E5
:10511000372208F0F1FD012093E701200DB0F0BD2A
:105120005C21104814F06CFB80B15C210D4814F038
:1051300067FB411C9AE75C210A4814F061FB38B117
:105140005C21084814F05CFB411CD6E705498DE75B
:105150000449D2E7DC6000206380FFFF14320020A6
:1051600010320020CCA0030000B00040B09F03002C
:105170008C9F030070B586B0037A374A03920446C9
:10518000012202A8022B0D460490ADF8142038D05D
:10519000032B13D149682088002303AA8DF8083017
:1051A00003F06EFE30F0040305D078462B4B1B68ED
:1051B000002B40D09847207A06B070BD284B1B6862
:1051C0009B041AD5274B1B68012B16D92F21264883
:1051D00014F016FB002832D02F21234814F010FBC6
:1051E000411C224B207A224AD3F8043501900092C8
:1051F000022040F2762208F07FFD696820880123B2
:10520000CBE7496820884E68002303AA8DF8083050
:1052100003F036FE30F0040304D078460F4B1B68D1
:105220005BB198476B6860681A89314601F030F9C4
:10523000022006B070BD00DEBDE700DEF2E75C21B3
:10524000094814F0DDFA28B15C21074814F0D8FAB7
:10525000411CC6E70449C4E76080FFFFDC60002012
:105260001432002010320020CCA0030000B0004017
:10527000F89F030070B50446007A012809D07A46E9
:10528000194B1B681BB110469847207A70BD00DE91
:1052900070BD0D468B6860681449002200F0F0FE76
:1052A00020B17846104B1B68C3B19847104B114E84
:1052B00011492A796361012020832661E16104F1AB
:1052C0000C001A7004F0FCF908B9032070BD784690
:1052D000054B1B6823B19847032070BD00DEE5E74E
:1052E00000DE032070BD00BFDC600020E49E0300F0
:1052F000B83600206280FFFF6380FFFFF0B58BB0FF
:10530000037A394A04920E460446496803A80222E9
:105310000590ADF81820012B4D681DD0334B1B684C
:105320009B0403D5324B1B68032B34D82B7C8DF8A0
:105330000D302088012304AA8DF80C3003F0A0FD65
:1053400030F0040305D078462A4B1B68002B3AD076
:105350009847207A0BB0F0BD00222B7C8DF80C20F2
:1053600020888DF80D3004AA03F08AFD30F0040384
:1053700004D078461F4B1B683BB398472A7C08959E
:105380000B238DF81C3007A88DF82420A36A9847BA
:10539000207A0BB0F0BD2F21174814F031FAB0B1CC
:1053A0002F21154814F02CFA411C277A134A144B6C
:1053B0000420D3F804358DE8840040F2571208F039
:1053C0009BFC7168B2E700DEC3E700DED6E75C2134
:1053D000094814F015FA28B15C21074814F010FAB6
:1053E000411CE2E70449E0E76D80FFFF1432002032
:1053F00010320020DC600020CCA0030090A103004C
:1054000000B0004070B50446007A022886B00D4610
:105410004FD0032807D1A28B48F260039A4221D0D3
:10542000032006B070BD4E4B1B689B04F9D54D4B55
:105430001B68012BF5D92F214B4814F0E1F9002806
:1054400074D02F21484814F0DBF9411C474B484ADF
:10545000D3F80435009202204FF4317208F04CFC6E
:10546000207ADEE73E4B1B689A0418D53D4B1B683B
:10547000042B14D92F213C4814F0C2F9002862D023
:105480002F21394814F0BCF9411C384B394AD3F864
:105490000435009205204FF42A7208F02DFC208874
:1054A00004F0E6F828B17846334B1B68002B38D15E
:1054B00000DE69684B681B78DBB9304B03932088AA
:1054C000032302AE012503AA8DF808300496ADF837
:1054D000145003F0D5FC30F0040304D07846264B7A
:1054E0001B68E3B19847606801F016F8022006B027
:1054F00070BD234B234E24492A7963610120208308
:105500002661E16104F10C001A7004F0D9F800285A
:1055100086D07846184B1B682BB1984780E700DE91
:10552000E1E79847C5E700DE03207AE75C210E48F3
:1055300014F066F928B15C210B4814F061F9411CA4
:1055400084E7094982E75C21074814F059F928B13A
:105550005C21054814F054F9411C96E7024994E790
:105560001432002010320020CCA0030000B0004014
:1055700030A1030020A10300DC6000206080FFFF59
:10558000B83600206180FFFF6380FFFF30B5037AEB
:10559000022B83B0044624D0264B1B689B041DD5E8
:1055A000254B1B68012B19D92F21244814F028F909
:1055B00000282FD02F21214814F022F9411C247AF1
:1055C0001F4A204B0220D3F804358DE8140040F226
:1055D000512208F091FB012003B030BD012003B03F
:1055E00030BD0A79184B1948194DE06101216361FA
:1055F0002561218304F10C001A7004F061F810B9E0
:10560000032003B030BD7846124B1B686BB198473E
:105610000320E1E75C21094814F0F2F840B15C2175
:10562000064814F0EDF8411CC9E700DE0320D3E77B
:105630000249C4E71432002010320020CCA003003D
:10564000F89E030000B00040B83600206380FFFFE2
:105650006180FFFFDC60002070B50446007A0228FC
:1056600082B01ED18A88412A0D4606D978462A4B37
:105670001B68002B3DD09847AA88284EA91D3046AC
:1056800013F0DFFFA988264A264B66612183226139
:10569000E36104F10C0004F013F818BB032002B01E
:1056A00070BD214B1B689B04F9D5204B1B68012B57
:1056B000F5D92F211E4814F0A3F8F8B12F211C486A
:1056C00014F09EF8411C257A1A4A1B4B0220D3F88D
:1056D00004358DE824004FF43C7208F00DFB207A6D
:1056E00002B070BD78460C4B1B6823B1984703206D
:1056F000D5E700DEC1E700DE0320D0E75C210C48DF
:1057000014F07EF828B15C21094814F079F8411CA6
:10571000D9E70749D7E700BFDC600020B836002092
:105720001200FFFF6080FFFF1432002010320020C3
:10573000CCA00300DC9F030000B0004030B504465D
:10574000007A012883B021D0244B1B689B041BD511
:10575000234B1B68012B17D92F21224814F050F836
:1057600000282DD02F211F4814F04AF8411C257A1B
:105770001D4A1E4B0220D3F804358DE8240040F268
:10578000731208F0B9FA207A03B030BD184A1949EB
:10579000194B2261002261612283E36104F10C0054
:1057A00003F08EFF10B9032003B030BD7846134BD1
:1057B0001B6813B198470320E6E700DE0320E3E708
:1057C0005C21084814F01CF828B15C21054814F04D
:1057D00017F8411CCBE70349C9E700BF143200208A
:1057E00010320020CCA0030048A0030000B000400D
:1057F0006580FFFFB83600206780FFFFDC60002077
:1058000030B50446007A012883B021D0244B1B68B0
:105810009B041BD5234B1B68012B17D92F21224832
:1058200013F0EEFF00282DD02F211F4813F0E8FFC2
:10583000411C257A1D4A1E4B0220D3F804358DE801
:1058400024004FF4C17208F057FA207A03B030BD3B
:10585000184A1949194B2261002261612283E361D0
:1058600004F10C0003F02CFF10B9032003B030BD8D
:105870007846134B1B6813B198470320E6E700DE18
:105880000320E3E75C21084813F0BAFF28B15C214C
:10589000054813F0B5FF411CCBE70349C9E700BF3A
:1058A0001432002010320020CCA0030028A00300F6
:1058B00000B000406480FFFFB83600206780FFFF23
:1058C000DC6000202DE9F0410F469EB09046002A92
:1058D00000F09180744D3E880FCD01AC0FC40FCD08
:1058E0000FC495E8070003C4122E228025D0BDF80E
:1058F0000430B34200F0BC80BDF80A30B34200F07F
:10590000B980BDF81030B34200F0B680BDF8163053
:10591000B34200F0B980BDF81C30B34200F0B6804D
:10592000BDF82230B34256D0BDF82830B34208BF8C
:10593000062351D01EB0BDE8F0813B89013B9BB2EC
:105940000822402B8DF83020F4D81EAC4FF6FF759E
:1059500024F8785DB8F80000214603F017FC60B920
:10596000BDF80000A84208D001A904F0FDFC20B950
:10597000BDF80620FB899A4244D03B8848F2630573
:105980004FF6FF72AB42ADF80620D3D04ED948F2A5
:105990006A0293427CD048F26C02934261D10223A6
:1059A000ADF8045001AA3946B8F80000ADF80C3043
:1059B0000626002502948DF800608DF8015003F052
:1059C0005FFA30F00403B5D07846384B1B68002BE3
:1059D00045D09847AEE705231EAA03EB430302EB2D
:1059E00043033A8933F8721C9142A3D113F8703CF7
:1059F0008DF83030A9E778462C4B1B68002B35D04A
:105A0000984767E70CA92A480D9705F033FB28B1A2
:105A10007846264B1B68002B43D09847254B1B78B4
:105A2000002B87D14046FFF735F983E7112BCBD305
:105A3000122B23D8B8F80000029401AA3946042595
:105A400048F260040123ADF80C308DF80050ADF839
:105A5000044003F015FA30F00403B5D16AE700DE24
:105A600068E748F267029342AED163E700DE31E7B0
:105A70000023B1E70123AFE70223ADE748F260025C
:105A800093423FF457AF9FE70323A5E70423A3E71F
:105A9000029401AA3946B8F80000052548F26704C7
:105AA000D0E700DEBAE700BF049E0300DC60002000
:105AB000FC360020B7360020002837D0002A35D029
:105AC000002B33D0F0B51A4D42608362194A0E465E
:105AD00002231949AB6087B004464823284685E86D
:105AE0000C000C604FF6FF7705F096FA134DADF8F9
:105AF000046048F2040E07220023214668460494FD
:105B0000ADF800E0ADF8027002950392059302F043
:105B100053FF48B90A4B25880A490B4A18700123DC
:105B2000A58161622262237207B0F0BD0E2070472A
:105B3000FC36002010370020A0370020749E0300A0
:105B4000B7360020154E020080C3C90130B593B0AE
:105B500038B1037A012B18BF082506D0284613B0A8
:105B600030BD0E25284613B030BD48220021044622
:105B7000684613F071FD0223694608488DF800302D
:105B800005F078FA05460028E8D1054B1B78002B74
:105B9000E4D12046FFF77EF8E0E700BFFC360020A6
:105BA000B736002030B593B038B1037A012B18BF57
:105BB000082506D0284613B030BD0E25284613B060
:105BC00030BD482200210446684613F045FD0323FA
:105BD000694608488DF8003005F04CFA0546002863
:105BE000E8D1054B1B78002BE4D12046FFF752F893
:105BF000E0E700BFFC360020B7360020F0B593B0D8
:105C00009DF8646038B1047A012C18BF082506D0CD
:105C1000284613B0F0BD0E25284613B0F0BD04464B
:105C200010460F461A460146189B606800F0D8FAE5
:105C300005460028ECD101464822684613F00CFDC9
:105C40000B23694609488DF8046002978DF80030EF
:105C500005F010FA05460028DAD1054B1B78002B19
:105C6000D6D12046FFF716F8D2E700BFFC36002059
:105C7000B736002090F8B33203B9704700B5002260
:105C80008DB0034680F8B322052201A802938DF857
:105C90000C108DF8042005F05DF90DB05DF804FBE3
:105CA00070B590F8B352022D8CB001D00CB070BD1D
:105CB000042604460DEB060002948DF8046005F0FE
:105CC00049F904F29D220021204600F00DFB18B98D
:105CD00084F8B3620CB070BD2946204600F000FB8A
:105CE000E4E700BF90F8B322072A00D0704710B550
:105CF00090F8B0328CB0044673B9D0F8B81100F007
:105D00003BFB20B9092384F8B3320CB010BD204608
:105D1000022100F0E5FAF8E70A2380F8B3320923FC
:105D200001A802948DF8043005F014F90CB010BDF0
:105D30002DE9F0410C46A4B005461146204600F07E
:105D40009BFA70B12378013B082B0AD8DFE813F0E7
:105D50001F000900570078008F00A50009001A01F4
:105D600010002846022100F0BBFA24B0BDE8F08103
:105D700063788DF86C3019A80D231A958DF864306E
:105D800005F0E8F82846022100F0AAFAEDE795F8B8
:105D9000B332042BE9D1611C0B2205F29E2013F0D3
:105DA00050FC052385F8B3326288B4F80730608967
:105DB00094F801E0277966791A95110A41EA0221DF
:105DC0001A0A42EA0322030A43EA0023A579ADF83E
:105DD0006D10647AADF872200A2119A8ADF87530FB
:105DE0008DF86CE08DF86F708DF870608DF87150E3
:105DF0008DF874408DF8641005F0ACF8B5E795F8AF
:105E0000B332092BB1D105F5E076611C4022304652
:105E100013F017FC00F00CFC002840F0218105F580
:105E20000071284600F0CAFC00289AD195F8B432D7
:105E3000032B96D8DFE813F00D010201EF00D50027
:105E400095F8B332112B90D105F27D21284619AA7D
:105E500005F24D2300F0F2FB19A9284600F0ACFA38
:105E600000287FF47EAF102385F8B3327DE795F8E4
:105E7000B322102A7FF479AF611C05F28D2013F054
:105E8000E0FB05F24D21284600F0B6FA00287FF429
:105E900068AF122385F8B33267E795F8B332122B57
:105EA0007FF463AF611C102205F25D2013F0C9FB83
:105EB000284600F083FD00283FF453AF01AE0DF1FA
:105EC00014083246414605F50873284609AC00F02F
:105ED0001BFC0723102205F5307120468DF8403059
:105EE00013F0AFFB95F8D8129DF83630D5F8D222D2
:105EF000B5F8D672B5F8D0021A96C1F3400E6EF31B
:105F0000000361F341034FEA022E110E41EA0261E0
:105F10000EF47F0E120A41EA0E0102F47F420A4398
:105F2000390A41EA0727010A41EA00206FF3870393
:105F30000DF15A014FF0190E8DF83630CDF837209B
:105F400000230822ADF834000DF1410619A8209174
:105F5000CDF864801B94ADF83B70ADF870E01F96EF
:105F60001D93ADF878308DF8842006F05DFF10A900
:105F7000284600F061FA00287FF4F3AE142385F878
:105F8000B332F2E695F8B332142B7FF4EEAE95F807
:105F9000D8229DF87C30D5F8D262B5F8D612B5F883
:105FA000D042ADF87A1062F30003C2F3400262F30C
:105FB00041034FF00B0E05F5307219A805F508776F
:105FC0001A958DF87C308DF864E01C971B921D9615
:105FD000ADF8784004F0BEFF2846002100F080F9BB
:105FE000C3E605F26D242146284600F003FC112388
:105FF00085F8B33295F8AE2295F8AF321C9406219D
:1060000019A81A958DF864108DF86D208DF86C30F4
:1060100004F0A0FFA9E60C2385F8B33295F8AE2270
:1060200095F8AF321A95072119A88DF864108DF8EC
:106030006D208DF86C3004F08DFF96E60D2385F809
:10604000B33219A808231A958DF8643004F082FF42
:106050008BE61022002105F26D2013F0FDFAF3E625
:106060000B2385F8B332D5F8BC211A950C2319A857
:106070001B961C928DF8643004F06CFF75E600BF2F
:1060800070B590F8B3520DB1082070BD1E4615468C
:106090000C4B0D4A044600F0FFF80028F5D184F8B7
:1060A000B1023146192204F5307013F0CAFA2946BC
:1060B000204600F00BF90028E7D1022384F8B33220
:1060C00070BD00BF00879303D8A1030090F8B332DE
:1060D000052B01D00820704730B5102A83B0154633
:1060E00002D9092003B030BD044632BB0029F8D1E3
:1060F00094F8B83284F8B412003318BF0123022098
:10610000002284F8AE528DF803108DF802308DF81D
:1061100000008DF8012094F8AF328DF8043004F2BD
:106120009D22694620468DF8055000F0FFF80028B2
:10613000D8D1072384F8B332D4E70029D1D0102A6C
:1061400018D190F8B83280F8B412003318BF012388
:1061500002200022012984F8AE528DF803108DF838
:1061600002308DF800008DF80120D4D18DF8042084
:106170001546D4E70129B4D0BAE700BF90F8B3328E
:106180000C3B012B01D90820704730B5102A85B08F
:1061900002D9092005B030BD90F8AE529542F8D131
:1061A000044600F26D2013F04CFA05F26D20C5F1A3
:1061B00010020021204413F04FFA04F27D21204602
:1061C0006A4604F24D2300F039FA6946204600F091
:1061D000F3F80028DED1102384F8B332DAE700BFE9
:1061E00010B590F8B3420CB1082010BDC0F8B8113A
:1061F000C0F8BC2119460B2200F2B52013F021FA99
:10620000204610BD00F070BA20B119B112B11BB117
:10621000062070470E2070472DE9F04104461546D0
:106220000E4601F0E9F9074698B12B8AB3F5805F75
:1062300002D30B20BDE8F081E88A05F01BFB0128A2
:10624000F7D12B46324639462046BDE8F041FFF7EC
:1062500017BF0620BDE8F08190F8B1320BB10820DD
:106260007047FFF733BF00BF90F8B1320BB104F0B5
:106270006FBCFFF783BF00BF50B10378092B06D86E
:10628000044AD05C401AB0FA80F040097047002000
:10629000704700BFE8A1030048B141B13AB110B462
:1062A000094CA34205D807205DF8044B70470E2027
:1062B0007047C0F8B431C0F8AC21C0F8B0115DF837
:1062C000044B0020704700BFFF86930310B4D0F842
:1062D000B041D0F8B421E3685DF8044B184700BF23
:1062E000D0F8B0311B69184710B582B002AB044634
:1062F00003F8031D10461946012200238DF80430CF
:1063000013F09FF944B1D4F8B03120461B68022243
:1063100001A9984702B010BD7846034B1B680BB12A
:106320009847F0E700DEEEE7DC6000200C3270B545
:106330000D46044601311046052213F082F97DB165
:1063400044B1D4F8B031294620461B680622BDE886
:10635000704018477846074B1B683BB19847F0E7F9
:106360007846044B1B681BB19847E9E700DEE8E775
:1063700000DEE5E7DC60002010B592B004460323A0
:1063800040220DF105008DF8043013F05AF944B1A4
:10639000D4F8B03120461B68412201A9984712B0B9
:1063A00010BD7846034B1B680BB19847F0E700DE41
:1063B000EEE700BFDC60002010B5052386B0044680
:1063C00010220DEB03008DF8043013F03AF944B1BC
:1063D000D4F8B03120461B68112201A9984706B0B5
:1063E00010BD7846034B1B680BB19847F0E700DE01
:1063F000EEE700BFDC60002010B586B0044606233F
:1064000010220DF105008DF8043013F01AF944B193
:10641000D4F8B03120461B68112201A9984706B074
:1064200010BD7846034B1B680BB19847F0E700DEC0
:10643000EEE700BFDC60002010B5044682B089B1F1
:1064400044B1D4F8B0311B682046222202B0BDE826
:10645000104018477846094B1B685BB1019198477B
:106460000199EEE77846054B1B682BB101919847DF
:106470000199E5E700DEE4E700DEE1E7DC6000200B
:10648000D0F8AC319B681847D0F8AC31DB681847BE
:10649000F0B51C4B1B681B0783B004460D4616461F
:1064A00003D5194B1B68032B09D8D4F8AC311B68F2
:1064B00032462946204603B0BDE8F04018472F2158
:1064C000124813F09DF980B12F21104813F098F96C
:1064D000411C2F780E4A0F4B0420D3F804358DE869
:1064E0008400DF2207F008FCDFE75C21074813F097
:1064F00087F928B15C21054813F082F9411CE8E7CF
:106500000249E6E71432002010320020F4A1030013
:1065100014A2030000B00040D0F8AC315B6818470B
:1065200070B506468AB0144611B308460D4613F0FE
:106530005FF96A4681B2284606F0DCFC694604220F
:106540000DF1220013F07DF8162564BAADF8204055
:1065500004F0FCFC102201460DEB020013F071F870
:106560002B4604AA3046002109F064F80AB070BD39
:106570001225EAE770B50E468CB014460546002891
:106580003DD006F0FB03122B04D07846264B1B6847
:1065900063B398476CB3254B1B780BB90CB070BD37
:1065A0002C22002101A813F057F81022294602A836
:1065B000089413F046F82378A3F10103B3FA83F3A8
:1065C00003225B09162E8DF818308DF804201CD09C
:1065D0000023194604220DF11A008DF8193013F02A
:1065E0003BF801A804F0B6FC0CB070BD00DE002C36
:1065F000D1D178460C4B1B68A3B19847CBE77846BE
:10660000094B1B6863B19847BBE7012305F11201F1
:1066100004220DF11A008DF8193013F012F8E0E79A
:1066200000DEAEE700DEB6E7DC600020B23100201D
:10663000014B1878704700BFA43700202DE9F041C6
:106640000446ACB00F46904600F29D21112207A8E7
:106650001E4612F0F6FF94F8B1324022A3B304F5BF
:10666000E0710DF12D0012F0ECFF4022D4F8B811CA
:106670000DF16D0012F0E5FF3A4607A8912106F0F2
:1066800039FC03AD04233A468DE8280004F5007078
:10669000144B202106F04EFC3046102105F046FF39
:1066A0003146102207A812F0CCFF04F26D2110220F
:1066B0000BA812F0C6FF4346284607A9202206F081
:1066C000B1FB2CB0BDE8F081D4F8B8110DF12D006C
:1066D00012F0B7FF402204F5E0710DF16D0012F0E9
:1066E000B0FFC9E774A2030038B504460D4612F0A6
:1066F0005DF929460246204612F05CF9012814BFD4
:106700000320002038BD00BF2DE9F041044696B0BB
:106710008846174600F27D2110220AA81E4612F074
:1067200090FF94F8B1321022002B35D004F25D2195
:106730000EA812F086FF102204F24D2112A812F0CA
:1067400080FF04F5007404250AA802AA302106F08F
:10675000D1FB02AA2046CDF804800095144B2021DD
:1067600006F0E8FB06AB02AA204601930095114B08
:10677000202106F0DFFB0DF11B0138460D2212F03F
:1067800060FF009502AA204601960B4B202106F0DF
:10679000D1FB16B0BDE8F08104F24D210EA812F035
:1067A00050FF102204F25D2112A812F04AFFC8E740
:1067B0007CA2030084A203008CA2030070B500F544
:1067C000E0740E46054612F0F1F80146204612F03C
:1067D0006DFE08B9032070BDD5F8BC5112F0E6F883
:1067E000324603462946204612F002FA0028F1D02C
:1067F000002070BD30B590F8AE32013B072B83B05E
:1068000004460D4606D97846684B1B68002B00F0FD
:10681000A380984710220021284612F01DFF94F80B
:10682000B432022B00F08680032B40F0818094F874
:10683000AF32013B032B7BD8DFE803F0A8A890021E
:1068400094F8AE426846214605F070FE002C6FD0E9
:106850009DF80010564B574AA3FB01E0C00800EB1F
:10686000C000A1EB8001C9B2012C515C29705FD03E
:106870009DF80110A3FB01E0C00800EBC000A1EBF4
:106880008001C9B2022C515C697051D09DF8021090
:10689000A3FB01E0C00800EBC000A1EB8001C9B27E
:1068A000032C515CA97043D09DF80310A3FB01E0B9
:1068B000C00800EBC000A1EB8001C9B2042C515C00
:1068C000E97035D09DF80410A3FB01E0C00800EB8F
:1068D000C000A1EB8001C9B2052C515C297127D001
:1068E0009DF80510A3FB01E0C00800EBC000A1EB80
:1068F0008001C9B2062C515C697119D09DF806104F
:10690000A3FB01E0C00800EBC000A1EB8001C9B20D
:10691000072C515CA9710BD09DF80710A3FB010354
:10692000DB0803EBC303A1EB8303DBB2D35CEB71A6
:1069300003B030BD94F8AF32013B042BF8D801A26C
:1069400052F823F08D6902008D6902008D69020002
:106950005D6902004168020000DE5BE768460421D1
:1069600094F8AE4205F0E2FD134B009953F8242051
:10697000B1FBF2F302FB13131BBA694605F10C00DD
:106980000422009312F05DFE03B030BD94F8AE42D5
:106990000121684605F0CAFD9DF80010631C91FBBB
:1069A000F3F203FB1213EB7303B030BDDC60002085
:1069B000398EE33828A2030050A2030030B593B00B
:1069C00002AD0423044600F27D228DE8280000F584
:1069D0000070104B202106F0ADFA04F25D210AA8E8
:1069E000102212F02EFE04F26D2110220EA812F0D9
:1069F00028FE0AA9284606AB202206F013FA04F264
:106A00008D2106A8102212F00DFEB0FA80F0400988
:106A100013B030BD74A20300F8B5194E33680546B3
:106A20002BB3EFF3108772B63468AC421BD0D4F8A6
:106A3000A8319D4206D0134E5BB11C46D4F8A83154
:106A40009D42F9D1D5F8A831C4F8A83107B962B68A
:106A5000F8BD784632681AB19047D4F8A841EDE7FE
:106A600000DE1C46EAE7D5F8A8313360EEE7784649
:106A7000044B1B680BB19847D3E700DED1E700BF9A
:106A8000A8370020DC60002010B5044628B194F837
:106A90009930012B07D0082010BD7846084B1B68A1
:106AA0005BB19847F3E72046FFF7B6FF204609F0B1
:106AB000D5FB002084F8990010BD00DEE7E700BF99
:106AC000DC60002008460121FFF70ABCD0F8A021B5
:106AD0008A42034600D0704703490122086883F8C0
:106AE000A42106F007B900BFB4310020F0B50E466E
:106AF00085B017460446002875D094F89820012ADE
:106B000054D0002501204749474AC4F8D43084F8BE
:106B1000D850C4F8A051C4F8C450C4F89800C4F8C0
:106B2000A810C4F8C020802304F590723F49C4F82F
:106B3000B0402046C4F8C84009F0ECF98023C4F8FE
:106B4000945084F89A503A46314684F89B30204657
:106B5000FFF7E6FC054600284DD0FF224FF0FF333B
:106B60002A712B6020464FF4FA6109F037FB294661
:106B7000204609F0CDFA204609F05AFAEFF31083C7
:106B800072B62B4A1168C4F8A811146003B962B632
:106B9000284B1B681B0703D5274B1B68032B0CD8FE
:106BA0000123002084F8993005B0F0BD94F89920B5
:106BB000002AA6D0082005B0F0BD2F211F4812F0F2
:106BC0001FFE10B32F211D4812F01AFE411C1C4A53
:106BD0001C4B0420D3F804358DE814004FF4B57233
:106BE00007F08AF8DCE77846174A12685AB103932F
:106BF0009047039B81E77846134B1B680BB198477E
:106C0000ABE700DEA9E700DE77E75C210B4812F076
:106C1000F7FD28B15C21094812F0F2FD411CD6E7CE
:106C20000649D4E7C96F0200C56A0200CD6A0200B6
:106C3000A83700201432002010320020A8A303003F
:106C4000CCA3030000B00040DC6000202DE9F04F31
:106C500090F8D830022B8BB0054606D078467F4B93
:106C60001B68002B00F0EB80984795F8DB60002E46
:106C70007CD095F8D9407A4FA31CA7FB03231B09AE
:106C80000133DBB2B34264D9DFF8D0A10DF10808BB
:106C90004FF00209731E03EB4301C3EBC101143132
:106CA00089B2641AA4B29DF80D30D5F8940095F815
:106CB0009B208DF80C20172C28BF172469F30103A3
:106CC000DC3166F3870390FA80FE224629440DF1F9
:106CD0000E008DF80D30CDF808E012F0B2FC04F192
:106CE0000801284609F0C6F983462923E01D4146DC
:106CF000A21DBBF1000F2CD08BF811008BF81230C5
:106D00000BF1130012F09DFC01238BF80430EFF31C
:106D1000108372B6D5F8A0410134621CC5F8A041B9
:106D20001AD003B962B6CBF800405946284609F09C
:106D3000EFF995F8D94095F8DB20A31CA7FB0313C6
:106D40001B0901330136DBB20132B34285F8DB2087
:106D5000A0D80BB0BDE8F08F7846DAF800201AB161
:106D600001939047019BDCE700DEDAE795F8993064
:106D7000032B05D07846394B1B68002B61D0984710
:106D800095F8D830022B05D07846344B1B68002B81
:106D900059D0984795F8D93095F89B20304C9DF8FC
:106DA0000D008DF80C209A1CA4FB0242142BD5F880
:106DB000941095F8DA708DF810704FEA121200F006
:106DC000FC001C4662F3870028BF14241B022246E5
:106DD0000EBA8DF80D0005F1DC010DF11100ADF8D2
:106DE0000E30029612F02DFC04F10B01284609F03A
:106DF00041F90DF10808064604F109020028A8D05F
:106E000029230A34447483744146133012F019FC68
:106E100001233371EFF3108772B6D5F8A0411C44FB
:106E2000611CC5F8A04110D007B962B63460314684
:106E30002846012609F06CF985F8DB6019E700DEC9
:106E400013E700DE9CE700DEA4E77846034B1B68EF
:106E50000BB19847E8E700DEE6E700BFDC60002002
:106E6000C94216B290F89930032B01D00820704720
:106E7000412A01D9092070472DE9F04190F8D870D6
:106E800017B11120BDE8F081044615460E4605F005
:106E9000E9F9D4F8D410014404F1B80005F0D8F8A9
:106EA00005F0E0F92049A26EAB1CA1FB03131B09FE
:106EB0000133DBB202FB03F303F5F41101F590613A
:106EC0001A4BC4F8AC1080460144C4F8A83004F151
:106ED000A00005F0BDF8164BC4F8B04043440222B0
:106EE00084F8DB7084F8D950C4F8D03084F8D82006
:106EF000C5B1104F32467019FF2112F8013B4B40CB
:106F00009042F95CF9D1CB4384F8DA302A46314615
:106F100004F1DC0012F095FB2046FFF797FE0020FD
:106F2000BDE8F081FF21EEE7C94216B2C96F020049
:106F300080C3C90194A20300F0B589B0D0F89420B1
:106F40009DF80530012643F0030312BA66F3870368
:106F500000240821054600928DF805308DF8044084
:106F600009F088F8F0B1044629230722427483749B
:106F700006226946133012F064FB2671EFF3108786
:106F800072B6D5F8A0610136731CC5F8A0610CD0AB
:106F900007B962B628462660214609F0B9F80020F4
:106FA00009B0F0BD042009B0F0BD7846054B1B6860
:106FB0001BB19847002FECD0ECE700DE002FE8D0A3
:106FC000E8E700BFDC60002091F89930032B03D084
:106FD0000023C1F8AC30704791F8D830022BF7D1BC
:106FE000F0B5D1F8D020121A002A8BB005460C4615
:106FF00027DB404B1B681B071BD53F4B1B68042B33
:1070000017D92F213D4812F0FBFB002863D02F2118
:107010003A4812F0F5FB411C394A3A4B94F8DC50DF
:10702000D3F8043505208DE8240040F2953206F0AF
:1070300063FE002384F8DB302046FFF707FE0BB029
:10704000F0BD9DF80D20D1F8941042F0030263F3D7
:10705000870201260BBA0027092120468DF80E6011
:107060008DF80D2002938DF80C7009F003F8064698
:1070700058B32923082242748374072202A91330CB
:1070800012F0DFFA04233371EFF3108772B6D4F8ED
:10709000A05101356A1CC4F8A05110D007B962B6DE
:1070A00031463560204609F033F8042101220023DF
:1070B00084F8991084F89C20C4F8AC30BFE7784677
:1070C000114B1B68A3B19847E8E7104BC4F8D050A8
:1070D000C4F8AC30B3E75C21084812F091FB28B14A
:1070E0005C21064812F08CFB411C95E7034993E7AD
:1070F00000DED3E71432002010320020A8A30300E2
:107100007CA6030000B00040DC60002040420F007D
:10711000F0B589B0D0F894308DF8041001261BBA70
:107120000821054600938DF8056008F0A3FFD8B14B
:1071300004462923072242748374062269461330C9
:1071400012F07FFA2671EFF3108772B6D5F8A061BE
:107150000136731CC5F8A06108D007B962B6266075
:107160002146284608F0D4FF09B0F0BD7846054B0B
:107170001B681BB19847002FF0D0F0E700DE002F0E
:10718000ECD0ECE7DC6000202DE9F0410B78012B1E
:1071900092B00C460546164604D07846214B1B6833
:1071A000D3B19847637894F802C0271D6BB1DFF81C
:1071B00078E0FA183946FF2011F8013B43408A4233
:1071C0001EF80300F8D1C343DBB29C4506D0002370
:1071D000237012B0BDE8F08100DEE3E795F89A1065
:1071E00028464FF000080136FFF792FF84F803802D
:1071F00085F89A6066783946324601A812F021FA7D
:1072000084F8008005F02EF8D5F8D410014405F17B
:10721000B80004F01DFF324601A92846FFF738F9EF
:10722000D7E700BFDC60002094A20300F8B52A4B2A
:107230001C68DCB1294E002502E0D4F8A841A4B1B5
:1072400094F8A431002BF8D094F8993084F8A45124
:10725000042B94F8D8300AD0022BEED12046FFF749
:10726000F5FCD4F8A841002CEAD1F8BDF8BD022BFA
:1072700020D094F89C702046FFF7CEFB94F898300D
:10728000012B03D07846336893B19847204608F025
:10729000E5FF04F1B80084F8985084F8D85084F8D9
:1072A000995004F0A1FE39462046FFF7EDF8C4E7F7
:1072B00000DEEBE704F1A00004F096FE94F89930AC
:1072C00094F89C70023B022BD5D9784633680BB1F9
:1072D0009847D0E700DECEE7A8370020DC6000202A
:1072E000F0B50E468DB00446002800F0AE8094F84C
:1072F0009830012B00F09B80002501205F49604BF6
:10730000C4F8D42084F8D85004F59072C4F8A05181
:10731000C4F8C450C4F89800C4F8A810C4F8C03029
:107320005849C4F8B04080232046C4F8C84008F04B
:10733000F1FD042104F1940005F0F8F89DF81530F2
:10734000D4F8942084F89B50802043F0030365F325
:107350008703314684F89A0016BA0DF11600102200
:107360008DF814508DF81530049612F06AF9182132
:10737000204608F07FFE0546002855D02923172215
:107380004274837404A91622133012F05AF90423AC
:107390002B71EFF3108772B6D4F8A0610136721C1E
:1073A000C4F8A0614BD007B962B6294620462E60CA
:1073B00008F0AEFE04F056FFD4F8D410014404F1F6
:1073C000B80004F045FE204608F032FEEFF31083CB
:1073D00072B62D4A1168C4F8A811146003B962B6D8
:1073E0002A4B1B681B0719D5294B1B68032B15D982
:1073F0002F21284812F004FA002832D02F212548E6
:1074000012F0FEF9411C244A244B0420D3F8043521
:107410008DE814004FF4B57206F06EFC02230020D4
:1074200084F899300DB0F0BD04200DB0F0BD94F893
:107430009930002B3FF460AF08200DB0F0BD7846C6
:10744000174B1B685BB19847ADE77846144B1B6838
:107450001BB103929847039A49E700DE47E700DE35
:10746000A1E75C210B4812F0CBF928B15C21094857
:1074700012F0C6F9411CC6E70649C4E7C96F02000D
:10748000C56A0200CD6A0200A8370020143200202D
:1074900010320020A8A30300CCA3030000B00040DA
:1074A000DC6000202DE9F0410D4688B0044600283C
:1074B00000F08C80022D05D978464E4B1B68002BBE
:1074C00073D0984794F8993013F0FB0F43D0023BE8
:1074D000012B05D97846474B1B68002B7CD0984779
:1074E0009DF80530D4F894208DF80650022143F021
:1074F000030361F3870312BA0026092120468DF8A1
:1075000004608DF80530009208F0B4FD064628B3FB
:10751000292308224274837407226946133012F02B
:1075200090F804233371EFF3108872B6D4F8A07189
:1075300001377B1CC4F8A0713FD0B8F1000F00D117
:1075400062B637603146204608F0E2FD042384F835
:107550009C5084F8993008B0BDE8F08194F89930D7
:10756000023B022B23D82046FFF756FA94F89830B6
:10757000012B05D078461F4B1B68002B2ED0984757
:10758000204608F06BFE002384F8983084F8D83049
:1075900084F8993004F1B80004F026FD294620460D
:1075A000FEF772FF08B0BDE8F08100DE8AE778469A
:1075B000104B1B68B3B19847D5E778460D4B1B6855
:1075C00093B19847B8F1000FBAD0BAE77846094BA3
:1075D0001B682BB198476DE700DE81E700DECFE73F
:1075E00000DE67E700DEBEE700DEB8F1000FA7D0DF
:1075F000A7E700BFDC60002010B5064C236801330C
:1076000001D0054810BD054805F04CFB206002483C
:1076100010BD00BFB431002094A303002D720200FE
:10762000F0B50E4687B00546002800F04381002AD9
:1076300000F04C812B681A0E190242EA036201F431
:107640007F011B0A0A4303F47F431A43EFF31081BF
:1076500072B6A24F3C681CB906E0D4F8A8411CB130
:10766000D4F894309A42F8D101B962B66A7902F03E
:107670000303032B49D8DFE813F0DE00B4007E00DB
:107680004A0094F8D830022B00F01783AD792046D9
:10769000FFF7C2F994F89830012B06D07846904B4A
:1076A0001B68002B00F007839847204608F0D6FDA2
:1076B000002384F8983084F8D83084F8993004F1A5
:1076C000B80004F091FC29462046FEF7DDFE854B0C
:1076D0001B68190719D5844B1B68032B15D92F215B
:1076E000824812F08DF8002800F0DA832F217F48BD
:1076F00012F086F8411C7E4B7E4AD3F80435009286
:10770000042040F2623206F0F7FA07B0F0BD9208AA
:10771000012A00F0F980C0F04A81022A40F023815A
:10772000002CF2D0072EF0D194F89930023B012BB7
:10773000A7D96C4B1B681A07E7D56B4B1B68012B4D
:10774000E3D92F21694812F05BF8002800F041834B
:107750002F21664812F054F8411C654B94F89900AB
:10776000654AD3F8043501900092022040F2673256
:1077700006F0C2FAC9E7002CC7D094F89930032B61
:10778000C3D194F8D870297994F89A30012F00F079
:1077900083819942C0F07A81B7D9524B1B681F0789
:1077A000B3D5514B1B68012BAFD92F214F4812F095
:1077B00027F8002800F0F0832F214C4812F020F821
:1077C000411C4B4B94F89A20D3F804350292287947
:1077D0004A4A01900092022040F2EE2206F08CFA12
:1077E00093E7002C91D094F89930032B8DD194F825
:1077F000D830022B00F074813A4B1B68190784D5EE
:10780000394B1B68012B80D92F21384811F0F8FF24
:10781000002800F0D1822F21344811F0F1FF411CE3
:10782000334B374AD3F804350092022040F20A3233
:1078300006F062FA69E7002C3FF467AF94F89930DC
:10784000032B7FF462AF94F8D830002B40F0D68041
:10785000297994F89A308B4200F27181EA8829499B
:10786000120A931CA1FB03131B090133DBB2072B84
:1078700084F8D92000F290812B7A84F8DA30093E1E
:10788000012384F8D83084F8DB30324605F1090151
:1078900004F1DC0011F0D5FE94F8D9309E427FF45B
:1078A00034AF2A7904F1D801204607B0BDE8F04092
:1078B000FFF76ABC78460A4B1B68002B00F09A80E1
:1078C00005929847059A002A7FF4B4AE7846044B97
:1078D0001B68002B00F090809847ABE6A83700208B
:1078E000DC6000201432002010320020A8A3030026
:1078F00000B0004008A6030020A6030074A5030002
:1079000020A50300C94216B2002C3FF4FEAE062E9D
:107910007FF4FBAE94F89930022B00F04481B34B16
:107920001B6818077FF5F1AEB14B1B68012B7FF682
:10793000ECAE2F21AF4811F063FF002800F0D28198
:107940002F21AC4811F05CFF411CAB4B94F899001F
:10795000AA4AD3F804350190009202204FF45472E1
:1079600006F0CAF9D1E6A14B1B681B077FF5CDAE27
:107970009F4B1B68012B7FF6C8AE2F219D4811F04D
:107980003FFF002800F0FB802F219A4811F038FFBC
:10799000411C6A79984B9A48D3F8043500909208B4
:1079A000019202204FF45B7206F0A6F9ADE6162EA6
:1079B0007FF4ABAE03F0CAFA10220146A81D11F005
:1079C00031FE00287FF4A1AE002C00F0118294F863
:1079D0009930012B00F0B781032B7FF496AE94F819
:1079E000D830002B7FF491AE204607B0BDE8F040C0
:1079F000FFF7A2BA00DE1AE600DE1BE6022B20D05B
:107A00007A4B1B681C077FF580AE794B1B68012BF6
:107A10007FF67BAE2F21774811F0F2FE002800F0B0
:107A200034822F21734811F0EBFE411C724B754AD2
:107A3000D3F804350092022040F2BD2206F05CF932
:107A400063E694F89A3029799942684B1B6880F074
:107A50000D811B071AD5664B1B68042B16D92F21E5
:107A6000644811F0CDFE002800F0F1812F2161481B
:107A700011F0C6FE411C604B634AD3F804350092F6
:107A8000052040F2AF2206F037F92979204607B0E9
:107A9000BDE8F040FFF73CBB994200F0B980534B82
:107AA0001B681B077FF531AE514B1B68012B7FF61E
:107AB0002CAE2F214F4811F0A3FE002800F0BC810E
:107AC0002F214C4811F09CFE411C4B4B4F4AD3F8E0
:107AD00004350092022040F2E22206F00DF914E68D
:107AE0002A7994F89B309A427FF486AE3F4B1B680C
:107AF000180704D53E4B1B68032B00F209820025B2
:107B000004F1A000C4F8AC5004F06EFA204608F06E
:107B1000A5FB94F89B3084F8D850013384F89B304F
:107B200004F0A0FBD4F8D410014404F1B80004F030
:107B30008FFA204607B0BDE8F040FEF7EDBC2B4BB6
:107B40001B681A07A2D52A4B1B68042B9ED92F212C
:107B5000284811F055FE002800F02E822F212548DC
:107B600011F04EFE411C244B274AD3F804350092F5
:107B7000052040F2A32206F0BFF8297986E75C21B0
:107B80001C4811F03DFE002800F0AA805C21194835
:107B900011F036FE411CFCE62046022107B0BDE88C
:107BA000F040FFF77FBC204608F058FB1421204628
:107BB00008F014FB0D4B1B681D0704D50C4B1B680C
:107BC000032B00F27C81032384F8993004F04AFBF4
:107BD000D4F8D410014404F1B80004F039FA204676
:107BE00007B0BDE8F040FEF74BBC00BF14320020E8
:107BF00010320020A8A3030000B00040D4A5030069
:107C000054A60300D0A40300F8A3030040A503007A
:107C100094F8DB10930841FA03F2D2073FF575ADF3
:107C2000013B03EB4300C3EBC00303F1F000B21FC1
:107C3000A91D204411F005FD94F8D9306A79AB48AC
:107C400094F8DB100233A0FB030392081B0907FA28
:107C500002F20A430133D2B2DBB207FA03F3511C3A
:107C6000994284F8DB207FF450AD1AE647D91F070C
:107C70007FF54BAD9E4B1B68012B7FF646AD2F2148
:107C80009C4811F0BDFD002800F0F0802F2199489C
:107C900011F0B6FD411C984B94F89A20D3F80435A6
:107CA00002922879954A0190009202204FF42D7299
:107CB00006F022F829E500DEF7E404F1A00004F064
:107CC00093F994F89930AD79023B022B7FF6DFAC43
:107CD00078468B4B1B68002B00F088809847D6E4D1
:107CE000844956E65C21834811F08AFD002800F0A3
:107CF000C8805C217F4811F083FD411C25E61E07EA
:107D00007FF503AD7A4B1B68042B7FF6FEAC2F2169
:107D1000784811F075FD002800F081802F2175480A
:107D200011F06EFD411C744B94F89A20D3F8043581
:107D300002922879734A0190009205204FF42E7226
:107D400005F0DAFFE1E42B681A0E190242EA036239
:107D500001F47F011B0A0A4303F47F4313432046C7
:107D6000C4F89430142108F039FA2046FFF7E4F8FB
:107D7000002840F00A81644B1B681E077FF523AF83
:107D80005B4B1B68032B7FF61EAF2F21594811F068
:107D900037FD002800F0EE802F21564811F030FD0D
:107DA000411C554B594AD3F804350092042040F247
:107DB0002B3205F0A1FF06E75C214E4811F020FDB3
:107DC000002800F004815C214A4811F019FD411C93
:107DD00026E55C21474811F013FD002800F0E780FC
:107DE0005C21444811F00CFD411CB6E400DE4EE479
:107DF000EFF3108272B63B682BB9ECE0D3F8A831F0
:107E0000002B00F0E88093F899100129F6D11C4668
:107E1000002A98D162B6002C3FF477ACD7E55C21FC
:107E2000344811F0EDFC002800F0DA805C21314884
:107E300011F0E6FC411C76E75C212E4811F0E0FCD5
:107E400080B15C212B4811F0DBFC411C3DE65C213C
:107E5000284811F0D5FC38B15C21264811F0D0FC3F
:107E6000411C08E6234930E6224904E65C2121480A
:107E700011F0C6FC38B15C211E4811F0C1FC411C58
:107E800009E71C4961E51B4905E75C21194811F028
:107E9000B7FC80B15C21174811F0B2FC411CC5E56C
:107EA0005C21144811F0ACFC38B15C21114811F090
:107EB000A7FC411C1FE40F49B8E50E491BE42F2124
:107EC0000C4811F09DFC00283AD02F21094811F0F0
:107ED00097FC411C084B0D4AD3F80435009204204E
:107EE0004FF4527205F008FF6DE600BFC94216B2AA
:107EF00010320020A8A3030000B0004048A40300F3
:107F0000DC60002094A4030014320020BCA5030010
:107F10002F21344811F074FCE8B12F21314811F0C1
:107F20006FFC411C304B94F8DC00304AD3F8043528
:107F30000190009204204FF43E7205F0DDFEDEE574
:107F40005C21284811F05CFC80B15C21254811F0CF
:107F500057FC411CBEE75C21224811F051FC38B1AE
:107F60005C21204811F04CFC411CDBE71D49B1E7C6
:107F70001C49D7E75C211B4811F042FC50B15C2141
:107F8000184811F03DFC411C0BE70023C4F8943065
:107F9000FFF7BBBB134904E75C21124811F030FC2A
:107FA00040B15C210F4811F02BFC411C09E40D4944
:107FB000FFF7D3BB0B4904E45C210A4811F020FC15
:107FC00038B15C21074811F01BFC411CCBE5054989
:107FD00026E40449C7E5002A3FF41CAFFFF795BB30
:107FE0000049A0E6A8A3030000B0004004A50300D8
:107FF00010B50446807800F00303032B2BD8DFE88C
:1080000003F028231E02800841F2707303FB00F383
:108010001749184A086811681844A06021B38B6892
:10802000C31A002B05DA1FE09A68821A002A03DBC4
:108030001946CB68002BF7D1CC60E36010BD8008F7
:10804000642303FB00F3E3E7800800EB80004300B8
:10805000DEE78308DCE77846074B1B6813B19847D7
:108060000023D5E700DED3E7E160146010BD00BF58
:10807000C4370020CC370020DC600020F8B5994CD4
:10808000237843BB984F3B68002B00F0C880974E85
:108090009A78317802F003028A420EDD944DDFF8BF
:1080A00058E228689D68281A0EFB00F5032900F2A3
:1080B000C380DFE801F01E74574E04F0D3F83B682C
:1080C0009B7803F003030546032B00F2A980DFE849
:1080D00003F03270733D874B844E5D6804F0C2F844
:1080E00033782D1A032B00F2AF80DFE803F0838191
:1080F000687F81499A78B5FBF1F302F00302022A06
:1081000000F0C48000F2D680012A09D17B4AA2FB8C
:108110000312D20802EB8202B3EB420F00F0A380FD
:1081200004F0A0F833780546032B00F2D380DFE893
:1081300003F0A5A3A9A77049337029442378002B25
:1081400064D06C48BDE8F84003F082BF6C493370DE
:10815000F3E76C486B0AA0FB0313012A4FEAD31321
:10816000DED1D3E7684B012AA3FB05034FEA935303
:10817000CCD0032AD4D1012940F0E580634AA2FB88
:10818000031292094FF4167101FB1233002BC7D171
:1081900004F068F85A49032301443370CEE75C4B7E
:1081A000022AA3FB05034FEA934300F0C280ABD938
:1081B000E1E758493370C0E757493370BDE7564887
:1081C000401B4B4A554913684009A1FB001003EBC3
:1081D000D0101060444F3B68002B7FF459AF2378D8
:1081E000EBB14448BDE8F84003F0FEBE4448E7E781
:1081F0004848E5E7C5F5C330A0304CF2503398420B
:10820000DFD93B4A136801331360E3E7394B01229E
:10821000596022701846BDE8F84003F0A3BEF8BDCF
:1082200078463F4A1168D9B188473B689B7803F08C
:1082300003030021337080E77846394A116869B139
:1082400088473B68002155E77846354A1268DAB11D
:10825000904733786842002BCFD0B2E700DE49E781
:1082600000DE337069E703F0FDFF012300F57421A0
:1082700001F51071337061E726495EE71E495CE73E
:108280001F495AE7244958E700DEE3E73278002A1D
:108290004CD1244AA2FB03125209642101FB123380
:1082A000002B7FF43DAF03F0DDFF1B4902230144A7
:1082B000337043E7317800297FF45DAF1A4AA2FB9F
:1082C0000312D20941F2707101FB1233002B3FF40B
:1082D0005FAF25E77846124B1968002941D08847DF
:1082E00000212AE7C8370020CC370020C9370020FA
:1082F000C4370020AC370020A0860100CDCCCCCC08
:108300000046C323852807006BCA5F6BB5814E1BEF
:1083100083DE1B4340420F0080969800C55A7C0ABA
:10832000DC6000201F85EB51F1197605012A7FF4EE
:10833000F7AE0D4AA2FB0312D20802EB8202B3EBA6
:10834000420FB0D0ECE602297FF4EAAE074AA2FB66
:1083500003125209C2EB0212B3EB820F7FF4E0AEBC
:1083600016E700DEE9E600BFCDCCCCCC8988888852
:108370002DE9F0432D4B1B7883B0032B4DD8DFE85C
:1083800003F0423D38022A4D2B6803F5BB531033EE
:108390002B60284E284B346800271F70002C37D0E4
:1083A000234DDFF898800AE09847636801994846B2
:1083B00098472046FFF71CFE3468002C28D0A3689D
:1083C0002A68934201A903D02A689B1A002B1FDA5E
:1083D000B4F80090E36801974846336000F06CFF02
:1083E0000028E2D07846D8F80030002BDCD100DE3F
:1083F000DBE70F4D2B6864332B60CAE70C4D2B680D
:108400000A332B60C5E70A4D2B6801332B60C0E7A8
:10841000FFF734FE03B0BDE8F0837846074B1B68D6
:108420000BB19847B5E700DEB3E700BFC9370020BE
:10843000C4370020CC370020C8370020DC60002083
:1084400010B5084C18220021204611F005F9064B02
:1084500006480749074AA360002303600B601370B6
:1084600010BD00BFAC37002071830200C43700206C
:10847000CC370020C83700207846034B1B6803B177
:10848000184700DE704700BFDC600020004700BFD7
:108490002DE9F047047D012C82B006462ED002A9BA
:1084A0004FF6FF7321F8043D143001F091FF28B11D
:1084B0007846624B1B68002B7FD09847BDF80400BC
:1084C00001F02AFF98B15E4CDFF878810025012782
:1084D00094F82830DB0702D5E388012B31D9013528
:1084E000022D04F13404F3D102B0BDE8F0877846E0
:1084F000524B1B68002B69D09847E4E701A801F0B4
:108500003FFEF38ABDF80450AB42EDD3BDF8062020
:108510002A449342E8DA5B1B494F9DB24FF00008B2
:1085200097F82830DA0702D5BB88AB4250D008F163
:108530000108B8F1020F07F13407F1D102B0BDE82C
:10854000F087728C510902F01F0254F8211007FACB
:1085500002F20A42C3D0BDF80420DB00510903EB4C
:108560008103434402F01F025B6807FA02F21A42D9
:10857000B5D0B4F820E0E069B6F800C0B6F802A0C3
:10858000BEF1000FABD00246002303E09E4502F18E
:108590000802A4D030F8331061454FEAC30903F153
:1085A0000103F3D151885145F0D1E369626A4B442C
:1085B00031465B68A8B2984791E700DEBDF8040039
:1085C00001F0AAFE00287FF47EAF90E700DE7AE794
:1085D000738C5A0903F01F0357F8222004FA03F39F
:1085E0001342A4D0B7F820E0F869B6F800C0B6F896
:1085F00002A0BEF1000F9AD00246002303E09E4580
:1086000002F1080293D030F8331061454FEAC309F4
:1086100003F10103F3D151885145F0D11FFA88FAD3
:1086200050467A6A314600F0CFFFFB697A6A4B44C4
:1086300050465B683146984779E700BFDC60002010
:108640001038002070380020037803B17047F0B56F
:1086500041680A7802F0C003402B8DB004467ED0FA
:108660007CD9802B45D0C02B7DD14B788E7895B2AC
:1086700046EA0326464B1B689A0403D5454B1B6804
:10868000042B43D8206A01F015FF4FF6FF72964283
:108690000146ADF80C50ADF80E60636857D0033357
:1086A0000493238903229B1AE08AADF81430A2694F
:1086B000A36A94F80CE0E7892669257DADF82200CD
:1086C000ADF81A7007968DF8205009928DF818E0D1
:1086D0005A680A9293F90D3094F824208DF82C30C2
:1086E00003A88DF82D20ADF82E10FFF7D1FE0DB0A8
:1086F000F0BD4D7845EA0225254B1B689B041BD530
:10870000244B1B68042B17D94FF6FF762F212248E4
:1087100011F076F878B32F211F4811F071F8411C41
:108720001E4A1F4B0520D3F804358DE8240040F283
:10873000231205F0E1FAA5E7206A01F0BBFE4FF62F
:10874000FF73ADF80E306368ADF80C500146FF2D95
:108750000CD90233049302222389A4E71BB995B2F2
:108760007F2DC4D0C8E70026354683E70133049344
:108770000122238997E75C21074811F041F828B1CD
:108780005C21054811F03CF8411CC9E70249C7E7E4
:108790001432002010320020A4A60300C0A603005B
:1087A00000B0004010B586B00E4B0F490F4A03933E
:1087B000042304910592029301F0A0FC0C4CA0F557
:1087C0008052012369460B4800922370019306F002
:1087D00091F810B9207006B010BD074806F0C4FA31
:1087E00006B010BDFD8702007984020055880200A2
:1087F00004380020E0370020B831002070B5012A8D
:108800008CB01AD0022A18D0032A14D104460D467F
:108810002C22002101A810F01FFF19260221E26876
:108820002369039501A88DF804608DF8081005925E
:10883000069302F08FFB0CB070BD7846044B1B68AA
:1088400013B198470CB070BD00DE0CB070BD00BF16
:10885000DC60002010B5224B1A78D10744BF42F0EB
:1088600002021A701A7AD40744BF42F002021A7246
:108870001C4B1A8886B01AB15A7942F002025A711A
:10888000194B1A4C93F83020D00744BF42F0020233
:1088900083F8302093F86420D10744BF42F00202ED
:1088A00083F86420124B1349134A03930423049161
:1088B0000592029301F022FC0123A0F58052694643
:1088C0000E4800922370019306F014F810B920703E
:1088D00006B010BD0A4806F047FA06B010BD00BF4A
:1088E00070380020D03700200838002004380020DD
:1088F000FD8702007984020055880200E0370020DD
:10890000B831002070B5204C204E214D86B0682231
:108910000021204610F0A0FE062200211D4810F084
:108920009BFE102200211C4810F096FE1B4B1C4A97
:10893000E2604FF0FF3118466160A16322641E605F
:1089400003F03EF900F086FEFFF77AFD154B16495D
:10895000164A0393042304910592029301F0CEFB7F
:108960000123A0F580526946114800922B700193B3
:1089700005F0C0FF10B9287006B070BD0D4806F0B4
:10898000F3F906B070BD00BF083800204986020028
:1089900004380020D037002070380020D83700205D
:1089A000FFFF0200FD870200798402005588020063
:1089B000E0370020B831002068B18268034652B128
:1089C00049B12DE9F0434FF6FF720A80C46824B91B
:1089D0000920BDE8F0830E207047828812B105207F
:1089E000BDE8F083DFF8BC8198F8022098F8030016
:1089F000C24209D0694A1D8890895E88002871D0DA
:108A0000B2F84000002858D09F684FF6FF7CDFF88E
:108A100098913D4600204FF6FF7E0CE022F03F0289
:108A2000A2F1C002B2FA82F25209CAB10130A042E8
:108A300005F1080517D26E8837F830207645EDD15C
:108A400012F47F4F02EA090605D0A6F50042B2FAF9
:108A500082F25209E9E722F07F060EB97F2AE5D1BA
:108A60000720BDE8F0834FF6FF7294454B4A41D092
:108A7000342404FB0C2C1D69CCF82C500D889E6806
:108A800004FB052500206E620D88DE6804FB0525C9
:108A90002E850D885E6904FB05239E610B8804FB0F
:108AA0000325AB820B8804FB032292F8303043F09D
:108AB000010382F83030BDE8F083908EA842A3D144
:108AC000D08EB042A0D14FF0010C6046342404FB9C
:108AD0000020A1F800C090F83000C40758D50F203E
