:020000022000DC
:103000000000012001DD020029DD02001D37020061
:103010002DDD02002FDD020031DD02000000000086
:1030200000000000000000000000000033DD02008E
:1030300035DD02000000000037DD020039DD02004E
:103040003BDD02003BDD0200F1B302003BDD02008C
:103050003BDD02003BDD02003BDD02003BDD020008
:103060003BDD02003BDD02003BDD02003BDD0200F8
:103070003BDD02003BDD02003BDD02003BDD0200E8
:103080003BDD02003BDD02009D0103003BDD020051
:103090003BDD02003BDD0200953702003BDD020014
:1030A0003BDD02003BDD02003BDD02003BDD0200B8
:1030B0003BDD02003BDD02000000000000000000DC
:1030C0003BDD02003BDD02003BDD02003BDD020098
:1030D0003BDD02003BDD02003BDD020000000000A2
:1030E00000000000000000000000000000000000E0
:1030F00000000000000000000000000000000000D0
:1031000000000000000000000000000000000000BF
:1031100000000000000000000000000000000000AF
:10312000000000000000000000000000000000009F
:10313000000000000000000000000000000000008F
:10314000000000000000000000000000000000007F
:10315000000000000000000000000000000000006F
:10316000000000000000000000000000000000005F
:10317000000000000000000000000000000000004F
:10318000000000000000000000000000000000003F
:10319000000000000000000000000000000000002F
:1031A000000000000000000000000000000000001F
:1031B000000000000000000000000000000000000F
:1031C00000000000000000000000000000000000FF
:1031D00000000000000000000000000000000000EF
:1031E00000000000000000000000000000000000DF
:1031F00000000000000000000000000000000000CF
:1032000010B5054C237833B9044B13B10448AFF320
:1032100000800123237010BDD83200200000000080
:1032200084DA03000C4B43B10C480D4910B5AFF3E1
:1032300000800C48036823B910BD0A48036833B9FD
:103240007047094B002BF7D0BDE810401847064BDC
:10325000002BF5D0184700BF0000000084DA0300FF
:10326000DC320020D032002000000000154B002B83
:1032700008BF134B9D46A3F5803A00218B460F46AD
:103280001348144A121A19F037FB0F4B002B00D0C9
:1032900098470E4B002B00D09847002000210400D7
:1032A0000D000D48002802D00C48AFF3008019F043
:1032B000D5FA2000290000F013F819F0BBFA00BF7E
:1032C00000000800000001200000000000000000D5
:1032D000D8320020786900200000000000000000C3
:1032E000F0B5964D964A974C4EF2070085B00421F2
:1032F0000EF0BCF82B68580403D52368032B00F2AA
:10330000AC804FF0A0434FF0FF308F4AC3F8180550
:103310004FF4F011C3F804158C4E8D4817680A223B
:10332000D3F8041581F40031C3F80415014600BF39
:1033300000BF00BF00BF00BF00BF00BF00BFB7425B
:103340002FD000BF00BF00BF00BF00BF00BF00BF45
:1033500000BF00BF00BF00BF00BF00BF00BF00BF75
:1033600000BF00BF00BF00BF00BF00BF00BF00BF65
:1033700000BF00BF00BF00BF00BF00BF00BF00BF55
:1033800000BF00BF00BF00BF00BF00BF00BF00BF45
:1033900000BF00BF00BF00BF00BF00BF00BF00BF35
:1033A00000BF0139C3D1013ABAD100F0B9FA05F032
:1033B00039FA03F0C9FF2B68590402D52368032B9F
:1033C0005FD8644B93E8030002AB83E8030019461F
:1033D000C8200CF039FC00283AD12B685A0402D5D9
:1033E0002368032B7BD800200AF082FAB0B90AF0D8
:1033F0009DFA70B92B685B0402D52368032B12D8A1
:103400004FF0A0434FF40032C3F80C250BF004FE3C
:10341000FCE7514A5A2100F03DF9EBE74E4A5921A9
:1034200000F038F9E3E72F214B4819F039FB002869
:1034300069D02F21484819F033FB411C474B484ABB
:10344000D3F80435009204205C220EF01FF8D7E771
:10345000414A562100F01EF9BFE72F213E4819F0DE
:103460001FFB10B32F213C4819F01AFB411C3B4BAA
:103470003C4AD3F804350092042042220EF006F8AC
:103480003FE72F21344819F00BFBC8B12F213248F8
:1034900019F006FB411C314B334AD3F80435009236
:1034A000042054220DF0F2FF8BE75C212A4819F02A
:1034B000F7FA80B15C21284819F0F2FA411CD6E7EE
:1034C0005C21254819F0ECFA38B15C21224819F04A
:1034D000E7FA411CDFE72049C9E71F49DBE72F2155
:1034E0001D4819F0DDFAC8B12F211B4819F0D8FA90
:1034F000411C1A4B1D4AD3F804350092042058226F
:103500000DF0C4FF6FE75C21134819F0C9FA80B1D0
:103510005C21114819F0C4FA411C8FE75C210E4868
:1035200019F0BEFA38B15C210B4819F0B9FA411C08
:10353000DFE7094982E70849DBE700BF5432002092
:1035400041140300503200200C3200200024F4000B
:10355000A086010020CB030028CB030000B0004070
:10356000C4CB030048CB030084CB0300A4CB0300EF
:1035700048DF704710DF704760DF704761DF7047DA
:1035800010B51B4B1B685B0482B004460ED44FF091
:10359000A0434FF4F012C3F80825C3F80C25EFF34D
:1035A000108372B604B1FEE702B010BD2F2111489E
:1035B00019F076FA78B12F210E4819F071FA411CF2
:1035C0000D4A0E4B0020D3F804358DE814004E222E
:1035D0000DF05CFFDBE75C21064819F061FA28B1C9
:1035E0005C21044819F05CFA411CE9E70149E7E76E
:1035F0005432002010CC03002CCC030000B000405B
:1036000070B51F4B1B685B0484B00C4602D51D4B84
:103610001B6873B94FF0A0434FF4F012C3F80825AC
:10362000C3F80C25EFF3108372B604B1FEE704B0C3
:1036300070BD05462F211448164619F031FA88B19D
:103640002F21114819F02CFA411C104A104B01206F
:10365000D3F8043503968DE82400029470220DF00F
:1036600015FFD7E75C21084819F01AFA28B15C2148
:10367000054819F015FA411CE7E70349E5E700BFE3
:10368000543200205032002010CC030000CD030043
:1036900000B0004000B51C4B1B685B0485B002D530
:1036A0001A4B1B685BB94FF0A0434FF4F012C3F8FC
:1036B0000825C3F80C25EFF3108372B6FEE70D461C
:1036C00006462F211248144619F0EAF978B12F2145
:1036D0000F4819F0E5F9411C0E4A0F4B0120D3F8B1
:1036E00004358DE8740048220DF0D0FEDBE75C2144
:1036F000074819F0D5F928B15C21054819F0D0F92F
:10370000411CE9E70249E7E754320020503200202B
:1037100010CC0300F0CB030000B0004000B5194B03
:103720001B685B0483B00BD44FF0A0434FF4F0123E
:10373000C3F80825C3F80C25EFF3108372B6FEE733
:103740002F21114819F0ACF970B12F210E4819F052
:10375000A7F9411C0D4B0E4AD3F804350092002006
:1037600054220DF093FEDFE75C21074819F098F929
:1037700028B15C21044819F093F9411CEAE7024999
:10378000E8E700BF5432002010CC030000B0004036
:10379000E0CB030070B582B002E001980BF04CFD65
:1037A00001A8FFF7E5FE0028F7D002AE4F2526F866
:1037B000065D074C04E020460BF03CFDADF80250DE
:1037C00031462046FFF7DAFE0028F4D002B070BD83
:1037D000F432002030B54A4C2368590485B021D515
:1037E000484D2B68032B49D8474B0293029B039308
:1037F0002B68032B1AD92F21444819F051F90028BE
:103800006DD02F21414819F04BF9411C404B414AE2
:10381000D3F80435029D04208DE8240083220DF0A6
:1038200035FE03E0384B0293029B039303A8FFF796
:10383000A3FE029B039A9A4205461CD023685B04B0
:1038400019D5304B1B68012B15D92F212F4819F0A2
:1038500027F900282DD02F212C4819F021F9411CDF
:103860002B4B03982C4AD3F8043501900092022088
:103870008C220DF00BFE284605B030BD2F212348C9
:1038800019F00EF900B32F21204819F009F9411C55
:103890001F4B224AD3F80435009204207A220DF0FF
:1038A000F5FD194B02932368029A03925A04BDD581
:1038B0009EE75C21154819F0F3F8D8B15C21134854
:1038C00019F0EEF8411CCBE75C21104819F0E8F83C
:1038D00090B15C210D4819F0E3F8411CD8E75C2158
:1038E0000A4819F0DDF848B15C21084819F0D8F809
:1038F000411C8BE70549B3E70449C9E7034985E75C
:103900005432002050320020B031002010CC03008F
:1039100000B00040B4CC0300C4CC030098CC03003A
:1039200030B5654C2368590487B003D5634B1B68D9
:10393000032B0BD806A8624B40F8103D6149FFF7F6
:1039400019FEC0B1604A9321FFF7A4FE2F215E4803
:1039500019F0A6F8002876D02F215B4819F0A0F8BE
:10396000411C5A4B5A4AD3F8043500920420B52220
:103970000DF08CFDDEE7574A92F816335B09012BF8
:1039800040F28880042B00F08580534B9968002911
:1039900054D14FF480031360FFF71CFF002840F060
:1039A000878023685A0403D5444B1B68032B1CD81B
:1039B000002301250721494A039303A805938DF8A5
:1039C0000C508DF80F1004920BF08AFA00286BD17E
:1039D00023685B0403D5394B1B68032B1AD80BF003
:1039E000DBFA00285CD107B030BD2F21364819F032
:1039F00057F800283DD02F21334819F051F8411CC9
:103A0000324B374AD3F8043500920420BF220DF020
:103A10003DFDCDE72F212C4819F042F8F0B12F21C0
:103A2000294819F03DF8411C284B2E4AD3F804359B
:103A300000920420C6220DF029FDD0E71A6842F456
:103A400080021A60A8E75C211F4819F029F8D8B154
:103A50005C211D4819F024F8411C82E75C211A48BA
:103A600019F01EF8A0B15C21174819F019F8411C93
:103A7000DAE75C21144819F013F838B15C211248D8
:103A800019F00EF8411CBBE70F496AE70E49B7E78A
:103A90000D49C9E70C4A942142F20200FFF7FAFDF2
:103AA000094AC721FFF7F6FD074AC421FFF7F2FDD7
:103AB000054A9721FFF7EEFD5432002050320020D6
:103AC000010000070136020010CC030000B00040E6
:103AD00048CC030000E100E0EC68002081350200E2
:103AE00064CC030080CC030090F8B33203B9704774
:103AF00000B500228DB0034680F8B322052201A84C
:103B000002938DF80C108DF804200AF071F90DB0B5
:103B10005DF804FB70B590F8B352022D8CB001D063
:103B20000CB070BD042604460DEB060002948DF81F
:103B300004600AF05DF904F29D220021204600F0A5
:103B40004FFF18B984F8B3620CB070BD2946204607
:103B500000F042FFE4E700BF90F8B322072A00D04C
:103B6000704710B590F8B0328CB0044673B9D0F8F5
:103B7000B81100F0A3FF20B9092384F8B3320CB0C8
:103B800010BD2046022100F027FFF8E70A2380F845
:103B9000B332092301A802948DF804300AF028F901
:103BA0000CB010BD2DE9F0410C46A4B005461146FD
:103BB000204600F0D3FE70B12378013B082B0AD8D1
:103BC000DFE813F01F000900570078008F00A50000
:103BD00009001A0110002846022100F0FDFE24B061
:103BE000BDE8F08163788DF86C3019A80D231A9523
:103BF0008DF864300AF0FCF82846022100F0ECFE53
:103C0000EDE795F8B332042BE9D1611C0B2205F2E4
:103C10009E2018F066FE052385F8B3326288B4F85A
:103C20000730608994F801E0277966791A95110ABE
:103C300041EA02211A0A42EA0322030A43EA002364
:103C4000A579ADF86D10647AADF872200A2119A833
:103C5000ADF875308DF86CE08DF86F708DF8706090
:103C60008DF871508DF874408DF864100AF0C0F82A
:103C7000B5E795F8B332092BB1D105F5E076611CB3
:103C80004022304618F02DFE01F0D6F8002840F012
:103C9000218105F50071284601F094F900289AD198
:103CA00095F8B432032B96D8DFE813F00D0102012A
:103CB000EF00D50095F8B332112B90D105F27D219C
:103CC000284619AA05F24D2301F0BCF819A9284687
:103CD00000F02EFF00287FF47EAF102385F8B3326A
:103CE0007DE795F8B322102A7FF479AF611C05F2C5
:103CF0008D2018F0F6FD05F24D21284600F038FF22
:103D000000287FF468AF122385F8B33267E795F88F
:103D1000B332122B7FF463AF611C102205F25D20D9
:103D200018F0DFFD284601F04DFA00283FF453AFAC
:103D300001AE0DF114083246414605F508732846D8
:103D400009AC01F0E5F80723102205F53071204693
:103D50008DF8403018F0C5FD95F8D8129DF8363032
:103D6000D5F8D222B5F8D672B5F8D0021A96C1F3BA
:103D7000400E6EF3000361F341034FEA022E110E71
:103D800041EA02610EF47F0E120A41EA0E0102F4CA
:103D90007F420A43390A41EA0727010A41EA002023
:103DA0006FF387030DF15A014FF0190E8DF836307D
:103DB000CDF8372000230822ADF834000DF141067C
:103DC00019A82091CDF864801B94ADF83B70ADF834
:103DD00070E01F961D93ADF878308DF884200CF0BC
:103DE000C1FB10A9284600F019FF00287FF4F3AEAC
:103DF000142385F8B332F2E695F8B332142B7FF42E
:103E0000EEAE95F8D8229DF87C30D5F8D262B5F8A0
:103E1000D612B5F8D042ADF87A1062F30003C2F3BF
:103E2000400262F341034FF00B0E05F5307219A802
:103E300005F508771A958DF87C308DF864E01C97AD
:103E40001B921D96ADF8784009F0D2FF284600215C
:103E500000F0C2FDC3E605F26D242146284601F0BC
:103E6000CDF8112385F8B33295F8AE2295F8AF322C
:103E70001C94062119A81A958DF864108DF86D20F0
:103E80008DF86C3009F0B4FFA9E60C2385F8B33245
:103E900095F8AE2295F8AF321A95072119A88DF83A
:103EA00064108DF86D208DF86C3009F0A1FF96E656
:103EB0000D2385F8B33219A808231A958DF86430BC
:103EC00009F096FF8BE61022002105F26D2018F014
:103ED00013FDF3E60B2385F8B332D5F8BC211A9510
:103EE0000C2319A81B961C928DF8643009F080FFF2
:103EF00075E600BF70B590F8B3520DB1082070BDE3
:103F00001E4615460C4B0D4A044600F037FD0028AE
:103F1000F5D184F8B1023146192204F5307018F059
:103F2000E0FC2946204600F04DFD0028E7D10223A1
:103F300084F8B33270BD00BF0087930320CD030027
:103F400090F8B332052B01D00820704730B5102A05
:103F500083B0154602D9092003B030BD044632BBF8
:103F60000029F8D194F8B83284F8B412003318BF9D
:103F700001230220002284F8AE528DF803108DF840
:103F800002308DF800008DF8012094F8AF328DF8E2
:103F9000043004F29D22694620468DF8055000F059
:103FA00067FD0028D8D1072384F8B332D4E700296D
:103FB000D1D0102A18D190F8B83280F8B41200335A
:103FC00018BF012302200022012984F8AE528DF887
:103FD00003108DF802308DF800008DF80120D4D147
:103FE0008DF804201546D4E70129B4D0BAE700BF04
:103FF00090F8B3320C3B012B01D90820704730B543
:10400000102A85B002D9092005B030BD90F8AE5213
:104010009542F8D1044600F26D2018F062FC05F2DA
:104020006D20C5F110020021204418F065FC04F257
:104030007D2120466A4604F24D2300F003FF6946C5
:10404000204600F075FD0028DED1102384F8B3323D
:10405000DAE700BF90F8B3320B2B01D0082070478D
:1040600079B130B504468DB0202200F5007018F00B
:1040700038FC94F8B432032B50D8DFE803F0372B28
:1040800020040E20704704F26D252946204600F0DA
:10409000B5FF112384F8B33294F8AE2294F8AF320E
:1040A0000495062101A802948DF804108DF80D20C6
:1040B0008DF80C3009F09CFE00200DB030BD0C23B3
:1040C00084F8B332072194F8AE2294F8AF32029408
:1040D00001A8E9E70D2384F8B33201A8082302946C
:1040E0008DF8043009F084FE0020E6E7102200215C
:1040F00004F26D2018F000FC04F27D21204601AA94
:1041000004F24D2300F09EFE01A9204600F010FDB0
:104110000028D2D1102384F8B332CEE70320CCE7B5
:1041200000B503228DB080F8B322042203460DEBC4
:10413000020002938DF8042009F05AFE0DB05DF8DC
:1041400004FB00BFF0B590F8B332132B8FB00446D8
:104150000ED003AD002384F8B3322846052304941F
:104160008DF814108DF80C3009F042FE0FB0F0BD40
:104170000029EED190F8D8229DF82430019162F305
:104180000003C2F3400262F34103D0F8D2728DF80B
:1041900024300B2204F5087303ADB0F8D06204900C
:1041A0008DF80C20069304F53072B4F8D6320592DF
:1041B00028460797ADF82060ADF8223009F018FEC8
:1041C0000199C7E730B58DB0044600F035FE38BB25
:1041D00004F50071204600F0F5FE38B994F8B432C9
:1041E000032B71D8DFE803F0665B412E02250D2317
:1041F00084F8B2522946204602948DF80C508DF86E
:10420000043000F0EFFC18B12946204600F0E4FB32
:1042100001A809F0EDFD162384F8B3320DB030BDCE
:104220000B2384F8B3320C22D4F8BC31029401A8D9
:1042300004F5E0748DF804200493039409F0D8FD8C
:104240000DB030BD0C2384F8B33294F8AE2294F84C
:10425000AF320294072101A88DF804108DF80D20CB
:104260008DF80C3009F0C4FDD8E704F26D2529461D
:10427000204600F0C3FE102384F8B33294F8AE2237
:1042800094F8AF320495062101A802948DF8041029
:104290008DF80D208DF80C3009F0AAFDBEE70D2336
:1042A00084F8B33201A8082302948DF8043009F091
:1042B0009FFDB3E71022002104F26D2018F01CFBD3
:1042C000102384F8B332A9E705230D2284F8B23213
:1042D0001946204602948DF80C308DF8042000F029
:1042E00081FC002894D002218FE700BFF0B590F840
:1042F000B332033B8FB00446132B0BD8DFE803F037
:10430000550A0A290A0A5A0A0A5E0A630A630A68EF
:104310002B0A0A29374B1B681B071AD5364B1B681B
:10432000BBB12F21354818F0BBFB002855D02F21F9
:10433000324818F0B5FB411C314B94F8B302314AB6
:10434000D3F8043501900092012040F2E1120DF003
:104350009DF80FB0F0BD90F8D8229DF82430D0F829
:10436000D262B0F8D052B0F8D612049062F30003D3
:10437000C2F3400262F341034FF00B0E00F53072BE
:1043800000F5087703A88DF824308DF80CE0069727
:1043900005920796ADF82050ADF8221009F028FDDF
:1043A000152384F8B3320FB0F0BD062380F8B33282
:1043B0000FB0F0BDFFF706FF0FB0F0BD102380F87F
:1043C000B3320FB0F0BD122380F8B3320FB0F0BD9E
:1043D000132380F8B3320FB0F0BD5C21074818F00A
:1043E0005FFB28B15C21054818F05AFB411CA3E78C
:1043F0000249A1E7543200205032002040CD030092
:1044000000B0004064CD0300F0B50D4697B00446FF
:104410001146284600F0A2FA90B12B78092B0BD850
:10442000DFE813F028000A006A008B000A00A300EE
:10443000B500D7000A00FE0094F8B332162B17D04F
:10444000012384F8B2320D22194620460C948DF8CF
:1044500034308DF82C2000F0C5FB18B10221204625
:1044600000F0BAFA0BA809F0C3FC162384F8B332A3
:1044700017B0F0BD94F8B332032BF9D104F29D23A9
:10448000691C184601221D4618F02BFAB4F8BB72BD
:10449000B4F8B6E2B4F8BE6294F8B5328DF80930DB
:1044A0004FEA1E20390A40EA0E2041EA0721330A6A
:1044B00043EA06232A464FF0010C94F8B8E294F838
:1044C000B972ADF80A0094F8BA62ADF80F1094F81A
:1044D000BD52ADF8123002A920468DF808C08DF803
:1044E0000CE08DF80D708DF80E608DF8115000F015
:1044F00099FA0028BCD036E094F8B332062BB7D135
:104500000522691C04F2A92018F0EBF9AB780033FE
:1045100018BF012384F8B032EB7884F8B432EB781A
:10452000012B14BF6B79102384F8AE322B7984F8F9
:10453000AF32092384F8B3329AE794F8B332092BE7
:1045400096D1691C402204F5E07018F0CAF994F87D
:10455000B032002B40F0C980D4F8B811204600F0EA
:10456000ADFA002884D005236BE794F8B322102A13
:1045700000F09E800D2A7FF47BAF691C102204F2AC
:104580008D2018F0AEF90E2384F8B33270E794F85A
:10459000B332122B7FF46CAF691C102204F25D2041
:1045A00018F09FF9204600F00DFE002800F0A180D1
:1045B00004F24D21204600F0DBFA0028D3D104F5A7
:1045C000087304F5107204F50C71204600F0A0FC8D
:1045D0004EE794F8B332132B7FF44AAF16A90023A9
:1045E00001F8513D04F50C7204F510760F93ADF807
:1045F00040306B1C0B920C9619220D930BA80823CC
:104600001A350DF109068DF84C301295ADF83820A9
:1046100011960BF0A9FF9DF807307BB9062310E730
:104620006B788DF834300BA80D238DF82C300C945A
:1046300009F0DEFB162384F8B33219E73146102265
:1046400004F5307018F04DF99DF81B50BDF820307E
:1046500094F8D812BDF81960079AC5F3400060F3CA
:104660000001180A40EA0320330A43EA06239BB2FA
:1046700065F3410180B212BAB3F5805F84F8D812B5
:10468000A4F8D602A4F8D032C4F8D22233D302253B
:104690000D2384F8B252294620460C948DF83450EC
:1046A0008DF82C3000F09EFA00287FF4D7AED9E6C2
:1046B000691C04F28D2018F014F904F27D212046C3
:1046C00002AA04F24D2300F0BDFB02A9204600F02F
:1046D0002FFA00283FF4CCAE04283FF444AF7846CC
:1046E0000B4B1B6893B198473DE72046FFF76AFDE7
:1046F000BEE60423A5E60AF0E9FB0128C7D120465F
:1047000000F056FA00283FF4B3AE2CE700DE2AE7AB
:10471000F868002070B590F8B3520DB1082070BD54
:104720001E4615460123022280F8B32280F8B132DA
:10473000064A074B044600F021F90028EFD1324623
:1047400029462046BDE8704000F032B930CD030064
:104750000087930390F8B3320C3B022B01D9082059
:104760007047102A01D90920704770B590F8AE62E1
:10477000964284B018BF092001D004B070BD044631
:1047800006F26D200D46C6F110020021204418F0FB
:10479000B3F83246294604F26D2018F0A2F894F8D6
:1047A000B3320C2B06D00E2B08D0102384F8B33272
:1047B0000020E2E7204600F0A1F9DEE704F27D21C7
:1047C00020466A4604F24D2300F03CFB6946204631
:1047D00000F0AEF9D1E700BF90F8B3320B2B01D057
:1047E0000820704779B130B504468DB0202200F51D
:1047F000007018F076F894F8B432032B43D8DFE851
:1048000003F0372B19040E2070470C2384F8B332C1
:1048100094F8AE2294F8AF320294072101A88DF8E3
:1048200004108DF80D208DF80C3009F0E1FA00200D
:104830000DB030BD04F26D252946204600F0DEFBA8
:10484000102384F8B332062194F8AE2294F8AF32E4
:10485000049501A80294E2E70D2384F8B33201A87D
:10486000082302948DF8043009F0C2FA0020DFE733
:104870001022002104F26D2018F03EF8102384F875
:10488000B3320020D4E70320D2E700BF10B590F880
:10489000B3420CB1082010BDC0F8B811C0F8BC215B
:1048A00019460B2200F2B52018F01BF8204610BD67
:1048B00000F01EBB09B10620704770B51E461546B4
:1048C000044601F09DFA014630B133462A4620469F
:1048D000BDE87040FFF71EBF062070BD20B119B1C2
:1048E00012B11BB1062070470E2070472DE9F04130
:1048F000044615460E4601F083FA074698B12B8A06
:10490000B3F5805F02D30B20BDE8F081E88A0AF09E
:10491000DDFA0128F7D12B46324639462046BDE85C
:10492000F041FFF7E7BA0620BDE8F08190F8B13218
:104930000BB108207047FFF703BB00BF90F8B132FE
:104940000BB1FFF707BFFFF753BB00BF90F8B132C1
:104950000BB1FFF741BFFFF77DBB00BF50B103783C
:10496000092B06D8044AD05C401AB0FA80F04009FE
:1049700070470020704700BF94CD030048B141B19B
:104980003AB110B4094CA34205D807205DF8044B96
:1049900070470E207047C0F8B431C0F8AC21C0F8A1
:1049A000B0115DF8044B0020704700BFFF869303F1
:1049B00010B4D0F8B041D0F8B4316468A4465DF8C2
:1049C000044B604710B4D0F8B041D0F8B421E3688C
:1049D0005DF8044B184700BFD0F8B0311B69184789
:1049E00010B582B002AB044603F8031D1046194609
:1049F000012200238DF8043017F073FF44B1D4F87E
:104A0000B03120461B68022201A9984702B010BDB0
:104A10007846034B1B680BB19847F0E700DEEEE7E2
:104A2000F8680020013270B50D4604460131104689
:104A30000B2217F056FF7DB144B1D4F8B0312946AE
:104A400020461B680C22BDE8704018477846074B8B
:104A50001B683BB19847F0E77846044B1B681BB1D5
:104A60009847E9E700DEE8E700DEE5E7F8680020C0
:104A70000C3270B50D46044601311046052217F080
:104A800030FF7DB144B1D4F8B031294620461B68CF
:104A90000622BDE8704018477846074B1B683BB1BB
:104AA0009847F0E77846044B1B681BB19847E9E745
:104AB00000DEE8E700DEE5E7F868002010B592B018
:104AC0000446032340220DF105008DF8043017F051
:104AD00008FF44B1D4F8B03120461B68412201A937
:104AE000984712B010BD7846034B1B680BB198472E
:104AF000F0E700DEEEE700BFF868002010B582B0F6
:104B000004238DF80430044640B1D4F8B031204677
:104B10001B68012201A9984702B010BD7846034BDB
:104B20001B680BB19847F0E700DEEEE7F86800205D
:104B300010B5052386B0044610220DEB03008DF856
:104B4000043017F0CEFE44B1D4F8B03120461B68D3
:104B5000112201A9984706B010BD7846034B1B6887
:104B60000BB19847F0E700DEEEE700BFF8680020E1
:104B700010B586B00446062310220DF105008DF80D
:104B8000043017F0AEFE44B1D4F8B03120461B68B3
:104B9000112201A9984706B010BD7846034B1B6847
:104BA0000BB19847F0E700DEEEE700BFF8680020A1
:104BB00010B582B008238DF80430044640B1D4F813
:104BC000B03120461B68012201A9984702B010BDF0
:104BD0007846034B1B680BB19847F0E700DEEEE721
:104BE000F868002010B582B009238DF805108DF803
:104BF0000430044640B1D4F8B03120461B6802228C
:104C000001A9984702B010BD7846034B1B680BB151
:104C10009847F0E700DEEEE7F868002010B504469C
:104C200082B089B144B1D4F8B0311B682046222249
:104C300002B0BDE8104018477846094B1B685BB1CD
:104C4000019198470199EEE77846054B1B682BB117
:104C5000019198470199E5E700DEE4E700DEE1E72E
:104C6000F8680020D0F8AC319B681847D0F8AC3118
:104C7000DB681847F0B51C4B1B681B0783B0044664
:104C80000D46164603D5194B1B68032B09D8D4F8DB
:104C9000AC311B6832462946204603B0BDE8F040DF
:104CA00018472F21124817F0FBFE80B12F21104822
:104CB00017F0F6FE411C2F780E4A0F4B0420D3F854
:104CC00004358DE88400DF220CF0E0FBDFE75C2197
:104CD000074817F0E5FE28B15C21054817F0E0FE13
:104CE000411CE8E70249E6E7543200205032002038
:104CF000A0CD0300C0CD030000B00040D0F8AC311F
:104D00005B68184770B506468AB0144611B308466A
:104D10000D4617F0BDFE6A4681B228460BF088FCAE
:104D2000694604220DF1220017F0DBFD162564BA56
:104D3000ADF8204009F058F8102201460DEB0200B2
:104D400017F0CFFD2B4604AA304600210EF078F86C
:104D50000AB070BD1225EAE770B50E468CB0144655
:104D6000054600283DD006F0FB03122B04D0784600
:104D7000264B1B6863B398476CB3254B1B780BB964
:104D80000CB070BD2C22002101A817F0B5FD102237
:104D9000294602A8089417F0A4FD2378A3F1010383
:104DA000B3FA83F303225B09162E8DF818308DF8C1
:104DB00004201CD00023194604220DF11A008DF89E
:104DC000193017F099FD01A809F012F80CB070BD68
:104DD00000DE002CD1D178460C4B1B68A3B198475C
:104DE000CBE77846094B1B6863B19847BBE70123C3
:104DF00005F1120104220DF11A008DF8193017F097
:104E000070FDE0E700DEAEE700DEB6E7F868002000
:104E1000B0310020C82801D0072070474B681BB96B
:104E2000044A184613707047024B01221A70002082
:104E3000704700BF43330020014B1878704700BF14
:104E4000433300202DE9F0410446ACB00F469046B4
:104E500000F29D21112207A81E4617F042FD94F88A
:104E6000B1324022A3B304F5E0710DF12D0017F02B
:104E700038FD4022D4F8B8110DF16D0017F031FD66
:104E80003A4607A891210BF0D3FB03AD04233A4621
:104E90008DE8280004F50070144B20210BF0E8FB8E
:104EA000304610210AF0A4FE3146102207A817F060
:104EB00018FD04F26D2110220BA817F012FD4346D5
:104EC000284607A920220BF04BFB2CB0BDE8F0814F
:104ED000D4F8B8110DF12D0017F003FD402204F5B0
:104EE000E0710DF16D0017F0FCFCC9E720CE030066
:104EF00038B504460D4616F0ABFA29460246204660
:104F000016F0AAFA012814BF0320002038BD00BF04
:104F10002DE9F041044696B08846174600F27D21FF
:104F200010220AA81E4617F0DCFC94F8B1321022B9
:104F3000002B35D004F25D210EA817F0D2FC102210
:104F400004F24D2112A817F0CCFC04F500740425DE
:104F50000AA802AA30210BF06BFB02AA2046CDF86A
:104F600004800095144B20210BF082FB06AB02AAB3
:104F7000204601930095114B20210BF079FB0DF198
:104F80001B0138460D2217F0ACFC009502AA204602
:104F900001960B4B20210BF06BFB16B0BDE8F081A6
:104FA00004F24D210EA817F09CFC102204F25D21A2
:104FB00012A817F096FCC8E728CE030030CE0300F5
:104FC00038CE030070B500F5E0740E46054616F0C5
:104FD0003FFA0146204616F0BBFF08B9032070BD1A
:104FE000D5F8BC5116F034FA32460346294620461D
:104FF00016F050FB0028F1D0002070BD30B590F8BD
:10500000AE32013B072B83B004460D4606D97846E5
:10501000684B1B68002B00F0A380984710220021EA
:10502000284617F069FC94F8B432022B00F0868011
:10503000032B40F0818094F8AF32013B032B7BD8E7
:10504000DFE803F0A8A8900294F8AE426846214633
:105050000AF0CEFD002C6FD09DF80010564B574A39
:10506000A3FB01E0C00800EBC000A1EB8001C9B2C6
:10507000012C515C29705FD09DF80110A3FB01E069
:10508000C00800EBC000A1EB8001C9B2022C515C4A
:10509000697051D09DF80210A3FB01E0C00800EB3D
:1050A000C000A1EB8001C9B2032C515CA97043D0B0
:1050B0009DF80310A3FB01E0C00800EBC000A1EBCA
:1050C0008001C9B2042C515CE97035D09DF8041000
:1050D000A3FB01E0C00800EBC000A1EB8001C9B256
:1050E000052C515C297127D09DF80510A3FB01E028
:1050F000C00800EBC000A1EB8001C9B2062C515CD6
:10510000697119D09DF80610A3FB01E0C00800EBFF
:10511000C000A1EB8001C9B2072C515CA9710BD072
:105120009DF80710A3FB0103DB0803EBC303A1EB0E
:105130008303DBB2D35CEB7103B030BD94F8AF32C4
:10514000013B042BF8D801A252F823F0955102003C
:10515000955102009551020065510200495002002C
:1051600000DE5BE76846042194F8AE420AF040FD99
:10517000134B009953F82420B1FBF2F302FB1313F5
:105180001BBA694605F10C000422009317F0A9FB35
:1051900003B030BD94F8AE42012168460AF028FD04
:1051A0009DF80010631C91FBF3F203FB1213EB73E9
:1051B00003B030BDF8680020398EE338D4CD030049
:1051C000FCCD030030B593B002AD0423044600F2D9
:1051D0007D228DE8280000F50070104B20210BF097
:1051E00047FA04F25D210AA8102217F07AFB04F2B4
:1051F0006D2110220EA817F074FB0AA9284606ABF1
:1052000020220BF0ADF904F28D2106A8102217F030
:1052100059FBB0FA80F0400913B030BD20CE030036
:10522000F8B5194E336805462BB3EFF3108772B605
:105230003468AC421BD0D4F8A8319D4206D0134E3E
:105240005BB11C46D4F8A8319D42F9D1D5F8A831FC
:10525000C4F8A83107B962B6F8BD784632681AB109
:105260009047D4F8A841EDE700DE1C46EAE7D5F800
:10527000A8313360EEE77846044B1B680BB19847C2
:10528000D3E700DED1E700BF44330020F8680020F8
:1052900010B5044628B194F89930012B07D00820A6
:1052A00010BD7846084B1B685BB19847F3E7204672
:1052B000FFF7B6FF20460EF06DFC002084F8990041
:1052C00010BD00DEE7E700BFF868002008460121B6
:1052D000FFF782BBD0F8A0218A42034600D0704776
:1052E00003490122086883F8A4210BF0A1B800BF8C
:1052F000B4310020F0B50E4685B0174604460028AC
:1053000075D094F89820012A54D0002501204749EF
:10531000474AC4F8D43084F8D850C4F8A051C4F82F
:10532000C450C4F89800C4F8A810C4F8C020802362
:1053300004F590723F49C4F8B0402046C4F8C84014
:105340000EF028FA8023C4F8945084F89A503A4614
:10535000314684F89B302046FFF7D4FC05460028F0
:105360004DD0FF224FF0FF332A712B6020464FF4BF
:10537000FA610EF0CFFB294620460EF00FFB2046C7
:105380000EF096FAEFF3108372B62B4A1168C4F848
:10539000A811146003B962B6284B1B681B0703D51C
:1053A000274B1B68032B0CD80123002084F899306D
:1053B00005B0F0BD94F89920002AA6D0082005B0C9
:1053C000F0BD2F211F4817F06BFB10B32F211D4894
:1053D00017F066FB411C1C4A1C4B0420D3F8043513
:1053E0008DE814004FF4B5720CF050F8DCE7784605
:1053F000174A12685AB103939047039B81E7784696
:10540000134B1B680BB19847ABE700DEA9E700DE42
:1054100077E75C210B4817F043FB28B15C21094872
:1054200017F03EFB411CD6E70649D4E7D1570200EE
:10543000CD520200D55202004433002054320020E5
:105440005032002054CF030078CF030000B000405A
:10545000F86800202DE9F04F90F8D830022B8BB07F
:10546000054606D078467F4B1B68002B00F0EB808A
:10547000984795F8DB60002E7CD095F8D9407A4F9C
:10548000A31CA7FB03231B090133DBB2B34264D97E
:10549000DFF8D0A10DF108084FF00209731E03EBED
:1054A0004301C3EBC101143189B2641AA4B29DF85F
:1054B0000D30D5F8940095F89B208DF80C20172C12
:1054C00028BF172469F30103DC3166F3870390FAE0
:1054D00080FE224629440DF10E008DF80D30CDF8E6
:1054E00008E017F0FEF904F1080128460EF008FA6A
:1054F00083462923E01D4146A21DBBF1000F2CD09D
:105500008BF811008BF812300BF1130017F0E9F94A
:1055100001238BF80430EFF3108372B6D5F8A04165
:105520000134621CC5F8A0411AD003B962B6CBF8A9
:105530000040594628460EF031FA95F8D94095F8C2
:10554000DB20A31CA7FB03131B0901330136DBB2CD
:105550000132B34285F8DB20A0D80BB0BDE8F08F54
:105560007846DAF800201AB101939047019BDCE7F6
:1055700000DEDAE795F89930032B05D07846394BF1
:105580001B68002B61D0984795F8D830022B05D0C6
:105590007846344B1B68002B59D0984795F8D93082
:1055A00095F89B20304C9DF80D008DF80C209A1C2E
:1055B000A4FB0242142BD5F8941095F8DA708DF8FC
:1055C00010704FEA121200F0FC001C4662F38700D4
:1055D00028BF14241B0222460EBA8DF80D0005F1D7
:1055E000DC010DF11100ADF80E30029617F079F9DB
:1055F00004F10B0128460EF083F90DF10808064668
:1056000004F109020028A8D029230A3444748374C1
:105610004146133017F065F901233371EFF310871A
:1056200072B6D5F8A0411C44611CC5F8A04110D049
:1056300007B962B634603146284601260EF0AEF94D
:1056400085F8DB6019E700DE13E700DE9CE700DE8B
:10565000A4E77846034B1B680BB19847E8E700DEE8
:10566000E6E700BFF8680020C94216B290F899300A
:10567000032B01D008207047412A01D90920704727
:105680002DE9F04190F8D87017B11120BDE8F081F4
:10569000044615460E460AF047F9D4F8D4100144E2
:1056A00004F1B8000AF036F80AF03EF92049A26E7B
:1056B000AB1CA1FB03131B090133DBB202FB03F399
:1056C00003F5F41101F590611A4BC4F8AC10804653
:1056D0000144C4F8A83004F1A0000AF01BF8164BEE
:1056E000C4F8B0404344022284F8DB7084F8D950F7
:1056F000C4F8D03084F8D820C5B1104F32467019A4
:10570000FF2112F8013B4B409042F95CF9D1CB43A9
:1057100084F8DA302A46314604F1DC0017F0E1F86B
:105720002046FFF797FE0020BDE8F081FF21EEE75D
:10573000C94216B2D157020080C3C90140CE03004E
:10574000F0B589B0D0F894209DF80530012643F0DB
:10575000030312BA66F3870300240821054600926A
:105760008DF805308DF804400EF0CAF8F0B104460B
:10577000292307224274837406226946133017F0E6
:10578000B0F82671EFF3108772B6D5F8A061013634
:10579000731CC5F8A0610CD007B962B62846266014
:1057A00021460EF0FBF8002009B0F0BD042009B03E
:1057B000F0BD7846054B1B681BB19847002FECD015
:1057C000ECE700DE002FE8D0E8E700BFF868002033
:1057D00091F89930032B03D00023C1F8AC30704707
:1057E00091F8D830022BF7D1F0B5D1F8D020121AA9
:1057F000002A8BB005460C4627DB404B1B681B0775
:105800001BD53F4B1B68042B17D92F213D4817F0A0
:1058100047F9002863D02F213A4817F041F9411C7D
:10582000394A3A4B94F8DC50D3F8043505208DE81A
:10583000240040F295320BF029FE002384F8DB307F
:105840002046FFF707FE0BB0F0BD9DF80D20D1F804
:10585000941042F0030263F3870201260BBA00277B
:10586000092120468DF80E608DF80D2002938DF8E9
:105870000C700EF045F8064658B3292308224274EE
:105880008374072202A9133017F02BF80423337115
:10589000EFF3108772B6D4F8A05101356A1CC4F832
:1058A000A05110D007B962B63146356020460EF0DF
:1058B00075F804210122002384F8991084F89C20B3
:1058C000C4F8AC30BFE77846114B1B68A3B19847CA
:1058D000E8E7104BC4F8D050C4F8AC30B3E75C2113
:1058E000084817F0DDF828B15C21064817F0D8F811
:1058F000411C95E7034993E700DED3E754320020CB
:105900005032002054CF030028D2030000B00040E2
:10591000F868002040420F00F0B589B0D0F894300C
:105920008DF8041001261BBA0821054600938DF856
:1059300005600DF0E5FFD8B1044629230722427423
:10594000837406226946133016F0CBFF2671EFF3FD
:10595000108772B6D5F8A0610136731CC5F8A06136
:1059600008D007B962B62660214628460EF016F820
:1059700009B0F0BD7846054B1B681BB19847002F56
:10598000F0D0F0E700DE002FECD0ECE7F868002064
:105990002DE9F0410B78012B92B00C4605461646D6
:1059A00004D07846214B1B68D3B19847637894F8AC
:1059B00002C0271D6BB1DFF878E0FA183946FF20E6
:1059C00011F8013B43408A421EF80300F8D1C3435B
:1059D000DBB29C4506D00023237012B0BDE8F081F5
:1059E00000DEE3E795F89A1028464FF000080136EC
:1059F000FFF792FF84F8038085F89A60667839464D
:105A0000324601A816F06DFF84F8008009F08CFF83
:105A1000D5F8D410014405F1B80009F07BFE3246F8
:105A200001A92846FFF726F9D7E700BFF86800204C
:105A300040CE0300F8B52A4B1C68DCB1294E002586
:105A400002E0D4F8A841A4B194F8A431002BF8D016
:105A500094F8993084F8A451042B94F8D8300AD0E3
:105A6000022BEED12046FFF7F5FCD4F8A841002C1C
:105A7000EAD1F8BDF8BD022B20D094F89C702046E6
:105A8000FFF7CEFB94F89830012B03D078463368AB
:105A900093B1984720460EF07DF804F1B80084F8E1
:105AA000985084F8D85084F8995009F0FFFD394691
:105AB0002046FFF7DBF8C4E700DEEBE704F1A000C7
:105AC00009F0F4FD94F8993094F89C70023B022B95
:105AD000D5D9784633680BB19847D0E700DECEE7DA
:105AE00044330020F8680020F0B50E468DB004461F
:105AF000002800F0AE8094F89830012B00F09B80D5
:105B0000002501205F49604BC4F8D42084F8D850A8
:105B100004F59072C4F8A051C4F8C450C4F89800B9
:105B2000C4F8A810C4F8C0305849C4F8B040802365
:105B30002046C4F8C8400DF02DFE042104F1940065
:105B40000AF056F89DF81530D4F8942084F89B504C
:105B5000802043F0030365F38703314684F89A00FD
:105B600016BA0DF1160010228DF814508DF815306C
:105B7000049616F0B6FE182120460DF0C1FE05462B
:105B8000002855D0292317224274837404A91622B1
:105B9000133016F0A6FE04232B71EFF3108772B6B4
:105BA000D4F8A0610136721CC4F8A0614BD007B9CB
:105BB00062B6294620462E600DF0F0FE09F0B4FED4
:105BC000D4F8D410014404F1B80009F0A3FD204634
:105BD0000DF06EFEEFF3108372B62D4A1168C4F813
:105BE000A811146003B962B62A4B1B681B0719D5AC
:105BF000294B1B68032B15D92F21284816F050FF7D
:105C0000002832D02F21254816F04AFF411C244A93
:105C1000244B0420D3F804358DE814004FF4B572FA
:105C20000BF034FC0223002084F899300DB0F0BD55
:105C300004200DB0F0BD94F89930002B3FF460AF14
:105C400008200DB0F0BD7846174B1B685BB1984734
:105C5000ADE77846144B1B681BB103929847039A33
:105C600049E700DE47E700DEA1E75C210B4816F0BC
:105C700017FF28B15C21094816F012FF411CC6E746
:105C80000649C4E7D1570200CD520200D5520200A6
:105C900044330020543200205032002054CF0300FF
:105CA00078CF030000B00040F86800202DE9F041F3
:105CB0000D4688B00446002800F08C80022D05D9DE
:105CC00078464E4B1B68002B73D0984794F8993058
:105CD00013F0FB0F43D0023B012B05D97846474B0D
:105CE0001B68002B7CD098479DF80530D4F8942091
:105CF0008DF80650022143F0030361F3870312BAC3
:105D00000026092120468DF804608DF805300092A8
:105D10000DF0F6FD064628B3292308224274837449
:105D200007226946133016F0DCFD04233371EFF3CC
:105D3000108872B6D4F8A07101377B1CC4F8A0712A
:105D40003FD0B8F1000F00D162B63760314620462F
:105D50000DF024FE042384F89C5084F8993008B098
:105D6000BDE8F08194F89930023B022B23D82046FD
:105D7000FFF756FA94F89830012B05D078461F4B60
:105D80001B68002B2ED0984720460DF003FF002300
:105D900084F8983084F8D83084F8993004F1B80049
:105DA00009F084FC29462046FEF760FF08B0BDE8F4
:105DB000F08100DE8AE77846104B1B68B3B1984744
:105DC000D5E778460D4B1B6893B19847B8F1000FA3
:105DD000BAD0BAE77846094B1B682BB198476DE7F4
:105DE00000DE81E700DECFE700DE67E700DEBEE72A
:105DF00000DEB8F1000FA7D0A7E700BFF8680020C9
:105E000010B5064C2368013301D0054810BD054884
:105E10000AF0E6FA2060024810BD00BFB43100204D
:105E200040CF0300355A0200F0B50E4687B0054654
:105E3000002800F04381002A00F04C812B681A0EE4
:105E4000190242EA036201F47F011B0A0A4303F4C8
:105E50007F431A43EFF3108172B6A24F3C681CB91E
:105E600006E0D4F8A8411CB1D4F894309A42F8D195
:105E700001B962B66A7902F00303032B49D8DFE85F
:105E800013F0DE00B4007E004A0094F8D830022BF4
:105E900000F01783AD792046FFF7C2F994F89830E7
:105EA000012B06D07846904B1B68002B00F007832F
:105EB000984720460DF06EFE002384F8983084F851
:105EC000D83084F8993004F1B80009F0EFFB294686
:105ED0002046FEF7CBFE854B1B68190719D5844B6E
:105EE0001B68032B15D92F21824816F0D9FD0028F5
:105EF00000F0DA832F217F4816F0D2FD411C7E4B43
:105F00007E4AD3F804350092042040F262320BF04E
:105F1000BDFA07B0F0BD9208012A00F0F980C0F088
:105F20004A81022A40F02381002CF2D0072EF0D1C2
:105F300094F89930023B012BA7D96C4B1B681A07C8
:105F4000E7D56B4B1B68012BE3D92F21694816F06D
:105F5000A7FD002800F041832F21664816F0A0FD20
:105F6000411C654B94F89900654AD3F804350190BB
:105F70000092022040F267320BF088FAC9E7002C49
:105F8000C7D094F89930032BC3D194F8D8702979ED
:105F900094F89A30012F00F083819942C0F07A8101
:105FA000B7D9524B1B681F07B3D5514B1B68012B48
:105FB000AFD92F214F4816F073FD002800F0F08371
:105FC0002F214C4816F06CFD411C4B4B94F89A2045
:105FD000D3F80435029228794A4A019000920220AF
:105FE00040F2EE220BF052FA93E7002C91D094F895
:105FF0009930032B8DD194F8D830022B00F07481A6
:106000003A4B1B68190784D5394B1B68012B80D983
:106010002F21384816F044FD002800F0D1822F21AE
:10602000344816F03DFD411C334B374AD3F8043554
:106030000092022040F20A320BF028FA69E7002CA5
:106040003FF467AF94F89930032B7FF462AF94F874
:10605000D830002B40F0D680297994F89A308B42C2
:1060600000F27181EA882949120A931CA1FB0313EB
:106070001B090133DBB2072B84F8D92000F2908191
:106080002B7A84F8DA30093E012384F8D83084F87A
:10609000DB30324605F1090104F1DC0016F021FC89
:1060A00094F8D9309E427FF434AF2A7904F1D801B4
:1060B000204607B0BDE8F040FFF76ABC78460A4BBF
:1060C0001B68002B00F09A8005929847059A002AD9
:1060D0007FF4B4AE7846044B1B68002B00F0908030
:1060E0009847ABE644330020F86800205432002083
:1060F0005032002054CF030000B00040B4D1030060
:10610000CCD1030020D10300CCD00300C94216B289
:10611000002C3FF4FEAE062E7FF4FBAE94F89930CF
:10612000022B00F04481B34B1B6818077FF5F1AEDA
:10613000B14B1B68012B7FF6ECAE2F21AF4816F058
:10614000AFFC002800F0D2812F21AC4816F0A8FC4B
:10615000411CAB4B94F89900AA4AD3F8043501903E
:10616000009202204FF454720BF090F9D1E6A14B4B
:106170001B681B077FF5CDAE9F4B1B68012B7FF67D
:10618000C8AE2F219D4816F08BFC002800F0FB8044
:106190002F219A4816F084FC411C6A79984B9A4842
:1061A000D3F8043500909208019202204FF45B72FC
:1061B0000BF06CF9ADE6162E7FF4ABAE07F014FED3
:1061C00010220146A81D16F07DFB00287FF4A1AE29
:1061D000002C00F0118294F89930012B00F0B78167
:1061E000032B7FF496AE94F8D830002B7FF491AE59
:1061F000204607B0BDE8F040FFF7A2BA00DE1AE67D
:1062000000DE1BE6022B20D07A4B1B681C077FF5B3
:1062100080AE794B1B68012B7FF67BAE2F21774830
:1062200016F03EFC002800F034822F21734816F04F
:1062300037FC411C724B754AD3F80435009202209A
:1062400040F2BD220BF022F963E694F89A302979E6
:106250009942684B1B6880F00D811B071AD5664B6D
:106260001B68042B16D92F21644816F019FC00284E
:1062700000F0F1812F21614816F012FC411C604BA7
:10628000634AD3F804350092052040F2AF220BF0A8
:10629000FDF82979204607B0BDE8F040FFF73CBB88
:1062A000994200F0B980534B1B681B077FF531AE54
:1062B000514B1B68012B7FF62CAE2F214F4816F057
:1062C000EFFB002800F0BC812F214C4816F0E8FBC2
:1062D000411C4B4B4F4AD3F804350092022040F248
:1062E000E2220BF0D3F814E62A7994F89B309A4214
:1062F0007FF486AE3F4B1B68180704D53E4B1B68E6
:10630000032B00F20982002504F1A000C4F8AC5070
:1063100009F0CCF920460DF03DFC94F89B3084F850
:10632000D850013384F89B3009F0FEFAD4F8D41029
:10633000014404F1B80009F0EDF9204607B0BDE8CA
:10634000F040FEF7DBBC2B4B1B681A07A2D52A4B8B
:106350001B68042B9ED92F21284816F0A1FB00288A
:1063600000F02E822F21254816F09AFB411C244B69
:10637000274AD3F804350092052040F2A3220BF0FF
:1063800085F8297986E75C211C4816F089FB0028EE
:1063900000F0AA805C21194816F082FB411CFCE643
:1063A0002046022107B0BDE8F040FFF77FBC204641
:1063B0000DF0F0FB142120460DF0ACFB0D4B1B68DB
:1063C0001D0704D50C4B1B68032B00F27C810323B3
:1063D00084F8993009F0A8FAD4F8D410014404F1F3
:1063E000B80009F097F9204607B0BDE8F040FEF785
:1063F00039BC00BF543200205032002054CF03007B
:1064000000B0004080D1030000D203007CD0030024
:10641000A4CF0300ECD0030094F8DB10930841FAFA
:1064200003F2D2073FF575AD013B03EB4300C3EB2D
:10643000C00303F1F000B21FA91D204416F051FA69
:1064400094F8D9306A79AB4894F8DB100233A0FB9A
:10645000030392081B0907FA02F20A430133D2B27E
:10646000DBB207FA03F3511C994284F8DB207FF476
:1064700050AD1AE647D91F077FF54BAD9E4B1B6801
:10648000012B7FF646AD2F219C4816F009FB002812
:1064900000F0F0802F21994816F002FB411C984B28
:1064A00094F89A20D3F8043502922879954A0190FD
:1064B000009202204FF42D720AF0E8FF29E500DE79
:1064C000F7E404F1A00009F0F1F894F89930AD79FF
:1064D000023B022B7FF6DFAC78468B4B1B68002B10
:1064E00000F088809847D6E4844956E65C218348CA
:1064F00016F0D6FA002800F0C8805C217F4816F01C
:10650000CFFA411C25E61E077FF503AD7A4B1B68C9
:10651000042B7FF6FEAC2F21784816F0C1FA002834
:1065200000F081802F21754816F0BAFA411C744B97
:1065300094F89A20D3F8043502922879734A01908E
:10654000009205204FF42E720AF0A0FFE1E42B68C0
:106550001A0E190242EA036201F47F011B0A0A4380
:1065600003F47F4313432046C4F8943014210DF004
:10657000D1FA2046FFF7E4F8002840F00A81644B86
:106580001B681E077FF523AF5B4B1B68032B7FF651
:106590001EAF2F21594816F083FA002800F0EE8034
:1065A0002F21564816F07CFA411C554B594AD3F816
:1065B00004350092042040F22B320AF067FF06E710
:1065C0005C214E4816F06CFA002800F004815C2132
:1065D0004A4816F065FA411C26E55C21474816F04A
:1065E0005FFA002800F0E7805C21444816F058FA72
:1065F000411CB6E400DE4EE4EFF3108272B63B6855
:106600002BB9ECE0D3F8A831002B00F0E88093F828
:1066100099100129F6D11C46002A98D162B6002CA7
:106620003FF477ACD7E55C21344816F039FA0028FE
:1066300000F0DA805C21314816F032FA411C76E72E
:106640005C212E4816F02CFA80B15C212B4816F004
:1066500027FA411C3DE65C21284816F021FA38B1A2
:106660005C21264816F01CFA411C08E6234930E656
:10667000224904E65C21214816F012FA38B15C2167
:106680001E4816F00DFA411C09E71C4961E51B493B
:1066900005E75C21194816F003FA80B15C21174820
:1066A00016F0FEF9411CC5E55C21144816F0F8F916
:1066B00038B15C21114816F0F3F9411C1FE40F4971
:1066C000B8E50E491BE42F210C4816F0E9F9002823
:1066D0003AD02F21094816F0E3F9411C084B0D4A26
:1066E000D3F80435009204204FF452720AF0CEFE23
:1066F0006DE600BFC94216B25032002054CF0300ED
:1067000000B00040F4CF0300F868002040D0030040
:106710005432002068D103002F21344816F0C0F90C
:10672000E8B12F21314816F0BBF9411C304B94F8E9
:10673000DC00304AD3F804350190009204204FF475
:106740003E720AF0A3FEDEE55C21284816F0A8F9A7
:1067500080B15C21254816F0A3F9411CBEE75C21FD
:10676000224816F09DF938B15C21204816F098F9BE
:10677000411CDBE71D49B1E71C49D7E75C211B48F9
:1067800016F08EF950B15C21184816F089F9411CB9
:106790000BE70023C4F89430FFF7BBBB134904E7B1
:1067A0005C21124816F07CF940B15C210F4816F0CC
:1067B00077F9411C09E40D49FFF7D3BB0B4904E409
:1067C0005C210A4816F06CF938B15C21074816F0D4
:1067D00067F9411CCBE5054926E40449C7E5002AD1
:1067E0003FF41CAFFFF795BB0049A0E654CF030070
:1067F00000B00040B0D0030010B50446807800F02F
:106800000303032B2BD8DFE803F028231E028008A4
:1068100041F2707303FB00F31749184A08681168C6
:106820001844A06021B38B68C31A002B05DA1FE05F
:106830009A68821A002A03DB1946CB68002BF7D12D
:10684000CC60E36010BD8008642303FB00F3E3E742
:10685000800800EB80004300DEE78308DCE7784631
:10686000074B1B6813B198470023D5E700DED3E739
:10687000E160146010BD00BF603300206833002069
:10688000F8680020F8B5994C237843BB984F3B68D3
:10689000002B00F0C880974E9A78317802F00302FE
:1068A0008A420EDD944DDFF858E228689D68281A68
:1068B0000EFB00F5032900F2C380DFE801F01E742F
:1068C000574E09F031F83B689B7803F00303054607
:1068D000032B00F2A980DFE803F03270733D874B91
:1068E000844E5D6809F020F833782D1A032B00F2EE
:1068F000AF80DFE803F08381687F81499A78B5FB38
:10690000F1F302F00302022A00F0C48000F2D68004
:10691000012A09D17B4AA2FB0312D20802EB8202B0
:10692000B3EB420F00F0A38008F0FEFF337805467A
:10693000032B00F2D380DFE803F0A5A3A9A77049D9
:10694000337029442378002B64D06C48BDE8F840AC
:1069500008F0E0BE6C493370F3E76C486B0AA0FBAB
:106960000313012A4FEAD313DED1D3E7684B012A80
:10697000A3FB05034FEA9353CCD0032AD4D10129BA
:1069800040F0E580634AA2FB031292094FF41671AE
:1069900001FB1233002BC7D108F0C6FF5A4903236D
:1069A00001443370CEE75C4B022AA3FB05034FEA98
:1069B000934300F0C280ABD9E1E758493370C0E798
:1069C00057493370BDE75648401B4B4A5549136839
:1069D0004009A1FB001003EBD0101060444F3B684E
:1069E000002B7FF459AF2378EBB14448BDE8F84061
:1069F00008F05CBE4448E7E74848E5E7C5F5C33022
:106A0000A0304CF250339842DFD93B4A136801332F
:106A10001360E3E7394B0122596022701846BDE844
:106A2000F84008F001BEF8BD78463F4A1168D9B178
:106A300088473B689B7803F003030021337080E7AD
:106A40007846394A116869B188473B68002155E7A3
:106A50007846354A1268DAB1904733786842002B9D
:106A6000CFD0B2E700DE49E700DE337069E708F017
:106A70005BFF012300F5742101F51071337061E7AC
:106A800026495EE71E495CE71F495AE7244958E753
:106A900000DEE3E73278002A4CD1244AA2FB03123D
:106AA0005209642101FB1233002B7FF43DAF08F043
:106AB0003BFF1B4902230144337043E7317800292F
:106AC0007FF45DAF1A4AA2FB0312D20941F2707142
:106AD00001FB1233002B3FF45FAF25E77846124BE2
:106AE0001968002941D0884700212AE76433002033
:106AF00068330020653300206033002048330020D5
:106B0000A0860100CDCCCCCC0046C323852807004D
:106B10006BCA5F6BB5814E1B83DE1B4340420F0087
:106B200080969800C55A7C0AF86800201F85EB51B2
:106B3000F1197605012A7FF4F7AE0D4AA2FB031284
:106B4000D20802EB8202B3EB420FB0D0ECE602298E
:106B50007FF4EAAE074AA2FB03125209C2EB02120B
:106B6000B3EB820F7FF4E0AE16E700DEE9E600BF8C
:106B7000CDCCCCCC898888882DE9F0432D4B1B786F
:106B800083B0032B4DD8DFE803F0423D38022A4D95
:106B90002B6803F5BB5310332B60284E284B346809
:106BA00000271F70002C37D0234DDFF898800AE0B3
:106BB000984763680199484698472046FFF71CFEAE
:106BC0003468002C28D0A3682A68934201A903D016
:106BD0002A689B1A002B1FDAB4F80090E36801972B
:106BE0004846336001F032F80028E2D07846D8F801
:106BF0000030002BDCD100DEDBE70F4D2B68643367
:106C00002B60CAE70C4D2B680A332B60C5E70A4D91
:106C10002B6801332B60C0E7FFF734FE03B0BDE8FB
:106C2000F0837846074B1B680BB19847B5E700DE49
:106C3000B3E700BF653300206033002068330020D5
:106C400064330020F868002010B5084C1822002199
:106C5000204615F051FE064B06480749074AA36037
:106C6000002303600B60137010BD00BF4833002089
:106C7000796B020060330020683300206433002009
:106C8000F8B50F461546044678B3244E09F064FB68
:106C9000306840B1844203D133E09C4214D018469E
:106CA000C368002BF9D1A37867F3010365F3870369
:106CB000A3702DB12046FFF79FFD33689C4211D091
:106CC000BDE8F84009F06ABBA378E26867F3010306
:106CD00065F38703A370C260002DEBD1002CEFD0C9
:106CE0000028EDD1FFF7CEFDEAE778460C4B1B6894
:106CF0008BB19847094E09F02FFB30680028CFD19F
:106D0000D1E7A378E268326067F3010365F3870394
:106D1000A3700020E0E700DEECE700BF683300204E
:106D2000F868002010B5044682B048B1A378C3F3D8
:106D300001030B70A378C3F38503137002B010BD79
:106D40007846054B1B682BB18DE8060098479DE8F7
:106D50000600EBE700DEE9E7F86800207846034B21
:106D60001B6803B1184700DE704700BFF8680020B9
:106D7000004700BF08B5064B064801221A700AF00A
:106D8000F5FF00B908BD0448BDE808400BF0F2BBB0
:106D9000A433002080330020C83100202DE9F041C9
:106DA00009F0DAFA3E4B1B78002B58D13D4C237882
:106DB000002B65D03C4C237803F00303032B1CD03D
:106DC00001243A4FDFF8EC8001E00134A4B2611EE7
:106DD00089B201EB410607EB46056B799B0737D477
:106DE000022CF2D1324C94F8303003F00303032B21
:106DF00014D0BDE8F04109F0D1BA04224FF440515B
:106E00002C480BF09DF850B36368DB4343600BF0F4
:106E1000E5F8237823F002032370D1E714224FF41E
:106E2000005124480BF08CF80546C0B121461422CD
:106E3000043015F056FD28460BF0D0F894F83030A9
:106E400023F0020384F83030BDE8F04109F0A6BA1F
:106E500041F48051022240460BF072F830B91648D6
:106E60000BF088FBBDE8F04109F098BA37F816201E
:106E700082800BF0B3F86B7923F002036B71AFE7FC
:106E8000062201210B480BF05BF80028E7D0012512
:106E90000222C280058185800BF0A0F8257089E769
:106EA000A4330020A5330020DC3300206C33002005
:106EB000A833002080330020D8310020F0B5067DB3
:106EC000012E83B0044656D002A94FF6FF7321F875
:106ED000043D143002F0A6FD30B17846524B1B68D9
:106EE000002B00F090809847BDF8040002F0B8FB3A
:106EF00030B978464C4B1B68002B00F08D809847CA
:106F00004A4D95F83030DB0733D5EB898BBB628C6B
:106F1000510905EB810102F01F028868012101FA85
:106F200002F2024225D0BDF804204148560900EB88
:106F3000860002F01F0240689140014219D0288D5E
:106F40006E6A2788B4F802E098B1324603E09842AE
:106F500002F108020DD036F83310B94203F10103F3
:106F6000F5D151887145F2D15368EA6A2146002073
:106F7000984703B0F0BD01A801F070FDE38ABDF8A9
:106F800004209342F5D3BDF8061011448B42F0DA89
:106F9000264D95F83010C907EBD59B1AAA899BB2EC
:106FA0009A42E6D1638C5A0905EB820203F01F0373
:106FB00092689E401642DCD02E8D686AB4F800E0DC
:106FC000B4F802C0002ED4D00246002303E09E4253
:106FD00002F10802CDD030F8331071454FEAC307F3
:106FE00003F10103F3D151886145F0D1EA6A2146EA
:106FF000002000F04BFF6B6AEA6A1F4421467B6861
:1070000000209847B5E700DEBDF8040002F028FB39
:1070100000287FF475AF6CE700DE044D95F8303042
:10702000DB07A6D571E700BFF8680020A833002071
:10703000DC330020037803B17047F0B541680A786B
:1070400002F0C003402B8DB004467ED07CD9802B4B
:1070500045D0C02B7DD14B788E7895B246EA032679
:10706000464B1B689A0403D5454B1B68042B43D839
:10707000206A02F0D3FE4FF6FF7296420146ADF849
:107080000C50ADF80E60636857D003330493238926
:1070900003229B1AE08AADF81430A269A36A94F81F
:1070A0000CE0E7892669257DADF82200ADF81A705D
:1070B00007968DF8205009928DF818E05A680A92C8
:1070C00093F90D3094F824208DF82C3003A88DF816
:1070D0002D20ADF82E10FFF7F1FE0DB0F0BD4D786C
:1070E00045EA0225254B1B689B041BD5244B1B68D6
:1070F000042B17D94FF6FF762F21224815F0D0FC2C
:1071000078B32F211F4815F0CBFC411C1E4A1F4BA2
:107110000520D3F804358DE8240040F223120AF04C
:10712000B5F9A5E7206A02F079FE4FF6FF73ADF8D6
:107130000E306368ADF80C500146FF2D0CD90233B8
:10714000049302222389A4E71BB995B27F2DC4D0F2
:10715000C8E70026354683E70133049301222389DB
:1071600097E75C21074815F09BFC28B15C21054896
:1071700015F096FC411CC9E70249C7E754320020CC
:107180005032002050D203006CD2030000B0004007
:1071900010B586B00E4B0F490F4A03930423049198
:1071A0000592029301F092FB0C4CA0F58052012352
:1071B00069460B480092237001930AF0A1FF10B9B1
:1071C000207006B010BD07480BF0D4F906B010BD12
:1071D000E97102005D6D020041720200A4330020DB
:1071E00080330020B831002070B5012A8CB01AD04D
:1071F000022A18D0032A14D104460D462C2200215D
:1072000001A815F079FB19260221E268236903958C
:1072100001A88DF804608DF808100592069306F019
:10722000E7FD0CB070BD7846044B1B6813B198475E
:107230000CB070BD00DE0CB070BD00BFF86800205F
:1072400010B51E4A1378D80744BF43F002031370E9
:107250001B4B1A8886B01AB15A7942F002025A7151
:10726000DA881AB1DA7A42F00202DA72154A164C5A
:1072700092F83030D90744BF43F0020382F830302F
:10728000124B1349134A039304230491059202936A
:1072900001F01CFB0123A0F5805269460E480092C4
:1072A000237001930AF02CFF10B9207006B010BDB6
:1072B0000A480BF05FF906B010BD00BFDC330020B8
:1072C0006C330020A8330020A4330020E9710200B1
:1072D0005D6D02004172020080330020B831002051
:1072E00010B5124C34220021204615F005FB0C226B
:1072F00000210F4815F000FB082200210D4815F071
:10730000FBFA4FF0FF320C4B6260E36000F0FAFDD5
:107310000A4B0B4801221A700AF028FD00B910BD73
:107320000848BDE810400BF025B900BFA833002085
:107330006C330020DC330020FFFF0100A433002069
:1073400080330020C831002030B51F4C1F4D87B05E
:1073500034220021204615F0CFFA0C2200211C48CF
:1073600015F0CAFA082200211A4815F0C5FA1A4B7E
:107370001A491B4AE16018464FF0FF311A606160FC
:1073800007F060FF00F0B0FDFFF75EFC154B1649FB
:10739000164A0393042304910592029301F096FA8E
:1073A0000123A0F580526946114800922B70019389
:1073B0000AF0A6FE10B9287007B030BD0D480BF0DA
:1073C000D9F807B030BD00BFA8330020A433002097
:1073D0006C330020DC33002078330020FFFF0100F5
:1073E00035700200E97102005D6D02004172020019
:1073F00080330020B83100202DE9F04F91B002AF6A
:1074000000293CD00B89B3F5BE7F2CD288BBA14E9E
:1074100096F83030DA072CD5B389012B29D8B388F8
:107420004FF6FF72934235D0F388934232D04888AA
:107430000B88904200F0F58023F03F03A3F1C003D6
:10744000B3FA83F35B092BB307F108000C4601F094
:1074500005FBB5897B89AB421ED8102528463C37F1
:10746000BD46BDE8F08F092528463C37BD46BDE83E
:10747000F08F052528463C37BD46BDE8F08F0E2528
:1074800028463C37BD46BDE8F08F23F07F020AB99D
:107490007F2BD9D10725E7E73B89B6F806A0B6F8D8
:1074A00004B007F10C081D4450464146ADB202F04D
:1074B0004FF930B17846784B1B68002B00F0BD8047
:1074C000984796F81090B9F1FF0F04BF734B93F8EB
:1074D00000903B7B012B5FD04FF6FF739A4504D0A1
:1074E000504602F0BDF800285ED107F1280A07F1E6
:1074F000140620220021304615F0FEF9628821880A
:10750000C7F804D04FF6FF739A4200F0848003223C
:1075100023891344073323F007035146ADEB030DD2
:1075200058460DF1080A03F0C9F930B178465A4BB4
:107530001B68002B00F08380984798E8030063885D
:10754000BD834FF6FF75AB4286E8030087F81E90B7
:10755000C7F820A0228920884CD01D0AD11C8AF8A7
:1075600000008AF802308AF80150B984032061686B
:10757000504415F0B6F93046002107F04BFD0546A2
:1075800038B9474B1B689B0403D5464B1B68042B3B
:107590005BD8D7F804D067E7FB893A899342A4D334
:1075A00079890A449342A0DA07F1140624220021C3
:1075B000304615F0A1F998E80300236822897B6121
:1075C00007F1280A01238AE80300616887F8203060
:1075D000B961BA837D8408F0A7F93863304687F82B
:1075E0003590A7F836B0FFF769FC3B7B012B80D1C3
:1075F000002539E7B0F5807F34BF0123022313440F
:1076000010F47F4FBB841CD0030A8AF801008AF86B
:1076100000300220ABE7B1F5807F34BF01220222A7
:1076200076E713F47F4F3FF430AF03F44043A3F504
:107630000043B3FA83F35B0905E700DE41E700DEB0
:107640007BE78AF80000012091E72F21164815F00A
:1076500027FA88B12F21144815F022FA411C134B48
:107660002088134AD3F8043501900092052040F297
:10767000C51209F00BFF8CE75C210B4815F010FADE
:1076800028B15C21084815F00BFA411CE7E70649D0
:10769000E5E700BFA8330020F8680020E8310020AB
:1076A000543200205032002050D2030000B000407D
:1076B0003CD2030048B90C4B93F8302012F0010F74
:1076C00003D0172903D9072070470520704710B44D
:1076D000DC888C4204D042F0020283F83020D9804A
:1076E0005DF8044B704700BFA833002051B138B992
:1076F000054B93F83020D20702D5DB880B8070470A
:10770000052070470E207047A833002008B10520DF
:10771000704710B5144C94F83030DB0701D40520C5
:1077200010BDA3691BB13F2A03D9072010BD062055
:1077300010BD0329F9D8637CB2EB930F03D103F09A
:1077400003038B42F2D0637C084862F3870361F342
:1077500001036374FFF794FA94F8303043F00203A6
:1077600084F83030002010BDA8330020BC33002046
:1077700091B18AB170B910B50A4B93F83040E40763
:107780000CD59C6964B1044603F11400FFF7CAFAF2
:10779000204610BD052070470E207047052010BD03
:1077A000062010BDA833002058B9134B93F83020A1
:1077B000D20706D5DA89012A05D0172905D907206D
:1077C0007047052070470620704770B4D500043517
:1077D0000A4E0123745903FA01F114EA010308D196
:1077E0002143715116F8321041F0020106F83210AF
:1077F000184670BC704700BFA8330020DC3300205F
:1078000058B9144B93F83020D20706D5DB89012BE9
:1078100005D0172905D90720704705207047062095
:10782000704770B4DD0004350B4E0122745902FA22
:1078300001F114EA01020AD024EA0101715116F89B
:10784000332042F0020206F8332070BC7047104625
:10785000FBE700BFA8330020DC33002029B322B3AC
:1078600008BBF0B5154D95F83030DB071FD5EB8917
:10787000012B1ED0124FB2F800E010800126EB89D8
:1078800006FA00F453B97B681C4207D013889E4562
:1078900011D921F8130013880133138001301828FF
:1078A000EDD10020F0BD052070470E207047052067
:1078B000F0BD0620F0BD0920F0BD00BFA8330020B8
:1078C000DC33002050B930B40E4A92F83040E30760
:1078D00006D50A2907D9072030BC70470520704714
:1078E000052030BC70470123956803FA01F115EAC1
:1078F0000103F1D1294344F00204916082F8304041
:107900001846E9E7A833002048B90F4B93F8302018
:1079100012F0010F03D00A2903D907207047052070
:10792000704730B401249D6804FA01F115EA01049E
:1079300008D025EA010142F00202996083F8302064
:1079400030BC70472046FBE7A833002000296DD0EB
:10795000002A6BD0002867D130B4384B93F8304000
:10796000E40765D5148810809D68ED0705D5002CC7
:1079700061D008801088013010809868850709D58B
:107980001088844257D9012521F8105010882844C6
:1079900010809868450709D5108884424BD9022584
:1079A00021F810501088013010809868050709D51B
:1079B000108884423FD9032521F8105010880130E7
:1079C00010809868C50609D51088844233D90425EB
:1079D00021F810501088013010809868850609D56C
:1079E0001088844227D9052521F8105010880130CD
:1079F00010809868400608D5108884421BD9062557
:107A000021F810501088013010809B681B0608D5A3
:107A100013889C420FD9072021F8130013880133E3
:107A20001380002030BC7047052070470E2070473F
:107A3000052030BC70470920F4E700BFA8330020C0
:107A400048B90C4B93F8302012F0010F03D00A29EB
:107A500003D9072070470520704710B49C888C42DA
:107A600004D042F0020283F8302099805DF8044B84
:107A7000704700BFA833002051B138B9054B93F8C7
:107A80003020D20702D59B880B80704705207047B5
:107A90000E207047A833002070B90D4B93F83020AA
:107AA00012F0010F08D010B481F080047E2C05D8AC
:107AB00007205DF8044B7047052070471C7C8C4202
:107AC000F7D042F0020283F830201974F1E700BFCA
:107AD000A833002051B138B9054B93F83020D207B4
:107AE00002D51B7C0B707047052070470E20704735
:107AF000A8330020012801D90520704710B400EBFD
:107B000040004000084B1A5A8A4203EB000408D098
:107B10006279195242F00203637100205DF8044B50
:107B200070470020FAE700BF6C33002019B101282C
:107B300003D9052070470E20704700EB4000034B2F
:107B400033F810300B800020704700BF6C330020EA
:107B500019B1012803D9052070470E207047044B46
:107B600000EB400003EB400300209B780B70704754
:107B70006C33002019B1012803D9052070470E206D
:107B80007047044B00EB400003EB40030020DB7820
:107B90000B7070476C33002061B148B9064B93F805
:107BA0003020D20704D51A880A805B884B80704742
:107BB000052070470E207047A833002082B0019145
:107BC00022B1012805D9052002B070470E2002B06D
:107BD00070474FF6FF71094B118099898142F2D1AC
:107BE0001888BDF804108842EDD15988BDF80630D8
:107BF0009942E8D100201080E6E700BFA8330020BA
:107C000021B11AB1012803D9052070470E20704711
:107C1000138830B4002414809BB10B4D95F830309C
:107C200013F0010304D0AB89834204D0204600E066
:107C3000184630BC70470C801388013320461380EF
:107C4000F7E70920F5E700BFA833002051B138B9A4
:107C5000054B93F83020D20702D5DB6A0B607047E2
:107C6000052070470E207047A833002070B58600AD
:107C7000354C331804EBC303054693F83C302BB95D
:107C80007846324B1B68002B43D09847B4F84030FD
:107C900033B978462D4B1B6883B39847B4F840300E
:107CA0007219013B04EBC2029BB20021A4F84030E0
:107CB00082F83C10EBB1B4F84230AB4200D070BD5A
:107CC00094F83C303BBB4FF6FF73A4F84230784643
:107CD0001E4B1B68002B33D09847B4F842301A482B
:107CE00003EB830304EBC304616BBDE8704007F052
:107CF00011BD1548BDE8704007F0D8BC00DE721910
:107D000004EBC2024FF6FF7182F83C30A4F8401039
:107D1000D1E700DEBAE7354404EBC505616B0C4BD7
:107D20006A6B0B449B1ADB43DB0F5B429BB24FF643
:107D3000FF729342A4F8423018BF0023CFD1C6E7A8
:107D400000DE4FF6FF73CAE7E4330020F868002036
:107D500000796CFC30B54A4CB4F8403083B005462D
:107D60002BB97846474B1B68002B31D0984794F8C5
:107D70003C204FF6FF73A4F842309AB1E36A05F550
:107D80007A729B1A002B2CDB636B9A1A002A48DB51
:107D90000022A4F84220B4F840209AB90023E360FE
:107DA00003B030BDB4F84020002AF7D07846354AF9
:107DB00012687AB19047B4F8423003EB830304EBC6
:107DC000C3035B6B5A1B48BFEA1AE26003B030BDC5
:107DD00000DECCE700DE03EB830304EBC3035B6B45
:107DE000F0E7B4F84030208B013B002201A9A4F851
:107DF000403084F83C20FFF729FF40BB236B0199FA
:107E0000208B01229847B4F84030002BC6D0B4F83C
:107E10004230002BCAD1636B5A1B48BFEA1AE2609A
:107E2000D4E71949208BFFF7E7FA0023A4F8423082
:107E300098B104281DD07846124B1B68B3B19847FF
:107E4000636BE26AD31A002BDDDA6263DBE7784604
:107E50000C4B1B6843B19847D0E7A36B616B5A008A
:107E60000B446363A263ECE700DEC7E700DE636BED
:107E7000E7E7636B03F51C43403363638BE700BFA5
:107E8000E4330020F868002000340020F8B50E46E6
:107E90001746054620B17846114B1B68F3B1984749
:107EA000104C08F059FA94F83C3013B1238BAB42D4
:107EB00003D0BDE8F84008F071BA228D33889A42A9
:107EC000F7D17388628D9A42F3D10020FFF7CEFE7E
:107ED000236B3946284600229847EAE700DEDFE7B1
:107EE000F8680020E433002010B5044C44222046FA
:107EF000002114F001FD024BA36010BDE43300200B
:107F0000557D020008B508F027FA094BB3F8402068
:107F10002AB100221846A3F8402007F0C7FB282208
:107F20000021044814F0E8FCBDE8084008F036BA27
:107F3000E4330020FC330020F0B40E4B09880E4ED1
:107F40000E4D87B27A0923F8271000F01F01012097
:107F500056F82240884055F8221003EB870304436B
:107F6000084346F8224045F822000022DA709A7051
:107F7000F0BC704740340020283400202C3400200E
:107F8000024B33F820300B80704700BF4034002094
:107F900010B5044618B12346BDE81040184778468E
:107FA000044B1B6823B198472346BDE8104018478F
:107FB00000DEF0E7F868002070B5162404FB00F539
:107FC000064C0E46A91D2144301D102214F089FCD8
:107FD000635B33802C446388738070BD4035002020
:107FE00070B5162404FB00F5064C0E46A91D21446D
:107FF000301D102214F075FC635B33802C446388C1
:10800000738070BD8834002070B55C2404FB00F4DC
:10801000054E0D46A11C3144A81C102214F061FC31
:10802000335B2B8070BD00BFC8350020044B00EBD4
:10803000800003EB800310220846191D14F051BC88
:10804000383700200422014814F04BBCBC35002016
:1080500008460422014914F044BC00BFBC3500208E
:108060002DE9F041244D5C2404FB02F4164604F192
:1080700034032A192B4488461364074610B91F4B52
:1080800001221A7004F112012944404609F076F9E0
:1080900020B178461A4B1B6863B3984704F144013A
:1080A0002944404609F07CF920B17846144B1B68FE
:1080B000F3B19847A01C41461022284414F011FC4B
:1080C00006F01F047309DFF840C00E4A5CF8230075
:1080D0000121A1405C2404FB06F652F82340AF5373
:1080E0000843214342F823104CF82300BDE8F081F7
:1080F00000DEDFE700DED1E7C8350020B83500201C
:10810000F8680020C4350020C03500202DE9F84370
:1081100004460D4608F020F9052C05D97846204B79
:108120001B68002B39D098471E4B1E78BEB91E4FD6
:1081300064013C446E09A1681C4851F826300122B4
:1081400005F01F0502FA05F52B4341F826300026FD
:108150000AF010FA08F022F93046BDE8F883124F11
:108160001348640107EB0408B8F81210D8F814207B
:10817000294489B209F0E4FE81460028D9D0D8F814
:10818000183009F1040128469847484609F026FFAF
:1081900008F004F93046BDE8F88300DEC4E700BF0C
:1081A000F86800208235002080D20300A835002026
:1081B0008435002008B5064B064800221A7009F0E5
:1081C000D5FD00B908BD0448BDE808400AF0D2B9A1
:1081D0008235002084350020EC31002030B587B096
:1081E0001C4B1D491D4A03930023049105920293E1
:1081F00006F0FCFC1A4CA0F5805001238DE8090024
:1082000008F0AAF82046694609F07AFF48B92178B3
:1082100001290DD008F0C2F8124B01221A7007B0E4
:1082200030BD08F0BBF810480AF0A4F907B030BD23
:1082300020460A2209F084FE0028F2D008221025E8
:108240000424032145818281C2808480018109F058
:10825000C5FEDFE7A58302006D820200D98502001A
:108260008435002082350020FC31002000B5012A31
:108270008DB019D0022A17D0032A12D12C22002146
:1082800001A814F039FB0E4BDA6819690592022334
:10829000192201A806918DF804208DF8083005F008
:1082A000A7FD0DB05DF804FB7846064B1B681BB1BB
:1082B00098470DB05DF804FB00DE0DB05DF804FBDF
:1082C00084350020F86800202DE9F04100F1080411
:1082D000A4B2083C162505FB04F6144D0B46B01D50
:1082E000284404311022B3F800805F8814F0F9FAB2
:1082F0006309DFF840E00E485EF8232050F82310B1
:1083000025F806804FF0010C04F01F040CFA04F469
:10831000354422430C4340F8234000216F806971AB
:1083200085F804C04EF82320BDE8F08140350020D8
:108330003C35002038350020F8B500F11004A4B217
:10834000103C04EB8405AD00124E281D0F4630444E
:10835000102214F0C6FA7119384609F049F820B114
:1083600078460D4B1B689BB1984763090B4E0C4D2B
:1083700056F8230055F8231004F01F04012202FAD6
:1083800004F420430C4346F8230045F82340F8BD8D
:1083900000DEEAE738370020F86800203834002093
:1083A0003C34002010B5012A8CB01AD0022A18D013
:1083B000032A14D10C462C22002101A814F09CFAA7
:1083C0000D4B0394DA68196905920223192201A85A
:1083D00006918DF804208DF8083005F009FD0CB0E9
:1083E00010BD7846054B1B6813B198470CB010BD03
:1083F00000DE0CB010BD00BF84350020F8680020FE
:108400002DE9F0471FFA80F84FF0160A0AFB08FA28
:108410001C4F0E884D8801F104090AF106004946F7
:108420003844102214F05DFA0AF105013944484637
:10843000444608F097FF20B17846134B1B68FBB108
:1084400098474FEA5811DFF848E010485EF82130AD
:10845000012204F01F0402FA04F443EA040250F873
:1084600021304EF821201C43162303FB08F3FA1891
:10847000FE5240F82140002355801371BDE8F0877B
:1084800000DEDEE788340020F86800208434002015
:10849000803400202DE9F04F4A4F83B04FF001099E
:1084A0004FF000084FF0010E09F11F056D0959D07A
:1084B0006E1E381F4946002301E0AB4252D0B34242
:1084C00008BF0EFA01F250F8044F0CBF02F1FF3260
:1084D0004FF0FF32224203F10103A1F12001ECD061
:1084E000B9F1000F5AD0384A4FEA4813019302EB12
:1084F000030A00250CE0FFF709FE00285ED0DBF838
:10850000003023EA0404CBF8004001354D4545D046
:108510006B0905F01F0157F8232001248C409E00B1
:10852000144207EB060BF0D0DAF8042052F823309F
:108530001C4229464046DED107F00EFF234B1B7834
:1085400003BB019B224899461F4B9944D9F8082048
:1085500093591C4394510AF00DF803B0BDE8F04F55
:1085600007F01CBF08F101085FFA88F8B8F1060FA0
:1085700024D0154A14494FEA48131A4451F803907D
:10858000976891E7BAF812101248294489B209F0A5
:108590005BFD0028D5D107F001FFB0E708F1010825
:1085A0005FFA88F8B8F1060F08D0074A06494FEA83
:1085B00048131A4451F80390976873E703B0BDE875
:1085C000F08F00BF3434002080D2030082350020B9
:1085D000A83500208435002030B587B01C4B1D49DC
:1085E0001D4A0393002304910592029306F0FEFABC
:1085F0001A4CA0F5805001238DE8090007F0ACFE6D
:108600002046694609F07CFD48B9217801290DD042
:1086100007F0C4FE124B01221A7007B030BD07F0FC
:10862000BDFE104809F0A6FF07B030BD20460A2263
:1086300009F086FC0028F2D008221025042403212A
:1086400045818281C2808480018109F0C7FCDFE717
:10865000A58302006D820200D985020084350020C6
:1086600082350020FC3100202DE9F8431FFA80F804
:10867000274D0F465C2404FB08F437F8029B04F1F5
:1086800034032A192B4446461364B9F1000F02D172
:10869000204B01221A7004F112012944384608F0D7
:1086A0006DFE20B178461C4B1B6873B3984704F1EC
:1086B00044012944384608F073FE20B17846164B31
:1086C0001B6803B39847A01C39461022284414F0B5
:1086D00008F9124F124C4FEA5813012206F01F06F8
:1086E00002FA06F657F8231054F8232031431643B4
:1086F0005C2202FB08F847F8231044F8236025F8B1
:108700000890BDE8F88300DEDDE700DECFE700BFBC
:10871000C8350020B8350020F8680020C03500209A
:10872000C4350020F0B50F2883B005D8344E01249D
:10873000316884400C4207D1A0F11004A3B2072B8A
:108740000CD9052003B0F0BD2E4D05EB80029378C7
:108750000BB9D27852B3002003B0F0BD2A4E0122EB
:10876000316802FA03F30B42EBD004EB8403274F8A
:108770009B00FD18A8780028EDD195F803E0BEF124
:10878000000FDFD102FA04F521EA050127F803E022
:10879000316007F0E1FD1E4B1B783BBB1D4B1E48B3
:1087A0001A682A431A6009F0E5FE12E021EA040182
:1087B00025F820203160019007F0CEFD144B019880
:1087C0001B7853B9154A144813681C43146009F008
:1087D000D1FE07F0E3FD0020BEE700F5805189B22D
:1087E0000F4809F031FC0028F3D0EBE704F5005105
:1087F00089B20B4809F028FC0028EAD0CEE700BF78
:10880000283400204034002038340020383700203D
:10881000823500203C340020A83500202C34002074
:108820008435002070B5204A204B214C21499360AB
:1088300086B00023204D2148214E0591D66023703B
:1088400002930395049006F0D1F91E4DA0F58050D7
:1088500001238DE8090007F07FFD2846694609F0ED
:108860004FFC40B9297801290CD007F097FD01236E
:10887000237006B070BD07F091FD134809F07AFE31
:1088800006B070BD28460A2209F05AFB0028F2D033
:10889000082210260425032146818281C28085801A
:1088A000018109F09BFBE0E7A8350020917F0200E1
:1088B00082350020D9850200A58302006D82020066
:1088C0009584020084350020FC31002008B506F0B4
:1088D0008DF9A0F5805008BD70B53A4D05F1C00680
:1088E0002C6868681F346409A4002246002114F033
:1088F00003F8203555F8180C2246002113F0FCFF30
:10890000B542EDD1304A3149314E324D324C3348C7
:108910000023D3709370D3719371D3729372D37316
:108920009373D3749374D3759375D3769376D37707
:10893000937782F8233082F8223082F8273082F849
:10894000263082F82B3082F82A3082F82F3082F8D5
:108950002E3082F8333082F8323082F8373082F8A5
:10896000363082F83B3082F83A3082F83F3082F875
:108970003E30CB708B70CB758B7581F82B3081F8C6
:108980002A3081F83F3081F83E3081F8533081F849
:10899000523081F8673081F8663081F87B3081F899
:1089A0007A3081F88F3081F88E3033602B702370ED
:1089B00009F0DCF900B970BD0948BDE8704009F064
:1089C000D9BD00BF80D203004034002038370020DA
:1089D000BC350020B83500208235002084350020C9
:1089E000EC31002070B5054668B1194E306810F0C2
:1089F000010401D00F2070BD28886B880344984281
:108A000007DB0B2070BD7846124B1B68EBB1984713
:108A1000EBE706F05BFA0128F3D128886B8818444D
:108A2000013880B206F052FA0128EAD12946042220
:108A3000094813F056FF336843F0010321462046EE
:108A40003360FFF763FB204670BD00DECDE700BF5B
:108A500030340020F8680020BC35002010B50446F2
:108A600030B1204604220649BDE8104013F039BF5A
:108A70007846044B1B680BB19847F2E700DEF0E73D
:108A8000BC350020F868002091B12DE9F04704467C
:108A90000D4606F01BFA02280CD000F0FD02012A58
:108AA00012D04FF6FF77012855D01020BDE8F0878F
:108AB0000E207047B24B1A68B24BD60700F189807E
:108AC0009A8AA242F1D0F0E7AF49B04E0B6813F09A
:108AD000010740F09B80B388A34200F044813389B2
